:100000000C94C2020C9409030C9409030C94090388
:100010000C9409030C9409030C9409030C94090330
:100020000C9409030C9409030C945E220C94322363
:100030000C94801D0C9409030C9409030C9409037F
:100040000C9409030C9409030C9409030C94090300
:100050000C9409030C94CB1D0C9409030C94090314
:100060000C9409030C9409030C9409030C940903E0
:100070000C9409030C9409030C9409030C940903D0
:100080000C9409030C9409030C9409030C940903C0
:100090000C9409030C9409030C9409030C940903B0
:1000A0000C9409030C9409030C9409032900000023
:1000B0003A003B003C003D003E003F004000410054
:1000C0004200430044004500460047004800350018
:1000D0001E001F0020002100220023002400250014
:1000E000260027002D002E002A0049004A004B0060
:1000F0002B0014001A000800150017001C0018003F
:100100000C00120013002F00300031004C004D0095
:100110004E00390004001600070009000A000B0019
:100120000D000E000F003300340028000000000016
:1001300000000000E10000001D001B000600190087
:10014000050011001000360037003800E5000000FF
:10015000000052000000E000E300E20000000000A8
:100160002C00000000000000E6006500E4000151E2
:100170005000000051004F00005C00000100010031
:100180000100010001000100010001000100010067
:1001900001000100CE5CCF5CD05C010001000100D9
:1001A0000100010001000100010001000100010047
:1001B000010001000100C65CC85CCA5C01000100CE
:1001C0000100010001000100010001000100010027
:1001D0000100010001000100C75CC95CCB5C0100AB
:1001E0000100010001000100010001000100010007
:1001F00001000100010001000000000000000000FB
:100200000100000001000100010001000100145C78
:1002100001000100010001000100000000000100D8
:1002200000000100010001000000000001000000CA
:10023000000000000100010001000100C55C000099
:10024000C35CC45C32190A00047F3F1F643214642B
:100250003214783C1E1E140A052223252628292A3A
:100260002C2D2F3032333536383A3B3D3E40424319
:100270004547494A4C4E5051535557595A5C5E6058
:1002800062646668696B6D6F71737577797B7D7F6A
:1002900081838587898A8C8E90929496989A9C9E69
:1002A0009FA1A3A5A7A8AAACAEAFB1B3B4B6B8B985
:1002B000BBBCBEBFC1C2C3C5C6C7C9CACBCCCDCEED
:1002C000D0D1D2D2D3D4D5D6D7D7D8D9D9DADADBD0
:1002D000DBDBDCDCDCDCDCDDDDDDDDDCDCDCDCDC5C
:1002E000DBDBDBDADAD9D9D8D7D7D6D5D4D3D2D29B
:1002F000D1D0CECDCCCBCAC9C7C6C5C3C2C1BFBE83
:10030000BCBBB9B8B6B4B3B1AFAEACAAA8A7A5A3ED
:10031000A19F9E9C9A98969492908E8C8A898785AC
:1003200083817F7D7B79777573716F6D6B6968668B
:100330006462605E5C5A5957555351504E4C4A495D
:1003400047454342403E3D3B3A3836353332302F05
:100350002D2C2A292826252322FFAA7F554000017B
:100360000101010101010101020202020202020275
:100370000203030303030303030404040404040447
:10038000050505050506060606060707070707080B
:10039000080808090909090A0A0A0B0B0B0C0C0CBE
:1003A0000D0D0D0E0E0E0F0F0F1010111111121258
:1003B00013131414151516161717181819191A1AD5
:1003C0001B1B1C1D1D1E1E1F202021222223242436
:1003D000252626272829292A2B2C2D2D2E2F303172
:1003E0003232333435363738393A3B3C3D3E3F4084
:1003F0004142434445464748494A4C4D4E4F50516F
:100400005354555658595A5B5D5E5F616264656628
:1004100068696B6C6D6F7072737577787A7B7D7EAF
:100420008082838587888A8C8E8F91939596989AFF
:100430009C9EA0A2A3A5A7A9ABADAFB1B3B5B7BA17
:10044000BCBEC0C2C4C6C9CBCDCFD1D4D6D8DBDDEB
:10045000DFE2E4E7E9EBEEF0F3F5F8FAFDFF0A037B
:10046000430055003800300000001A0343006100CB
:100470007000730055006E006C006F0063006B002D
:100480006500640000000403090409023B00020146
:1004900000A0FA0904000001030101000921110173
:1004A00000012240000705810308000A0904010039
:1004B0000103000000092111010001226D00070560
:1004C000820320000A120110010000000855438138
:1004D0000001000102000105010980A10185031945
:1004E000012AB700150126B700950175108100C0DB
:1004F000050C0901A101850419012AA00215012694
:10050000A002950175108100C005010906A10185B1
:1005100005050719E029E7150025019508750181F2
:10052000020507190029EF1500250195F0750181D5
:1005300002050819012905950575019102950175B6
:10054000039101C005010906A101050719E029E78A
:100550001500250195087501810295017508810135
:100560000507190029FF150026FF0095067508816B
:100570000005081901290595057501910295017578
:10058000039101C011241FBECFEFDAE0DEBFCDBF63
:1005900004B603FE27C08091C5059091C605A091C1
:1005A000C705B091C8058730904BA740B04BD1F438
:1005B0001092C5051092C6051092C7051092C80585
:1005C00014BE84B7877F84BF0FB6F894A895809136
:1005D0006000886180936000109260000FBEE0E0D0
:1005E000F8E3099511E0A0E0B1E0EAE1FDE402C022
:1005F00005900D92A83CB107D9F725E0A8ECB1E031
:1006000001C01D92A53CB207E1F70E94A01F0C9407
:100610004F260C94000081E0089581E008950C9429
:100620000D0308950C9411031F93CF93DF9300D013
:1006300000D00F92CDB7DEB749835A836B833091D8
:10064000AD0389819A8131111DC06623B9F022233F
:10065000A9F00E94781A182F682F89819A810E9428
:10066000241A69817A81812F0F900F900F900F903B
:100670000F90DF91CF911F910C94CC030E94501AE0
:10068000182FEFCF0E94781A69817A81EDCFFC0193
:10069000262F408151816281738184810C941403DF
:1006A000CF93DF93EC0160E00E944703BE01DF912E
:1006B000CF910C9412030E94151E0E94C21B81113F
:1006C00002C00E94661C0C94CF050C94D2050895BC
:1006D0000E948E150E9467032FEF84E39CE0215057
:1006E00080409040E1F700C000000C94EF1D0F9394
:1006F0001F93CF93DF93EC0161E00E9447038C01CD
:10070000BE010E940F03882359F1BE01C8010E9457
:10071000130F882329F1BE01C8010E94650F8823A9
:10072000F9F0BE01C8010E9488108823C9F0BE01FB
:10073000C8010E940B0E882399F08A81882339F022
:1007400001158CE5180751F00F3D1C4579F0CE01DD
:10075000DF91CF911F910F910C940B030E946803BE
:1007600080E0DF91CF911F910F9108950E94661C48
:10077000F7CF08950C94B90381E008950C94BC035D
:10078000CF93C82F0E94BA038C2FCF910C94BE0335
:1007900090E080E008950895972F70E021E1929F06
:1007A000600D711D1124FB0196E6899FE00DF11D7E
:1007B0001124EE0FFF1FE455FF4F8591949108958A
:1007C000FC01EE0FFF1FEC5BFD4F859194910895A6
:1007D000CF93DF930E94CC030E94F404EC018115B7
:1007E00020E5920708F041C0811530E4930708F036
:1007F000B4C0803E910518F5803C910508F09DC07D
:10080000883A910570F4853A910508F08EC08130E0
:100810009105F9F00097E9F00497D8F4D0E0C0E032
:1008200018C08F3B9105D0F7C85AD0E0CC0FDD1F20
:10083000CC5DDE4F0990D881C02DD4640AC08115EB
:10084000904258F4C11581E0D80718F4C83ED1058C
:1008500028F7CE01DF91CF910895C11590E3D90714
:1008600008F071C0CE019F706AC0811525E592071E
:1008700058F5811534E5930708F09EC0811542E5CF
:10088000940750F4C11581E5D80708F469C0DC2F3E
:10089000CC27C16FD06ADDCF982F969596959E0193
:1008A00023703327C115D34508F077C0C1E0D0E0ED
:1008B00002C0CC0FDD1F2A95E2F720E2929FC00113
:1008C0001124C82BD92B67C0C11589E5D807A8F416
:1008D000C11598E5D90708F074C0C11526E5D207FF
:1008E00008F09CCF8C2F0E948B05C82FD0E0DC2F06
:1008F000CC27CC27DF71D062ACCFC1153AE5D30746
:1009000008F464C0CE0190568115904208F086CF5D
:100910008D2F8F710E948B0590E0982F8827882754
:100920009F719C012C2BE901E6CFC55AD0E0CE5A2D
:10093000DE4FC881D0E0D0648CCF805C91090E94EA
:10094000E003EC0186CFCE019927D3FF03C0EC0171
:10095000D86C7FCFEC01D06C7CCFDF70D06A79CFC0
:10096000CE01E4E096958795EA95E1F783702C2F08
:1009700026952695237090E2299F90011124382B0B
:100980008C2F8370C1E0D0E002C0CC0FDD1F8A95B0
:10099000E2F7C22BD32BDC685CCFC1E0D0E002C011
:1009A000CC0FDD1F2A95E2F730E2939FC00111249E
:1009B000C82BD92BDA684DCFD82FCC27C46FD06A7B
:1009C00048CFDC2FCC27C06FD06A43CF8C2F8F70DD
:1009D0000E948B0534E0D695C7953A95E1F7CF7024
:1009E0009C2FEC01D06935CF82389105B1F1B0F47C
:1009F0008133910509F475C048F48932910509F4F1
:100A000069C08A32910509F473C008958533910550
:100A100009F459C08933910501F10895833E910588
:100A2000A9F138F4803E9105F9F0823E910549F133
:100A30000895863E9105A9F1873E9105C9F1843E4E
:100A4000910519F52091B70521FF1FC08091B605CA
:100A500084FD14C087EE90E008952091B6052370C0
:100A6000A1F080EE90E008952091B60520FD47C0EA
:100A70003091B70530FF09C024FF44C090E080E00A
:100A800004C02091B60522FDF7CF08952091B60548
:100A900022FD3BC03091B70530FDE3CF24FFF5CFF9
:100AA000EDCF2091B60523FFF0CF24FDE7CFD2CFC5
:100AB0002091B60523FD2CC03091B70531FFEECF54
:100AC00084EE90E008952091B60525FFDECF89E2FF
:100AD00090E008952091B60525FFD7CF85E390E0FB
:100AE00008952091B60526FFD0CF8AE290E00895C0
:100AF0002091B60526FFC9CF81E390E0089589E3F0
:100B000090E0089583EE90E0089582EE90E00895DD
:100B100086EE90E008959091B60592FF06C0282FCA
:100B200028712830F9F4877F846093FF06C0282F4E
:100B300028712831F1F4877E84612091B70520FF68
:100B400006C0382F38713830D9F4877F816021FF93
:100B500006C0282F28712831D1F4877E816194FD49
:100B6000877E0895282F24712430F9F68B7F8860C2
:100B7000DCCF282F2471243101F78B7E8861DDCFF3
:100B8000382F3171313019F78E7F8860E0CF282FF0
:100B90002171213121F78E7E8861E1CF08950C9477
:100BA000CE0508950C94D10594E0899FF00111249D
:100BB000E057FB4F60817181828193810895089590
:100BC00080EA8A95F1F70895F894E82FE295EF709E
:100BD000F0E031A1282F2F7081E090E001C0880F54
:100BE0002A95EAF7982F9095932391A392A1892BA8
:100BF00082A3789408950F931F93CF93DF9383E993
:100C00000E94E40582E90E94E40587E30E94E4056E
:100C100081EF0E94E40587E60E94E40585E90E94D1
:100C2000E405C5E5D1E006E611E089910E94E405FE
:100C30000C171D07D1F7E8E7F4E0A0E9B4E0119242
:100C40001192119211921D921D921D921D9284E09B
:100C5000E039F807A1F786E00E94D206DF91CF9134
:100C60001F910F910C945B034F925F926F927F9252
:100C70008F929F92AF92BF92CF92DF92EF92FF92AC
:100C80000F931F93CF9306E611E038E7E32E34E08D
:100C9000F32EC0E0CC24C394D12CF80181918F01B4
:100CA000F894E82FE295EF70F0E021A18F70260113
:100CB00002C0440C551C8A95E2F7C201922F982B72
:100CC00091A392A18095892382A378940E94E00544
:100CD000A5E5B1E090E080E0812C912C54014D918C
:100CE000E42FE295EF70F0E020A130E04F7002C0F9
:100CF000359527954A95E2F720FD4EC0412C512CA1
:100D000032014394082E04C0440C551C661C771C09
:100D10000A94D2F7B301A201842A952AA62AB72AF7
:100D2000019681319105D9F6F801319780810E94B1
:100D3000E405F70180819181A281B381881699062B
:100D4000AA06BB0669F180829182A282B38281E009
:100D5000C82BF4E0EF0EF11C41E00C36140709F04B
:100D60009CCF2C2F46E060E974E088E794E00E9475
:100D7000D3060E9465038C2FCF911F910F91FF9096
:100D8000EF90DF90CF90BF90AF909F908F907F902B
:100D90006F905F904F90089540E050E0BA01BCCF53
:100DA00080E0D6CF0895FF920F931F93CF93DF93E8
:100DB000F82ED92F8B01C42F222349F081E0809394
:100DC000CA010E94B01D9093C9018093C80180910F
:100DD000CA01882399F08091C8019091C9010E94AD
:100DE000BC1D069758F0EF2DFD2FD80190E080E054
:100DF000D0E08C179D0744F01092CA01DF91CF918B
:100E00001F910F91FF9008950191119121913191BE
:100E10000D931D932D933D930196EBCFEF92FF928F
:100E20000F931F93CF93DF93EB01E82FD11110C0E5
:100E3000442321F0F0E0E25AFC4FE4916E2F7E2F24
:100E40008E2FDF91CF911F910F91FF90EF9008951A
:100E50000D2F10E0282F30E0442329F0225A3C4F78
:100E6000F901249130E0F6E0CF9FC0011124EFEFAB
:100E7000F0E0BF010E94FE24AB018C2F90E0880FB0
:100E8000991FA5E5A49FB001A59F700D1124861B95
:100E9000970B982F990F980FBF01601B710B629FE2
:100EA000D001639FB00D729FB00D11248B2F9D9FB9
:100EB000B0011124672F7727EF01C61BD70BBE01A6
:100EC000629FE001639FD00D729FD00D11247F01BE
:100ED000E91AF108E09EB001E19E700DF09E700DE0
:100EE0001124672F7727E61BF70BE29F8001E39F12
:100EF000100DF29F100D1124E12F722F4230510579
:100F000099F048F44115510569F04130510581F0DF
:100F1000EB2F8D2F07C04430510569F080F046302B
:100F20005105B1F76E2F8DCFE22F7B2F812FFACF96
:100F3000E22F7D2FF7CFEB2F822F712FF3CF7B2F57
:100F4000822FED2FEFCF41E00C940E0708950C9403
:100F5000A307CF93DF93762FE901682F842F0E9498
:100F6000A707798368838A83DF91CF910895809161
:100F7000A804982F9E7F29F4817082608093A80432
:100F800008958635E8F381708465F8CF88E090E0B5
:100F90000C94F025CF92DF92EF92FF926B017C01CF
:100FA0000E94B707B701A60188E090E0FF90EF909C
:100FB000DF90CF900C940E26E8EAF4E083E0808383
:100FC00011828FEF82838383148260817181828199
:100FD00093810C94CA078091A80480FF02C0869573
:100FE000089580E008959091AC04933018F49F5FC9
:100FF0009093AC04882351F06091A8047091A904E7
:101000008091AA049091AB040C94CA07089581E0E2
:101010000C94F3079091AC04992319F0915090939C
:10102000AC04882351F06091A8047091A9048091C8
:10103000AA049091AB040C94CA07089581E00C9423
:101040000A0870E00C947B0E609108018091A8045E
:1010500080FF0AC08091070123E0829FC001112414
:1010600083559B4F0C9421088091090190910A01AE
:1010700023E0829FF0011124E355FB4F891750F7BD
:101080001182108212828F5F3396F8CF9091A8045C
:1010900090FF14C09091090120910A0133E0939FC1
:1010A000F0011124E355FB4F921710F00C94240823
:1010B0008183608342839F5F3396F6CF0895CF93F9
:1010C000DF9300D00F92CDB7DEB79091A80490FFC8
:1010D0000AC09E012F5F3F4F0E94A9074B81698183
:1010E0008A810E9446080F900F900F90DF91CF9158
:1010F0000895CF93DF93EC01EC81F0E0E75AFD4FC8
:101100004491E8EAF4E0628181810E945F088C8169
:101110008F5F8C83DF91CF910895CF93DF93EC01A4
:10112000E8EAF4E0438162818C810E945F088C814F
:101130008F5F8C83DF91CF9108950F931F93CF938F
:10114000DF9300D00F92CDB7DEB78C018091CB0139
:1011500081110AC09E012F5F3F4F4FEF6FEF0E943A
:10116000A9078A818093CB01F8016481613069F01D
:101170008091CB0140E0662361F040E0623011F4E1
:101180004091CB0180E060E004C06091CB0140E081
:1011900080E00E944608F801848190E0019663E0B7
:1011A00070E00E94122584830F900F900F90DF91C2
:1011B000CF911F910F910895AF92BF92CF92DF927E
:1011C000EF92FF920F931F93CF93DF9300D00F9274
:1011D000CDB7DEB7182FF62E042FE22E9091A8047B
:1011E00090FF29C0E92FE695AE2FB0E0A459BE4F7D
:1011F0008C91809388039E7F923059F59E012F5FDA
:101200003F4F812F0E94A9074B8169818A810E94EB
:1012100046081093A904F092AA040093AB04EE20B0
:1012200051F06091A8047091A9048091AA04909152
:10123000AB040E94CA070F900F900F90DF91CF91DF
:101240001F910F91FF90EF90DF90CF90BF90AF90E4
:101250000895823019F40091AB04DBCF863019F485
:101260001091A904D6CF8930D9F3893191F6E9518B
:101270008E2F8170D82EE695F0E0E75AFC4FA590AE
:10128000B490C12CBB2460910B01C61618F00E94CB
:101290002408BFCF2C2D30E0A29EC001A39E900D4C
:1012A000B29E900D112470E00E94FE24812FD11077
:1012B00013C0860F40910901420F532F511D9A010F
:1012C000220F331F240F351F23553B4F402F6F2D07
:1012D0000E94A907C394D7CF861BECCFE8EAF4E0BD
:1012E0009181282F4381628188E0890F0C94DC086A
:1012F00081E00C946E09E8EAF4E09181282F4381A3
:10130000628188EF890F0C94DC0881E00C947B09E2
:10131000E8EAF4E0628128E0620F08F46FEF282F1A
:10132000438181810C94DC0881E00C948809E8EA0F
:10133000F4E0628128E0621B08F460E0282F43811A
:1013400081810C94DC0881E00C949709E8EAF4E0D0
:10135000438128E0420F08F44FEF282F62818181FA
:101360000C94DC0881E00C94A609E8EAF4E04381DF
:1013700028E0421B08F440E0282F628181810C9410
:10138000DC0881E00C94B50920E00C94DC08EF92B5
:10139000FF921F93CF93DF93EC0110E0EE24EA94C9
:1013A000F12C60910B01161770F00E9424089A81AD
:1013B0008C8190FF27C08F5F8C83DF91CF911F912D
:1013C000FF90EF90089520910901422F410F55277A
:1013D000551FCA019A01220F331F280F391F2355A9
:1013E0003B4F70E0C7010E941225962F8C814091DF
:1013F000AB046091AA04199F800D11240E94A907D3
:101400001F5FCFCF8150D8CFAF92BF92CF92DF92E4
:10141000EF92FF920F931F93CF93DF93FC01828192
:101420000FEF80FF01E010E047E5A42E80910B0153
:101430001817C8F00E9424088091CD01013009F0EE
:1014400055C0811102C080910B0181508093CD0164
:10145000DF91CF911F910F91FF90EF90DF90CF9090
:10146000BF90AF900895C0910901C12ED12CCC0D31
:10147000DD2DD11DCE01880F991FC80FD91FC3556F
:10148000DB4F198218821A8234E0E32EF12CB12C42
:101490008091CD018B0D88351CF16A2D0E94F024BE
:1014A000892F082E000C990BC816D90691F480914B
:1014B000AB048E9DA0018F9D500D1124559547952D
:1014C000559547959E016091AA048091A9040E94B8
:1014D000A907B00EF1E0EF1AF108D1F61F5FA6CF11
:1014E00087FFDFCF90910B01890FDBCF90E0019652
:1014F00060910B0170E00E941225A8CF0F931F93FB
:10150000CF93DF938091090190910A0123E0829F9C
:10151000F0011124E355FB4F891740F1C0E0D3E0FF
:1015200060910B01C61740F10E942408209105012B
:101530008091CC01820F8093CC0190910601920F93
:1015400090930601191654F4082E000C990B409143
:101550000B014150550B841795071CF021952093E2
:101560000501DF91CF911F910F9108951182108293
:1015700012828F5F3396D0CF0C2F10E070E0C8013D
:101580000E94122520910901820F482F50E02091DE
:10159000CC01022E000C330B02171307BCF0209174
:1015A0000601022E000C330B201731077CF08D9FB3
:1015B0009001112423553B4F4091AB046091AA0444
:1015C0008091A9040E94A907CF5FAACFFA01EE0F6C
:1015D000FF1FE40FF51FE355FB4F118210821282AB
:1015E000F3CF8F929F92AF92BF92CF92DF92EF9202
:1015F000FF920F931F93CF93DF93EC014C81042F45
:1016000010E09801D8010E9456259B01AC010E9470
:101610006C254B015C01E0E2F0E0E01BF10BA5E57D
:10162000B0E0AC019B010E946C256B017C019F0125
:10163000DF010E944E259B01AC010E9477259B0192
:10164000AC01280D391D4A1D5B1DC701B6010E9462
:101650002625F22E822F90E039E23F1560F143E01B
:10166000249F9001112435952795122F109500E0A5
:1016700085E5E82EEF1880910B01081758F10E94BC
:1016800024089C8181E0992319F0903219F48FEF9E
:101690008093040180910401890F8C83DF91CF91A5
:1016A0001F910F91FF90EF90DF90CF90BF90AF9080
:1016B0009F908F90089525E530E0B901681B790B64
:1016C0009B01220F331F260F371F37FFCCCF2F5F11
:1016D0003F4FC9CF8E2D01FD8F2D20910901622F23
:1016E000600F7727771F9B01220F331F260F371FAD
:1016F00023553B4F412F6091AA040E94A9070F5F19
:10170000BACF0F931F93CF93DF93EC0110E000E06B
:1017100090910B019017110609F06CF40E942408B7
:101720008C8190E00196817099278C83DF91CF9115
:101730001F910F91089520910901A801420F511D99
:101740009A01220F331F240F351F23553B4F4C8125
:101750006091AA048091A90496959017110651F002
:101760004CF0442349F04091AB040E94A9070F5F5D
:101770001F4FCECF4423B9F340E0F7CF8F929F9213
:10178000AF92BF92CF92DF92EF92FF920F931F938F
:10179000CF93DF93FC01B280948081E0848300E0EA
:1017A00015E05BE4A52E88248394EE24EA94F12CC2
:1017B0007BE4C72ED12C80910B01081770F0DF91CC
:1017C000CF911F910F91FF90EF90DF90CF90BF903E
:1017D000AF909F908F900C942408C02FD0E01C9F56
:1017E000F0011D9FF00D1124E253FE4F91101CC01B
:1017F0001382128220910901CE01820F911D9C015A
:10180000220F331F280F391F23553B4F1C9FF00118
:101810001D9FF00D1124E253FE4F428161818081B2
:101820000E94A9070F5FC7CF2381222379F121509E
:10183000238334818A2D821B311101C0822F1C9F8A
:10184000F0011D9FF00D1124E253FE4F9091AB0467
:10185000899FC0011124B6010E94FE2462832111D8
:1018600004C0332311F01482A38222E02B1510F25E
:101870001C9FF0011D9FF00D1124E253FE4F80913B
:10188000A90480838091AA048183B4CF0E94CB25D0
:10189000823091400CF0AECF82E08B1530F50E9483
:1018A000CB25B7010E9412251C9FF0011D9FF00D52
:1018B0001124E253FE4F808322E02B15C8F40E94CE
:1018C000CB252091AA042695622F70E00E94122554
:1018D000280F1C9FF0011D9FF00D1124E253FE4FB5
:1018E00021831282A382848285CF8091A904DCCFD8
:1018F0002091AA04EECFE8EAF4E080818E7F808315
:1019000060817181828193810E94CA07109289034C
:101910002FEF80E792E0215080409040E1F700C037
:1019200000000C9424086091A804669570E04BE0D8
:1019300050E08CE091E00E94DB25892B19F481E0D6
:10194000809389030E94B01D90938203809381034A
:1019500008959091A80490FF35C09170811128C01E
:1019600092609093A804662351F06091A80470914E
:10197000A9048091AA049091AB040E94CA076091C7
:10198000A804669570E04BE050E08CE091E00E9486
:10199000DB25892BA1F01092890381E080938403D9
:1019A0004091AB046091AA048091A9040C94C409ED
:1019B0008B3210F09465D5CF880F982BD2CF0E9430
:1019C000930CEBCF0895682F9091A804969581E031
:1019D000890F8B3208F081E00C94A90C81E00C9403
:1019E000E30C682F9091A80496958FEF890F09F466
:1019F0008AE20C94A90C81E00C94F10C61E00C9447
:101A0000A90CE8EAF4E080818160808386950C94DB
:101A1000FE0C8091A80480FD0C947B0C0C94010DAD
:101A200060E00C94A90C8091870381112EC00E9464
:101A3000C21B811104C00E94661C0E94DC070E9428
:101A4000C6076093A8047093A9048093AA04909396
:101A5000AB046E7F61F40E94DC070E94C6076093AE
:101A6000A8047093A9048093AA049093AB040E94E5
:101A7000B707109289038091A80480FF03C0869560
:101A80000E94100D81E08093870308950F931F93A8
:101A9000CF93DF9380918903882309F49DC08091BF
:101AA0008803E091A804E695E81BE0938303823065
:101AB000C9F5F0E0EB5AFD4FE491CE2FD0E009E7F5
:101AC00018E080918403882389F0109284030E9497
:101AD000B01D9E0120953095820F931F9093820335
:101AE0008093810310928603109285038091810375
:101AF000909182030E94BC1D8C179D0708F46CC056
:101B0000E0918103F0918203CE0FDF1FD093820317
:101B1000C093810381E893E0F801DF91CF911F9199
:101B20000F910994863049F4F0E0EE5AFD4FE491AC
:101B3000CE2FD0E00DE818E0C4CF893051F4E695FF
:101B4000F0E0E15BFD4FE491CE2FD0E007EC19E02F
:101B5000B8CF8F3051F4E695F0E0E45BFD4FE491AF
:101B6000CE2FD0E004E01AE0ACCF853149F4F0E0AC
:101B7000E75BFD4FE491CE2FD0E00EE71AE0A1CF56
:101B8000C8E2D0E001EF1AE0883109F49ACF83323D
:101B900039F4E7E4F2E0C591D4910DE918E091CF72
:101BA000C4EFD1E001E81BE0843209F48ACFC0ED34
:101BB000D7E006EA17E0853209F083CF8E2F63E085
:101BC0000E94E424E92FF0E0EC5BFD4FE491CE2F7E
:101BD000D0E00EEB1BE075CFDF91CF911F910F91FD
:101BE0000895FA01811101C0FB010994CF93DF939D
:101BF000C82FD62F0E94EB078C1740F00E94EB07EE
:101C00008D1720F4DF91CF910C94EE0C8C2FDF9187
:101C1000CF910C94FE0C0F931F93CF938C01FB017B
:101C2000C281CC2309F465C00E940D1B8272F801A9
:101C3000E35CFC45E431F10538F4EF5AF94D0C94BE
:101C400048250E94090DC0E08C2FCF911F910F9164
:101C500008954BEF5CE06EEE7CE00E94F10DF3CF57
:101C60004EEE5CE06BEF7CE0F8CF45E859E068E7CA
:101C700079E0F3CF48E759E065E879E0EECF43EA51
:101C800059E064E979E0E9CF44E959E063EA79E0B1
:101C9000E4CF41EC59E062EB79E0DFCF42EB59E071
:101CA00061EC79E0DACF4EE158E067E078E0D5CF3B
:101CB00047E058E06EE178E0D0CF81E00E94FE0C72
:101CC000C2CF65E082E00E94F60DBDCF68E086E0FD
:101CD000FACF6EE089E0F7CF64E18FE0F4CF67E1FF
:101CE00085E1F1CF88E1EACF62E289E1ECCF83E2DE
:101CF000E5CFC1E0A9CF6E9A4EB14F7B5EB1506483
:101D0000EFB7F8949B01220F331F260F371F280FC0
:101D1000391F2817390741F4EFBF8FE594E0019789
:101D2000F1F700C000000895DC016D91CD0178E06D
:101D30005EB9000000C067FF4EB9660F000000C02A
:101D400000C000C04EB900C07A9591F7E2CF0F9362
:101D50001F93CF93DF93C42FD22FFC01828188235E
:101D6000C9F040938C030E94B01D90938B03809325
:101D70008A0380E28C0F883008F050C0C77081E081
:101D800001C0880FCA95EAF7DF91CF911F910F919B
:101D90000C94211310918C03141335C080918A0385
:101DA00090918B030E94BC1D883C910560F5C0E2B8
:101DB000CD0F1D17B9F080E2810F883040F4177005
:101DC00081E001C0880F1A95EAF70E942813C830F5
:101DD00048F481E09D2F977001C0880F9A95EAF72B
:101DE0000E942113802F0E940E13C830B8F4D770C0
:101DF00081E001C0880FDA95EAF7DF91CF911F915A
:101E00000F910C94281380E28C0F883038F4C7703F
:101E100081E001C0880FCA95EAF7EFCFDF91CF913B
:101E20001F910F9108950F939C01CB01243F4CE526
:101E3000340759F1A8F4293DFCE53F0701F12A3D9B
:101E40004CE53407D1F1283D3C4591F406E221EE02
:101E500041EE68ED7CE50E94A70E80E00F910895A9
:101E6000263FFCE53F07E9F0B0F0273F3C45F9F09D
:101E7000FC018281882339F110928C03EFCF07E2B5
:101E800025EE45EE69ED7CE5E6CF06E221EE40EE7B
:101E900064EF7CE5E0CF07E225EE44EE65EF7CE5FC
:101EA000DACF06E221EE42EE66EF7CE5D4CF07E220
:101EB00025EE46EE67EF7CE5CECF08E221E045EE69
:101EC0006AED7CE5C8CF81E0C9CFCF93DF93EC0109
:101ED000FB018281882309F419C1C230FCE5DF07C8
:101EE000C0F1C6319CE5D90730F09E012B5F3C451F
:101EF0002930310570F50E94D51B9093B70580936A
:101F0000B605C031ECE5DE0709F4CFC008F05BC0D0
:101F1000C8308CE5D80709F4B6C088F5C430ECE5C4
:101F2000DE0709F4A8C0C0F4C2308CE5D80709F474
:101F30009CC08091B6058260C330DC4509F498C02E
:101F40008091B6059091B7050E94E31B0E948E1503
:101F500080E0DF91CF9108958091B6058061C63011
:101F6000ECE5DE0709F484C08091B6058860C730CF
:101F7000DC4508F47DC08091B605806279C0CC3024
:101F80008CE5D80709F489C070F48091B6058C609F
:101F9000CA30ECE5DE0709F46BC008F478C0809124
:101FA000B6058E7F65C0CE308CE5D80709F479C0C0
:101FB0008091B6058B7FCF30DC4508F459C0809105
:101FC000B6058F7E55C0CC3FECE5DE0709F457C05F
:101FD00030F5C3318CE5D80709F46FC078F4C1310E
:101FE000ECE5DE0709F465C0C231DC4509F0A8CF95
:101FF0000E948E158091B6058F773AC0C5318CE569
:10200000D80709F462C008F476C08091B7058160F2
:10201000CB3FDC4509F094CF8093B70591CFC11534
:10202000FDE5DF0709F44DC088F48091B7058D7F89
:10203000CE3F9CE5D90781F38091B7058E7FCF3FD6
:10204000DC4550F38091B7058360E6CFC230FDE5F3
:10205000DF0709F459C008F444C080E0C330DD450F
:1020600009F06ECF0E94681C6BCF8091B60581602D
:102070008093B60565CF8091B6058460F9CF8091D5
:10208000B7058260C9CF8091B6058064F1CF0E9408
:102090008E158091B6058068EBCF8091B6058D7F57
:1020A000E7CF8091B605877FE3CF8091B6058F7D1E
:1020B000DFCF8091B6058F7BDBCF8091B605837F24
:1020C000D7CF8091B7058C7FA7CF8091B60582FBD3
:1020D000992790F921E0922790FB82F990FB83F9F0
:1020E000C7CF8091B705982F909591708E7F892BDF
:1020F00090FB81F991CF0E948E159091B605892FA2
:1021000097FB87F98058B4CF81E0ACCF81E021CF35
:10211000CF93DF93EB0186319C4511F50E940D1B97
:102120009A81992399F08A7A91E009F490E090934A
:102130008D03811109C089E20E94E81A0E94591B8F
:1021400080E0DF91CF91089585E3F6CF80918D03F4
:10215000811104C089E20E94EF1AF0CF85E3FBCF22
:1021600081E0EFCF90939303809392030895E091E1
:102170009203F0919303309721F00190F081E02DCC
:10218000099480E00895E0919203F09193033097D1
:1021900099F020912301222359F02091B60527FFC1
:1021A00007C0DC012C9111962C93119725E02C93FC
:1021B0000280F381E02D09940895209190033091DD
:1021C00091032817390771F090939103809390033E
:1021D000E0919203F0919303309721F00680F7810C
:1021E000E02D0994089520918E0330918F032817D4
:1021F000390771F090938F0380938E03E0919203DF
:10220000F0919303309721F00084F185E02D09943B
:10221000089585B7806885BF85B7806885BF0895B4
:10222000089508950C94101108950C9414110E94AF
:1022300009110E9411110C94121181E008950C945F
:102240001D11089508950E94A71D0E94FB050E947C
:10225000291E0E94130D0C9415114F925F926F92DC
:102260007F929F92AF92BF92CF92DF92EF92FF92B6
:102270000F931F93CF93DF93CDB7DEB72A970FB697
:10228000F894DEBF0FBECDBF0E9421110E94221123
:102290000E9434060E941F11882309F490C045E96A
:1022A000A42E43E0B42E10E000E0902E802F0E9478
:1022B000D4052B013C01F501C190D190E190F19042
:1022C0005F01C414D504E604F70409F472C08091D8
:1022D000540481FD0E94DF05B701A6014425552560
:1022E0006625772520E0C12CD12C7601C394DB0133
:1022F000CA018C219D21AE21BF21892B8A2B8B2BDA
:1023000009F44FC02E839F824C205D206E207F20D9
:1023100081E045284628472809F480E088870E9404
:10232000B01D8160782F9A8789874E815F8168858B
:102330008A850E940612000F111F000F111FF8015D
:10234000EB56FC4F80819181A281B3818C259D2524
:10235000AE25BF2580839183A283B3830E94460D5F
:102360000E94B710909194038917D1F10E94B71081
:10237000809394032A960FB6F894DEBF0FBECDBFAC
:10238000DF91CF911F910F91FF90EF90DF90CF9051
:10239000BF90AF909F907F906F905F904F900C9404
:1023A000C0032F5FCC0CDD1CEE1CFF1C213109F09B
:1023B0009ECF0F5F1F4F0630110509F076CF8FEFCC
:1023C00089838A831B820E94B01D8160782F9D8340
:1023D0008C8349815A816B818D810E940612BECF08
:1023E0002A960FB6F894DEBF0FBECDBFDF91CF9116
:1023F0001F910F91FF90EF90DF90CF90BF90AF9023
:102400009F907F906F905F904F900895CF93DF9350
:10241000CDB7DEB72B970FB6F894DEBF0FBECDBF9A
:102420004F83588769877A878B871E821D8285E054
:10243000FE013796DE01119601900D928A95E1F723
:1024400049815A816B817C818D819E812B960FB64B
:10245000F894DEBF0FBECDBFDF91CF910C9404186E
:10246000FC01808191810C94BA1ACF93C82F8823E4
:1024700009F483C08238C1F40E94B71081FD7DC089
:1024800089E30E94E81A0E94591B2FEF81EE94E025
:10249000215080409040E1F700C0000089E30E9495
:1024A000EF1ACF910C94591B8338A1F40E94B710F6
:1024B00080FD63C083E50E94E81A0E94591B2FEF3C
:1024C00081EE94E0215080409040E1F700C0000090
:1024D00083E5E5CF8438A1F40E94B71082FD4DC09A
:1024E00087E40E94E81A0E94591B2FEF81EE94E0C6
:1024F000215080409040E1F700C0000087E4CFCF3A
:102500008CEF8C0F813A90F46C2F80911701909191
:1025100018010E94811C882329F08C2F0E94EF1A39
:102520000E94591B8C2F0E94E81ABBCF80E28C0FAF
:10253000883048F4C77081E001C0880FCA95EAF777
:102540000E94101BAECFEBE5EC0FE33040F4F0E05F
:10255000EB53FE4F808190E0CF910C94DD10C85A70
:10256000C73158F4EC2FF0E0EE0FFF1FE956FE4F95
:1025700080819181CF910C94F310CF91089588239D
:1025800009F44BC0823871F40E94B71081FF45C036
:1025900089E30E94E81A0E94591B89E30E94EF1AFE
:1025A0000C94591B833859F40E94B71080FF35C032
:1025B00083E50E94E81A0E94591B83E5EFCF843817
:1025C00059F40E94B71082FF28C087E40E94E81ADD
:1025D0000E94591B87E4E2CF9CEF980F913AF0F2EA
:1025E00090E2980F983050F4877091E001C0990FF5
:1025F0008A95EAF7892F0E94161BD2CF9BE5980F88
:10260000933020F490E080E00C94DD10885A8731FC
:1026100020F490E080E00C94F3100895CF93C82F3D
:102620000E943512C93349F42FEF87EE93E0215011
:1026300080409040E1F700C000008C2FCF910C94B7
:10264000BF12882321F00E94101B0C94591B08957F
:10265000882321F00E94161B0C94591B0895BF92E9
:10266000CF92DF92EF92FF920F931F93CF93DF935E
:102670006C01D62FC72FFC01058102950F701281C6
:1026800011110E942D1B0E94061BE82E882391F039
:102690001123D1F08C2F807F803421F080E28D0FC8
:1026A000883090F082E00E94A41B0E94061B91E0FB
:1026B000E82EE926BC2EB2949FE0B922EB2DF0E083
:1026C000EB59F94D0C944825E12CF4CF0C2F0F70E9
:1026D000C07F11F00295007F1123A9F0002359F06B
:1026E00080E28D0F883010F0D11109C0802F0E9438
:1026F000101B0E94591B8D2F0E94351214C0802F71
:102700000E94201BF6CF8D2F0E94BF12002359F08C
:1027100080E28D0F883010F0D1112CC0802F0E94E4
:10272000161B0E94591B2B2D2850330B24303105CA
:1027300020F40E94B7100E94C003EE2009F493C158
:102740000E94021B80FD8FC1F60112820E94FC1ABA
:102750000E948819C6010E9454150E94FC1ADF913C
:10276000CF911F910F91FF90EF90DF90CF90BF908E
:102770000C94A919802F0E94261BD3CFFC2FFF7029
:10278000FF2EC07FC03219F0F29480EFF822DD23D3
:1027900069F0D13049F1112391F1002351F1F60193
:1027A000858180FFA8CF8F70858323C0112381F09E
:1027B000011106C00E94401B8F290E942113B3CF34
:1027C0000130C1F70E94401B8F290E94461BABCFEE
:1027D000011106C00E944F1B8F2D0E942813A3CF0A
:1027E000013009F4A0CFF6CF112329F0063008F00C
:1027F0009ACF8F2DE2CF053008F095CFEDCF002393
:1028000059F3D93349F4FFEF27EE33E0F15020407C
:102810003040E1F700C000008D2F0E94BF1283CF2F
:102820008C2F86958695837069F0813009F07BCF77
:102830008D2F9C2F9370111102C090E080E00E94B8
:10284000F31071CF8D2F9C2F9370111102C090E067
:1028500080E00E94DD1067CF8C2F837009F041C0AB
:10286000111161CF4D2F429546954770440F440F8B
:102870000D2F0F7010E030E020E0042E04C0000F98
:10288000111F221F331F0A94D2F760E070E0CB01C2
:10289000D4FF0FC06FE070E080E090E004C0660FEE
:1028A000771F881F991F4A95D2F76095709580957C
:1028B0009095C695C695C370602B712B822B932B78
:1028C000C23049F058F4C13019F00E943A192BCFA8
:1028D0000E94281928CF0E944C1925CF0E94261942
:1028E00022CF8695112311F08C2F8170882309F453
:1028F0001ACF4D2F429546954770440F440F0D2F28
:102900000F7010E030E020E0042E04C0000F111F13
:10291000221F331F0A94D2F760E070E0CB01D4FF8E
:102920000FC06FE070E080E090E004C0660F771F9A
:10293000881F991F4A95D2F760957095809590955C
:10294000C695C695C370602B712B822B932BC2301A
:1029500049F058F4C13019F00E94FF19E4CE0E94EA
:10296000ED19E1CE0E94111ADECE0E946219DBCE73
:10297000CF70112329F08C2F0E9488198D2F1DCF25
:102980008D2F0E9428138C2F0E94A919CCCED23FE4
:1029900089F160F4D03FC9F0D13F29F1112309F446
:1029A00042C00111A8CE8C2F8F7121C0D33F39F1C5
:1029B000D43FA1F7112369F1CF718C2F0E948819A0
:1029C00063E08C2F0E948F1BAECE112341F00530A7
:1029D00008F0A9CE8C2F8F710E94CC19A4CE06309E
:1029E00008F0A1CEF7CF8C2F8F71112369F20E94CE
:1029F000881999CE8C2F8F711123C9F3C5CF11235C
:102A000029F08C2F8F710E9473198DCE0E946E1940
:102A10008ACE81E00E94A41B023008F484CE82E0BA
:102A20000E94A41B80CE002359F0D93309F0F4CEC4
:102A30008FEF97EEE3E081509040E040E1F7EACE7F
:102A40008C2F8F71A1CF4C2F4F706D2FC6010E941C
:102A5000C8030E949E1867CE4C2F4F706D2FC60181
:102A60000E94CB0360CEDF91CF911F910F91FF9019
:102A7000EF90DF90CF90BF9008950F931F93CF9367
:102A8000DF93EC01688179818A810E94C41A8C01EC
:102A90000E94231A0E942519B801CE01DF91CF911F
:102AA0001F910F910C942F13CF93DF93EC018B8127
:102AB0009C81892B29F08881998189238F3F59F442
:102AC000DF91CF910895CE010E943D15CE01DF9197
:102AD000CF910C945003CE010E9477038111F3CF64
:102AE0000E94061B882361F38A81882349F382E0D0
:102AF000DF91CF910C94A41B0E942D1B0E943D1BC3
:102B00000E94591B90E080E00E94DD1090E080E080
:102B10000C94F3100E94F61A0C947C150E941D1B55
:102B20000C948A15E92FE295EF70E250EE3070F4C4
:102B3000F0E0EB58F94D0C944825803F19F020F453
:102B4000883E20F481E00895843FE1F380E0089519
:102B5000883EC0F3813FD1F7F5CF93FB882780F9FA
:102B600008950E94BA1A0C949215CF93DF9300D067
:102B700000D00F92CDB7DEB70F900F900F900F904F
:102B80000F90DF91CF910895CF93DF9300D000D0C5
:102B900000D0CDB7DEB726960FB6F894DEBF0FBED5
:102BA000CDBFDF91CF9108951F93CF93DF93C09155
:102BB000AE0316E08091AF038C1304C0DF91CF9178
:102BC0001F910895D0E01C9FF0011D9FF00D11246E
:102BD000E055FC4F408151816281738184819581F0
:102BE0000E94C4152196C770E5CF4091E003509133
:102BF000E1036091E2037091E3038091E40390911B
:102C0000E5030C94C4151F93CF93DF938091E503E4
:102C1000807FA9F48091E203882389F08091AE033C
:102C2000C091AF036091E0037091E103A091E303D1
:102C3000B091E403D62FD72316E0C81304C0DF9168
:102C4000CF911F91089590E0109711F0DF3F19F494
:102C500001968770F2CF189F9001199F300D1124B3
:102C6000F901E055FC4F41814713F2CF40814613F3
:102C7000EFCF42814111ECCF438154814A1B5B0B62
:102C8000483C510528F78091E5038F70806180935F
:102C9000E503F901EB54FC4F80818F7080618083E4
:102CA00080EE93E00E945415DF91CF911F910C9418
:102CB000D415AF92BF92CF92DF92EF92FF920F9313
:102CC0001F93CF93DF93CDB7DEB761970FB6F8941C
:102CD000DEBF0FBECDBF8C0185E0F801DE011D9681
:102CE00001900D928A95E1F7F80140815181E280CF
:102CF00080EEC82E83E0D82E6091E3037091E40348
:102D00006115710509F461C19091E0032091E1031F
:102D1000892F82238F3F09F458C1A380B480F0909B
:102D2000E203F501E61BF70BFF2009F4FCC08091DC
:102D3000E503382F307FE83CF10508F0B2C03111CF
:102D400079C0FE2C251323C0941321C0E1101FC0AD
:102D50008F7080618093E5030E94F515C6010E9483
:102D600054158091E503F80185838F2D61960FB688
:102D7000F894DEBF0FBECDBFDF91CF911F910F91B1
:102D8000FF90EF90DF90CF90BF90AF900895AB2869
:102D900029F0842F85238F3F09F033C180E0F82F7D
:102DA000F170DF2E80FF3CC08091AE032091AF0315
:102DB00036E0821315C04D875E878D859E850E9403
:102DC000BA1A292F22952F702230F0F0243018F5EE
:102DD0009F70F1F0F8019581907FD1F4D12C1EC045
:102DE00090E0389FF001399FF00D1124E055FC4F21
:102DF0006181651306C06081641303C062816E1136
:102E00000FC001968770D5CF9F7011F0882331F3E2
:102E1000805E883018F3C8010E945415FD2CA5CFA0
:102E2000EE2009F4A2CF8091E50381608093E50351
:102E3000F12C9BCF251306C0941304C0F801EE209B
:102E400009F48DC04D875E878D859E850E94B115E2
:102E5000882319F1EE2009F18091E503803270F0AA
:102E60002091E0033091E10338872F831986BB86D8
:102E7000AA868C87CE0107960E94541586E0F80139
:102E8000A0EEB3E001900D928A95E1F70E9403163F
:102E90000E94F515FF24F39468CFC8010E945415D1
:102EA000F9CF311113C07A2DB98AA88A6E2D89897C
:102EB0000E94B51580EE93E00E94541586E0F6015D
:102EC00011928A95E9F70E94F515B2CF25130FC02C
:102ED00094130DC0E1100BC0F8018583C8010E9456
:102EE000541586E0F60111928A95E9F73ECF4D8799
:102EF0005E878D859E850E94B115882371F2EE2034
:102F000061F28091E503803208F4B8CF2091E003AC
:102F10003091E1033A8329831B82BD82AC828E8388
:102F2000CE010196A9CFE83CF10508F041C0FE2C86
:102F3000EE2009F4B2CF25132AC0941328C0809143
:102F4000E50380FD1BC0982F907FC1F0F8018583B9
:102F5000903F31F0982F907F905F8F70892B858301
:102F6000C8010E94541586E0F801A0EEB3E001907C
:102F70000D928A95E1F70E94F515F7CE86E0F801EB
:102F8000A0EEB3E001900D928A95E1F7EECE4D8769
:102F90005E878D859E850E94B11581116FCF8091CE
:102FA000E50381608093E503C8010E945415DDCEDE
:102FB0007A2DB98AA88A6E2D89890E94B51586E076
:102FC000F60111928A95E9F7D6CFEE2009F465CF84
:102FD0004D875E878D859E850E94B115F82E8823CA
:102FE00009F45BCF86E0F801A0EEB3E001900D920A
:102FF0008A95E1F780EE93E00E9430120E9403165A
:10300000BACF81E08E25CBCE1F93CF93DF93CDB780
:10301000DEB72C970FB6F894DEBF0FBECDBF4F833F
:10302000588769877A878B879C87CE0107960E948D
:103030005916882369F08A859B85892B39F04F8141
:103040005885842F85238F3F09F071C016E05FC03B
:1030500086E0FE013796DE01119601900D928A9569
:10306000E1F78A859B85892B89F38F819885892350
:103070008F3F61F32091AF0330E0C9010196877063
:1030800099274091AE034817190671F40E948E15D6
:103090001092AF031092AE0386E0E0EEF3E0DF01A2
:1030A0001D928A95E9F7D2CF96E0929FD001939F27
:1030B000B00D1124A055BC4FFE01319601900D9228
:1030C0009A95E1F78093AF030E94D415BFCF819FFB
:1030D000C001112480559C4F0E9459168823E9F0A5
:1030E000E091AE031E9FF0011124E055FC4F40819A
:1030F000518162817381848195810E94C415809180
:10310000AE0390E00196877099278093AE0380917B
:10311000AE039091AF038913DACF2C960FB6F894D3
:10312000DEBF0FBECDBFDF91CF911F91089569859E
:103130007A858B859C850E94C41588CFEF92FF927B
:103140000F931F93CF93DF938C01892B81F0F12C88
:10315000EE24E394E8012196F8018491843770F419
:10316000843008F05FC08130B1F08230A1F1DF918E
:10317000CF911F910F91FF90EF900895853709F43B
:103180004CC008F43DC09CE7980F903780F78F77CC
:103190000E94BF1249C00E5F1F4FFE01849190E252
:1031A000980F983060F48770FE2D01C0FF0F8A954C
:1031B000EAF78F2F0E94301B0E94591B02C00E9409
:1031C00035128F2D815030F2EFE9FFE03197F1F7A2
:1031D00000C00000F7CF0E5F1F4FFE01849190E208
:1031E000980F983050F48770FE2D01C0FF0F8A951C
:1031F000EAF78F2F0E94361BDFCF0E94BF12E1CF6C
:103200000E5F1F4FFE01C491C150D8F28FE99FE0BD
:103210000197F1F700C00000F7CF0E5F1F4FFE01CE
:10322000F490CFCF0E9435128E01CBCF08950C942D
:1032300016190E94171960932B0470932C04809325
:103240002D0490932E040C947C1508950C94191958
:103250000F931F9300912B0410912C0420912D04A7
:1032600030912E04602B712B822B932B1F910F9189
:103270000C9419190F931F9300912B0410912C0497
:1032800020912D0430912E046023712382239323F7
:103290001F910F910C9419190F931F9300912B04F8
:1032A00010912C0420912D0430912E046027712759
:1032B000822793271F910F910C9419190C941619BA
:1032C0000C945E190E94601960932704709328047F
:1032D0008093290490932A040C947C1560E070E09C
:1032E000CB010C9462190F931F9341E050E060E012
:1032F00070E08A019B0104C0000F111F221F331FC1
:103300008A95D2F7C901B8011F910F910C946219E7
:103310000F931F9341E050E060E070E004C0440F61
:10332000551F661F771F8A95D2F7809127049091C9
:103330002804A0912904B0912A048A019B01082B3A
:10334000192B2A2B3B2BC901B8011F910F910C940B
:1033500062190F931F9341E050E060E070E004C0F9
:10336000440F551F661F771F8A95D2F7CB01BA010C
:103370006095709580959095009127041091280490
:103380002091290430912A046023712382239323FE
:103390001F910F910C9462190F931F9341E050E01D
:1033A00060E070E004C0440F551F661F771F8A95C8
:1033B000D2F78091270490912804A0912904B0911C
:1033C0002A048A019B01082719272A273B27C901BC
:1033D000B8011F910F910C9462190F931F930091E4
:1033E0002704109128042091290430912A04602B8D
:1033F000712B822B932B1F910F910C9462190F93B9
:103400001F930091270410912804209129043091E2
:103410002A0460237123822393231F910F910C941C
:1034200062190F931F930091270410912804209193
:10343000290430912A0460277127822793271F913E
:103440000F910C946219089521E1929F800D11242F
:10345000982F977041E001C0440F9A95EAF786953E
:103460008695869595E0899FF0011124EA51FC4FDD
:1034700090E080E070E05191DF0111979B01082EF0
:1034800002C0369527950A94E2F7217021952527E9
:10349000242325272C9301968530910561F7089503
:1034A00021E1929F800D1124982F97708695869523
:1034B000869525E0829FF0011124EA51FC4F50E0EF
:1034C00040E080E0219130E0092E02C0369527953A
:1034D0000A94E2F721703327042E01C0220F0A94C8
:1034E000EAF7822B4F5F5F4F4530510559F708953A
:1034F000BF92CF92DF92EF92FF920F931F93CF93E1
:10350000DF938C01C0902704D0902804E090290418
:10351000F0902A0480912B0490912C04A0912D040A
:10352000B0912E04C82AD92AEA2AFB2ACFE1D0E09A
:10353000BC2ED701C6010C2E04C0B695A795979551
:1035400087950A94D2F780FD0EC0219788F7B12C99
:103550008B2DDF91CF911F910F91FF90EF90DF9016
:10356000CF90BF900895B8018C2F0E94E803019777
:1035700061F3EECFCF93DF93EC010E94781ABE0186
:10358000DF91CF910C94E8031F93CF93DF93EB016E
:103590009091AD03992331F0CB01DF91CF911F9131
:1035A0000C94BA1A882379F0CB010E94781A182F4C
:1035B000682FCE010E94241ABE01812FDF91CF9186
:1035C0001F910C94E803CB010E94501A182FF4CFDE
:1035D000682F80911701909118010C94011D682F9C
:1035E00080911701909118010C940C1D8091170186
:1035F000909118010C94171D80912F048595859545
:103600008595089580912F048770089590912F04D7
:10361000977081E009F480E0089580915304089543
:1036200090915304892B8093530408958095909131
:1036300053049823909353040895109253040895CB
:1036400090915204892B8093520408958095909113
:1036500052049823909352040895109252040895AE
:1036600090915104892B80935104089580959091F5
:103670005104982390935104089510925104089591
:1036800080913004089508950C94431B9091300468
:10369000981721F0809330040C94441B0895809176
:1036A0003004882329F01092300480E00C94441BED
:1036B0000895E0911701F0911801809153048083DF
:1036C000E0911701F0911801808190915204892BAB
:1036D0008083E0911701F09118018081909151044D
:1036E000892B808390913004992381F0E091170118
:1036F000F09118018081892B80838091170190912E
:1037000018010E946D1C81110E944F1B80911701AE
:10371000909118010C94C31008950C948C1B98E0A0
:10372000899F90011124622B60932F040E948819B5
:1037300080912F048595859585950C948D1B10920D
:103740002F0480E00C948D1B90912F048095892389
:1037500080932F04282F277071F4282F082E000C37
:10376000330B9217130639F08595859585950E9440
:10377000A9190C949F1B08956FEF7FEF90E080E0F4
:103780000C941A2690E080E00E94F62521E08C3E01
:103790009E4F09F020E0822F089582E090E00C9483
:1037A000E82583E090E00C94E825CF9384E090E056
:1037B0000E94E825C82F81E290E00E94E825982F1A
:1037C0008C2FCF910895CF93C92F682F84E090E07C
:1037D0000E94FC256C2F81E290E0CF910C94FC2597
:1037E000AB01BC018FE090E00C940E26AB01BC0154
:1037F00083E190E00C940E2660E070E0CB010C9425
:10380000F61B60E070E0CB010E94F01B0C94FC1BE7
:103810006CEE7EEF90E080E00E941A2660E082E08D
:1038200090E00E94FC2560E083E090E00E94FC258F
:1038300010922B0410922C0410922D0410922E043E
:1038400060E084E090E00E94FC2560E081E290E08E
:103850000E94FC2560E085E090E00E94FC2560E08D
:1038600086E090E00E94FC256FEF87E090E00E94E8
:10387000FC2540E050E0BA0188E090E00E940E266E
:1038800060E08DE090E00E94FC2540E050E0BA014D
:1038900088E190E00E940E2660E087E190E00E94BF
:1038A000FC2540E050E0BA018CE190E00E940E2639
:1038B00060E080E290E00E94FC2540E050E0BA0128
:1038C00088E190E00E940E260C94011C0C94081CC8
:1038D000682F8EE090E00C94FC25FC0132968091DC
:1038E0002301882321F08091B6059EE187FF96E0B1
:1038F00080E0915008F4089521912223D1F38F5F45
:10390000F8CF662301F1209123012223F1F02091C9
:10391000B60527FF1AC0462F4695469546954E3167
:1039200090F4677021E030E002C0220F331F6A95E7
:10393000E2F7840F911DFC01828190E02823392356
:1039400081E0232B69F480E00895FC01329608960B
:103950002191261721F0E817F907D1F7F4CF81E07C
:1039600008959C01FC0132969FEF80E0419146173B
:1039700051F09F3F19F4411101C0982F8F5F86309D
:10398000A9F79F3F09F40895290F311D97FD3A9536
:10399000F90162830895FC0132960896219126135D
:1039A00003C0DF0111971C92E817F907B9F70895D2
:1039B000E62FE695E695E695EE3168F4E80FF92FE7
:1039C000F11D677021E030E001C0220F6A95EAF72F
:1039D0008281822B82830895E62FE695E695E6950F
:1039E000EE3170F4E80FF92FF11D677021E030E03F
:1039F00001C0220F6A95EAF720958281282322834D
:103A0000089520912301222329F02091B60527FD56
:103A10000C94D81C0C94B11C20912301222329F072
:103A20002091B60527FD0C94EC1C0C94CB1CFC01DA
:103A3000329680912301882351F08091B60587FF4B
:103A400006C08EE1DF011D928A95E9F7089586E0B0
:103A5000F9CF089508950C942A1D0E942B1D809182
:103A6000BC05843049F11092550488E190E020E4CF
:103A70000FB6F894A895809360000FBE2093600065
:103A800080E00E94C0030E942B1D83B7817F846069
:103A900083BF83B7816083BF7894889583B78E7F17
:103AA00083BF0FB6F894A8958091600088618093D9
:103AB0006000109260000FBE08950895CF930E9499
:103AC000291D0E9434060E945D1DC0E08C2F0E94BB
:103AD000D405672B682B692B31F4CF5FC630B1F763
:103AE00080E0CF91089581E0FCCF08950C94751D7E
:103AF0000E948E150E94B7100E94C0030C94761D80
:103B00001F921FB61F9211248F939F93AF93BF9361
:103B100080915504811113C08091B2059091B30535
:103B2000A091B405B091B5054196A11DB11D80933A
:103B3000B2059093B305A093B405B093B505BF91BA
:103B4000AF919F918F911F901FBE1F90189582E09B
:103B500084BD93E095BD9AEF97BD80936E00089564
:103B60002FB7F8948091B2059091B305A091B40558
:103B7000B091B5052FBF08959C014FB7F89480917F
:103B8000B2059091B305A091B405B091B5054FBFB2
:103B9000821B930B089578941F921FB61F921124D5
:103BA0008F939F93AF93BF938091B2059091B3058C
:103BB000A091B405B091B5050196A11DB11D8093EA
:103BC000B2059093B305A093B405B093B505BF912A
:103BD000AF919F918F911F901FBE1F90189581E00C
:103BE0008093E00080E28093D8001092C9008FE1BA
:103BF0009EE40197F1F700C0000087E090EBDC0144
:103C00008093C5059093C605A093C705B093C805DA
:103C100088E19CE00FB6F894A895809360000FBEF1
:103C200090936000FFCF0C94BC1B0E9434068FE37E
:103C30009CE90197F1F700C000000E94340680E083
:103C40000E94D40560FF04C00E94131E0C94EF1D57
:103C500008950E94C21B811102C00E94661C0E942E
:103C6000CD1B809354040E94D51B9093B70580937D
:103C7000B6050E94D11B682F70E090E080E00E94A2
:103C8000261960912704709128048091290490914D
:103C90002A040C9460198091760408950895CF93B6
:103CA000DF9300D00F92CDB7DEB79091BC05943072
:103CB00019F589837B836A8382E08093E9008FEF23
:103CC0009091E800815095FD06C095ED9A95F1F729
:103CD00000008111F5CF8091E80085FF0DC050E014
:103CE00040E063E070E0CE0101960E945320809195
:103CF000E8008E778093E8000F900F900F90DF918F
:103D0000CF910895BC0184E00C944F1EBC0183E068
:103D10000C944F1ECF93DF93EC01809123018823F5
:103D2000B1F18091B60587FF32C060E282E08093F6
:103D3000E9008FEF9091E800815095FD06C095ED68
:103D40009A95F1F700008111F5CF8091E80085FF89
:103D50001BC08091230170E050E040E0811104C05D
:103D600050E040E068E070E0CE010E945320809176
:103D7000E8008E778093E80080E2FE01A6E5B4E0DB
:103D800001900D928A95E1F7DF91CF91089568E057
:103D900081E0CDCF8091BB05811109C00E94E32154
:103DA0000E9440228091E20084608093E2000895A6
:103DB0001092BB050895089508950C94781D42E073
:103DC00061EC81E00E945F2142E261EC82E00C94B0
:103DD0005F218091BE05833009F45FC030F48130EB
:103DE000C1F1823009F49BC008958A3009F487C07C
:103DF0008B3009F46DC0893009F04EC08091BD054B
:103E0000813209F049C08091C1059091C2050297A5
:103E100008F042C08091E800877F8093E80080919D
:103E2000E80082FF35C09091F3008091F200029784
:103E300029F48091F1008B7F813021F48091F10091
:103E4000809376048091E8008B778093E8000C944F
:103E500093218091BD05813AF9F48091E800877F34
:103E60008093E8008091C1059091C205892B61F48F
:103E700060E286E594E070E00E94A2208091E80074
:103E80008B778093E800089560E090E080E0F3CFC6
:103E90008091BC058111C3CF08958091BD05813A01
:103EA000D9F78091C1059091C205892BA9F780911E
:103EB000E800877F8093E8008091E80080FFFCCFD6
:103EC000809123018093F1008091E8008E77BDCF2F
:103ED0008091BD05813201F78091C1059091C205A5
:103EE000892BD1F68091E800877F8093E8000E94BB
:103EF00093218091BF05809323010C948E158091AE
:103F0000BD05813249F68091E800877F8093E80003
:103F10000E9493218091C005809377040895809139
:103F2000BD05813A09F0B8CF8091E800877F809382
:103F3000E8008091E80080FFFCCF80917704C2CF39
:103F400084B7877F84BF0FB6F894A89580916000EE
:103F5000886180936000109260000FBE80E890E05E
:103F60000FB6F89480936100909361000FBE0E9499
:103F700017110E94E3210E9440228091E200846098
:103F80008093E20078940E94C9240E94231189E161
:103F900091E00E94B2108091BC05853039F00E94FA
:103FA0002D110E9421110E942211F5CF0E942D1D7A
:103FB0008091BA05882379F30E945E1D882359F306
:103FC0000E943D20E8CF0C94E51F292F3327233092
:103FD000310519F168F42130310509F444C022306B
:103FE000310509F445C090E080E030E020E025C0D4
:103FF0002132310549F122323105A9F780E490E000
:1040000024E435E061157105C1F08DE690E027EDFF
:1040100034E06130710589F0E6CF99278130910550
:1040200081F0009729F00297F1F6EEE5F4E002C086
:10403000E6E8F4E0849190E09F01FA013183208367
:104040000895EAE6F4E0F6CF89E090E02CE934E068
:104050006115710591F389E090E025EB34E0613062
:10406000710559F3C0CF82E190E025EC34E0E5CF53
:104070008BE390E02AE834E0E0CF80E189BD82E183
:1040800089BD09B400FEFDCF8091D8008F7D80935B
:10409000D8008091E00082608093E0008091E00091
:1040A00081FDFCCF0895AF92BF92CF92DF92FF9235
:1040B0000F931F93CF93DF936C01EB018A010E9452
:1040C000B221F82E811123C00115110539F0F80134
:1040D00080819181C81BD90BC80ED91EB12CA12C8F
:1040E0002097A9F08091E80085FD22C08091E8002A
:1040F0008E778093E80001151105A1F0F801808109
:104100009181A80EB91EB182A08285E0F82E8F2D74
:10411000DF91CF911F910F91FF90DF90CF90BF90D3
:10412000AF9008950E94B2218823D1F2F82EEFCFEC
:10413000F60181916F018093F1002197FFEFAF1A93
:10414000BF0ACECFFC018091C3059091C4058617AC
:104150009707A0F06115710529F49091E8009E770A
:104160009093E80090E06115710551F4911108C039
:104170008091E80082FF34C080E00895BC01F2CF56
:104180008091BC058823C1F18530C1F18091E800A0
:1041900083FD30C08091E80082FDEACF8091E80085
:1041A00080FFE1CF8091F3002091F200382F61155C
:1041B000710519F02830310558F091E028303105AB
:1041C00009F090E02091E8002E772093E800CBCF13
:1041D00081918093F100615071092F5F3F4FE7CFCC
:1041E0008091BC05882341F0853041F08091E80042
:1041F00083FFBECF81E0089582E0089583E00895B3
:10420000FC018091C3059091C40586179707A0F023
:104210006115710529F48091E8008E778093E8009C
:1042200090E06115710551F4911108C08091E8008A
:1042300082FF35C080E00895BC01F2CF8091BC05BB
:104240008823C9F18530C9F18091E80083FD31C030
:104250008091E80082FDEACF8091E80080FFE1CF05
:104260008091F3002091F200382F6115710519F04B
:104270002830310558F091E02830310509F090E000
:104280008091E8008E778093E800CBCF8491809373
:10429000F1003196615071092F5F3F4FE6CF809159
:1042A000BC05882341F0853041F08091E80083FF10
:1042B000BDCF81E0089582E0089583E00895982FAE
:1042C000973028F08F708093E90081E008959093F3
:1042D000E900242F762F50E0981731F07091EC0010
:1042E0002091ED005091F00021FD02C09F5FE8CFCA
:1042F0003091EB003E7F3093EB003091ED003D7F3D
:104300003093ED003091EB0031603093EB0070930F
:10431000EC002093ED005093F0002091EE0027FD7B
:10432000E5CF80E008958091BD0587FF13C080919F
:10433000E80082FF06C08091E8008B778093E80058
:1043400004C08091BC058111F2CF08958091BC0515
:104350008823D9F38091E80080FFF8CF8091E800AE
:104360008E77ECCF2091E4003091E50095E6A9012D
:104370002091EC00822F817020FF06C08091E80020
:1043800080FF06C080E008952091E80022FD1AC059
:104390008091BC05882389F0853089F08091EB00FD
:1043A00085FD0FC02091E4003091E50042175307CE
:1043B000F9F29150E1F684E0089582E0089583E0F7
:1043C000089581E008950E9451220E945922E0EE52
:1043D000F0E0808181608083E8EDF0E080818F777C
:1043E000808319BCA7EDB0E08C918E7F8C93808187
:1043F0008F7E80831092BB0508950F931F93CF93F8
:10440000DF930E9451220E945922C8EDD0E088819A
:104410008F77888388818068888388818F7D88836F
:1044200019BC1092BC051092B8051092BA051092F2
:10443000B90500EE10E0F80180818B7F80838881D0
:104440008160888342E060E080E00E945F21E1EECD
:10445000F0E080818E7F8083E2EEF0E080818160F9
:104460008083808188608083F80180818E7F808353
:10447000888180618883DF91CF911F910F9108958A
:10448000E8EDF0E080818F7E8083E7EDF0E08081D1
:104490008160808384E082BF81E08093BB050C94BF
:1044A000FD21E8EDF0E080818E7F80831092E200B4
:1044B00008951092DA001092E10008951F920F9271
:1044C0000FB60F9211242F933F934F935F936F93E7
:1044D0007F938F939F93AF93BF93EF93FF938091BD
:1044E000E10082FF0BC08091E20082FF07C0809153
:1044F000E1008B7F8093E1000E94C8248091DA0064
:1045000080FF19C08091D80080FF15C08091DA002B
:104510008E7F8093DA008091D90080FF96C080E181
:1045200089BD82E189BD09B400FEFDCF81E08093A1
:10453000BC050E94CA1E8091E10080FF19C08091D5
:10454000E20080FF15C08091E2008E7F8093E20040
:104550008091E20080618093E2008091D8008062C7
:104560008093D80019BC85E08093BC050E94DC1EB6
:104570008091E10084FF2BC08091E20084FF27C07E
:1045800080E189BD82E189BD89B5982F917080FF56
:10459000FBCF8091D8008F7D8093D8008091E1007F
:1045A0008F7E8093E1008091E2008F7E8093E20015
:1045B0008091E20081608093E2008091B8058823B9
:1045C00009F449C084E08093BC050E94DD1E8091FF
:1045D000E10083FF29C08091E20083FF25C0809124
:1045E000E100877F8093E10082E08093BC05109218
:1045F000B8058091E1008E7F8093E1008091E20018
:104600008E7F8093E2008091E20080618093E200DF
:1046100042E060E080E00E945F218091F0008860CD
:104620008093F0000E94DB1EFF91EF91BF91AF914C
:104630009F918F917F916F915F914F913F912F91BA
:104640000F900FBE0F901F90189519BC1092BC05CB
:104650000E94D81E70CF8091E30087FD93E0909375
:10466000BC05B3CF1F920F920FB60F9211242F9358
:104670003F934F935F936F937F938F939F93AF93EA
:10468000BF93CF93DF93EF93FF93D091E900DF7057
:104690008091EC00C82FC17080FDC0E81092E90045
:1046A0008091F000877F8093F00078940E947623B9
:1046B0001092E9008091F00088608093F000CD2B8B
:1046C000CF70C093E900FF91EF91DF91CF91BF913F
:1046D000AF919F918F917F916F915F914F913F919A
:1046E0002F910F900FBE0F901F9018951F93CF938F
:1046F000DF93CDB7DEB7AA970FB6F894DEBF0FBE33
:10470000CDBF8DEB95E02091F100FC012193CF010D
:10471000F5E0853C9F07B9F70E94E91E8091E8000B
:1047200083FF1EC18091BD059091BE059A3008F0AF
:1047300017C1E92FF0E0ED57F94D0C94482580386A
:1047400099F0823809F00CC18091C1058F708730D3
:1047500008F006C18093E9008091EB0085FB882773
:1047600080F91092E90006C08091B9059091BA05D0
:10477000911182609091E800977F9093E800809378
:10478000F1001092F1008091E8008E77E5C0882357
:1047900009F4D3C0823009F0E3C08091BF058111D4
:1047A000D6C08091C1058F702FEF280F263008F0FA
:1047B000D7C08093E9002091EB0020FFC8C0933060
:1047C00031F48091EB0080628093EB00C0C0909147
:1047D000EB0090619093EB0021E030E001C0220FEC
:1047E0008A95EAF72093EA001092EA008091EB00A4
:1047F0008860EACF8111B4C01091BF051F77809106
:10480000E3008078812B8093E3008091E800877F2C
:104810008093E8000E9493218091E80080FFFCCF04
:104820008091E30080688093E30082E0111183E0CF
:104830008093BC0595C08058823008F091C080916B
:10484000BF059091C0058C3D23E09207A1F583E060
:104850008A838AE289834FB7F894DE01139620E0B9
:104860003EE051E2E32FF0E050935700E49120FF47
:1048700003C0E295EF703F5FEF708E2F90E0EA305B
:10488000C0F0C7968D939D932F5F243159F74FBF8A
:104890008091E800877F8093E8006AE270E0CE01B3
:1048A00001960E94A2208091E8008B778093E80017
:1048B00057C0C096E7CF6091C1057091C205AE01A7
:1048C0004F5F5F4F0E94E31FBC01892B09F448C072
:1048D0009091E800977F9093E80089819A810E94E7
:1048E0000021E1CF8038E1F58091E800877F809357
:1048F000E8008091B8058093F10045CF811130C068
:104900009091BF05923060F58091E800877F809399
:10491000E8009093B8050E9493218091B805882300
:1049200011F084E005C08091E30087FDFACF81E0BB
:104930008093BC050E94DF1E13C08091BF058130AB
:1049400079F481E0933009F080E08093BA05109209
:10495000E9008091E800877F8093E8000E9493211E
:104960008091E80083FF0AC08091E800877F8093F0
:10497000E8008091EB0080628093EB00AA960FB66E
:10498000F894DEBF0FBECDBFDF91CF911F91089588
:104990000895CF938091BC058823A1F0C091E900D0
:1049A000CF709091EC00892F817090FD80E8C82B2A
:1049B0001092E9008091E80083FD0E947623CF7079
:1049C000C093E900CF910895991B79E004C0991F25
:1049D000961708F0961B881F7A95C9F78095089559
:1049E00087FB082E062687FD819567FD61950E944D
:1049F000E4240EF4919507FC81950895AA1BBB1B36
:104A000051E107C0AA1FBB1FA617B70710F0A61BCE
:104A1000B70B881F991F5A95A9F780959095BC01EF
:104A2000CD01089597FB072E16F4009407D077FD6B
:104A300009D00E94FE2407FC05D03EF49095819594
:104A40009F4F0895709561957F4F0895A1E21A2EAA
:104A5000AA1BBB1BFD010DC0AA1FBB1FEE1FFF1F22
:104A6000A217B307E407F50720F0A21BB30BE40B72
:104A7000F50B661F771F881F991F1A9469F76095B9
:104A80007095809590959B01AC01BD01CF01089573
:104A9000EE0FFF1F0590F491E02D09940E9456251A
:104AA000332312F48A1B9B0B0C946725A29FB00141
:104AB000B39FC001A39F700D811D1124911DB29F52
:104AC000700D811D1124911D08950E945625B7FF78
:104AD0000895821B930B08950E945625A59F900D63
:104AE000B49F900DA49F800D911D11240895B7FFD0
:104AF0000C946C250E946C25821B930B08958F9259
:104B00009F92AF92BF92CF92DF92EF92FF92CF939C
:104B1000DF93EC01688179818A819B816115710540
:104B20008105910521F464E279ED8BE597E02DE1B3
:104B300033EF41E050E00E94302649015A019B01C9
:104B4000AC01A7EAB1E40E946C256B017C01ACEEDC
:104B5000B4EFA50194010E947A25DC01CB018C0DF4
:104B60009D1DAE1DBF1DB7FF03C00197A109B04831
:104B700088839983AA83BB839F77DF91CF91FF902E
:104B8000EF90DF90CF90BF90AF909F908F9008955F
:104B90000E947F25089580E091E00E947F2508957E
:104BA000B0E0A0E08093000190930101A093020186
:104BB000B09303010895FC014150504030F0019042
:104BC0000616D1F73197CF010895882799270895C0
:104BD000F999FECF92BD81BDF89A992780B50895C5
:104BE000A6E1B0E044E050E00C942226A8E1B0E059
:104BF00042E050E00C942226262FF999FECF92BD78
:104C000081BDF89A019700B4021639F01FBA20BD91
:104C10000FB6F894FA9AF99A0FBE08950396272FC3
:104C20000E94FD250E94FC25252F0E94FD25242F92
:104C30000C94FD250196272F0E94FD250C94FC2540
:104C4000DC01CB01FC01F999FECF06C0F2BDE1BD4C
:104C5000F89A319600B40D9241505040B8F708953B
:104C6000052E97FB1EF400940E94472657FD07D09F
:104C70000E94262507FC03D04EF40C94472650953D
:104C80004095309521953F4F4F4F5F4F0895909538
:104C90008095709561957F4F8F4F9F4F0895F89441
:104CA000FFCF210E290E300E350E3A0E3F0E440E68
:104CB000490E4E0E530E580E5D0E610E660E690EB5
:104CC0006C0E6F0E720E740E770E66136613BE13A3
:104CD000BE1310149313931393132C14B814C71406
:104CE000C7142315931393132C159D159D15A61505
:104CF000A615A815A615A615A6159D159D15AD15E5
:104D0000A615A615AD159F23C723B024C723B0242D
:0A4D1000FA231B24B02472247E2431
:104D1A0001000000010102005700575701191A1B30
:104D2A001C1D1E1F20212231044B1E8A1E4E1E8668
:104D3A001E821E01E200E900EA00B500B600B700D3
:104D4A00CD008301CC008A01920194012102230241
:104D5A0024022502260227022A02B300B4006F00A9
:104D6A00700081828330313233F4F5F6F7363597A5
:104D7A003496F0916694939237F167950001020296
:104D8A0002020606060909090909090F0F0F0F0F82
:104D9A000F15151518191919191919191919192386
:104DAA0024252525252525E200E900EA00B500B6D7
:104DBA0000B700CD008301CC008A01920194012141
:104DCA0002230224022502260227022A02B300B481
:084DDA00006F0070008182836C
:00000001FF
