:100000000C94CA020C9411030C9411030C94110368
:100010000C9411030C9411030C9411030C94110310
:100020000C9411030C9411030C9463220C94372349
:100030000C949B1D0C9411030C9411030C9411034C
:100040000C9411030C9411030C9411030C941103E0
:100050000C9411030C94F21D0C9411030C941103D5
:100060000C9411030C9411030C9411030C941103C0
:100070000C9411030C9411030C9411030C941103B0
:100080000C9411030C9411030C9411030C941103A0
:100090000C9411030C9411030C9411030C94110390
:1000A0000C9411030C9411030C941103290000000B
:1000B0003A003B003C003D003E003F004000410054
:1000C0004200430044004500460047004800350018
:1000D0001E001F0020002100220023002400250014
:1000E000260027002D002E002A0049004A004B0060
:1000F0002B0014001A000800150017001C0018003F
:100100000C00120013002F00300031004C004D0095
:100110004E00390004001600070009000A000B0019
:100120000D000E000F003300340028000000000016
:1001300000000000E10000001D001B000600190087
:10014000050011001000360037003800E5000000FF
:10015000000052000000E000E300E20000000000A8
:100160002C00000000000000E6006500E4000151E2
:100170005000000051004F00005C00000100010031
:100180000100010001000100010001000100010067
:1001900001000100CE5CCF5CD05C010001000100D9
:1001A0000100010001000100010001000100010047
:1001B000010001000100C65CC85CCA5C01000100CE
:1001C0000100010001000100010001000100010027
:1001D0000100010001000100C75CC95CCB5C0100AB
:1001E0000100010001000100010001000100010007
:1001F00001000100010001000000000000000000FB
:100200000100000001000100010001000100145C78
:1002100001000100010001000100000000000100D8
:1002200000000100010001000000000001000000CA
:10023000000000000100010001000100C55C000099
:10024000C35CC45C1E0F0500047F3F1F643214644E
:100250003214783C1E1E140A052223252628292A3A
:100260002C2D2F3032333536383A3B3D3E40424319
:100270004547494A4C4E5051535557595A5C5E6058
:1002800062646668696B6D6F71737577797B7D7F6A
:1002900081838587898A8C8E90929496989A9C9E69
:1002A0009FA1A3A5A7A8AAACAEAFB1B3B4B6B8B985
:1002B000BBBCBEBFC1C2C3C5C6C7C9CACBCCCDCEED
:1002C000D0D1D2D2D3D4D5D6D7D7D8D9D9DADADBD0
:1002D000DBDBDCDCDCDCDCDDDDDDDDDCDCDCDCDC5C
:1002E000DBDBDBDADAD9D9D8D7D7D6D5D4D3D2D29B
:1002F000D1D0CECDCCCBCAC9C7C6C5C3C2C1BFBE83
:10030000BCBBB9B8B6B4B3B1AFAEACAAA8A7A5A3ED
:10031000A19F9E9C9A98969492908E8C8A898785AC
:1003200083817F7D7B79777573716F6D6B6968668B
:100330006462605E5C5A5957555351504E4C4A495D
:1003400047454342403E3D3B3A3836353332302F05
:100350002D2C2A292826252322FFAA7F554000017B
:100360000101010101010101020202020202020275
:100370000203030303030303030404040404040447
:10038000050505050506060606060707070707080B
:10039000080808090909090A0A0A0B0B0B0C0C0CBE
:1003A0000D0D0D0E0E0E0F0F0F1010111111121258
:1003B00013131414151516161717181819191A1AD5
:1003C0001B1B1C1D1D1E1E1F202021222223242436
:1003D000252626272829292A2B2C2D2D2E2F303172
:1003E0003232333435363738393A3B3C3D3E3F4084
:1003F0004142434445464748494A4C4D4E4F50516F
:100400005354555658595A5B5D5E5F616264656628
:1004100068696B6C6D6F7072737577787A7B7D7EAF
:100420008082838587888A8C8E8F91939596989AFF
:100430009C9EA0A2A3A5A7A9ABADAFB1B3B5B7BA17
:10044000BCBEC0C2C4C6C9CBCDCFD1D4D6D8DBDDEB
:10045000DFE2E4E7E9EBEEF0F3F5F8FAFDFF1A036B
:1004600043005500380030002000760032002000A4
:1004700041004E005300490000001A034300610090
:100480007000730055006E006C006F0063006B001D
:100490006500640000000403090409023B00020136
:1004A00000A0FA0904000001030101000921110163
:1004B00000012240000705810308000A0904010029
:1004C0000103000000092111010001226D00070550
:1004D000820320000A120110010000000855438128
:1004E0000001000102000105010980A10185031935
:1004F000012AB700150126B700950175108100C0CB
:10050000050C0901A101850419012AA00215012683
:10051000A002950175108100C005010906A10185A1
:1005200005050719E029E7150025019508750181E2
:10053000020507190029EF1500250195F0750181C5
:1005400002050819012905950575019102950175A6
:10055000039101C005010906A101050719E029E77A
:100560001500250195087501810295017508810125
:100570000507190029FF150026FF0095067508815B
:100580000005081901290595057501910295017568
:10059000039101C011241FBECFEFDAE0DEBFCDBF53
:1005A00004B603FE27C08091CF059091D005A0919D
:1005B000D105B091D2058730904BA740B04BD1F414
:1005C0001092CF051092D0051092D1051092D2054D
:1005D00014BE84B7877F84BF0FB6F894A895809126
:1005E0006000886180936000109260000FBEE0E0C0
:1005F000F8E3099511E0A0E0B1E0E4E2FDE402C017
:1006000005900D92A83CB107D9F725E0A8ECB1E020
:1006100001C01D92AF3CB207E1F70E94CC1F0C94C1
:1006200054260C94000081E0089581E008950C9414
:10063000150308950C9419031F93CF93DF9300D0F3
:1006400000D00F92CDB7DEB749835A836B833091C8
:10065000B70389819A8131111DC06623B9F0222325
:10066000A9F00E94DD1A182F682F89819A810E94B3
:10067000891A69817A81812F0F900F900F900F90C6
:100680000F90DF91CF911F910C94D4030E94B51A63
:10069000182FEFCF0E94DD1A69817A81EDCFFC011E
:1006A000262F408151816281738184810C941C03C7
:1006B000CF93DF93EC0160E00E944F03BE01DF9116
:1006C000CF910C941A030E94411E0E94291C811193
:1006D00002C00E94CD1C0C94D7050C94DA05089535
:1006E0000E94F3150E946F032FEF84E39CE02150DA
:1006F00080409040E1F700C000000C94161E0F935C
:100700001F93CF93DF93EC0161E00E944F038C01B4
:10071000BE010E941703882359F1BE01C8010E943F
:100720004B0F882329F1BE01C8010E949D0F882329
:10073000F9F0BE01C8010E94C0108823C9F0BE01B3
:10074000C8010E94430E882399F08A81882339F0DA
:1007500001158CE5180751F00F3D1C4579F0CE01CD
:10076000DF91CF911F910F910C9413030E9470039E
:1007700080E0DF91CF911F910F9108950E94CD1CD1
:10078000F7CF08950C94C10381E008950C94C4033D
:10079000CF93C82F0E94C2038C2FCF910C94C60315
:1007A00090E080E008950895972F70E021E1929FF6
:1007B000600D711D1124FB0196E6899FE00DF11D6E
:1007C0001124EE0FFF1FE455FF4F8591949108957A
:1007D000FC01EE0FFF1FEC5BFD4F85919491089596
:1007E000CF93DF930E94D4030E94FC04EC01811597
:1007F00020E5920708F041C0811530E4930708F026
:10080000B4C0803E910518F5803C910508F09DC06C
:10081000883A910570F4853A910508F08EC08130D0
:100820009105F9F00097E9F00497D8F4D0E0C0E022
:1008300018C08F3B9105D0F7C85AD0E0CC0FDD1F10
:10084000CC5DDE4F0990D881C02DD4640AC08115DB
:10085000904258F4C11581E0D80718F4C83ED1057C
:1008600028F7CE01DF91CF910895C11590E3D90704
:1008700008F071C0CE019F706AC0811525E592070E
:1008800058F5811534E5930708F09EC0811542E5BF
:10089000940750F4C11581E5D80708F469C0DC2F2E
:1008A000CC27C16FD06ADDCF982F969596959E0183
:1008B00023703327C115D34508F077C0C1E0D0E0DD
:1008C00002C0CC0FDD1F2A95E2F720E2929FC00103
:1008D0001124C82BD92B67C0C11589E5D807A8F406
:1008E000C11598E5D90708F074C0C11526E5D207EF
:1008F00008F09CCF8C2F0E949305C82FD0E0DC2FEE
:10090000CC27CC27DF71D062ACCFC1153AE5D30735
:1009100008F464C0CE0190568115904208F086CF4D
:100920008D2F8F710E94930590E0982F882788273C
:100930009F719C012C2BE901E6CFC55AD0E0CE5A1D
:10094000DE4FC881D0E0D0648CCF805C91090E94DA
:10095000E803EC0186CFCE019927D3FF03C0EC0159
:10096000D86C7FCFEC01D06C7CCFDF70D06A79CFB0
:10097000CE01E4E096958795EA95E1F783702C2FF8
:1009800026952695237090E2299F90011124382BFB
:100990008C2F8370C1E0D0E002C0CC0FDD1F8A95A0
:1009A000E2F7C22BD32BDC685CCFC1E0D0E002C001
:1009B000CC0FDD1F2A95E2F730E2939FC00111248E
:1009C000C82BD92BDA684DCFD82FCC27C46FD06A6B
:1009D00048CFDC2FCC27C06FD06A43CF8C2F8F70CD
:1009E0000E94930534E0D695C7953A95E1F7CF700C
:1009F0009C2FEC01D06935CF82389105B1F1B0F46C
:100A00008133910509F475C048F48932910509F4E0
:100A100069C08A32910509F473C008958533910540
:100A200009F459C08933910501F10895833E910578
:100A3000A9F138F4803E9105F9F0823E910549F123
:100A40000895863E9105A9F1873E9105C9F1843E3E
:100A5000910519F52091C10521FF1FC08091C005A6
:100A600084FD14C087EE90E008952091C0052370A6
:100A7000A1F080EE90E008952091C00520FD47C0D0
:100A80003091C10530FF09C024FF44C090E080E0F0
:100A900004C02091C00522FDF7CF08952091C00524
:100AA00022FD3BC03091C10530FDE3CF24FFF5CFDF
:100AB000EDCF2091C00523FFF0CF24FDE7CFD2CFAB
:100AC0002091C00523FD2CC03091C10531FFEECF30
:100AD00084EE90E008952091C00525FFDECF89E2E5
:100AE00090E008952091C00525FFD7CF85E390E0E1
:100AF00008952091C00526FFD0CF8AE290E00895A6
:100B00002091C00526FFC9CF81E390E0089589E3D5
:100B100090E0089583EE90E0089582EE90E00895CD
:100B200086EE90E008959091C00592FF06C0282FB0
:100B300028712830F9F4877F846093FF06C0282F3E
:100B400028712831F1F4877E84612091C10520FF4E
:100B500006C0382F38713830D9F4877F816021FF83
:100B600006C0282F28712831D1F4877E816194FD39
:100B7000877E0895282F24712430F9F68B7F8860B2
:100B8000DCCF282F2471243101F78B7E8861DDCFE3
:100B9000382F3171313019F78E7F8860E0CF282FE0
:100BA0002171213121F78E7E8861E1CF08950C9467
:100BB000D60508950C94D90594E0899FF00111247D
:100BC000E656FB4F6081718182819381089508957B
:100BD00080EA8A95F1F7089500C008950C94E8051D
:100BE000F894E82FE295EF70F0E031A1282F2F70F4
:100BF00081E090E001C0880F2A95EAF7982F909540
:100C0000932391A392A1892B82A3789408950F93A3
:100C10001F93CF93DF9383E90E94F00582E90E943E
:100C2000F00587E30E94F00581EF0E94F00587E65A
:100C30000E94F00585E90E94F005C5E5D1E006E6D1
:100C400011E089910E94F0050C171D07D1F7E2E829
:100C5000F4E0AAE9B4E011921192119211921D925E
:100C60001D921D921D9284E0EA39F807A1F786E0F3
:100C70000E94E306DF91CF911F910F910C946303C3
:100C80004F925F926F927F928F929F92AF92BF929C
:100C9000CF92DF92EF92FF920F931F93CF93DF9348
:100CA00036E6A32E31E0B32E02E814E0D0E0C0E037
:100CB00088248394912CF50181915F01F894E82FA9
:100CC000E295EF70F0E021A18F70240102C0440C86
:100CD000551C8A95E2F7C201922F982B91A392A1FD
:100CE0008095892382A378940E94EC05A5E5B1E064
:100CF00090E080E0C12CD12C76014D91E42FE2955B
:100D0000EF70F0E020A130E04F7002C035952795DC
:100D10004A95E2F720FD51C0412C512C32014394F9
:100D2000082E04C0440C551C661C771C0A94D2F78C
:100D3000B301A201C42AD52AE62AF72A01968131F5
:100D40009105D9F6F501319780810E94F005D530E3
:100D500011F00E94EE05F80180819181A281B3819A
:100D6000C816D906EA06FB0661F1C082D182E2828A
:100D7000F38281E0C82BDF5F0C5F1F4FD63009F094
:100D80009ACF2C2F46E06AE974E082E894E00E9452
:100D9000E4060E946D038C2FDF91CF911F910F917C
:100DA000FF90EF90DF90CF90BF90AF909F908F908B
:100DB0007F906F905F904F90089540E050E0BA01AF
:100DC000B9CF80E0D7CF0895FF920F931F93CF93B1
:100DD000DF93F82ED92F8B01C42F222349F081E015
:100DE0008093CC010E94CB1D9093CB018093CA01CC
:100DF0008091CC01882399F08091CA019091CB0118
:100E00000E94E31D069758F0EF2DFD2FD80190E0CA
:100E100080E0D0E08C179D0744F01092CC01DF9168
:100E2000CF911F910F91FF90089501911191219100
:100E300031910D931D932D933D930196EBCFEF923E
:100E4000FF920F931F93CF93DF93EB01E82FD11104
:100E500010C0442321F0F0E0E25AFC4FE4916E2FE1
:100E60007E2F8E2FDF91CF911F910F91FF90EF90EA
:100E700008950D2F10E0282F30E0442329F0225A46
:100E80003C4FF901249130E0F6E0CF9FC0011124DE
:100E9000EFEFF0E0BF010E940325AB018C2F90E043
:100EA000880F991FA5E5A49FB001A59F700D11247F
:100EB000861B970B982F990F980FBF01601B710B22
:100EC000629FD001639FB00D729FB00D11248B2FD4
:100ED0009D9FB0011124672F7727EF01C61BD70B09
:100EE000BE01629FE001639FD00D729FD00D11245F
:100EF0007F01E91AF108E09EB001E19E700DF09EBD
:100F0000700D1124672F7727E61BF70BE29F8001F6
:100F1000E39F100DF29F100D1124E12F722F42302C
:100F2000510599F048F44115510569F041305105DA
:100F300081F0EB2F8D2F07C04430510569F080F010
:100F400046305105B1F76E2F8DCFE22F7B2F812FC9
:100F5000FACFE22F7D2FF7CFEB2F822F712FF3CF18
:100F60007B2F822FED2FEFCF41E00C941F070895C8
:100F70000C94B407CF93DF93762FE901682F842F69
:100F80000E94B807798368838A83DF91CF9108959F
:100F9000433308F042E30C94BA078091B204982FCF
:100FA0009E7F61F4817082608093B2048091B50469
:100FB000833318F082E38093B50408958635B0F347
:100FC00081708465F1CF88E090E00C94F525CF9294
:100FD000DF92EF92FF926B017C010E94CD07B70177
:100FE000A60188E090E0FF90EF90DF90CF900C9406
:100FF0001326E2EBF4E083E0808311828FEF82839B
:1010000082E38383148260817181828193810C9455
:10101000E7078091B20480FF02C08695089580E0C2
:1010200008959091B604933018F49F5F9093B6049E
:10103000882351F06091B2047091B3048091B4049C
:101040009091B5040C94E707089581E00C94110881
:101050009091B604992319F091509093B604882387
:1010600051F06091B2047091B3048091B4049091F6
:10107000B5040C94E707089581E00C94280870E00B
:101080000C94B30E609108018091B20480FF0AC0F5
:101090008091070123E0829FC001112489549B4F56
:1010A0000C943F088091090190910A0123E0829FEE
:1010B000F0011124E954FB4F891750F71182108277
:1010C00012828F5F3396F8CF9091B20490FF14C0D4
:1010D0009091090120910A0133E0939FF0011124BE
:1010E000E954FB4F921710F00C94420881836083FF
:1010F00042839F5F3396F6CF0895CF93DF9300D05E
:101100000F92CDB7DEB79091B20490FF0AC09E0156
:101110002F5F3F4F0E94C8074B8169818A810E94DF
:1011200064080F900F900F90DF91CF910895CF93A7
:10113000DF93EC01EC81F0E0E75AFD4F4491E2EBE4
:10114000F4E0628181810E947D088C818F5F8C83B5
:10115000DF91CF910895CF93DF93EC01E2EBF4E0C0
:10116000438162818C810E947D088C818F5F8C839A
:10117000DF91CF9108950F931F93CF93DF9300D00A
:101180000F92CDB7DEB78C018091CD0181110AC0DD
:101190009E012F5F3F4F42E36FEF0E94C8078A8195
:1011A0008093CD01F8016481613069F08091CD01B7
:1011B00040E0662361F040E0623011F44091CD01DF
:1011C00080E060E004C06091CD0140E080E00E94DA
:1011D0006408F801848190E0019663E070E00E9469
:1011E000172584830F900F900F90DF91CF911F915F
:1011F0000F910895AF92BF92CF92DF92EF92FF923C
:101200000F931F93CF93DF9300D00F92CDB7DEB72C
:10121000182FF62E042FE22E9091B20490FF29C0D1
:10122000E92FE695AE2FB0E0A459BE4F8C91809384
:101230008A039E7F923059F59E012F5F3F4F812F89
:101240000E94C8074B8169818A810E9464081093BB
:10125000B304F092B4040093B504EE2051F0609111
:10126000B2047091B3048091B4049091B5040E94CB
:10127000E7070F900F900F90DF91CF911F910F9183
:10128000FF90EF90DF90CF90BF90AF9008958230A5
:1012900019F40091B504DBCF863019F41091B30432
:1012A000D6CF8930D9F3893191F6E9518E2F8170EB
:1012B000D82EE695F0E0E75AFC4FA590B490C12CEB
:1012C000BB2460910B01C61618F00E944208BFCFE4
:1012D0002C2D30E0A29EC001A39E900DB29E900DD9
:1012E000112470E00E940325812FD11013C0860FB6
:1012F00040910901420F532F511D9A01220F331FB4
:10130000240F351F29543B4F402F6F2D0E94C807D3
:10131000C394D7CF861BECCFE2EBF4E09181282F6A
:101320004381628188E0890F0C94FA0881E00C9473
:101330008C09E2EBF4E09181282F4381628188EFF0
:10134000890F0C94FA0881E00C949909E2EBF4E01F
:10135000628128E0620F08F46FEF282F43818181BA
:101360000C94FA0881E00C94A609E2EBF4E06281A7
:1013700028E0621B08F460E0282F438181810C94EF
:10138000FA0881E00C94B509E2EBF4E0438128E02F
:10139000420F08F44FEF282F628181810C94FA08E4
:1013A00081E00C94C409E2EBF4E0438128E0421BA5
:1013B00008F440E0282F628181810C94FA0881E0D2
:1013C0000C94D30920E00C94FA08EF92FF921F933B
:1013D000CF93DF93EC0110E0EE24EA94F12C6091BE
:1013E0000B01161770F00E9442089A818C8190FFC1
:1013F00027C08F5F8C83DF91CF911F91FF90EF907B
:10140000089520910901422F410F5527551FCA0108
:101410009A01220F331F280F391F29543B4F70E0C8
:10142000C7010E941725962F8C814091B5046091C9
:10143000B404199F800D11240E94C8071F5FCFCFED
:101440008150D8CFAF92BF92CF92DF92EF92FF92AE
:101450000F931F93CF93DF93FC0182810FEF80FFE7
:1014600001E010E047E5A42E80910B011817C8F0A9
:101470000E9442088091CF01013009F055C08111CE
:1014800002C080910B0181508093CF01DF91CF91F9
:101490001F910F91FF90EF90DF90CF90BF90AF9092
:1014A0000895C0910901C12ED12CCC0DDD2DD11D87
:1014B000CE01880F991FC80FD91FC954DB4F19825D
:1014C00018821A8234E0E32EF12CB12C8091CF01E6
:1014D0008B0D88351CF16A2D0E94F524892F082E6A
:1014E000000C990BC816D90691F48091B5048E9D15
:1014F000A0018F9D500D1124559547955595479501
:101500009E016091B4048091B3040E94C807B00E9C
:10151000F1E0EF1AF108D1F61F5FA6CF87FFDFCF0A
:1015200090910B01890FDBCF90E0019660910B0148
:1015300070E00E941725A8CF0F931F93CF93DF93DE
:101540008091090190910A0123E0829FF00111240A
:10155000E954FB4F891740F1C0E0D3E060910B01E3
:10156000C61740F10E944208209105018091CE01EA
:10157000820F8093CE0190910601920F9093060105
:10158000191654F4082E000C990B40910B01415090
:10159000550B841795071CF0219520930501DF91C9
:1015A000CF911F910F9108951182108212828F5F47
:1015B0003396D0CF0C2F10E070E0C8010E941725A1
:1015C00020910901820F482F50E02091CE01022E78
:1015D000000C330B02171307BCF020910601022EFA
:1015E000000C330B201731077CF08D9F90011124E4
:1015F00029543B4F4091B5046091B4048091B304E9
:101600000E94C807CF5FAACFFA01EE0FFF1FE40FB9
:10161000F51FE954FB4F118210821282F3CF8F9293
:101620009F92AF92BF92CF92DF92EF92FF920F9371
:101630001F93CF93DF93EC014C81042F10E09801AE
:10164000D8010E945B259B01AC010E9471254B01D2
:101650005C01E0E2F0E0E01BF10BA5E5B0E0AC01DD
:101660009B010E9471256B017C019F01DF010E949B
:1016700053259B01AC010E947C259B01AC01280DE8
:10168000391D4A1D5B1DC701B6010E942B25F22E94
:10169000822F90E039E23F1560F143E0249F9001F2
:1016A000112435952795122F109500E085E5E82E39
:1016B000EF1880910B01081758F10E9442089C8195
:1016C00081E0992319F0903219F48FEF809304018F
:1016D00080910401890F8C83DF91CF911F910F912D
:1016E000FF90EF90DF90CF90BF90AF909F908F9042
:1016F000089525E530E0B901681B790B9B01220FA5
:10170000331F260F371F37FFCCCF2F5F3F4FC9CF77
:101710008E2D01FD8F2D20910901622F600F7727FB
:10172000771F9B01220F331F260F371F29543B4F72
:10173000412F6091B4040E94C8070F5FBACF0F9386
:101740001F93CF93DF93EC0110E000E090910B0129
:101750009017110609F06CF40E9442088C8190E009
:101760000196817099278C83DF91CF911F910F9102
:10177000089520910901A801420F511D9A01220FDD
:10178000331F240F351F29543B4F4C816091B40403
:101790008091B30496959017110651F04CF04423B4
:1017A00049F04091B5040E94C8070F5F1F4FCECF8C
:1017B0004423B9F340E0F7CF4F925F926F927F924C
:1017C0008F929F92AF92BF92CF92DF92EF92FF9251
:1017D0000F931F93CF93DF93FC016280448081E0DD
:1017E0008483E9E5F2E07490E8EDF2E0E491812C85
:1017F00075E0972EF2E0CF2EDD24D394AA24AA948C
:10180000B12C55245A94E7190E2F10E080910B014A
:10181000881690F0DF91CF911F910F91FF90EF907C
:10182000DF90CF90BF90AF909F908F907F906F9000
:101830005F904F900C944208E82CF12C82E08615C2
:1018400068F09E9CF0019F9CF00D1124E053FE4F28
:101850008091B30480838091B4048183411023C0BC
:101860009E9CF0019F9CF00D1124E053FE4F1382CB
:10187000128220910901C701820F911D9C01220F44
:10188000331F280F391F29543B4F9E9CF0019F9C0A
:10189000F00D1124E053FE4F4281618180810E944E
:1018A000C8078394B3CF9E9CE0019F9CD00D112468
:1018B000C053DE4F8B818823E9F081508B83859D57
:1018C000C00111246C8170E00E940325FB01FF27F9
:1018D000E75AFD4F8491E82FE719E59DC0011124D7
:1018E000B8010E9403258091B504689FB0011124BE
:1018F0007A83BFCF0E94D0252091B5042695215828
:101900002C9DA0012D9D500D1124452F5527841786
:1019100095070CF0AECF82E0861588F40E94D025A2
:10192000B5010E94172588830E94D0252091B40418
:101930002695622F70E00E941725280F29839E9C10
:10194000F0019F9CF00D1124E053FE4F1282809114
:10195000B504893C58F088EC9E9CF0019F9CF00DEA
:101960001124E053FE4F8483838383CF8431A0F717
:1019700084E1F2CFE2EBF4E080818E7F80836081AE
:101980007181828193810E94E70710928B032FEF70
:1019900080E792E0215080409040E1F700C00000D5
:1019A0000C9442086091B204669570E04BE050E000
:1019B0008CE091E00E94E025892B19F481E080936E
:1019C0008B030E94CB1D909384038093830308951F
:1019D0009091B20490FF35C09170811128C092603F
:1019E0009093B204662351F06091B2047091B304F5
:1019F0008091B4049091B5040E94E7076091B2040D
:101A0000669570E04BE050E08CE091E00E94E025AC
:101A1000892BA1F010928B0381E080938603409183
:101A2000B5046091B4048091B3040C94E2098B3244
:101A300010F09465D5CF880F982BD2CF0E94D20C8E
:101A4000EBCF0895682F9091B204969581E0890FAD
:101A50008B3208F081E00C94E80C81E00C94220DAC
:101A6000682F9091B20496958FEF890F09F48AE25E
:101A70000C94E80C81E00C94300D61E00C94E80CBF
:101A8000E2EBF4E080818160808386950C943D0DCB
:101A90008091B20480FD0C94BA0C0C94400D60E06F
:101AA0000C94E80C8091890381112EC00E94291C9E
:101AB000811104C00E94CD1C0E94F9070E94E30717
:101AC0006093B2047093B3048093B4049093B5040C
:101AD0006E7F61F40E94F9070E94E3076093B204ED
:101AE0007093B3048093B4049093B5040E94CD071F
:101AF00010928B038091B20480FF03C086950E94F0
:101B00004F0D81E08093890308950F931F93CF9326
:101B1000DF9380918B03882309F496C080918A0318
:101B2000E091B204E695E81BE0938503823091F5DD
:101B3000F0E0EB5AFD4FE491CE2FD0E007E918E03A
:101B400080918603882361F0109286030E94CB1D4A
:101B500090938403809383031092880310928703E9
:101B60000E94CB1DE0918303F09184038E1B9F0B99
:101B70008F3F9F4708F068C0EC0FFD1FF093840370
:101B8000E093830383E893E0F801DF91CF911F9105
:101B90000F910994863049F4F0E0EE5AFD4FE4913C
:101BA000CE2FD0E00BEA18E0CBCF893051F4E69588
:101BB000F0E0E15BFD4FE491CE2FD0E005EE19E0BF
:101BC000BFCF8F3051F4E695F0E0E45BFD4FE49138
:101BD000CE2FD0E002E21AE0B3CF853149F4F0E035
:101BE000E75BFD4FE491CE2FD0E00CE91AE0A8CFDF
:101BF000C8E2D0E00FE01BE0883109F4A1CF8332C6
:101C000039F4E7E4F2E0C591D4910BEB18E098CFFA
:101C1000C4EFD1E00FE91BE0843209F491CFC0EDAD
:101C2000D7E007EB17E0853209F08ACF8E2F63E00B
:101C30000E94E924E92FF0E0EC5BFD4FE491CE2F08
:101C4000D0E00CED1BE07CCFDF91CF911F910F9185
:101C50000895FA01811101C0FB010994CF93DF932C
:101C6000C82FD62F0E9409088C1740F00E9409083F
:101C70008D1720F4DF91CF910C942D0D8C2FDF91D7
:101C8000CF910C943D0D0F931F93CF938C01FB01CB
:101C9000C281CC2309F465C00E94721B8272F801D4
:101CA000E35CFC45E431F10538F4EA5AF94D0C9453
:101CB0004D250E94480DC0E08C2FCF911F910F91B0
:101CC00008954AE35DE06DE27DE00E94290EF3CFC6
:101CD0004DE25DE06AE37DE0F8CF43EA59E066E972
:101CE00079E0F3CF46E959E063EA79E0EECF41ECE1
:101CF00059E062EB79E0E9CF42EB59E061EC79E041
:101D0000E4CF4FED59E060ED79E0DFCF40ED59E0F1
:101D10006FED79E0DACF4CE358E065E278E0D5CFBB
:101D200045E258E06CE378E0D0CF81E00E943D0DC1
:101D3000C2CF65E082E00E942E0EBDCF68E086E053
:101D4000FACF6EE089E0F7CF64E18FE0F4CF67E18E
:101D500085E1F1CF88E1EACF62E289E1ECCF83E26D
:101D6000E5CFC1E0A9CF6E9A4EB14F7B5EB1506412
:101D7000EFB7F8949B01220F331F260F371F280F50
:101D8000391F2817390741F4EFBF8FE594E0019719
:101D9000F1F700C000000895DC016D91CD0178E0FD
:101DA0005EB9000000C067FF4EB9660F000000C0BA
:101DB00000C000C04EB900C07A9591F7E2CF0F93F2
:101DC0001F93CF93DF93C42FD22FFC0182818823EE
:101DD000C9F040938E030E94CB1D90938D03809396
:101DE0008C0380E28C0F883008F050C0C77081E00F
:101DF00001C0880FCA95EAF7DF91CF911F910F912B
:101E00000C94891310918E03141335C080918C03A8
:101E100090918D030E94E31D883C910560F5C0E21E
:101E2000CD0F1D17B9F080E2810F883040F4177094
:101E300081E001C0880F1A95EAF70E949013C8301C
:101E400048F481E09D2F977001C0880F9A95EAF7BA
:101E50000E948913802F0E948113C830B8F4D77074
:101E600081E001C0880FDA95EAF7DF91CF911F91E9
:101E70000F910C94901380E28C0F883038F4C77067
:101E800081E001C0880FCA95EAF7EFCFDF91CF91CB
:101E90001F910F9108950F939C01CB01243F4CE5B6
:101EA000340759F1A8F4293DFCE53F0701F12A3D2B
:101EB0004CE53407D1F1283D3C4591F406E221EE92
:101EC00041EE68ED7CE50E94DF0E80E00F91089501
:101ED000263FFCE53F07E9F0B0F0273F3C45F9F02D
:101EE000FC018281882339F110928E03EFCF07E243
:101EF00025EE45EE69ED7CE5E6CF06E221EE40EE0B
:101F000064EF7CE5E0CF07E225EE44EE65EF7CE58B
:101F1000DACF06E221EE42EE66EF7CE5D4CF07E2AF
:101F200025EE46EE67EF7CE5CECF08E221E045EEF8
:101F30006AED7CE5C8CF81E0C9CFCF93DF93EC0198
:101F4000FB018281882309F419C1C230FCE5DF0757
:101F5000C0F1C6319CE5D90730F09E012B5F3C45AE
:101F60002930310570F50E943C1C9093C105809387
:101F7000C005C031ECE5DE0709F4CFC008F05BC056
:101F8000C8308CE5D80709F4B6C088F5C430ECE554
:101F9000DE0709F4A8C0C0F4C2308CE5D80709F404
:101FA0009CC08091C0058260C330DC4509F498C0B4
:101FB0008091C0059091C1050E944A1C0E94F315B2
:101FC00080E0DF91CF9108958091C0058061C63097
:101FD000ECE5DE0709F484C08091C0058860C73055
:101FE000DC4508F47DC08091C005806279C0CC30AA
:101FF0008CE5D80709F489C070F48091C0058C6025
:10200000CA30ECE5DE0709F46BC008F478C08091B3
:10201000C0058E7F65C0CE308CE5D80709F479C045
:102020008091C0058B7FCF30DC4508F459C080918A
:10203000C0058F7E55C0CC3FECE5DE0709F457C0E4
:1020400030F5C3318CE5D80709F46FC078F4C1319D
:10205000ECE5DE0709F465C0C231DC4509F0A8CF24
:102060000E94F3158091C0058F773AC0C5318CE589
:10207000D80709F462C008F476C08091C105816078
:10208000CB3FDC4509F094CF8093C10591CFC115BA
:10209000FDE5DF0709F44DC088F48091C1058D7F0F
:1020A000CE3F9CE5D90781F38091C1058E7FCF3F5C
:1020B000DC4550F38091C1058360E6CFC230FDE579
:1020C000DF0709F459C008F444C080E0C330DD459F
:1020D00009F06ECF0E94CF1C6BCF8091C00581604C
:1020E0008093C00565CF8091C0058460F9CF809151
:1020F000C1058260C9CF8091C0058064F1CF0E9484
:10210000F3158091C0058068EBCF8091C0058D7F6D
:10211000E7CF8091C005877FE3CF8091C0058F7D99
:10212000DFCF8091C0058F7BDBCF8091C005837F9F
:10213000D7CF8091C1058C7FA7CF8091C00582FB4E
:10214000992790F921E0922790FB82F990FB83F97F
:10215000C7CF8091C105982F909591708E7F892B64
:1021600090FB81F991CF0E94F3159091C005892FC2
:1021700097FB87F98058B4CF81E0ACCF81E021CFC5
:10218000CF93DF93EB0186319C4511F50E94721BC2
:102190009A81992399F08A7A91E009F490E09093DA
:1021A0008F03811109C089E20E944D1B0E94BE1B52
:1021B00080E0DF91CF91089585E3F6CF80918F0382
:1021C000811104C089E20E94541BF0CF85E3FBCF4C
:1021D00081E0EFCF90939503809394030895E0916D
:1021E0009403F0919503309721F00190F081E02D58
:1021F000099480E00895E0919403F091950330975D
:1022000099F020912301222359F02091C00527FF46
:1022100007C0DC012C9111962C93119725E02C938B
:102220000280F381E02D099408952091920330916A
:1022300093032817390771F09093930380939203C7
:10224000E0919403F0919503309721F00680F78197
:10225000E02D09940895209190033091910328175F
:10226000390771F09093910380939003E091940368
:10227000F0919503309721F00084F185E02D0994C9
:1022800008950E94D71D6093B3037093B4038093A5
:10229000B5039093B6036093AF037093B00380933C
:1022A000B1039093B203089585B7806885BF85B761
:1022B000806885BF0895089508950C945B11089572
:1022C0000C945F110E94541181E29CE10E943A1E1D
:1022D0000E945C110C945D1181E008950C946C11C6
:1022E000089508950E94C21D0E9407060E94551E6F
:1022F0000E94520D0C9460114F925F926F927F92E8
:102300008F929F92AF92BF92CF92DF92EF92FF9205
:102310000F931F93CF93DF93CDB7DEB72A970FB6F6
:10232000F894DEBF0FBECDBF0E9470110E947111E4
:102330000E94400681110E94411157E9A52E53E0E9
:10234000B52E10E000E0802E802F0E94DC052B01CE
:102350003C01F501C190D190E190F1905F01C4146E
:10236000D504E604F70409F477C080915E0481FD8A
:102370000E94E705D701C60184259525A625B72526
:10238000912CC12CD12C7601C394AC01BD014C2100
:102390005D216E217F21452B462B472B09F454C02C
:1023A0000E946E118823C9F09E828F824C205D208E
:1023B0006E207F2081E045284628472809F480E0E8
:1023C00088870E94CB1D8160782F9A8789874E81EC
:1023D0005F8168858A850E945A12000F111F000FC5
:1023E000111FF801E956FC4F80819181A281B381D0
:1023F0008C259D25AE25BF2580839183A283B38341
:102400000E94850D0E94EF10909196038917D9F1D3
:102410000E94EF10809396032A960FB6F894DEBFC1
:102420000FBECDBFDF91CF911F910F91FF90EF9025
:10243000DF90CF90BF90AF909F908F907F906F90E4
:102440005F904F900C94C8039394CC0CDD1CEE1C51
:10245000FF1CF1E19F1299CF0F5F1F4F063011054E
:1024600009F071CF8FEF89838A831B820E94CB1D75
:102470008160782F9D838C8349815A816B818D8106
:102480000E945A12BDCF2A960FB6F894DEBF0FBE37
:10249000CDBFDF91CF911F910F91FF90EF90DF9013
:1024A000CF90BF90AF909F908F907F906F905F90F4
:1024B0004F900895DF92EF92FF920F931F93CF9367
:1024C000DF93CDB7DEB72B970FB6F894DEBF0FBE04
:1024D000CDBF7A878B87F42E052F162FE72ED82EA7
:1024E00061110E94921B1E821D827E2DEC82DD8274
:1024F0004F2D502F612F8D2D9E812B960FB6F89466
:10250000DEBF0FBECDBFDF91CF911F910F91FF9026
:10251000EF90DF900C946918FC01808191810C94FC
:102520001F1BCF93C82F882309F483C08238C1F4BE
:102530000E94EF1081FD7DC089E30E944D1B0E9427
:10254000BE1B2FEF81EE94E0215080409040E1F7D8
:1025500000C0000089E30E94541BCF910C94BE1B65
:102560008338A1F40E94EF1080FD63C083E50E94D0
:102570004D1B0E94BE1B2FEF81EE94E02150804046
:102580009040E1F700C0000083E5E5CF8438A1F476
:102590000E94EF1082FD4DC087E40E944D1B0E94F7
:1025A000BE1B2FEF81EE94E0215080409040E1F778
:1025B00000C0000087E4CFCF8CEF8C0F813A90F4FD
:1025C0006C2F80911701909118010E94E81C8823BC
:1025D00029F08C2F0E94541B0E94BE1B8C2F0E943E
:1025E0004D1BBBCF80E28C0F883048F4C77081E070
:1025F00001C0880FCA95EAF70E94751BAECFEBE5C4
:10260000EC0FE33040F4F0E0EB53FE4F808190E0BC
:10261000CF910C941511C85AC73158F4EC2FF0E043
:10262000EE0FFF1FE956FE4F80819181CF910C94F0
:102630002B11CF910895882309F44BC0823871F48F
:102640000E94EF1081FF45C089E30E944D1B0E944C
:10265000BE1B89E30E94541B0C94BE1B833859F4A3
:102660000E94EF1080FF35C083E50E944D1B0E9441
:10267000BE1B83E5EFCF843859F40E94EF1082FF30
:1026800028C087E40E944D1B0E94BE1B87E4E2CF56
:102690009CEF980F913AF0F290E2980F983050F436
:1026A000877091E001C0990F8A95EAF7892F0E94FF
:1026B0007B1BD2CF9BE5980F933020F490E080E015
:1026C0000C941511885A873120F490E080E00C9426
:1026D0002B1108951F93CF93DF93182FEB010E94C6
:1026E0009112209731F4812FDF91CF911F910C949B
:1026F0001B138FE99FE00197F1F700C000002197BD
:10270000F0CF70E060E0893311F460E570E00C9484
:102710006A13882321F00E94751B0C94BE1B089538
:10272000882321F00E947B1B0C94BE1B0895BF924E
:10273000CF92DF92EF92FF920F931F93CF93DF938D
:102740006C01D62FC72FFC011281058102950F70F5
:102750000E946B1BE82E8823A1F0E12E112389F043
:102760008C2F807F803429F080E28D0FE12C88301F
:1027700040F082E00E94091C0E946B1B91E0E82E51
:10278000E926BC2EB2949FE0B922EB2DF0E0E65989
:10279000F94D0C944D250C2F0F70C07F11F0029550
:1027A000007F1123A9F0002359F080E28D0F8830BB
:1027B00010F0D11109C0802F0E94751B0E94BE1B12
:1027C0008D2F0E94911214C0802F0E94851BF6CF7E
:1027D0008D2F0E941B13002359F080E28D0F88304B
:1027E00010F0D1112CC0802F0E947B1B0E94BE1BB9
:1027F0002B2D2850330B2430310520F40E94EF108C
:102800000E94C803EE2009F493C10E94671B80FD5B
:102810008FC1F60112820E94611B0E94ED19C60150
:102820000E94B9150E94611BDF91CF911F910F91FA
:10283000FF90EF90DF90CF90BF900C940E1A802FF6
:102840000E948B1BD3CFFC2FFF70FF2EC07FC032A6
:1028500019F0F29480EFF822DD2369F0D13049F1CC
:10286000112391F1002351F1F601858180FFA8CF5A
:102870008F70858323C0112381F0011106C00E944F
:10288000A51B8F290E948913B3CF0130C1F70E9485
:10289000A51B8F290E94AB1BABCF011106C00E9464
:1028A000B41B8F2D0E949013A3CF013009F4A0CF49
:1028B000F6CF112329F0063008F09ACF8F2DE2CF02
:1028C000053008F095CFEDCF002359F3D93349F403
:1028D000FFEF27EE33E0F15020403040E1F700C039
:1028E00000008D2F0E941B1383CF8C2F8695869519
:1028F000837069F0813009F07BCF8D2F9C2F93700E
:10290000111102C090E080E00E942B1171CF8D2F39
:102910009C2F9370111102C090E080E00E9415116D
:1029200067CF8C2F837009F041C0111161CF4D2FFB
:10293000429546954770440F440F0D2F0F7010E0DD
:1029400030E020E0042E04C0000F111F221F331FAF
:102950000A94D2F760E070E0CB01D4FF0FC06FE0C3
:1029600070E080E090E004C0660F771F881F991F19
:102970004A95D2F76095709580959095C695C695C5
:10298000C370602B712B822B932BC23049F058F40B
:10299000C13019F00E949F192BCF0E948D1928CFAA
:1029A0000E94B11925CF0E948B1922CF8695112341
:1029B00011F08C2F8170882309F41ACF4D2F429586
:1029C00046954770440F440F0D2F0F7010E030E014
:1029D00020E0042E04C0000F111F221F331F0A9491
:1029E000D2F760E070E0CB01D4FF0FC06FE070E081
:1029F00080E090E004C0660F771F881F991F4A95FA
:102A0000D2F76095709580959095C695C695C370E0
:102A1000602B712B822B932BC23049F058F4C130BC
:102A200019F00E94641AE4CE0E94521AE1CE0E946C
:102A3000761ADECE0E94C719DBCECF70112329F0A3
:102A40008C2F0E94ED198D2F1DCF8D2F0E9490137A
:102A50008C2F0E940E1ACCCED23F89F160F4D03F69
:102A6000C9F0D13F29F1112309F442C00111A8CEC8
:102A70008C2F8F7121C0D33F39F1D43FA1F711239F
:102A800069F1CF718C2F0E94ED1963E08C2F0E94A9
:102A9000F41BAECE112341F0053008F0A9CE8C2FE7
:102AA0008F710E94311AA4CE063008F0A1CEF7CF64
:102AB0008C2F8F71112369F20E94ED1999CE8C2F02
:102AC0008F711123C9F3C5CF112329F08C2F8F717A
:102AD0000E94D8198DCE0E94D3198ACE81E00E941F
:102AE000091C023008F484CE82E00E94091C80CECA
:102AF000002359F0D93309F0F4CE8FEF97EEE3E0DD
:102B000081509040E040E1F7EACE8C2F8F71A1CF49
:102B10004C2F4F706D2FC6010E94D0030E940319E5
:102B200067CE4C2F4F706D2FC6010E94D30360CE2D
:102B3000DF91CF911F910F91FF90EF90DF90CF9099
:102B4000BF9008950F931F93CF93DF93EC0168819B
:102B500079818A810E94291B8C010E94881A0E9417
:102B60008A19B801CE01DF91CF911F910F910C947A
:102B70009713CF93DF93EC018B819C81892B29F0F4
:102B80008881998189238F3F59F4DF91CF910895EE
:102B9000CE010E94A215CE01DF91CF910C94580373
:102BA000CE010E947F038111F3CF0E946B1B88230B
:102BB00061F38A81882349F382E0DF91CF910C94FD
:102BC000091C90E080E00E94151190E080E00E94D6
:102BD0002B110E94921B0E94A21B0C94BE1B0E94F0
:102BE0005B1B0C94E1150E94821B0C94EF15E92FDE
:102BF000E295EF70E250EE3070F4F0E0E658F94DF7
:102C00000C944D25803F19F020F4883E20F481E09B
:102C10000895843FE1F380E00895883EC0F3813F4A
:102C2000D1F7F5CF93FB882780F908950E941F1BE9
:102C30000C94F715CF93DF9300D000D00F92CDB74F
:102C4000DEB70F900F900F900F900F90DF91CF9104
:102C50000895CF93DF9300D000D000D0CDB7DEB77A
:102C600026960FB6F894DEBF0FBECDBFDF91CF9191
:102C700008951F93CF93DF93C091B80316E080911E
:102C8000B9038C1304C0DF91CF911F910895D0E058
:102C90001C9FF0011D9FF00D1124E654FC4F408154
:102CA000518162817381848195810E9429162196C8
:102CB000C770E5CF4091EA035091EB036091EC03BC
:102CC0007091ED038091EE039091EF030C9429161F
:102CD0001F93CF93DF938091EF03807FA9F48091BE
:102CE000EC03882389F08091B803C091B903609107
:102CF000EA037091EB03A091ED03B091EE03D62FA0
:102D0000D72316E0C81304C0DF91CF911F91089517
:102D100090E0109711F0DF3F19F401968770F2CF21
:102D2000189F9001199F300D1124F901E654FC4FB2
:102D300041814713F2CF40814613EFCF42814111C9
:102D4000ECCF438154814A1B5B0B483C510528F76B
:102D50008091EF038F7080618093EF03F901E1545C
:102D6000FC4F80818F70806180838AEE93E00E94A7
:102D7000B915DF91CF911F910C943916AF92BF9284
:102D8000CF92DF92EF92FF920F931F93CF93DF9337
:102D9000CDB7DEB761970FB6F894DEBF0FBECDBFDB
:102DA0008C0185E0F801DE011D9601900D928A9557
:102DB000E1F7F80140815181E2808AEEC82E83E07C
:102DC000D82E6091ED037091EE036115710509F441
:102DD00061C19091EA032091EB03892F82238F3FF9
:102DE00009F458C1A380B480F090EC03F501E61B10
:102DF000F70BFF2009F4FCC08091EF03382F307FE0
:102E0000E83CF10508F0B2C0311179C0FE2C251361
:102E100023C0941321C0E1101FC08F708061809384
:102E2000EF030E945A16C6010E94B9158091EF0364
:102E3000F80185838F2D61960FB6F894DEBF0FBE23
:102E4000CDBFDF91CF911F910F91FF90EF90DF9059
:102E5000CF90BF90AF900895AB2829F0842F8523A1
:102E60008F3F09F033C180E0F82FF170DF2E80FF33
:102E70003CC08091B8032091B90336E0821315C09D
:102E80004D875E878D859E850E941F1B292F229569
:102E90002F702230F0F0243018F59F70F1F0F80117
:102EA0009581907FD1F4D12C1EC090E0389FF00125
:102EB000399FF00D1124E654FC4F6181651306C063
:102EC0006081641303C062816E110FC00196877028
:102ED000D5CF9F7011F0882331F3805E883018F3CE
:102EE000C8010E94B915FD2CA5CFEE2009F4A2CF90
:102EF0008091EF0381608093EF03F12C9BCF25132A
:102F000006C0941304C0F801EE2009F48DC04D876B
:102F10005E878D859E850E941616882319F1EE2006
:102F200009F18091EF03803270F02091EA03309133
:102F3000EB0338872F831986BB86AA868C87CE0140
:102F400007960E94B91586E0F801AAEEB3E0019059
:102F50000D928A95E1F70E9468160E945A16FF2486
:102F6000F39468CFC8010E94B915F9CF311113C08D
:102F70007A2DB98AA88A6E2D89890E941A168AEE3E
:102F800093E00E94B91586E0F60111928A95E9F75F
:102F90000E945A16B2CF25130FC094130DC0E11032
:102FA0000BC0F8018583C8010E94B91586E0F601BF
:102FB00011928A95E9F73ECF4D875E878D859E8574
:102FC0000E941616882371F2EE2061F28091EF03C1
:102FD000803208F4B8CF2091EA033091EB033A83B2
:102FE00029831B82BD82AC828E83CE010196A9CF3C
:102FF000E83CF10508F041C0FE2CEE2009F4B2CF08
:1030000025132AC0941328C08091EF0380FD1BC0B4
:10301000982F907FC1F0F8018583903F31F0982F71
:10302000907F905F8F70892B8583C8010E94B915AE
:1030300086E0F801AAEEB3E001900D928A95E1F7DF
:103040000E945A16F7CE86E0F801AAEEB3E001908E
:103050000D928A95E1F7EECE4D875E878D859E8530
:103060000E94161681116FCF8091EF0381608093CB
:10307000EF03C8010E94B915DDCE7A2DB98AA88A5E
:103080006E2D89890E941A1686E0F60111928A95A2
:10309000E9F7D6CFEE2009F465CF4D875E878D85A1
:1030A0009E850E941616F82E882309F45BCF86E0D1
:1030B000F801AAEEB3E001900D928A95E1F78AEE4D
:1030C00093E00E948C120E946816BACF81E08E2590
:1030D000CBCE1F93CF93DF93CDB7DEB72C970FB630
:1030E000F894DEBF0FBECDBF4F83588769877A87BC
:1030F0008B879C87CE0107960E94BE16882369F0B5
:103100008A859B85892B39F04F815885842F8523AB
:103110008F3F09F071C016E05FC086E0FE01379670
:10312000DE01119601900D928A95E1F78A859B85C3
:10313000892B89F38F81988589238F3F61F32091B3
:10314000B90330E0C9010196877099274091B8030F
:103150004817190671F40E94F3151092B9031092E2
:10316000B80386E0EAEEF3E0DF011D928A95E9F705
:10317000D2CF96E0929FD001939FB00D1124A65418
:10318000BC4FFE01319601900D929A95E1F7809324
:10319000B9030E943916BFCF819FC0011124865404
:1031A0009C4F0E94BE168823E9F0E091B8031E9F51
:1031B000F0011124E654FC4F4081518162817381FA
:1031C000848195810E9429168091B80390E0019630
:1031D000877099278093B8038091B8039091B903C1
:1031E0008913DACF2C960FB6F894DEBF0FBECDBF91
:1031F000DF91CF911F91089569857A858B859C8594
:103200000E94291688CFEF92FF920F931F93CF93BE
:10321000DF938C01892B81F0F12CEE24E394E801FB
:103220002196F8018491843770F4843008F05FC0EF
:103230008130B1F08230A1F1DF91CF911F910F91D8
:10324000FF90EF900895853709F44CC008F43DC015
:103250009CE7980F903780F78F770E941B1349C027
:103260000E5F1F4FFE01849190E2980F983060F43A
:103270008770FE2D01C0FF0F8A95EAF78F2F0E94FD
:10328000951B0E94BE1B02C00E9491128F2D81507F
:1032900030F2EFE9FFE03197F1F700C00000F7CF1F
:1032A0000E5F1F4FFE01849190E2980F983050F40A
:1032B0008770FE2D01C0FF0F8A95EAF78F2F0E94BD
:1032C0009B1BDFCF0E941B13E1CF0E5F1F4FFE0140
:1032D000C491C150D8F28FE99FE00197F1F700C087
:1032E0000000F7CF0E5F1F4FFE01F490CFCF0E947A
:1032F00091128E01CBCF08950C947B190E947C19FA
:1033000060933504709336048093370490933804A7
:103310000C94E11508950C947E190F931F9300915E
:103320003504109136042091370430913804602B15
:10333000712B822B932B1F910F910C947E190F935D
:103340001F93009135041091360420913704309179
:10335000380460237123822393231F910F910C94CF
:103360007E190F931F93009135041091360420911C
:1033700037043091380460277127822793271F91E3
:103380000F910C947E190C947B190C94C3190E9414
:10339000C519609331047093320480933304909381
:1033A00034040C94E11560E070E0CB010C94C71973
:1033B0000F931F9341E050E060E070E08A019B01B1
:1033C00004C0000F111F221F331F8A95D2F7C901B5
:1033D000B8011F910F910C94C7190F931F9341E0EF
:1033E00050E060E070E004C0440F551F661F771F77
:1033F0008A95D2F78091310490913204A0913304E0
:10340000B09134048A019B01082B192B2A2B3B2BEA
:10341000C901B8011F910F910C94C7190F931F9305
:1034200041E050E060E070E004C0440F551F661FAB
:10343000771F8A95D2F7CB01BA0160957095809578
:103440009095009131041091320420913304309111
:10345000340460237123822393231F910F910C94D2
:10346000C7190F931F9341E050E060E070E004C083
:10347000440F551F661F771F8A95D2F7809131043C
:1034800090913204A0913304B09134048A019B01DD
:10349000082719272A273B27C901B8011F910F9137
:1034A0000C94C7190F931F930091310410913204AB
:1034B0002091330430913404602B712B822B932B99
:1034C0001F910F910C94C7190F931F930091310412
:1034D000109132042091330430913404602371231D
:1034E000822393231F910F910C94C7190F931F935D
:1034F000009131041091320420913304309134044E
:1035000060277127822793271F910F910C94C71969
:10351000089521E1929F800D1124982F977041E02A
:1035200001C0440F9A95EAF786958695869595E0B1
:10353000899FF0011124E051FC4F90E080E070E0A1
:103540005191DF0111979B01082E02C036952795F6
:103550000A94E2F7217021952527242325272C930F
:1035600001968530910561F7089521E1929F800DC4
:103570001124982F977086958695869525E0829FD1
:10358000F0011124E051FC4F50E040E080E0219137
:1035900030E0092E02C0369527950A94E2F7217093
:1035A0003327042E01C0220F0A94EAF7822B4F5FC3
:1035B0005F4F4530510559F70895BF92CF92DF9282
:1035C000EF92FF920F931F93CF93DF938C01C090E4
:1035D0003104D0903204E0903304F09034048091B0
:1035E000350490913604A0913704B0913804C82A6C
:1035F000D92AEA2AFB2ACFE1D0E0BC2ED701C601A6
:103600000C2E04C0B695A795979587950A94D2F786
:1036100080FD0EC0219788F7B12C8B2DDF91CF91C3
:103620001F910F91FF90EF90DF90CF90BF90089582
:10363000B8018C2F0E94F003019761F3EECFCF9376
:10364000DF93EC010E94DD1ABE01DF91CF910C9453
:10365000F0031F93CF93DF93EB019091B70399236E
:1036600031F0CB01DF91CF911F910C941F1B882368
:1036700079F0CB010E94DD1A182F682FCE010E942D
:10368000891ABE01812FDF91CF911F910C94F00315
:10369000CB010E94B51A182FF4CF682F8091170123
:1036A000909118010C94681D682F809117019091DA
:1036B00018010C94731D80911701909118010C94BE
:1036C0007E1D809139048595859585950895809115
:1036D00039048770089590913904977081E009F456
:1036E00080E0089580915D04089590915D04892B98
:1036F00080935D040895809590915D049823909344
:103700005D04089510925D04089590915C04892BE6
:1037100080935C040895809590915C049823909325
:103720005C04089510925C04089590915B04892BC9
:1037300080935B040895809590915B049823909307
:103740005B04089510925B04089580913A040895F3
:1037500008950C94A81B90913A04981721F0809337
:103760003A040C94A91B089580913A04882329F007
:1037700010923A0480E00C94A91B0895E09117017F
:10378000F091180180915D048083E0911701F09120
:103790001801808190915C04892B8083E09117014E
:1037A000F0911801808190915B04892B8083909126
:1037B0003A04992381F0E0911701F091180180817A
:1037C000892B808380911701909118010E94D41C4D
:1037D00081110E94B41B80911701909118010C94E3
:1037E000FB1008950C94F11B98E0899F900111241F
:1037F000622B609339040E94ED19809139048595FC
:10380000859585950C94F21B1092390480E00C94F8
:10381000F21B909139048095892380933904282FD5
:10382000277071F4282F082E000C330B9217130603
:1038300039F08595859585950E940E1A0C94041C87
:10384000089580E008956FEF7FEF90E080E00C94A2
:103850001F2690E080E00E94FB2521E08B3E9E4FDA
:1038600009F020E0822F089582E090E00C94ED258D
:1038700083E090E00C94ED25CF9384E090E00E94EB
:10388000ED25C82F81E290E00E94ED25982F8C2F26
:10389000CF910895CF93C92F682F84E090E00E94C4
:1038A00001266C2F81E290E0CF910C940126AB01B0
:1038B000BC018FE090E00C941326AB01BC0183E1C6
:1038C00090E00C94132660E070E0CB010C945D1C3A
:1038D00060E070E0CB010E94571C0C94631C6BEEFF
:1038E0007EEF90E080E00E941F2660E082E090E0A2
:1038F0000E94012660E083E090E00E940126109281
:10390000350410923604109237041092380460E0A7
:1039100084E090E00E94012660E081E290E00E9455
:10392000012660E085E090E00E94012660E086E0EC
:1039300090E00E9401266FEF87E090E00E94012650
:1039400040E050E0BA0188E090E00E94132660E079
:103950008DE090E00E94012640E050E0BA0188E14D
:1039600090E00E94132660E087E190E00E9401262B
:1039700040E050E0BA018CE190E00E94132660E044
:1039800080E290E00E94012640E050E0BA0188E128
:1039900090E00E9413260C94681C0C946F1C682FF6
:1039A0008EE090E00C940126FC0132968091230178
:1039B000882321F08091C0059EE187FF96E080E09A
:1039C000915008F4089521912223D1F38F5FF8CF0D
:1039D000662301F1209123012223F1F02091C005FB
:1039E00027FF1AC0462F4695469546954E3190F4CE
:1039F000677021E030E002C0220F331F6A95E2F7C2
:103A0000840F911DFC01828190E02823392381E0FD
:103A1000232B69F480E00895FC01329608962191E9
:103A2000261721F0E817F907D1F7F4CF81E00895C0
:103A30009C01FC0132969FEF80E04191461751F0C6
:103A40009F3F19F4411101C0982F8F5F8630A9F76D
:103A50009F3F09F40895290F311D97FD3A95F9010B
:103A600062830895FC01329608962191261303C0C3
:103A7000DF0111971C92E817F907B9F70895E62FAF
:103A8000E695E695E695EE3168F4E80FF92FF11D1D
:103A9000677021E030E001C0220F6A95EAF7828169
:103AA000822B82830895E62FE695E695E695EE3122
:103AB00070F4E80FF92FF11D677021E030E001C0CC
:103AC000220F6A95EAF720958281282322830895A0
:103AD00020912301222329F02091C00527FD0C9479
:103AE0003F1D0C94181D20912301222329F02091C1
:103AF000C00527FD0C94531D0C94321DFC01329619
:103B000080912301882351F08091C00587FF06C072
:103B10008EE1DF011D928A95E9F7089586E0F9CFDD
:103B200008950C94901D0E94F3150E94EF100E94BE
:103B3000C8030C94911D1F921FB61F9211248F93DE
:103B40009F93AF93BF9380915F04811113C08091C5
:103B5000BC059091BD05A091BE05B091BF054196F1
:103B6000A11DB11D8093BC059093BD05A093BE051A
:103B7000B093BF05BF91AF919F918F911F901FBED2
:103B80001F90189582E084BD93E095BD9AEF97BD94
:103B900080936E0008952FB7F8948091BC059091A2
:103BA000BD05A091BE05B091BF052FBF08952FB7E9
:103BB000F8946091BC057091BD058091BE0590910F
:103BC000BF052FBF08959C014FB7F8948091BC05A5
:103BD0009091BD05A091BE05B091BF054FBF821B5E
:103BE000930B089578941F921FB61F9211248F9300
:103BF0009F93AF93BF938091BC059091BD05A09119
:103C0000BE05B091BF050196A11DB11D8093BC05F5
:103C10009093BD05A093BE05B093BF05BF91AF9132
:103C20009F918F911F901FBE1F90189581E08093E8
:103C3000E00080E28093D8001092C9008FE19EE4FA
:103C40000197F1F700C0000087E090EBDC01809362
:103C5000CF059093D005A093D105B093D20588E10C
:103C60009CE00FB6F894A895809360000FBE9093E7
:103C70006000FFCF9093C9018093C80108950C9410
:103C8000231C0E9440068FE39CE90197F1F700C0D6
:103C900000000E94400680E00E94DC0560FF04C036
:103CA0000E943F1E0C94161E08950E94291C81112B
:103CB00002C00E94CD1C0E94341C80935E040E94AE
:103CC0003C1C9093C1058093C0050E94381C682F4E
:103CD00070E090E080E00E948B1960913104709157
:103CE000320480913304909134040C94C51980916E
:103CF000800408950895CF93DF9300D00F92CDB73D
:103D0000DEB79091C605943019F589837B836A8369
:103D100082E08093E9008FEF9091E800815095FD5B
:103D200006C095ED9A95F1F700008111F5CF8091CD
:103D3000E80085FF0DC050E040E063E070E0CE0198
:103D400001960E9458208091E8008E778093E800C9
:103D50000F900F900F90DF91CF910895BC0184E0F8
:103D60000C947B1EBC0183E00C947B1ECF93DF93ED
:103D7000EC01809123018823B1F18091C00587FF78
:103D800032C060E282E08093E9008FEF9091E8001A
:103D9000815095FD06C095ED9A95F1F700008111CF
:103DA000F5CF8091E80085FF1BC08091230170E072
:103DB00050E040E0811104C050E040E068E070E075
:103DC000CE010E9458208091E8008E778093E80011
:103DD00080E2FE01A0E6B4E001900D928A95E1F741
:103DE000DF91CF91089568E081E0CDCF8091C50546
:103DF000811109C00E94E8210E9445228091E200C1
:103E000084608093E20008951092C5050895089596
:103E100008950C94931D42E061EC81E00E946421BE
:103E200042E261EC82E00C9464218091C805833009
:103E300009F45FC030F48130C1F1823009F49BC0D5
:103E400008958A3009F487C08B3009F46DC0893039
:103E500009F04EC08091C705813209F049C08091B8
:103E6000CB059091CC05029708F042C08091E80004
:103E7000877F8093E8008091E80082FF35C09091B1
:103E8000F3008091F200029729F48091F1008B7F7A
:103E9000813021F48091F100809380048091E800CA
:103EA0008B778093E8000C9498218091C705813A24
:103EB000F9F48091E800877F8093E8008091CB053A
:103EC0009091CC05892B61F460E280E694E070E08B
:103ED0000E94A7208091E8008B778093E8000895E6
:103EE00060E090E080E0F3CF8091C6058111C3CF00
:103EF00008958091C705813AD9F78091CB059091BB
:103F0000CC05892BA9F78091E800877F8093E80092
:103F10008091E80080FFFCCF809123018093F10025
:103F20008091E8008E77BDCF8091C705813201F77F
:103F30008091CB059091CC05892BD1F68091E8003A
:103F4000877F8093E8000E9498218091C905809323
:103F500023010C94F3158091C705813249F68091B5
:103F6000E800877F8093E8000E9498218091CA052D
:103F70008093810408958091C705813A09F0B8CFF4
:103F80008091E800877F8093E8008091E80080FFBF
:103F9000FCCF80918104C2CF84B7877F84BF0FB6E6
:103FA000F894A895809160008861809360001092D9
:103FB00060000FBE80E890E00FB6F8948093610037
:103FC000909361000FBE0E9462110E94E8210E943E
:103FD00045228091E20084608093E20078940E9400
:103FE000CE240E94721189E191E00E94EA100E94A1
:103FF0007C110E9470110E947111F9CF0C94002065
:10400000292F33272330310519F168F42130310588
:1040100009F444C02230310509F445C090E080E045
:1040200030E020E025C02132310549F1223231054E
:10403000A9F780E490E024E535E061157105C1F051
:104040008DE690E027EE34E06130710589F0E6CF2F
:1040500099278130910581F0009729F00297F1F6B8
:10406000EEE5F4E002C0E6E9F4E0849190E09F011F
:10407000FA01318320830895EAE7F4E0F6CF89E07E
:1040800090E02CEA34E06115710591F389E090E04D
:1040900025EC34E06130710559F3C0CF82E190E046
:1040A00025ED34E0E5CF8BE390E02AE934E0E0CF82
:1040B000AF92BF92CF92DF92FF920F931F93CF9355
:1040C000DF936C01EB018A010E94B721F82E811168
:1040D00023C00115110539F0F80180819181C81BB9
:1040E000D90BC80ED91EB12CA12C2097A9F0809114
:1040F000E80085FD22C08091E8008E778093E8007B
:1041000001151105A1F0F80180819181A80EB91E59
:10411000B182A08285E0F82E8F2DDF91CF911F9183
:104120000F91FF90DF90CF90BF90AF9008950E94C5
:10413000B7218823D1F2F82EEFCFF60181916F01DC
:104140008093F1002197FFEFAF1ABF0ACECFFC0199
:104150008091CD059091CE0586179707A0F0611547
:10416000710529F49091E8009E779093E80090E023
:104170006115710551F4911108C08091E80082FF2A
:1041800034C080E00895BC01F2CF8091C605882339
:10419000C1F18530C1F18091E80083FD30C080918C
:1041A000E80082FDEACF8091E80080FFE1CF8091B6
:1041B000F3002091F200382F6115710519F02830B5
:1041C000310558F091E02830310509F090E0209158
:1041D000E8002E772093E800CBCF81918093F10007
:1041E000615071092F5F3F4FE7CF8091C60588234B
:1041F00041F0853041F08091E80083FFBECF81E03F
:10420000089582E0089583E00895FC018091CD0532
:104210009091CE0586179707A0F06115710529F4D6
:104220008091E8008E778093E80090E06115710539
:1042300051F4911108C08091E80082FF35C080E000
:104240000895BC01F2CF8091C6058823C9F185305D
:10425000C9F18091E80083FD31C08091E80082FDC2
:10426000EACF8091E80080FFE1CF8091F3002091B8
:10427000F200382F6115710519F02830310558F01A
:1042800091E02830310509F090E08091E8008E77C8
:104290008093E800CBCF84918093F10031966150F8
:1042A00071092F5F3F4FE6CF8091C605882341F00B
:1042B000853041F08091E80083FFBDCF81E0089513
:1042C00082E0089583E00895982F973028F08F704A
:1042D0008093E90081E008959093E900242F762FE0
:1042E00050E0981731F07091EC002091ED00509162
:1042F000F00021FD02C09F5FE8CF3091EB003E7FD0
:104300003093EB003091ED003D7F3093ED00309124
:10431000EB0031603093EB007093EC002093ED00E4
:104320005093F0002091EE0027FDE5CF80E0089546
:104330008091C70587FF13C08091E80082FF06C007
:104340008091E8008B778093E80004C08091C605D7
:104350008111F2CF08958091C6058823D9F3809109
:10436000E80080FFF8CF8091E8008E77ECCF2091B5
:10437000E4003091E50095E6A9012091EC00822F40
:10438000817020FF06C08091E80080FF06C080E0B9
:1043900008952091E80022FD1AC08091C605882367
:1043A00089F0853089F08091EB0085FD0FC0209168
:1043B000E4003091E50042175307F9F29150E1F61D
:1043C00084E0089582E0089583E0089581E00895EF
:1043D0000E9456220E945E22E0EEF0E08081816021
:1043E0008083E8EDF0E080818F77808319BCA7EDB2
:1043F000B0E08C918E7F8C9380818F7E8083109231
:10440000C50508950F931F93CF93DF930E94562203
:104410000E945E22C8EDD0E088818F7788838881F2
:104420008068888388818F7D888319BC1092C60537
:104430001092C2051092C4051092C30500EE10E060
:10444000F80180818B7F808388818160888342E04E
:1044500060E080E00E946421E1EEF0E080818E7FE8
:104460008083E2EEF0E080818160808380818860DB
:104470008083F80180818E7F80838881806188833A
:10448000DF91CF911F910F910895E8EDF0E08081C9
:104490008F7E8083E7EDF0E080818160808384E01F
:1044A00082BF81E08093C5050C940222E8EDF0E024
:1044B00080818E7F80831092E20008951092DA004E
:1044C0001092E10008951F920F920FB60F921124DF
:1044D0002F933F934F935F936F937F938F939F930C
:1044E000AF93BF93EF93FF938091E10082FF0BC0E6
:1044F0008091E20082FF07C08091E1008B7F809372
:10450000E1000E94CD248091DA0080FF19C08091E3
:10451000D80080FF15C08091DA008E7F8093DA008A
:104520008091D90080FF96C080E189BD82E189BD7C
:1045300009B400FEFDCF81E08093C6050E94F61EFF
:104540008091E10080FF19C08091E20080FF15C0DA
:104550008091E2008E7F8093E2008091E200806192
:104560008093E2008091D80080628093D80019BCCB
:1045700085E08093C6050E94081F8091E10084FFBA
:104580002BC08091E20084FF27C080E189BD82E1D9
:1045900089BD89B5982F917080FFFBCF8091D8009D
:1045A0008F7D8093D8008091E1008F7E8093E10021
:1045B0008091E2008F7E8093E2008091E200816032
:1045C0008093E2008091C205882309F449C084E009
:1045D0008093C6050E94091F8091E10083FF29C0D6
:1045E0008091E20083FF25C08091E100877F809366
:1045F000E10082E08093C6051092C2058091E1003F
:104600008E7F8093E1008091E2008E7F8093E200B4
:104610008091E20080618093E20042E060E080E00F
:104620000E9464218091F00088608093F0000E94D5
:10463000071FFF91EF91BF91AF919F918F917F9154
:104640006F915F914F913F912F910F900FBE0F90FF
:104650001F90189519BC1092C6050E94041F70CFB8
:104660008091E30087FD93E09093C605B3CF1F923E
:104670000F920FB60F9211242F933F934F935F9396
:104680006F937F938F939F93AF93BF93CF93DF935A
:10469000EF93FF93D091E900DF708091EC00C82F79
:1046A000C17080FDC0E81092E9008091F000877F22
:1046B0008093F00078940E947B231092E90080910F
:1046C000F00088608093F000CD2BCF70C093E9009C
:1046D000FF91EF91DF91CF91BF91AF919F918F911A
:1046E0007F916F915F914F913F912F910F900FBEEE
:1046F0000F901F9018951F93CF93DF93CDB7DEB720
:10470000AA970FB6F894DEBF0FBECDBF87EC95E039
:104710002091F100FC012193CF01F5E08F3C9F0730
:10472000B9F70E94151F8091E80083FF1EC1809198
:10473000C7059091C8059A3008F017C1E92FF0E03D
:10474000E857F94D0C944D25803899F0823809F0DE
:104750000CC18091CB058F70873008F006C1809323
:10476000E9008091EB0085FB882780F91092E90031
:1047700006C08091C3059091C4059111826090910B
:10478000E800977F9093E8008093F1001092F10089
:104790008091E8008E77E5C0882309F4D3C0823089
:1047A00009F0E3C08091C9058111D6C08091CB0585
:1047B0008F702FEF280F263008F0D7C08093E900C4
:1047C0002091EB0020FFC8C0933031F48091EB00C2
:1047D00080628093EB00C0C09091EB009061909359
:1047E000EB0021E030E001C0220F8A95EAF7209328
:1047F000EA001092EA008091EB008860EACF811114
:10480000B4C01091C9051F778091E3008078812B97
:104810008093E3008091E800877F8093E8000E9406
:1048200098218091E80080FFFCCF8091E3008068B0
:104830008093E30082E0111183E08093C60595C068
:104840008058823008F091C08091C9059091CA05C6
:104850008C3D23E09207A1F583E08A838AE2898375
:104860004FB7F894DE01139620E03EE051E2E32FCB
:10487000F0E050935700E49120FF03C0E295EF7001
:104880003F5FEF708E2F90E0EA30C0F0C7968D93B7
:104890009D932F5F243159F74FBF8091E800877FA8
:1048A0008093E8006AE270E0CE0101960E94A720A2
:1048B0008091E8008B778093E80057C0C096E7CFDF
:1048C0006091CB057091CC05AE014F5F5F4F0E94A8
:1048D000FE1FBC01892B09F448C09091E800977F26
:1048E0009093E80089819A810E940521E1CF803868
:1048F000E1F58091E800877F8093E8008091C20510
:104900008093F10045CF811130C09091C90592305C
:1049100060F58091E800877F8093E8009093C2055E
:104920000E9498218091C205882311F084E005C07F
:104930008091E30087FDFACF81E08093C6050E9455
:104940000B1F13C08091C905813079F481E0933049
:1049500009F080E08093C4051092E9008091E8009E
:10496000877F8093E8000E9498218091E80083FF70
:104970000AC08091E800877F8093E8008091EB0077
:1049800080628093EB00AA960FB6F894DEBF0FBE4C
:10499000CDBFDF91CF911F9108950895CF9380915E
:1049A000C6058823A1F0C091E900CF709091EC007A
:1049B000892F817090FD80E8C82B1092E9008091CA
:1049C000E80083FD0E947B23CF70C093E900CF9164
:1049D0000895991B79E004C0991F961708F0961B5B
:1049E000881F7A95C9F78095089587FB082E0626BB
:1049F00087FD819567FD61950E94E9240EF49195EC
:104A000007FC81950895AA1BBB1B51E107C0AA1F93
:104A1000BB1FA617B70710F0A61BB70B881F991F5F
:104A20005A95A9F780959095BC01CD01089597FB03
:104A3000072E16F4009407D077FD09D00E940325B5
:104A400007FC05D03EF4909581959F4F0895709591
:104A500061957F4F0895A1E21A2EAA1BBB1BFD0191
:104A60000DC0AA1FBB1FEE1FFF1FA217B307E4074D
:104A7000F50720F0A21BB30BE40BF50B661F771FA5
:104A8000881F991F1A9469F7609570958095909585
:104A90009B01AC01BD01CF010895EE0FFF1F0590F2
:104AA000F491E02D09940E945B25332312F48A1BB4
:104AB0009B0B0C946C25A29FB001B39FC001A39FD8
:104AC000700D811D1124911DB29F700D811D112447
:104AD000911D08950E945B25B7FF0895821B930BDB
:104AE00008950E945B25A59F900DB49F900DA49FF3
:104AF000800D911D11240895B7FF0C9471250E941B
:104B00007125821B930B08958F929F92AF92BF9253
:104B1000CF92DF92EF92FF92CF93DF93EC01688107
:104B200079818A819B81611571058105910521F447
:104B300064E279ED8BE597E02DE133EF41E050E061
:104B40000E94352649015A019B01AC01A7EAB1E454
:104B50000E9471256B017C01ACEEB4EFA5019401BC
:104B60000E947F25DC01CB018C0D9D1DAE1DBF1D5C
:104B7000B7FF03C00197A109B04888839983AA832E
:104B8000BB839F77DF91CF91FF90EF90DF90CF9025
:104B9000BF90AF909F908F9008950E9484250895B4
:104BA00080E091E00E9484250895B0E0A0E0809329
:104BB000000190930101A0930201B09303010895B5
:104BC000FC014150504030F001900616D1F731976A
:104BD000CF010895882799270895F999FECF92BDAE
:104BE00081BDF89A992780B50895A6E1B0E044E028
:104BF00050E00C942726A8E1B0E042E050E00C948D
:104C00002726262FF999FECF92BD81BDF89A0197EC
:104C100000B4021639F01FBA20BD0FB6F894FA9A04
:104C2000F99A0FBE08950396272F0E9402260E942C
:104C30000126252F0E940226242F0C94022601967D
:104C4000272F0E9402260C940126DC01CB01FC01D7
:104C5000F999FECF06C0F2BDE1BDF89A319600B4D5
:104C60000D9241505040B8F70895052E97FB1EF461
:104C700000940E944C2657FD07D00E942B2507FC6C
:104C800003D04EF40C944C265095409530952195C8
:104C90003F4F4F4F5F4F0895909580957095619568
:104CA0007F4F8F4F9F4F0895F894FFCF590E610E9D
:104CB000680E6D0E720E770E7C0E810E860E8B0EB8
:104CC000900E950E990E9E0EA10EA40EA70EAA0E82
:104CD000AC0EAF0ECB13CB13231423147514F8139F
:104CE000F813F81391141D152C152C158815F813AD
:104CF000F8139115021602160B160B160D160B164D
:104D00000B160B160216021612160B160B1612169F
:104D1000A423CC23B524CC23B524FF232024B524FD
:044D2000772483244D
:104D240001000000010102005700575701191A1B26
:104D34001C1D1E1F2021223B04771EB61E7A1EB2A4
:104D44001EAE1E01E200E900EA00B500B600B7009D
:104D5400CD008301CC008A01920194012102230237
:104D640024022502260227022A02B300B4006F009F
:104D7400700081828330313233F4F5F6F73635979B
:104D84003496F0916694939237F16795000102028C
:104D940002020606060909090909090F0F0F0F0F78
:104DA4000F1515151819191919191919191919237C
:104DB40024252525252525E200E900EA00B500B6CD
:104DC40000B700CD008301CC008A01920194012137
:104DD40002230224022502260227022A02B300B477
:084DE400006F00700081828362
:00000001FF
