:100000000C94C9020C9410030C9410030C9410036C
:100010000C9410030C9410030C9410030C94100314
:100020000C9410030C9410030C9462220C9436234D
:100030000C949A1D0C9410030C9410030C94100350
:100040000C9410030C9410030C9410030C941003E4
:100050000C9410030C94F11D0C9410030C941003D9
:100060000C9410030C9410030C9410030C941003C4
:100070000C9410030C9410030C9410030C941003B4
:100080000C9410030C9410030C9410030C941003A4
:100090000C9410030C9410030C9410030C94100394
:1000A0000C9410030C9410030C941003290000000E
:1000B0003A003B003C003D003E003F004000410054
:1000C0004200430044004500460047004800350018
:1000D0001E001F0020002100220023002400250014
:1000E000260027002D002E002A0049004A004B0060
:1000F0002B0014001A000800150017001C0018003F
:100100000C00120013002F00300028004C004D009E
:100110004E00390004001600070009000A000B0019
:100120000D000E000F00330034003200000000000C
:1001300000000000E10064001D001B000600190023
:10014000050011001000360037003800E5000000FF
:10015000000052000000E000E300E20000000000A8
:100160002C00000000000000E6006500E4000151E2
:100170005000000051004F00005C00000100010031
:100180000100010001000100010001000100010067
:1001900001000100CE5CCF5CD05C010001000100D9
:1001A0000100010001000100010001000100010047
:1001B000010001000100C65CC85CCA5C01000100CE
:1001C0000100010001000100010001000100010027
:1001D0000100010001000100C75CC95CCB5C0100AB
:1001E0000100010001000100010001000100010007
:1001F00001000100010001000000000000000000FB
:100200000100010001000100010001000100145C77
:1002100001000100010001000100000000000100D8
:1002200000000100010001000000000001000000CA
:10023000000000000100010001000100C55C000099
:10024000C35CC45C1E0F0500047F3F1F643214644E
:100250003214783C1E1E140A052223252628292A3A
:100260002C2D2F3032333536383A3B3D3E40424319
:100270004547494A4C4E5051535557595A5C5E6058
:1002800062646668696B6D6F71737577797B7D7F6A
:1002900081838587898A8C8E90929496989A9C9E69
:1002A0009FA1A3A5A7A8AAACAEAFB1B3B4B6B8B985
:1002B000BBBCBEBFC1C2C3C5C6C7C9CACBCCCDCEED
:1002C000D0D1D2D2D3D4D5D6D7D7D8D9D9DADADBD0
:1002D000DBDBDCDCDCDCDCDDDDDDDDDCDCDCDCDC5C
:1002E000DBDBDBDADAD9D9D8D7D7D6D5D4D3D2D29B
:1002F000D1D0CECDCCCBCAC9C7C6C5C3C2C1BFBE83
:10030000BCBBB9B8B6B4B3B1AFAEACAAA8A7A5A3ED
:10031000A19F9E9C9A98969492908E8C8A898785AC
:1003200083817F7D7B79777573716F6D6B6968668B
:100330006462605E5C5A5957555351504E4C4A495D
:1003400047454342403E3D3B3A3836353332302F05
:100350002D2C2A292826252322FFAA7F554000017B
:100360000101010101010101020202020202020275
:100370000203030303030303030404040404040447
:10038000050505050506060606060707070707080B
:10039000080808090909090A0A0A0B0B0B0C0C0CBE
:1003A0000D0D0D0E0E0E0F0F0F1010111111121258
:1003B00013131414151516161717181819191A1AD5
:1003C0001B1B1C1D1D1E1E1F202021222223242436
:1003D000252626272829292A2B2C2D2D2E2F303172
:1003E0003232333435363738393A3B3C3D3E3F4084
:1003F0004142434445464748494A4C4D4E4F50516F
:100400005354555658595A5B5D5E5F616264656628
:1004100068696B6C6D6F7072737577787A7B7D7EAF
:100420008082838587888A8C8E8F91939596989AFF
:100430009C9EA0A2A3A5A7A9ABADAFB1B3B5B7BA17
:10044000BCBEC0C2C4C6C9CBCDCFD1D4D6D8DBDDEB
:10045000DFE2E4E7E9EBEEF0F3F5F8FAFDFF18036D
:1004600043005500380030002000760032002000A4
:10047000490053004F0000001A0343006100700060
:10048000730055006E006C006F0063006B00650028
:10049000640000000403090409023B00020100A0FB
:1004A000FA09040000010301010009211101000102
:1004B0002240000705810308000A09040100010326
:1004C000000000092111010001226D0007058203CF
:1004D00020000A12011001000000085543800001AD
:1004E000000102000105010980A101850319012A0B
:1004F000B700150126B700950175108100C0050CE5
:100500000901A101850419012AA002150126A002F2
:10051000950175108100C005010906A10185050539
:100520000719E029E71500250195087501810205E5
:1005300007190029EF1500250195F07501810205C5
:100540000819012905950575019102950175039119
:1005500001C005010906A101050719E029E71500F9
:10056000250195087501810295017508810105072E
:10057000190029FF150026FF009506750881000562
:1005800008190129059505750191029501750391D9
:1005900001C011241FBECFEFDAE0DEBFCDBF04B62D
:1005A00003FE27C08091D7059091D805A091D90569
:1005B000B091DA058730904BA740B04BD1F4109240
:1005C000D7051092D8051092D9051092DA0514BEFD
:1005D00084B7877F84BF0FB6F894A8958091600098
:1005E000886180936000109260000FBEE0E0F8E345
:1005F000099511E0A0E0B1E0E2E2FDE402C005905F
:100600000D92A83CB107D9F725E0A8ECB1E001C0F4
:100610001D92A73DB207E1F70E94CB1F0C94532611
:100620000C94000081E0089581E008950C94140377
:1006300008950C9418031F93CF93DF9300D000D03C
:100640000F92CDB7DEB749835A836B833091BC03D9
:1006500089819A8131111DC06623B9F02223A9F046
:100660000E94DC1A182F682F89819A810E94881AAB
:1006700069817A81812F0F900F900F900F900F90CA
:10068000DF91CF911F910C94D3030E94B41A182FBD
:10069000EFCF0E94DC1A69817A81EDCFFC01262F11
:1006A000408151816281738184810C941B03CF93BB
:1006B000DF93EC0160E00E944E03BE01DF91CF9119
:1006C0000C9419030E94401E0E94281C811102C034
:1006D0000E94CC1C0C94D6050C94D90508950E9458
:1006E000F2150E946E032FEF84E39CE021508040BE
:1006F0009040E1F700C000000C94151E0F931F936B
:10070000CF93DF93EC0161E00E944E038C01BE01A8
:100710000E941603882359F1BE01C8010E944A0FA6
:10072000882329F1BE01C8010E949C0F8823F9F09B
:10073000BE01C8010E94BF108823C9F0BE01C801D4
:100740000E94420E882399F08A81882339F001158E
:100750008CE5180751F00F3D1C4579F0CE01DF9173
:10076000CF911F910F910C9412030E946F0380E0B0
:10077000DF91CF911F910F9108950E94CC1CF7CF6C
:1007800008950C94C00381E008950C94C303CF93A3
:10079000C82F0E94C1038C2FCF910C94C50390E009
:1007A00080E008950895972F70E021E1929F600DF9
:1007B000711D1124FB0196E6899FE00DF11D1124A6
:1007C000EE0FFF1FE455FF4F859194910895FC01B2
:1007D000EE0FFF1FEC5BFD4F859194910895CF9331
:1007E000DF930E94D3030E94FB04EC01811520E5F6
:1007F000920708F041C0811530E4930708F0B4C0B7
:10080000803E910518F5803C910508F09DC0883A1E
:10081000910570F4853A910508F08EC081309105FC
:10082000F9F00097E9F00497D8F4D0E0C0E018C0E0
:100830008F3B9105D0F7C85AD0E0CC0FDD1FCC5DBF
:10084000DE4F0990D881C02DD4640AC08115904232
:1008500058F4C11581E0D80718F4C83ED10528F72F
:10086000CE01DF91CF910895C11590E3D90708F02B
:1008700071C0CE019F706AC0811525E5920758F5B9
:10088000811534E5930708F09EC0811542E5940771
:1008900050F4C11581E5D80708F469C0DC2FCC27D6
:1008A000C16FD06ADDCF982F969596959E012370E3
:1008B0003327C115D34508F077C0C1E0D0E002C0AE
:1008C000CC0FDD1F2A95E2F720E2929FC001112490
:1008D000C82BD92B67C0C11589E5D807A8F4C11565
:1008E00098E5D90708F074C0C11526E5D20708F0CD
:1008F0009CCF8C2F0E949205C82FD0E0DC2FCC27F4
:10090000CC27DF71D062ACCFC1153AE5D30708F42C
:1009100064C0CE0190568115904208F086CF8D2F8D
:100920008F710E94920590E0982F882788279F71E9
:100930009C012C2BE901E6CFC55AD0E0CE5ADE4F00
:10094000C881D0E0D0648CCF805C91090E94E7031D
:10095000EC0186CFCE019927D3FF03C0EC01D86C00
:100960007FCFEC01D06C7CCFDF70D06A79CFCE0125
:10097000E4E096958795EA95E1F783702C2F26950C
:100980002695237090E2299F90011124382B8C2FFB
:100990008370C1E0D0E002C0CC0FDD1F8A95E2F782
:1009A000C22BD32BDC685CCFC1E0D0E002C0CC0FFF
:1009B000DD1F2A95E2F730E2939FC0011124C82B76
:1009C000D92BDA684DCFD82FCC27C46FD06A48CF47
:1009D000DC2FCC27C06FD06A43CF8C2F8F700E9442
:1009E000920534E0D695C7953A95E1F7CF709C2FE4
:1009F000EC01D06935CF82389105B1F1B0F4813383
:100A0000910509F475C048F48932910509F469C06B
:100A10008A32910509F473C008958533910509F46C
:100A200059C08933910501F10895833E9105A9F1DB
:100A300038F4803E9105F9F0823E910549F1089520
:100A4000863E9105A9F1873E9105C9F1843E910545
:100A500019F52091C90521FF1FC08091C80584FDAB
:100A600014C087EE90E008952091C8052370A1F08E
:100A700080EE90E008952091C80520FD47C0309198
:100A8000C90530FF09C024FF44C090E080E004C0E5
:100A90002091C80522FDF7CF08952091C80522FDB9
:100AA0003BC03091C90530FDE3CF24FFF5CFEDCF3A
:100AB0002091C80523FFF0CF24FDE7CFD2CF2091AE
:100AC000C80523FD2CC03091C90531FFEECF84EE5F
:100AD00090E008952091C80525FFDECF89E290E0DF
:100AE00008952091C80525FFD7CF85E390E00895AC
:100AF0002091C80526FFD0CF8AE290E0089520918A
:100B0000C80526FFC9CF81E390E0089589E390E00E
:100B1000089583EE90E0089582EE90E0089586EEC9
:100B200090E008959091C80592FF06C0282F287183
:100B30002830F9F4877F846093FF06C0282F28713E
:100B40002831F1F4877E84612091C90520FF06C019
:100B5000382F38713830D9F4877F816021FF06C083
:100B6000282F28712831D1F4877E816194FD877EFA
:100B70000895282F24712430F9F68B7F8860DCCF0C
:100B8000282F2471243101F78B7E8861DDCF382F27
:100B90003171313019F78E7F8860E0CF282F2171B5
:100BA000213121F78E7E8861E1CF08950C94D5051F
:100BB00008950C94D80594E0899FF0011124E15622
:100BC000FB4F60817181828193810895089580EA4D
:100BD0008A95F1F7089500C008950C94E705F894FC
:100BE000E82FE295EF70F0E031A1282F2F7081E01F
:100BF00090E001C0880F2A95EAF7982F90959323EB
:100C000091A392A1892B82A3789408950F931F93A7
:100C1000CF93DF9383E90E94EF0582E90E94EF05FD
:100C200087E30E94EF0581EF0E94EF0587E60E94AF
:100C3000EF0585E90E94EF05C5E5D1E006E611E084
:100C400089910E94EF050C171D07D1F7E7E8F4E042
:100C5000AFE9B4E011921192119211921D921D927E
:100C60001D921D9284E0EF39F807A1F786E00E94FB
:100C7000E206DF91CF911F910F910C9462034F9286
:100C80005F926F927F928F929F92AF92BF92CF921C
:100C9000DF92EF92FF920F931F93CF93DF9336E68D
:100CA000A32E31E0B32E07E814E0D0E0C0E08824A2
:100CB0008394912CF50181915F01F894E82FE295DE
:100CC000EF70F0E021A18F70240102C0440C551C8C
:100CD0008A95E2F7C201922F982B91A392A1809559
:100CE000892382A378940E94EB05A5E5B1E090E00A
:100CF00080E0C12CD12C76014D91E42FE295EF706C
:100D0000F0E020A130E04F7002C0359527954A955C
:100D1000E2F720FD51C0412C512C32014394082EA2
:100D200004C0440C551C661C771C0A94D2F7B3010E
:100D3000A201C42AD52AE62AF72A01968131910513
:100D4000D9F6F501319780810E94EF05D53011F079
:100D50000E94ED05F80180819181A281B381C816BE
:100D6000D906EA06FB0661F1C082D182E282F382F3
:100D700081E0C82BDF5F0C5F1F4FD63009F09ACFA0
:100D80002C2F46E06FE974E087E894E00E94E306C8
:100D90000E946C038C2FDF91CF911F910F91FF90D8
:100DA000EF90DF90CF90BF90AF909F908F907F900B
:100DB0006F905F904F90089540E050E0BA01B9CF36
:100DC00080E0D7CF0895FF920F931F93CF93DF93C7
:100DD000F82ED92F8B01C42F222349F081E0809374
:100DE000CC010E94CA1D9093CB018093CA018091CF
:100DF000CC01882399F08091CA019091CB010E9487
:100E0000E21D069758F0EF2DFD2FD80190E080E00D
:100E1000D0E08C179D0744F01092CC01DF91CF9168
:100E20001F910F91FF90089501911191219131919E
:100E30000D931D932D933D930196EBCFEF92FF926F
:100E40000F931F93CF93DF93EB01E82FD11110C0C5
:100E5000442321F0F0E0E25AFC4FE4916E2F7E2F04
:100E60008E2FDF91CF911F910F91FF90EF900895FA
:100E70000D2F10E0282F30E0442329F0225A3C4F58
:100E8000F901249130E0F6E0CF9FC0011124EFEF8B
:100E9000F0E0BF010E940225AB018C2F90E0880F8B
:100EA000991FA5E5A49FB001A59F700D1124861B75
:100EB000970B982F990F980FBF01601B710B629FC2
:100EC000D001639FB00D729FB00D11248B2F9D9F99
:100ED000B0011124672F7727EF01C61BD70BBE0186
:100EE000629FE001639FD00D729FD00D11247F019E
:100EF000E91AF108E09EB001E19E700DF09E700DC0
:100F00001124672F7727E61BF70BE29F8001E39FF1
:100F1000100DF29F100D1124E12F722F4230510558
:100F200099F048F44115510569F04130510581F0BF
:100F3000EB2F8D2F07C04430510569F080F046300B
:100F40005105B1F76E2F8DCFE22F7B2F812FFACF76
:100F5000E22F7D2FF7CFEB2F822F712FF3CF7B2F37
:100F6000822FED2FEFCF41E00C941E0708950C94D3
:100F7000B307CF93DF93762FE901682F842F0E9468
:100F8000B707798368838A83DF91CF9108954333CC
:100F900008F042E30C94B9078091B704982F9E7F24
:100FA00061F4817082608093B7048091BA048333C6
:100FB00018F082E38093BA0408958635B0F3817007
:100FC0008465F1CF88E090E00C94F425CF92DF9215
:100FD000EF92FF926B017C010E94CC07B701A60142
:100FE00088E090E0FF90EF90DF90CF900C94122675
:100FF000E7EBF4E083E0808311828FEF828382E36A
:101000008383148260817181828193810C94E607CD
:101010008091B70480FF02C08695089580E008950E
:101020009091BB04933018F49F5F9093BB04882386
:1010300051F06091B7047091B8048091B904909117
:10104000BA040C94E607089581E00C94100890917E
:10105000BB04992319F091509093BB04882351F05D
:101060006091B7047091B8048091B9049091BA046A
:101070000C94E607089581E00C94270870E00C9426
:10108000B20E609108018091B70480FF0AC0809180
:10109000070123E0829FC001112484549B4F0C94CC
:1010A0003E088091090190910A0123E0829FF0019E
:1010B0001124E454FB4F891750F7118210821282D9
:1010C0008F5F3396F8CF9091B70490FF14C0909142
:1010D000090120910A0133E0939FF0011124E454A7
:1010E000FB4F921710F00C94410881836083428378
:1010F0009F5F3396F6CF0895CF93DF9300D00F9282
:10110000CDB7DEB79091B70490FF0AC09E012F5F64
:101110003F4F0E94C7074B8169818A810E94630803
:101120000F900F900F90DF91CF910895CF93DF93A1
:10113000EC01EC81F0E0E75AFD4F4491E7EBF4E07D
:10114000628181810E947C088C818F5F8C83DF911A
:10115000CF910895CF93DF93EC01E7EBF4E0438167
:1011600062818C810E947C088C818F5F8C83DF91EF
:10117000CF9108950F931F93CF93DF9300D00F92D9
:10118000CDB7DEB78C018091CD0181110AC09E01DF
:101190002F5F3F4F42E36FEF0E94C7078A81809322
:1011A000CD01F8016481613069F08091CD0140E0AA
:1011B000662361F040E0623011F44091CD0180E09F
:1011C00060E004C06091CD0140E080E00E946308CF
:1011D000F801848190E0019663E070E00E9416259A
:1011E00084830F900F900F90DF91CF911F910F91FB
:1011F0000895AF92BF92CF92DF92EF92FF920F933A
:101200001F93CF93DF9300D00F92CDB7DEB7182F87
:10121000F62E042FE22E9091B70490FF29C0E92FFB
:10122000E695AE2FB0E0A459BE4F8C9180938F030A
:101230009E7F923059F59E012F5F3F4F812F0E9474
:10124000C7074B8169818A810E9463081093B804A3
:10125000F092B9040093BA04EE2051F06091B70403
:101260007091B8048091B9049091BA040E94E60785
:101270000F900F900F90DF91CF911F910F91FF90E2
:10128000EF90DF90CF90BF90AF900895823019F427
:101290000091BA04DBCF863019F41091B804D6CF90
:1012A0008930D9F3893191F6E9518E2F8170D82E8A
:1012B000E695F0E0E75AFC4FA590B490C12CBB2412
:1012C00060910B01C61618F00E944108BFCF2C2D6B
:1012D00030E0A29EC001A39E900DB29E900D1124FD
:1012E00070E00E940225812FD11013C0860F40911B
:1012F0000901420F532F511D9A01220F331F240F52
:10130000351F24543B4F402F6F2D0E94C707C394B5
:10131000D7CF861BECCFE7EBF4E09181282F4381F8
:10132000628188E0890F0C94F90881E00C948B09A4
:10133000E7EBF4E09181282F4381628188EF890FE8
:101340000C94F90881E00C949809E7EBF4E06281D1
:1013500028E0620F08F46FEF282F438181810C94FD
:10136000F90881E00C94A509E7EBF4E0628128E03C
:10137000621B08F460E0282F438181810C94F908F6
:1013800081E00C94B409E7EBF4E0438128E0420FDC
:1013900008F44FEF282F628181810C94F90881E0D5
:1013A0000C94C309E7EBF4E0438128E0421B08F406
:1013B00040E0282F628181810C94F90881E00C942F
:1013C000D20920E00C94F908EF92FF921F93CF937B
:1013D000DF93EC0110E0EE24EA94F12C60910B0114
:1013E000161770F00E9441089A818C8190FF27C0E7
:1013F0008F5F8C83DF91CF911F91FF90EF900895C5
:1014000020910901422F410F5527551FCA019A010A
:10141000220F331F280F391F24543B4F70E0C701A0
:101420000E941625962F8C814091BA046091B904D0
:10143000199F800D11240E94C7071F5FCFCF8150D5
:10144000D8CFAF92BF92CF92DF92EF92FF920F93DD
:101450001F93CF93DF93FC0182810FEF80FF01E0A8
:1014600010E048E5A42E80910B011817C8F00E94E7
:1014700041088091CF01013009F055C0811102C0AF
:1014800080910B0181508093CF01DF91CF911F910B
:101490000F91FF90EF90DF90CF90BF90AF900895A5
:1014A000C0910901C12ED12CCC0DDD2DD11DCE0155
:1014B000880F991FC80FD91FC454DB4F1982188297
:1014C0001A8234E0E32EF12CB12C8091CF018B0DE8
:1014D00089351CF16A2D0E94F424892F082E000CF6
:1014E000990BC816D90691F48091BA048E9DA0017B
:1014F0008F9D500D112455954795559547959E0103
:101500006091B9048091B8040E94C707B00EF1E061
:10151000EF1AF108D1F61F5FA6CF87FFDFCF9091BA
:101520000B01890FDBCF90E0019660910B0170E019
:101530000E941625A8CF0F931F93CF93DF9380911E
:10154000090190910A0123E0829FF0011124E454E3
:10155000FB4F891740F1C0E0D3E060910B01C61743
:1015600040F10E944108209105018091CE01820F37
:101570008093CE0190910601920F90930601191667
:1015800054F4082E000C990B40910B014150550B5F
:10159000841795071CF0219520930501DF91CF91C9
:1015A0001F910F9108951182108212828F5F3396DE
:1015B000D0CF0C2F10E070E0C8010E9416252091BA
:1015C0000901820F482F50E02091CE01022E000C1D
:1015D000330B02171307BCF020910601022E000CFA
:1015E000330B201731077CF08D9F90011124245478
:1015F0003B4F4091BA046091B9048091B8040E94B5
:10160000C707CF5FAACFFA01EE0FFF1FE40FF51F48
:10161000E454FB4F118210821282F3CF8F929F927B
:10162000AF92BF92CF92DF92EF92FF920F931F93F0
:10163000CF93DF93EC014C81042F10E09801D80187
:101640000E945A259B01AC010E9470254B015C0150
:10165000E0E2F0E0E01BF10BA5E5B0E0AC019B019E
:101660000E9470256B017C019F01DF010E945225C1
:101670009B01AC010E947B259B01AC01280D391D0B
:101680004A1D5B1DC701B6010E942A25F22E822F3A
:1016900090E039E23F1560F143E0249F900111246E
:1016A00035952795122F109500E085E5E82EEF1867
:1016B00080910B01081758F10E9441089C8181E03C
:1016C000992319F0903219F48FEF809304018091DF
:1016D0000401890F8C83DF91CF911F910F91FF90AF
:1016E000EF90DF90CF90BF90AF909F908F90089534
:1016F00025E530E0B901681B790B9B01220F331FF0
:10170000260F371F37FFCCCF2F5F3F4FC9CF8E2D0E
:1017100001FD8F2D20910901622F600F7727771F20
:101720009B01220F331F260F371F24543B4F412F9D
:101730006091B9040E94C7070F5FBACF0F931F9340
:10174000CF93DF93EC0110E000E090910B01901734
:10175000110609F06CF40E9441088C8190E001961A
:10176000817099278C83DF91CF911F910F910895FC
:1017700020910901A801420F511D9A01220F331F28
:10178000240F351F24543B4F4C816091B904809144
:10179000B80496959017110651F04CF0442349F087
:1017A0004091BA040E94C7070F5F1F4FCECF44235A
:1017B000B9F340E0F7CF4F925F926F927F928F9292
:1017C0009F92AF92BF92CF92DF92EF92FF920F93D0
:1017D0001F93CF93DF93FC016280448081E0848378
:1017E000E9E5F2E07490E8EDF2E0E491812C75E037
:1017F000972EF2E0CF2EDD24D394AA24AA94B12C04
:1018000055245A94E7190E2F10E080910B01881689
:1018100090F0DF91CF911F910F91FF90EF90DF90AB
:10182000CF90BF90AF909F908F907F906F905F9080
:101830004F900C944108E82CF12C82E0861568F05A
:101840009E9CF0019F9CF00D1124E053FE4F80916F
:10185000B80480838091B9048183411023C09E9C89
:10186000F0019F9CF00D1124E053FE4F1382128271
:1018700020910901C701820F911D9C01220F331F86
:10188000280F391F24543B4F9E9CF0019F9CF00D64
:101890001124E053FE4F4281618180810E94C7077D
:1018A0008394B3CF9E9CE0019F9CD00D1124C05324
:1018B000DE4F8B818823E9F081508B83859DC001A9
:1018C00011246C8170E00E940225FB01FF27E75A7A
:1018D000FD4F8491E82FE719E59DC0011124B8015F
:1018E0000E9402258091BA04689FB00111247A8376
:1018F000BFCF0E94CF252091BA04269521582C9D58
:10190000A0012D9D500D1124452F552784179507B3
:101910000CF0AECF82E0861588F40E94CF25B50189
:101920000E94162588830E94CF252091B904269510
:10193000622F70E00E941625280F29839E9CF001DB
:101940009F9CF00D1124E053FE4F12828091BA0447
:10195000893C58F088EC9E9CF0019F9CF00D11246E
:10196000E053FE4F8483838383CF8431A0F784E1E7
:10197000F2CFE7EBF4E080818E7F8083608171811C
:10198000828193810E94E607109290032FEF80E7F7
:1019900092E0215080409040E1F700C000000C949C
:1019A00041086091B704669570E04BE050E08CE030
:1019B00091E00E94DF25892B19F481E08093900348
:1019C0000E94CA1D90938903809388030895909183
:1019D000B70490FF35C09170811128C09260909338
:1019E000B704662351F06091B7047091B8048091F8
:1019F000B9049091BA040E94E6076091B704669515
:101A000070E04BE050E08CE091E00E94DF25892BF4
:101A1000A1F01092900381E080938B034091BA046F
:101A20006091B9048091B8040C94E1098B3210F0F4
:101A30009465D5CF880F982BD2CF0E94D10CEBCFD5
:101A40000895682F9091B704969581E0890F8B32A5
:101A500008F081E00C94E70C81E00C94210D682FD4
:101A60009091B70496958FEF890F09F48AE20C9450
:101A7000E70C81E00C942F0D61E00C94E70CE7EB90
:101A8000F4E080818160808386950C943C0D809188
:101A9000B70480FD0C94B90C0C943F0D60E00C94DD
:101AA000E70C80918E0381112EC00E94281C8111A9
:101AB00004C00E94CC1C0E94F8070E94E2076093B9
:101AC000B7047093B8048093B9049093BA046E7FFE
:101AD00061F40E94F8070E94E2076093B7047093D4
:101AE000B8048093B9049093BA040E94CC07109272
:101AF00090038091B70480FF03C086950E944E0D2D
:101B000081E080938E0308950F931F93CF93DF930B
:101B100080919003882309F496C080918F03E0910F
:101B2000B704E695E81BE0938A03823091F5F0E074
:101B3000EB5AFD4FE491CE2FD0E006E918E08091FA
:101B40008B03882361F010928B030E94CA1D90932F
:101B500089038093880310928D0310928C030E9456
:101B6000CA1DE0918803F09189038E1B9F0B8F3F64
:101B70009F4708F068C0EC0FFD1FF0938903E093C6
:101B8000880388E893E0F801DF91CF911F910F91CE
:101B90000994863049F4F0E0EE5AFD4FE491CE2FDF
:101BA000D0E00AEA18E0CBCF893051F4E695F0E0B6
:101BB000E15BFD4FE491CE2FD0E004EE19E0BFCF02
:101BC0008F3051F4E695F0E0E45BFD4FE491CE2FC9
:101BD000D0E001E21AE0B3CF853149F4F0E0E75BF1
:101BE000FD4FE491CE2FD0E00BE91AE0A8CFC8E278
:101BF000D0E00EE01BE0883109F4A1CF833239F444
:101C0000E7E4F2E0C591D4910AEB18E098CFC4EF75
:101C1000D1E00EE91BE0843209F491CFC0EDD7E0AA
:101C200006EB17E0853209F08ACF8E2F63E00E9421
:101C3000E824E92FF0E0EC5BFD4FE491CE2FD0E0FB
:101C40000BED1BE07CCFDF91CF911F910F91089599
:101C5000FA01811101C0FB010994CF93DF93C82FD2
:101C6000D62F0E9408088C1740F00E9408088D1794
:101C700020F4DF91CF910C942C0D8C2FDF91CF911C
:101C80000C943C0D0F931F93CF938C01FB01C281E9
:101C9000CC2309F465C00E94711B8272F801E35CD9
:101CA000FC45E431F10538F4EB5AF94D0C944C2520
:101CB0000E94470DC0E08C2FCF911F910F91089586
:101CC00049E35DE06CE27DE00E94280EF3CF4CE238
:101CD0005DE069E37DE0F8CF42EA59E065E979E04B
:101CE000F3CF45E959E062EA79E0EECF40EC59E004
:101CF00061EB79E0E9CF41EB59E060EC79E0E4CFCA
:101D00004EED59E06FEC79E0DFCF4FEC59E06EED2E
:101D100079E0DACF4BE358E064E278E0D5CF44E2F3
:101D200058E06BE378E0D0CF81E00E943C0DC2CF59
:101D300065E082E00E942D0EBDCF68E086E0FACF1C
:101D40006EE089E0F7CF64E18FE0F4CF67E185E1F1
:101D5000F1CF88E1EACF62E289E1ECCF83E2E5CF1F
:101D6000C1E0A9CF6E9A4EB14F7B5EB15064EFB720
:101D7000F8949B01220F331F260F371F280F391F9E
:101D80002817390741F4EFBF8FE594E00197F1F789
:101D900000C000000895DC016D91CD0178E05EB9CE
:101DA000000000C067FF4EB9660F000000C000C011
:101DB00000C04EB900C07A9591F7E2CF0F931F9300
:101DC000CF93DF93C42FD22FFC0182818823C9F0E7
:101DD000409393030E94CA1D9093920380939103B2
:101DE00080E28C0F883008F050C0C77081E001C0DD
:101DF000880FCA95EAF7DF91CF911F910F910C944C
:101E0000881310919303141335C08091910390911E
:101E100092030E94E21D883C910560F5C0E2CD0F5F
:101E20001D17B9F080E2810F883040F4177081E00F
:101E300001C0880F1A95EAF70E948F13C83048F442
:101E400081E09D2F977001C0880F9A95EAF70E9454
:101E50008813802F0E948013C830B8F4D77081E0B7
:101E600001C0880FDA95EAF7DF91CF911F910F91AA
:101E70000C948F1380E28C0F883038F4C77081E0A7
:101E800001C0880FCA95EAF7EFCFDF91CF911F917C
:101E90000F9108950F939C01CB01243F4CE534072B
:101EA00059F1A8F4293DFCE53F0701F12A3D4CE535
:101EB0003407D1F1283D3C4591F406E221EE41EE94
:101EC00068ED7CE50E94DE0E80E00F910895263FCC
:101ED000FCE53F07E9F0B0F0273F3C45F9F0FC0195
:101EE0008281882339F110929303EFCF07E225EE28
:101EF00045EE69ED7CE5E6CF06E221EE40EE64EFCB
:101F00007CE5E0CF07E225EE44EE65EF7CE5DACF35
:101F100006E221EE42EE66EF7CE5D4CF07E225EE45
:101F200046EE67EF7CE5CECF08E221E045EE6AEDB4
:101F30007CE5C8CF81E0C9CFCF93DF93EC01FB01F3
:101F40008281882309F419C1C230FCE5DF07C0F1A2
:101F5000C6319CE5D90730F09E012B5F3C45293006
:101F6000310570F50E943B1C9093C9058093C8050C
:101F7000C031ECE5DE0709F4CFC008F05BC0C83023
:101F80008CE5D80709F4B6C088F5C430ECE5DE0767
:101F900009F4A8C0C0F4C2308CE5D80709F49CC08D
:101FA0008091C8058260C330DC4509F498C08091F7
:101FB000C8059091C9050E94491C0E94F21580E055
:101FC000DF91CF9108958091C8058061C630ECE51E
:101FD000DE0709F484C08091C8058860C730DC45FD
:101FE00008F47DC08091C805806279C0CC308CE552
:101FF000D80709F489C070F48091C8058C60CA3094
:10200000ECE5DE0709F46BC008F478C08091C805E0
:102010008E7F65C0CE308CE5D80709F479C08091F9
:10202000C8058B7FCF30DC4508F459C08091C805C6
:102030008F7E55C0CC3FECE5DE0709F457C030F584
:10204000C3318CE5D80709F46FC078F4C131ECE5F1
:10205000DE0709F465C0C231DC4509F0A8CF0E9453
:10206000F2158091C8058F773AC0C5318CE5D80745
:1020700009F462C008F476C08091C9058160CB3F45
:10208000DC4509F094CF8093C90591CFC115FDE5DA
:10209000DF0709F44DC088F48091C9058D7FCE3FDC
:1020A0009CE5D90781F38091C9058E7FCF3FDC4540
:1020B00050F38091C9058360E6CFC230FDE5DF07AC
:1020C00009F459C008F444C080E0C330DD4509F08C
:1020D0006ECF0E94CE1C6BCF8091C805816080932B
:1020E000C80565CF8091C8058460F9CF8091C90586
:1020F0008260C9CF8091C8058064F1CF0E94F2153B
:102100008091C8058068EBCF8091C8058D7FE7CFAF
:102110008091C805877FE3CF8091C8058F7DDFCF91
:102120008091C8058F7BDBCF8091C805837FD7CF97
:102130008091C9058C7FA7CF8091C80582FB992724
:1021400090F921E0922790FB82F990FB83F9C7CFA9
:102150008091C905982F909591708E7F892B90FB67
:1021600081F991CF0E94F2159091C805892F97FBB4
:1021700087F98058B4CF81E0ACCF81E021CFCF93F5
:10218000DF93EB0186319C4511F50E94711B9A810A
:10219000992399F08A7A91E009F490E0909394035E
:1021A000811109C089E20E944C1B0E94BD1B80E086
:1021B000DF91CF91089585E3F6CF8091940381114B
:1021C00004C089E20E94531BF0CF85E3FBCF81E07E
:1021D000EFCF90939A03809399030895E091990328
:1021E000F0919A03309721F00190F081E02D09944D
:1021F00080E00895E0919903F0919A03309799F067
:1022000020912301222359F02091C80527FF07C000
:10221000DC012C9111962C93119725E02C930280D0
:10222000F381E02D0994089520919703309198034C
:102230002817390771F09093980380939703E091E2
:102240009903F0919A03309721F00680F781E02DF1
:102250000994089520919503309196032817390722
:1022600071F09093960380939503E0919903F09118
:102270009A03309721F00084F185E02D09940895A8
:102280000E94D61D6093B8037093B9038093BA037C
:102290009093BB036093B4037093B5038093B6032C
:1022A0009093B703089585B7806885BF85B7806828
:1022B00085BF0895089508950C945A1108950C94BB
:1022C0005E110E94531180E29CE10E94391E0E941F
:1022D0005B110C945C1181E008950C946B110895CE
:1022E00008950E94C11D0E9406060E94541E0E946D
:1022F000510D0C945F114F925F926F927F928F926B
:102300009F92AF92BF92CF92DF92EF92FF920F9384
:102310001F93CF93DF93CDB7DEB72A970FB6F8940C
:10232000DEBF0FBECDBF0E946F110E9470110E94D0
:102330003F0681110E9440115CE9A52E53E0B52EA5
:1023400010E000E0802E802F0E94DB052B013C0175
:10235000F501C190D190E190F1905F01C414D504D2
:10236000E604F70409F477C08091630481FD0E94BC
:10237000E605D701C60184259525A625B725912C0C
:10238000C12CD12C7601C394AC01BD014C215D213F
:102390006E217F21452B462B472B09F454C00E9408
:1023A0006D118823C9F09E828F824C205D206E20A3
:1023B0007F2081E045284628472809F480E0888767
:1023C0000E94CA1D8160782F9A8789874E815F811C
:1023D00068858A850E945912000F111F000F111F76
:1023E000F801E456FC4F80819181A281B3818C2554
:1023F0009D25AE25BF2580839183A283B3830E9450
:10240000840D0E94EE1090919B038917D9F10E94D0
:10241000EE1080939B032A960FB6F894DEBF0FBE92
:10242000CDBFDF91CF911F910F91FF90EF90DF9083
:10243000CF90BF90AF909F908F907F906F905F9064
:102440004F900C94C7039394CC0CDD1CEE1CFF1C26
:10245000F1E19F1299CF0F5F1F4F0630110509F070
:1024600071CF8FEF89838A831B820E94CA1D81608E
:10247000782F9D838C8349815A816B818D810E9445
:102480005912BDCF2A960FB6F894DEBF0FBECDBF4E
:10249000DF91CF911F910F91FF90EF90DF90CF9040
:1024A000BF90AF909F908F907F906F905F904F9074
:1024B0000895DF92EF92FF920F931F93CF93DF93D4
:1024C000CDB7DEB72B970FB6F894DEBF0FBECDBFEA
:1024D0007A878B87F42E052F162FE72ED82E6111C1
:1024E0000E94911B1E821D827E2DEC82DD824F2D6B
:1024F000502F612F8D2D9E812B960FB6F894DEBF45
:102500000FBECDBFDF91CF911F910F91FF90EF9044
:10251000DF900C946818FC01808191810C941E1B43
:10252000CF93C82F882309F483C08238C1F40E9456
:10253000EE1081FD7DC089E30E944C1B0E94BD1BF3
:102540002FEF81EE94E0215080409040E1F700C0F1
:10255000000089E30E94531BCF910C94BD1B83386C
:10256000A1F40E94EE1080FD63C083E50E944C1B25
:102570000E94BD1B2FEF81EE94E0215080409040DF
:10258000E1F700C0000083E5E5CF8438A1F40E94A4
:10259000EE1082FD4DC087E40E944C1B0E94BD1BC3
:1025A0002FEF81EE94E0215080409040E1F700C091
:1025B000000087E4CFCF8CEF8C0F813A90F46C2F22
:1025C00080911701909118010E94E71C882329F03F
:1025D0008C2F0E94531B0E94BD1B8C2F0E944C1BF2
:1025E000BBCF80E28C0F883048F4C77081E001C017
:1025F000880FCA95EAF70E94741BAECFEBE5EC0F8B
:10260000E33040F4F0E0EB53FE4F808190E0CF9157
:102610000C941411C85AC73158F4EC2FF0E0EE0FA7
:10262000FF1FE956FE4F80819181CF910C942A11B2
:10263000CF910895882309F44BC0823871F40E9429
:10264000EE1081FF45C089E30E944C1B0E94BD1B18
:1026500089E30E94531B0C94BD1B833859F40E94DC
:10266000EE1080FF35C083E50E944C1B0E94BD1B0D
:1026700083E5EFCF843859F40E94EE1082FF28C022
:1026800087E40E944C1B0E94BD1B87E4E2CF9CEFB5
:10269000980F913AF0F290E2980F983050F48770CA
:1026A00091E001C0990F8A95EAF7892F0E947A1B61
:1026B000D2CF9BE5980F933020F490E080E00C940B
:1026C0001411885A873120F490E080E00C942A118C
:1026D00008951F93CF93DF93182FEB010E94901260
:1026E000209731F4812FDF91CF911F910C941A1311
:1026F0008FE99FE00197F1F700C000002197F0CF2C
:1027000070E060E0893311F460E570E00C946913C7
:10271000882321F00E94741B0C94BD1B089588230C
:1027200021F00E947A1B0C94BD1B0895BF92CF929A
:10273000DF92EF92FF920F931F93CF93DF936C0181
:10274000D62FC72FFC011281058102950F700E94C0
:102750006A1BE82E8823A1F0E12E112389F08C2F2B
:10276000807F803429F080E28D0FE12C883040F0AA
:1027700082E00E94081C0E946A1B91E0E82EE92674
:10278000BC2EB2949FE0B922EB2DF0E0E759F94D51
:102790000C944C250C2F0F70C07F11F00295007F18
:1027A0001123A9F0002359F080E28D0F883010F03A
:1027B000D11109C0802F0E94741B0E94BD1B8D2F58
:1027C0000E94901214C0802F0E94841BF6CF8D2F80
:1027D0000E941A13002359F080E28D0F883010F008
:1027E000D1112CC0802F0E947A1B0E94BD1B2B2D63
:1027F0002850330B2430310520F40E94EE100E9443
:10280000C703EE2009F493C10E94661B80FD8FC1AF
:10281000F60112820E94601B0E94EC19C6010E9400
:10282000B8150E94601BDF91CF911F910F91FF900F
:10283000EF90DF90CF90BF900C940D1A802F0E94E4
:102840008A1BD3CFFC2FFF70FF2EC07FC03219F040
:10285000F29480EFF822DD2369F0D13049F11123A1
:1028600091F1002351F1F601858180FFA8CF8F708F
:10287000858323C0112381F0011106C00E94A41B8F
:102880008F290E948813B3CF0130C1F70E94A41B87
:102890008F290E94AA1BABCF011106C00E94B31B57
:1028A0008F2D0E948F13A3CF013009F4A0CFF6CF54
:1028B000112329F0063008F09ACF8F2DE2CF053092
:1028C00008F095CFEDCF002359F3D93349F4FFEF4A
:1028D00027EE33E0F15020403040E1F700C0000027
:1028E0008D2F0E941A1383CF8C2F86958695837027
:1028F00069F0813009F07BCF8D2F9C2F93701111DF
:1029000002C090E080E00E942A1171CF8D2F9C2F91
:102910009370111102C090E080E00E94141167CF03
:102920008C2F837009F041C0111161CF4D2F42955A
:1029300046954770440F440F0D2F0F7010E030E0A4
:1029400020E0042E04C0000F111F221F331F0A9421
:10295000D2F760E070E0CB01D4FF0FC06FE070E011
:1029600080E090E004C0660F771F881F991F4A958A
:10297000D2F76095709580959095C695C695C37071
:10298000602B712B822B932BC23049F058F4C1304D
:1029900019F00E949E192BCF0E948C1928CF0E94FB
:1029A000B01925CF0E948A1922CF8695112311F0E4
:1029B0008C2F8170882309F41ACF4D2F42954695AC
:1029C0004770440F440F0D2F0F7010E030E020E0EF
:1029D000042E04C0000F111F221F331F0A94D2F7C8
:1029E00060E070E0CB01D4FF0FC06FE070E080E0EA
:1029F00090E004C0660F771F881F991F4A95D2F791
:102A00006095709580959095C695C695C370602B1E
:102A1000712B822B932BC23049F058F4C13019F03E
:102A20000E94631AE4CE0E94511AE1CE0E94751AE8
:102A3000DECE0E94C619DBCECF70112329F08C2F79
:102A40000E94EC198D2F1DCF8D2F0E948F138C2F7C
:102A50000E940D1ACCCED23F89F160F4D03FC9F06C
:102A6000D13F29F1112309F442C00111A8CE8C2FC6
:102A70008F7121C0D33F39F1D43FA1F7112369F100
:102A8000CF718C2F0E94EC1963E08C2F0E94F31BF6
:102A9000AECE112341F0053008F0A9CE8C2F8F71F6
:102AA0000E94301AA4CE063008F0A1CEF7CF8C2FAA
:102AB0008F71112369F20E94EC1999CE8C2F8F71BE
:102AC0001123C9F3C5CF112329F08C2F8F710E94D8
:102AD000D7198DCE0E94D2198ACE81E00E94081C9F
:102AE000023008F484CE82E00E94081C80CE0023CD
:102AF00059F0D93309F0F4CE8FEF97EEE3E081502F
:102B00009040E040E1F7EACE8C2F8F71A1CF4C2F9F
:102B10004F706D2FC6010E94CF030E94021967CE2D
:102B20004C2F4F706D2FC6010E94D20360CEDF91F3
:102B3000CF911F910F91FF90EF90DF90CF90BF90BA
:102B400008950F931F93CF93DF93EC0168817981F0
:102B50008A810E94281B8C010E94871A0E94891971
:102B6000B801CE01DF91CF911F910F910C94961374
:102B7000CF93DF93EC018B819C81892B29F0888195
:102B8000998189238F3F59F4DF91CF910895CE0128
:102B90000E94A115CE01DF91CF910C945703CE0175
:102BA0000E947E038111F3CF0E946A1B882361F388
:102BB0008A81882349F382E0DF91CF910C94081C2D
:102BC00090E080E00E94141190E080E00E942A11C1
:102BD0000E94911B0E94A11B0C94BD1B0E945A1BBA
:102BE0000C94E0150E94811B0C94EE15E92FE295E0
:102BF000EF70E250EE3070F4F0E0E758F94D0C94CD
:102C00004C25803F19F020F4883E20F481E008959F
:102C1000843FE1F380E00895883EC0F3813FD1F71F
:102C2000F5CF93FB882780F908950E941E1B0C9412
:102C3000F615CF93DF9300D000D00F92CDB7DEB75B
:102C40000F900F900F900F900F90DF91CF910895FC
:102C5000CF93DF9300D000D000D0CDB7DEB726965B
:102C60000FB6F894DEBF0FBECDBFDF91CF910895B0
:102C70001F93CF93DF93C091BD0316E08091BE03F5
:102C80008C1304C0DF91CF911F910895D0E01C9F59
:102C9000F0011D9FF00D1124E154FC4F4081518142
:102CA00062817381848195810E9428162196C77064
:102CB000E5CF4091EF035091F0036091F1037091E3
:102CC000F2038091F3039091F4030C9428161F9360
:102CD000CF93DF938091F403807FA9F48091F10377
:102CE000882389F08091BD03C091BE036091EF03FA
:102CF0007091F003A091F203B091F303D62FD72384
:102D000016E0C81304C0DF91CF911F91089590E0A1
:102D1000109711F0DF3F19F401968770F2CF189FDA
:102D20009001199F300D1124F901E154FC4F4181AC
:102D30004713F2CF40814613EFCF42814111ECCFD0
:102D4000438154814A1B5B0B483C510528F7809115
:102D5000F4038F7080618093F403F901EC53FC4F0E
:102D600080818F70806180838FEE93E00E94B81520
:102D7000DF91CF911F910C943816AF92BF92CF92F2
:102D8000DF92EF92FF920F931F93CF93DF93CDB714
:102D9000DEB761970FB6F894DEBF0FBECDBF8C01D2
:102DA00085E0F801DE011D9601900D928A95E1F70C
:102DB000F80140815181E2808FEEC82E83E0D82E49
:102DC0006091F2037091F3036115710509F461C11B
:102DD0009091EF032091F003892F82238F3F09F414
:102DE00058C1A380B480F090F103F501E61BF70B06
:102DF000FF2009F4FCC08091F403382F307FE83CB9
:102E0000F10508F0B2C0311179C0FE2C251323C0A2
:102E1000941321C0E1101FC08F7080618093F40370
:102E20000E945916C6010E94B8158091F403F8015A
:102E300085838F2D61960FB6F894DEBF0FBECDBF90
:102E4000DF91CF911F910F91FF90EF90DF90CF9086
:102E5000BF90AF900895AB2829F0842F85238F3F32
:102E600009F033C180E0F82FF170DF2E80FF3CC005
:102E70008091BD032091BE0336E0821315C04D87BB
:102E80005E878D859E850E941E1B292F22952F709F
:102E90002230F0F0243018F59F70F1F0F8019581A0
:102EA000907FD1F4D12C1EC090E0389FF001399F63
:102EB000F00D1124E154FC4F6181651306C060815F
:102EC000641303C062816E110FC001968770D5CF65
:102ED0009F7011F0882331F3805E883018F3C801A9
:102EE0000E94B815FD2CA5CFEE2009F4A2CF809149
:102EF000F40381608093F403F12C9BCF251306C06B
:102F0000941304C0F801EE2009F48DC04D875E874C
:102F10008D859E850E941516882319F1EE2009F1F2
:102F20008091F403803270F02091EF033091F00330
:102F300038872F831986BB86AA868C87CE01079691
:102F40000E94B81586E0F801AFEEB3E001900D9253
:102F50008A95E1F70E9467160E945916FF24F394A0
:102F600068CFC8010E94B815F9CF311113C07A2D6E
:102F7000B98AA88A6E2D89890E9419168FEE93E06E
:102F80000E94B81586E0F60111928A95E9F70E9431
:102F90005916B2CF25130FC094130DC0E1100BC00A
:102FA000F8018583C8010E94B81586E0F6011192E8
:102FB0008A95E9F73ECF4D875E878D859E850E9475
:102FC0001516882371F2EE2061F28091F4038032AD
:102FD00008F4B8CF2091EF033091F0033A832983AE
:102FE0001B82BD82AC828E83CE010196A9CFE83CC4
:102FF000F10508F041C0FE2CEE2009F4B2CF2513F4
:103000002AC0941328C08091F40380FD1BC0982F20
:10301000907FC1F0F8018583903F31F0982F907F29
:10302000905F8F70892B8583C8010E94B81586E058
:10303000F801AFEEB3E001900D928A95E1F70E949E
:103040005916F7CE86E0F801AFEEB3E001900D928D
:103050008A95E1F7EECE4D875E878D859E850E942D
:10306000151681116FCF8091F40381608093F40372
:10307000C8010E94B815DDCE7A2DB98AA88A6E2DB6
:1030800089890E94191686E0F60111928A95E9F75E
:10309000D6CFEE2009F465CF4D875E878D859E855E
:1030A0000E941516F82E882309F45BCF86E0F801FC
:1030B000AFEEB3E001900D928A95E1F78FEE93E0C9
:1030C0000E948B120E946716BACF81E08E25CBCE6C
:1030D0001F93CF93DF93CDB7DEB72C970FB6F8943D
:1030E000DEBF0FBECDBF4F83588769877A878B8736
:1030F0009C87CE0107960E94BD16882369F08A85B9
:103100009B85892B39F04F815885842F85238F3FEC
:1031100009F071C016E05FC086E0FE013796DE015F
:10312000119601900D928A95E1F78A859B85892BEE
:1031300089F38F81988589238F3F61F32091BE03A6
:1031400030E0C9010196877099274091BD03481767
:10315000190671F40E94F2151092BE031092BD037D
:1031600086E0EFEEF3E0DF011D928A95E9F7D2CF1A
:1031700096E0929FD001939FB00D1124A154BC4FB3
:10318000FE01319601900D929A95E1F78093BE036E
:103190000E943816BFCF819FC001112481549C4FDB
:1031A0000E94BD168823E9F0E091BD031E9FF00147
:1031B0001124E154FC4F40815181628173818481EB
:1031C00095810E9428168091BD0390E0019687703A
:1031D00099278093BD038091BD039091BE0389130D
:1031E000DACF2C960FB6F894DEBF0FBECDBFDF91BD
:1031F000CF911F91089569857A858B859C850E9462
:10320000281688CFEF92FF920F931F93CF93DF93EF
:103210008C01892B81F0F12CEE24E394E8012196B6
:10322000F8018491843770F4843008F05FC08130F5
:10323000B1F08230A1F1DF91CF911F910F91FF90FA
:10324000EF900895853709F44CC008F43DC09CE721
:10325000980F903780F78F770E941A1349C00E5F3E
:103260001F4FFE01849190E2980F983060F48770B0
:10327000FE2D01C0FF0F8A95EAF78F2F0E94941B45
:103280000E94BD1B02C00E9490128F2D815030F20F
:10329000EFE9FFE03197F1F700C00000F7CF0E5FD4
:1032A0001F4FFE01849190E2980F983050F4877080
:1032B000FE2D01C0FF0F8A95EAF78F2F0E949A1BFF
:1032C000DFCF0E941A13E1CF0E5F1F4FFE01C491A2
:1032D000C150D8F28FE99FE00197F1F700C00000DC
:1032E000F7CF0E5F1F4FFE01F490CFCF0E949012D8
:1032F0008E01CBCF08950C947A190E947B196093AC
:103300003A0470933B0480933C0490933D040C94E6
:10331000E01508950C947D190F931F9300913A04C2
:1033200010913B0420913C0430913D04602B712BA3
:10333000822B932B1F910F910C947D190F931F9348
:1033400000913A0410913B0420913C0430913D04DB
:1033500060237123822393231F910F910C947D1975
:103360000F931F9300913A0410913B0420913C0469
:1033700030913D0460277127822793271F910F9179
:103380000C947D190C947A190C94C2190E94C419DA
:103390006093360470933704809338049093390413
:1033A0000C94E01560E070E0CB010C94C6190F930B
:1033B0001F9341E050E060E070E08A019B0104C08F
:1033C000000F111F221F331F8A95D2F7C901B801C0
:1033D0001F910F910C94C6190F931F9341E050E079
:1033E00060E070E004C0440F551F661F771F8A9588
:1033F000D2F78091360490913704A0913804B091AF
:1034000039048A019B01082B192B2A2B3B2BC9015C
:10341000B8011F910F910C94C6190F931F9341E0AF
:1034200050E060E070E004C0440F551F661F771F36
:103430008A95D2F7CB01BA016095709580959095E9
:1034400000913604109137042091380430913904EA
:1034500060237123822393231F910F910C94C6192B
:103460000F931F9341E050E060E070E004C0440F10
:10347000551F661F771F8A95D2F780913604909169
:103480003704A0913804B09139048A019B010827C0
:1034900019272A273B27C901B8011F910F910C94C6
:1034A000C6190F931F930091360410913704209191
:1034B000380430913904602B712B822B932B1F9190
:1034C0000F910C94C6190F931F930091360410911D
:1034D000370420913804309139046023712382230A
:1034E00093231F910F910C94C6190F931F93009172
:1034F0003604109137042091380430913904602744
:103500007127822793271F910F910C94C619089554
:1035100021E1929F800D1124982F977041E001C006
:10352000440F9A95EAF786958695869595E0899F4A
:10353000F0011124EB50FC4F90E080E070E05191DD
:10354000DF0111979B01082E02C0369527950A943A
:10355000E2F7217021952527242325272C93019616
:103560008530910561F7089521E1929F800D112426
:10357000982F977086958695869525E0829FF00115
:103580001124EB50FC4F50E040E080E0219130E00E
:10359000092E02C0369527950A94E2F72170332749
:1035A000042E01C0220F0A94EAF7822B4F5F5F4F6F
:1035B0004530510559F70895BF92CF92DF92EF92AF
:1035C000FF920F931F93CF93DF938C01C09036042B
:1035D000D0903704E0903804F090390480913A0498
:1035E00090913B04A0913C04B0913D04C82AD92A93
:1035F000EA2AFB2ACFE1D0E0BC2ED701C6010C2E6F
:1036000004C0B695A795979587950A94D2F780FD43
:103610000EC0219788F7B12C8B2DDF91CF911F9190
:103620000F91FF90EF90DF90CF90BF900895B80179
:103630008C2F0E94EF03019761F3EECFCF93DF93BE
:10364000EC010E94DC1ABE01DF91CF910C94EF03D4
:103650001F93CF93DF93EB019091BC03992331F03B
:10366000CB01DF91CF911F910C941E1B882379F021
:10367000CB010E94DC1A182F682FCE010E94881AF5
:10368000BE01812FDF91CF911F910C94EF03CB01ED
:103690000E94B41A182FF4CF682F809117019091CF
:1036A00018010C94671D682F8091170190911801E3
:1036B0000C94721D80911701909118010C947D1D3E
:1036C00080913E04859585958595089580913E0469
:1036D0008770089590913E04977081E009F480E02E
:1036E000089580916204089590916204892B8093DB
:1036F00062040895809590916204982390936204E7
:10370000089510926204089590916104892B80932A
:1037100061040895809590916104982390936104C9
:10372000089510926104089590916004892B80930C
:1037300060040895809590916004982390936004AC
:10374000089510926004089580913F0408950895AB
:103750000C94A71B90913F04981721F080933F048D
:103760000C94A81B089580913F04882329F010929F
:103770003F0480E00C94A81B0895E0911701F0919C
:103780001801809162048083E0911701F091180183
:10379000808190916104892B8083E0911701F091E1
:1037A0001801808190916004892B808390913F045F
:1037B000992381F0E0911701F09118018081892B04
:1037C000808380911701909118010E94D31C811170
:1037D0000E94B31B80911701909118010C94FA106C
:1037E00008950C94F01B98E0899F90011124622B9E
:1037F00060933E040E94EC1980913E048595859566
:1038000085950C94F11B10923E0480E00C94F11B02
:1038100090913E048095892380933E04282F277041
:1038200071F4282F082E000C330B9217130639F071
:103830008595859585950E940D1A0C94031C089515
:1038400080E008956FEF7FEF90E080E00C941E26FB
:1038500090E080E00E94FA2521E08B3E9E4F09F027
:1038600020E0822F089582E090E00C94EC2583E024
:1038700090E00C94EC25CF9384E090E00E94EC253E
:10388000C82F81E290E00E94EC25982F8C2FCF91D9
:103890000895CF93C92F682F84E090E00E940026FE
:1038A0006C2F81E290E0CF910C940026AB01BC011B
:1038B0008FE090E00C941226AB01BC0183E190E014
:1038C0000C94122660E070E0CB010C945C1C60E06C
:1038D00070E0CB010E94561C0C94621C6BEE7EEFD4
:1038E00090E080E00E941E2660E082E090E00E946E
:1038F000002660E083E090E00E94002610923A04E7
:1039000010923B0410923C0410923D0460E084E06D
:1039100090E00E94002660E081E290E00E94002694
:1039200060E085E090E00E94002660E086E090E0A4
:103930000E9400266FEF87E090E00E94002640E0A2
:1039400050E0BA0188E090E00E94122660E08DE02D
:1039500090E00E94002640E050E0BA0188E190E04B
:103960000E94122660E087E190E00E94002640E07D
:1039700050E0BA018CE190E00E94122660E080E203
:1039800090E00E94002640E050E0BA0188E190E01B
:103990000E9412260C94671C0C946E1C682F8EE0FB
:1039A00090E00C940026FC0132968091230188233C
:1039B00021F08091C8059EE187FF96E080E091505C
:1039C00008F4089521912223D1F38F5FF8CF662365
:1039D00001F1209123012223F1F02091C80527FF56
:1039E0001AC0462F4695469546954E3190F467701D
:1039F00021E030E002C0220F331F6A95E2F7840F06
:103A0000911DFC01828190E02823392381E0232B42
:103A100069F480E00895FC013296089621912617FA
:103A200021F0E817F907D1F7F4CF81E008959C0160
:103A3000FC0132969FEF80E04191461751F09F3F85
:103A400019F4411101C0982F8F5F8630A9F79F3F6D
:103A500009F40895290F311D97FD3A95F901628304
:103A60000895FC01329608962191261303C0DF01C8
:103A700011971C92E817F907B9F70895E62FE69514
:103A8000E695E695EE3168F4E80FF92FF11D6770C1
:103A900021E030E001C0220F6A95EAF78281822B93
:103AA00082830895E62FE695E695E695EE3170F46B
:103AB000E80FF92FF11D677021E030E001C0220FFF
:103AC0006A95EAF720958281282322830895209120
:103AD0002301222329F02091C80527FD0C943E1DC7
:103AE0000C94171D20912301222329F02091C80551
:103AF00027FD0C94521D0C94311DFC0132968091CF
:103B00002301882351F08091C80587FF06C08EE10C
:103B1000DF011D928A95E9F7089586E0F9CF0895AF
:103B20000C948F1D0E94F2150E94EE100E94C70394
:103B30000C94901D1F921FB61F9211248F939F9378
:103B4000AF93BF9380916404811113C08091C40529
:103B50009091C505A091C605B091C7054196A11DDC
:103B6000B11D8093C4059093C505A093C605B0937D
:103B7000C705BF91AF919F918F911F901FBE1F905E
:103B8000189582E084BD93E095BD9AEF97BD809330
:103B90006E0008952FB7F8948091C4059091C505E3
:103BA000A091C605B091C7052FBF08952FB7F8940F
:103BB0006091C4057091C5058091C6059091C705B7
:103BC0002FBF08959C014FB7F8948091C405909140
:103BD000C505A091C605B091C7054FBF821B930BC9
:103BE000089578941F921FB61F9211248F939F936C
:103BF000AF93BF938091C4059091C505A091C60570
:103C0000B091C7050196A11DB11D8093C405909385
:103C1000C505A093C605B093C705BF91AF919F910D
:103C20008F911F901FBE1F90189581E08093E00038
:103C300080E28093D8001092C9008FE19EE4019742
:103C4000F1F700C0000087E090EBDC018093D7051E
:103C50009093D805A093D905B093DA0588E19CE04C
:103C60000FB6F894A895809360000FBE9093600003
:103C7000FFCF9093C9018093C80108950C94221C32
:103C80000E943F068FE39CE90197F1F700C0000016
:103C90000E943F0680E00E94DB0560FF04C00E9496
:103CA0003E1E0C94151E08950E94281C811102C00E
:103CB0000E94CC1C0E94331C809363040E943B1C16
:103CC0009093C9058093C8050E94371C682F70E047
:103CD00090E080E00E948A19609136047091370468
:103CE00080913804909139040C94C4198091850412
:103CF00008950895CF93DF9300D00F92CDB7DEB72C
:103D00009091CE05943019F589837B836A8382E094
:103D10008093E9008FEF9091E800815095FD06C0F7
:103D200095ED9A95F1F700008111F5CF8091E800AB
:103D300085FF0DC050E040E063E070E0CE010196E9
:103D40000E9457208091E8008E778093E8000F90C2
:103D50000F900F90DF91CF910895BC0184E00C94F7
:103D60007A1EBC0183E00C947A1ECF93DF93EC01A2
:103D7000809123018823B1F18091C80587FF32C06B
:103D800060E282E08093E9008FEF9091E80081503B
:103D900095FD06C095ED9A95F1F700008111F5CFDC
:103DA0008091E80085FF1BC08091230170E050E006
:103DB00040E0811104C050E040E068E070E0CE01D6
:103DC0000E9457208091E8008E778093E80080E27F
:103DD000FE01A5E6B4E001900D928A95E1F7DF912E
:103DE000CF91089568E081E0CDCF8091CD0581111C
:103DF00009C00E94E7210E9444228091E200846071
:103E00008093E20008951092CD05089508950895D5
:103E10000C94921D42E061EC81E00E94632142E239
:103E200061EC82E00C9463218091D005833009F429
:103E30005FC030F48130C1F1823009F49BC0089535
:103E40008A3009F487C08B3009F46DC0893009F0DD
:103E50004EC08091CF05813209F049C08091D305D1
:103E60009091D405029708F042C08091E800877FC6
:103E70008093E8008091E80082FF35C09091F300C4
:103E80008091F200029729F48091F1008B7F8130BC
:103E900021F48091F100809385048091E8008B7774
:103EA0008093E8000C9497218091CF05813AF9F432
:103EB0008091E800877F8093E8008091D3059091FE
:103EC000D405892B61F460E285E694E070E00E94FD
:103ED000A6208091E8008B778093E800089560E049
:103EE00090E080E0F3CF8091CE058111C3CF08959B
:103EF0008091CF05813AD9F78091D3059091D4056F
:103F0000892BA9F78091E800877F8093E800809152
:103F1000E80080FFFCCF809123018093F100809125
:103F2000E8008E77BDCF8091CF05813201F7809177
:103F3000D3059091D405892BD1F68091E800877F35
:103F40008093E8000E9497218091D10580932301FE
:103F50000C94F2158091CF05813249F68091E800EA
:103F6000877F8093E8000E9497218091D2058093FB
:103F7000860408958091CF05813A09F0B8CF8091E9
:103F8000E800877F8093E8008091E80080FFFCCF05
:103F900080918604C2CF84B7877F84BF0FB6F89420
:103FA000A895809160008861809360001092600005
:103FB0000FBE80E890E00FB6F89480936100909374
:103FC00061000FBE0E9461110E94E7210E944422FD
:103FD0008091E20084608093E20078940E94CD2476
:103FE0000E94711189E191E00E94E9100E947B1109
:103FF0000E946F110E947011F9CF0C94FF1F292F9E
:1040000033272330310519F168F42130310509F4E3
:1040100044C02230310509F445C090E080E030E032
:1040200020E025C02132310549F122323105A9F7BE
:1040300080E490E022E535E061157105C1F08DE680
:1040400090E025EE34E06130710589F0E6CF9927E4
:104050008130910581F0009729F00297F1F6EEE5A5
:10406000F4E002C0E4E9F4E0849190E09F01FA01F9
:10407000318320830895E8E7F4E0F6CF89E090E00B
:104080002AEA34E06115710591F389E090E023ECB0
:1040900034E06130710559F3C0CF82E190E023ED47
:1040A00034E0E5CF8BE390E028E934E0E0CFAF9255
:1040B000BF92CF92DF92FF920F931F93CF93DF9324
:1040C0006C01EB018A010E94B621F82E811123C0F8
:1040D0000115110539F0F80180819181C81BD90BB8
:1040E000C80ED91EB12CA12C2097A9F08091E80010
:1040F00085FD22C08091E8008E778093E80001154D
:104100001105A1F0F80180819181A80EB91EB1823C
:10411000A08285E0F82E8F2DDF91CF911F910F9116
:10412000FF90DF90CF90BF90AF9008950E94B6218E
:104130008823D1F2F82EEFCFF60181916F018093A1
:10414000F1002197FFEFAF1ABF0ACECFFC0180919B
:10415000D5059091D60586179707A0F061157105D2
:1041600029F49091E8009E779093E80090E0611523
:10417000710551F4911108C08091E80082FF34C0AC
:1041800080E00895BC01F2CF8091CE058823C1F173
:104190008530C1F18091E80083FD30C08091E80056
:1041A00082FDEACF8091E80080FFE1CF8091F300AB
:1041B0002091F200382F6115710519F02830310572
:1041C00058F091E02830310509F090E02091E800A6
:1041D0002E772093E800CBCF81918093F10061503E
:1041E00071092F5F3F4FE7CF8091CE05882341F0C3
:1041F000853041F08091E80083FFBECF81E00895D3
:1042000082E0089583E00895FC018091D5059091A6
:10421000D60586179707A0F06115710529F48091DE
:10422000E8008E778093E80090E06115710551F405
:10423000911108C08091E80082FF35C080E00895A8
:10424000BC01F2CF8091CE058823C9F18530C9F138
:104250008091E80083FD31C08091E80082FDEACFC3
:104260008091E80080FFE1CF8091F3002091F2007F
:10427000382F6115710519F02830310558F091E09B
:104280002830310509F090E08091E8008E77809326
:10429000E800CBCF84918093F10031966150710991
:1042A0002F5F3F4FE6CF8091CE05882341F08530C8
:1042B00041F08091E80083FFBDCF81E0089582E066
:1042C000089583E00895982F973028F08F70809399
:1042D000E90081E008959093E900242F762F50E0C3
:1042E000981731F07091EC002091ED005091F000A2
:1042F00021FD02C09F5FE8CF3091EB003E7F3093FD
:10430000EB003091ED003D7F3093ED003091EB00FC
:1043100031603093EB007093EC002093ED005093EC
:10432000F0002091EE0027FDE5CF80E00895809118
:10433000CF0587FF13C08091E80082FF06C08091FF
:10434000E8008B778093E80004C08091CE0581114E
:10435000F2CF08958091CE058823D9F38091E800AB
:1043600080FFF8CF8091E8008E77ECCF2091E400B9
:104370003091E50095E6A9012091EC00822F817033
:1043800020FF06C08091E80080FF06C080E008950D
:104390002091E80022FD1AC08091CE05882389F083
:1043A000853089F08091EB0085FD0FC02091E400FD
:1043B0003091E50042175307F9F29150E1F684E09D
:1043C000089582E0089583E0089581E008950E94B1
:1043D00055220E945D22E0EEF0E0808181608083C2
:1043E000E8EDF0E080818F77808319BCA7EDB0E025
:1043F0008C918E7F8C9380818F7E80831092CD05EF
:1044000008950F931F93CF93DF930E9455220E942C
:104410005D22C8EDD0E088818F77888388818068AD
:10442000888388818F7D888319BC1092CE05109275
:10443000CA051092CC051092CB0500EE10E0F801F1
:1044400080818B7F808388818160888342E060E007
:1044500080E00E946321E1EEF0E080818E7F808326
:10446000E2EEF0E0808181608083808188608083DB
:10447000F80180818E7F8083888180618883DF91CD
:10448000CF911F910F910895E8EDF0E080818F7E2C
:104490008083E7EDF0E080818160808384E082BFEB
:1044A00081E08093CD050C940122E8EDF0E080815D
:1044B0008E7F80831092E20008951092DA001092AD
:1044C000E10008951F920F920FB60F9211242F93BF
:1044D0003F934F935F936F937F938F939F93AF938C
:1044E000BF93EF93FF938091E10082FF0BC0809117
:1044F000E20082FF07C08091E1008B7F8093E100A2
:104500000E94CC248091DA0080FF19C08091D800ED
:1045100080FF15C08091DA008E7F8093DA00809151
:10452000D90080FF96C080E189BD82E189BD09B4D0
:1045300000FEFDCF81E08093CE050E94F51E8091A4
:10454000E10080FF19C08091E20080FF15C08091DA
:10455000E2008E7F8093E2008091E2008061809390
:10456000E2008091D80080628093D80019BC85E079
:104570008093CE050E94071F8091E10084FF2BC02D
:104580008091E20084FF27C080E189BD82E189BD7E
:1045900089B5982F917080FFFBCF8091D8008F7DD7
:1045A0008093D8008091E1008F7E8093E10080911C
:1045B000E2008F7E8093E2008091E2008160809330
:1045C000E2008091CA05882309F449C084E0809301
:1045D000CE050E94081F8091E10083FF29C08091D1
:1045E000E20083FF25C08091E100877F8093E10096
:1045F00082E08093CE051092CA058091E1008E7F03
:104600008093E1008091E2008E7F8093E2008091B0
:10461000E20080618093E20042E060E080E00E947E
:1046200063218091F00088608093F0000E94061F53
:10463000FF91EF91BF91AF919F918F917F916F917A
:104640005F914F913F912F910F900FBE0F901F9050
:10465000189519BC1092CE050E94031F70CF80914F
:10466000E30087FD93E09093CE05B3CF1F920F92A6
:104670000FB60F9211242F933F934F935F936F9335
:104680007F938F939F93AF93BF93CF93DF93EF93DA
:10469000FF93D091E900DF708091EC00C82FC170CA
:1046A00080FDC0E81092E9008091F000877F809340
:1046B000F00078940E947A231092E9008091F00033
:1046C00088608093F000CD2BCF70C093E900FF91FC
:1046D000EF91DF91CF91BF91AF919F918F917F919A
:1046E0006F915F914F913F912F910F900FBE0F905F
:1046F0001F9018951F93CF93DF93CDB7DEB7AA977E
:104700000FB6F894DEBF0FBECDBF8FEC95E02091C1
:10471000F100FC012193CF01F5E0873D9F07B9F738
:104720000E94141F8091E80083FF1EC18091CF0575
:104730009091D0059A3008F017C1E92FF0E0E957C1
:10474000F94D0C944C25803899F0823809F00CC151
:104750008091D3058F70873008F006C18093E900FF
:104760008091EB0085FB882780F91092E90006C054
:104770008091CB059091CC05911182609091E800D9
:10478000977F9093E8008093F1001092F100809160
:10479000E8008E77E5C0882309F4D3C0823009F0A1
:1047A000E3C08091D1058111D6C08091D3058F706F
:1047B0002FEF280F263008F0D7C08093E900209112
:1047C000EB0020FFC8C0933031F48091EB00806291
:1047D0008093EB00C0C09091EB0090619093EB0050
:1047E00021E030E001C0220F8A95EAF72093EA0029
:1047F0001092EA008091EB008860EACF8111B4C08A
:104800001091D1051F778091E3008078812B8093F0
:10481000E3008091E800877F8093E8000E94972161
:104820008091E80080FFFCCF8091E3008068809356
:10483000E30082E0111183E08093CE0595C080589B
:10484000823008F091C08091D1059091D2058C3DC5
:1048500023E09207A1F583E08A838AE289834FB738
:10486000F894DE01139620E03EE051E2E32FF0E001
:1048700050935700E49120FF03C0E295EF703F5F33
:10488000EF708E2F90E0EA30C0F0C7968D939D9325
:104890002F5F243159F74FBF8091E800877F8093C5
:1048A000E8006AE270E0CE0101960E94A6208091A5
:1048B000E8008B778093E80057C0C096E7CF6091FF
:1048C000D3057091D405AE014F5F5F4F0E94FD1F6D
:1048D000BC01892B09F448C09091E800977F909320
:1048E000E80089819A810E940421E1CF8038E1F5B6
:1048F0008091E800877F8093E8008091CA058093CB
:10490000F10045CF811130C09091D105923060F512
:104910008091E800877F8093E8009093CA050E9409
:1049200097218091CA05882311F084E005C0809109
:10493000E30087FDFACF81E08093CE050E940A1F35
:1049400013C08091D105813079F481E0933009F072
:1049500080E08093CC051092E9008091E800877F89
:104960008093E8000E9497218091E80083FF0AC0AD
:104970008091E800877F8093E8008091EB0080625F
:104980008093EB00AA960FB6F894DEBF0FBECDBFA2
:10499000DF91CF911F9108950895CF938091CE0517
:1049A0008823A1F0C091E900CF709091EC00892F8D
:1049B000817090FD80E8C82B1092E9008091E8009A
:1049C00083FD0E947A23CF70C093E900CF910895B0
:1049D000991B79E004C0991F961708F0961B881F51
:1049E0007A95C9F78095089587FB082E062687FDDE
:1049F000819567FD61950E94E8240EF4919507FC6E
:104A000081950895AA1BBB1B51E107C0AA1FBB1FBC
:104A1000A617B70710F0A61BB70B881F991F5A954A
:104A2000A9F780959095BC01CD01089597FB072EBD
:104A300016F4009407D077FD09D00E94022507FCE8
:104A400005D03EF4909581959F4F0895709561959E
:104A50007F4F0895A1E21A2EAA1BBB1BFD010DC0BA
:104A6000AA1FBB1FEE1FFF1FA217B307E407F5071E
:104A700020F0A21BB30BE40BF50B661F771F881FFA
:104A8000991F1A9469F760957095809590959B0190
:104A9000AC01BD01CF010895EE0FFF1F0590F49109
:104AA000E02D09940E945A25332312F48A1B9B0B94
:104AB0000C946B25A29FB001B39FC001A39F700D02
:104AC000811D1124911DB29F700D811D1124911D16
:104AD00008950E945A25B7FF0895821B930B0895ED
:104AE0000E945A25A59F900DB49F900DA49F800D04
:104AF000911D11240895B7FF0C9470250E94702514
:104B0000821B930B08958F929F92AF92BF92CF9288
:104B1000DF92EF92FF92CF93DF93EC01688179816E
:104B20008A819B81611571058105910521F464E2FB
:104B300079ED8BE597E02DE133EF41E050E00E9405
:104B4000342649015A019B01AC01A7EAB1E40E9455
:104B500070256B017C01ACEEB4EFA50194010E94BD
:104B60007E25DC01CB018C0D9D1DAE1DBF1DB7FF49
:104B700003C00197A109B04888839983AA83BB83A6
:104B80009F77DF91CF91FF90EF90DF90CF90BF9014
:104B9000AF909F908F9008950E948325089580E0A4
:104BA00091E00E9483250895B0E0A0E08093000189
:104BB00090930101A0930201B09303010895FC01B9
:104BC0004150504030F001900616D1F73197CF0197
:104BD0000895882799270895F999FECF92BD81BD40
:104BE000F89A992780B50895A6E1B0E044E050E036
:104BF0000C942626A8E1B0E042E050E00C94262672
:104C0000262FF999FECF92BD81BDF89A019700B485
:104C1000021639F01FBA20BD0FB6F894FA9AF99A25
:104C20000FBE08950396272F0E9401260E9400269A
:104C3000252F0E940126242F0C9401260196272F50
:104C40000E9401260C940026DC01CB01FC01F9999D
:104C5000FECF06C0F2BDE1BDF89A319600B40D92C8
:104C600041505040B8F70895052E97FB1EF400946C
:104C70000E944B2657FD07D00E942A2507FC03D02F
:104C80004EF40C944B2650954095309521953F4F0E
:104C90004F4F5F4F089590958095709561957F4F28
:104CA0008F4F9F4F0895F894FFCF580E600E670EF8
:104CB0006C0E710E760E7B0E800E850E8A0E8F0E98
:104CC000940E980E9D0EA00EA30EA60EA90EAB0E6E
:104CD000AE0ECA13CA13221422147414F713F71356
:104CE000F71390141C152B152B158715F713F713B5
:104CF0009015011601160A160A160C160A160A163F
:104D00000A160116011611160A160A161116A32301
:104D1000CB23B424CB23B424FE231F24B424762431
:024D20008224EB
:104D220001000000010102005800585801191A1B25
:104D32001C1D1E1F2021224004761EB51E791EB1A5
:104D42001EAD1E01E200E900EA00B500B600B700A0
:104D5200CD008301CC008A01920194012102230239
:104D620024022502260227022A02B300B4006F00A1
:104D7200700081828330313233F4F5F6F73635979D
:104D82003496F0916694939237F16795000102028E
:104D920002020606060909090909090F0F0F0F0F7A
:104DA2000F1515151819191919191919191919237E
:104DB20024252525252525E200E900EA00B500B6CF
:104DC20000B700CD008301CC008A01920194012139
:104DD20002230224022502260227022A02B300B479
:084DE200006F00700081828364
:00000001FF
