:100000000C94D7020C941E030C941E030C941E0334
:100010000C941E030C941E030C941E030C941E03DC
:100020000C941E030C941E030C9470220C94442315
:100030000C94A81D0C941E030C941E030C941E0318
:100040000C941E030C941E030C941E030C941E03AC
:100050000C941E030C94FF1D0C941E030C941E03A1
:100060000C941E030C941E030C941E030C941E038C
:100070000C941E030C941E030C941E030C941E037C
:100080000C941E030C941E030C941E030C941E036C
:100090000C941E030C941E030C941E030C941E035C
:1000A0000C941E030C941E030C941E0329000000E4
:1000B0003A003B003C003D003E003F004000410054
:1000C0004200430044004500460047004800350018
:1000D0001E001F0020002100220023002400250014
:1000E000260027002D002E002A0049004A004B0060
:1000F0002B0014001A000800150017001C0018003F
:100100000C00120013002F00300031004C004D0095
:100110004E00390004001600070009000A000B0019
:100120000D000E000F003300340028000000000016
:1001300000000000E10000001D001B000600190087
:10014000050011001000360037003800E5000000FF
:10015000000052000000E000E300E20000000000A8
:100160002C00000000000000E60001516500E400E2
:100170005000000051004F00005C00000100010031
:100180000100010001000100010001000100010067
:1001900001000100CE5CCF5CD05C010001000100D9
:1001A0000100010001000100010001000100010047
:1001B000010001000100C65CC85CCA5C01000100CE
:1001C0000100010001000100010001000100010027
:1001D0000100010001000100C75CC95CCB5C0100AB
:1001E0000100010001000100010001000100010007
:1001F00001000100010001000000000000000000FB
:100200000100000001000100010001000100145C78
:100210000100010001000100010000000000CD5CB0
:1002200000000100010001000000000001000000CA
:10023000000000000100010001000100C55C000099
:10024000C35CC45C1E0F0500047F3F1F643214644E
:100250003214783C1E1E140A052223252628292A3A
:100260002C2D2F3032333536383A3B3D3E40424319
:100270004547494A4C4E5051535557595A5C5E6058
:1002800062646668696B6D6F71737577797B7D7F6A
:1002900081838587898A8C8E90929496989A9C9E69
:1002A0009FA1A3A5A7A8AAACAEAFB1B3B4B6B8B985
:1002B000BBBCBEBFC1C2C3C5C6C7C9CACBCCCDCEED
:1002C000D0D1D2D2D3D4D5D6D7D7D8D9D9DADADBD0
:1002D000DBDBDCDCDCDCDCDDDDDDDDDCDCDCDCDC5C
:1002E000DBDBDBDADAD9D9D8D7D7D6D5D4D3D2D29B
:1002F000D1D0CECDCCCBCAC9C7C6C5C3C2C1BFBE83
:10030000BCBBB9B8B6B4B3B1AFAEACAAA8A7A5A3ED
:10031000A19F9E9C9A98969492908E8C8A898785AC
:1003200083817F7D7B79777573716F6D6B6968668B
:100330006462605E5C5A5957555351504E4C4A495D
:1003400047454342403E3D3B3A3836353332302F05
:100350002D2C2A292826252322FFAA7F554000017B
:100360000101010101010101020202020202020275
:100370000203030303030303030404040404040447
:10038000050505050506060606060707070707080B
:10039000080808090909090A0A0A0B0B0B0C0C0CBE
:1003A0000D0D0D0E0E0E0F0F0F1010111111121258
:1003B00013131414151516161717181819191A1AD5
:1003C0001B1B1C1D1D1E1E1F202021222223242436
:1003D000252626272829292A2B2C2D2D2E2F303172
:1003E0003232333435363738393A3B3C3D3E3F4084
:1003F0004142434445464748494A4C4D4E4F50516F
:100400005354555658595A5B5D5E5F616264656628
:1004100068696B6C6D6F7072737577787A7B7D7EAF
:100420008082838587888A8C8E8F91939596989AFF
:100430009C9EA0A2A3A5A7A9ABADAFB1B3B5B7BA17
:10044000BCBEC0C2C4C6C9CBCDCFD1D4D6D8DBDDEB
:10045000DFE2E4E7E9EBEEF0F3F5F8FAFDFF340351
:10046000630061007000730075006E006C006F0027
:1004700063006B00650064002F00630075003800A6
:1004800030002F00760032005F0061006E007300C4
:10049000690000001A0343006100700073005500FA
:1004A0006E006C006F0063006B006500640000006C
:1004B0000403090409023B00020100A0FA09040038
:1004C0000001030101000921110100012240000780
:1004D00005810308000A0904010001030000000966
:1004E0002111010001226D000705820320000A127C
:1004F00001100100000008554381000100010200C5
:100500000105010980A101850319012AB700150120
:1005100026B700950175108100C0050C0901A101E5
:10052000850419012AA002150126A0029501751063
:100530008100C005010906A1018505050719E0290B
:10054000E7150025019508750181020507190029A5
:10055000EF1500250195F0750181020508190129A3
:1005600005950575019102950175039101C005017D
:100570000906A101050719E029E7150025019508DD
:10058000750181029501750881010507190029FF90
:10059000150026FF00950675088100050819012938
:1005A00005950575019102950175039101C011240E
:1005B0001FBECFEFDAE0DEBFCDBF04B603FE27C01B
:1005C0008091CF059091D005A091D105B091D20531
:1005D0008730904BA740B04BD1F41092CF051092CA
:1005E000D0051092D1051092D20514BE84B7877F32
:1005F00084BF0FB6F894A8958091600088618093BD
:100600006000109260000FBEE0E0F8E3099511E091
:10061000A0E0B1E0EEE3FDE402C005900D92A83C3D
:10062000B107D9F725E0A8ECB1E001C01D92AF3CBD
:10063000B207E1F70E94D91F0C9461260C940000C8
:1006400081E0089581E008950C94220308950C94AC
:1006500026031F93CF93DF9300D000D00F92CDB726
:10066000DEB749835A836B833091B70389819A81BE
:1006700031111DC06623B9F02223A9F00E94EA1AA5
:10068000182F682F89819A810E94961A69817A8130
:10069000812F0F900F900F900F900F90DF91CF91BF
:1006A0001F910C94E1030E94C21A182FEFCF0E94F1
:1006B000EA1A69817A81EDCFFC01262F40815181B0
:1006C0006281738184810C942903CF93DF93EC01C1
:1006D00060E00E945C03BE01DF91CF910C94270380
:1006E0000E944E1E0E94361C811102C00E94DA1C1C
:1006F0000C94E4050C94E70508950E9400160E94EE
:100700007C032FEF84E39CE0215080409040E1F790
:1007100000C000000C94231E0F931F93CF93DF9310
:10072000EC0161E00E945C038C01BE010E94240385
:10073000882359F1BE01C8010E94580F882329F16E
:10074000BE01C8010E94AA0F8823F9F0BE01C801AA
:100750000E94CD108823C9F0BE01C8010E94500E2E
:10076000882399F08A81882339F001158CE51807D0
:1007700051F00F3D1C4579F0CE01DF91CF911F91D3
:100780000F910C9420030E947D0380E0DF91CF91B4
:100790001F910F9108950E94DA1CF7CF08950C94D1
:1007A000CE0381E008950C94D103CF93C82F0E940B
:1007B000CF038C2FCF910C94D30390E080E0089569
:1007C0000895972F70E021E1929F600D711D112413
:1007D000FB0196E6899FE00DF11D1124EE0FFF1F2E
:1007E000E455FF4F859194910895FC01EE0FFF1F92
:1007F000EC5BFD4F859194910895CF93DF930E9418
:10080000E1030E940905EC01811520E5920708F03B
:1008100041C0811530E4930708F0B4C0803E9105D3
:1008200018F5803C910508F09DC0883A910570F458
:10083000853A910508F08EC081309105F9F0009756
:10084000E9F00497D8F4D0E0C0E018C08F3B9105E0
:10085000D0F7C85AD0E0CC0FDD1FCC5DDE4F099039
:10086000D881C02DD4640AC08115904258F4C115B6
:1008700081E0D80718F4C83ED10528F7CE01DF91F2
:10088000CF910895C11590E3D90708F071C0CE014A
:100890009F706AC0811525E5920758F5811534E5EA
:1008A000930708F09EC0811542E5940750F4C115E6
:1008B00081E5D80708F469C0DC2FCC27C16FD06A66
:1008C000DDCF982F969596959E0123703327C115FD
:1008D000D34508F077C0C1E0D0E002C0CC0FDD1FE7
:1008E0002A95E2F720E2929FC0011124C82BD92B50
:1008F00067C0C11589E5D807A8F4C11598E5D907DF
:1009000008F074C0C11526E5D20708F09CCF8C2FE3
:100910000E94A005C82FD0E0DC2FCC27CC27DF71A8
:10092000D062ACCFC1153AE5D30708F464C0CE015C
:1009300090568115904208F086CF8D2F8F710E94BE
:10094000A00590E0982F882788279F719C012C2B69
:10095000E901E6CFC55AD0E0CE5ADE4FC881D0E0DB
:10096000D0648CCF805C91090E94F503EC0186CFA6
:10097000CE019927D3FF03C0EC01D86C7FCFEC01E7
:10098000D06C7CCFDF70D06A79CFCE01E4E0969551
:100990008795EA95E1F783702C2F2695269523708D
:1009A00090E2299F90011124382B8C2F8370C1E095
:1009B000D0E002C0CC0FDD1F8A95E2F7C22BD32B0B
:1009C000DC685CCFC1E0D0E002C0CC0FDD1F2A950F
:1009D000E2F730E2939FC0011124C82BD92BDA68CB
:1009E0004DCFD82FCC27C46FD06A48CFDC2FCC276F
:1009F000C06FD06A43CF8C2F8F700E94A00534E067
:100A0000D695C7953A95E1F7CF709C2FEC01D06948
:100A100035CF82389105B1F1B0F48133910509F4F5
:100A200075C048F48932910509F469C08A3291058C
:100A300009F473C008958533910509F459C08933C9
:100A4000910501F10895833E9105A9F138F4803EA6
:100A50009105F9F0823E910549F10895863E910590
:100A6000A9F1873E9105C9F1843E910519F52091C0
:100A7000C10521FF1FC08091C00584FD14C087EE11
:100A800090E008952091C0052370A1F080EE90E0E1
:100A900008952091C00520FD47C03091C10530FF69
:100AA00009C024FF44C090E080E004C02091C0054C
:100AB00022FDF7CF08952091C00522FD3BC0309163
:100AC000C10530FDE3CF24FFF5CFEDCF2091C00568
:100AD00023FFF0CF24FDE7CFD2CF2091C00523FD27
:100AE0002CC03091C10531FFEECF84EE90E0089527
:100AF0002091C00525FFDECF89E290E00895209186
:100B0000C00525FFD7CF85E390E008952091C0056B
:100B100026FFD0CF8AE290E008952091C00526FFFD
:100B2000C9CF81E390E0089589E390E0089583EED2
:100B300090E0089582EE90E0089586EE90E00895AA
:100B40009091C00592FF06C0282F28712830F9F433
:100B5000877F846093FF06C0282F28712831F1F425
:100B6000877E84612091C10520FF06C0382F38712F
:100B70003830D9F4877F816021FF06C0282F287183
:100B80002831D1F4877E816194FD877E0895282FD6
:100B900024712430F9F68B7F8860DCCF282F2471F4
:100BA000243101F78B7E8861DDCF382F31713130F0
:100BB00019F78E7F8860E0CF282F2171213121F72E
:100BC0008E7E8861E1CF08950C94E30508950C941E
:100BD000E60594E0899FF0011124E656FB4F608101
:100BE0007181828193810895089580EA8A95F1F751
:100BF000089500C008950C94F505F894E82FE29547
:100C0000EF70F0E031A1282F2F7081E090E001C05B
:100C1000880F2A95EAF7982F9095932391A392A194
:100C2000892B82A3789408950F931F93CF93DF931A
:100C300083E90E94FD0582E90E94FD0587E30E9489
:100C4000FD0581EF0E94FD0587E60E94FD0585E90F
:100C50000E94FD05C5E5D1E006E611E089910E94FC
:100C6000FD050C171D07D1F7E2E8F4E0AAE9B4E0AE
:100C700011921192119211921D921D921D921D922C
:100C800084E0EA39F807A1F786E00E94F006DF91D8
:100C9000CF911F910F910C9470034F925F926F92BE
:100CA0007F928F929F92AF92BF92CF92DF92EF92FC
:100CB000FF920F931F93CF93DF9336E6A32E31E07D
:100CC000B32E02E814E0D0E0C0E088248394912C95
:100CD000F50181915F01F894E82FE295EF70F0E063
:100CE00021A18F70240102C0440C551C8A95E2F7A3
:100CF000C201922F982B91A392A18095892382A360
:100D000078940E94F905A5E5B1E090E080E0C12C5F
:100D1000D12C76014D91E42FE295EF70F0E020A107
:100D200030E04F7002C0359527954A95E2F720FDD7
:100D300051C0412C512C32014394082E04C0440C64
:100D4000551C661C771C0A94D2F7B301A201C42A71
:100D5000D52AE62AF72A019681319105D9F6F501BF
:100D6000319780810E94FD05D53011F00E94FB056E
:100D7000F80180819181A281B381C816D906EA0663
:100D8000FB0661F1C082D182E282F38281E0C82B4E
:100D9000DF5F0C5F1F4FD63009F09ACF2C2F46E053
:100DA0006AE974E082E894E00E94F1060E947A0306
:100DB0008C2FDF91CF911F910F91FF90EF90DF90DB
:100DC000CF90BF90AF909F908F907F906F905F90EB
:100DD0004F90089540E050E0BA01B9CF80E0D7CFFE
:100DE0000895FF920F931F93CF93DF93F82ED92F7F
:100DF0008B01C42F222349F081E08093CC010E9413
:100E0000D81D9093CB018093CA018091CC01882397
:100E100099F08091CA019091CB010E94F01D069734
:100E200058F0EF2DFD2FD80190E080E0D0E08C1736
:100E30009D0744F01092CC01DF91CF911F910F914B
:100E4000FF90089501911191219131910D931D937E
:100E50002D933D930196EBCFEF92FF920F931F934B
:100E6000CF93DF93EB01E82FD11110C0442321F081
:100E7000F0E0E25AFC4FE4916E2F7E2F8E2FDF912F
:100E8000CF911F910F91FF90EF9008950D2F10E0DB
:100E9000282F30E0442329F0225A3C4FF9012491B5
:100EA00030E0F6E0CF9FC0011124EFEFF0E0BF018A
:100EB0000E941025AB018C2F90E0880F991FA5E5AB
:100EC000A49FB001A59F700D1124861B970B982F2E
:100ED000990F980FBF01601B710B629FD001639F38
:100EE000B00D729FB00D11248B2F9D9FB001112466
:100EF000672F7727EF01C61BD70BBE01629FE0016A
:100F0000639FD00D729FD00D11247F01E91AF10863
:100F1000E09EB001E19E700DF09E700D1124672FD0
:100F20007727E61BF70BE29F8001E39F100DF29FEE
:100F3000100D1124E12F722F4230510599F048F421
:100F40004115510569F04130510581F0EB2F8D2F8E
:100F500007C04430510569F080F046305105B1F7C3
:100F60006E2F8DCFE22F7B2F812FFACFE22F7D2F97
:100F7000F7CFEB2F822F712FF3CF7B2F822FED2F07
:100F8000EFCF41E00C942C0708950C94C107CF9348
:100F9000DF93762FE901682F842F0E94C50779839C
:100FA00068838A83DF91CF910895433308F042E349
:100FB0000C94C7078091B204982F9E7F61F48170D2
:100FC00082608093B2048091B504833318F082E389
:100FD0008093B50408958635B0F381708465F1CFB0
:100FE00088E090E00C940226CF92DF92EF92FF927D
:100FF0006B017C010E94DA07B701A60188E090E04E
:10100000FF90EF90DF90CF900C942026E2EBF4E07D
:1010100083E0808311828FEF828382E38383148253
:1010200060817181828193810C94F4078091B20474
:1010300080FF02C08695089580E008959091B604DF
:10104000933018F49F5F9093B604882351F0609119
:10105000B2047091B3048091B4049091B5040C94DF
:10106000F407089581E00C941E089091B60499232A
:1010700019F091509093B604882351F06091B20416
:101080007091B3048091B4049091B5040C94F4076A
:10109000089581E00C94350870E00C94C00E6091C6
:1010A00008018091B20480FF0AC08091070123E00B
:1010B000829FC001112489549B4F0C944C0880914D
:1010C000090190910A0123E0829FF0011124E95463
:1010D000FB4F891750F71182108212828F5F33966F
:1010E000F8CF9091B20490FF14C090910901209123
:1010F0000A0133E0939FF0011124E954FB4F92174A
:1011000010F00C944F088183608342839F5F339675
:10111000F6CF0895CF93DF9300D00F92CDB7DEB70F
:101120009091B20490FF0AC09E012F5F3F4F0E9432
:10113000D5074B8169818A810E9471080F900F90B9
:101140000F90DF91CF910895CF93DF93EC01EC8165
:10115000F0E0E75AFD4F4491E2EBF4E062818181D7
:101160000E948A088C818F5F8C83DF91CF910895D4
:10117000CF93DF93EC01E2EBF4E0438162818C8159
:101180000E948A088C818F5F8C83DF91CF910895B4
:101190000F931F93CF93DF9300D00F92CDB7DEB79D
:1011A0008C018091CD0181110AC09E012F5F3F4FBC
:1011B00042E36FEF0E94D5078A818093CD01F80149
:1011C0006481613069F08091CD0140E0662361F077
:1011D00040E0623011F44091CD0180E060E004C055
:1011E0006091CD0140E080E00E947108F8018481A7
:1011F00090E0019663E070E00E94242584830F90C4
:101200000F900F90DF91CF911F910F910895AF92A2
:10121000BF92CF92DF92EF92FF920F931F93CF93E3
:10122000DF9300D00F92CDB7DEB7182FF62E042F24
:10123000E22E9091B20490FF29C0E92FE695AE2FDF
:10124000B0E0A459BE4F8C9180938A039E7F923068
:1012500059F59E012F5F3F4F812F0E94D5074B818B
:1012600069818A810E9471081093B304F092B404DA
:101270000093B504EE2051F06091B2047091B30474
:101280008091B4049091B5040E94F4070F900F90E0
:101290000F90DF91CF911F910F91FF90EF90DF9012
:1012A000CF90BF90AF900895823019F40091B504AB
:1012B000DBCF863019F41091B304D6CF8930D9F33F
:1012C000893191F6E9518E2F8170D82EE695F0E0A4
:1012D000E75AFC4FA590B490C12CBB2460910B0140
:1012E000C61618F00E944F08BFCF2C2D30E0A29EEA
:1012F000C001A39E900DB29E900D112470E00E943B
:101300001025812FD11013C0860F40910901420F83
:10131000532F511D9A01220F331F240F351F2954BB
:101320003B4F402F6F2D0E94D507C394D7CF861B0C
:10133000ECCFE2EBF4E09181282F4381628188E0D9
:10134000890F0C94070981E00C949909E2EBF4E011
:101350009181282F4381628188EF890F0C940709BE
:1013600081E00C94A609E2EBF4E0628128E0620FD0
:1013700008F46FEF282F438181810C94070981E0E5
:101380000C94B309E2EBF4E0628128E0621B08F4FC
:1013900060E0282F438181810C94070981E00C943F
:1013A000C209E2EBF4E0438128E0420F08F44FEF7A
:1013B000282F628181810C94070981E00C94D10966
:1013C000E2EBF4E0438128E0421B08F440E0282FE0
:1013D000628181810C94070981E00C94E00920E08E
:1013E0000C940709EF92FF921F93CF93DF93EC01C8
:1013F00010E0EE24EA94F12C60910B01161770F0C6
:101400000E944F089A818C8190FF27C08F5F8C8348
:10141000DF91CF911F91FF90EF90089520910901E6
:10142000422F410F5527551FCA019A01220F331F22
:10143000280F391F29543B4F70E0C7010E94242513
:10144000962F8C814091B5046091B404199F800D52
:1014500011240E94D5071F5FCFCF8150D8CFAF9204
:10146000BF92CF92DF92EF92FF920F931F93CF9391
:10147000DF93FC0182810FEF80FF01E010E047E580
:10148000A42E80910B011817C8F00E944F0880917C
:10149000CF01013009F055C0811102C080910B01CC
:1014A00081508093CF01DF91CF911F910F91FF90D9
:1014B000EF90DF90CF90BF90AF900895C091090159
:1014C000C12ED12CCC0DDD2DD11DCE01880F991F41
:1014D000C80FD91FC954DB4F198218821A8234E011
:1014E000E32EF12CB12C8091CF018B0D88351CF1AE
:1014F0006A2D0E940225892F082E000C990BC81610
:10150000D90691F48091B5048E9DA0018F9D500D58
:10151000112455954795559547959E016091B404C2
:101520008091B3040E94D507B00EF1E0EF1AF108E4
:10153000D1F61F5FA6CF87FFDFCF90910B01890FF8
:10154000DBCF90E0019660910B0170E00E942425B2
:10155000A8CF0F931F93CF93DF93809109019091B0
:101560000A0123E0829FF0011124E954FB4F8917FF
:1015700040F1C0E0D3E060910B01C61740F10E943A
:101580004F08209105018091CE01820F8093CE01FA
:1015900090910601920F90930601191654F4082EAB
:1015A000000C990B40910B014150550B8417950786
:1015B0001CF0219520930501DF91CF911F910F9190
:1015C00008951182108212828F5F3396D0CF0C2F34
:1015D00010E070E0C8010E94242520910901820FCB
:1015E000482F50E02091CE01022E000C330B021741
:1015F0001307BCF020910601022E000C330B2017BC
:1016000031077CF08D9F9001112429543B4F40916C
:10161000B5046091B4048091B3040E94D507CF5FF4
:10162000AACFFA01EE0FFF1FE40FF51FE954FB4F9D
:10163000118210821282F3CF8F929F92AF92BF924B
:10164000CF92DF92EF92FF920F931F93CF93DF938E
:10165000EC014C81042F10E09801D8010E9468250C
:101660009B01AC010E947E254B015C01E0E2F0E0B1
:10167000E01BF10BA5E5B0E0AC019B010E947E25CB
:101680006B017C019F01DF010E9460259B01AC0181
:101690000E9489259B01AC01280D391D4A1D5B1D47
:1016A000C701B6010E943825F22E822F90E039E260
:1016B0003F1560F143E0249F900111243595279553
:1016C000122F109500E085E5E82EEF1880910B01B0
:1016D000081758F10E944F089C8181E0992319F066
:1016E000903219F48FEF8093040180910401890FE7
:1016F0008C83DF91CF911F910F91FF90EF90DF903E
:10170000CF90BF90AF909F908F90089525E530E0E7
:10171000B901681B790B9B01220F331F260F371F5E
:1017200037FFCCCF2F5F3F4FC9CF8E2D01FD8F2DBF
:1017300020910901622F600F7727771F9B01220FED
:10174000331F260F371F29543B4F412F6091B4049C
:101750000E94D5070F5FBACF0F931F93CF93DF93EC
:10176000EC0110E000E090910B019017110609F0D8
:101770006CF40E944F088C8190E00196817099274B
:101780008C83DF91CF911F910F91089520910901D2
:10179000A801420F511D9A01220F331F240F351F3C
:1017A00029543B4F4C816091B4048091B3049695C9
:1017B0009017110651F04CF0442349F04091B504C4
:1017C0000E94D5070F5F1F4FCECF4423B9F340E0EF
:1017D000F7CF4F925F926F927F928F929F92AF92CC
:1017E000BF92CF92DF92EF92FF920F931F93CF930E
:1017F000DF93FC016280448081E08483E9E5F2E0CC
:101800007490E8EDF2E0E491812C75E0972EF2E01F
:10181000CF2EDD24D394AA24AA94B12C55245A9413
:10182000E7190E2F10E080910B01881690F0DF91E0
:10183000CF911F910F91FF90EF90DF90CF90BF90CD
:10184000AF909F908F907F906F905F904F900C948F
:101850004F08E82CF12C82E0861568F09E9CF00180
:101860009F9CF00D1124E053FE4F8091B3048083C0
:101870008091B4048183411023C09E9CF0019F9C01
:10188000F00D1124E053FE4F1382128220910901C2
:10189000C701820F911D9C01220F331F280F391F92
:1018A00029543B4F9E9CF0019F9CF00D1124E05366
:1018B000FE4F4281618180810E94D5078394B3CF1E
:1018C0009E9CE0019F9CD00D1124C053DE4F8B8164
:1018D0008823E9F081508B83859DC00111246C81A0
:1018E00070E00E941025FB01FF27E75AFD4F84910D
:1018F000E82FE719E59DC0011124B8010E941025C9
:101900008091B504689FB00111247A83BFCF0E94F3
:10191000DD252091B504269521582C9DA0012D9DF3
:10192000500D1124452F5527841795070CF0AECF85
:1019300082E0861588F40E94DD25B5010E942425E9
:1019400088830E94DD252091B4042695622F70E0E3
:101950000E942425280F29839E9CF0019F9CF00D56
:101960001124E053FE4F12828091B504893C58F057
:1019700088EC9E9CF0019F9CF00D1124E053FE4FDB
:101980008483838383CF8431A0F784E1F2CFE2EBB9
:10199000F4E080818E7F8083608171818281938178
:1019A0000E94F40710928B032FEF80E792E0215002
:1019B00080409040E1F700C000000C944F08609117
:1019C000B204669570E04BE050E08CE091E00E943C
:1019D000ED25892B19F481E080938B030E94D81D9B
:1019E000909384038093830308959091B20490FFB1
:1019F00035C09170811128C092609093B204662323
:101A000051F06091B2047091B3048091B40490914C
:101A1000B5040E94F4076091B204669570E04BE053
:101A200050E08CE091E00E94ED25892BA1F010920E
:101A30008B0381E0809386034091B5046091B404E8
:101A40008091B3040C94EF098B3210F09465D5CFDC
:101A5000880F982BD2CF0E94DF0CEBCF0895682F10
:101A60009091B204969581E0890F8B3208F081E065
:101A70000C94F50C81E00C942F0D682F9091B2041A
:101A800096958FEF890F09F48AE20C94F50C81E0AA
:101A90000C943D0D61E00C94F50CE2EBF4E08081D8
:101AA0008160808386950C944A0D8091B20480FDFC
:101AB0000C94C70C0C944D0D60E00C94F50C8091C7
:101AC000890381112EC00E94361C811104C00E941E
:101AD000DA1C0E9406080E94F0076093B20470931B
:101AE000B3048093B4049093B5046E7F61F40E94B4
:101AF00006080E94F0076093B2047093B3048093C9
:101B0000B4049093B5040E94DA0710928B0380917D
:101B1000B20480FF03C086950E945C0D81E0809333
:101B2000890308950F931F93CF93DF9380918B03C5
:101B3000882309F496C080918A03E091B204E69567
:101B4000E81BE0938503823091F5F0E0EB5AFD4FFE
:101B5000E491CE2FD0E004EA18E080918603882338
:101B600061F0109286030E94D81D909384038093A5
:101B7000830310928803109287030E94D81DE0917E
:101B80008303F09184038E1B9F0B8F3F9F4708F0C8
:101B900068C0EC0FFD1FF0938403E093830383E898
:101BA00093E0F801DF91CF911F910F910994863056
:101BB00049F4F0E0EE5AFD4FE491CE2FD0E008EB6F
:101BC00018E0CBCF893051F4E695F0E0E15BFD4FB2
:101BD000E491CE2FD0E002EF19E0BFCF8F3051F467
:101BE000E695F0E0E45BFD4FE491CE2FD0E00FE20C
:101BF0001AE0B3CF853149F4F0E0E75BFD4FE491A3
:101C0000CE2FD0E009EA1AE0A8CFC8E2D0E00CE17C
:101C10001BE0883109F4A1CF833239F4E7E4F2E024
:101C2000C591D49108EC18E098CFC4EFD1E00CEA4C
:101C30001BE0843209F491CFC0EDD7E004EC17E04B
:101C4000853209F08ACF8E2F63E00E94F624E92FB7
:101C5000F0E0EC5BFD4FE491CE2FD0E009EE1BE00D
:101C60007CCFDF91CF911F910F910895FA018111DF
:101C700001C0FB010994CF93DF93C82FD62F0E9498
:101C800016088C1740F00E9416088D1720F4DF917B
:101C9000CF910C943A0D8C2FDF91CF910C944A0D7B
:101CA0000F931F93CF938C01FB01C281CC2309F4C6
:101CB00065C00E947F1B8272F801E35CFC45E43141
:101CC000F10538F4ED59F94D0C945A250E94550D43
:101CD000C0E08C2FCF911F910F91089547E45DE0F4
:101CE0006AE37DE00E94360EF3CF4AE35DE067E4ED
:101CF0007DE0F8CF40EB59E063EA79E0F3CF43EAC7
:101D000059E060EB79E0EECF4EEC59E06FEB79E013
:101D1000E9CF4FEB59E06EEC79E0E4CF4CEE59E0BF
:101D20006DED79E0DFCF4DED59E06CEE79E0DACF83
:101D300049E458E062E378E0D5CF42E358E069E453
:101D400078E0D0CF81E00E944A0DC2CF65E082E00A
:101D50000E943B0EBDCF68E086E0FACF6EE089E0DE
:101D6000F7CF64E18FE0F4CF67E185E1F1CF88E15F
:101D7000EACF62E289E1ECCF83E2E5CFC1E0A9CF0F
:101D80006E9A4EB14F7B5EB15064EFB7F8949B01F1
:101D9000220F331F260F371F280F391F2817390727
:101DA00041F4EFBF8FE594E00197F1F700C0000028
:101DB0000895DC016D91CD0178E05EB9000000C0AE
:101DC00067FF4EB9660F000000C000C000C04EB9EA
:101DD00000C07A9591F7E2CF0F931F93CF93DF93D3
:101DE000C42FD22FFC0182818823C9F040938E0337
:101DF0000E94D81D90938D0380938C0380E28C0FFA
:101E0000883008F050C0C77081E001C0880FCA95C3
:101E1000EAF7DF91CF911F910F910C9496131091D7
:101E20008E03141335C080918C0390918D030E9412
:101E3000F01D883C910560F5C0E2CD0F1D17B9F08B
:101E400080E2810F883040F4177081E001C0880F74
:101E50001A95EAF70E949D13C83048F481E09D2F3F
:101E6000977001C0880F9A95EAF70E949613802F09
:101E70000E948E13C830B8F4D77081E001C0880F7B
:101E8000DA95EAF7DF91CF911F910F910C949D1392
:101E900080E28C0F883038F4C77081E001C0880F71
:101EA000CA95EAF7EFCFDF91CF911F910F91089577
:101EB0000F939C01CB01243F4CE5340759F1A8F462
:101EC000293DFCE53F0701F12A3D4CE53407D1F1FE
:101ED000283D3C4591F406E221EE41EE68ED7CE5BB
:101EE0000E94EC0E80E00F910895263FFCE53F072D
:101EF000E9F0B0F0273F3C45F9F0FC0182818823EE
:101F000039F110928E03EFCF07E225EE45EE69ED31
:101F10007CE5E6CF06E221EE40EE64EF7CE5E0CF23
:101F200007E225EE44EE65EF7CE5DACF06E221EE2E
:101F300042EE66EF7CE5D4CF07E225EE46EE67EF92
:101F40007CE5CECF08E221E045EE6AED7CE5C8CF26
:101F500081E0C9CFCF93DF93EC01FB01828188231D
:101F600009F419C1C230FCE5DF07C0F1C6319CE5B8
:101F7000D90730F09E012B5F3C452930310570F5C3
:101F80000E94491C9093C1058093C005C031ECE5C7
:101F9000DE0709F4CFC008F05BC0C8308CE5D80775
:101FA00009F4B6C088F5C430ECE5DE0709F4A8C032
:101FB000C0F4C2308CE5D80709F49CC08091C005FC
:101FC0008260C330DC4509F498C08091C0059091CF
:101FD000C1050E94571C0E94001680E0DF91CF913E
:101FE00008958091C0058061C630ECE5DE0709F4F4
:101FF00084C08091C0058860C730DC4508F47DC08E
:102000008091C005806279C0CC308CE5D80709F496
:1020100089C070F48091C0058C60CA30ECE5DE07A1
:1020200009F46BC008F478C08091C0058E7F65C04C
:10203000CE308CE5D80709F479C08091C0058B7F3C
:10204000CF30DC4508F459C08091C0058F7E55C063
:10205000CC3FECE5DE0709F457C030F5C3318CE521
:10206000D80709F46FC078F4C131ECE5DE0709F454
:1020700065C0C231DC4509F0A8CF0E9400168091EE
:10208000C0058F773AC0C5318CE5D80709F462C026
:1020900008F476C08091C1058160CB3FDC4509F032
:1020A00094CF8093C10591CFC115FDE5DF0709F4F9
:1020B0004DC088F48091C1058D7FCE3F9CE5D90746
:1020C00081F38091C1058E7FCF3FDC4550F3809135
:1020D000C1058360E6CFC230FDE5DF0709F459C0D2
:1020E00008F444C080E0C330DD4509F06ECF0E94A3
:1020F000DC1C6BCF8091C00581608093C00565CFEB
:102100008091C0058460F9CF8091C1058260C9CFFC
:102110008091C0058064F1CF0E9400168091C005B7
:102120008068EBCF8091C0058D7FE7CF8091C0059F
:10213000877FE3CF8091C0058F7DDFCF8091C00581
:102140008F7BDBCF8091C005837FD7CF8091C10586
:102150008C7FA7CF8091C00582FB992790F921E061
:10216000922790FB82F990FB83F9C7CF8091C1053C
:10217000982F909591708E7F892B90FB81F991CF4C
:102180000E9400169091C005892F97FB87F980580F
:10219000B4CF81E0ACCF81E021CFCF93DF93EB01CF
:1021A00086319C4511F50E947F1B9A81992399F0F5
:1021B0008A7A91E009F490E090938F03811109C02D
:1021C00089E20E945A1B0E94CB1B80E0DF91CF91D5
:1021D000089585E3F6CF80918F03811104C089E2D1
:1021E0000E94611BF0CF85E3FBCF81E0EFCF90939E
:1021F0009503809394030895E0919403F0919503DF
:10220000309721F00190F081E02D099480E008954D
:10221000E0919403F0919503309799F02091230178
:10222000222359F02091C00527FF07C0DC012C9123
:1022300011962C93119725E02C930280F381E02DC9
:102240000994089520919203309193032817390738
:1022500071F09093930380939203E0919403F09133
:102260009503309721F00680F781E02D09940895B9
:1022700020919003309191032817390771F09093C2
:10228000910380939003E0919403F091950330972C
:1022900021F00084F185E02D099408950E94E41D49
:1022A0006093B3037093B4038093B5039093B60324
:1022B0006093AF037093B0038093B1039093B20324
:1022C000089585B7806885BF85B7806885BF089504
:1022D000089508950C94681108950C946C110E944F
:1022E00061118EE29CE10E94471E0E9469110C94CC
:1022F0006A1181E008950C947911089508950E945F
:10230000CF1D0E9414060E94621E0E945F0D0C9455
:102310006D114F925F926F927F928F929F92AF92C8
:10232000BF92CF92DF92EF92FF920F931F93CF93C2
:10233000DF93CDB7DEB72A970FB6F894DEBF0FBE96
:10234000CDBF0E947D110E947E110E944D06811119
:102350000E944E1157E9A52E53E0B52E10E000E083
:10236000802E802F0E94E9052B013C01F501C190D0
:10237000D190E190F1905F01C414D504E604F70414
:1023800009F477C080915E0481FD0E94F405D701B5
:10239000C60184259525A625B725912CC12CD12CC5
:1023A0007601C394AC01BD014C215D216E217F21DA
:1023B000452B462B472B09F454C00E947B118823E0
:1023C000C9F09E828F824C205D206E207F2081E0AC
:1023D00045284628472809F480E088870E94D81DB0
:1023E0008160782F9A8789874E815F8168858A8589
:1023F0000E946712000F111F000F111FF801E9560C
:10240000FC4F80819181A281B3818C259D25AE25D1
:10241000BF2580839183A283B3830E94920D0E9483
:10242000FC10909196038917D9F10E94FC108093BB
:1024300096032A960FB6F894DEBF0FBECDBFDF918C
:10244000CF911F910F91FF90EF90DF90CF90BF90B1
:10245000AF909F908F907F906F905F904F900C9473
:10246000D5039394CC0CDD1CEE1CFF1CF1E19F12F4
:1024700099CF0F5F1F4F0630110509F071CF8FEF15
:1024800089838A831B820E94D81D8160782F9D8357
:102490008C8349815A816B818D810E946712BDCFE7
:1024A0002A960FB6F894DEBF0FBECDBFDF91CF9155
:1024B0001F910F91FF90EF90DF90CF90BF90AF9062
:1024C0009F908F907F906F905F904F900895DF92D4
:1024D000EF92FF920F931F93CF93DF93CDB7DEB7A9
:1024E0002B970FB6F894DEBF0FBECDBF7A878B87D0
:1024F000F42E052F162FE72ED82E61110E949F1B58
:102500001E821D827E2DEC82DD824F2D502F612F89
:102510008D2D9E812B960FB6F894DEBF0FBECDBFDA
:10252000DF91CF911F910F91FF90EF90DF900C946E
:102530007618FC01808191810C942C1BCF93C82FBD
:10254000882309F483C08238C1F40E94FC1081FD05
:102550007DC089E30E945A1B0E94CB1B2FEF81EEA6
:1025600094E0215080409040E1F700C0000089E3F2
:102570000E94611BCF910C94CB1B8338A1F40E9465
:10258000FC1080FD63C083E50E945A1B0E94CB1B98
:102590002FEF81EE94E0215080409040E1F700C0A1
:1025A000000083E5E5CF8438A1F40E94FC1082FD91
:1025B0004DC087E40E945A1B0E94CB1B2FEF81EE77
:1025C00094E0215080409040E1F700C0000087E493
:1025D000CFCF8CEF8C0F813A90F46C2F8091170144
:1025E000909118010E94F51C882329F08C2F0E94DD
:1025F000611B0E94CB1B8C2F0E945A1BBBCF80E219
:102600008C0F883048F4C77081E001C0880FCA95EC
:10261000EAF70E94821BAECFEBE5EC0FE33040F40B
:10262000F0E0EB53FE4F808190E0CF910C942211AB
:10263000C85AC73158F4EC2FF0E0EE0FFF1FE956EF
:10264000FE4F80819181CF910C943811CF910895E4
:10265000882309F44BC0823871F40E94FC1081FF7A
:1026600045C089E30E945A1B0E94CB1B89E30E944C
:10267000611B0C94CB1B833859F40E94FC1080FF23
:1026800035C083E50E945A1B0E94CB1B83E5EFCF28
:10269000843859F40E94FC1082FF28C087E40E940D
:1026A0005A1B0E94CB1B87E4E2CF9CEF980F913A14
:1026B000F0F290E2980F983050F4877091E001C0EA
:1026C000990F8A95EAF7892F0E94881BD2CF9BE544
:1026D000980F933020F490E080E00C942211885AF7
:1026E000873120F490E080E00C94381108951F9316
:1026F000CF93DF93182FEB010E949E12209731F4A5
:10270000812FDF91CF911F910C9428138FE99FE0C7
:102710000197F1F700C000002197F0CF70E060E072
:10272000893311F460E570E00C947713882321F06D
:102730000E94821B0C94CB1B0895882321F00E94D9
:10274000881B0C94CB1B0895BF92CF92DF92EF921F
:10275000FF920F931F93CF93DF936C01D62FC72F58
:10276000FC011281058102950F700E94781BE82EF2
:102770008823A1F0E12E112389F08C2F807F8034F3
:1027800029F080E28D0FE12C883040F082E00E9439
:10279000161C0E94781B91E0E82EE926BC2EB2940C
:1027A0009FE0B922EB2DF0E0E958F94D0C945A2541
:1027B0000C2F0F70C07F11F00295007F1123A9F03C
:1027C000002359F080E28D0F883010F0D11109C03C
:1027D000802F0E94821B0E94CB1B8D2F0E949E1275
:1027E00014C0802F0E94921BF6CF8D2F0E942813B9
:1027F000002359F080E28D0F883010F0D1112CC0E9
:10280000802F0E94881B0E94CB1B2B2D2850330B3E
:102810002430310520F40E94FC100E94D503EE20E4
:1028200009F493C10E94741B80FD8FC1F6011282CE
:102830000E946E1B0E94FA19C6010E94C6150E94D2
:102840006E1BDF91CF911F910F91FF90EF90DF9062
:10285000CF90BF900C941B1A802F0E94981BD3CF4F
:10286000FC2FFF70FF2EC07FC03219F0F29480EF72
:10287000F822DD2369F0D13049F1112391F10023D1
:1028800051F1F601858180FFA8CF8F70858323C029
:10289000112381F0011106C00E94B21B8F290E94F2
:1028A0009613B3CF0130C1F70E94B21B8F290E944B
:1028B000B81BABCF011106C00E94C11B8F2D0E9417
:1028C0009D13A3CF013009F4A0CFF6CF112329F037
:1028D000063008F09ACF8F2DE2CF053008F095CF63
:1028E000EDCF002359F3D93349F4FFEF27EE33E05E
:1028F000F15020403040E1F700C000008D2F0E94D1
:10290000281383CF8C2F86958695837069F081304C
:1029100009F07BCF8D2F9C2F9370111102C090E096
:1029200080E00E94381171CF8D2F9C2F9370111170
:1029300002C090E080E00E94221167CF8C2F83704C
:1029400009F041C0111161CF4D2F42954695477056
:10295000440F440F0D2F0F7010E030E020E0042EE4
:1029600004C0000F111F221F331F0A94D2F760E02A
:1029700070E0CB01D4FF0FC06FE070E080E090E02A
:1029800004C0660F771F881F991F4A95D2F760957C
:10299000709580959095C695C695C370602B712BE8
:1029A000822B932BC23049F058F4C13019F00E94A9
:1029B000AC192BCF0E949A1928CF0E94BE1925CF9F
:1029C0000E94981922CF8695112311F08C2F8170C7
:1029D000882309F41ACF4D2F429546954770440F2E
:1029E000440F0D2F0F7010E030E020E0042E04C0E3
:1029F000000F111F221F331F0A94D2F760E070E00E
:102A0000CB01D4FF0FC06FE070E080E090E004C025
:102A1000660F771F881F991F4A95D2F760957095AA
:102A200080959095C695C695C370602B712B822BAF
:102A3000932BC23049F058F4C13019F00E94711A3A
:102A4000E4CE0E945F1AE1CE0E94831ADECE0E947D
:102A5000D419DBCECF70112329F08C2F0E94FA19E4
:102A60008D2F1DCF8D2F0E949D138C2F0E941B1A1E
:102A7000CCCED23F89F160F4D03FC9F0D13F29F1EB
:102A8000112309F442C00111A8CE8C2F8F7121C0EF
:102A9000D33F39F1D43FA1F7112369F1CF718C2FC6
:102AA0000E94FA1963E08C2F0E94011CAECE112304
:102AB00041F0053008F0A9CE8C2F8F710E943E1A8C
:102AC000A4CE063008F0A1CEF7CF8C2F8F71112342
:102AD00069F20E94FA1999CE8C2F8F711123C9F3D4
:102AE000C5CF112329F08C2F8F710E94E5198DCE4F
:102AF0000E94E0198ACE81E00E94161C023008F480
:102B000084CE82E00E94161C80CE002359F0D93377
:102B100009F0F4CE8FEF97EEE3E081509040E04073
:102B2000E1F7EACE8C2F8F71A1CF4C2F4F706D2F14
:102B3000C6010E94DD030E94101967CE4C2F4F7012
:102B40006D2FC6010E94E00360CEDF91CF911F91EF
:102B50000F91FF90EF90DF90CF90BF9008950F936B
:102B60001F93CF93DF93EC01688179818A810E9462
:102B7000361B8C010E94951A0E949719B801CE014C
:102B8000DF91CF911F910F910C94A413CF93DF93FA
:102B9000EC018B819C81892B29F088819981892383
:102BA0008F3F59F4DF91CF910895CE010E94AF1568
:102BB000CE01DF91CF910C946503CE010E948C036E
:102BC0008111F3CF0E94781B882361F38A818823C7
:102BD00049F382E0DF91CF910C94161C90E080E0E5
:102BE0000E94221190E080E00E9438110E949F1BF9
:102BF0000E94AF1B0C94CB1B0E94681B0C94EE151B
:102C00000E948F1B0C94FC15E92FE295EF70E250A7
:102C1000EE3070F4F0E0E957F94D0C945A25803FFE
:102C200019F020F4883E20F481E00895843FE1F318
:102C300080E00895883EC0F3813FD1F7F5CF93FB44
:102C4000882780F908950E942C1B0C940416CF93BA
:102C5000DF9300D000D00F92CDB7DEB70F900F906A
:102C60000F900F900F90DF91CF910895CF93DF9346
:102C700000D000D000D0CDB7DEB726960FB6F894BE
:102C8000DEBF0FBECDBFDF91CF9108951F93CF93CD
:102C9000DF93C091B80316E08091B9038C1304C090
:102CA000DF91CF911F910895D0E01C9FF0011D9FEF
:102CB000F00D1124E654FC4F4081518162817381F3
:102CC000848195810E9436162196C770E5CF409188
:102CD000EA035091EB036091EC037091ED03809156
:102CE000EE039091EF030C9436161F93CF93DF936E
:102CF0008091EF03807FA9F48091EC03882389F011
:102D00008091B803C091B9036091EA037091EB031D
:102D1000A091ED03B091EE03D62FD72316E0C81390
:102D200004C0DF91CF911F91089590E0109711F0AA
:102D3000DF3F19F401968770F2CF189F9001199F19
:102D4000300D1124F901E654FC4F41814713F2CFB5
:102D500040814613EFCF42814111ECCF4381548132
:102D60004A1B5B0B483C510528F78091EF038F709D
:102D700080618093EF03F901E154FC4F80818F70F3
:102D8000806180838AEE93E00E94C615DF91CF9127
:102D90001F910C944616AF92BF92CF92DF92EF92A2
:102DA000FF920F931F93CF93DF93CDB7DEB7619759
:102DB0000FB6F894DEBF0FBECDBF8C0185E0F801E1
:102DC000DE011D9601900D928A95E1F7F801408190
:102DD0005181E2808AEEC82E83E0D82E6091ED0307
:102DE0007091EE036115710509F461C19091EA03D8
:102DF0002091EB03892F82238F3F09F458C1A380D0
:102E0000B480F090EC03F501E61BF70BFF2009F40A
:102E1000FCC08091EF03382F307FE83CF10508F0CB
:102E2000B2C0311179C0FE2C251323C0941321C0E8
:102E3000E1101FC08F7080618093EF030E946716BE
:102E4000C6010E94C6158091EF03F80185838F2D7E
:102E500061960FB6F894DEBF0FBECDBFDF91CF9164
:102E60001F910F91FF90EF90DF90CF90BF90AF90A8
:102E70000895AB2829F0842F85238F3F09F033C1B3
:102E800080E0F82FF170DF2E80FF3CC08091B80306
:102E90002091B90336E0821315C04D875E878D857A
:102EA0009E850E942C1B292F22952F702230F0F036
:102EB000243018F59F70F1F0F8019581907FD1F4DE
:102EC000D12C1EC090E0389FF001399FF00D1124E5
:102ED000E654FC4F6181651306C06081641303C032
:102EE00062816E110FC001968770D5CF9F7011F06F
:102EF000882331F3805E883018F3C8010E94C6151C
:102F0000FD2CA5CFEE2009F4A2CF8091EF038160C4
:102F10008093EF03F12C9BCF251306C0941304C0BC
:102F2000F801EE2009F48DC04D875E878D859E8562
:102F30000E942316882319F1EE2009F18091EF03F6
:102F4000803270F02091EA033091EB0338872F83B1
:102F50001986BB86AA868C87CE0107960E94C61565
:102F600086E0F801AAEEB3E001900D928A95E1F7B0
:102F70000E9475160E946716FF24F39468CFC8015B
:102F80000E94C615F9CF311113C07A2DB98AA88ACB
:102F90006E2D89890E9427168AEE93E00E94C6153D
:102FA00086E0F60111928A95E9F70E946716B2CF82
:102FB00025130FC094130DC0E1100BC0F8018583D9
:102FC000C8010E94C61586E0F60111928A95E9F7BC
:102FD0003ECF4D875E878D859E850E942316882370
:102FE00071F2EE2061F28091EF03803208F4B8CFE5
:102FF0002091EA033091EB033A8329831B82BD823F
:10300000AC828E83CE010196A9CFE83CF10508F091
:1030100041C0FE2CEE2009F4B2CF25132AC0941330
:1030200028C08091EF0380FD1BC0982F907FC1F0D6
:10303000F8018583903F31F0982F907F905F8F70DB
:10304000892B8583C8010E94C61586E0F801AAEE87
:10305000B3E001900D928A95E1F70E946716F7CED2
:1030600086E0F801AAEEB3E001900D928A95E1F7AF
:10307000EECE4D875E878D859E850E942316811139
:103080006FCF8091EF0381608093EF03C8010E94AE
:10309000C615DDCE7A2DB98AA88A6E2D89890E943F
:1030A000271686E0F60111928A95E9F7D6CFEE2031
:1030B00009F465CF4D875E878D859E850E94231616
:1030C000F82E882309F45BCF86E0F801AAEEB3E07E
:1030D00001900D928A95E1F78AEE93E00E94991291
:1030E0000E947516BACF81E08E25CBCE1F93CF9369
:1030F000DF93CDB7DEB72C970FB6F894DEBF0FBEC7
:10310000CDBF4F83588769877A878B879C87CE018D
:1031100007960E94CB16882369F08A859B85892BA8
:1031200039F04F815885842F85238F3F09F071C076
:1031300016E05FC086E0FE013796DE011196019031
:103140000D928A95E1F78A859B85892B89F38F817A
:10315000988589238F3F61F32091B90330E0C9013D
:103160000196877099274091B8034817190671F4A2
:103170000E9400161092B9031092B80386E0EAEE9E
:10318000F3E0DF011D928A95E9F7D2CF96E0929F96
:10319000D001939FB00D1124A654BC4FFE0131966F
:1031A00001900D929A95E1F78093B9030E9446161B
:1031B000BFCF819FC001112486549C4F0E94CB1623
:1031C0008823E9F0E091B8031E9FF0011124E65432
:1031D000FC4F4081518162817381848195810E947D
:1031E00036168091B80390E00196877099278093F6
:1031F000B8038091B8039091B9038913DACF2C9664
:103200000FB6F894DEBF0FBECDBFDF91CF911F91F7
:10321000089569857A858B859C850E94361688CFAE
:10322000EF92FF920F931F93CF93DF938C01892B23
:1032300081F0F12CEE24E394E8012196F8018491C9
:10324000843770F4843008F05FC08130B1F0823090
:10325000A1F1DF91CF911F910F91FF90EF90089511
:10326000853709F44CC008F43DC09CE7980F9037AF
:1032700080F78F770E94281349C00E5F1F4FFE0111
:10328000849190E2980F983060F48770FE2D01C011
:10329000FF0F8A95EAF78F2F0E94A21B0E94CB1B7B
:1032A00002C00E949E128F2D815030F2EFE9FFE0A4
:1032B0003197F1F700C00000F7CF0E5F1F4FFE01FE
:1032C000849190E2980F983050F48770FE2D01C0E1
:1032D000FF0F8A95EAF78F2F0E94A81BDFCF0E946D
:1032E0002813E1CF0E5F1F4FFE01C491C150D8F2E9
:1032F0008FE99FE00197F1F700C00000F7CF0E5F64
:103300001F4FFE01F490CFCF0E949E128E01CBCFB3
:1033100008950C9488190E9489196093350470935C
:10332000360480933704909338040C94EE15089576
:103330000C948B190F931F93009135041091360450
:103340002091370430913804602B712B822B932B02
:103350001F910F910C948B190F931F9300913504BB
:103360001091360420913704309138046023712382
:10337000822393231F910F910C948B190F931F930A
:1033800000913504109136042091370430913804AF
:1033900060277127822793271F910F910C948B1917
:1033A0000C9488190C94D0190E94D219609331049E
:1033B0007093320480933304909334040C94EE158C
:1033C00060E070E0CB010C94D4190F931F9341E09F
:1033D00050E060E070E08A019B0104C0000F111F03
:1033E000221F331F8A95D2F7C901B8011F910F918F
:1033F0000C94D4190F931F9341E050E060E070E00B
:1034000004C0440F551F661F771F8A95D2F780911D
:10341000310490913204A0913304B09134048A01B4
:103420009B01082B192B2A2B3B2BC901B8011F919B
:103430000F910C94D4190F931F9341E050E060E07A
:1034400070E004C0440F551F661F771F8A95D2F79E
:10345000CB01BA01609570958095909500913104EB
:10346000109132042091330430913404602371238D
:10347000822393231F910F910C94D4190F931F93C0
:1034800041E050E060E070E004C0440F551F661F4B
:10349000771F8A95D2F78091310490913204A091E0
:1034A0003304B09134048A019B01082719272A2785
:1034B0003B27C901B8011F910F910C94D4190F93A8
:1034C0001F93009131041091320420913304309104
:1034D0003404602B712B822B932B1F910F910C9432
:1034E000D4190F931F93009131041091320420914D
:1034F00033043091340460237123822393231F917A
:103500000F910C94D4190F931F93009131041091D3
:1035100032042091330430913404602771278227CC
:1035200093271F910F910C94D419089521E1929F34
:10353000800D1124982F977041E001C0440F9A9597
:10354000EAF786958695869595E0899FF001112486
:10355000E051FC4F90E080E070E05191DF01119765
:103560009B01082E02C0369527950A94E2F7217038
:1035700021952527242325272C9301968530910515
:1035800061F7089521E1929F800D1124982F977083
:1035900086958695869525E0829FF0011124E0515D
:1035A000FC4F50E040E080E0219130E0092E02C065
:1035B000369527950A94E2F721703327042E01C02F
:1035C000220F0A94EAF7822B4F5F5F4F4530510577
:1035D00059F70895BF92CF92DF92EF92FF920F9327
:1035E0001F93CF93DF938C01C0903104D0903204AD
:1035F000E0903304F09034048091350490913604C7
:10360000A0913704B0913804C82AD92AEA2AFB2AA3
:10361000CFE1D0E0BC2ED701C6010C2E04C0B69578
:10362000A795979587950A94D2F780FD0EC02197AC
:1036300088F7B12C8B2DDF91CF911F910F91FF90C7
:10364000EF90DF90CF90BF900895B8018C2F0E942B
:10365000FD03019761F3EECFCF93DF93EC010E945E
:10366000EA1ABE01DF91CF910C94FD031F93CF9313
:10367000DF93EB019091B703992331F0CB01DF91F8
:10368000CF911F910C942C1B882379F0CB010E94C1
:10369000EA1A182F682FCE010E94961ABE01812FB8
:1036A000DF91CF911F910C94FD03CB010E94C21AB0
:1036B000182FF4CF682F80911701909118010C9466
:1036C000751D682F80911701909118010C94801D31
:1036D00080911701909118010C948B1D80913904F1
:1036E000859585958595089580913904877008950D
:1036F00090913904977081E009F480E008958091F9
:103700005D04089590915D04892B80935D04089574
:10371000809590915D04982390935D040895109294
:103720005D04089590915C04892B80935C04089556
:10373000809590915C04982390935C040895109276
:103740005C04089590915B04892B80935B04089539
:10375000809590915B04982390935B040895109258
:103760005B04089580913A04089508950C94B51B64
:1037700090913A04981721F080933A040C94B61B68
:10378000089580913A04882329F010923A0480E049
:103790000C94B61B0895E0911701F09118018091E7
:1037A0005D048083E0911701F09118018081909170
:1037B0005C04892B8083E0911701F09118018081CE
:1037C00090915B04892B808390913A04992381F036
:1037D000E0911701F09118018081892B80838091FD
:1037E0001701909118010E94E11C81110E94C11BD8
:1037F00080911701909118010C94081108950C9470
:10380000FE1B98E0899F90011124622B609339047C
:103810000E94FA19809139048595859585950C94B7
:10382000FF1B1092390480E00C94FF1B9091390427
:103830008095892380933904282F277071F4282FCD
:10384000082E000C330B9217130639F085958595D9
:1038500085950E941B1A0C94111C089580E0089510
:103860006FEF7FEF90E080E00C942C2690E080E0FA
:103870000E94082621E08B3E9E4F09F020E0822F17
:10388000089582E090E00C94FA2583E090E00C9497
:10389000FA25CF9384E090E00E94FA25C82F81E2B8
:1038A00090E00E94FA25982F8C2FCF910895CF9306
:1038B000C92F682F84E090E00E940E266C2F81E2D1
:1038C00090E0CF910C940E26AB01BC018FE090E00C
:1038D0000C942026AB01BC0183E190E00C942026DF
:1038E00060E070E0CB010C946A1C60E070E0CB01FA
:1038F0000E94641C0C94701C6BEE7EEF90E080E0E4
:103900000E942C2660E082E090E00E940E2660E09B
:1039100083E090E00E940E26109235041092360447
:10392000109237041092380460E084E090E00E9426
:103930000E2660E081E290E00E940E2660E085E0C5
:1039400090E00E940E2660E086E090E00E940E2645
:103950006FEF87E090E00E940E2640E050E0BA0151
:1039600088E090E00E94202660E08DE090E00E94D8
:103970000E2640E050E0BA0188E190E00E94202647
:1039800060E087E190E00E940E2640E050E0BA013E
:103990008CE190E00E94202660E080E290E00E94AE
:1039A0000E2640E050E0BA0188E190E00E94202617
:1039B0000C94751C0C947C1C682F8EE090E00C9489
:1039C0000E26FC01329680912301882321F08091FC
:1039D000C0059EE187FF96E080E0915008F40895CD
:1039E00021912223D1F38F5FF8CF662301F120913B
:1039F00023012223F1F02091C00527FF1AC0462F92
:103A00004695469546954E3190F4677021E030E03A
:103A100002C0220F331F6A95E2F7840F911DFC014B
:103A2000828190E02823392381E0232B69F480E010
:103A30000895FC01329608962191261721F0E81787
:103A4000F907D1F7F4CF81E008959C01FC0132968B
:103A50009FEF80E04191461751F09F3F19F44111CB
:103A600001C0982F8F5F8630A9F79F3F09F4089512
:103A7000290F311D97FD3A95F90162830895FC01E4
:103A8000329608962191261303C0DF0111971C92EC
:103A9000E817F907B9F70895E62FE695E695E69554
:103AA000EE3168F4E80FF92FF11D677021E030E086
:103AB00001C0220F6A95EAF78281822B82830895E2
:103AC000E62FE695E695E695EE3170F4E80FF92FCE
:103AD000F11D677021E030E001C0220F6A95EAF71E
:103AE0002095828128232283089520912301222377
:103AF00029F02091C00527FD0C944C1D0C94251D28
:103B000020912301222329F02091C00527FD0C9448
:103B1000601D0C943F1DFC01329680912301882387
:103B200051F08091C00587FF06C08EE1DF011D9234
:103B30008A95E9F7089586E0F9CF08950C949D1DC4
:103B40000E9400160E94FC100E94D5030C949E1D3A
:103B50001F921FB61F9211248F939F93AF93BF9311
:103B600080915F04811113C08091BC059091BD05C7
:103B7000A091BE05B091BF054196A11DB11D8093D6
:103B8000BC059093BD05A093BE05B093BF05BF9142
:103B9000AF919F918F911F901FBE1F90189582E04B
:103BA00084BD93E095BD9AEF97BD80936E00089514
:103BB0002FB7F8948091BC059091BD05A091BE05EA
:103BC000B091BF052FBF08952FB7F8946091BC0541
:103BD0007091BD058091BE059091BF052FBF0895DE
:103BE0009C014FB7F8948091BC059091BD05A091C0
:103BF000BE05B091BF054FBF821B930B089578940B
:103C00001F921FB61F9211248F939F93AF93BF9360
:103C10008091BC059091BD05A091BE05B091BF05F6
:103C20000196A11DB11D8093BC059093BD05A09385
:103C3000BE05B093BF05BF91AF919F918F911F902B
:103C40001FBE1F90189581E08093E00080E2809372
:103C5000D8001092C9008FE19EE40197F1F700C0EF
:103C6000000087E090EBDC018093CF059093D005B6
:103C7000A093D105B093D20588E19CE00FB6F894EB
:103C8000A895809360000FBE90936000FFCF909343
:103C9000C9018093C80108950C94301C0E944D0600
:103CA0008FE39CE90197F1F700C000000E944D06E8
:103CB00080E00E94E90560FF04C00E944C1E0C9445
:103CC000231E08950E94361C811102C00E94DA1C36
:103CD0000E94411C80935E040E94491C9093C10580
:103CE0008093C0050E94451C682F70E090E080E042
:103CF0000E949819609131047091320480913304CC
:103D0000909134040C94D219809180040895089500
:103D1000CF93DF9300D00F92CDB7DEB79091C60559
:103D2000943019F589837B836A8382E08093E9006C
:103D30008FEF9091E800815095FD06C095ED9A9522
:103D4000F1F700008111F5CF8091E80085FF0DC0EB
:103D500050E040E063E070E0CE0101960E946520F3
:103D60008091E8008E778093E8000F900F900F907D
:103D7000DF91CF910895BC0184E00C94881EBC01B2
:103D800083E00C94881ECF93DF93EC018091230194
:103D90008823B1F18091C00587FF32C060E282E0E4
:103DA0008093E9008FEF9091E800815095FD06C067
:103DB00095ED9A95F1F700008111F5CF8091E8001B
:103DC00085FF1BC08091230170E050E040E081112D
:103DD00004C050E040E068E070E0CE010E94652041
:103DE0008091E8008E778093E80080E2FE01A0E6F3
:103DF000B4E001900D928A95E1F7DF91CF9108959B
:103E000068E081E0CDCF8091C505811109C00E9495
:103E1000F5210E9452228091E20084608093E200AA
:103E200008951092C5050895089508950C94A01D55
:103E300042E061EC81E00E94712142E261EC82E0AB
:103E40000C9471218091C805833009F45FC030F46F
:103E50008130C1F1823009F49BC008958A3009F4A1
:103E600087C08B3009F46DC0893009F04EC0809155
:103E7000C705813209F049C08091CB059091CC05EE
:103E8000029708F042C08091E800877F8093E800A5
:103E90008091E80082FF35C09091F3008091F2009C
:103EA000029729F48091F1008B7F813021F4809179
:103EB000F100809380048091E8008B778093E80084
:103EC0000C94A5218091C705813AF9F48091E8000E
:103ED000877F8093E8008091CB059091CC05892B5A
:103EE00061F460E280E694E070E00E94B42080918A
:103EF000E8008B778093E800089560E090E080E030
:103F0000F3CF8091C6058111C3CF08958091C70575
:103F1000813AD9F78091CB059091CC05892BA9F7EF
:103F20008091E800877F8093E8008091E80080FF1F
:103F3000FCCF809123018093F1008091E8008E777F
:103F4000BDCF8091C705813201F78091CB0590915B
:103F5000CC05892BD1F68091E800877F8093E8001B
:103F60000E94A5218091C905809323010C9400161D
:103F70008091C705813249F68091E800877F809360
:103F8000E8000E94A5218091CA05809381040895CC
:103F90008091C705813A09F0B8CF8091E800877F0A
:103FA0008093E8008091E80080FFFCCF809181043D
:103FB000C2CF84B7877F84BF0FB6F894A89580914D
:103FC0006000886180936000109260000FBE80E8FE
:103FD00090E00FB6F89480936100909361000FBE5B
:103FE0000E946F110E94F5210E9452228091E200EE
:103FF00084608093E20078940E94DB240E947F1109
:1040000089E191E00E94F7100E9489110E947D11C0
:104010000E947E11F9CF0C940D20292F33272330D5
:10402000310519F168F42130310509F444C022301A
:10403000310509F445C090E080E030E020E025C083
:104040002132310549F122323105A9F780E490E0AF
:104050002EE635E061157105C1F08DE690E021E0B6
:1040600035E06130710589F0E6CF992781309105FF
:1040700081F0009729F00297F1F6EEE5F4E002C036
:10408000E0EBF4E0849190E09F01FA01318320831A
:104090000895E4E9F4E0F6CF89E090E026EC34E01E
:1040A0006115710591F389E090E02FED34E0613006
:1040B000710559F3C0CF82E190E02FEE34E0E5CFF7
:1040C0008BE390E024EB34E0E0CFAF92BF92CF924D
:1040D000DF92FF920F931F93CF93DF936C01EB015D
:1040E0008A010E94C421F82E811123C001151105F7
:1040F00039F0F80180819181C81BD90BC80ED91EF7
:10410000B12CA12C2097A9F08091E80085FD22C058
:104110008091E8008E778093E80001151105A1F0E9
:10412000F80180819181A80EB91EB182A08285E03C
:10413000F82E8F2DDF91CF911F910F91FF90DF907F
:10414000CF90BF90AF9008950E94C4218823D1F2F0
:10415000F82EEFCFF60181916F018093F100219746
:10416000FFEFAF1ABF0ACECFFC018091CD05909131
:10417000CE0586179707A0F06115710529F4909177
:10418000E8009E779093E80090E06115710551F486
:10419000911108C08091E80082FF34C080E008954A
:1041A000BC01F2CF8091C6058823C1F18530C1F1F1
:1041B0008091E80083FD30C08091E80082FDEACF65
:1041C0008091E80080FFE1CF8091F3002091F20020
:1041D000382F6115710519F02830310558F091E03C
:1041E0002830310509F090E02091E8002E772093E7
:1041F000E800CBCF81918093F100615071092F5F6E
:104200003F4FE7CF8091C605882341F0853041F0CC
:104210008091E80083FFBECF81E0089582E0089599
:1042200083E00895FC018091CD059091CE0586171D
:104230009707A0F06115710529F48091E8008E7749
:104240008093E80090E06115710551F4911108C068
:104250008091E80082FF35C080E00895BC01F2CF74
:104260008091C6058823C9F18530C9F18091E800A5
:1042700083FD31C08091E80082FDEACF8091E800A3
:1042800080FFE1CF8091F3002091F200382F61157B
:10429000710519F02830310558F091E028303105CA
:1042A00009F090E08091E8008E778093E800CBCF12
:1042B00084918093F1003196615071092F5F3F4FD7
:1042C000E6CF8091C605882341F0853041F080918A
:1042D000E80083FFBDCF81E0089582E0089583E088
:1042E0000895982F973028F08F708093E90081E02F
:1042F00008959093E900242F762F50E0981731F01D
:104300007091EC002091ED005091F00021FD02C071
:104310009F5FE8CF3091EB003E7F3093EB00309110
:10432000ED003D7F3093ED003091EB003160309334
:10433000EB007093EC002093ED005093F00020917F
:10434000EE0027FDE5CF80E008958091C70587FF47
:1043500013C08091E80082FF06C08091E8008B774F
:104360008093E80004C08091C6058111F2CF0895C2
:104370008091C6058823D9F38091E80080FFF8CFAB
:104380008091E8008E77ECCF2091E4003091E50039
:1043900095E6A9012091EC00822F817020FF06C0D4
:1043A0008091E80080FF06C080E008952091E80039
:1043B00022FD1AC08091C605882389F0853089F0D6
:1043C0008091EB0085FD0FC02091E4003091E50065
:1043D00042175307F9F29150E1F684E0089582E024
:1043E000089583E0089581E008950E9463220E9469
:1043F0006B22E0EEF0E0808181608083E8EDF0E008
:1044000080818F77808319BCA7EDB0E08C918E7F7F
:104410008C9380818F7E80831092C50508950F93C1
:104420001F93CF93DF930E9463220E946B22C8EDFB
:10443000D0E088818F7788838881806888838881AD
:104440008F7D888319BC1092C6051092C205109208
:10445000C4051092C30500EE10E0F80180818B7F47
:10446000808388818160888342E060E080E00E94F0
:104470007121E1EEF0E080818E7F8083E2EEF0E05A
:10448000808181608083808188608083F801808161
:104490008E7F8083888180618883DF91CF911F9197
:1044A0000F910895E8EDF0E080818F7E8083E7ED45
:1044B000F0E080818160808384E082BF81E080932E
:1044C000C5050C940F22E8EDF0E080818E7F80839B
:1044D0001092E20008951092DA001092E10008951F
:1044E0001F920F920FB60F9211242F933F934F9369
:1044F0005F936F937F938F939F93AF93BF93EF934C
:10450000FF938091E10082FF0BC08091E20082FF67
:1045100007C08091E1008B7F8093E1000E94DA2444
:104520008091DA0080FF19C08091D80080FF15C00B
:104530008091DA008E7F8093DA008091D90080FF2D
:1045400096C080E189BD82E189BD09B400FEFDCF3E
:1045500081E08093C6050E94031F8091E10080FFE7
:1045600019C08091E20080FF15C08091E2008E7F2B
:104570008093E2008091E20080618093E20080916C
:10458000D80080628093D80019BC85E08093C6056E
:104590000E94151F8091E10084FF2BC08091E200F2
:1045A00084FF27C080E189BD82E189BD89B5982F4C
:1045B000917080FFFBCF8091D8008F7D8093D800D1
:1045C0008091E1008F7E8093E1008091E2008F7EF8
:1045D0008093E2008091E20081608093E20080910C
:1045E000C205882309F449C084E08093C6050E946F
:1045F000161F8091E10083FF29C08091E20083FFB4
:1046000025C08091E100877F8093E10082E0809364
:10461000C6051092C2058091E1008E7F8093E10073
:104620008091E2008E7F8093E2008091E2008061C1
:104630008093E20042E060E080E00E94712180917E
:10464000F00088608093F0000E94141FFF91EF91AA
:10465000BF91AF919F918F917F916F915F914F919A
:104660003F912F910F900FBE0F901F90189519BC7E
:104670001092C6050E94111F70CF8091E30087FD44
:1046800093E09093C605B3CF1F920F920FB60F928F
:1046900011242F933F934F935F936F937F938F9347
:1046A0009F93AF93BF93CF93DF93EF93FF93D091FB
:1046B000E900DF708091EC00C82FC17080FDC0E878
:1046C0001092E9008091F000877F8093F000789449
:1046D0000E9488231092E9008091F0008860809306
:1046E000F000CD2BCF70C093E900FF91EF91DF91E7
:1046F000CF91BF91AF919F918F917F916F915F917A
:104700004F913F912F910F900FBE0F901F901895D2
:104710001F93CF93DF93CDB7DEB7AA970FB6F89468
:10472000DEBF0FBECDBF87EC95E02091F100FC010C
:104730002193CF01F5E08F3C9F07B9F70E94221F1C
:104740008091E80083FF1EC18091C7059091C80544
:104750009A3008F017C1E92FF0E0EB56F94D0C94B0
:104760005A25803899F0823809F00CC18091CB0528
:104770008F70873008F006C18093E9008091EB00CC
:1047800085FB882780F91092E90006C08091C30557
:104790009091C405911182609091E800977F909369
:1047A000E8008093F1001092F1008091E8008E778C
:1047B000E5C0882309F4D3C0823009F0E3C08091BA
:1047C000C9058111D6C08091CB058F702FEF280FBE
:1047D000263008F0D7C08093E9002091EB0020FF3D
:1047E000C8C0933031F48091EB0080628093EB007D
:1047F000C0C09091EB0090619093EB0021E030E01D
:1048000001C0220F8A95EAF72093EA001092EA008D
:104810008091EB008860EACF8111B4C01091C90586
:104820001F778091E3008078812B8093E300809153
:10483000E800877F8093E8000E94A5218091E8002E
:1048400080FFFCCF8091E30080688093E30082E0EA
:10485000111183E08093C60595C08058823008F01E
:1048600091C08091C9059091CA058C3D23E09207C3
:10487000A1F583E08A838AE289834FB7F894DE0149
:10488000139620E03EE051E2E32FF0E05093570012
:10489000E49120FF03C0E295EF703F5FEF708E2F31
:1048A00090E0EA30C0F0C7968D939D932F5F24313E
:1048B00059F74FBF8091E800877F8093E8006AE254
:1048C00070E0CE0101960E94B4208091E8008B77C1
:1048D0008093E80057C0C096E7CF6091CB057091F8
:1048E000CC05AE014F5F5F4F0E940B20BC01892BAE
:1048F00009F448C09091E800977F9093E80089817F
:104900009A810E941221E1CF8038E1F58091E80080
:10491000877F8093E8008091C2058093F10045CFA6
:10492000811130C09091C905923060F58091E80006
:10493000877F8093E8009093C2050E94A521809113
:10494000C205882311F084E005C08091E30087FD53
:10495000FACF81E08093C6050E94181F13C0809192
:10496000C905813079F481E0933009F080E08093CB
:10497000C4051092E9008091E800877F8093E800E9
:104980000E94A5218091E80083FF0AC08091E80081
:10499000877F8093E8008091EB0080628093EB003A
:1049A000AA960FB6F894DEBF0FBECDBFDF91CF91B0
:1049B0001F9108950895CF938091C6058823A1F093
:1049C000C091E900CF709091EC00892F817090FD2B
:1049D00080E8C82B1092E9008091E80083FD0E94D6
:1049E0008823CF70C093E900CF910895991B79E097
:1049F00004C0991F961708F0961B881F7A95C9F76F
:104A00008095089587FB082E062687FD819567FD12
:104A100061950E94F6240EF4919507FC8195089506
:104A2000AA1BBB1B51E107C0AA1FBB1FA617B707D4
:104A300010F0A61BB70B881F991F5A95A9F78095F0
:104A40009095BC01CD01089597FB072E16F40094B4
:104A500007D077FD09D00E94102507FC05D03EF451
:104A6000909581959F4F0895709561957F4F08951A
:104A7000A1E21A2EAA1BBB1BFD010DC0AA1FBB1F62
:104A8000EE1FFF1FA217B307E407F50720F0A21BD4
:104A9000B30BE40BF50B661F771F881F991F1A9441
:104AA00069F760957095809590959B01AC01BD016B
:104AB000CF010895EE0FFF1F0590F491E02D0994AA
:104AC0000E946825332312F48A1B9B0B0C947925D2
:104AD000A29FB001B39FC001A39F700D811D11243F
:104AE000911DB29F700D811D1124911D08950E948A
:104AF0006825B7FF0895821B930B08950E946825CF
:104B0000A59F900DB49F900DA49F800D911D112421
:104B10000895B7FF0C947E250E947E25821B930B7F
:104B200008958F929F92AF92BF92CF92DF92EF92B1
:104B3000FF92CF93DF93EC01688179818A819B8119
:104B4000611571058105910521F464E279ED8BE52C
:104B500097E02DE133EF41E050E00E944226490109
:104B60005A019B01AC01A7EAB1E40E947E256B01CA
:104B70007C01ACEEB4EFA50194010E948C25DC0110
:104B8000CB018C0D9D1DAE1DBF1DB7FF03C001974E
:104B9000A109B04888839983AA83BB839F77DF915B
:104BA000CF91FF90EF90DF90CF90BF90AF909F900C
:104BB0008F9008950E949125089580E091E00E94D1
:104BC00091250895B0E0A0E0809300019093010149
:104BD000A0930201B09303010895FC01415050409D
:104BE00030F001900616D1F73197CF01089588274C
:104BF00099270895F999FECF92BD81BDF89A99271A
:104C000080B50895A6E1B0E044E050E00C9434266D
:104C1000A8E1B0E042E050E00C943426262FF99948
:104C2000FECF92BD81BDF89A019700B4021639F00B
:104C30001FBA20BD0FB6F894FA9AF99A0FBE0895DC
:104C40000396272F0E940F260E940E26252F0E94D2
:104C50000F26242F0C940F260196272F0E940F2633
:104C60000C940E26DC01CB01FC01F999FECF06C0A5
:104C7000F2BDE1BDF89A319600B40D92415050401A
:104C8000B8F70895052E97FB1EF400940E9459264C
:104C900057FD07D00E94382507FC03D04EF40C9432
:104CA000592650954095309521953F4F4F4F5F4F76
:104CB000089590958095709561957F4F8F4F9F4F88
:104CC0000895F894FFCF660E6E0E750E7A0E7F0E65
:104CD000840E890E8E0E930E980E9D0EA20EA60EB9
:104CE000AB0EAE0EB10EB40EB70EB90EBC0ED8138D
:104CF000D8133014301482140514051405149E14AE
:104D00002A15391539159515051405149E150F1614
:104D10000F16181618161A161816181618160F1633
:104D20000F161F16181618161F16B123D923C224E2
:0E4D3000D923C2240C242D24C22484249024D0
:104D3E0001000000010102005700575701191A1B0C
:104D4E001C1D1E1F2021223B04841EC31E871EBF56
:104D5E001EBB1E01E200E900EA00B500B600B70076
:104D6E00CD008301CC008A0192019401210223021D
:104D7E0024022502260227022A02B300B4006F0085
:104D8E00700081828330313233F4F5F6F736359781
:104D9E003496F0916694939237F167950001020272
:104DAE0002020606060909090909090F0F0F0F0F5E
:104DBE000F15151518191919191919191919192362
:104DCE0024252525252525E200E900EA00B500B6B3
:104DDE0000B700CD008301CC008A0192019401211D
:104DEE0002230224022502260227022A02B300B45D
:084DFE00006F00700081828348
:00000001FF
