:100000000C9441020C9488020C9488020C9488028F
:100010000C9488020C9488020C9488020C94880238
:100020000C9488020C9488020C948B290C945F2AFF
:100030000C94A7240C9488020C9488020C948802D7
:100040000C9488020C9488020C9488020C94880208
:100050000C9488020C941A250C9488020C94880243
:100060000C9488020C9488020C9488020C948802E8
:100070000C9488020C9488020C9488020C948802D8
:100080000C9488020C9488020C9488020C948802C8
:100090000C9488020C9488020C9488020C948802B8
:1000A0000C9488020C9488020C94880229000000A9
:1000B0003A003B003C003D003E003F004000410054
:1000C0004200430044004500460047004800350018
:1000D0001E001F0020002100220023002400250014
:1000E000260027002D002E002A0049004A004B0060
:1000F0002B0014001A000800150017001C0018003F
:100100000C00120013002F00300031004C004D0095
:100110004E00390004001600070009000A000B0019
:100120000D000E000F003300340028000000000016
:1001300000000000E10000001D001B000600190087
:10014000050011001000360037003800E5000000FF
:10015000000052000000E000E300E20000000000A8
:100160002C00000000000000E60001516500E400E2
:100170005000000051004F00005C00000100010031
:100180000100010001000100010001000100010067
:1001900001000100CE5CCF5CD05C010001000100D9
:1001A0000100010001000100010001000100010047
:1001B000010001000100C65CC85CCA5C01000100CE
:1001C0000100010001000100010001000100010027
:1001D0000100010001000100C75CC95CCB5C0100AB
:1001E0000100010001000100010001000100010007
:1001F00001000100010001000000000000000000FB
:100200000100000001000100010001000100145C78
:100210000100010001000100010000000000CD5CB0
:1002200000000100010001000000000001000000CA
:10023000000000000100010001000100C55C000099
:10024000C35CC45C00010101010101010101020262
:100250000202020202020203030303030303030474
:10026000040404040404050505050506060606063F
:10027000070707070708080808090909090A0A0AF9
:100280000B0B0B0C0C0C0D0D0D0E0E0E0F0F0F109B
:100290001011111112121313141415151616171725
:1002A000181819191A1A1B1B1C1D1D1E1E1F202091
:1002B000212222232424252626272829292A2B2CDB
:1002C0002D2D2E2F30313232333435363738393AFE
:1002D0003B3C3D3E3F404142434445464748494AF6
:1002E0004C4D4E4F50515354555658595A5B5D5EC4
:1002F0005F616264656668696B6C6D6F707273755F
:1003000077787A7B7D7E8082838587888A8C8E8FC2
:1003100091939596989A9C9EA0A2A3A5A7A9ABADF0
:10032000AFB1B3B5B7BABCBEC0C2C4C6C9CBCDCFDE
:10033000D1D4D6D8DBDDDFE2E4E7E9EBEEF0F3F58C
:10034000F8FAFDFF2203430055003800300020007A
:1003500076003200200041004E005300490020008A
:1003600052004700420000001A0343006100700081
:10037000730055006E006C006F0063006B00650039
:10038000640000000403090409023B00020100A00C
:10039000FA09040000010301010009211101000113
:1003A0002240000705810308000A09040100010337
:1003B000000000092111010001226D0007058203E0
:1003C00020000A12011001000000085543820001BC
:1003D000000102000105010980A101850319012A1C
:1003E000B700150126B700950175108100C0050CF6
:1003F0000901A101850419012AA002150126A00204
:10040000950175108100C005010906A1018505054A
:100410000719E029E71500250195087501810205F6
:1004200007190029EF1500250195F07501810205D6
:10043000081901290595057501910295017503912A
:1004400001C005010906A101050719E029E715000A
:10045000250195087501810295017508810105073F
:10046000190029FF150026FF009506750881000573
:1004700008190129059505750191029501750391EA
:1004800001C011241FBECFEFDAE0DEBFCDBF04B63E
:1004900003FE27C08091B0059091B105A091B205EF
:1004A000B091B3058730904BA740B04BD1F4109278
:1004B000B0051092B1051092B2051092B30514BEAA
:1004C00084B7877F84BF0FB6F894A89580916000A9
:1004D000886180936000109260000FBEE0E0F8E356
:1004E000099513E0A0E0B1E0EEE7FBE502C005905E
:1004F0000D92AE30B107D9F725E0AEE0B3E001C010
:100500001D92A03BB207E1F70E94F4260C94592DEE
:100510000C9400006E9A0C9469050E94F71781FFF5
:1005200007C02FEF4FEF6FEF8EE390E00E94F30ACA
:100530000E94F71782FF07C02FEF4FEF6FEF8EE09B
:1005400090E00C94F30A089581E0089581E0089505
:100550000C94A60208950C94AA021F93CF93DF93E4
:1005600000D000D00F92CDB7DEB749835A836B839A
:1005700030916B0389819A8131111DC06623B9F0D6
:100580002223A9F00E94E921182F682F89819A81DE
:100590000E94952169817A81812F0F900F900F9091
:1005A0000F900F90DF91CF911F910C9467030E94E1
:1005B000C121182FEFCF0E94E92169817A81EDCF07
:1005C000FC01262F408151816281738184810C94CA
:1005D000AD02CF93DF93EC0160E00E94E002BE0128
:1005E000DF91CF910C94AB020E9469250E943523C4
:1005F000811102C00E94D9230E94F7130C948A0231
:100600000C946B0508950E94FF1C0E9402032FEFBB
:1006100084E39CE0215080409040E1F700C000005E
:100620000C943E250F931F93CF93DF93EC0161E071
:100630000E94E0028C01BE010E94A802882359F1A9
:10064000BE01C8010E944716882329F1BE01C801D6
:100650000E9499168823F9F0BE01C8010E94BC17B8
:100660008823C9F0BE01C8010E945115882399F062
:100670008A81882339F001158CE5180751F00F3D68
:100680001C4579F0CE01DF91CF911F910F910C9411
:10069000A4020E94030380E0DF91CF911F910F918C
:1006A00008950E94D923F7CF08950C94540381E054
:1006B00008950C945703CF93C82F0E9455038C2F95
:1006C000CF910C94590390E080E008950895972FFE
:1006D00070E021E1929F600D711D1124FB0196E6EF
:1006E000899FE00DF11D1124EE0FFF1FE455FF4F10
:1006F000859194910895FC01EE0FFF1FEC5BFD4F77
:10070000859194910895CF93DF930E9467030E948F
:100710008F04EC01811520E5920708F041C0811596
:1007200030E4930708F0B4C0803E910518F5803C92
:10073000910508F09DC0883A910570F4853A9105BD
:1007400008F08EC081309105F9F00097E9F0049728
:10075000D8F4D0E0C0E018C08F3B9105D0F7C85A5C
:10076000D0E0CC0FDD1FCB57DD4F0990D881C02DD5
:10077000D4640AC08115904258F4C11581E0D807AD
:1007800018F4C83ED10528F7CE01DF91CF91089526
:10079000C11590E3D90708F071C0CE019F706AC0FF
:1007A000811525E5920758F5811534E5930708F082
:1007B0009EC0811542E5940750F4C11581E5D80724
:1007C00008F469C0DC2FCC27C16FD06ADDCF982F29
:1007D000969596959E0123703327C115D34508F051
:1007E00077C0C1E0D0E002C0CC0FDD1F2A95E2F750
:1007F00020E2929FC0011124C82BD92B67C0C115DC
:1008000089E5D807A8F4C11598E5D90708F074C0A0
:10081000C11526E5D20708F09CCF8C2F0E94260533
:10082000C82FD0E0DC2FCC27CC27DF71D062ACCF33
:10083000C1153AE5D30708F464C0CE01905681157E
:10084000904208F086CF8D2F8F710E94260590E090
:10085000982F882788279F719C012C2BE901E6CFD0
:10086000C55AD0E0CD54DD4FC881D0E0D0648CCFE4
:10087000805C91090E947B03EC0186CFCE01992711
:10088000D3FF03C0EC01D86C7FCFEC01D06C7CCFE0
:10089000DF70D06A79CFCE01E4E096958795EA952E
:1008A000E1F783702C2F26952695237090E2299FDF
:1008B00090011124382B8C2F8370C1E0D0E002C04E
:1008C000CC0FDD1F8A95E2F7C22BD32BDC685CCFFF
:1008D000C1E0D0E002C0CC0FDD1F2A95E2F730E284
:1008E000939FC0011124C82BD92BDA684DCFD82F84
:1008F000CC27C46FD06A48CFDC2FCC27C06FD06A1A
:1009000043CF8C2F8F700E94260534E0D695C79573
:100910003A95E1F7CF709C2FEC01D06935CF823842
:100920009105B1F1B0F48133910509F475C048F433
:100930008932910509F469C08A32910509F473C0BE
:1009400008958533910509F459C08933910501F162
:100950000895833E9105A9F138F4803E9105F9F0A0
:10096000823E910549F10895863E9105A9F1873EA1
:100970009105C9F1843E910519F52091A20521FF49
:100980001FC08091A10584FD14C087EE90E00895FA
:100990002091A1052370A1F080EE90E008952091B0
:1009A000A10520FD47C03091A20530FF09C024FFFA
:1009B00044C090E080E004C02091A10522FDF7CF63
:1009C00008952091A10522FD3BC03091A20530FD84
:1009D000E3CF24FFF5CFEDCF2091A10523FFF0CF8A
:1009E00024FDE7CFD2CF2091A10523FD2CC030916B
:1009F000A20531FFEECF84EE90E008952091A1058D
:100A000025FFDECF89E290E008952091A10525FF22
:100A1000D7CF85E390E008952091A10526FFD0CFA0
:100A20008AE290E008952091A10526FFC9CF81E3D5
:100A300090E0089589E390E0089583EE90E00895B2
:100A400082EE90E0089586EE90E008959091A105E1
:100A500092FF06C0282F28712830F9F4877F846020
:100A600093FF06C0282F28712831F1F4877E846116
:100A70002091A20520FF06C0382F38713830D9F4F4
:100A8000877F816021FF06C0282F28712831D1F48B
:100A9000877E816194FD877E0895282F24712430FC
:100AA000F9F68B7F8860DCCF282F2471243101F781
:100AB0008B7E8861DDCF382F3171313019F78E7F11
:100AC0008860E0CF282F2171213121F78E7E886147
:100AD000E1CF089508950C946A0594E0899FF00190
:100AE0001124E25BFB4F60817181828193810895C3
:100AF000089580EA8A95F1F7089500C008950C944E
:100B00007905F894E82FE295EF70F0E031A1282FF5
:100B10002F7081E090E001C0880F2A95EAF7982FA6
:100B20009095932391A392A1892B82A37894089501
:100B30000F931F93CF93DF9383E90E94810582E98E
:100B40000E94810587E30E94810581EF0E94810553
:100B500087E60E94810585E90E948105C6EBD2E007
:100B600007EC12E089910E9481050C171D07D1F74F
:100B7000E6E3F4E0AEE4B4E0119211921192119226
:100B80001D921D921D921D9284E0EE34F807A1F78C
:100B900086E00E947406DF91CF911F910F910C9413
:100BA000F4024F925F926F927F928F929F92AF92D8
:100BB000BF92CF92DF92EF92FF920F931F93CF934A
:100BC000DF9337ECA32E32E0B32E06E314E0D0E03F
:100BD000C0E088248394912CF50181915F01F89401
:100BE000E82FE295EF70F0E021A18F70240102C0A0
:100BF000440C551C8A95E2F7C201922F982B91A3C1
:100C000092A18095892382A378940E947D05A6EB0A
:100C1000B2E090E080E0C12CD12C76014D91E42F20
:100C2000E295EF70F0E020A130E04F7002C0359502
:100C300027954A95E2F720FD51C0412C512C3201F5
:100C40004394082E04C0440C551C661C771C0A945F
:100C5000D2F7B301A201C42AD52AE62AF72A0196BF
:100C600081319105D9F6F501319780810E94810586
:100C7000D53011F00E947F05F80180819181A28119
:100C8000B381C816D906EA06FB0661F1C082D1829B
:100C9000E282F38281E0C82BDF5F0C5F1F4FD6300A
:100CA00009F09ACF2C2F46E06EE474E086E394E0DE
:100CB0000E9475060E9400038C2FDF91CF911F9137
:100CC0000F91FF90EF90DF90CF90BF90AF909F90EB
:100CD0008F907F906F905F904F90089540E050E02C
:100CE000BA01B9CF80E0D7CF0895FF920F931F9339
:100CF000CF93DF93F82ED92F8B01C42F222349F0F5
:100D000081E0809312030E94D72490931103809373
:100D1000100380911203882399F080911003909121
:100D200011030E94EF24069758F0EF2DFD2FD801F4
:100D300090E080E0D0E08C179D0744F01092120301
:100D4000DF91CF911F910F91FF9008950191119123
:100D5000219131910D931D932D933D930196EBCFEE
:100D6000EF92FF920F931F93CF93DF93EB01E82F46
:100D7000D11110C0442321F0F0E0EC5BFD4FE49171
:100D80006E2F7E2F8E2FDF91CF911F910F91FF90AD
:100D9000EF9008950D2F10E0282F30E0442329F024
:100DA0002C5B3D4FF901249130E0F6E0CF9FC0016C
:100DB0001124EFEFF0E0BF010E94112CAB018C2F4A
:100DC00090E0880F991FA5E5A49FB001A59F700D25
:100DD0001124861B970B982F990F980FBF01601B4A
:100DE000710B629FD001639FB00D729FB00D1124F3
:100DF0008B2F9D9FB0011124672F7727EF01C61B12
:100E0000D70BBE01629FE001639FD00D729FD00D92
:100E100011247F01E91AF108E09EB001E19E700DF6
:100E2000F09E700D1124672F7727E61BF70BE29FCA
:100E30008001E39F100DF29F100D1124E12F722FFE
:100E40004230510599F048F44115510569F041309F
:100E5000510581F0EB2F8D2F07C04430510569F00B
:100E600080F046305105B1F76E2F8DCFE22F7B2FEA
:100E7000812FFACFE22F7D2FF7CFEB2F822F712F0B
:100E8000F3CF7B2F822FED2FEFCF41E00C94B006F4
:100E900030E020E0869F212D969F200D311D1124EA
:100EA000C9010895AC018230910508F408959FEFBF
:100EB000413E8EE1580740F49A0195E0369527951A
:100EC0009A95E1F798E0920F61E0E62FE90FFF278E
:100ED000FF1F9F0135952795822F229FF001239FA9
:100EE000F00DF00D11244E175F0738F49FEF920FAD
:100EF000961758F78FEF860F08952F3FE9F361E0BB
:100F0000620FF6CFE82F86FDE0952E2F2F7086FD1D
:100F10002F5FE695E695E695E670F0E0E353FD4F2A
:100F20009181929F902D212D112492959F70229551
:100F3000207F922B2081920F87FD919580E8890F69
:100F40000895E42FF0E0EE0FFF1FE659FE4F4081B9
:100F500034EE439F412D1124E72FF0E050E0445E32
:100F60005F4FDA01A21BB1099D01B7FF03C03195A4
:100F70002195310993E0220F331F9A95E1F7AF01D4
:100F8000421B530B9A0157FD20E0279F212D11246E
:100F9000722F0895E42FF0E0EE0FFF1FE659FE4F89
:100FA000408134EE439F412D1124E82FF0E050E0C2
:100FB000445E5F4FDA01A21BB1099D01B7FF03C078
:100FC00031952195310993E0220F331F9A95E1F76E
:100FD000AF01421B530B9A0157FD20E0582F259F6C
:100FE000212D1124822F0895622F0895E42FF0E01F
:100FF000EE0FFF1FE659FE4F6081621B0895E42F3C
:10100000F0E0EE0FFF1FE559FE4F6081621B08956F
:10101000322F50E0FA01EE0FFF1FE559FE4F90818D
:10102000905297FD9195440F551FFA01E659FE4FD6
:101030002081231B330B290F311D97FD3A95620F39
:101040000895EF920F93972F23E0029FB001112490
:10105000759567956E0D792F0F91EF9008950F9309
:10106000CF93DF93D72FC82F47FD419588E390E0BA
:10107000841B910947FD9395889FB001899F700D4E
:10108000700D1124229FC001239F900D900D1124FB
:10109000860F971F0E945207982F990F890F682F6C
:1010A000600F7D2F8C2FDF91CF910F9108950F93BB
:1010B0001F93522F10E0F801EE0FFF1FE559FE4F6E
:1010C000A081A052BB0B9D015203F001539FF00D74
:1010D0001124000F111FD801A659BE4F0C910057C3
:1010E000110B40039001419F300D11242E0F3F1F23
:1010F00037FF02C021583F4F220F232F221F330BEF
:10110000620F1F910F9108950F931F93522F10E0BC
:10111000F801EE0FFF1FE559FE4FA081A052BB0B57
:101120009D015203F001539FF00D1124000F111F78
:10113000D801A659BE4F0C910057110B40039001E6
:10114000419F300D11242E0F3F1F37FF02C0215C3D
:101150003F4F96E0359527959A95E1F7620F1F91DD
:101160000F9108950F931F9310E0F801EE0FFF1FEA
:10117000E659FE4F9081905797FD9195000F111FF2
:10118000F801E559FE4F00810052110B2003F001D8
:10119000219FF00D112408E310E0091B110997FDB0
:1011A000139540039001419F300D1124E20FF31F6E
:1011B0009F01220F331F2E0F3F1F37FF02C0215800
:1011C0003F4F220F232F221F330B620F1F910F91CE
:1011D00008950F931F93CF93DF938B01D82FC42FC4
:1011E000822F0E948207EC2FF0E0EE0FFF1FE659DE
:1011F000FE4F90819058890F87FD8195880F682F49
:101200002CE0629F612D1124600F712F8D2FDF91D3
:10121000CF911F910F910895E42FF0E0EE0FFF1F83
:10122000E659FE4F9081921B97FD9195292F38E149
:10123000239F212D1124620F08954095282F429F4E
:10124000412D1124842F089522E8241B08F420E066
:10125000620F0895EF92FF920F93970195E0099F17
:10126000200D311D11242F3F310519F010F02FEF03
:1012700030E02095382F320F08F43FEF832F0F9185
:10128000FF90EF900895EF92FF920F931F930E0D32
:101290001F2D111DF90137FF03C0F195E195F109EB
:1012A00024E0EE0FFF1F2A95E1F7EF3FF10519F05B
:1012B00014F0EFEFF0E09A0157FF03C0319521954C
:1012C000310994E0220F331F9A95E1F72E173F075B
:1012D0000CF4F901E00FF11FEF3FF10519F010F0E8
:1012E000EFEFF0E0E095282F3E2F230F08F42FEFCB
:1012F000822F1F910F91FF90EF900895EF92FF9230
:101300000F93972F093438F4B701601B71096F3FB1
:10131000710519F010F06FEF70E0485F5F4F4131D9
:10132000510540F0A901485F5F4F4131510510F070
:101330006FEF70E06095482F460F08F44FEF842F51
:1013400037FF02C02D5F3F4F35952795359527957F
:1013500060916704620F792F0F91FF90EF900895CD
:10136000EF92FF920F939701201B31092F3F310518
:1013700019F010F02FEF30E0322F3095482F430F47
:1013800008F44FEF842F620F0F91FF90EF900895B4
:10139000EF92FF920F939701201B31092F3F3105E8
:1013A00019F010F02FEF30E02095382F320F08F4AD
:1013B0003FEF832F0F91FF90EF900895FC019B0169
:1013C000009729F480E077FF2BC080E80895AC01F6
:1013D00097FF04C044275527481B590BB901640FD8
:1013E000751F37FD10C0241B350BC901A5E0880F00
:1013F000991FAA95E1F70E94252C80E2861BF7FF32
:101400000FC081950895CB0165E0880F991F6A95FB
:10141000E1F7BA01621B730B0E94252C80E6EECF28
:1014200008950F931F93CF93DF93D62F172FC82FB5
:10143000C901272F201B022FBA010E94DE09982F15
:10144000990F990F782F791B700F719F712D1124AF
:101450006D2F8C2FDF91CF911F910F9108950F93D6
:101460001F93CF93DF93D62FC72F182FC901212F9A
:10147000201B022FBA010E94DE09982F990F990FA5
:10148000891B800F282F219F212D1124822F6D2F42
:101490007C2FDF91CF911F910F910895EF920F93C1
:1014A0001F93CF93DF93D62F172FC82FC9010E1983
:1014B000070FBA010E94DE09702F781B719F712DF2
:1014C00011246D2F8C2FDF91CF911F910F91EF90F1
:1014D0000895EF920F931F93CF93DF93D62FC72FCB
:1014E000182FC9010E19010FBA010E94DE09081B4D
:1014F000202F219F212D1124822F6D2F7C2FDF91F2
:10150000CF911F910F91EF9008950F93CF93DF9399
:10151000D72FC82FC901BA010E94DE09682F600FBA
:101520007D2F8C2FDF91CF910F910895EF920F9324
:10153000CF93DF93D72FC82FC9010E19BA010E948C
:10154000DE09602F681B7D2F8C2FDF91CF910F91CB
:10155000EF9008950C94450745E050E06CE170E091
:1015600086E694E00C94E52C45E050E06CE170E0F8
:1015700086E694E00C94032DE6E6F4E085E38083B0
:101580008091820290918302A09184028183928350
:10159000A3838FE784830C94B40A80E008950F93AB
:1015A0001F93CF93DF93C82FD62F8A010E94CD0AB5
:1015B00091E1C99FB00111246C5F7E4F6D0F711DC9
:1015C000FB0190819F3F29F0F801E80FF11D908306
:1015D0008F5FDF91CF911F910F910895E091DB0212
:1015E000F091DC020994E091D702F091D8020994BD
:1015F0005F926F927F928F929F92AF92BF92CF92A3
:10160000DF92EF92FF920F931F93CF93DF935C01D2
:101610004B01FC01C08182E1C89FC02D112412E161
:101620001C0FF12E183510F037E5F32E60916A0487
:10163000669580916B0490916C040E944807582E27
:10164000D0E0CF15A0F081E0173508F080E0DF9101
:10165000CF911F910F91FF90EF90DF90CF90BF90AF
:10166000AF909F908F907F906F905F900895FE0154
:10167000E85EFD4F8081F50191818923C9F1CE019A
:10168000880F991F8C5F9E4FFC01EA59FF4F208104
:10169000422F4057550B6A0189599F4FFC018081A9
:1016A000282F2052330B3901449F9001459F300D64
:1016B000300D1124669CC001679C900D900D112483
:1016C000820F931F0E945207082F60916704709148
:1016D000680480916904E52C9301A601F401099541
:1016E0000E94AA0A462F282F672FCE010E94F30AD4
:1016F0002196A7CF6EE47AE00C94F80A69E67AE0C6
:101700000C94F80A61E278E00C94F80A66E97AE051
:101710000C94F80AAF92BF92CF92DF92EF92FF92B1
:101720000F931F93CF93DF936C017B01FC01C0816A
:1017300082E1C89FC02D112412E11C0FB12E183573
:1017400010F037E5B32E60916A04669580916B04C2
:1017500090916C040E944807A82ED0E0CB1578F039
:1017600081E0173508F080E0DF91CF911F910F9154
:10177000FF90EF90DF90CF90BF90AF900895FE0163
:10178000E85EFD4F8081F6019181892311F1CE0140
:10179000880F991F8C5F9E4FFC01E959FF4F2081F4
:1017A0002052330B8A599F4FFC0140814057550B03
:1017B0006091670470916804809169040A2DF701B3
:1017C00009950E94AA0A462F282F672FCE010E9452
:1017D000F30A2196C3CF61E17AE00C948A0B6FE2A1
:1017E0007AE00C948A0B6FE278E00C948A0B65E83F
:1017F0007AE00C948A0BBF92CF92DF92EF92FF9225
:101800000F931F93CF93DF936C017B01FC01C08189
:1018100082E1C89FC02D112412E11C0F012F183541
:1018200008F007E560916A046695669580916B04FF
:1018300090916C040E944807B82ED0E0C01770F059
:1018400081E0173508F080E0DF91CF911F910F9173
:10185000FF90EF90DF90CF90BF900895FE01E85E7B
:10186000FD4F8081F6019181892391F06091670499
:1018700070916804809169042B2D4C2FF701099514
:101880000E94AA0A462F282F672FCE010E94F30A32
:101890002196D4CF61EA77E00C94FB0B6AEC77E0F9
:1018A0000C94FB0B64EF77E00C94FB0B66EF77E096
:1018B0000C94FB0B6FEF77E00C94FB0B68E078E087
:1018C0000C94FB0B69EE78E00C94FB0B6CE079E078
:1018D0000C94FB0B7F928F929F92AF92BF92CF920C
:1018E000DF92EF92FF920F931F93CF93DF935C01F0
:1018F0006B01FC01C08182E1C89FC02D112412E15F
:101900001C0F912E183510F037E5932E60916A0464
:101910006695669580916B0490916C040E944807CF
:10192000F82E80E48F0D0E94820790E8892E880EA1
:101930008F2D0E94820720E8722E780ED0E0C91504
:1019400090F081E0173508F080E0DF91CF911F9192
:101950000F91FF90EF90DF90CF90BF90AF909F904E
:101960008F907F900895FE01E85EFD4F8081F50124
:1019700091818923A1F0609167047091680480913E
:101980006904EF2C0C2F272D482DF60109950E9494
:10199000AA0A462F282F672FCE010E94F30A21960C
:1019A000CECF67E578E00C946A0C64E878E00C949C
:1019B0006A0C62EB78E00C946A0CAF92BF92CF9203
:1019C000DF92EF92FF920F931F93CF93DF937C01EF
:1019D0006B01FC01C08182E1C89FC02D112422E16E
:1019E000B22EBC0EAB2CF7E5FB1510F497E5A92E33
:1019F00020916A0430E050E040E06FEF7FEF80E03C
:101A000090E00E94392C8901D0E02C2FCA1580F07B
:101A100081E0F6E5FB1508F480E0DF91CF911F919E
:101A20000F91FF90EF90DF90CF90BF90AF9008950F
:101A3000FE01E85EFD4F8081F70191818923F1F07D
:101A400040916F044150042E000C550B47FF18C005
:101A5000C80160916A040E944807AC016091670464
:101A60007091680480916904F60109950E94AA0AA0
:101A7000462F282F672FCE010E94F30A2196C5CF4B
:101A8000FA01E159FB4F818982130AC0FA01EE0F76
:101A9000FF1FE159FB4F818D928D80179107C8F28E
:101AA00041505109D3CF6DE179E00C94DD0C64E233
:101AB00079E00C94DD0C2F923F924F925F926F92DF
:101AC0007F928F929F92AF92BF92CF92DF92EF92CE
:101AD000FF920F931F93CF93DF93CDB7DEB72B9772
:101AE0000FB6F894DEBF0FBECDBF8C832B015F8392
:101AF0004E83FB01F08182E1F89F802D11248983C0
:101B00008E5E8A838B83883510F027E52B83309196
:101B10006F043D839981892F90E09B878A87880F86
:101B2000991FFC01E659FE4F6F01FC818F2F90E059
:101B30009C012F5F3F4F39872887EB81FA85FE177D
:101B4000F0F081E02A81273508F080E02B960FB66F
:101B5000F894DEBF0FBECDBFDF91CF911F910F91E3
:101B6000FF90EF90DF90CF90BF90AF909F908F90BD
:101B70007F906F905F904F903F902F900895EA85EF
:101B8000FB85E85EFD4F8081F2019181892301F19F
:101B900020906704309068042885398521593B4F8F
:101BA00039013C81398310E029813D812317C8F038
:101BB00020916904129F112D1124B101812F0E94DF
:101BC000AA0A462F282F672F8A859B850E94F30A31
:101BD0008A859B8501969B878A8792E0C90ED11CD6
:101BE000ACCFF30181913F01F601A080A81ABB0898
:101BF0008180F3018781881A9908AA9C9001AB9C87
:101C0000300D300D1124889CC001899C900D900DE1
:101C10001124820F931F0E945207082FF301EE0F29
:101C2000FF1FEF56F44060916A04858996890E94EF
:101C300048077C019401A501B101812FEE81FF814C
:101C400009951B01F981FF5FF983182FADCF209112
:101C50006F0431E0231B08F420E04AE259E0BC01A4
:101C6000822F0C945B0D4AE259E0BC0180E00C9499
:101C70005B0D20916F0431E0231B08F420E043E466
:101C800059E0BC01822F0C945B0D43E459E0BC0188
:101C900080E00C945B0D20916F0431E0231B08F46D
:101CA00020E04EE759E0BC01822F0C945B0D4EE71B
:101CB00059E0BC0180E00C945B0D20916F0431E091
:101CC000231B08F420E040EB59E0BC01822F0C9468
:101CD0005B0D40EB59E0BC0180E00C945B0D209162
:101CE0006F0431E0231B08F420E048EC59E0BC010C
:101CF000822F0C945B0D48EC59E0BC0180E00C9401
:101D00005B0DBF92CF92DF92EF92FF920F931F93E2
:101D1000CF93DF937C01FC01C08182E1C89FC02D7D
:101D2000112412E11C0F012F183508F007E560910E
:101D3000670470916804809169040E94AA0AD62EF3
:101D4000C72EB82ED0E0C01770F081E0173508F02C
:101D500080E0DF91CF911F910F91FF90EF90DF9086
:101D6000CF90BF900895FE01E85EFD4F8081F7019E
:101D70009181892331F02B2D4D2D6C2DCE010E94A8
:101D8000F30A2196E0CF8F929F92AF92BF92CF92AB
:101D9000DF92EF92FF920F931F93CF93DF937C011B
:101DA000FC01C08182E1C89FC02D112412E11C0FEB
:101DB000012F183508F007E5C0906804D090690439
:101DC000D09167046D2F7C2D8D2D0E94AA0AB62E0E
:101DD000A72E982E60916A046D0F7C2D8D2D0E9488
:101DE000AA0AD62EC72E882ED0E0C01788F081E030
:101DF000173508F080E0DF91CF911F910F91FF9090
:101E0000EF90DF90CF90BF90AF909F908F9008950C
:101E1000FE01E85EFD4F9081F7018181892359F031
:101E2000282D4D2D6C2D90FD03C0292D4B2D6A2D95
:101E3000CE010E94F30A2196D8CFBF92CF92DF92B3
:101E4000EF92FF920F931F93CF93DF937C01FC01DE
:101E5000C08182E1C89FC02D112412E11C0FD12E38
:101E6000183510F097E5D92EC0906804B090690439
:101E700020916A0400E4029F012D1124D0E0CD15C9
:101E800070F081E0173508F080E0DF91CF911F916D
:101E90000F91FF90EF90DF90CF90BF900895FE01DB
:101EA000E85EFD4F8081F70191818923B9F0FE0141
:101EB000EE0FFF1FE559FE4F808182958F70609174
:101EC0006704809F600D11247C2D8B2D0E94AA0A2F
:101ED000462F282F672FCE010E94F30A2196CFCFDD
:101EE000BF92CF92DF92EF92FF920F931F93CF9307
:101EF000DF938C01FC01C08182E1C89FC02D1124B9
:101F000052E1F52EFC0EDF2CF7E5FF1510F447E546
:101F1000D42EC0906804B090690420916A0430E423
:101F2000E32E3E2D329F312D1124E32ED0E0CD152E
:101F300078F081E036E53F1508F480E0DF91CF913D
:101F40001F910F91FF90EF90DF90CF90BF90089579
:101F5000FE01E85EFD4F8081F80191818923D9F06F
:101F6000FE01EE0FFF1FE659FE4F6081E69EB001B5
:101F7000112495E0759567959A95E1F7809167042E
:101F8000680F7C2D8B2D0E94AA0A462F282F672FC1
:101F9000CE010E94F30A2196CACFBF92CF92DF9260
:101FA000EF92FF920F931F93CF93DF938C01FC016D
:101FB000C08182E1C89FC02D112492E1F92EFC0E50
:101FC000EF2CF7E5FF1510F487E5E82ED0906704B5
:101FD000D0916804C090690460916A046695669522
:101FE000669580916B0490916C040E9448070E9452
:101FF0008207805887FD8195880F282F3C2D239FCD
:10200000212D1124822F6D2D7D2F0E94AA0AD62EFC
:10201000C72EB82ED0E0CE1578F081E026E52F153A
:1020200008F480E0DF91CF911F910F91FF90EF9026
:10203000DF90CF90BF900895FE01E85EFD4F808154
:10204000F8019181892331F02B2D4D2D6C2DCE017E
:102050000E94F30A2196DFCFDF92EF92FF920F9357
:102060001F93CF93DF938C01FC01E85EFD4F8081CD
:10207000682381F1D0906804D0916904C09167040D
:10208000EC2EF12C0E94CC2C282FC7018C549F4F92
:1020900068E671E00E94252C8E199F0997FD039632
:1020A000959587959595879523706C2F289F600D42
:1020B00011247D2D8D2F0E94AA0A462F282F672FCD
:1020C000C801DF91CF911F910F91FF90EF90DF90AA
:1020D0000C94F30ADF91CF911F910F91FF90EF9035
:1020E000DF900895DF92EF92FF920F931F93CF93AB
:1020F000DF938C01FC01C281C11125C060916A048B
:1021000020E1620F08F46FEF80916B0490916C04F2
:102110000E9448076AE070E00E94112C892B51F45C
:102120000E94CC2C67E570E00E94252CF8016181AB
:102130000E942C108C2FDF91CF911F910F91FF9057
:10214000EF90DF900895C08182E1C89FC02D1124D7
:1021500082E1D82EDC0E8D2DF7E5FD1508F487E51C
:10216000D0E0E82EF12CCE15DF0534F0C1E0F6E525
:10217000FD1500F7C0E0DECFF8016181CE010E94BD
:102180002C102196F0CF1F93CF93DF93EC01FC012D
:10219000E85EFD4F80816823A1F00E94CC2C182FAF
:1021A0000E94CC2C612F782F809169040E94AA0A8A
:1021B000462F282F672FCE01DF91CF911F910C94CE
:1021C000F30ADF91CF911F910895DF92EF92FF9272
:1021D0000F931F93CF93DF938C01FC01C281C11138
:1021E00025C060916A0420E1620F08F46FEF8091CE
:1021F0006B0490916C040E94480765E070E00E94B7
:10220000112C892B51F40E94CC2C67E570E00E94C0
:10221000252CF80161810E94C3108C2FDF91CF9192
:102220001F910F91FF90EF90DF900895C08182E1A0
:10223000C89FC02D112482E1D82EDC0E8D2DF7E52C
:10224000FD1508F487E5D0E0E82EF12CCE15DF056A
:1022500034F0C1E0F6E5FD1500F7C0E0DECFF8018F
:102260006181CE010E94C3102196F0CFBF92CF9220
:10227000DF92EF92FF920F931F93CF93DF937C0136
:10228000FC01C08182E1C89FC02D112412E11C0F06
:10229000012F183508F007E5C0906804D090690454
:1022A000D091670460916A04669566956695809101
:1022B0006B0490916C040E9448070E94820780582A
:1022C00087FD8195880F682F2CE0629F612D112476
:1022D0006D0F7C2D8D2D0E944507D62EC72EB82E52
:1022E000D0E0C01770F081E0173508F080E0DF9192
:1022F000CF911F910F91FF90EF90DF90CF90BF9003
:102300000895FE01E85EFD4F8081F70191818923E8
:1023100031F02B2D4D2D6C2DCE010E94F30A21960C
:10232000E0CFE091D902F091DA020994CF92DF92E6
:10233000EF92FF920F931F93CF93DF93CDB7DEB74A
:1023400028970FB6F894DEBF0FBECDBF182F062F0B
:10235000F42E0E947518882309F44BC0FF2009F45D
:1023600057C0AE014F5F5F4F602F812F0E94CF0A91
:10237000F82EE09013030F2D10E0C8018E0D911D73
:10238000099764F188E090E06C01C01AD10AB801A5
:102390006C5E7C4FA60184E193E00E94DC2CB801C6
:1023A000645E7C4FA6018CE193E00E94DC2CA601C8
:1023B000440F551FB801660F771F645D7C4F8CE298
:1023C00093E00E94DC2CB8016C5D7C4FA60184E296
:1023D00093E00E94DC2CEA94E09213031091130323
:1023E000DE01119640E0842F810FF41213C0809318
:1023F000130328960FB6F894DEBF0FBECDBFDF9152
:10240000CF911F910F91FF90EF90DF90CF900895A3
:10241000F12CAFCF5D91252F30E090E0BC016D5ED7
:102420007C4FF901EE0FFF1FE659FE4F0081FB01C3
:102430000183220F331FF901E559FE4F2081FB0173
:102440002187518B880F991FFC01ED5EFC4F128E86
:10245000118E4F5FC8CF08950E948D020C942B12ED
:1024600008950895CF93DF93FC01C08182E1C89F56
:10247000C02D1124DEEEDC0FC83508F0C7E56C2F47
:102480008D2F0E9430126C2F8D2FDF91CF910C94E5
:1024900031124F925F926F927F928F929F92AF9282
:1024A000BF92CF92DF92EF92FF92CF9360913C0365
:1024B00070913D0380913E0390913F030E94FE2462
:1024C0006B017C010E94E3244B015C0180923C0380
:1024D00090923D03A0923E03B0923F03A09113035C
:1024E000E3E1F3E08A2F90E04FEF5FEF60E070E010
:1024F0004C195D096E097F09A91325C08093130348
:1025000080916604C82FC37019F0C82FC695C69570
:1025100090916F02913009F440C0992339F19230C3
:1025200009F449C1933009F44FC1CF91FF90EF9066
:10253000DF90CF90BF90AF909F908F907F906F90E3
:102540005F904F900895218D328D2901712C612C5F
:10255000441555056605770520F481509F5F329636
:10256000CBCF2C0D3D1D328F218FF8CF10927002F2
:1025700080926B0490926C04A0926D04B0926E04F1
:1025800089E2E3E1F3E0AFE6B4E001900D928A95D1
:10259000E1F781E080936F02C8CF90917302C91375
:1025A00015C0982F93702091740230E081E092174B
:1025B000130609F480E0817080937202C83278F4C7
:1025C000EC2FF0E0E55AF24D0C94582C81E0F3CF5B
:1025D000882359F040E060E080E00E94911180E0A3
:1025E00004C080E792E00E94810E909170029F5F8C
:1025F000909370028111DBC082E080936F02809122
:1026000072028111D4C0CC2309F4DCC00E942C12C8
:1026100080E792E0CF91FF90EF90DF90CF90BF9056
:10262000AF909F908F907F906F905F904F900C94A1
:10263000321280E792E00E94C30ED7CF80E792E08B
:102640000E941D0FD2CF80E792E00E94700FCDCF85
:1026500080E792E00E94CD0FC8CF80E792E00E9411
:102660004A0CC3CF80E792E00E944E0CBECF80E7B9
:1026700092E00E94EB0BB9CF80E792E00E94EF0B53
:10268000B4CF80E792E00E947A0BAFCF80E792E070
:102690000E947E0BAACF80E792E00E94520CA5CF49
:1026A00080E792E00E94560CA0CF80E792E00E9463
:1026B0005A0C9BCF80E792E00E945E0C96CF80E799
:1026C00092E00E94820B91CF80E792E00E94F30B90
:1026D0008CCF80E792E00E94F70B87CF80E792E0F3
:1026E0000E94860B82CF80E792E00E94D10C7DCFC2
:1026F00080E792E00E94D50C78CF80E792E00E94BC
:10270000D90C73CF80E792E00E9472106ECF80E701
:1027100092E00E94E51069CF80E792E00E943611B6
:1027200064CF80E792E00E94620C5FCF80E792E086
:102730000E94660C5ACF80E792E00E94530D55CF5D
:1027400080E792E00E94570D50CF80E792E00E9410
:10275000270E4BCF80E792E00E94330E46CF80E7F2
:1027600092E00E94390E41CF80E792E00E94450E30
:102770003CCF80E792E00E944B0E37CF80E792E09B
:102780000E94570E32CF80E792E00E945D0E2DCF5F
:1027900080E792E00E94690E28CF80E792E00E94D5
:1027A0006F0E23CF80E792E00E947B0E1ECFCC23DA
:1027B00009F4BBCE2BCFC093730283708093740255
:1027C0000E94EE0A83E0E6CE60916B0470916C0487
:1027D00080916D0490916E040E94FE246031710519
:1027E0008105910508F4A1CE10926F029ECEE09172
:1027F000D502F091D602099510926F048FEF9FEFEA
:10280000909389048093880490938B0480938A0426
:1028100090938D0480938C0490938F0480938E0406
:1028200090939104809390049093930480939204E6
:1028300090939504809394049093970480939604C6
:102840001092130390932D0380932C0390932F03E6
:1028500080932E039093310380933003909333033E
:10286000809332039093350380933403909337031E
:1028700080933603909339038093380390933B03FE
:1028800080933A030E943523811104C00E94D9230A
:102890000E94BC0A0E94AC0A809166048C7F11F4ED
:1028A0000C94BC0A08959091660421E092279093BD
:1028B000660410926F0281110C94B40A089581E0AD
:1028C0000C94531490916604937099F0811109C08F
:1028D00094609093660410926F02662351F00C94FA
:1028E000B40A883210F09C69F4CF880F880F982BB7
:1028F000F0CF089561E00C946214682F9091660403
:102900009695969581E0890F883208F081E00C94C5
:10291000621481E00C947D14682F90916604969562
:1029200096958FEF890F09F487E20C94621481E089
:102930000C948C1490916604937061F080936704FA
:1029400060936804433308F042E340936904211123
:102950000C94B40A0895A6E6B4E01196EC91119790
:10296000F0E0282F13964C91139712966C91CF019B
:1029700008960C949A1481E00C94AB14E6E6F4E00B
:102980009181282F43816281E92FE850FF0BCF010D
:102990000C949A1481E00C94BE14E6E6F4E0628193
:1029A00020E1620F08F46FEF9181282F4381892F76
:1029B00090E00C949A1481E00C94CD14E6E6F4E0D7
:1029C000628120E1621B08F460E09181282F43813D
:1029D000892F90E00C949A1481E00C94DE14E6E6C2
:1029E000F4E0438120E1420F08F44FEF9181282F5A
:1029F0006281892F90E00C949A1481E00C94EF147A
:102A0000E6E6F4E0438120E1421B08F440E09181D6
:102A1000282F6281892F90E00C949A1481E00C9405
:102A2000001520916A0430E1230F08F42FEF209362
:102A30006A0481110C94B40A089581E00C94111574
:102A400020916A0430E1231B08F420E020936A04FB
:102A500081110C94B40A089581E00C942015089516
:102A6000FC01EE0FFF1FE80FF91FE856FB4F6183D3
:102A7000408322830895E8E9F4E081836083428300
:102A8000339695E0ED39F907C1F7089567E570E0F1
:102A900088E994E00C94AF15FA01811101C0FB01A3
:102AA00009940F931F93CF938C01FB01C281CC2318
:102AB00009F453C00E947E228272F801E35CFC4557
:102AC000E431F10538F4ED57F24D0C94582C0E9486
:102AD0005F14C0E08C2FCF911F910F91089547E9AB
:102AE00054E169E874E10E944C15F3CF49E854E1E0
:102AF00067E974E1F8CF4AEC54E16BEB74E1F3CF92
:102B00004BEB54E16AEC74E1EECF4CEE54E16BED2B
:102B100074E1E9CF4BED54E16CEE74E1E4CF4EE0AB
:102B200055E16DEF74E1DFCF4DEF54E16EE075E1FB
:102B3000DACF4CE255E16DE175E1D5CF4DE155E1DC
:102B40006CE275E1D0CF81E00E947A14C2CF85E0BB
:102B5000FBCF8DE0F9CF82E1F7CFC1E0BBCF6E9A1A
:102B60004EB14F7B5EB15064EFB7F8949B01220FDA
:102B7000331F260F371F280F391F2817390741F435
:102B8000EFBF8FE594E00197F1F700C000000895D2
:102B9000DC016D91CD0178E05EB9000000C067FFF7
:102BA0004EB9660F000000C000C000C04EB900C0A2
:102BB0007A9591F7E2CF0F931F93CF93DF93C42FB2
:102BC000D22FFC0182818823C9F0409342030E94E6
:102BD000D724909341038093400380E28C0F883088
:102BE00008F050C0C77081E001C0880FCA95EAF7AD
:102BF000DF91CF911F910F910C94951A1091420380
:102C0000141335C080914003909141030E94EF243A
:102C1000883C910560F5C0E2CD0F1D17B9F080E248
:102C2000810F883040F4177081E001C0880F1A9539
:102C3000EAF70E949C1AC83048F481E09D2F9770F3
:102C400001C0880F9A95EAF70E94951A802F0E947A
:102C50008D1AC830B8F4D77081E001C0880FDA95BA
:102C6000EAF7DF91CF911F910F910C949C1A80E2AB
:102C70008C0F883038F4C77081E001C0880FCA9586
:102C8000EAF7EFCFDF91CF911F910F9108950F9346
:102C90009C01CB01243F4CE5340759F1A8F4293DB0
:102CA000FCE53F0701F12A3D4CE53407D1F1283D11
:102CB0003C4591F406E221EE41EE68ED7CE50E9490
:102CC000DB1580E00F910895263FFCE53F07E9F012
:102CD000B0F0273F3C45F9F0FC018281882339F1AF
:102CE00010924203EFCF07E225EE45EE69ED7CE559
:102CF000E6CF06E221EE40EE64EF7CE5E0CF07E2AE
:102D000025EE44EE65EF7CE5DACF06E221EE42EEF9
:102D100066EF7CE5D4CF07E225EE46EE67EF7CE573
:102D2000CECF08E221E045EE6AED7CE5C8CF81E038
:102D3000C9CFCF93DF93EC01FB018281882309F493
:102D400019C1C230FCE5DF07C0F1C6319CE5D907E7
:102D500030F09E012B5F3C452930310570F50E9413
:102D600048239093A2058093A105C031ECE5DE07CE
:102D700009F4CFC008F05BC0C8308CE5D80709F46F
:102D8000B6C088F5C430ECE5DE0709F4A8C0C0F48D
:102D9000C2308CE5D80709F49CC08091A1058260FF
:102DA000C330DC4509F498C08091A1059091A2053B
:102DB0000E9456230E94FF1C80E0DF91CF9108956E
:102DC0008091A1058061C630ECE5DE0709F484C07E
:102DD0008091A1058860C730DC4508F47DC08091F2
:102DE000A105806279C0CC308CE5D80709F489C090
:102DF00070F48091A1058C60CA30ECE5DE0709F41F
:102E00006BC008F478C08091A1058E7F65C0CE307C
:102E10008CE5D80709F479C08091A1058B7FCF306C
:102E2000DC4508F459C08091A1058F7E55C0CC3F88
:102E3000ECE5DE0709F457C030F5C3318CE5D8075F
:102E400009F46FC078F4C131ECE5DE0709F465C020
:102E5000C231DC4509F0A8CF0E94FF1C8091A1057A
:102E60008F773AC0C5318CE5D80709F462C008F401
:102E700076C08091A2058160CB3FDC4509F094CFFC
:102E80008093A20591CFC115FDE5DF0709F44DC080
:102E900088F48091A2058D7FCE3F9CE5D90781F310
:102EA0008091A2058E7FCF3FDC4550F38091A20533
:102EB0008360E6CFC230FDE5DF0709F459C008F4AE
:102EC00044C080E0C330DD4509F06ECF0E94DB23B3
:102ED0006BCF8091A10581608093A10565CF809122
:102EE000A1058460F9CF8091A2058260C9CF80914D
:102EF000A1058064F1CF0E94FF1C8091A10580682C
:102F0000EBCF8091A1058D7FE7CF8091A105877FD1
:102F1000E3CF8091A1058F7DDFCF8091A1058F7BCD
:102F2000DBCF8091A105837FD7CF8091A2058C7FD5
:102F3000A7CF8091A10582FB992790F921E09227E4
:102F400090FB82F990FB83F9C7CF8091A205982F5F
:102F5000909591708E7F892B90FB81F991CF0E9483
:102F6000FF1C9091A105892F97FB87F98058B4CF5A
:102F700081E0ACCF81E021CFCF93DF93EB018631AD
:102F80009C4511F50E947E229A81992399F08A7AB4
:102F900091E009F490E090934303811109C089E224
:102FA0000E9459220E94CA2280E0DF91CF910895A9
:102FB00085E3F6CF80914303811104C089E20E942A
:102FC0006022F0CF85E3FBCF81E0EFCF9093490300
:102FD000809348030895E0914803F09149033097A6
:102FE00021F00190F081E02D099480E00895E091B6
:102FF0004803F0914903309711F480E0089501905F
:10300000F081E02D09950895E0914803F09149037E
:10301000309799F020918102222359F02091A10547
:1030200027FF07C0DC012C9111962C93119725E006
:103030002C930280F381E02D09940895209146039A
:10304000309147032817390771F090934703809315
:103050004603E0914803F0914903309721F0068040
:10306000F781E02D099408952091440330914503A0
:103070002817390771F09093450380934403E0913A
:103080004803F0914903309721F00084F185E02D49
:10309000099408950E94E324609367037093680382
:1030A0008093690390936A0360936303709364034E
:1030B0008093650390936603089585B7806885BF04
:1030C00085B7806885BF0895089508950C946418A5
:1030D00008950C9468180E945D188DE293E20E9496
:1030E00062250E9465180C94661881E008950C947E
:1030F0007518089508950E94CE240E9498050E9494
:103100007D250C9469184F925F926F927F928F92F7
:103110009F92AF92BF92CF92DF92EF92FF920F9366
:103120001F93CF93DF93CDB7DEB72A970FB6F894EE
:10313000DEBF0FBECDBF0E9479180E947A180E9490
:10314000D10581110E944A185BE4C52E53E0D52EAB
:1031500010E000E0E02E802F0E946D052B013C0165
:10316000F60181909190A190B1906F018414950423
:10317000A604B704B1F40F5F1F4F0630110551F7D5
:103180008FEF89838A831B820E94D7248160782FE6
:103190009D838C8349815A816B818D810E94661940
:1031A00051C08091120481FD0E947805D501C401AF
:1031B00084259525A625B725F12C812C912C540129
:1031C0008394AC01BD01482159216A217B21452B03
:1031D000462B472B09F45AC00E94771848205920E3
:1031E0006A207B20DD24D39445284628472809F40B
:1031F000D12C882379F0FE82EF82D8860E94D724D2
:103200008160782F9A8789874E815F8168858A855A
:103210000E946619000F111F000F111FF801E55BD6
:10322000FC4F80819181A281B38188259925AA25AF
:10323000BB2580839183A283B3834D2D6F2D8E2D6B
:103240000E9496110E9449120E94EB1790914A0326
:10325000891729F10E94EB1780934A032A960FB62B
:10326000F894DEBF0FBECDBFDF91CF911F910F91BC
:10327000FF90EF90DF90CF90BF90AF909F908F9096
:103280007F906F905F904F900C945B03F394880C49
:10329000991CAA1CBB1CF1E1FF1293CF6CCF2A969C
:1032A0000FB6F894DEBF0FBECDBFDF91CF911F9157
:1032B0000F91FF90EF90DF90CF90BF90AF909F90D5
:1032C0008F907F906F905F904F900895DF92EF9274
:1032D000FF920F931F93CF93DF93CDB7DEB72B975A
:1032E0000FB6F894DEBF0FBECDBF7A878B87F42E62
:1032F000052F162FE72ED82E61110E949E221E82C6
:103300001D827E2DEC82DD824F2D502F612F8D2D61
:103310009E812B960FB6F894DEBF0FBECDBFDF9116
:10332000CF911F910F91FF90EF90DF900C94751F3C
:10333000FC01808191810C942B22CF93C82F88238C
:1033400009F483C08238C1F40E94EB1781FD7DC06F
:1033500089E30E9459220E94CA222FEF81EE94E055
:10336000215080409040E1F700C0000089E30E94B6
:103370006022CF910C94CA228338A1F40E94EB17EB
:1033800080FD63C083E50E9459220E94CA222FEF6C
:1033900081EE94E0215080409040E1F700C00000B1
:1033A00083E5E5CF8438A1F40E94EB1782FD4DC080
:1033B00087E40E9459220E94CA222FEF81EE94E0F6
:1033C000215080409040E1F700C0000087E4CFCF5B
:1033D0008CEF8C0F813A90F46C2F80917502909154
:1033E00076020E94F423882329F08C2F0E94602209
:1033F0000E94CA228C2F0E945922BBCF80E28C0FE0
:10340000883048F4C77081E001C0880FCA95EAF798
:103410000E948122AECFEBE5EC0FE33040F4F0E008
:10342000E55FFC4F808190E0CF910C941E18C85A44
:10343000C73158F4EC2FF0E0EE0FFF1FE352FD4FC1
:1034400080819181CF910C943418CF910895882375
:1034500009F44BC0823871F40E94EB1781FF45C01C
:1034600089E30E9459220E94CA2289E30E946022B5
:103470000C94CA22833859F40E94EB1780FF35C0A0
:1034800083E50E9459220E94CA2283E5EFCF843847
:1034900059F40E94EB1782FF28C087E40E9459224A
:1034A0000E94CA2287E4E2CF9CEF980F913AF0F293
:1034B00090E2980F983050F4877091E001C0990F16
:1034C0008A95EAF7892F0E948722D2CF9BE5980F31
:1034D000933020F490E080E00C941E18885A8731D5
:1034E00020F490E080E00C94341808951F93CF935B
:1034F000DF93182FEB010E949D19209731F4812F43
:10350000DF91CF911F910C94271A8FE99FE00197CB
:10351000F1F700C000002197F0CF70E060E0893340
:1035200011F460E570E00C94761A882321F00E9473
:1035300081220C94CA220895882321F00E948722B8
:103540000C94CA220895BF92CF92DF92EF92FF921D
:103550000F931F93CF93DF936C01D62FC72FFC01DE
:103560001281058102950F700E947722E82E882330
:10357000A1F0E12E112389F08C2F807F803429F077
:1035800080E28D0FE12C883040F082E00E9415230C
:103590000E94772291E0E82EE926BC2EB2949FE0AB
:1035A000B922EB2DF0E0E956F24D0C94582C0C2F7B
:1035B0000F70C07F11F00295007F1123A9F0002346
:1035C00059F080E28D0F883010F0D11109C0802FA2
:1035D0000E9481220E94CA228D2F0E949D1914C030
:1035E000802F0E949122F6CF8D2F0E94271A002350
:1035F00059F080E28D0F883010F0D1112CC0802F4F
:103600000E9487220E94CA222B2D2850330B24307F
:10361000310520F40E94EB170E945B03EE2009F4B1
:1036200093C10E94732280FD8FC1F60112820E9415
:103630006D220E94F920C6010E94C51C0E946D22C5
:10364000DF91CF911F910F91FF90EF90DF90CF907E
:10365000BF900C941A21802F0E949722D3CFFC2F69
:10366000FF70FF2EC07FC03219F0F29480EFF82275
:10367000DD2369F0D13049F1112391F1002351F19B
:10368000F601858180FFA8CF8F70858323C0112329
:1036900081F0011106C00E94B1228F290E94951A63
:1036A000B3CF0130C1F70E94B1228F290E94B72207
:1036B000ABCF011106C00E94C0228F2D0E949C1A20
:1036C000A3CF013009F4A0CFF6CF112329F00630A3
:1036D00008F09ACF8F2DE2CF053008F095CFEDCFCF
:1036E000002359F3D93349F4FFEF27EE33E0F150CB
:1036F00020403040E1F700C000008D2F0E94271AC3
:1037000083CF8C2F86958695837069F0813009F080
:103710007BCF8D2F9C2F9370111102C090E080E021
:103720000E94341871CF8D2F9C2F9370111102C0FD
:1037300090E080E00E941E1867CF8C2F837009F004
:1037400041C0111161CF4D2F429546954770440FEE
:10375000440F0D2F0F7010E030E020E0042E04C065
:10376000000F111F221F331F0A94D2F760E070E090
:10377000CB01D4FF0FC06FE070E080E090E004C0A8
:10378000660F771F881F991F4A95D2F7609570952D
:1037900080959095C695C695C370602B712B822B32
:1037A000932BC23049F058F4C13019F00E94AB207D
:1037B0002BCF0E94992028CF0E94BD2025CF0E94A8
:1037C000972022CF8695112311F08C2F81708823AA
:1037D00009F41ACF4D2F429546954770440F440F78
:1037E0000D2F0F7010E030E020E0042E04C0000F19
:1037F000111F221F331F0A94D2F760E070E0CB0143
:10380000D4FF0FC06FE070E080E090E004C0660F6E
:10381000771F881F991F4A95D2F7609570958095FC
:103820009095C695C695C370602B712B822B932BF8
:10383000C23049F058F4C13019F00E947021E4CE32
:103840000E945E21E1CE0E948221DECE0E94D32022
:10385000DBCECF70112329F08C2F0E94F9208D2F01
:103860001DCF8D2F0E949C1A8C2F0E941A21CCCE26
:10387000D23F89F160F4D03FC9F0D13F29F1112343
:1038800009F442C00111A8CE8C2F8F7121C0D33F03
:1038900039F1D43FA1F7112369F1CF718C2F0E9428
:1038A000F92063E08C2F0E940023AECE112341F05B
:1038B000053008F0A9CE8C2F8F710E943D21A4CE37
:1038C000063008F0A1CEF7CF8C2F8F71112369F24B
:1038D0000E94F92099CE8C2F8F711123C9F3C5CF87
:1038E000112329F08C2F8F710E94E4208DCE0E942D
:1038F000DF208ACE81E00E941523023008F484CEB6
:1039000082E00E94152380CE002359F0D93309F0BC
:10391000F4CE8FEF97EEE3E081509040E040E1F786
:10392000EACE8C2F8F71A1CF4C2F4F706D2FC60117
:103930000E9463030E940F2067CE4C2F4F706D2FA3
:10394000C6010E94660360CEDF91CF911F910F9157
:10395000FF90EF90DF90CF90BF9008950F931F934B
:10396000CF93DF93EC01688179818A810E943522AF
:103970008C010E9494210E949620B801CE01DF9113
:10398000CF911F910F910C94A31ACF93DF93EC0169
:103990008B819C81892B29F08881998189238F3F94
:1039A00059F4DF91CF910895CE010E94AE1CCE0153
:1039B000DF91CF910C94E902CE010E941203811194
:1039C000F3CF0E947722882361F38A81882349F309
:1039D00082E0DF91CF910C94152390E080E00E946B
:1039E0001E1890E080E00E9434180E949E220E94DF
:1039F000AE220C94CA220E9467220C94ED1C0E94F5
:103A00008E220C94FB1CE92FE295EF70E250EE3011
:103A100070F4F0E0E955F24D0C94582C803F19F009
:103A200020F4883E20F481E00895843FE1F380E0B3
:103A30000895883EC0F3813FD1F7F5CF93FB8827E7
:103A400080F908950E942B220C94031DCF93DF93DD
:103A500000D000D00F92CDB7DEB70F900F900F902F
:103A60000F900F90DF91CF910895CF93DF9300D007
:103A700000D000D0CDB7DEB726960FB6F894DEBFE3
:103A80000FBECDBFDF91CF9108951F93CF93DF93EA
:103A9000C0916C0316E080916D038C1304C0DF911C
:103AA000CF911F910895D0E01C9FF0011D9FF00D54
:103AB0001124E259FC4F40815181628173818481DC
:103AC00095810E94351D2196C770E5CF40919E03D8
:103AD00050919F036091A0037091A1038091A20374
:103AE0009091A3030C94351D1F93CF93DF93809186
:103AF000A303807FA9F48091A003882389F080919B
:103B00006C03C0916D0360919E0370919F03A0911F
:103B1000A103B091A203D62FD72316E0C81304C087
:103B2000DF91CF911F91089590E0109711F0DF3F42
:103B300019F401968770F2CF189F9001199F300DEC
:103B40001124F901E259FC4F41814713F2CF408122
:103B50004613EFCF42814111ECCF438154814A1B80
:103B60005B0B483C510528F78091A3038F7080615F
:103B70008093A303F901ED58FC4F80818F70806121
:103B800080838EE993E00E94C51CDF91CF911F9145
:103B90000C94451DAF92BF92CF92DF92EF92FF92AD
:103BA0000F931F93CF93DF93CDB7DEB761970FB617
:103BB000F894DEBF0FBECDBF8C0185E0F801DE01B9
:103BC0001D9601900D928A95E1F7F801408151818F
:103BD000E2808EE9C82E83E0D82E6091A103709117
:103BE000A2036115710509F461C190919E032091B2
:103BF0009F03892F82238F3F09F458C1A380B4808B
:103C0000F090A003F501E61BF70BFF2009F4FCC0C0
:103C10008091A303382F307FE83CF10508F0B2C053
:103C2000311179C0FE2C251323C0941321C0E1105B
:103C30001FC08F7080618093A3030E94661DC60120
:103C40000E94C51C8091A303F80185838F2D619686
:103C50000FB6F894DEBF0FBECDBFDF91CF911F919D
:103C60000F91FF90EF90DF90CF90BF90AF900895AD
:103C7000AB2829F0842F85238F3F09F033C180E0E2
:103C8000F82FF170DF2E80FF3CC080916C032091F3
:103C90006D0336E0821315C04D875E878D859E8546
:103CA0000E942B22292F22952F702230F0F02430F1
:103CB00018F59F70F1F0F8019581907FD1F4D12C27
:103CC0001EC090E0389FF001399FF00D1124E25999
:103CD000FC4F6181651306C06081641303C062817B
:103CE0006E110FC001968770D5CF9F7011F0882399
:103CF00031F3805E883018F3C8010E94C51CFD2C8A
:103D0000A5CFEE2009F4A2CF8091A3038160809318
:103D1000A303F12C9BCF251306C0941304C0F80114
:103D2000EE2009F48DC04D875E878D859E850E94AB
:103D3000221D882319F1EE2009F18091A30380321E
:103D400070F020919E0330919F0338872F8319864E
:103D5000BB86AA868C87CE0107960E94C51C86E08A
:103D6000F801AEE9B3E001900D928A95E1F70E9467
:103D7000741D0E94661DFF24F39468CFC8010E9441
:103D8000C51CF9CF311113C07A2DB98AA88A6E2DBE
:103D900089890E94261D8EE993E00E94C51C86E059
:103DA000F60111928A95E9F70E94661DB2CF25139C
:103DB0000FC094130DC0E1100BC0F8018583C8013A
:103DC0000E94C51C86E0F60111928A95E9F73ECF64
:103DD0004D875E878D859E850E94221D882371F206
:103DE000EE2061F28091A303803208F4B8CF2091D5
:103DF0009E0330919F033A8329831B82BD82AC824C
:103E00008E83CE010196A9CFE83CF10508F041C0B0
:103E1000FE2CEE2009F4B2CF25132AC0941328C03B
:103E20008091A30380FD1BC0982F907FC1F0F80103
:103E30008583903F31F0982F907F905F8F70892B12
:103E40008583C8010E94C51C86E0F801AEE9B3E095
:103E500001900D928A95E1F70E94661DF7CE86E0EB
:103E6000F801AEE9B3E001900D928A95E1F7EECE4C
:103E70004D875E878D859E850E94221D81116FCFA3
:103E80008091A30381608093A303C8010E94C51C95
:103E9000DDCE7A2DB98AA88A6E2D89890E94261DC9
:103EA00086E0F60111928A95E9F7D6CFEE2009F463
:103EB00065CF4D875E878D859E850E94221DF82ED9
:103EC000882309F45BCF86E0F801AEE9B3E0019006
:103ED0000D928A95E1F78EE993E00E9498190E946D
:103EE000741DBACF81E08E25CBCE1F93CF93DF9385
:103EF000CDB7DEB72C970FB6F894DEBF0FBECDBF9F
:103F00004F83588769877A878B879C87CE0107966E
:103F10000E94CA1D882369F08A859B85892B39F008
:103F20004F815885842F85238F3F09F071C016E09B
:103F30005FC086E0FE013796DE01119601900D927A
:103F40008A95E1F78A859B85892B89F38F819885EE
:103F500089238F3F61F320916D0330E0C901019601
:103F60008770992740916C034817190671F40E94D5
:103F7000FF1C10926D0310926C0386E0EEE9F3E0F3
:103F8000DF011D928A95E9F7D2CF96E0929FD0018A
:103F9000939FB00D1124A259BC4FFE0131960190A0
:103FA0000D929A95E1F780936D030E94451DBFCF56
:103FB000819FC001112482599C4F0E94CA1D8823F1
:103FC000E9F0E0916C031E9FF0011124E259FC4FCF
:103FD0004081518162817381848195810E94351D68
:103FE00080916C0390E001968770992780936C0311
:103FF00080916C0390916D038913DACF2C960FB6E4
:10400000F894DEBF0FBECDBFDF91CF911F91089511
:1040100069857A858B859C850E94351D88CFEF92B6
:10402000FF920F931F93CF93DF938C01892B81F025
:10403000F12CEE24E394E8012196F8018491843771
:1040400070F4843008F05FC08130B1F08230A1F1AB
:10405000DF91CF911F910F91FF90EF9008958537D9
:1040600009F44CC008F43DC09CE7980F903780F7E6
:104070008F770E94271A49C00E5F1F4FFE0184915F
:1040800090E2980F983060F48770FE2D01C0FF0F0A
:104090008A95EAF78F2F0E94A1220E94CA2202C0AD
:1040A0000E949D198F2D815030F2EFE9FFE031978A
:1040B000F1F700C00000F7CF0E5F1F4FFE018491A3
:1040C00090E2980F983050F48770FE2D01C0FF0FDA
:1040D0008A95EAF78F2F0E94A722DFCF0E94271A26
:1040E000E1CF0E5F1F4FFE01C491C150D8F28FE99E
:1040F0009FE00197F1F700C00000F7CF0E5F1F4F60
:10410000FE01F490CFCF0E949D198E01CBCF089570
:104110000C9487200E9488206093E9037093EA033F
:104120008093EB039093EC030C94ED1C08950C9496
:104130008A200F931F930091E9031091EA032091C5
:10414000EB033091EC03602B712B822B932B1F918F
:104150000F910C948A200F931F930091E903109103
:10416000EA032091EB033091EC0360237123822357
:1041700093231F910F910C948A200F931F9300910A
:10418000E9031091EA032091EB033091EC036027DF
:104190007127822793271F910F910C948A200C94EA
:1041A00087200C94CF200E94D1206093E503709368
:1041B000E6038093E7039093E8030C94ED1C60E022
:1041C00070E0CB010C94D3200F931F9341E050E09B
:1041D00060E070E08A019B0104C0000F111F221FE4
:1041E000331F8A95D2F7C901B8011F910F910C9422
:1041F000D3200F931F9341E050E060E070E004C0D3
:10420000440F551F661F771F8A95D2F78091E503EB
:104210009091E603A091E703B091E8038A019B0126
:10422000082B192B2A2B3B2BC901B8011F910F9189
:104230000C94D3200F931F9341E050E060E070E0B6
:1042400004C0440F551F661F771F8A95D2F7CB0114
:10425000BA0160957095809590950091E503109155
:10426000E6032091E7033091E80360237123822362
:1042700093231F910F910C94D3200F931F9341E030
:1042800050E060E070E004C0440F551F661F771FC8
:104290008A95D2F78091E5039091E603A091E70318
:1042A000B091E8038A019B01082719272A273B2799
:1042B000C901B8011F910F910C94D3200F931F9344
:1042C0000091E5031091E6032091E7033091E803A4
:1042D000602B712B822B932B1F910F910C94D32069
:1042E0000F931F930091E5031091E6032091E703DC
:1042F0003091E80360237123822393231F910F9150
:104300000C94D3200F931F930091E5031091E603C3
:104310002091E7033091E8036027712782279327D4
:104320001F910F910C94D320089521E1929F800D4D
:104330001124982F977041E001C0440F9A95EAF735
:1043400086958695869595E0899FF0011124EC5518
:10435000FC4F90E080E070E05191DF0111979B01EC
:10436000082E02C0369527950A94E2F72170219510
:104370002527242325272C9301968530910561F765
:10438000089521E1929F800D1124982F97708695B2
:104390008695869525E0829FF0011124EC55FC4F0F
:1043A00050E040E080E0219130E0092E02C03695D7
:1043B00027950A94E2F721703327042E01C0220FBB
:1043C0000A94EAF7822B4F5F5F4F4530510559F74A
:1043D0000895BF92CF92DF92EF92FF920F931F93B7
:1043E000CF93DF938C01C090E503D090E603E0907B
:1043F000E703F090E8038091E9039091EA03A0912C
:10440000EB03B091EC03C82AD92AEA2AFB2ACFE1B0
:10441000D0E0BC2ED701C6010C2E04C0B695A795DE
:10442000979587950A94D2F780FD0EC0219788F75B
:10443000B12C8B2DDF91CF911F910F91FF90EF90B9
:10444000DF90CF90BF900895B8018C2F0E94830316
:10445000019761F3EECFCF93DF93EC010E94E92146
:10446000BE01DF91CF910C9483031F93CF93DF9311
:10447000EB0190916B03992331F0CB01DF91CF9148
:104480001F910C942B22882379F0CB010E94E92103
:10449000182F682FCE010E949521BE01812FDF9138
:1044A000CF911F910C948303CB010E94C121182F3F
:1044B000F4CF682F80917502909176020C94742449
:1044C000682F80917502909176020C947F248091E0
:1044D0007502909176020C948A248091ED03859563
:1044E0008595859508958091ED0387700895909145
:1044F000ED03977081E009F480E008958091110444
:10450000089590911104892B80931104089580954A
:10451000909111049823909311040895109211041E
:10452000089590911004892B80931004089580952C
:104530009091100498239093100408951092100401
:10454000089590910F04892B80930F04089580950E
:1045500090910F04982390930F04089510920F04E4
:1045600008958091EE03089508950C94B4229091DB
:10457000EE03981721F08093EE030C94B522089572
:104580008091EE03882329F01092EE0380E00C94D2
:10459000B5220895E0917502F091760280911104A0
:1045A0008083E0917502F0917602808190911004F1
:1045B000892B8083E0917502F09176028081909141
:1045C0000F04892B80839091EE03992381F0E09171
:1045D0007502F09176028081892B8083809175022B
:1045E000909176020E94E02381110E94C022809166
:1045F0007502909176020C94041808950C94FD2293
:1046000098E0899F90011124622B6093ED030E9432
:10461000F9208091ED038595859585950C94FE2272
:104620001092ED0380E00C94FE229091ED038095B2
:1046300089238093ED03282F277071F4282F082EEB
:10464000000C330B9217130639F0859585958595E7
:104650000E941A210C941023089580E008956FEFB2
:104660007FEF90E080E00C94312D90E080E00E949C
:10467000FD2C21E08B3E9E4F09F020E0822F089513
:1046800082E090E00C94F52C83E090E00C94F52C03
:10469000CF9384E090E00E94F52CC82F81E290E057
:1046A0000E94F52C982F8C2FCF910895CF93C92F6E
:1046B000682F84E090E00E94132D6C2F81E290E03F
:1046C000CF910C94132DAB01BC018FE090E00C94C2
:1046D000252DAB01BC0183E190E00C94252D60E019
:1046E00070E0CB010C94692360E070E0CB010E9484
:1046F00063230C946F236BEE7EEF90E080E00E94CA
:10470000312D60E082E090E00E94132D60E083E0B4
:1047100090E00E94132D1092E9031092EA03109288
:10472000EB031092EC0360E084E090E00E94132D14
:1047300060E081E290E00E94132D60E085E090E06F
:104740000E94132D60E086E090E00E94132D6FEF31
:1047500087E090E00E94132D40E050E0BA0188E02D
:1047600090E00E94252D60E08DE090E00E94132DE6
:1047700040E050E0BA0188E190E00E94252D60E021
:1047800087E190E00E94132D40E050E0BA018CE1F7
:1047900090E00E94252D60E080E290E00E94132DC1
:1047A00040E050E0BA0188E190E00E94252D0C9491
:1047B00074230C947B23682F8EE090E00C94132DCF
:1047C000FC01329680918102882321F08091A1051D
:1047D0009EE187FF96E080E0915008F408952191D2
:1047E0002223D1F38F5FF8CF662301F1209181025C
:1047F0002223F1F02091A10527FF1AC0462F4695EC
:10480000469546954E3190F4677021E030E002C045
:10481000220F331F6A95E2F7840F911DFC018281FC
:1048200090E02823392381E0232B69F480E0089568
:10483000FC01329608962191261721F0E817F90716
:10484000D1F7F4CF81E008959C01FC0132969FEFEF
:1048500080E04191461751F09F3F19F4411101C08A
:10486000982F8F5F8630A9F79F3F09F40895290F8D
:10487000311D97FD3A95F90162830895FC01329646
:1048800008962191261303C0DF0111971C92E817A7
:10489000F907B9F70895E62FE695E695E695EE3126
:1048A00068F4E80FF92FF11D677021E030E001C0D6
:1048B000220F6A95EAF78281822B82830895E62F80
:1048C000E695E695E695EE3170F4E80FF92FF11DC7
:1048D000677021E030E001C0220F6A95EAF7209569
:1048E000828128232283089520918102222329F0A6
:1048F0002091A10527FD0C944B240C942424209195
:104900008102222329F02091A10527FD0C945F2428
:104910000C943E24FC01329680918102882351F050
:104920008091A10587FF06C08EE1DF011D928A9567
:10493000E9F7089586E0F9CF08950C949C240E942D
:10494000FF1C0E94EB170E945B030C949D241F9296
:104950001FB61F9211248F939F93AF93BF938091A3
:104960001304811113C080919D0590919E05A09123
:104970009F05B091A0054196A11DB11D80939D0595
:1049800090939E05A0939F05B093A005BF91AF9112
:104990009F918F911F901FBE1F90189582E084BD3C
:1049A00093E095BD9AEF97BD80936E0008952FB761
:1049B000F89480919D0590919E05A0919F05B091DE
:1049C000A0052FBF08952FB7F89460919D057091B1
:1049D0009E0580919F059091A0052FBF08959C0191
:1049E0004FB7F89480919D0590919E05A0919F05E9
:1049F000B091A0054FBF821B930B0895CF92DF9219
:104A0000EF92FF922FB7F894C0909D05D0909E052D
:104A1000E0909F05F090A0052FBFA7019601261BEF
:104A2000370B480B590BCA01B901FF90EF90DF908B
:104A3000CF90089578941F921FB61F9211248F93E0
:104A40009F93AF93BF9380919D0590919E05A091F8
:104A50009F05B091A0050196A11DB11D80939D05F4
:104A600090939E05A0939F05B093A005BF91AF9131
:104A70009F918F911F901FBE1F90189581E080938A
:104A8000E00080E28093D8001092C9008FE19EE49C
:104A90000197F1F700C0000087E090EBDC01809304
:104AA000B0059093B105A093B205B093B30588E12A
:104AB0009CE00FB6F894A895809360000FBE909389
:104AC0006000FFCF90930F0380930E0308950C9422
:104AD0002F230E94D1058FE39CE90197F1F700C0D5
:104AE00000000E94D10580E00E946D0560FF04C0B7
:104AF0000E9467250C943E2508950E94352381115C
:104B000002C00E94D9230E944023809312040E9475
:104B100048239093A2058093A1050E944423682F07
:104B200070E090E080E00E9497206091E503709132
:104B3000E6038091E7039091E8030C94D1208091E3
:104B4000340408950895CF93DF9300D00F92CDB72A
:104B5000DEB79091A705943019F589837B836A832A
:104B600082E08093E9008FEF9091E800815095FDFD
:104B700006C095ED9A95F1F700008111F5CF80916F
:104B8000E80085FF0DC050E040E063E070E0CE013A
:104B900001960E9480278091E8008E778093E8003C
:104BA0000F900F900F90DF91CF910895BC0184E09A
:104BB0000C94A325BC0183E00C94A325CF93DF9331
:104BC000EC01809181028823B1F18091A10587FFDA
:104BD00032C060E282E08093E9008FEF9091E800BC
:104BE000815095FD06C095ED9A95F1F70000811171
:104BF000F5CF8091E80085FF1BC08091810270E0B5
:104C000050E040E0811104C050E040E068E070E016
:104C1000CE010E9480278091E8008E778093E80083
:104C200080E2FE01A4E1B4E001900D928A95E1F7E3
:104C3000DF91CF91089568E081E0CDCF8091A60506
:104C4000811109C00E9410290E946D298091E20003
:104C500084608093E20008951092A6050895089557
:104C600008950C949F2442E061EC81E00E948C281E
:104C700042E261EC82E00C948C288091A90583309B
:104C800009F45FC030F48130C1F1823009F49BC077
:104C900008958A3009F487C08B3009F46DC08930DB
:104CA00009F04EC08091A805813209F049C0809179
:104CB000AC059091AD05029708F042C08091E800E4
:104CC000877F8093E8008091E80082FF35C0909153
:104CD000F3008091F200029729F48091F1008B7F1C
:104CE000813021F48091F100809334048091E800B8
:104CF0008B778093E8000C94C0288091A805813AB6
:104D0000F9F48091E800877F8093E8008091AC05FA
:104D10009091AD05892B61F460E284E194E070E04C
:104D20000E94CF278091E8008B778093E800089558
:104D300060E090E080E0F3CF8091A7058111C3CFC0
:104D400008958091A805813AD9F78091AC0590919A
:104D5000AD05892BA9F78091E800877F8093E80053
:104D60008091E80080FFFCCF809181028093F10068
:104D70008091E8008E77BDCF8091A805813201F740
:104D80008091AC059091AD05892BD1F68091E8001A
:104D9000877F8093E8000E94C0288091AA058093B5
:104DA00081020C94FF1C8091A805813249F6809104
:104DB000E800877F8093E8000E94C0288091AB05BF
:104DC0008093350408958091A805813A09F0B8CF01
:104DD0008091E800877F8093E8008091E80080FF61
:104DE000FCCF80913504C2CF84B7877F84BF0FB6D4
:104DF000F894A8958091600088618093600010927B
:104E000060000FBE80E890E00FB6F89480936100D8
:104E1000909361000FBE0E946B180E9410290E949F
:104E20006D298091E20084608093E20078940E9472
:104E3000F62B0E947B1887E792E00E94E6170E94FB
:104E400083180E9479180E947A18F9CF0C942827A9
:104E5000292F33272330310519F168F4213031052A
:104E600009F444C02230310509F445C090E080E0E7
:104E700030E020E025C02132310549F122323105F0
:104E8000A9F780E490E022E434E061157105C1F0F7
:104E90008DE690E025ED33E06130710589F0E6CFD5
:104EA00099278130910581F0009729F00297F1F65A
:104EB000E4E4F3E002C0E4E8F3E0849190E09F01D1
:104EC000FA01318320830895E8E6F3E0F6CF89E024
:104ED00090E02AE933E06115710591F389E090E0F3
:104EE00023EB33E06130710559F3C0CF82E190E0EC
:104EF00023EC33E0E5CF8BE390E028E833E0E0CF2C
:104F0000AF92BF92CF92DF92FF920F931F93CF93F6
:104F1000DF936C01EB018A010E94DF28F82E8111DA
:104F200023C00115110539F0F80180819181C81B5A
:104F3000D90BC80ED91EB12CA12C2097A9F08091B5
:104F4000E80085FD22C08091E8008E778093E8001C
:104F500001151105A1F0F80180819181A80EB91EFB
:104F6000B182A08285E0F82E8F2DDF91CF911F9125
:104F70000F91FF90DF90CF90BF90AF9008950E9467
:104F8000DF288823D1F2F82EEFCFF60181916F014F
:104F90008093F1002197FFEFAF1ABF0ACECFFC013B
:104FA0008091AE059091AF0586179707A0F0611527
:104FB000710529F49091E8009E779093E80090E0C5
:104FC0006115710551F4911108C08091E80082FFCC
:104FD00034C080E00895BC01F2CF8091A7058823FA
:104FE000C1F18530C1F18091E80083FD30C080912E
:104FF000E80082FDEACF8091E80080FFE1CF809158
:10500000F3002091F200382F6115710519F0283056
:10501000310558F091E02830310509F090E02091F9
:10502000E8002E772093E800CBCF81918093F100A8
:10503000615071092F5F3F4FE7CF8091A70588230B
:1050400041F0853041F08091E80083FFBECF81E0E0
:10505000089582E0089583E00895FC018091AE05F3
:105060009091AF0586179707A0F06115710529F497
:105070008091E8008E778093E80090E061157105DB
:1050800051F4911108C08091E80082FF35C080E0A2
:105090000895BC01F2CF8091A7058823C9F185301E
:1050A000C9F18091E80083FD31C08091E80082FD64
:1050B000EACF8091E80080FFE1CF8091F30020915A
:1050C000F200382F6115710519F02830310558F0BC
:1050D00091E02830310509F090E08091E8008E776A
:1050E0008093E800CBCF84918093F100319661509A
:1050F00071092F5F3F4FE6CF8091A705882341F0CC
:10510000853041F08091E80083FFBDCF81E00895B4
:1051100082E0089583E00895982F973028F08F70EB
:105120008093E90081E008959093E900242F762F81
:1051300050E0981731F07091EC002091ED00509103
:10514000F00021FD02C09F5FE8CF3091EB003E7F71
:105150003093EB003091ED003D7F3093ED003091C6
:10516000EB0031603093EB007093EC002093ED0086
:105170005093F0002091EE0027FDE5CF80E00895E8
:105180008091A80587FF13C08091E80082FF06C0C8
:105190008091E8008B778093E80004C08091A70598
:1051A0008111F2CF08958091A7058823D9F38091CA
:1051B000E80080FFF8CF8091E8008E77ECCF209157
:1051C000E4003091E50095E6A9012091EC00822FE2
:1051D000817020FF06C08091E80080FF06C080E05B
:1051E00008952091E80022FD1AC08091A705882328
:1051F00089F0853089F08091EB0085FD0FC020910A
:10520000E4003091E50042175307F9F29150E1F6BE
:1052100084E0089582E0089583E0089581E0089590
:105220000E947E290E948629E0EEF0E08081816064
:105230008083E8EDF0E080818F77808319BCA7ED53
:10524000B0E08C918E7F8C9380818F7E80831092D2
:10525000A60508950F931F93CF93DF930E947E2995
:105260000E948629C8EDD0E088818F778883888165
:105270008068888388818F7D888319BC1092A705F8
:105280001092A3051092A5051092A40500EE10E05F
:10529000F80180818B7F808388818160888342E0F0
:1052A00060E080E00E948C28E1EEF0E080818E7F5B
:1052B0008083E2EEF0E0808181608083808188607D
:1052C0008083F80180818E7F8083888180618883DC
:1052D000DF91CF911F910F910895E8EDF0E080816B
:1052E0008F7E8083E7EDF0E080818160808384E0C1
:1052F00082BF81E08093A6050C942A29E8EDF0E0B6
:1053000080818E7F80831092E20008951092DA00EF
:105310001092E10008951F920F920FB60F92112480
:105320002F933F934F935F936F937F938F939F93AD
:10533000AF93BF93EF93FF938091E10082FF0BC087
:105340008091E20082FF07C08091E1008B7F809313
:10535000E1000E94F52B8091DA0080FF19C0809156
:10536000D80080FF15C08091DA008E7F8093DA002C
:105370008091D90080FF96C080E189BD82E189BD1E
:1053800009B400FEFDCF81E08093A7050E941E2690
:105390008091E10080FF19C08091E20080FF15C07C
:1053A0008091E2008E7F8093E2008091E200806134
:1053B0008093E2008091D80080628093D80019BC6D
:1053C00085E08093A7050E9430268091E10084FF4C
:1053D0002BC08091E20084FF27C080E189BD82E17B
:1053E00089BD89B5982F917080FFFBCF8091D8003F
:1053F0008F7D8093D8008091E1008F7E8093E100C3
:105400008091E2008F7E8093E2008091E2008160D3
:105410008093E2008091A305882309F449C084E0C9
:105420008093A7050E9431268091E10083FF29C067
:105430008091E20083FF25C08091E100877F809307
:10544000E10082E08093A7051092A3058091E1001E
:105450008E7F8093E1008091E2008E7F8093E20056
:105460008091E20080618093E20042E060E080E0B1
:105470000E948C288091F00088608093F0000E9448
:105480002F26FF91EF91BF91AF919F918F917F91C7
:105490006F915F914F913F912F910F900FBE0F90A1
:1054A0001F90189519BC1092A7050E942C2670CF4A
:1054B0008091E30087FD93E09093A705B3CF1F92FF
:1054C0000F920FB60F9211242F933F934F935F9338
:1054D0006F937F938F939F93AF93BF93CF93DF93FC
:1054E000EF93FF93D091E900DF708091EC00C82F1B
:1054F000C17080FDC0E81092E9008091F000877FC4
:105500008093F00078940E94A32A1092E900809181
:10551000F00088608093F000CD2BCF70C093E9003D
:10552000FF91EF91DF91CF91BF91AF919F918F91BB
:105530007F916F915F914F913F912F910F900FBE8F
:105540000F901F9018951F93CF93DF93CDB7DEB7C1
:10555000AA970FB6F894DEBF0FBECDBF88EA95E0DC
:105560002091F100FC012193CF01F5E0803B9F07E2
:10557000B9F70E943D268091E80083FF1EC180910B
:10558000A8059091A9059A3008F017C1E92FF0E01D
:10559000EB54F24D0C94582C803899F0823809F075
:1055A0000CC18091AC058F70873008F006C18093E4
:1055B000E9008091EB0085FB882780F91092E900D3
:1055C00006C08091A4059091A505911182609091EB
:1055D000E800977F9093E8008093F1001092F1002B
:1055E0008091E8008E77E5C0882309F4D3C082302B
:1055F00009F0E3C08091AA058111D6C08091AC0565
:105600008F702FEF280F263008F0D7C08093E90065
:105610002091EB0020FFC8C0933031F48091EB0063
:1056200080628093EB00C0C09091EB0090619093FA
:10563000EB0021E030E001C0220F8A95EAF72093C9
:10564000EA001092EA008091EB008860EACF8111B5
:10565000B4C01091AA051F778091E3008078812B58
:105660008093E3008091E800877F8093E8000E94A8
:10567000C0288091E80080FFFCCF8091E300806823
:105680008093E30082E0111183E08093A70595C029
:105690008058823008F091C08091AA059091AB05A6
:1056A0008C3D23E09207A1F583E08A838AE2898317
:1056B0004FB7F894DE01139620E03EE051E2E32F6D
:1056C000F0E050935700E49120FF03C0E295EF70A3
:1056D0003F5FEF708E2F90E0EA30C0F0C7968D9359
:1056E0009D932F5F243159F74FBF8091E800877F4A
:1056F0008093E8006AE270E0CE0101960E94CF2715
:105700008091E8008B778093E80057C0C096E7CF80
:105710006091AC057091AD05AE014F5F5F4F0E9487
:105720002627BC01892B09F448C09091E800977F97
:105730009093E80089819A810E942D28E1CF8038DA
:10574000E1F58091E800877F8093E8008091A305D0
:105750008093F10045CF811130C09091AA0592301D
:1057600060F58091E800877F8093E8009093A3051F
:105770000E94C0288091A305882311F084E005C011
:105780008091E30087FDFACF81E08093A7050E9416
:10579000332613C08091AA05813079F481E09330DB
:1057A00009F080E08093A5051092E9008091E8005F
:1057B000877F8093E8000E94C0288091E80083FFE3
:1057C0000AC08091E800877F8093E8008091EB0019
:1057D00080628093EB00AA960FB6F894DEBF0FBEEE
:1057E000CDBFDF91CF911F9108950895CF93809100
:1057F000A7058823A1F0C091E900CF709091EC003B
:10580000892F817090FD80E8C82B1092E90080916B
:10581000E80083FD0E94A32ACF70C093E900CF91D6
:105820000895AA1BBB1B51E107C0AA1FBB1FA617E7
:10583000B70710F0A61BB70B881F991F5A95A9F739
:1058400080959095BC01CD01089597FB072E16F425
:10585000009407D077FD09D00E94112C07FC05D0D9
:105860003EF4909581959F4F0895709561957F4F77
:105870000895052E97FB1EF400940E94502C57FDAE
:1058800007D00E945E2C07FC03D04EF40C94502CE1
:1058900050954095309521953F4F4F4F5F4F08955C
:1058A00090958095709561957F4F8F4F9F4F08958C
:1058B000EE0FFF1F0590F491E02D0994A1E21A2E3E
:1058C000AA1BBB1BFD010DC0AA1FBB1FEE1FFF1FA4
:1058D000A217B307E407F50720F0A21BB30BE40BF4
:1058E000F50B661F771F881F991F1A9469F760953B
:1058F0007095809590959B01AC01BD01CF010895F5
:105900008F929F92AF92BF92CF92DF92EF92FF92CF
:10591000CF93DF93EC01688179818A819B81611546
:1059200071058105910521F464E279ED8BE597E03D
:105930002DE133EF41E050E00E94392C49015A013A
:105940009B01AC01A7EAB1E40E94372D6B017C01F9
:10595000ACEEB4EFA50194010E94452DDC01CB0112
:105960008C0D9D1DAE1DBF1DB7FF03C00197A10982
:10597000B04888839983AA83BB839F77DF91CF91B7
:10598000FF90EF90DF90CF90BF90AF909F908F905F
:1059900008950E94802C089580E091E00E94802C60
:1059A0000895B0E0A0E08093000190930101A093DE
:1059B0000201B09303010895FB01DC0102C00190D4
:1059C0000D9241505040D8F70895DC01CB01FC0105
:1059D000F999FECF06C0F2BDE1BDF89A319600B448
:1059E0000D9241505040B8F70895F999FECF92BDFD
:1059F00081BDF89A992780B50895A8E1B0E042E00A
:105A000050E00C94E72CDC01A40FB51F415050402E
:105A100048F0CB01840F951F2E910E94142D415008
:105A20005040D0F70895262FF999FECF92BD81BD41
:105A3000F89A019700B4021639F01FBA20BD0FB6CC
:105A4000F894FA9AF99A0FBE08950396272F0E94A8
:105A5000142D0E94132D252F0E94142D242F0C94F9
:105A6000142D0196272F0E94142D0C94132D0E94A3
:105A70004A2DA59F900DB49F900DA49F800D911D60
:105A800011240895B7FF0C94372D0E94372D821BE7
:105A9000930B0895A29FB001B39FC001A39F700D07
:105AA000811D1124911DB29F700D811D1124911D26
:105AB0000895F894FFCFE812F11219131E1323135F
:105AC00028132D13321337133C13411346134B1372
:105AD000501355135A135F13641369136E13731322
