:100000000C9440020C9487020C9487020C94870293
:100010000C9487020C9487020C9487020C9487023C
:100020000C9487020C9487020C948A290C945E2A03
:100030000C94A6240C9487020C9487020C948702DB
:100040000C9487020C9487020C9487020C9487020C
:100050000C9487020C9419250C9487020C94870247
:100060000C9487020C9487020C9487020C948702EC
:100070000C9487020C9487020C9487020C948702DC
:100080000C9487020C9487020C9487020C948702CC
:100090000C9487020C9487020C9487020C948702BC
:1000A0000C9487020C9487020C94870229000000AC
:1000B0003A003B003C003D003E003F004000410054
:1000C0004200430044004500460047004800350018
:1000D0001E001F0020002100220023002400250014
:1000E000260027002D002E002A0049004A004B0060
:1000F0002B0014001A000800150017001C0018003F
:100100000C00120013002F00300028004C004D009E
:100110004E00390004001600070009000A000B0019
:100120000D000E000F00330034003200000000000C
:1001300000000000E10064001D001B000600190023
:10014000050011001000360037003800E5000000FF
:10015000000052000000E000E300E20000000000A8
:100160002C00000000000000E60001516500E400E2
:100170005000000051004F00005C00000100010031
:100180000100010001000100010001000100010067
:1001900001000100CE5CCF5CD05C010001000100D9
:1001A0000100010001000100010001000100010047
:1001B000010001000100C65CC85CCA5C01000100CE
:1001C0000100010001000100010001000100010027
:1001D0000100010001000100C75CC95CCB5C0100AB
:1001E0000100010001000100010001000100010007
:1001F00001000100010001000000000000000000FB
:100200000100010001000100010001000100145C77
:1002100001000100010001000100000000000100D8
:1002200000000100010001000000000001000000CA
:10023000000000000100010001000100C55C000099
:10024000C35CC45C00010101010101010101020262
:100250000202020202020203030303030303030474
:10026000040404040404050505050506060606063F
:10027000070707070708080808090909090A0A0AF9
:100280000B0B0B0C0C0C0D0D0D0E0E0E0F0F0F109B
:100290001011111112121313141415151616171725
:1002A000181819191A1A1B1B1C1D1D1E1E1F202091
:1002B000212222232424252626272829292A2B2CDB
:1002C0002D2D2E2F30313232333435363738393AFE
:1002D0003B3C3D3E3F404142434445464748494AF6
:1002E0004C4D4E4F50515354555658595A5B5D5EC4
:1002F0005F616264656668696B6C6D6F707273755F
:1003000077787A7B7D7E8082838587888A8C8E8FC2
:1003100091939596989A9C9EA0A2A3A5A7A9ABADF0
:10032000AFB1B3B5B7BABCBEC0C2C4C6C9CBCDCFDE
:10033000D1D4D6D8DBDDDFE2E4E7E9EBEEF0F3F58C
:10034000F8FAFDFF2003430055003800300020007C
:10035000760032002000490053004F002000520078
:100360004700420000001A03430061007000730060
:1003700055006E006C006F0063006B006500640048
:1003800000000403090409023B00020100A0FA096D
:1003900004000001030101000921110100012240B4
:1003A000000705810308000A090401000103000099
:1003B00000092111010001226D00070582032000C0
:1003C0000A120110010000000855438300010001DA
:1003D00002000105010980A101850319012AB70066
:1003E000150126B700950175108100C0050C0901A3
:1003F000A101850419012AA002150126A002950178
:1004000075108100C005010906A1018505050719C0
:10041000E029E715002501950875018102050719F6
:100420000029EF1500250195F075018102050819D5
:10043000012905950575019102950175039101C08A
:1004400005010906A101050719E029E715002501A5
:10045000950875018102950175088101050719004C
:1004600029FF150026FF009506750881000508196B
:10047000012905950575019102950175039101C04A
:1004800011241FBECFEFDAE0DEBFCDBF04B603FEFE
:1004900027C08091B7059091B805A091B905B0919A
:1004A000BA058730904BA740B04BD1F41092B705F6
:1004B0001092B8051092B9051092BA0514BE84B70F
:1004C000877F84BF0FB6F894A895809160008861FB
:1004D00080936000109260000FBEE0E0F8E30995A1
:1004E00013E0A0E0B1E0ECE7FBE502C005900D925F
:1004F000A231B107D9F725E0A2E1B3E001C01D9216
:10050000A73BB207E1F70E94F3260C94582D0C94F8
:1005100000006E9A0C9468050E94F61781FF07C0D0
:100520002FEF4FEF6FEF8EE390E00E94F20A0E94F0
:10053000F61782FF07C02FEF4FEF6FEF8EE090E0CE
:100540000C94F20A089581E0089581E008950C94D6
:10055000A50208950C94A9021F93CF93DF9300D0B6
:1005600000D00F92CDB7DEB749835A836B833091A9
:100570006F0389819A8131111DC06623B9F022234E
:10058000A9F00E94E821182F682F89819A810E9482
:10059000942169817A81812F0F900F900F900F9095
:1005A0000F90DF91CF911F910C9466030E94C021A0
:1005B000182FEFCF0E94E82169817A81EDCFFC01ED
:1005C000262F408151816281738184810C94AC0219
:1005D000CF93DF93EC0160E00E94DF02BE01DF9168
:1005E000CF910C94AA020E9468250E9434238111A5
:1005F00002C00E94D8230E94F6130C9489020C9426
:100600006A0508950E94FE1C0E9401032FEF84E3F7
:100610009CE0215080409040E1F700C000000C9425
:100620003D250F931F93CF93DF93EC0161E00E9470
:10063000DF028C01BE010E94A702882359F1BE018E
:10064000C8010E944616882329F1BE01C8010E94F4
:1006500098168823F9F0BE01C8010E94BB178823B1
:10066000C9F0BE01C8010E945015882399F08A8103
:10067000882339F001158CE5180751F00F3D1C4512
:1006800079F0CE01DF91CF911F910F910C94A302CD
:100690000E94020380E0DF91CF911F910F91089596
:1006A0000E94D823F7CF08950C94530381E0089556
:1006B0000C945603CF93C82F0E9454038C2FCF91D4
:1006C0000C94580390E080E008950895972F70E00F
:1006D00021E1929F600D711D1124FB0196E6899F17
:1006E000E00DF11D1124EE0FFF1FE455FF4F859122
:1006F00094910895FC01EE0FFF1FEC5BFD4F859177
:1007000094910895CF93DF930E9466030E948E0414
:10071000EC01811520E5920708F041C0811530E415
:10072000930708F0B4C0803E910518F5803C910510
:1007300008F09DC0883A910570F4853A910508F05B
:100740008EC081309105F9F00097E9F00497D8F454
:10075000D0E0C0E018C08F3B9105D0F7C85AD0E078
:10076000CC0FDD1FC857DD4F0990D881C02DD46450
:100770000AC08115904258F4C11581E0D80718F4D9
:10078000C83ED10528F7CE01DF91CF910895C1155C
:1007900090E3D90708F071C0CE019F706AC081153F
:1007A00025E5920758F5811534E5930708F09EC0BA
:1007B000811542E5940750F4C11581E5D80708F486
:1007C00069C0DC2FCC27C16FD06ADDCF982F9695FA
:1007D00096959E0123703327C115D34508F077C045
:1007E000C1E0D0E002C0CC0FDD1F2A95E2F720E285
:1007F000929FC0011124C82BD92B67C0C11589E570
:10080000D807A8F4C11598E5D90708F074C0C11538
:1008100026E5D20708F09CCF8C2F0E942505C82F13
:10082000D0E0DC2FCC27CC27DF71D062ACCFC11554
:100830003AE5D30708F464C0CE0190568115904282
:1008400008F086CF8D2F8F710E94250590E0982F9C
:10085000882788279F719C012C2BE901E6CFC55A78
:10086000D0E0CA54DD4FC881D0E0D0648CCF805C2A
:1008700091090E947A03EC0186CFCE019927D3FF1C
:1008800003C0EC01D86C7FCFEC01D06C7CCFDF7063
:10089000D06A79CFCE01E4E096958795EA95E1F7A5
:1008A00083702C2F26952695237090E2299F900126
:1008B0001124382B8C2F8370C1E0D0E002C0CC0F04
:1008C000DD1F8A95E2F7C22BD32BDC685CCFC1E039
:1008D000D0E002C0CC0FDD1F2A95E2F730E2939FF3
:1008E000C0011124C82BD92BDA684DCFD82FCC27C3
:1008F000C46FD06A48CFDC2FCC27C06FD06A43CFFB
:100900008C2F8F700E94250534E0D695C7953A95B7
:10091000E1F7CF709C2FEC01D06935CF823891057B
:10092000B1F1B0F48133910509F475C048F489320E
:10093000910509F469C08A32910509F473C00895DC
:100940008533910509F459C08933910501F1089562
:10095000833E9105A9F138F4803E9105F9F0823E7D
:10096000910549F10895863E9105A9F1873E9105CB
:10097000C9F1843E910519F52091A90521FF1FC0F9
:100980008091A80584FD14C087EE90E00895209121
:10099000A8052370A1F080EE90E008952091A805AD
:1009A00020FD47C03091A90530FF09C024FF44C095
:1009B00090E080E004C02091A80522FDF7CF0895C3
:1009C0002091A80522FD3BC03091A90530FDE3CF61
:1009D00024FFF5CFEDCF2091A80523FFF0CF24FD14
:1009E000E7CFD2CF2091A80523FD2CC03091A905D7
:1009F00031FFEECF84EE90E008952091A80525FF09
:100A0000DECF89E290E008952091A80525FFD7CF99
:100A100085E390E008952091A80526FFD0CF8AE2D3
:100A200090E008952091A80526FFC9CF81E390E0CA
:100A3000089589E390E0089583EE90E0089582EEB2
:100A400090E0089586EE90E008959091A80592FFB9
:100A500006C0282F28712830F9F4877F846093FF1F
:100A600006C0282F28712831F1F4877E84612091F7
:100A7000A90520FF06C0382F38713830D9F4877F98
:100A8000816021FF06C0282F28712831D1F4877E8C
:100A9000816194FD877E0895282F24712430F9F612
:100AA0008B7F8860DCCF282F2471243101F78B7E67
:100AB0008861DDCF382F3171313019F78E7F886032
:100AC000E0CF282F2171213121F78E7E8861E1CF7F
:100AD000089508950C94690594E0899FF00111240C
:100AE000EE5AFB4F60817181828193810895089550
:100AF00080EA8A95F1F7089500C008950C9478056E
:100B0000F894E82FE295EF70F0E031A1282F2F70D4
:100B100081E090E001C0880F2A95EAF7982F909520
:100B2000932391A392A1892B82A3789408950F9384
:100B30001F93CF93DF9383E90E94800582E90E948F
:100B4000800587E30E94800581EF0E94800587E68B
:100B50000E94800585E90E948005C9EBD2E00AEC7D
:100B600012E089910E9480050C171D07D1F7EAE376
:100B7000F4E0A2E5B4E011921192119211921D924B
:100B80001D921D921D9284E0E235F807A1F786E0E0
:100B90000E947306DF91CF911F910F910C94F30285
:100BA0004F925F926F927F928F929F92AF92BF927D
:100BB000CF92DF92EF92FF920F931F93CF93DF9329
:100BC0003AECA32E32E0B32E0AE314E0D0E0C0E00A
:100BD00088248394912CF50181915F01F894E82F8A
:100BE000E295EF70F0E021A18F70240102C0440C67
:100BF000551C8A95E2F7C201922F982B91A392A1DE
:100C00008095892382A378940E947C05A9EBB2E0A9
:100C100090E080E0C12CD12C76014D91E42FE2953B
:100C2000EF70F0E020A130E04F7002C035952795BD
:100C30004A95E2F720FD51C0412C512C32014394DA
:100C4000082E04C0440C551C661C771C0A94D2F76D
:100C5000B301A201C42AD52AE62AF72A01968131D6
:100C60009105D9F6F501319780810E948005D53034
:100C700011F00E947E05F80180819181A281B381EB
:100C8000C816D906EA06FB0661F1C082D182E2826B
:100C9000F38281E0C82BDF5F0C5F1F4FD63009F075
:100CA0009ACF2C2F46E062E574E08AE394E00E943C
:100CB00074060E94FF028C2FDF91CF911F910F913C
:100CC000FF90EF90DF90CF90BF90AF909F908F906C
:100CD0007F906F905F904F90089540E050E0BA0190
:100CE000B9CF80E0D7CF0895FF920F931F93CF9392
:100CF000DF93F82ED92F8B01C42F222349F081E0F6
:100D0000809316030E94D6249093150380931403B6
:100D100080911603882399F0809114039091150314
:100D20000E94EE24069758F0EF2DFD2FD80190E099
:100D300080E0D0E08C179D0744F010921603DF91FD
:100D4000CF911F910F91FF900895019111912191E1
:100D500031910D931D932D933D930196EBCFEF921F
:100D6000FF920F931F93CF93DF93EB01E82FD111E5
:100D700010C0442321F0F0E0EC5BFD4FE4916E2FB6
:100D80007E2F8E2FDF91CF911F910F91FF90EF90CB
:100D900008950D2F10E0282F30E0442329F02C5B1C
:100DA0003D4FF901249130E0F6E0CF9FC0011124BE
:100DB000EFEFF0E0BF010E94102CAB018C2F90E010
:100DC000880F991FA5E5A49FB001A59F700D112460
:100DD000861B970B982F990F980FBF01601B710B03
:100DE000629FD001639FB00D729FB00D11248B2FB5
:100DF0009D9FB0011124672F7727EF01C61BD70BEA
:100E0000BE01629FE001639FD00D729FD00D11243F
:100E10007F01E91AF108E09EB001E19E700DF09E9D
:100E2000700D1124672F7727E61BF70BE29F8001D7
:100E3000E39F100DF29F100D1124E12F722F42300D
:100E4000510599F048F44115510569F041305105BB
:100E500081F0EB2F8D2F07C04430510569F080F0F1
:100E600046305105B1F76E2F8DCFE22F7B2F812FAA
:100E7000FACFE22F7D2FF7CFEB2F822F712FF3CFF9
:100E80007B2F822FED2FEFCF41E00C94AF0630E0A7
:100E900020E0869F212D969F200D311D1124C90130
:100EA0000895AC018230910508F408959FEF413E0A
:100EB0008EE1580740F49A0195E0369527959A956A
:100EC000E1F798E0920F61E0E62FE90FFF27FF1F9F
:100ED0009F0135952795822F229FF001239FF00DCA
:100EE000F00D11244E175F0738F49FEF920F9617FD
:100EF00058F78FEF860F08952F3FE9F361E0620FF7
:100F0000F6CFE82F86FDE0952E2F2F7086FD2F5F00
:100F1000E695E695E695E670F0E0E053FD4F9181A9
:100F2000929F902D212D112492959F702295207FC4
:100F3000922B2081920F87FD919580E8890F08956B
:100F4000E42FF0E0EE0FFF1FE659FE4F408134EE34
:100F5000439F412D1124E72FF0E050E0445E5F4FA6
:100F6000DA01A21BB1099D01B7FF03C0319521959C
:100F7000310993E0220F331F9A95E1F7AF01421B2D
:100F8000530B9A0157FD20E0279F212D1124722F2A
:100F90000895E42FF0E0EE0FFF1FE659FE4F408169
:100FA00034EE439F412D1124E82FF0E050E0445EE1
:100FB0005F4FDA01A21BB1099D01B7FF03C0319554
:100FC0002195310993E0220F331F9A95E1F7AF0184
:100FD000421B530B9A0157FD20E0582F259F212DCE
:100FE0001124822F0895622F0895E42FF0E0EE0F70
:100FF000FF1FE659FE4F6081621B0895E42FF0E069
:10100000EE0FFF1FE559FE4F6081621B0895322FDE
:1010100050E0FA01EE0FFF1FE559FE4F908190520C
:1010200097FD9195440F551FFA01E659FE4F208117
:10103000231B330B290F311D97FD3A95620F08953D
:10104000EF920F93972F23E0029FB0011124759523
:1010500067956E0D792F0F91EF9008950F93CF93B1
:10106000DF93D72FC82F47FD419588E390E0841B7D
:10107000910947FD9395889FB001899F700D700D70
:101080001124229FC001239F900D900D1124860FE3
:10109000971F0E945107982F990F890F682F600F93
:1010A0007D2F8C2FDF91CF910F9108950F931F9378
:1010B000522F10E0F801EE0FFF1FE559FE4FA081FF
:1010C000A052BB0B9D015203F001539FF00D112460
:1010D000000F111FD801A659BE4F0C910057110BDC
:1010E00040039001419F300D11242E0F3F1F37FF09
:1010F00002C021583F4F220F232F221F330B620FB4
:101100001F910F9108950F931F93522F10E0F80134
:10111000EE0FFF1FE559FE4FA081A052BB0B9D01B2
:101120005203F001539FF00D1124000F111FD8013D
:10113000A659BE4F0C910057110B40039001419FDF
:10114000300D11242E0F3F1F37FF02C0215C3F4F8F
:1011500096E0359527959A95E1F7620F1F910F91CB
:1011600008950F931F9310E0F801EE0FFF1FE6594B
:10117000FE4F9081905797FD9195000F111FF80138
:10118000E559FE4F00810052110B2003F001219F11
:10119000F00D112408E310E0091B110997FD1395C8
:1011A00040039001419F300D1124E20FF31F9F0176
:1011B000220F331F2E0F3F1F37FF02C021583F4F12
:1011C000220F232F221F330B620F1F910F910895BF
:1011D0000F931F93CF93DF938B01D82FC42F822FB0
:1011E0000E948107EC2FF0E0EE0FFF1FE659FE4F43
:1011F00090819058890F87FD8195880F682F2CE08A
:10120000629F612D1124600F712F8D2FDF91CF917F
:101210001F910F910895E42FF0E0EE0FFF1FE659A4
:10122000FE4F9081921B97FD9195292F38E1239FC6
:10123000212D1124620F08954095282F429F412DA2
:101240001124842F089522E8241B08F420E0620F63
:101250000895EF92FF920F93970195E0099F200D5B
:10126000311D11242F3F310519F010F02FEF30E020
:101270002095382F320F08F43FEF832F0F91FF9006
:10128000EF900895EF92FF920F931F930E0D1F2D75
:10129000111DF90137FF03C0F195E195F10924E033
:1012A000EE0FFF1F2A95E1F7EF3FF10519F014F05B
:1012B000EFEFF0E09A0157FF03C031952195310916
:1012C00094E0220F331F9A95E1F72E173F070CF495
:1012D000F901E00FF11FEF3FF10519F010F0EFEF0A
:1012E000F0E0E095282F3E2F230F08F42FEF822FF8
:1012F0001F910F91FF90EF900895EF92FF920F933F
:10130000972F093438F4B701601B71096F3F7105DD
:1013100019F010F06FEF70E0485F5F4F41315105F9
:1013200040F0A901485F5F4F4131510510F06FEF68
:1013300070E06095482F460F08F44FEF842F37FF79
:1013400002C02D5F3F4F35952795359527956091C4
:101350006B04620F792F0F91FF90EF900895EF9239
:10136000FF920F939701201B31092F3F310519F090
:1013700010F02FEF30E0322F3095482F430F08F454
:101380004FEF842F620F0F91FF90EF900895EF922F
:10139000FF920F939701201B31092F3F310519F060
:1013A00010F02FEF30E02095382F320F08F43FEF88
:1013B000832F0F91FF90EF900895FC019B01009700
:1013C00029F480E077FF2BC080E80895AC0197FFF7
:1013D00004C044275527481B590BB901640F751FDA
:1013E00037FD10C0241B350BC901A5E0880F991FDC
:1013F000AA95E1F70E94242C80E2861BF7FF0FC01C
:1014000081950895CB0165E0880F991F6A95E1F7F2
:10141000BA01621B730B0E94242C80E6EECF089564
:101420000F931F93CF93DF93D62F172FC82FC90188
:10143000272F201B022FBA010E94DD09982F990F38
:10144000990F782F791B700F719F712D11246D2FBB
:101450008C2FDF91CF911F910F9108950F931F93C0
:10146000CF93DF93D62FC72F182FC901212F201B11
:10147000022FBA010E94DD09982F990F990F891B3D
:10148000800F282F219F212D1124822F6D2F7C2F3B
:10149000DF91CF911F910F910895EF920F931F93BA
:1014A000CF93DF93D62F172FC82FC9010E19070F1F
:1014B000BA010E94DD09702F781B719F712D1124D4
:1014C0006D2F8C2FDF91CF911F910F91EF90089589
:1014D000EF920F931F93CF93DF93D62FC72F182F21
:1014E000C9010E19010FBA010E94DD09081B202F46
:1014F000219F212D1124822F6D2F7C2FDF91CF91E1
:101500001F910F91EF9008950F93CF93DF93D72FF3
:10151000C82FC901BA010E94DD09682F600F7D2F15
:101520008C2FDF91CF910F910895EF920F93CF936E
:10153000DF93D72FC82FC9010E19BA010E94DD0908
:10154000602F681B7D2F8C2FDF91CF910F91EF9033
:1015500008950C94440745E050E06CE170E08AE6A1
:1015600094E00C94E42C45E050E06CE170E08AE6F5
:1015700094E00C94022DEAE6F4E085E38083809108
:10158000850290918602A091870281839283A38332
:101590008FE784830C94B30A80E008950F931F9320
:1015A000CF93DF93C82FD62F8A010E94CC0A91E1F6
:1015B000C99FB00111246C5F7E4F6D0F711DFB013F
:1015C00090819F3F29F0F801E80FF11D90838F5F14
:1015D000DF91CF911F910F910895E091DE02F0917C
:1015E000DF020994E091DA02F091DB0209945F9244
:1015F0006F927F928F929F92AF92BF92CF92DF9223
:10160000EF92FF920F931F93CF93DF935C014B01F7
:10161000FC01C08182E1C89FC02D112412E11C0F82
:10162000F12E193510F038E5F32E60916E046695B1
:1016300080916F04909170040E944707582ED0E06B
:10164000CF15A0F081E0183508F080E0DF91CF9150
:101650001F910F91FF90EF90DF90CF90BF90AF90D0
:101660009F908F907F906F905F900895FE01E65E4F
:10167000FD4F8081F50191818923C9F1CE01880F49
:10168000991F8C5F9E4FFC01EA59FF4F2081422F2A
:101690004057550B6A0189599F4FFC018081282FC3
:1016A0002052330B3901449F9001459F300D300D7E
:1016B0001124669CC001679C900D900D1124820F2F
:1016C000931F0E945107082F60916B0470916C0466
:1016D00080916D04E52C9301A601F40109950E9407
:1016E000A90A462F282F672FCE010E94F20A2196C1
:1016F000A7CF6DE47AE00C94F70A68E67AE00C94E0
:10170000F70A60E278E00C94F70A65E97AE00C9455
:10171000F70AAF92BF92CF92DF92EF92FF920F93B0
:101720001F93CF93DF936C017B01FC01C08182E1A9
:10173000C89FC02D112412E11C0FB12E193510F0D5
:1017400038E5B32E60916E04669580916F04909198
:1017500070040E944707A82ED0E0CB1578F081E0F6
:10176000183508F080E0DF91CF911F910F91FF9025
:10177000EF90DF90CF90BF90AF900895FE01E65EAE
:10178000FD4F8081F6019181892311F1CE01880FEF
:10179000991F8C5F9E4FFC01E959FF4F2081205219
:1017A000330B8A599F4FFC0140814057550B609184
:1017B0006B0470916C0480916D040A2DF7010995FA
:1017C0000E94A90A462F282F672FCE010E94F20AF5
:1017D0002196C3CF60E17AE00C94890B6EE27AE047
:1017E0000C94890B6EE278E00C94890B64E87AE043
:1017F0000C94890BBF92CF92DF92EF92FF920F93DE
:101800001F93CF93DF936C017B01FC01C08182E1C8
:10181000C89FC02D112412E11C0F012F193508F0AB
:1018200008E560916E046695669580916F049091CD
:1018300070040E944707B82ED0E0C01770F081E016
:10184000183508F080E0DF91CF911F910F91FF9044
:10185000EF90DF90CF90BF900895FE01E65EFD4FC0
:101860008081F6019181892391F060916B047091E0
:101870006C0480916D042B2D4C2FF70109950E946B
:10188000A90A462F282F672FCE010E94F20A21961F
:10189000D4CF60EA77E00C94FA0B69EC77E00C9413
:1018A000FA0B63EF77E00C94FA0B65EF77E00C949A
:1018B000FA0B6EEF77E00C94FA0B67E078E00C948B
:1018C000FA0B68EE78E00C94FA0B6BE079E00C947C
:1018D000FA0B7F928F929F92AF92BF92CF92DF923C
:1018E000EF92FF920F931F93CF93DF935C016B01F5
:1018F000FC01C08182E1C89FC02D112412E11C0FA0
:10190000912E193510F038E5932E60916E0466958E
:10191000669580916F04909170040E944707F82E9D
:1019200080E48F0D0E94810790E8892E880E8F2D0C
:101930000E94810720E8722E780ED0E0C91590F041
:1019400081E0183508F080E0DF91CF911F910F9171
:10195000FF90EF90DF90CF90BF90AF909F908F90CF
:101960007F900895FE01E65EFD4F8081F501918133
:101970008923A1F060916B0470916C0480916D04D7
:10198000EF2C0C2F272D482DF60109950E94A90A4E
:10199000462F282F672FCE010E94F20A2196CECF24
:1019A00066E578E00C94690C63E878E00C94690CC7
:1019B00061EB78E00C94690CAF92BF92CF92DF920A
:1019C000EF92FF920F931F93CF93DF937C016B01F4
:1019D000FC01C08182E1C89FC02D112422E1B22EFA
:1019E000BC0EAB2CF8E5FB1510F498E5A92E209160
:1019F0006E0430E050E040E06FEF7FEF80E090E079
:101A00000E94382C8901D0E02C2FCA1580F081E08B
:101A1000F7E5FB1508F480E0DF91CF911F910F915E
:101A2000FF90EF90DF90CF90BF90AF900895FE01B0
:101A3000E65EFD4F8081F70191818923F1F04091AD
:101A400073044150042E000C550B47FF18C0C80109
:101A500060916E040E944707AC0160916B04709125
:101A60006C0480916D04F60109950E94A90A462F25
:101A7000282F672FCE010E94F20A2196C5CFFA01C6
:101A8000ED58FB4F818982130AC0FA01EE0FFF1F48
:101A9000ED58FB4F818D928D80179107C8F2415010
:101AA0005109D3CF6CE179E00C94DC0C63E279E06E
:101AB0000C94DC0C2F923F924F925F926F927F9228
:101AC0008F929F92AF92BF92CF92DF92EF92FF924E
:101AD0000F931F93CF93DF93CDB7DEB72B970FB63E
:101AE000F894DEBF0FBECDBF8C832B015F834E8386
:101AF000FB01F08182E1F89F802D112489838E5EA5
:101B00008A838B83893510F028E52B833091730409
:101B10003D839981892F90E09B878A87880F991F41
:101B2000FC01E659FE4F6F01FC818F2F90E09C0174
:101B30002F5F3F4F39872887EB81FA85FE17F0F03A
:101B400081E02A81283508F080E02B960FB6F894C2
:101B5000DEBF0FBECDBFDF91CF911F910F91FF90E0
:101B6000EF90DF90CF90BF90AF909F908F907F903D
:101B70006F905F904F903F902F900895EA85FB857E
:101B8000E65EFD4F8081F2019181892301F1209071
:101B90006B0430906C04288539852D583B4F3901F2
:101BA0003C81398310E029813D812317C8F02091C1
:101BB0006D04129F112D1124B101812F0E94A90AD9
:101BC000462F282F672F8A859B850E94F20A8A85D7
:101BD0009B8501969B878A8792E0C90ED11CACCF6A
:101BE000F30181913F01F601A080A81ABB08818012
:101BF000F3018781881A9908AA9C9001AB9C300D4B
:101C0000300D1124889CC001899C900D900D1124E9
:101C1000820F931F0E945107082FF301EE0FFF1F41
:101C2000E357F44060916E04858996890E944707C6
:101C30007C019401A501B101812FEE81FF810995FD
:101C40001B01F981FF5FF983182FADCF2091730439
:101C500031E0231B08F420E049E259E0BC01822F67
:101C60000C945A0D49E259E0BC0180E00C945A0DE5
:101C70002091730431E0231B08F420E042E459E092
:101C8000BC01822F0C945A0D42E459E0BC0180E063
:101C90000C945A0D2091730431E0231B08F420E0CA
:101CA0004DE759E0BC01822F0C945A0D4DE759E0E5
:101CB000BC0180E00C945A0D2091730431E0231B89
:101CC00008F420E04FEA59E0BC01822F0C945A0D31
:101CD0004FEA59E0BC0180E00C945A0D2091730446
:101CE00031E0231B08F420E047EC59E0BC01822FCF
:101CF0000C945A0D47EC59E0BC0180E00C945A0D4D
:101D0000BF92CF92DF92EF92FF920F931F93CF93E8
:101D1000DF937C01FC01C08182E1C89FC02D1124AA
:101D200012E11C0F012F193508F008E560916B04D2
:101D300070916C0480916D040E94A90AD62EC72E62
:101D4000B82ED0E0C01770F081E0183508F080E0C0
:101D5000DF91CF911F910F91FF90EF90DF90CF9087
:101D6000BF900895FE01E65EFD4F8081F7019181ED
:101D7000892331F02B2D4D2D6C2DCE010E94F20ABE
:101D80002196E0CF8F929F92AF92BF92CF92DF9237
:101D9000EF92FF920F931F93CF93DF937C01FC018F
:101DA000C08182E1C89FC02D112412E11C0F012FB8
:101DB000193508F008E5C0906C04D0906D04D091FE
:101DC0006B046D2F7C2D8D2D0E94A90AB62EA72E97
:101DD000982E60916E046D0F7C2D8D2D0E94A90AA6
:101DE000D62EC72E882ED0E0C01788F081E0183597
:101DF00008F080E0DF91CF911F910F91FF90EF905D
:101E0000DF90CF90BF90AF909F908F900895FE018C
:101E1000E65EFD4F9081F7018181892359F0282DDD
:101E20004D2D6C2D90FD03C0292D4B2D6A2DCE011B
:101E30000E94F20A2196D8CFBF92CF92DF92EF9202
:101E4000FF920F931F93CF93DF937C01FC01C0811E
:101E500082E1C89FC02D112412E11C0FD12E19352B
:101E600010F098E5D92EC0906C04B0906D042091CC
:101E70006E0400E4029F012D1124D0E0CD1570F016
:101E800081E0183508F080E0DF91CF911F910F912C
:101E9000FF90EF90DF90CF90BF900895FE01E65E37
:101EA000FD4F8081F70191818923B9F0FE01EE0F8A
:101EB000FF1FE559FE4F808182958F7060916B0402
:101EC000809F600D11247C2D8B2D0E94A90A462F26
:101ED000282F672FCE010E94F20A2196CFCFBF9202
:101EE000CF92DF92EF92FF920F931F93CF93DF93E6
:101EF0008C01FC01C08182E1C89FC02D112452E1F8
:101F0000F52EFC0EDF2CF8E5FF1510F448E5D42E75
:101F1000C0906C04B0906D0420916E0430E4E32E08
:101F20003E2D329F312D1124E32ED0E0CD1578F0D7
:101F300081E037E53F1508F480E0DF91CF911F91F4
:101F40000F91FF90EF90DF90CF90BF900895FE012A
:101F5000E65EFD4F8081F80191818923D9F0FE0171
:101F6000EE0FFF1FE659FE4F6081E69EB00111247F
:101F700095E0759567959A95E1F780916B04680FE8
:101F80007C2D8B2D0E94A90A462F282F672FCE016A
:101F90000E94F20A2196CACFBF92CF92DF92EF92AF
:101FA000FF920F931F93CF93DF938C01FC01C081AD
:101FB00082E1C89FC02D112492E1F92EFC0EEF2C76
:101FC000F8E5FF1510F488E5E82ED0906B04D09169
:101FD0006C04C0906D0460916E046695669566957C
:101FE00080916F04909170040E9447070E948107BE
:101FF000805887FD8195880F282F3C2D239F212D08
:102000001124822F6D2D7D2F0E94A90AD62EC72E56
:10201000B82ED0E0CE1578F081E027E52F1508F432
:1020200080E0DF91CF911F910F91FF90EF90DF90B3
:10203000CF90BF900895FE01E65EFD4F8081F801CC
:102040009181892331F02B2D4D2D6C2DCE010E94D5
:10205000F20A2196DFCFDF92EF92FF920F931F9348
:10206000CF93DF938C01FC01E65EFD4F80816823F6
:1020700081F1D0906C04D0916D04C0916B04EC2E72
:10208000F12C0E94CB2C282FC7018C549F4F68E65F
:1020900071E00E94242C8E199F0997FD0396959557
:1020A00087959595879523706C2F289F600D112437
:1020B0007D2D8D2F0E94A90A462F282F672FC8013A
:1020C000DF91CF911F910F91FF90EF90DF900C94D3
:1020D000F20ADF91CF911F910F91FF90EF90DF9067
:1020E0000895DF92EF92FF920F931F93CF93DF93A8
:1020F0008C01FC01C281C11125C060916E0420E1F8
:10210000620F08F46FEF80916F04909170040E9449
:1021100047076AE070E00E94102C892B51F40E945E
:10212000CB2C68E570E00E94242CF80161810E94AC
:102130002B108C2FDF91CF911F910F91FF90EF907B
:10214000DF900895C08182E1C89FC02D112482E1F3
:10215000D82EDC0E8D2DF8E5FD1508F488E5D0E0CD
:10216000E82EF12CCE15DF0534F0C1E0F7E5FD15C2
:1021700000F7C0E0DECFF8016181CE010E942B1094
:102180002196F0CF1F93CF93DF93EC01FC01E65E25
:10219000FD4F80816823A1F00E94CB2C182F0E9454
:1021A000CB2C612F782F80916D040E94A90A462FB5
:1021B000282F672FCE01DF91CF911F910C94F20A47
:1021C000DF91CF911F910895DF92EF92FF920F93CD
:1021D0001F93CF93DF938C01FC01C281C11125C0F5
:1021E00060916E0420E1620F08F46FEF80916F043C
:1021F000909170040E94470765E070E00E94102CE7
:10220000892B51F40E94CB2C68E570E00E94242CAD
:10221000F80161810E94C2108C2FDF91CF911F9134
:102220000F91FF90EF90DF900895C08182E1C89FE9
:10223000C02D112482E1D82EDC0E8D2DF8E5FD1580
:1022400008F488E5D0E0E82EF12CCE15DF0534F057
:10225000C1E0F7E5FD1500F7C0E0DECFF8016181D0
:10226000CE010E94C2102196F0CFBF92CF92DF9292
:10227000EF92FF920F931F93CF93DF937C01FC01AA
:10228000C08182E1C89FC02D112412E11C0F012FD3
:10229000193508F008E5C0906C04D0906D04D09119
:1022A0006B0460916E0466956695669580916F04E7
:1022B000909170040E9447070E948107805887FD13
:1022C0008195880F682F2CE0629F612D11246D0F7E
:1022D0007C2D8D2D0E944407D62EC72EB82ED0E01F
:1022E000C01770F081E0183508F080E0DF91CF91E1
:1022F0001F910F91FF90EF90DF90CF90BF900895C6
:10230000FE01E65EFD4F8081F7019181892331F066
:102310002B2D4D2D6C2DCE010E94F20A2196E0CF7F
:10232000E091DC02F091DD020994CF92DF92EF920E
:10233000FF920F931F93CF93DF93CDB7DEB728970C
:102340000FB6F894DEBF0FBECDBF182F062FF42EA8
:102350000E947418882309F44BC0FF2009F457C069
:10236000AE014F5F5F4F602F812F0E94CE0AF82E83
:10237000E09017030F2D10E0C8018E0D911D0997F5
:1023800064F188E090E06C01C01AD10AB801685E7F
:102390007C4FA60188E193E00E94DB2CB801605ECF
:1023A0007C4FA60180E293E00E94DB2CA601440F43
:1023B000551FB801660F771F605D7C4F80E393E087
:1023C0000E94DB2CB801685D7C4FA60188E293E097
:1023D0000E94DB2CEA94E092170310911703DE01B0
:1023E000119640E0842F810FF41213C080931703DD
:1023F00028960FB6F894DEBF0FBECDBFDF91CF9108
:102400001F910F91FF90EF90DF90CF900895F12CE6
:10241000AFCF5D91252F30E090E0BC01695E7C4F2D
:10242000F901EE0FFF1FE659FE4F0081FB0101830A
:10243000220F331FF901E559FE4F2081FB0121874F
:10244000518B880F991FFC01E95EFC4F128E118E93
:102450004F5FC8CF08950E948C020C942A120895F1
:102460000895CF93DF93FC01C08182E1C89FC02D06
:102470001124DEEEDC0FC93508F0C8E56C2F8D2F76
:102480000E942F126C2F8D2FDF91CF910C94301260
:102490004F925F926F927F928F929F92AF92BF9274
:1024A000CF92DF92EF92FF92CF93609140037091B1
:1024B000410380914203909143030E94FD246B01EC
:1024C0007C010E94E2244B015C01809240039092C7
:1024D0004103A0924203B0924303A0911703E7E1A6
:1024E000F3E08A2F90E04FEF5FEF60E070E04C196F
:1024F0005D096E097F09A91325C080931703809198
:102500006A04C82FC37019F0C82FC695C69590915C
:102510007202913009F440C0992339F1923009F4E4
:1025200049C1933009F44FC1CF91FF90EF90DF90F4
:10253000CF90BF90AF909F908F907F906F905F9063
:102540004F900895218D328D2901712C612C4415F5
:1025500055056605770520F481509F5F3296CBCFF5
:102560002C0D3D1D328F218FF8CF10927302809277
:102570006F0490927004A0927104B092720489E288
:10258000E7E1F3E0A3E7B4E001900D928A95E1F76B
:1025900081E080937202C8CF90917602C91315C072
:1025A000982F93702091770230E081E09217130604
:1025B00009F480E0817080937502C83278F4EC2FC2
:1025C000F0E0E65AF24D0C94572C81E0F3CF8823CB
:1025D00059F040E060E080E00E94901180E004C08B
:1025E00083E792E00E94800E909173029F5F909328
:1025F00073028111DBC082E08093720280917502C8
:102600008111D4C0CC2309F4DCC00E942B1283E7D3
:1026100092E0CF91FF90EF90DF90CF90BF90AF907E
:102620009F908F907F906F905F904F900C9431129D
:1026300083E792E00E94C20ED7CF83E792E00E9428
:102640001C0FD2CF83E792E00E946F0FCDCF83E7BC
:1026500092E00E94CC0FC8CF83E792E00E94490C21
:10266000C3CF83E792E00E944D0CBECF83E792E098
:102670000E94EA0BB9CF83E792E00E94EE0BB4CF41
:1026800083E792E00E94790BAFCF83E792E00E944C
:102690007D0BAACF83E792E00E94510CA5CF83E780
:1026A00092E00E94550CA0CF83E792E00E94590C63
:1026B0009BCF83E792E00E945D0C96CF83E792E088
:1026C0000E94810B91CF83E792E00E94F20B8CCFA6
:1026D00083E792E00E94F60B87CF83E792E00E94A7
:1026E000850B82CF83E792E00E94D00C7DCF83E7F9
:1026F00092E00E94D40C78CF83E792E00E94D80C3D
:1027000073CF83E792E00E9471106ECF83E792E06F
:102710000E94E41069CF83E792E00E94351164CFF4
:1027200083E792E00E94610C5FCF83E792E00E9412
:10273000650C5ACF83E792E00E94520D55CF83E794
:1027400092E00E94560D50CF83E792E00E94260E41
:102750004BCF83E792E00E94320E46CF83E792E0B0
:102760000E94380E41CF83E792E00E94440E3CCF96
:1027700083E792E00E944A0E37CF83E792E00E94FF
:10278000560E32CF83E792E00E945C0E2DCF83E796
:1027900092E00E94680E28CF83E792E00E946E0EBE
:1027A00023CF83E792E00E947A0E1ECFCC2309F458
:1027B000BBCE2BCFC09376028370809377020E94AA
:1027C000ED0A83E0E6CE60916F0470917004809111
:1027D0007104909172040E94FD246031710581059D
:1027E000910508F4A1CE109272029ECEE091D8021B
:1027F000F091D9020995109273048FEF9FEF909397
:102800008D0480938C0490938F0480938E04909316
:1028100091048093900490939304809392049093F6
:1028200095048093940490939704809396049093D6
:1028300099048093980490939B0480939A04109237
:102840001703909331038093300390933303809365
:10285000320390933503809334039093370380932E
:102860003603909339038093380390933B0380930E
:102870003A0390933D0380933C0390933F038093EE
:102880003E030E943423811104C00E94D8230E9479
:10289000BB0A0E94AB0A80916A048C7F11F40C94ED
:1028A000BB0A089590916A0421E0922790936A04EC
:1028B0001092720281110C94B30A089581E00C9475
:1028C000521490916A04937099F0811109C0946038
:1028D00090936A0410927202662351F00C94B30A2A
:1028E000883210F09C69F4CF880F880F982BF0CFB6
:1028F000089561E00C946114682F90916A04969594
:10290000969581E0890F883208F081E00C9461147B
:1029100081E00C947C14682F90916A0496959695AA
:102920008FEF890F09F487E20C94611481E00C9415
:102930008B1490916A04937061F080936B046093A0
:102940006C04433308F042E340936D0421110C946E
:10295000B30A0895AAE6B4E01196EC911197F0E05D
:10296000282F13964C91139712966C91CF010896CD
:102970000C94991481E00C94AA14EAE6F4E0918195
:10298000282F43816281E92FE850FF0BCF010C947F
:10299000991481E00C94BD14EAE6F4E0628120E130
:1029A000620F08F46FEF9181282F4381892F90E007
:1029B0000C94991481E00C94CC14EAE6F4E0628162
:1029C00020E1621B08F460E09181282F4381892F68
:1029D00090E00C94991481E00C94DD14EAE6F4E0A4
:1029E000438120E1420F08F44FEF9181282F62814B
:1029F000892F90E00C94991481E00C94EE14EAE68F
:102A0000F4E0438120E1421B08F440E09181282F4B
:102A10006281892F90E00C94991481E00C94FF144A
:102A200020916E0430E1230F08F42FEF20936E0401
:102A300081110C94B30A089581E00C941015209133
:102A40006E0430E1231B08F420E020936E04811112
:102A50000C94B30A089581E00C941F150895FC01AD
:102A6000EE0FFF1FE80FF91FE456FB4F6183408311
:102A700022830895ECE9F4E08183608342833396F6
:102A800095E0E43AF907C1F7089568E570E08CE94C
:102A900094E00C94AE15FA01811101C0FB01099478
:102AA0000F931F93CF938C01FB01C281CC2309F4B8
:102AB00053C00E947D228272F801E35CFC45E43140
:102AC000F10538F4EE57F24D0C94572C0E945E1429
:102AD000C0E08C2FCF911F910F91089546E954E1EA
:102AE00068E874E10E944B15F3CF48E854E166E9C9
:102AF00074E1F8CF49EC54E16AEB74E1F3CF4AEBAF
:102B000054E169EC74E1EECF4BEE54E16AED74E10F
:102B1000E9CF4AED54E16BEE74E1E4CF4DE055E1CD
:102B20006CEF74E1DFCF4CEF54E16DE075E1DACF8B
:102B30004BE255E16CE175E1D5CF4CE155E16BE23B
:102B400075E1D0CF81E00E947914C2CF85E0FBCF40
:102B50008DE0F9CF82E1F7CFC1E0BBCF6E9A4EB1E5
:102B60004F7B5EB15064EFB7F8949B01220F331F87
:102B7000260F371F280F391F2817390741F4EFBFD9
:102B80008FE594E00197F1F700C000000895DC01A3
:102B90006D91CD0178E05EB9000000C067FF4EB9CD
:102BA000660F000000C000C000C04EB900C07A959A
:102BB00091F7E2CF0F931F93CF93DF93C42FD22FC0
:102BC000FC0182818823C9F0409346030E94D624E9
:102BD000909345038093440380E28C0F883008F083
:102BE00050C0C77081E001C0880FCA95EAF7DF9135
:102BF000CF911F910F910C94941A109146031413C6
:102C000035C080914403909145030E94EE24883C96
:102C1000910560F5C0E2CD0F1D17B9F080E2810F7C
:102C2000883040F4177081E001C0880F1A95EAF7E8
:102C30000E949B1AC83048F481E09D2F977001C014
:102C4000880F9A95EAF70E94941A802F0E948C1A96
:102C5000C830B8F4D77081E001C0880FDA95EAF780
:102C6000DF91CF911F910F910C949B1A80E28C0FF2
:102C7000883038F4C77081E001C0880FCA95EAF740
:102C8000EFCFDF91CF911F910F9108950F939C018A
:102C9000CB01243F4CE5340759F1A8F4293DFCE56C
:102CA0003F0701F12A3D4CE53407D1F1283D3C4571
:102CB00091F406E221EE41EE68ED7CE50E94DA1522
:102CC00080E00F910895263FFCE53F07E9F0B0F062
:102CD000273F3C45F9F0FC018281882339F11092AD
:102CE0004603EFCF07E225EE45EE69ED7CE5E6CF42
:102CF00006E221EE40EE64EF7CE5E0CF07E225EE50
:102D000044EE65EF7CE5DACF06E221EE42EE66EFB7
:102D10007CE5D4CF07E225EE46EE67EF7CE5CECF2B
:102D200008E221E045EE6AED7CE5C8CF81E0C9CF3D
:102D3000CF93DF93EC01FB018281882309F419C151
:102D4000C230FCE5DF07C0F1C6319CE5D90730F0A1
:102D50009E012B5F3C452930310570F50E944723C9
:102D60009093A9058093A805C031ECE5DE0709F42E
:102D7000CFC008F05BC0C8308CE5D80709F4B6C0F6
:102D800088F5C430ECE5DE0709F4A8C0C0F4C23011
:102D90008CE5D80709F49CC08091A8058260C330F7
:102DA000DC4509F498C08091A8059091A9050E947E
:102DB00055230E94FE1C80E0DF91CF910895809101
:102DC000A8058061C630ECE5DE0709F484C0809177
:102DD000A8058860C730DC4508F47DC08091A8054F
:102DE000806279C0CC308CE5D80709F489C070F4D2
:102DF0008091A8058C60CA30ECE5DE0709F46BC051
:102E000008F478C08091A8058E7F65C0CE308CE52F
:102E1000D80709F479C08091A8058B7FCF30DC45B5
:102E200008F459C08091A8058F7E55C0CC3FECE5D1
:102E3000DE0709F457C030F5C3318CE5D80709F433
:102E40006FC078F4C131ECE5DE0709F465C0C2312A
:102E5000DC4509F0A8CF0E94FE1C8091A8058F7761
:102E60003AC0C5318CE5D80709F462C008F476C0D1
:102E70008091A9058160CB3FDC4509F094CF809318
:102E8000A90591CFC115FDE5DF0709F44DC088F410
:102E90008091A9058D7FCE3F9CE5D90781F3809174
:102EA000A9058E7FCF3FDC4550F38091A905836053
:102EB000E6CFC230FDE5DF0709F459C008F444C08D
:102EC00080E0C330DD4509F06ECF0E94DA236BCF7E
:102ED0008091A80581608093A80565CF8091A805A1
:102EE0008460F9CF8091A9058260C9CF8091A8053F
:102EF0008064F1CF0E94FE1C8091A8058068EBCF12
:102F00008091A8058D7FE7CF8091A805877FE3CFCB
:102F10008091A8058F7DDFCF8091A8058F7BDBCFC7
:102F20008091A805837FD7CF8091A9058C7FA7CFFB
:102F30008091A80582FB992790F921E0922790FBC8
:102F400082F990FB83F9C7CF8091A905982F9095BE
:102F500091708E7F892B90FB81F991CF0E94FE1C8E
:102F60009091A805892F97FB87F98058B4CF81E00D
:102F7000ACCF81E021CFCF93DF93EB0186319C452D
:102F800011F50E947D229A81992399F08A7A91E025
:102F900009F490E090934703811109C089E20E94EF
:102FA00058220E94C92280E0DF91CF91089585E3E5
:102FB000F6CF80914703811104C089E20E945F220D
:102FC000F0CF85E3FBCF81E0EFCF90934D0380936B
:102FD0004C030895E0914C03F0914D03309721F09C
:102FE0000190F081E02D099480E00895E0914C0378
:102FF000F0914D03309711F480E008950190F08135
:10300000E02D09950895E0914C03F0914D03309720
:1030100099F020918402222359F02091A80527FFDE
:1030200007C0DC012C9111962C93119725E02C936D
:103030000280F381E02D0994089520914A03309194
:103040004B032817390771F090934B0380934A0381
:10305000E0914C03F0914D03309721F00680F78109
:10306000E02D0994089520914803309149032817D1
:10307000390771F09093490380934803E0914C0322
:10308000F0914D03309721F00084F185E02D0994F3
:1030900008950E94E22460936B0370936C03809305
:1030A0006D0390936E03609367037093680380933E
:1030B000690390936A03089585B7806885BF85B7D3
:1030C000806885BF0895089508950C946318089545
:1030D0000C9467180E945C188CE293E20E946125B0
:1030E0000E9464180C94651881E008950C9474187B
:1030F000089508950E94CD240E9497050E947C2582
:103100000C9468184F925F926F927F928F929F9269
:10311000AF92BF92CF92DF92EF92FF920F931F93E5
:10312000CF93DF93CDB7DEB72A970FB6F894DEBF03
:103130000FBECDBF0E9478180E9479180E94D0055A
:1031400081110E9449185FE4C52E53E0D52E10E08E
:1031500000E0E02E802F0E946C052B013C01F6015F
:1031600081909190A190B1906F0184149504A60470
:10317000B704B1F40F5F1F4F0630110551F78FEF01
:1031800089838A831B820E94D6248160782F9D8345
:103190008C8349815A816B818D810E94651951C050
:1031A0008091160481FD0E947705D501C401842514
:1031B0009525A625B725F12C812C912C54018394BB
:1031C000AC01BD01482159216A217B21452B462BA9
:1031D000472B09F45AC00E947618482059206A20CB
:1031E0007B20DD24D39445284628472809F4D12C98
:1031F000882379F0FE82EF82D8860E94D6248160EF
:10320000782F9A8789874E815F8168858A850E9499
:103210006519000F111F000F111FF801E15BFC4F32
:1032200080819181A281B38188259925AA25BB251A
:1032300080839183A283B3834D2D6F2D8E2D0E94A9
:1032400095110E9448120E94EA1790914E03891727
:1032500029F10E94EA1780934E032A960FB6F8943C
:10326000DEBF0FBECDBFDF91CF911F910F91FF90B9
:10327000EF90DF90CF90BF90AF909F908F907F9016
:103280006F905F904F900C945A03F394880C991CA4
:10329000AA1CBB1CF1E1FF1293CF6CCF2A960FB68C
:1032A000F894DEBF0FBECDBFDF91CF911F910F917C
:1032B000FF90EF90DF90CF90BF90AF909F908F9056
:1032C0007F906F905F904F900895DF92EF92FF9202
:1032D0000F931F93CF93DF93CDB7DEB72B970FB626
:1032E000F894DEBF0FBECDBF7A878B87F42E052FF3
:1032F000162FE72ED82E61110E949D221E821D825C
:103300007E2DEC82DD824F2D502F612F8D2D9E81E1
:103310002B960FB6F894DEBF0FBECDBFDF91CF91D5
:103320001F910F91FF90EF90DF900C94741FFC01A0
:10333000808191810C942A22CF93C82F882309F48D
:1033400083C08238C1F40E94EA1781FD7DC089E301
:103350000E9458220E94C9222FEF81EE94E0215052
:1033600080409040E1F700C0000089E30E945F22A6
:10337000CF910C94C9228338A1F40E94EA1780FDF2
:1033800063C083E50E9458220E94C9222FEF81EE7C
:1033900094E0215080409040E1F700C0000083E5B8
:1033A000E5CF8438A1F40E94EA1782FD4DC087E47E
:1033B0000E9458220E94C9222FEF81EE94E02150F2
:1033C00080409040E1F700C0000087E4CFCF8CEF51
:1033D0008C0F813A90F46C2F809178029091790251
:1033E0000E94F323882329F08C2F0E945F220E94E1
:1033F000C9228C2F0E945822BBCF80E28C0F8830CC
:1034000048F4C77081E001C0880FCA95EAF70E94AE
:103410008022AECFEBE5EC0FE33040F4F0E0E25F6A
:10342000FC4F808190E0CF910C941D18C85AC73191
:1034300058F4EC2FF0E0EE0FFF1FE052FD4F8081BB
:103440009181CF910C943318CF910895882309F47A
:103450004BC0823871F40E94EA1781FF45C089E3AE
:103460000E9458220E94C92289E30E945F220C9484
:10347000C922833859F40E94EA1780FF35C083E5DA
:103480000E9458220E94C92283E5EFCF843859F464
:103490000E94EA1782FF28C087E40E9458220E94F7
:1034A000C92287E4E2CF9CEF980F913AF0F290E2C4
:1034B000980F983050F4877091E001C0990F8A9569
:1034C000EAF7892F0E948622D2CF9BE5980F93308E
:1034D00020F490E080E00C941D18885A873120F485
:1034E00090E080E00C94331808951F93CF93DF93FE
:1034F000182FEB010E949C19209731F4812FDF9146
:10350000CF911F910C94261A8FE99FE00197F1F754
:1035100000C000002197F0CF70E060E0893311F423
:1035200060E570E00C94751A882321F00E948022D7
:103530000C94C9220895882321F00E9486220C94BD
:10354000C9220895BF92CF92DF92EF92FF920F931C
:103550001F93CF93DF936C01D62FC72FFC011281ED
:10356000058102950F700E947622E82E8823A1F033
:10357000E12E112389F08C2F807F803429F080E2A6
:103580008D0FE12C883040F082E00E9414230E94CD
:10359000762291E0E82EE926BC2EB2949FE0B92273
:1035A000EB2DF0E0EA56F24D0C94572C0C2F0F70D7
:1035B000C07F11F00295007F1123A9F0002359F07C
:1035C00080E28D0F883010F0D11109C0802F0E9449
:1035D00080220E94C9228D2F0E949C1914C0802F26
:1035E0000E949022F6CF8D2F0E94261A002359F0B8
:1035F00080E28D0F883010F0D1112CC0802F0E94F6
:1036000086220E94C9222B2D2850330B24303105ED
:1036100020F40E94EA170E945A03EE2009F493C195
:103620000E94722280FD8FC1F60112820E946C22DC
:103630000E94F820C6010E94C41C0E946C22DF91E7
:10364000CF911F910F91FF90EF90DF90CF90BF909F
:103650000C941921802F0E949622D3CFFC2FFF704B
:10366000FF2EC07FC03219F0F29480EFF822DD23E4
:1036700069F0D13049F1112391F1002351F1F601A4
:10368000858180FFA8CF8F70858323C0112381F0AF
:10369000011106C00E94B0228F290E94941AB3CF54
:1036A0000130C1F70E94B0228F290E94B622ABCF11
:1036B000011106C00E94BF228F2D0E949B1AA3CF2A
:1036C000013009F4A0CFF6CF112329F0063008F01D
:1036D0009ACF8F2DE2CF053008F095CFEDCF0023A4
:1036E00059F3D93349F4FFEF27EE33E0F15020408E
:1036F0003040E1F700C000008D2F0E94261A83CFD2
:103700008C2F86958695837069F0813009F07BCF88
:103710008D2F9C2F9370111102C090E080E00E94C9
:10372000331871CF8D2F9C2F9370111102C090E030
:1037300080E00E941D1867CF8C2F837009F041C074
:10374000111161CF4D2F429546954770440F440F9C
:103750000D2F0F7010E030E020E0042E04C0000FA9
:10376000111F221F331F0A94D2F760E070E0CB01D3
:10377000D4FF0FC06FE070E080E090E004C0660FFF
:10378000771F881F991F4A95D2F76095709580958D
:103790009095C695C695C370602B712B822B932B89
:1037A000C23049F058F4C13019F00E94AA202BCF42
:1037B0000E94982028CF0E94BC2025CF0E949620EE
:1037C00022CF8695112311F08C2F8170882309F464
:1037D0001ACF4D2F429546954770440F440F0D2F39
:1037E0000F7010E030E020E0042E04C0000F111F25
:1037F000221F331F0A94D2F760E070E0CB01D4FFA0
:103800000FC06FE070E080E090E004C0660F771FAB
:10381000881F991F4A95D2F760957095809590956D
:10382000C695C695C370602B712B822B932BC2302B
:1038300049F058F4C13019F00E946F21E4CE0E9483
:103840005D21E1CE0E948121DECE0E94D220DBCE1E
:10385000CF70112329F08C2F0E94F8208D2F1DCFBF
:103860008D2F0E949B1A8C2F0E941921CCCED23F03
:1038700089F160F4D03FC9F0D13F29F1112309F457
:1038800042C00111A8CE8C2F8F7121C0D33F39F1D6
:10389000D43FA1F7112369F1CF718C2F0E94F8203A
:1038A00063E08C2F0E94FF22AECE112341F0053041
:1038B00008F0A9CE8C2F8F710E943C21A4CE063037
:1038C00008F0A1CEF7CF8C2F8F71112369F20E94DF
:1038D000F82099CE8C2F8F711123C9F3C5CF1123F6
:1038E00029F08C2F8F710E94E3208DCE0E94DE2064
:1038F0008ACE81E00E941423023008F484CE82E054
:103900000E94142380CE002359F0D93309F0F4CE5D
:103910008FEF97EEE3E081509040E040E1F7EACE90
:103920008C2F8F71A1CF4C2F4F706D2FC6010E942D
:1039300062030E940E2067CE4C2F4F706D2FC60180
:103940000E94650360CEDF91CF911F910F91FF9090
:10395000EF90DF90CF90BF9008950F931F93CF9378
:10396000DF93EC01688179818A810E9434228C0185
:103970000E9493210E949520B801CE01DF91CF9142
:103980001F910F910C94A21ACF93DF93EC018B81BE
:103990009C81892B29F08881998189238F3F59F453
:1039A000DF91CF910895CE010E94AD1CCE01DF9131
:1039B000CF910C94E802CE010E9411038111F3CF44
:1039C0000E947622882361F38A81882349F382E06A
:1039D000DF91CF910C94142390E080E00E941D1899
:1039E00090E080E00E9433180E949D220E94AD2248
:1039F0000C94C9220E9466220C94EC1C0E948D2219
:103A00000C94FA1CE92FE295EF70E250EE3070F45E
:103A1000F0E0EA55F24D0C94572C803F19F020F459
:103A2000883E20F481E00895843FE1F380E008952A
:103A3000883EC0F3813FD1F7F5CF93FB882780F90B
:103A400008950E942A220C94021DCF93DF9300D088
:103A500000D00F92CDB7DEB70F900F900F900F9060
:103A60000F90DF91CF910895CF93DF9300D000D0D6
:103A700000D0CDB7DEB726960FB6F894DEBF0FBEE6
:103A8000CDBFDF91CF9108951F93CF93DF93C09166
:103A9000700316E0809171038C1304C0DF91CF9105
:103AA0001F910895D0E01C9FF0011D9FF00D11247F
:103AB000EE58FC4F408151816281738184819581F0
:103AC0000E94341D2196C770E5CF4091A20350910A
:103AD000A3036091A4037091A5038091A603909124
:103AE000A7030C94341D1F93CF93DF938091A703FA
:103AF000807FA9F48091A403882389F080917003CA
:103B0000C09171036091A2037091A303A091A503DA
:103B1000B091A603D62FD72316E0C81304C0DF91B7
:103B2000CF911F91089590E0109711F0DF3F19F4A5
:103B300001968770F2CF189F9001199F300D1124C4
:103B4000F901EE58FC4F41814713F2CF40814613F3
:103B5000EFCF42814111ECCF438154814A1B5B0B73
:103B6000483C510528F78091A7038F7080618093AE
:103B7000A703F901E958FC4F80818F708061808331
:103B800082EA93E00E94C41CDF91CF911F910C94B4
:103B9000441DAF92BF92CF92DF92EF92FF920F93AC
:103BA0001F93CF93DF93CDB7DEB761970FB6F8942D
:103BB000DEBF0FBECDBF8C0185E0F801DE011D9692
:103BC00001900D928A95E1F7F80140815181E280E0
:103BD00082EAC82E83E0D82E6091A5037091A603D7
:103BE0006115710509F461C19091A2032091A303AD
:103BF000892F82238F3F09F458C1A380B480F090AD
:103C0000A403F501E61BF70BFF2009F4FCC080912B
:103C1000A703382F307FE83CF10508F0B2C031111E
:103C200079C0FE2C251323C0941321C0E1101FC0BE
:103C30008F7080618093A7030E94651DC6010E945A
:103C4000C41C8091A703F80185838F2D61960FB660
:103C5000F894DEBF0FBECDBFDF91CF911F910F91C2
:103C6000FF90EF90DF90CF90BF90AF900895AB287A
:103C700029F0842F85238F3F09F033C180E0F82F8E
:103C8000F170DF2E80FF3CC08091700320917103A2
:103C900036E0821315C04D875E878D859E850E9414
:103CA0002A22292F22952F702230F0F0243018F587
:103CB0009F70F1F0F8019581907FD1F4D12C1EC056
:103CC00090E0389FF001399FF00D1124EE58FC4F21
:103CD0006181651306C06081641303C062816E1147
:103CE0000FC001968770D5CF9F7011F0882331F3F4
:103CF000805E883018F3C8010E94C41CFD2CA5CF3B
:103D0000EE2009F4A2CF8091A70381608093A703DE
:103D1000F12C9BCF251306C0941304C0F801EE20AC
:103D200009F48DC04D875E878D859E850E94211D7B
:103D3000882319F1EE2009F18091A703803270F0F9
:103D40002091A2033091A30338872F831986BB8665
:103D5000AA868C87CE0107960E94C41C86E0F801D3
:103D6000A2EAB3E001900D928A95E1F70E94731DDB
:103D70000E94651DFF24F39468CFC8010E94C41CF3
:103D8000F9CF311113C07A2DB98AA88A6E2D89898D
:103D90000E94251D82EA93E00E94C41C86E0F60181
:103DA00011928A95E9F70E94651DB2CF25130FC0C5
:103DB00094130DC0E1100BC0F8018583C8010E9467
:103DC000C41C86E0F60111928A95E9F73ECF4D8733
:103DD0005E878D859E850E94211D882371F2EE20CD
:103DE00061F28091A703803208F4B8CF2091A2033A
:103DF0003091A3033A8329831B82BD82AC828E83D8
:103E0000CE010196A9CFE83CF10508F041C0FE2C97
:103E1000EE2009F4B2CF25132AC0941328C0809154
:103E2000A70380FD1BC0982F907FC1F0F801858308
:103E3000903F31F0982F907F905F8F70892B858312
:103E4000C8010E94C41C86E0F801A2EAB3E0019018
:103E50000D928A95E1F70E94651DF7CE86E0F80184
:103E6000A2EAB3E001900D928A95E1F7EECE4D877C
:103E70005E878D859E850E94211D81116FCF809167
:103E8000A70381608093A703C8010E94C41CDDCEF4
:103E90007A2DB98AA88A6E2D89890E94251D86E00F
:103EA000F60111928A95E9F7D6CFEE2009F465CF95
:103EB0004D875E878D859E850E94211DF82E882363
:103EC00009F45BCF86E0F801A2EAB3E001900D921D
:103ED0008A95E1F782EA93E00E9497190E94731D88
:103EE000BACF81E08E25CBCE1F93CF93DF93CDB792
:103EF000DEB72C970FB6F894DEBF0FBECDBF4F8351
:103F0000588769877A878B879C87CE0107960E949E
:103F1000C91D882369F08A859B85892B39F04F81DB
:103F20005885842F85238F3F09F071C016E05FC04C
:103F300086E0FE013796DE01119601900D928A957A
:103F4000E1F78A859B85892B89F38F819885892361
:103F50008F3F61F32091710330E0C90101968770B2
:103F60009927409170034817190671F40E94FE1CAE
:103F7000109271031092700386E0E2EAF3E0DF0131
:103F80001D928A95E9F7D2CF96E0929FD001939F38
:103F9000B00D1124AE58BC4FFE01319601900D9228
:103FA0009A95E1F7809371030E94441DBFCF819FD2
:103FB000C00111248E589C4F0E94C91D8823E9F02E
:103FC000E09170031E9FF0011124EE58FC4F4081D8
:103FD000518162817381848195810E94341D809119
:103FE000700390E001968770992780937003809109
:103FF0007003909171038913DACF2C960FB6F89461
:10400000DEBF0FBECDBFDF91CF911F9108956985AF
:104010007A858B859C850E94341D88CFEF92FF9214
:104020000F931F93CF93DF938C01892B81F0F12C99
:10403000EE24E394E8012196F8018491843770F42A
:10404000843008F05FC08130B1F08230A1F1DF919F
:10405000CF911F910F91FF90EF900895853709F44C
:104060004CC008F43DC09CE7980F903780F78F77DD
:104070000E94261A49C00E5F1F4FFE01849190E2F4
:10408000980F983060F48770FE2D01C0FF0F8A955D
:10409000EAF78F2F0E94A0220E94C92202C00E942C
:1040A0009C198F2D815030F2EFE9FFE03197F1F745
:1040B00000C00000F7CF0E5F1F4FFE01849190E219
:1040C000980F983050F48770FE2D01C0FF0F8A952D
:1040D000EAF78F2F0E94A622DFCF0E94261AE1CF97
:1040E0000E5F1F4FFE01C491C150D8F28FE99FE0CF
:1040F0000197F1F700C00000F7CF0E5F1F4FFE01E0
:10410000F490CFCF0E949C198E01CBCF08950C94D0
:1041100086200E9487206093ED037093EE038093C6
:10412000EF039093F0030C94EC1C08950C948920F9
:104130000F931F930091ED031091EE032091EF0375
:104140003091F003602B712B822B932B1F910F91D9
:104150000C9489200F931F930091ED031091EE03AF
:104160002091EF033091F003602371238223932386
:104170001F910F910C9489200F931F930091ED03D1
:104180001091EE032091EF033091F0036027712727
:10419000822793271F910F910C9489200C948620DD
:1041A0000C94CE200E94D0206093E9037093EA0320
:1041B0008093EB039093EC030C94EC1C60E070E0B4
:1041C000CB010C94D2200F931F9341E050E060E0AC
:1041D00070E08A019B0104C0000F111F221F331FD2
:1041E0008A95D2F7C901B8011F910F910C94D22082
:1041F0000F931F9341E050E060E070E004C0440F73
:10420000551F661F771F8A95D2F78091E903909119
:10421000EA03A091EB03B091EC038A019B01082B08
:10422000192B2A2B3B2BC901B8011F910F910C941C
:10423000D2200F931F9341E050E060E070E004C093
:10424000440F551F661F771F8A95D2F7CB01BA011D
:1042500060957095809590950091E9031091EA031F
:104260002091EB033091EC0360237123822393238D
:104270001F910F910C94D2200F931F9341E050E0B7
:1042800060E070E004C0440F551F661F771F8A95D9
:10429000D2F78091E9039091EA03A091EB03B091EA
:1042A000EC038A019B01082719272A273B27C9010C
:1042B000B8011F910F910C94D2200F931F9300917E
:1042C000E9031091EA032091EB033091EC03602B9A
:1042D000712B822B932B1F910F910C94D2200F9353
:1042E0001F930091E9031091EA032091EB033091B1
:1042F000EC0360237123822393231F910F910C946D
:10430000D2200F931F930091E9031091EA032091AB
:10431000EB033091EC0360277127822793271F91CD
:104320000F910C94D220089521E1929F800D1124C9
:10433000982F977041E001C0440F9A95EAF786954F
:104340008695869595E0899FF0011124E855FC4FEC
:1043500090E080E070E05191DF0111979B01082E01
:1043600002C0369527950A94E2F7217021952527FA
:10437000242325272C9301968530910561F7089514
:1043800021E1929F800D1124982F97708695869534
:10439000869525E0829FF0011124E855FC4F50E0FE
:1043A00040E080E0219130E0092E02C0369527954B
:1043B0000A94E2F721703327042E01C0220F0A94D9
:1043C000EAF7822B4F5F5F4F4530510559F708954B
:1043D000BF92CF92DF92EF92FF920F931F93CF93F2
:1043E000DF938C01C090E903D090EA03E090EB03E7
:1043F000F090EC038091ED039091EE03A091EF0318
:10440000B091F003C82AD92AEA2AFB2ACFE1D0E0EA
:10441000BC2ED701C6010C2E04C0B695A795979562
:1044200087950A94D2F780FD0EC0219788F7B12CAA
:104430008B2DDF91CF911F910F91FF90EF90DF9027
:10444000CF90BF900895B8018C2F0E9482030197EE
:1044500061F3EECFCF93DF93EC010E94E821BE0120
:10446000DF91CF910C9482031F93CF93DF93EB01E5
:1044700090916F03992331F0CB01DF91CF911F9180
:104480000C942A22882379F0CB010E94E821182F6E
:10449000682FCE010E949421BE01812FDF91CF9120
:1044A0001F910C948203CB010E94C021182FF4CFDE
:1044B000682F80917802909179020C947324682F70
:1044C00080917802909179020C947E2480917802F8
:1044D000909179020C9489248091F10385958595BA
:1044E000859508958091F103877008959091F10367
:1044F000977081E009F480E0089580911504089593
:1045000090911504892B80931504089580959091BE
:104510001504982390931504089510921504089596
:1045200090911404892B80931404089580959091A0
:104530001404982390931404089510921404089579
:1045400090911304892B8093130408958095909182
:10455000130498239093130408951092130408955C
:104560008091F203089508950C94B3229091F20380
:10457000981721F08093F2030C94B422089580914F
:10458000F203882329F01092F20380E00C94B42205
:104590000895E0917802F09179028091150480836A
:1045A000E0917802F0917902808190911404892B36
:1045B0008083E0917802F0917902808190911304D8
:1045C000892B80839091F203992381F0E091780206
:1045D000F09179028081892B80838091780290917B
:1045E00079020E94DF2381110E94BF22809178020C
:1045F000909179020C94031808950C94FC2298E091
:10460000899F90011124622B6093F1030E94F8208E
:104610008091F1038595859585950C94FD221092E6
:10462000F10380E00C94FD229091F10380958923A1
:104630008093F103282F277071F4282F082E000C87
:10464000330B9217130639F08595859585950E9451
:1046500019210C940F23089580E008956FEF7FEFE8
:1046600090E080E00C94302D90E080E00E94FC2CE3
:1046700021E08B3E9E4F09F020E0822F089582E0DA
:1046800090E00C94F42C83E090E00C94F42CCF9305
:1046900084E090E00E94F42CC82F81E290E00E9418
:1046A000F42C982F8C2FCF910895CF93C92F682F7A
:1046B00084E090E00E94122D6C2F81E290E0CF9177
:1046C0000C94122DAB01BC018FE090E00C94242DD2
:1046D000AB01BC0183E190E00C94242D60E070E01C
:1046E000CB010C94682360E070E0CB010E94622350
:1046F0000C946E236BEE7EEF90E080E00E94302DF4
:1047000060E082E090E00E94122D60E083E090E0A3
:104710000E94122D1092ED031092EE031092EF03FF
:104720001092F00360E084E090E00E94122D60E0BF
:1047300081E290E00E94122D60E085E090E00E940E
:10474000122D60E086E090E00E94122D6FEF87E06E
:1047500090E00E94122D40E050E0BA0188E090E025
:104760000E94242D60E08DE090E00E94122D40E038
:1047700050E0BA0188E190E00E94242D60E087E1DA
:1047800090E00E94122D40E050E0BA018CE190E0F0
:104790000E94242D60E080E290E00E94122D40E013
:1047A00050E0BA0188E190E00E94242D0C9473231C
:1047B0000C947A23682F8EE090E00C94122DFC016B
:1047C000329680918402882321F08091A8059EE191
:1047D00087FF96E080E0915008F40895219122230C
:1047E000D1F38F5FF8CF662301F120918402222359
:1047F000F1F02091A80527FF1AC0462F469546954F
:1048000046954E3190F4677021E030E002C0220FEF
:10481000331F6A95E2F7840F911DFC01828190E0BD
:104820002823392381E0232B69F480E00895FC01DB
:10483000329608962191261721F0E817F907D1F74B
:10484000F4CF81E008959C01FC0132969FEF80E057
:104850004191461751F09F3F19F4411101C0982F23
:104860008F5F8630A9F79F3F09F40895290F311D06
:1048700097FD3A95F90162830895FC0132960896F6
:104880002191261303C0DF0111971C92E817F90745
:10489000B9F70895E62FE695E695E695EE3168F4CA
:1048A000E80FF92FF11D677021E030E001C0220F01
:1048B0006A95EAF78281822B82830895E62FE69536
:1048C000E695E695EE3170F4E80FF92FF11D67706B
:1048D00021E030E001C0220F6A95EAF7209582813D
:1048E00028232283089520918402222329F02091F5
:1048F000A80527FD0C944A240C94232420918402BB
:10490000222329F02091A80527FD0C945E240C9405
:104910003D24FC01329680918402882351F08091DD
:10492000A80587FF06C08EE1DF011D928A95E9F791
:10493000089586E0F9CF08950C949B240E94FE1CF4
:104940000E94EA170E945A030C949C241F921FB6DF
:104950001F9211248F939F93AF93BF93809117045D
:10496000811113C08091A4059091A505A091A60581
:10497000B091A7054196A11DB11D8093A405909308
:10498000A505A093A605B093A705BF91AF919F91F0
:104990008F911F901FBE1F90189582E084BD93E0F9
:1049A00095BD9AEF97BD80936E0008952FB7F89448
:1049B0008091A4059091A505A091A605B091A705A9
:1049C0002FBF08952FB7F8946091A4057091A505A5
:1049D0008091A6059091A7052FBF08959C014FB720
:1049E000F8948091A4059091A505A091A605B09199
:1049F000A7054FBF821B930B0895CF92DF92EF92D2
:104A0000FF922FB7F894C090A405D090A505E09030
:104A1000A605F090A7052FBFA7019601261B370B0F
:104A2000480B590BCA01B901FF90EF90DF90CF906E
:104A3000089578941F921FB61F9211248F939F930D
:104A4000AF93BF938091A4059091A505A091A60571
:104A5000B091A7050196A11DB11D8093A405909367
:104A6000A505A093A605B093A705BF91AF919F910F
:104A70008F911F901FBE1F90189581E08093E000DA
:104A800080E28093D8001092C9008FE19EE40197E4
:104A9000F1F700C0000087E090EBDC018093B705E0
:104AA0009093B805A093B905B093BA0588E19CE04E
:104AB0000FB6F894A895809360000FBE90936000A5
:104AC000FFCF909313038093120308950C942E2329
:104AD0000E94D0058FE39CE90197F1F700C0000028
:104AE0000E94D00580E00E946C0560FF04C00E9417
:104AF00066250C943D2508950E943423811102C03F
:104B00000E94D8230E943F23809316040E944723CB
:104B10009093A9058093A8050E944323682F70E015
:104B200090E080E00E9496206091E9037091EA0392
:104B30008091EB039091EC030C94D0208091380489
:104B400008950895CF93DF9300D00F92CDB7DEB7CD
:104B50009091AE05943019F589837B836A8382E056
:104B60008093E9008FEF9091E800815095FD06C099
:104B700095ED9A95F1F700008111F5CF8091E8004D
:104B800085FF0DC050E040E063E070E0CE0101968B
:104B90000E947F278091E8008E778093E8000F9035
:104BA0000F900F90DF91CF910895BC0184E00C9499
:104BB000A225BC0183E00C94A225CF93DF93EC01E6
:104BC000809184028823B1F18091A80587FF32C0CB
:104BD00060E282E08093E9008FEF9091E8008150DD
:104BE00095FD06C095ED9A95F1F700008111F5CF7E
:104BF0008091E80085FF1BC08091840270E050E046
:104C000040E0811104C050E040E068E070E0CE0177
:104C10000E947F278091E8008E778093E80080E2F1
:104C2000FE01A8E1B4E001900D928A95E1F7DF91D1
:104C3000CF91089568E081E0CDCF8091AD058111DD
:104C400009C00E940F290E946C298091E2008460B3
:104C50008093E20008951092AD0508950895089597
:104C60000C949E2442E061EC81E00E948B2842E299
:104C700061EC82E00C948B288091B005833009F4BC
:104C80005FC030F48130C1F1823009F49BC00895D7
:104C90008A3009F487C08B3009F46DC0893009F07F
:104CA0004EC08091AF05813209F049C08091B305B3
:104CB0009091B405029708F042C08091E800877F88
:104CC0008093E8008091E80082FF35C09091F30066
:104CD0008091F200029729F48091F1008B7F81305E
:104CE00021F48091F100809338048091E8008B7763
:104CF0008093E8000C94BF288091AF05813AF9F4C5
:104D00008091E800877F8093E8008091B3059091BF
:104D1000B405892B61F460E288E194E070E00E94C0
:104D2000CE278091E8008B778093E800089560E0BB
:104D300090E080E0F3CF8091AE058111C3CF08955C
:104D40008091AF05813AD9F78091B3059091B40570
:104D5000892BA9F78091E800877F8093E8008091F4
:104D6000E80080FFFCCF809184028093F100809165
:104D7000E8008E77BDCF8091AF05813201F7809139
:104D8000B3059091B405892BD1F68091E800877F17
:104D90008093E8000E94BF288091B105809384022F
:104DA0000C94FE1C8091AF05813249F68091E80099
:104DB000877F8093E8000E94BF288091B20580938E
:104DC000390408958091AF05813A09F0B8CF8091F8
:104DD000E800877F8093E8008091E80080FFFCCFA7
:104DE00080913904C2CF84B7877F84BF0FB6F8940F
:104DF000A8958091600088618093600010926000A7
:104E00000FBE80E890E00FB6F89480936100909315
:104E100061000FBE0E946A180E940F290E946C292F
:104E20008091E20084608093E20078940E94F52BE8
:104E30000E947A188AE792E00E94E5170E94821881
:104E40000E9478180E947918F9CF0C942727292FEF
:104E500033272330310519F168F42130310509F485
:104E600044C02230310509F445C090E080E030E0D4
:104E700020E025C02132310549F122323105A9F760
:104E800080E490E020E434E061157105C1F08DE626
:104E900090E023ED33E06130710589F0E6CF99278A
:104EA0008130910581F0009729F00297F1F6E4E452
:104EB000F3E002C0E2E8F3E0849190E09F01FA01A0
:104EC000318320830895E6E6F3E0F6CF89E090E0B1
:104ED00028E933E06115710591F389E090E021EB59
:104EE00033E06130710559F3C0CF82E190E021ECED
:104EF00033E0E5CF8BE390E026E833E0E0CFAF92FC
:104F0000BF92CF92DF92FF920F931F93CF93DF93C5
:104F10006C01EB018A010E94DE28F82E811123C06A
:104F20000115110539F0F80180819181C81BD90B59
:104F3000C80ED91EB12CA12C2097A9F08091E800B1
:104F400085FD22C08091E8008E778093E8000115EE
:104F50001105A1F0F80180819181A80EB91EB182DE
:104F6000A08285E0F82E8F2DDF91CF911F910F91B8
:104F7000FF90DF90CF90BF90AF9008950E94DE2801
:104F80008823D1F2F82EEFCFF60181916F01809343
:104F9000F1002197FFEFAF1ABF0ACECFFC0180913D
:104FA000B5059091B60586179707A0F061157105B4
:104FB00029F49091E8009E779093E80090E06115C5
:104FC000710551F4911108C08091E80082FF34C04E
:104FD00080E00895BC01F2CF8091AE058823C1F135
:104FE0008530C1F18091E80083FD30C08091E800F8
:104FF00082FDEACF8091E80080FFE1CF8091F3004D
:105000002091F200382F6115710519F02830310513
:1050100058F091E02830310509F090E02091E80047
:105020002E772093E800CBCF81918093F1006150DF
:1050300071092F5F3F4FE7CF8091AE05882341F084
:10504000853041F08091E80083FFBECF81E0089574
:1050500082E0089583E00895FC018091B505909168
:10506000B60586179707A0F06115710529F48091A0
:10507000E8008E778093E80090E06115710551F4A7
:10508000911108C08091E80082FF35C080E008954A
:10509000BC01F2CF8091AE058823C9F18530C9F1FA
:1050A0008091E80083FD31C08091E80082FDEACF65
:1050B0008091E80080FFE1CF8091F3002091F20021
:1050C000382F6115710519F02830310558F091E03D
:1050D0002830310509F090E08091E8008E778093C8
:1050E000E800CBCF84918093F10031966150710933
:1050F0002F5F3F4FE6CF8091AE05882341F085308A
:1051000041F08091E80083FFBDCF81E0089582E007
:10511000089583E00895982F973028F08F7080933A
:10512000E90081E008959093E900242F762F50E064
:10513000981731F07091EC002091ED005091F00043
:1051400021FD02C09F5FE8CF3091EB003E7F30939E
:10515000EB003091ED003D7F3093ED003091EB009E
:1051600031603093EB007093EC002093ED0050938E
:10517000F0002091EE0027FDE5CF80E008958091BA
:10518000AF0587FF13C08091E80082FF06C08091C1
:10519000E8008B778093E80004C08091AE05811110
:1051A000F2CF08958091AE058823D9F38091E8006D
:1051B00080FFF8CF8091E8008E77ECCF2091E4005B
:1051C0003091E50095E6A9012091EC00822F8170D5
:1051D00020FF06C08091E80080FF06C080E00895AF
:1051E0002091E80022FD1AC08091AE05882389F045
:1051F000853089F08091EB0085FD0FC02091E4009F
:105200003091E50042175307F9F29150E1F684E03E
:10521000089582E0089583E0089581E008950E9452
:105220007D290E948529E0EEF0E080818160808305
:10523000E8EDF0E080818F77808319BCA7EDB0E0C6
:105240008C918E7F8C9380818F7E80831092AD05B0
:1052500008950F931F93CF93DF930E947D290E949F
:105260008529C8EDD0E088818F7788838881806820
:10527000888388818F7D888319BC1092AE05109237
:10528000AA051092AC051092AB0500EE10E0F801F3
:1052900080818B7F808388818160888342E060E0A9
:1052A00080E00E948B28E1EEF0E080818E7F808399
:1052B000E2EEF0E08081816080838081886080837D
:1052C000F80180818E7F8083888180618883DF916F
:1052D000CF911F910F910895E8EDF0E080818F7ECE
:1052E0008083E7EDF0E080818160808384E082BF8D
:1052F00081E08093AD050C942929E8EDF0E08081F0
:105300008E7F80831092E20008951092DA0010924E
:10531000E10008951F920F920FB60F9211242F9360
:105320003F934F935F936F937F938F939F93AF932D
:10533000BF93EF93FF938091E10082FF0BC08091B8
:10534000E20082FF07C08091E1008B7F8093E10043
:105350000E94F42B8091DA0080FF19C08091D80060
:1053600080FF15C08091DA008E7F8093DA008091F3
:10537000D90080FF96C080E189BD82E189BD09B472
:1053800000FEFDCF81E08093AE050E941D26809136
:10539000E10080FF19C08091E20080FF15C080917C
:1053A000E2008E7F8093E2008091E2008061809332
:1053B000E2008091D80080628093D80019BC85E01B
:1053C0008093AE050E942F268091E10084FF2BC0C0
:1053D0008091E20084FF27C080E189BD82E189BD20
:1053E00089B5982F917080FFFBCF8091D8008F7D79
:1053F0008093D8008091E1008F7E8093E1008091BE
:10540000E2008F7E8093E2008091E20081608093D1
:10541000E2008091AA05882309F449C084E08093C2
:10542000AE050E9430268091E10083FF29C0809163
:10543000E20083FF25C08091E100877F8093E10037
:1054400082E08093AE051092AA058091E1008E7FE4
:105450008093E1008091E2008E7F8093E200809152
:10546000E20080618093E20042E060E080E00E9420
:105470008B288091F00088608093F0000E942E2697
:10548000FF91EF91BF91AF919F918F917F916F911C
:105490005F914F913F912F910F900FBE0F901F90F2
:1054A000189519BC1092AE050E942B2670CF8091E2
:1054B000E30087FD93E09093AE05B3CF1F920F9268
:1054C0000FB60F9211242F933F934F935F936F93D7
:1054D0007F938F939F93AF93BF93CF93DF93EF937C
:1054E000FF93D091E900DF708091EC00C82FC1706C
:1054F00080FDC0E81092E9008091F000877F8093E2
:10550000F00078940E94A22A1092E9008091F000A5
:1055100088608093F000CD2BCF70C093E900FF919D
:10552000EF91DF91CF91BF91AF919F918F917F913B
:105530006F915F914F913F912F910F900FBE0F9000
:105540001F9018951F93CF93DF93CDB7DEB7AA971F
:105550000FB6F894DEBF0FBECDBF8FEA95E0209165
:10556000F100FC012193CF01F5E0873B9F07B9F7DC
:105570000E943C268091E80083FF1EC18091AF0508
:105580009091B0059A3008F017C1E92FF0E0EC5483
:10559000F24D0C94572C803899F0823809F00CC1E8
:1055A0008091B3058F70873008F006C18093E900C1
:1055B0008091EB0085FB882780F91092E90006C0F6
:1055C0008091AB059091AC05911182609091E800BB
:1055D000977F9093E8008093F1001092F100809102
:1055E000E8008E77E5C0882309F4D3C0823009F043
:1055F000E3C08091B1058111D6C08091B3058F7051
:105600002FEF280F263008F0D7C08093E9002091B3
:10561000EB0020FFC8C0933031F48091EB00806232
:105620008093EB00C0C09091EB0090619093EB00F1
:1056300021E030E001C0220F8A95EAF72093EA00CA
:105640001092EA008091EB008860EACF8111B4C02B
:105650001091B1051F778091E3008078812B8093B2
:10566000E3008091E800877F8093E8000E94BF28D4
:105670008091E80080FFFCCF8091E30080688093F8
:10568000E30082E0111183E08093AE0595C080585D
:10569000823008F091C08091B1059091B2058C3DA7
:1056A00023E09207A1F583E08A838AE289834FB7DA
:1056B000F894DE01139620E03EE051E2E32FF0E0A3
:1056C00050935700E49120FF03C0E295EF703F5FD5
:1056D000EF708E2F90E0EA30C0F0C7968D939D93C7
:1056E0002F5F243159F74FBF8091E800877F809367
:1056F000E8006AE270E0CE0101960E94CE27809118
:10570000E8008B778093E80057C0C096E7CF6091A0
:10571000B3057091B405AE014F5F5F4F0E9425271E
:10572000BC01892B09F448C09091E800977F9093C1
:10573000E80089819A810E942C28E1CF8038E1F528
:105740008091E800877F8093E8008091AA0580938C
:10575000F10045CF811130C09091B105923060F5D4
:105760008091E800877F8093E8009093AA050E94CB
:10577000BF288091AA05882311F084E005C080919C
:10578000E30087FDFACF81E08093AE050E943226C8
:1057900013C08091B105813079F481E0933009F034
:1057A00080E08093AC051092E9008091E800877F4B
:1057B0008093E8000E94BF288091E80083FF0AC020
:1057C0008091E800877F8093E8008091EB00806201
:1057D0008093EB00AA960FB6F894DEBF0FBECDBF44
:1057E000DF91CF911F9108950895CF938091AE05D9
:1057F0008823A1F0C091E900CF709091EC00892F2F
:10580000817090FD80E8C82B1092E9008091E8003B
:1058100083FD0E94A22ACF70C093E900CF91089522
:10582000AA1BBB1B51E107C0AA1FBB1FA617B707C6
:1058300010F0A61BB70B881F991F5A95A9F78095E2
:105840009095BC01CD01089597FB072E16F40094A6
:1058500007D077FD09D00E94102C07FC05D03EF43C
:10586000909581959F4F0895709561957F4F08950C
:10587000052E97FB1EF400940E944F2C57FD07D075
:105880000E945D2C07FC03D04EF40C944F2C5095D5
:105890004095309521953F4F4F4F5F4F089590951C
:1058A0008095709561957F4F8F4F9F4F0895EE0FB4
:1058B000FF1F0590F491E02D0994A1E21A2EAA1B76
:1058C000BB1BFD010DC0AA1FBB1FEE1FFF1FA217B0
:1058D000B307E407F50720F0A21BB30BE40BF50BAD
:1058E000661F771F881F991F1A9469F76095709536
:1058F000809590959B01AC01BD01CF0108958F92D9
:105900009F92AF92BF92CF92DF92EF92FF92CF938E
:10591000DF93EC01688179818A819B816115710532
:105920008105910521F464E279ED8BE597E02DE1A5
:1059300033EF41E050E00E94382C49015A019B01AD
:10594000AC01A7EAB1E40E94362D6B017C01ACEEFC
:10595000B4EFA50194010E94442DDC01CB018C0D14
:105960009D1DAE1DBF1DB7FF03C00197A109B04823
:1059700088839983AA83BB839F77DF91CF91FF9020
:10598000EF90DF90CF90BF90AF909F908F90089551
:105990000E947F2C089580E091E00E947F2C089562
:1059A000B0E0A0E08093000190930101A093020178
:1059B000B09303010895FB01DC0102C001900D9238
:1059C00041505040D8F70895DC01CB01FC01F99912
:1059D000FECF06C0F2BDE1BDF89A319600B40D923B
:1059E00041505040B8F70895F999FECF92BD81BD5E
:1059F000F89A992780B50895A8E1B0E042E050E018
:105A00000C94E62CDC01A40FB51F4150504048F027
:105A1000CB01840F951F2E910E94132D41505040B1
:105A2000D0F70895262FF999FECF92BD81BDF89A3F
:105A3000019700B4021639F01FBA20BD0FB6F894D2
:105A4000FA9AF99A0FBE08950396272F0E94132DF4
:105A50000E94122D252F0E94132D242F0C94132DFC
:105A60000196272F0E94132D0C94122D0E94492D70
:105A7000A59F900DB49F900DA49F800D911D1124A2
:105A80000895B7FF0C94362D0E94362D821B930B80
:105A90000895A29FB001B39FC001A39F700D811D07
:105AA0001124911DB29F700D811D1124911D089527
:105AB000F894FFCFE712F01218131D1322132713C7
:105AC0002C13311336133B13401345134A134F1352
:105AD000541359135E13631368136D137213771302
