:100000000C9486030C94CD030C94CD030C94CD0377
:100010000C94CD030C94CD030C94CD030C94CD0320
:100020000C94CD030C94CD030C945D2F0C943130C3
:100030000C9491290C94CD030C94CD030C94CD0316
:100040000C94CD030C94CD030C94CD030C94CD03F0
:100050000C94CD030C94042A0C94CD030C94CD0382
:100060000C94CD030C94CD030C94CD030C94CD03D0
:100070000C94CD030C94CD030C94CD030C94CD03C0
:100080000C94CD030C94CD030C94CD030C94CD03B0
:100090000C94CD030C94CD030C94CD030C94CD03A0
:1000A0000C94CD030C94CD030C94CD0329000000D7
:1000B0003A003B003C003D003E003F004000410054
:1000C0004200430044004500460047004800350018
:1000D0001E001F0020002100220023002400250014
:1000E000260027002D002E002A0049004A004B0060
:1000F0002B0014001A000800150017001C0018003F
:100100000C00120013002F00300031004C004D0095
:100110004E00390004001600070009000A000B0019
:100120000D000E000F003300340028000000000016
:1001300000000000E10000001D001B000600190087
:10014000050011001000360037003800E5000000FF
:10015000000052000000E000E300E20000000000A8
:100160002C00000000000000E60001516500E400E2
:100170005000000051004F00005C00000100010031
:100180000100010001000100010001000100010067
:1001900001000100CD5CCE5CCF5C010001000100DC
:1001A0000100010001000100010001000100010047
:1001B000010001000100C55CC75CC95C01000100D1
:1001C0000100010001000100010001000100010027
:1001D0000100010001000100C65CC85CCA5C0100AE
:1001E0000100010001000100010001000100010007
:1001F00001000100010001000000000000000000FB
:100200000100000001000100010001000100145C78
:1002100001000100010001000100000000000100D8
:1002200000000100010001000000000001000000CA
:10023000000000000100010001000100C45C00009A
:10024000C25CC35C0100000001000100010001006C
:100250000100010001000100010001000100010096
:100260000100010001000100010001000100010086
:100270000100010001000100010001000100010076
:100280000100010001000100010001000100010066
:100290000100010001000100010001000100010056
:1002A0000100010001000100010001000100010046
:1002B0000100010001000100010001000100010036
:1002C000010001000000000000000000010000002B
:1002D0000100010001000100010001000100010016
:1002E0000100010001000000000001000000010009
:1002F00001000100000000000100000000000000FB
:1003000001000100010001000100000001000100E6
:1003100001000000010001000100010001000100D6
:1003200001000100010001000100010001000100C5
:1003300001000100010001000100010001000100B5
:1003400001000100010001000100010001000100A5
:100350000100010001000100010001000100010095
:100360000100010001000100010001000100010085
:100370000100010001000100010001000100010075
:100380000100010001000100010001000100010065
:10039000000000000000000001000000010001005A
:1003A0000100010001000100010001000100010045
:1003B0000100000000000100000001000100010038
:1003C000000000000100000000000000010001002A
:1003D0000100010001000000010001000000000018
:1003E000000000002A2B2800000000000000000090
:1003F0000000000000000029000000002C1E342036
:10040000212224342627252E362D3738271E1F205B
:100410002122232425263333362E37381F040506A0
:100420000708090A0B0C0D0E0F10111213141516E4
:100430001718191A1B1C1D2F3130232D35040506E2
:100440000708090A0B0C0D0E0F10111213141516C4
:100450001718191A1B1C1D2F3130354C00000000D5
:10046000000000000000000000000000000000008C
:10047000000000000000000000000000000000007C
:100480007E0F00D4FFFFFFC70000007800010101CC
:100490000101010101010202020202020202020341
:1004A0000303030303030304040404040404050511
:1004B00005050506060606060707070707080808D4
:1004C00008090909090A0A0A0B0B0B0C0C0C0D0D83
:1004D0000D0E0E0E0F0F0F1010111111121213131B
:1004E0001414151516161717181819191A1A1B1B94
:1004F0001C1D1D1E1E1F20202122222324242526F0
:1005000026272829292A2B2C2D2D2E2F3031323227
:10051000333435363738393A3B3C3D3E3F40414233
:10052000434445464748494A4C4D4E4F5051535419
:10053000555658595A5B5D5E5F61626465666869CD
:100540006B6C6D6F7072737577787A7B7D7E80824D
:10055000838587888A8C8E8F91939596989A9C9E96
:10056000A0A2A3A5A7A9ABADAFB1B3B5B7BABCBEA6
:10057000C0C2C4C6C9CBCDCFD1D4D6D8DBDDDFE273
:10058000E4E7E9EBEEF0F3F5F8FAFDFF22034300B0
:100590005500380030002000760032002000410075
:1005A0004E00530049002000520047004200000066
:1005B0001A03430061007000730055006E006C0068
:1005C0006F0063006B006500640000000403090411
:1005D00009025B00030100A0FA0904000001030105
:1005E00001000921110100012240000705810308D3
:1005F000000A0904010002030000000921110100A2
:1006000001222200070582032000010705030320C1
:10061000000109040200010300000009211101008A
:1006200001226D000705840320000A120110010059
:10063000000008554382000100010200010660FF2E
:100640000961A1010962150026FF00952075088146
:10065000020963150026FF00952075089102C00568
:10066000010980A101850319012AB700150126B7E8
:1006700000950175108100C0050C0901A1018504D8
:1006800019012AA002150126A0029501751081000A
:10069000C005010906A1018505050719E029E7152F
:1006A0000025019508750181020507190029EF153C
:1006B00000250195F07501810205081901290595AC
:1006C0000575019102950175039101C005010906A7
:1006D000A101050719E029E7150025019508750115
:1006E00081029501750881010507190029FF150090
:1006F00026FF009506750881000508190129059552
:100700000575019102950175039101C011241FBE69
:10071000CFEFDAE0DEBFCDBF04B603FE27C0809185
:10072000C0059091C105A091C205B091C305873065
:10073000904BA740B04BD1F41092C0051092C10568
:100740001092C2051092C30514BE84B7877F84BF80
:100750000FB6F894A895809160008861809360003E
:10076000109260000FBEE0E0F8E3099513E0A0E00E
:10077000B1E0E0E5F7E602C005900D92AE31B107B9
:10078000D9F725E0AEE1B3E001C01D92A03CB2076D
:10079000E1F70E94122C0C9432330C9400006E9AF4
:1007A0000C94D7070E94951C81FF07C02FEF4FEFD5
:1007B0006FEF8EE390E00E942D0D0E94951C82FF4A
:1007C00007C02FEF4FEF6FEF8EE090E00C942D0DF0
:1007D000089581E0089581E008950C94EB03089555
:1007E0000C94EF031F93CF93DF9300D000D00F92B0
:1007F000CDB7DEB749835A836B8330917B03898100
:100800009A8131111DC06623B9F02223A9F00E94FC
:100810008926182F682F89819A810E94352669813F
:100820007A81812F0F900F900F900F900F90DF9192
:10083000CF911F910C94B0190E946126182FEFCF11
:100840000E94892669817A81EDCFFC01262F4081A3
:1008500051816281738184810C94F203CF93DF9381
:10086000EC0160E00E942504BE01DF91CF910C9461
:10087000F0038F929F92AF92BF92CF92DF92EF924E
:10088000FF920F931F936B017C0181E090E0A0E049
:10089000B0E04C015D0104C0880C991CAA1CBB1C73
:1008A0004A95D2F7B501A4014C015D0104C0880C42
:1008B000991CAA1CBB1C2A95D2F7482959296A29D8
:1008C0007B2904C0880F991FAA1FBB1F0A95D2F766
:1008D0008A019B010C211D212E213F2104171507A0
:1008E0002607370789F48C299D29AE29BF29BC0129
:1008F000CD011F910F91FF90EF90DF90CF90BF90AF
:10090000AF909F908F90089580959095A095B09509
:100910008C219D21AE21BF21EACF0F93382F262FA6
:100920006091F5037091F6038091F7039091F803BD
:10093000042F432F0E9439040F910C9473250E94B9
:10094000532A0E94D527811102C00E9479280E9453
:10095000BF150C94CF030C94D90708950E949F21D2
:100960000E94AD042FEF84E39CE021508040904032
:10097000E1F700C000000C94282A0F931F93CF9337
:10098000DF93EC0161E00E9425048C01BE010E940E
:10099000F717882389F1BE01C8010E94ED0388235F
:1009A00059F1BE01C8010E94E51A882329F1BE0150
:1009B000C8010E94371B8823F9F0BE01C8010E94BC
:1009C0005A1C8823C9F0BE01C8010E94161788234B
:1009D00099F08A81882339F001158CE5180751F0C8
:1009E0000E3D1C4579F0CE01DF91CF911F910F9103
:1009F0000C94E9030E94AE0480E0DF91CF911F9137
:100A00000F9108950E947928F7CFDF92EF92FF921D
:100A10000F931F93CF93DF93E82FF0E0E452FC4F46
:100A2000D490282F26952695269530E0F901E45894
:100A3000FB4F0491877010E0082E02C015950795B2
:100A40000A94E2F701701127F901E459FB4FE49091
:100A5000F12C082E02C0F594E7940A94E2F791E095
:100A6000E922FF24F901E45AFB4FC491D0E002C00F
:100A7000D595C7958A95E2F7C170DD270115110557
:100A800019F081EE0E943D1EE114F10419F086EE8A
:100A90000E943D1E8D2D0E942D1FEF2819F086EE1D
:100AA0000E94C71E012B19F081EE0E94C71ECD2B9C
:100AB00051F08CE2DF91CF911F910F91FF90EF9059
:100AC000DF900C942D1FDF91CF911F910F91FF901C
:100AD000EF90DF900895EF92FF920F931F93CF93C3
:100AE000DF93EC01162F0AE08881882309F454C0B3
:100AF000813009F04EC08981813099F47E0122E075
:100B0000E20EF11C8A810E942D1FE7012196812FA0
:100B1000815050F3EFE9FFE03197F1F700C000009A
:100B2000F7CF823041F47E0182E0E80EF11C8A8129
:100B30000E943D1EEACF833041F47E01E2E0EE0EDA
:100B4000F11C8A810E94C71EE0CF843011F02196EB
:100B5000DDCF2A81229690E080E0AE014F5F5F4FAB
:100B60002053330B2A30310548F0019778F2EFE932
:100B7000FFE03197F1F700C00000F7CF089FB00108
:100B8000099F700D1124C901860F971F2981EA0161
:100B9000E4CF0E940505BACFDF91CF911F910F914D
:100BA000FF90EF90089560E00C946B0508950C940D
:100BB000D60581E008950C94D905CF93C82F0E94E3
:100BC000D7058C2FCF910C94DB0590E080E0089541
:100BD0000895FC01EE0FFF1FE457FB4F85919491A0
:100BE0000895CF93DF930E94B0190E94FD06EC0197
:100BF000811520E5920708F041C0811530E4930784
:100C000008F0B4C0803E910518F5803C910508F0CD
:100C10009DC0883A910570F4853A910508F08EC020
:100C200081309105F9F00097E9F00497D8F4D0E00D
:100C3000C0E018C08F3B9105D0F7C85AD0E0CC0F68
:100C4000DD1FCB57DD4F0990D881C02DD4640AC079
:100C50008115904258F4C11581E0D80718F4C83EB8
:100C6000D10528F7CE01DF91CF910895C11590E30A
:100C7000D90708F071C0CE019F706AC0811525E5C3
:100C8000920758F5811534E5930708F09EC0811549
:100C900042E5940750F4C11581E5D80708F469C00E
:100CA000DC2FCC27C16FD06ADDCF982F9695969513
:100CB0009E0123703327C115D34508F077C0C1E0EA
:100CC000D0E002C0CC0FDD1F2A95E2F720E2929F10
:100CD000C0011124C82BD92B67C0C11589E5D807DD
:100CE000A8F4C11598E5D90708F074C0C11526E528
:100CF000D20708F09CCF8C2F0E949407C82FD0E019
:100D0000DC2FCC27CC27DF71D062ACCFC1153AE500
:100D1000D30708F464C0CE0190568115904208F0C4
:100D200086CF8D2F8F710E94940790E0982F88278F
:100D300088279F719C012C2BE901E6CFC55AD0E092
:100D4000CD54DD4FC881D0E0D0648CCF805C910958
:100D50000E94E905EC0186CFCE019927D3FF03C09D
:100D6000EC01D86C7FCFEC01D06C7CCFDF70D06A07
:100D700079CFCE01E4E096958795EA95E1F7837007
:100D80002C2F26952695237090E2299F90011124FF
:100D9000382B8C2F8370C1E0D0E002C0CC0FDD1F58
:100DA0008A95E2F7C22BD32BDC685CCFC1E0D0E0A0
:100DB00002C0CC0FDD1F2A95E2F730E2939FC001FD
:100DC0001124C82BD92BDA684DCFD82FCC27C46F6C
:100DD000D06A48CFDC2FCC27C06FD06A43CF8C2F8E
:100DE0008F700E94940734E0D695C7953A95E1F745
:100DF000CF709C2FEC01D06935CF82389105B1F1CD
:100E0000B0F48133910509F475C048F48932910535
:100E100009F469C08A32910509F473C008958533D5
:100E2000910509F459C08933910501F10895833E74
:100E30009105A9F138F4803E9105F9F0823E9105C3
:100E400049F10895863E9105A9F1873E9105C9F1C2
:100E5000843E910519F52091B20521FF1FC08091B4
:100E6000B10584FD14C087EE90E008952091B1058E
:100E70002370A1F080EE90E008952091B10520FD4F
:100E800047C03091B20530FF09C024FF44C090E054
:100E900080E004C02091B10522FDF7CF0895209194
:100EA000B10522FD3BC03091B20530FDE3CF24FFF8
:100EB000F5CFEDCF2091B10523FFF0CF24FDE7CF93
:100EC000D2CF2091B10523FD2CC03091B20531FF66
:100ED000EECF84EE90E008952091B10525FFDECF9E
:100EE00089E290E008952091B10525FFD7CF85E3F1
:100EF00090E008952091B10526FFD0CF8AE290E0DE
:100F000008952091B10526FFC9CF81E390E00895AF
:100F100089E390E0089583EE90E0089582EE90E0FA
:100F2000089586EE90E008959091B10592FF06C075
:100F3000282F28712830F9F4877F846093FF06C03A
:100F4000282F28712831F1F4877E84612091B20521
:100F500020FF06C0382F38713830D9F4877F816080
:100F600021FF06C0282F28712831D1F4877E8161A6
:100F700094FD877E0895282F24712430F9F68B7F05
:100F80008860DCCF282F2471243101F78B7E8861A3
:100F9000DDCF382F3171313019F78E7F8860E0CF87
:100FA000282F2171213121F78E7E8861E1CF0895AC
:100FB00008950C94D80794E0899FF0011124E25A17
:100FC000FB4F60817181828193810895089580EA49
:100FD0008A95F1F7089500C008950C94E707F894F6
:100FE000E82FE295EF70F0E031A1282F2F7081E01B
:100FF00090E001C0880F2A95EAF7982F90959323E7
:1010000091A392A1892B82A3789408950F931F93A3
:10101000CF93DF9383E90E94EF0782E90E94EF07F5
:1010200087E30E94EF0781EF0E94EF0787E60E94A7
:10103000EF0785E90E94EF07C6EBD2E007EC12E06C
:1010400089910E94EF070C171D07D1F7E6E4F4E041
:10105000AEE5B4E011921192119211921D921D927F
:101060001D921D9284E0EE35F807A1F786E00E94FC
:10107000E208DF91CF911F910F910C949F044F9242
:101080005F926F927F928F929F92AF92BF92CF9218
:10109000DF92EF92FF920F931F93CF93DF9337EC82
:1010A000A32E32E0B32E06E414E0D0E0C0E08824A2
:1010B0008394912CF50181915F01F894E82FE295DA
:1010C000EF70F0E021A18F70240102C0440C551C88
:1010D0008A95E2F7C201922F982B91A392A1809555
:1010E000892382A378940E94EB07A6EBB2E090E0FC
:1010F00080E0C12CD12C76014D91E42FE295EF7068
:10110000F0E020A130E04F7002C0359527954A9558
:10111000E2F720FD51C0412C512C32014394082E9E
:1011200004C0440C551C661C771C0A94D2F7B3010A
:10113000A201C42AD52AE62AF72A0196813191050F
:10114000D9F6F501319780810E94EF07D53011F073
:101150000E94ED07F80180819181A281B381C816B8
:10116000D906EA06FB0661F1C082D182E282F382EF
:1011700081E0C82BDF5F0C5F1F4FD63009F09ACF9C
:101180002C2F46E06EE574E086E494E00E94E308CC
:101190000E94AB048C2FDF91CF911F910F91FF9094
:1011A000EF90DF90CF90BF90AF909F908F907F9007
:1011B0006F905F904F90089540E050E0BA01B9CF32
:1011C00080E0D7CF0895FF920F931F93CF93DF93C3
:1011D000F82ED92F8B01C42F222349F081E0809370
:1011E00022030E94C12990932103809320038091C0
:1011F0002203882399F080912003909121030E947B
:10120000D929069758F0EF2DFD2FD80190E080E006
:10121000D0E08C179D0744F010922203DF91CF910C
:101220001F910F91FF90089501911191219131919A
:101230000D931D932D933D930196EBCFEF92FF926B
:101240000F931F93CF93DF93EB01E82FD11110C0C1
:10125000442321F0F0E0E457FB4FE4916E2F7E2F02
:101260008E2FDF91CF911F910F91FF90EF900895F6
:101270000D2F10E0282F30E0442329F024573B4F56
:10128000F901249130E0F6E0CF9FC0011124EFEF87
:10129000F0E0BF010E94E331AB018C2F90E0880F9A
:1012A000991FA5E5A49FB001A59F700D1124861B71
:1012B000970B982F990F980FBF01601B710B629FBE
:1012C000D001639FB00D729FB00D11248B2F9D9F95
:1012D000B0011124672F7727EF01C61BD70BBE0182
:1012E000629FE001639FD00D729FD00D11247F019A
:1012F000E91AF108E09EB001E19E700DF09E700DBC
:101300001124672F7727E61BF70BE29F8001E39FED
:10131000100DF29F100D1124E12F722F4230510554
:1013200099F048F44115510569F04130510581F0BB
:10133000EB2F8D2F07C04430510569F080F0463007
:101340005105B1F76E2F8DCFE22F7B2F812FFACF72
:10135000E22F7D2FF7CFEB2F822F712FF3CF7B2F33
:10136000822FED2FEFCF41E00C941E0930E020E0FA
:10137000869F212D969F200D311D1124C9010895AE
:10138000AC018230910508F408959FEF413E8EE153
:10139000580740F49A0195E0369527959A95E1F71C
:1013A00098E0920F61E0E62FE90FFF27FF1F9F01F2
:1013B00035952795822F229FF001239FF00DF00D88
:1013C00011244E175F0738F49FEF920F961758F7C6
:1013D0008FEF860F08952F3FE9F361E0620FF6CF9C
:1013E000E82F86FDE0952E2F2F7086FD2F5FE69566
:1013F000E695E695E670F0E0E353FD4F9181929F0C
:10140000902D212D112492959F702295207F922B53
:101410002081920F87FD919580E8890F0895E42F30
:10142000F0E0EE0FFF1FE659FE4F408134EE439F80
:10143000412D1124E72FF0E050E0445E5F4FDA01C8
:10144000A21BB1099D01B7FF03C031952195310958
:1014500093E0220F331F9A95E1F7AF01421B530B24
:101460009A0157FD20E0279F212D1124722F089506
:10147000E42FF0E0EE0FFF1FE659FE4F408134EEFF
:10148000439F412D1124E82FF0E050E0445E5F4F70
:10149000DA01A21BB1099D01B7FF03C03195219567
:1014A000310993E0220F331F9A95E1F7AF01421BF8
:1014B000530B9A0157FD20E0582F259F212D112411
:1014C000822F0895622F0895E42FF0E0EE0FFF1FA2
:1014D000E659FE4F6081621B0895E42FF0E0EE0FA5
:1014E000FF1FE559FE4F6081621B0895322F50E0C7
:1014F000FA01EE0FFF1FE559FE4F9081905297FDC4
:101500009195440F551FFA01E659FE4F2081231B88
:10151000330B290F311D97FD3A95620F0895EF9215
:101520000F93972F23E0029FB001112475956795C3
:101530006E0D792F0F91EF9008950F93CF93DF9356
:10154000D72FC82F47FD419588E390E0841B910970
:1015500047FD9395889FB001899F700D700D1124F0
:10156000229FC001239F900D900D1124860F971F7D
:101570000E94C009982F990F890F682F600F7D2F47
:101580008C2FDF91CF910F9108950F931F93522FBE
:1015900010E0F801EE0FFF1FE559FE4FA081A052A9
:1015A000BB0B9D015203F001539FF00D1124000F5E
:1015B000111FD801A659BE4F0C910057110B4003C3
:1015C0009001419F300D11242E0F3F1F37FF02C0A5
:1015D00021583F4F220F232F221F330B620F1F91E1
:1015E0000F9108950F931F93522F10E0F801EE0F03
:1015F000FF1FE559FE4FA081A052BB0B9D01520376
:10160000F001539FF00D1124000F111FD801A659AE
:10161000BE4F0C910057110B40039001419F300DBC
:1016200011242E0F3F1F37FF02C0215C3F4F96E071
:10163000359527959A95E1F7620F1F910F910895BF
:101640000F931F9310E0F801EE0FFF1FE659FE4FB6
:101650009081905797FD9195000F111FF801E55962
:10166000FE4F00810052110B2003F001219FF00D6D
:10167000112408E310E0091B110997FD139540039D
:101680009001419F300D1124E20FF31F9F01220FA3
:10169000331F2E0F3F1F37FF02C021583F4F220F2D
:1016A000232F221F330B620F1F910F910895409536
:1016B000282F429F412D1124842F089522E8241BB6
:1016C00008F420E0620F0895EF92FF920F939701C4
:1016D00095E0099F200D311D11242F3F310519F090
:1016E00010F02FEF30E02095382F320F08F43FEF45
:1016F000832F0F91FF90EF900895EF92FF920F9339
:101700001F930E0D1F2D111DF90137FF03C0F19519
:10171000E195F10924E0EE0FFF1F2A95E1F7EF3F75
:10172000F10519F014F0EFEFF0E09A0157FF03C054
:1017300031952195310994E0220F331F9A95E1F7F5
:101740002E173F070CF4F901E00FF11FEF3FF105F1
:1017500019F010F0EFEFF0E0E095282F3E2F230F67
:1017600008F42FEF822F1F910F91FF90EF900895B3
:10177000EF92FF920F93972F093438F4B701601B53
:1017800071096F3F710519F010F06FEF70E0485F5D
:101790005F4F4131510540F0A901485F5F4F413132
:1017A000510510F06FEF70E06095482F460F08F478
:1017B0004FEF842F37FF02C02D5F3F4F35952795A0
:1017C0003595279560917704620F792F0F91FF90DF
:1017D000EF900895EF92FF920F939701201B31092C
:1017E0002F3F310519F010F02FEF30E0322F3095F8
:1017F000482F430F08F44FEF842F620F0F91FF9093
:10180000EF900895EF92FF920F939701201B3109FB
:101810002F3F310519F010F02FEF30E02095382FD1
:10182000320F08F43FEF832F0F91FF90EF90089550
:10183000FC019B01009729F480E077FF2BC080E832
:101840000895AC0197FF04C044275527481B590B46
:10185000B901640F751F37FD10C0241B350BC9017A
:10186000A5E0880F991FAA95E1F70E94F73180E261
:10187000861BF7FF0FC081950895CB0165E0880FA7
:10188000991F6A95E1F7BA01621B730B0E94F73149
:1018900080E6EECF08950F931F93CF93DF93D62F5B
:1018A000172FC82FC901272F201B022FBA010E9412
:1018B000180C982F990F990F782F791B700F719F23
:1018C000712D11246D2F8C2FDF91CF911F910F91CE
:1018D00008950F931F93CF93DF93D62FC72F182F01
:1018E000C901212F201B022FBA010E94180C982F2A
:1018F000990F990F891B800F282F219F212D1124CB
:10190000822F6D2F7C2FDF91CF911F910F91089522
:10191000EF920F931F93CF93DF93D62F172FC82FDC
:10192000C9010E19070FBA010E94180C702F781BFD
:10193000719F712D11246D2F8C2FDF91CF911F91ED
:101940000F91EF900895EF920F931F93CF93DF9332
:10195000D62FC72F182FC9010E19010FBA010E94E7
:10196000180C081B202F219F212D1124822F6D2F51
:101970007C2FDF91CF911F910F91EF9008950F93DE
:10198000CF93DF93D72FC82FC901BA010E94180C3B
:10199000682F600F7D2F8C2FDF91CF910F910895CD
:1019A000EF920F93CF93DF93D72FC82FC9010E1952
:1019B000BA010E94180C602F681B7D2F8C2FDF91BD
:1019C000CF910F91EF9008950C94B30945E050E04A
:1019D0006CE170E086E794E00C94BE3245E050E0A4
:1019E0006CE170E086E794E00C94DC32E6E7F4E02A
:1019F00085E380838091820290918302A09184028A
:101A000081839283A3838FE784830C94EE0C80E020
:101A100008950F931F93CF93DF93C82FD62F8A017A
:101A20000E94070D91E1C99FB00111246C5F7E4FA8
:101A30006D0F711DFB0190819F3F29F0F801E80FA8
:101A4000F11D90838F5FDF91CF911F910F910895CA
:101A5000E091DB02F091DC020994E091D702F09171
:101A6000D80209945F926F927F928F929F92AF9269
:101A7000BF92CF92DF92EF92FF920F931F93CF937B
:101A8000DF935C014B01FC01C08182E1C89FC02D46
:101A9000112412E11C0FF12E183510F037E5F32E4A
:101AA00060917A04669580917B0490917C040E94F9
:101AB000B609582ED0E0CF15A0F081E0173508F018
:101AC00080E0DF91CF911F910F91FF90EF90DF9019
:101AD000CF90BF90AF909F908F907F906F905F90CE
:101AE0000895FE01E85EFD4F8081F5019181892313
:101AF000C9F1CE01880F991F8C5F9E4FFC01EA59F6
:101B0000FF4F2081422F4057550B6A0189599F4F43
:101B1000FC018081282F2052330B3901449F900112
:101B2000459F300D300D1124669CC001679C900DBF
:101B3000900D1124820F931F0E94C009082F6091FD
:101B400077047091780480917904E52C9301A601C3
:101B5000F40109950E94E40C462F282F672FCE012F
:101B60000E942D0D2196A7CF68E87CE00C94320DE1
:101B700063EA7CE00C94320D6FE87AE00C94320D4D
:101B800060ED7CE00C94320DAF92BF92CF92DF9269
:101B9000EF92FF920F931F93CF93DF936C017B0122
:101BA000FC01C08182E1C89FC02D112412E11C0FED
:101BB000B12E183510F037E5B32E60917A04669592
:101BC00080917B0490917C040E94B609A82ED0E0FD
:101BD000CB1578F081E0173508F080E0DF91CF91E8
:101BE0001F910F91FF90EF90DF90CF90BF90AF903B
:101BF0000895FE01E85EFD4F8081F6019181892301
:101C000011F1CE01880F991F8C5F9E4FFC01E9599D
:101C1000FF4F20812052330B8A599F4FFC01408196
:101C20004057550B60917704709178048091790446
:101C30000A2DF70109950E94E40C462F282F672FE3
:101C4000CE010E942D0D2196C3CF6BE47CE00C9455
:101C5000C40D69E67CE00C94C40D6DE97AE00C9447
:101C6000C40D6FEB7CE00C94C40DBF92CF92DF9259
:101C7000EF92FF920F931F93CF93DF936C017B0141
:101C8000FC01C08182E1C89FC02D112412E11C0F0C
:101C9000012F183508F007E560917A04669566957E
:101CA00080917B0490917C040E94B609B82ED0E00C
:101CB000C01770F081E0173508F080E0DF91CF9118
:101CC0001F910F91FF90EF90DF90CF90BF900895FC
:101CD000FE01E85EFD4F8081F6019181892391F03C
:101CE0006091770470917804809179042B2D4C2FAA
:101CF000F70109950E94E40C462F282F672FCE018B
:101D00000E942D0D2196D4CF6FE07AE00C94350E11
:101D100068E37AE00C94350E62E67AE00C94350EB6
:101D200064E67AE00C94350E6DE67AE00C94350E9C
:101D300066E77AE00C94350E7F928F929F92AF9275
:101D4000BF92CF92DF92EF92FF920F931F93CF93A8
:101D5000DF935C016B01FC01C08182E1C89FC02D53
:101D6000112412E11C0F912E183510F037E5932E37
:101D700060917A046695669580917B0490917C04CD
:101D80000E94B609F82E80E48F0D0E94F00990E8B9
:101D9000892E880E8F2D0E94F00920E8722E780E71
:101DA000D0E0C91590F081E0173508F080E0DF91B0
:101DB000CF911F910F91FF90EF90DF90CF90BF9048
:101DC000AF909F908F907F900895FE01E85EFD4F49
:101DD0008081F50191818923A1F060917704709150
:101DE000780480917904EF2C0C2F272D482DF601D3
:101DF00009950E94E40C462F282F672FCE010E94E0
:101E00002D0D2196CECF65EC7AE00C949C0E62EFFE
:101E10007AE00C949C0E60E27BE00C949C0EAF92F6
:101E2000BF92CF92DF92EF92FF920F931F93CF93C7
:101E3000DF937C016B01FC01C08182E1C89FC02D52
:101E4000112422E1B22EBC0EAB2CF7E5FB1510F4E9
:101E500097E5A92E20917A0430E050E040E06FEF42
:101E60007FEF80E090E00E940B328901D0E02C2FC0
:101E7000CA1580F081E0F6E5FB1508F480E0DF91FB
:101E8000CF911F910F91FF90EF90DF90CF90BF9077
:101E9000AF900895FE01E85EFD4F8081F7019181CA
:101EA0008923F1F040917F044150042E000C550B22
:101EB00047FF18C0C80160917A040E94B609AC01BE
:101EC000609177047091780480917904F601099506
:101ED0000E94E40C462F282F672FCE010E942D0D63
:101EE0002196C5CFFA01E158FB4F818982130AC0C0
:101EF000FA01EE0FFF1FE158FB4F818D928D801785
:101F00009107C8F241505109D3CF67E57BE00C94AB
:101F10000F0F6EE57BE00C940F0F2F923F924F92C4
:101F20005F926F927F928F929F92AF92BF92CF9269
:101F3000DF92EF92FF920F931F93CF93DF93CDB772
:101F4000DEB72B970FB6F894DEBF0FBECDBF8C83E4
:101F50002B015F834E83FB01F08182E1F89F802D8E
:101F6000112489838E5E8A838B83883510F027E560
:101F70002B8330917F043D839981892F90E09B874B
:101F80008A87880F991FFC01E659FE4F6F01FC817B
:101F90008F2F90E09C012F5F3F4F39872887EB817F
:101FA000FA85FE17F0F081E02A81273508F080E0FD
:101FB0002B960FB6F894DEBF0FBECDBFDF91CF9149
:101FC0001F910F91FF90EF90DF90CF90BF90AF9057
:101FD0009F908F907F906F905F904F903F902F9049
:101FE0000895EA85FB85E85EFD4F8081F2019181CD
:101FF000892301F120907704309078042885398571
:1020000021583B4F39013C81398310E029813D81C2
:102010002317C8F020917904129F112D1124B101CA
:10202000812F0E94E40C462F282F672F8A859B85DD
:102030000E942D0D8A859B8501969B878A8792E059
:10204000C90ED11CACCFF30181913F01F601A080F4
:10205000A81ABB088180F3018781881A9908AA9C75
:102060009001AB9C300D300D1124889CC001899CDF
:10207000900D900D1124820F931F0E94C009082F0C
:10208000F301EE0FFF1FEF57F44060917A0485894A
:1020900096890E94B6097C019401A501B101812FA6
:1020A000EE81FF8109951B01F981FF5FF983182FEC
:1020B000ADCF20917F0431E0231B08F420E044E6FB
:1020C0005BE0BC01822F0C948D0F44E65BE0BC0109
:1020D00080E00C948D0F20917F0431E0231B08F4E5
:1020E00020E04DE75BE0BC01822F0C948D0F4DE7A3
:1020F0005BE0BC0180E00C948D0F20917F0431E007
:10210000231B08F420E048EB5BE0BC01822F0C9419
:102110008D0F48EB5BE0BC0180E00C948D0F2091AB
:102120007F0431E0231B08F420E04AEE5BE0BC01B1
:10213000822F0C948D0F4AEE5BE0BC0180E00C9482
:102140008D0F20917F0431E0231B08F420E042E052
:102150005CE0BC01822F0C948D0F42E05CE0BC017E
:1021600080E00C948D0FBF92CF92DF92EF92FF929E
:102170000F931F93CF93DF937C01FC01C08182E119
:10218000C89FC02D112412E11C0F012F183508F033
:1021900007E56091770470917804809179040E943A
:1021A000E40CD62EC72EB82ED0E0C01770F081E018
:1021B000173508F080E0DF91CF911F910F91FF90CC
:1021C000EF90DF90CF90BF900895FE01E85EFD4F45
:1021D0008081F7019181892331F02B2D4D2D6C2DBC
:1021E000CE010E942D0D2196E0CF8F929F92AF924B
:1021F000BF92CF92DF92EF92FF920F931F93CF93F4
:10220000DF937C01FC01C08182E1C89FC02D1124B5
:1022100012E11C0F012F183508F007E5C090780473
:10222000D0907904D09177046D2F7C2D8D2D0E9454
:10223000E40CB62EA72E982E60917A046D0F7C2D9B
:102240008D2D0E94E40CD62EC72E882ED0E0C0170C
:1022500088F081E0173508F080E0DF91CF911F9181
:102260000F91FF90EF90DF90CF90BF90AF909F9035
:102270008F900895FE01E85EFD4F9081F701818106
:10228000892359F0282D4D2D6C2D90FD03C0292D4B
:102290004B2D6A2DCE010E942D0D2196D8CFBF92D5
:1022A000CF92DF92EF92FF920F931F93CF93DF9322
:1022B0007C01FC01C08182E1C89FC02D112412E184
:1022C0001C0FD12E183510F097E5D92EC090780448
:1022D000B090790420917A0400E4029F012D11242A
:1022E000D0E0CD1570F081E0173508F080E0DF9187
:1022F000CF911F910F91FF90EF90DF90CF90BF9003
:102300000895FE01E85EFD4F8081F70191818923E8
:10231000B9F0FE01EE0FFF1FE559FE4F8081829557
:102320008F7060917704809F600D11247C2D8B2D20
:102330000E94E40C462F282F672FCE010E942D0DFE
:102340002196CFCFBF92CF92DF92EF92FF920F9361
:102350001F93CF93DF938C01FC01C08182E1C89F62
:10236000C02D112452E1F52EFC0EDF2CF7E5FF15F0
:1023700010F447E5D42EC0907804B09079042091F1
:102380007A0430E4E32E3E2D329F312D1124E32ECA
:10239000D0E0CD1578F081E036E53F1508F480E017
:1023A000DF91CF911F910F91FF90EF90DF90CF9031
:1023B000BF900895FE01E85EFD4F8081F801918194
:1023C0008923D9F0FE01EE0FFF1FE659FE4F608111
:1023D000E69EB001112495E0759567959A95E1F711
:1023E00080917704680F7C2D8B2D0E94E40C462F82
:1023F000282F672FCE010E942D0D2196CACFBF92A4
:10240000CF92DF92EF92FF920F931F93CF93DF93C0
:102410008C01FC01C08182E1C89FC02D112492E192
:10242000F92EFC0EEF2CF7E5FF1510F487E5E82EEA
:10243000D0907704D0917804C090790460917A04A8
:1024400066956695669580917B0490917C040E94C8
:10245000B6090E94F009805887FD8195880F282FC2
:102460003C2D239F212D1124822F6D2D7D2F0E9425
:10247000E40CD62EC72EB82ED0E0CE1578F081E031
:1024800026E52F1508F480E0DF91CF911F910F9181
:10249000FF90EF90DF90CF90BF900895FE01E85E2F
:1024A000FD4F8081F8019181892331F02B2D4D2D35
:1024B0006C2DCE010E942D0D2196DFCFDF92EF9281
:1024C000FF920F931F93CF93DF938C01FC01E85E83
:1024D000FD4F8081682381F1D0907804D0917904F8
:1024E000C0917704EC2EF12C0E94A532282FC70151
:1024F0008C549F4F68E671E00E94F7318E199F0956
:1025000097FD0396959587959595879523706C2FE4
:10251000289F600D11247D2D8D2F0E94E40C462FE5
:10252000282F672FC801DF91CF911F910F91FF9046
:10253000EF90DF900C942D0DDF91CF911F910F91B3
:10254000FF90EF90DF900895DF92EF92FF920F934C
:102550001F93CF93DF938C01FC01C281C11125C071
:1025600060917A0420E1620F08F46FEF80917B04A0
:1025700090917C040E94B6096AE070E00E94E33109
:10258000892B51F40E94A53267E570E00E94F73173
:10259000F80161810E945E128C2FDF91CF911F9113
:1025A0000F91FF90EF90DF900895C08182E1C89F66
:1025B000C02D112482E1D82EDC0E8D2DF7E5FD15FE
:1025C00008F487E5D0E0E82EF12CCE15DF0534F0D5
:1025D000C1E0F6E5FD1500F7C0E0DECFF80161814E
:1025E000CE010E945E122196F0CF1F93CF93DF930E
:1025F000EC01FC01E85EFD4F80816823A1F00E94A0
:10260000A532182F0E94A532612F782F809179046E
:102610000E94E40C462F282F672FCE01DF91CF9127
:102620001F910C942D0DDF91CF911F910895DF9292
:10263000EF92FF920F931F93CF93DF938C01FC01D6
:10264000C281C11125C060917A0420E1620F08F4B3
:102650006FEF80917B0490917C040E94B60965E045
:1026600070E00E94E331892B51F40E94A53267E5A6
:1026700070E00E94F731F80161810E94F5128C2F01
:10268000DF91CF911F910F91FF90EF90DF90089510
:10269000C08182E1C89FC02D112482E1D82EDC0EBA
:1026A0008D2DF7E5FD1508F487E5D0E0E82EF12C37
:1026B000CE15DF0534F0C1E0F6E5FD1500F7C0E00A
:1026C000DECFF8016181CE010E94F5122196F0CF94
:1026D000E091D902F091DA020994CF92DF92EF9261
:1026E000FF920F931F93CF93DF93CDB7DEB7289759
:1026F0000FB6F894DEBF0FBECDBF182F062FF42EF5
:102700000E94131D882309F44BC0FF2009F457C011
:10271000AE014F5F5F4F602F812F0E94090DF82E91
:10272000E09023030F2D10E0C8018E0D911D099735
:1027300064F188E090E06C01C01AD10AB8016C5DC8
:102740007C4FA60184E293E00E94B532B801645D3B
:102750007C4FA6018CE293E00E94B532A601440FA3
:10276000551FB801660F771F645C7C4F8CE393E0C4
:102770000E94B532B8016C5C7C4FA60184E393E003
:102780000E94B532EA94E092230310912303DE0104
:10279000119640E0842F810FF41213C0809323031D
:1027A00028960FB6F894DEBF0FBECDBFDF91CF9154
:1027B0001F910F91FF90EF90DF90CF900895F12C33
:1027C000AFCF5D91252F30E090E0BC016D5D7C4F77
:1027D000F901EE0FFF1FE659FE4F0081FB01018357
:1027E000220F331FF901E559FE4F2081FB0121879C
:1027F000518B880F991FFC01ED5DFC4F128E118EDD
:102800004F5FC8CF08950E94D2030C94021408951C
:102810000895CF93DF93FC01C08182E1C89FC02D52
:102820001124DEEEDC0FC83508F0C7E56C2F8D2FC4
:102830000E9407146C2F8D2FDF91CF910C940814F8
:102840004F925F926F927F928F929F92AF92BF92C0
:10285000CF92DF92EF92FF92CF9360914C037091F1
:102860004D0380914E0390914F030E94E8296B0124
:102870007C010E94CD294B015C0180924C03909217
:102880004D03A0924E03B0924F03A0912303E3E2C5
:10289000F3E08A2F90E04FEF5FEF60E070E04C19BB
:1028A0005D096E097F09A91325C0809323038091D8
:1028B0007604C82FC37019F0C82FC695C69590919D
:1028C0006F02913009F440C0992339F1923009F434
:1028D0003AC1933009F440C1CF91FF90EF90DF905F
:1028E000CF90BF90AF909F908F907F906F905F90B0
:1028F0004F900895218D328D2901712C612C441542
:1029000055056605770520F481509F5F3296CBCF41
:102910002C0D3D1D328F218FF8CF109270028092C6
:102920007B0490927C04A0927D04B0927E0489E2A4
:10293000E3E2F3E0AFE7B4E001900D928A95E1F7AE
:1029400081E080936F02C8CF90917302C91315C0C4
:10295000982F93702091740230E081E09217130653
:1029600009F480E0817080937202C53278F4EC2F14
:10297000F0E0EC5CFC4C0C942A3281E0F3CF88232D
:1029800059F040E060E080E00E94681380E004C0FD
:1029900080E792E00E94B310909170029F5F909345
:1029A00070028111CCC082E080936F02809172022C
:1029B0008111C5C0CC2309F4CDC00E94031480E767
:1029C00092E0CF91FF90EF90DF90CF90BF90AF90CB
:1029D0009F908F907F906F905F904F900C94091410
:1029E00080E792E00E94F510D7CF80E792E00E9446
:1029F0004F11D2CF80E792E00E94A211CDCF80E7A5
:102A000092E00E94FF11C8CF80E792E00E94840EFE
:102A1000C3CF80E792E00E94880EBECF80E792E0AD
:102A20000E94250EB9CF80E792E00E94290EB4CF14
:102A300080E792E00E94B40DAFCF80E792E00E9461
:102A4000B80DAACF80E792E00E948C0EA5CF80E758
:102A500092E00E94900EA0CF80E792E00E94940E38
:102A60009BCF80E792E00E94980E96CF80E792E09D
:102A70000E94BC0D91CF80E792E00E942D0E8CCF7A
:102A800080E792E00E94310E87CF80E792E00E94BB
:102A9000C00D82CF80E792E00E94030F7DCF80E7D8
:102AA00092E00E94070F78CF80E792E00E940B0F20
:102AB00073CF80E792E00E94A4126ECF80E792E08D
:102AC0000E94171369CF80E792E00E94850F64CFC0
:102AD00080E792E00E94890F5FCF80E792E00E943A
:102AE00059105ACF80E792E00E94651055CF80E7D9
:102AF00092E00E946B1050CF80E792E00E94771026
:102B00004BCF80E792E00E947D1046CF80E792E0B5
:102B10000E94891041CF80E792E00E948F103CCF45
:102B200080E792E00E949B1037CF80E792E00E94FE
:102B3000A11032CF80E792E00E94AD102DCFCC23C0
:102B400009F4CACE3ACFC0937302837080937402A3
:102B50000E94280D83E0F5CE60917B0470917C0487
:102B600080917D0490917E040E94E8296031710576
:102B70008105910508F4B0CE10926F02ADCEE091C0
:102B8000D502F091D602099510927F048FEF9FEF46
:102B9000909399048093980490939B0480939A0453
:102BA00090939D0480939C0490939F0480939E0433
:102BB0009093A1048093A0049093A3048093A20413
:102BC0009093A5048093A4049093A7048093A604F3
:102BD0001092230390933D0380933C0390933F0313
:102BE00080933E039093410380934003909343036B
:102BF000809342039093450380934403909347034B
:102C000080934603909349038093480390934B032A
:102C100080934A030E94D527811104C00E9479281D
:102C20000E94F60C0E94E60C809176048C7F11F4D1
:102C30000C94F60C08959091760421E092279093DD
:102C4000760410926F0281110C94EE0C089581E0CD
:102C50000C941B1690917604937099F0811109C021
:102C600094609093760410926F02662351F00C9456
:102C7000EE0C853210F09069F4CF880F880F982BF6
:102C8000F0CF089561E00C942A16682F9091760495
:102C90009695969581E0890F853208F081E00C9435
:102CA0002A1681E00C944516682F9091760496952B
:102CB00096958FEF890F09F484E20C942A1681E02F
:102CC0000C94541690917604937049F08093770495
:102CD000609378044093790421110C94EE0C0895CC
:102CE000A6E7B4E01196EC911197F0E0282F139627
:102CF0004C91139712966C91CF0108960C94621622
:102D000081E00C947016E6E7F4E09181282F43816E
:102D10006281E92FE850FF0BCF010C94621681E02D
:102D20000C948316E6E7F4E0628120E1620F08F478
:102D30006FEF9181282F4381892F90E00C946216C8
:102D400081E00C949216E6E7F4E0628120E1621BD8
:102D500008F460E09181282F4381892F90E00C9442
:102D6000621681E00C94A316E6E7F4E0438120E1CB
:102D7000420F08F44FEF9181282F6281892F90E054
:102D80000C94621681E00C94B416E6E7F4E04381FB
:102D900020E1421B08F440E09181282F6281892FB5
:102DA00090E00C94621681E00C94C51620917A0490
:102DB00030E1230F08F42FEF20937A0481110C9453
:102DC000EE0C089581E00C94D61620917A0430E13F
:102DD000231B08F420E020937A0481110C94EE0C5C
:102DE000089581E00C94E5160895FC01EE0FFF1F95
:102DF000E80FF91FE855FB4F618340832283089554
:102E0000E8EAF4E0818360834283339695E0ED3A0B
:102E1000F907C1F7089567E570E088EA94E00C943B
:102E20007417FA01811101C0FB0109940F931F93DC
:102E3000CF938C01FB01C281CC2309F453C00E94C3
:102E40001E278272F801E25CFC45E431F10538F49A
:102E5000E75AFC4C0C942A320E942716C0E08C2FB3
:102E6000CF911F910F9108954FE556E161E576E10D
:102E70000E941117F3CF41E556E16FE576E1F8CFF7
:102E80004FE856E160E876E1F3CF40E856E16FE8BD
:102E900076E1EECF41EB56E160EA76E1E9CF40EA38
:102EA00056E161EB76E1E4CF43ED56E162EC76E189
:102EB000DFCF42EC56E163ED76E1DACF41EF56E148
:102EC00062EE76E1D5CF42EE56E161EF76E1D0CF0A
:102ED00081E00E944216C2CF85E0FBCF8DE0F9CFA2
:102EE00082E1F7CFC1E0BBCF6E9A4EB14F7B5EB1AE
:102EF0005064EFB7F8949B01220F331F260F371F42
:102F0000280F391F2817390741F4EFBF8FE594E0E8
:102F10000197F1F700C000000895DC016D91CD012B
:102F200078E05EB9000000C067FF4EB9660F000090
:102F300000C000C000C04EB900C07A9591F7E2CF42
:102F400082E290E00E94CE32813289F483E290E006
:102F50000E94CE32833059F484E290E00E94CE3257
:102F600091E0813009F090E0892F8170089580E030
:102F7000FCCFCF93C82F6FEF811161E282E290E026
:102F80000E94EC326FEFC11163E083E290E00E9497
:102F9000EC326FEFC11161E084E290E0CF910C94CC
:102FA000EC3280E00E94B9170C94CF27089585E297
:102FB00090E00E94CE32682F70E090E080E00895AB
:102FC00085E290E00C94EC320E94D6170E94A01784
:102FD00081110CC060E070E0CB010E94E0170E94FC
:102FE00028190E94121A81E00C94B9170895CF9302
:102FF000FB01C281CC2309F19C0122513F452031C4
:10300000310520F582510E94221AC0E08C2FCF9109
:10301000089581E00E94992543E062E081E00E94EA
:103020008D04F3CF81E00E94BA2543E062E081E0A5
:103030000E948D04EBCF82E0F6CF8031FFE59F0741
:1030400089F381319F45B9F3C1E0E0CF8031EFE5ED
:103050009E07F9F281319F45C9F682E0DBCF2FEF61
:10306000FC0120830895EF92FF920F931F93CF935B
:10307000DF93EC01E62EE881E150E33108F05FC018
:10308000F0E0E359FC4C0C942A32198289E08A83DF
:103090006E2DCE01DF91CF911F910F91FF90EF9098
:1030A0000C94072B8981823069F0833071F0813074
:1030B000E1F40E94CD290E9430326A837B838C83A5
:1030C0009D83E6CF0E94D717F6CF8E01F12C8F2D6E
:1030D0000E94DB07F801828373836483F3940D5F9E
:1030E0001F4FF6E0FF12F3CFD3CF6E2DCE010E941B
:1030F0002F18CECF89818230C1F76A817B818C8184
:103100009D810E9430320E94E017C2CF4B816A81BC
:1031100089810E94FA189827892798279D838C8394
:10312000B7CF2C813D813227232732274B816A81FB
:1031300089810E941319ACCF0E942819A9CF8FEF63
:103140008883A6CF0E94BD198983A2CF0E94BF1990
:103150009827892798279A8389839ACF6B8170E073
:1031600089819A81AE014C5F5F4F98278927982704
:103170000E94C2198DCF6B8170E089819A81AE0166
:103180004C5F5F4F9827892798270E94E81980CFC6
:103190000E94121A7DCF0E94E818D6CF6B8170E092
:1031A00089819A81AE014C5F5F4F982789279827C4
:1031B0000E9460196DCF6B8170E089819A81AE01A8
:1031C0004C5F5F4F9827892798270E94861960CF08
:1031D00084E0089550E0440F551F92E2699F400D2E
:1031E000511D11249CEC899F400D511D1124CA01D1
:1031F000869608950F931F93CF93DF930E94EA184A
:103200008C010E94CE32C82FD0E0DC2FCC27C80121
:1032100001960E94CE329E01282BC901DF91CF91E9
:103220001F910F9108950F931F93CF93DF93122F48
:10323000032F0E94EA18EC01602F0E94EC32612FEC
:10324000CE010196DF91CF911F910F910C94EC323A
:10325000AF92BF92CF92DF92EF92FF921F93CF93E4
:10326000DF938CEAC82E80E0D82ED0E07601C0E053
:1032700014C0F50125913491412F6C2F8D2F0E94A0
:10328000131982E0A80EB11C1F5F113191F782E281
:10329000E80EF11CCF5FC63019F0570110E0E9CFFE
:1032A000DF5F8CECC80ED11CD43001F7DF91CF91D9
:1032B0001F91FF90EF90DF90CF90BF90AF90089557
:1032C000EF92FF920F931F93CF93DF93EC018A014C
:1032D0007C01E60EF71ECE018696CE15DF0539F489
:1032E000DF91CF911F910F91FF90EF900895C03320
:1032F00023E0D20740F40E94CE32F80180830F5FB2
:103300001F4F2196E8CFF8011082F9CFCF92DF92BC
:10331000EF92FF920F931F93CF93DF937C016A018B
:103320008C01060F171FEC01CE018696C017D1073E
:1033300049F4DF91CF911F910F91FF90EF90DF90B3
:10334000CF900895C03323E0D20740F4FE01EE1978
:10335000FF09EC0DFD1D60810E94EC322196E4CF47
:10336000462F843038F4763028F4613118F4672F12
:103370000C94FA1890E080E0089580E108958AEABC
:1033800090E00895EF92FF920F931F93CF93DF93F6
:10339000EC018A017C01E60EF71ECE018A5A9C4F91
:1033A000CE15DF0539F4DF91CF911F910F91FF907A
:1033B000EF900895CA3AD10540F40E94CE32F80148
:1033C00080830F5F1F4F2196E8CFF8011082F9CF5D
:1033D000CF92DF92EF92FF920F931F93CF93DF93E1
:1033E0007C016A018C01060F171FEC01CE018A5A7D
:1033F0009C4FC017D10749F4DF91CF911F910F91D6
:10340000FF90EF90DF90CF900895CA3AD10540F435
:10341000FE01EE19FF09EC0DFD1D60810E94EC32EA
:103420002196E4CFCF93DF93C6E5D3E060E0CE01F1
:103430000E94EC322196C11584E0D807B9F7DF91DC
:10344000CF910895DF92EF92FF920F931F93CF9346
:10345000DF9300D000D0CDB7DEB7F82E8FE08F1508
:1034600040F08FEF93E00E94CE3206E513E0882310
:10347000C1F00F900F900F900F90DF91CF911F919F
:103480000F91FF90EF90DF900895011584E01807E9
:1034900081F3C8010E94CE32811101C0FA940F5FFE
:1034A0001F4FF110F2CF19821A821B821C82DD2479
:1034B000D39478018FEFE81AF80AC8010E94CE323F
:1034C00089831A828823A9F29FEF980F933078F4AA
:1034D0008A83D9820E5F1F4FC7010E94CE328B8331
:1034E000882339F2CE0101960E94D305E2CF8701ED
:1034F000F9CF0F931F93CF93DF93C42FD22FFC01EB
:1035000082818823C9F0409352030E94C12990937D
:1035100051038093500380E28C0F883008F050C034
:10352000C77081E001C0880FCA95EAF7DF91CF919B
:103530001F910F910C94351F10915203141335C035
:1035400080915003909151030E94D929883C9105A4
:1035500060F5C0E2CD0F1D17B9F080E2810F883011
:1035600040F4177081E001C0880F1A95EAF70E94B5
:103570003C1FC83048F481E09D2F977001C0880F30
:103580009A95EAF70E94351F802F0E942D1FC830A0
:10359000B8F4D77081E001C0880FDA95EAF7DF91BF
:1035A000CF911F910F910C943C1F80E28C0F8830BB
:1035B00038F4C77081E001C0880FCA95EAF7EFCFF1
:1035C000DF91CF911F910F9108950F939C01CB0133
:1035D000233F4CE5340759F1A8F4283DFCE53F07AB
:1035E00001F1293D4CE53407D1F1273D3C4591F4EB
:1035F00006E221EE41EE67ED7CE50E94791A80E05B
:103600000F910895253FFCE53F07E9F0B0F0263F14
:103610003C45F9F0FC018281882339F11092520374
:10362000EFCF07E225EE45EE68ED7CE5E6CF06E25A
:1036300021EE40EE63EF7CE5E0CF07E225EE44EEBD
:1036400064EF7CE5DACF06E221EE42EE65EF7CE541
:10365000D4CF07E225EE46EE66EF7CE5CECF08E25A
:1036600021E045EE69ED7CE5C8CF81E0C9CFCF937D
:10367000DF93EC01FB018281882309F419C1C23078
:10368000FCE5DF07C0F1C6319CE5D90730F09E01AB
:103690002A5F3C452930310570F50E94E827909358
:1036A000B2058093B105C031ECE5DE0709F4CFC067
:1036B00008F05BC0C8308CE5D80709F4B6C088F5BF
:1036C000C430ECE5DE0709F4A8C0C0F4C2308CE5D4
:1036D000D80709F49CC08091B1058260C330DC45F5
:1036E00009F498C08091B1059091B2050E94F62727
:1036F0000E949F2180E0DF91CF9108958091B105D4
:103700008061C630ECE5DE0709F484C08091B10524
:103710008860C730DC4508F47DC08091B1058062C7
:1037200079C0CC308CE5D80709F489C070F4809159
:10373000B1058C60CA30ECE5DE0709F46BC008F413
:1037400078C08091B1058E7F65C0CE308CE5D807FA
:1037500009F479C08091B1058B7FCF30DC4508F446
:1037600059C08091B1058F7E55C0CB3FECE5DE0797
:1037700009F457C030F5C3318CE5D80709F46FC0A0
:1037800078F4C131ECE5DE0709F465C0C231DC45EF
:1037900009F0A8CF0E949F218091B1058F773AC090
:1037A000C5318CE5D80709F462C008F476C0809171
:1037B000B2058160CA3FDC4509F094CF8093B20521
:1037C00091CFCF3FFCE5DF0709F44DC088F480912D
:1037D000B2058D7FCD3F9CE5D90781F38091B2057D
:1037E0008E7FCE3FDC4550F38091B2058360E6CFFB
:1037F000C130FDE5DF0709F459C008F444C080E09A
:10380000C230DD4509F06ECF0E947B286BCF8091DE
:10381000B10581608093B10565CF8091B105846069
:10382000F9CF8091B2058260C9CF8091B1058064E3
:10383000F1CF0E949F218091B1058068EBCF8091EC
:10384000B1058D7FE7CF8091B105877FE3CF809170
:10385000B1058F7DDFCF8091B1058F7BDBCF80916C
:10386000B105837FD7CF8091B2058C7FA7CF8091A0
:10387000B10582FB992790F921E0922790FB82F90C
:1038800090FB83F9C7CF8091B205982F90959170E6
:103890008E7F892B90FB81F991CF0E949F2190917F
:1038A000B105892F97FB87F98058B4CF81E0ACCF61
:1038B00081E021CFCF93DF93EB0186319C4511F559
:1038C0000E941E279A81992399F08A7A91E009F43F
:1038D00090E090935303811109C089E20E94F92678
:1038E0000E946A2780E0DF91CF91089585E3F6CFAB
:1038F00080915303811104C089E20E940027F0CF18
:1039000085E3FBCF81E0EFCF909359038093580379
:103910000895E0915803F0915903309721F00190F8
:10392000F081E02D099480E00895E0915803F09132
:103930005903309711F480E008950190F081E02D53
:1039400009950895E0915803F0915903309799F043
:1039500020918102222359F02091B10527FF07C051
:10396000DC012C9111962C93119725E02C93028069
:10397000F381E02D09940895209156033091570367
:103980002817390771F09093570380935603E091FD
:103990005803F0915903309721F00680F781E02D0C
:1039A000099408952091540330915503281739073D
:1039B00071F09093550380935403E0915803F09174
:1039C0005903309721F00084F185E02D0994089582
:1039D0000E94CD29609377037093780380937903D5
:1039E00090937A03609373037093740380937503C9
:1039F00090937603089585B7806885BF85B7806802
:103A000085BF0895089508950C94021D08950C949F
:103A1000061D0E94FB1C8DEC97E20E944C2A0E941E
:103A2000031D0C94041D81E008950C94131D08954A
:103A300008950E94B8290E9406080E94E4170E9477
:103A4000672A0C94071D4F925F926F927F928F921C
:103A50009F92AF92BF92CF92DF92EF92FF920F931D
:103A60001F93CF93DF93CDB7DEB72A970FB6F894A5
:103A7000DEBF0FBECDBF0E94171D0E94181D0E9401
:103A80003F0881110E94E81C5BE5C52E53E0D52E4E
:103A900010E000E0E02E802F0E94DB072B013C01AC
:103AA000F60181909190A190B1906F0184149504DA
:103AB000A604B704B1F40F5F1F4F0630110551F78C
:103AC0008FEF89838A831B820E94C1298160782FAE
:103AD0009D838C8349815A816B818D810E94061E52
:103AE00051C08091220481FD0E94E607D501C401E6
:103AF00084259525A625B725F12C812C912C5401E0
:103B00008394AC01BD01482159216A217B21452BB9
:103B1000462B472B09F45AC00E94151D48205920F6
:103B20006A207B20DD24D39445284628472809F4C1
:103B3000D12C882379F0FE82EF82D8860E94C12999
:103B40008160782F9A8789874E815F8168858A8511
:103B50000E94061E000F111F000F111FF801E55AE9
:103B6000FC4F80819181A281B38188259925AA2566
:103B7000BB2580839183A283B3834D2D6F2D8E2D22
:103B80000E946D130E9420140E94891C90915A0378
:103B9000891729F10E94891C80935A032A960FB62F
:103BA000F894DEBF0FBECDBFDF91CF911F910F9173
:103BB000FF90EF90DF90CF90BF90AF909F908F904D
:103BC0007F906F905F904F900C94DD05F394880C7C
:103BD000991CAA1CBB1CF1E1FF1293CF6CCF2A9653
:103BE0000FB6F894DEBF0FBECDBFDF91CF911F910E
:103BF0000F91FF90EF90DF90CF90BF90AF909F908C
:103C00008F907F906F905F904F900895DF92EF922A
:103C1000FF920F931F93CF93DF93CDB7DEB72B9710
:103C20000FB6F894DEBF0FBECDBF7A878B87F42E18
:103C3000052F162FE72ED82E61110E943E271E82D7
:103C40001D827E2DEC82DD824F2D502F612F8D2D18
:103C50009E812B960FB6F894DEBF0FBECDBFDF91CD
:103C6000CF911F910F91FF90EF90DF900C9415244E
:103C7000FC01808191810C94CB26CF93C82F88239F
:103C800009F483C08238C1F40E94891C81FD7DC083
:103C900089E30E94F9260E946A272FEF81EE94E0C3
:103CA000215080409040E1F700C0000089E30E946D
:103CB0000027CF910C946A278338A1F40E94891CB5
:103CC00080FD63C083E50E94F9260E946A272FEFDA
:103CD00081EE94E0215080409040E1F700C0000068
:103CE00083E5E5CF8438A1F40E94891C82FD4DC094
:103CF00087E40E94F9260E946A272FEF81EE94E064
:103D0000215080409040E1F700C0000087E4CFCF11
:103D10008CEF8C0F813A90F46C2F8091750290910A
:103D200076020E949428882329F08C2F0E94002775
:103D30000E946A278C2F0E94F926BBCF80E28C0F4D
:103D4000883048F4C77081E001C0880FCA95EAF74F
:103D50000E942127AECFEBE5EC0FE33040F4F0E01A
:103D6000E55FFC4F808190E0CF910C94BC1CC85A59
:103D7000C73158F4EC2FF0E0EE0FFF1FE352FD4F78
:103D800080819181CF910C94D21CCF91089588238A
:103D900009F44BC0823871F40E94891C81FF45C030
:103DA00089E30E94F9260E946A2789E30E9400277E
:103DB0000C946A27833859F40E94891C80FF35C00F
:103DC00083E50E94F9260E946A2783E5EFCF8438B5
:103DD00059F40E94891C82FF28C087E40E94F926BA
:103DE0000E946A2787E4E2CF9CEF980F913AF0F2A5
:103DF00090E2980F983050F4877091E001C0990FCD
:103E00008A95EAF7892F0E942727D2CF9BE5980F42
:103E1000933020F490E080E00C94BC1C885A8731E9
:103E200020F490E080E00C94D21C08951F93CF936F
:103E3000DF93182FEB010E943D1E209731F4812F54
:103E4000DF91CF911F910C94C71E8FE99FE00197DE
:103E5000F1F700C000002197F0CF70E060E08933F7
:103E600011F460E570E00C94161F882321F00E9485
:103E700021270C946A270895882321F00E94272780
:103E80000C946A270895BF92CF92DF92EF92FF922F
:103E90000F931F93CF93DF936C01D62FC72FFC0195
:103EA0001281058102950F700E941727E82E882342
:103EB000A1F0E12E112389F08C2F807F803429F02E
:103EC00080E28D0FE12C883040F082E00E94B5271F
:103ED0000E94172791E0E82EE926BC2EB2949FE0BD
:103EE000B922EB2DF0E0E058FC4C0C942A320C2F58
:103EF0000F70C07F11F00295007F1123A9F00023FD
:103F000059F080E28D0F883010F0D11109C0802F58
:103F10000E9421270E946A278D2F0E943D1E14C0F7
:103F2000802F0E943127F6CF8D2F0E94C71E0023BD
:103F300059F080E28D0F883010F0D1112CC0802F05
:103F40000E9427270E946A272B2D2850330B2430EC
:103F5000310520F40E94891C0E94DD05EE2009F441
:103F600093C10E94132780FD8FC1F60112820E9427
:103F70000D270E949925C6010E9465210E940D27E8
:103F8000DF91CF911F910F91FF90EF90DF90CF9035
:103F9000BF900C94BA25802F0E943727D3CFFC2FD7
:103FA000FF70FF2EC07FC03219F0F29480EFF8222C
:103FB000DD2369F0D13049F1112391F1002351F152
:103FC000F601858180FFA8CF8F70858323C01123E0
:103FD00081F0011106C00E9451278F290E94351FD0
:103FE000B3CF0130C1F70E9451278F290E94572774
:103FF000ABCF011106C00E9460278F2D0E943C1F8D
:10400000A3CF013009F4A0CFF6CF112329F0063059
:1040100008F09ACF8F2DE2CF053008F095CFEDCF85
:10402000002359F3D93349F4FFEF27EE33E0F15081
:1040300020403040E1F700C000008D2F0E94C71ED5
:1040400083CF8C2F86958695837069F0813009F037
:104050007BCF8D2F9C2F9370111102C090E080E0D8
:104060000E94D21C71CF8D2F9C2F9370111102C012
:1040700090E080E00E94BC1C67CF8C2F837009F019
:1040800041C0111161CF4D2F429546954770440FA5
:10409000440F0D2F0F7010E030E020E0042E04C01C
:1040A000000F111F221F331F0A94D2F760E070E047
:1040B000CB01D4FF0FC06FE070E080E090E004C05F
:1040C000660F771F881F991F4A95D2F760957095E4
:1040D00080959095C695C695C370602B712B822BE9
:1040E000932BC23049F058F4C13019F00E944B258F
:1040F0002BCF0E94392528CF0E945D2525CF0E9415
:10410000372522CF8695112311F08C2F81708823BB
:1041100009F41ACF4D2F429546954770440F440F2E
:104120000D2F0F7010E030E020E0042E04C0000FCF
:10413000111F221F331F0A94D2F760E070E0CB01F9
:10414000D4FF0FC06FE070E080E090E004C0660F25
:10415000771F881F991F4A95D2F7609570958095B3
:104160009095C695C695C370602B712B822B932BAF
:10417000C23049F058F4C13019F00E941026E4CE44
:104180000E94FE25E1CE0E942226DECE0E947325EB
:10419000DBCECF70112329F08C2F0E9499258D2F13
:1041A0001DCF8D2F0E943C1F8C2F0E94BA25CCCE94
:1041B000D23F89F160F4D03FC9F0D13F29F11123FA
:1041C00009F442C00111A8CE8C2F8F7121C0D33FBA
:1041D00039F1D43FA1F7112369F1CF718C2F0E94DF
:1041E000992563E08C2F0E94A027AECE112341F0C9
:1041F000053008F0A9CE8C2F8F710E94DD25A4CE4A
:10420000063008F0A1CEF7CF8C2F8F71112369F201
:104210000E94992599CE8C2F8F711123C9F3C5CF98
:10422000112329F08C2F8F710E9484258DCE0E943E
:104230007F258ACE81E00E94B527023008F484CE23
:1042400082E00E94B52780CE002359F0D93309F0CF
:10425000F4CE8FEF97EEE3E081509040E040E1F73D
:10426000EACE8C2F8F71A1CF4C2F4F706D2FC601CE
:104270000E94E5050E94AF2467CE4C2F4F706D2F32
:10428000C6010E94E80560CEDF91CF911F910F918A
:10429000FF90EF90DF90CF90BF9008950F931F9302
:1042A000CF93DF93EC01688179818A810E94D526C2
:1042B0008C010E9434260E943625B801CE01DF9180
:1042C000CF911F910F910C94431FCF93DF93EC017B
:1042D0008B819C81892B29F08881998189238F3F4B
:1042E00059F4DF91CF910895CE010E944E21CE0165
:1042F000DF91CF910C942E04CE010E94BD04811158
:10430000F3CF0E941727882361F38A81882349F31A
:1043100082E0DF91CF910C94B52790E080E00E947D
:10432000BC1C90E080E00E94D21C0E943E270E94AC
:104330004E270C946A270E9407270C948D210E9417
:104340002E270C949B21E92FE295EF70E250EE307E
:1043500070F4F0E0E057FC4C0C942A32803F19F0E6
:1043600020F4883E20F481E00895843FE1F380E06A
:104370000895883EC0F3813FD1F7F5CF93FB88279E
:1043800080F908950E94CB260C94A321CF93DF934C
:1043900000D000D00F92CDB7DEB70F900F900F90E6
:1043A0000F900F90DF91CF910895CF93DF9300D0BE
:1043B00000D000D0CDB7DEB726960FB6F894DEBF9A
:1043C0000FBECDBFDF91CF9108951F93CF93DF93A1
:1043D000C0917C0316E080917D038C1304C0DF91B3
:1043E000CF911F910895D0E01C9FF0011D9FF00D0B
:1043F0001124E258FC4F4081518162817381848194
:1044000095810E94D5212196C770E5CF4091AE03DA
:104410005091AF036091B0037091B1038091B203EA
:104420009091B3030C94D5211F93CF93DF93809188
:10443000B303807FA9F48091B003882389F0809131
:104440007C03C0917D036091AE037091AF03A09196
:10445000B103B091B203D62FD72316E0C81304C01E
:10446000DF91CF911F91089590E0109711F0DF3FF9
:1044700019F401968770F2CF189F9001199F300DA3
:104480001124F901E258FC4F41814713F2CF4081DA
:104490004613EFCF42814111ECCF438154814A1B37
:1044A0005B0B483C510528F78091B3038F70806106
:1044B0008093B303F901ED57FC4F80818F708061C9
:1044C00080838EEA93E00E946521DF91CF911F9156
:1044D0000C94E521AF92BF92CF92DF92EF92FF92C0
:1044E0000F931F93CF93DF93CDB7DEB761970FB6CE
:1044F000F894DEBF0FBECDBF8C0185E0F801DE0170
:104500001D9601900D928A95E1F7F8014081518145
:10451000E2808EEAC82E83E0D82E6091B1037091BC
:10452000B2036115710509F461C19091AE03209148
:10453000AF03892F82238F3F09F458C1A380B48031
:10454000F090B003F501E61BF70BFF2009F4FCC067
:104550008091B303382F307FE83CF10508F0B2C0FA
:10456000311179C0FE2C251323C0941321C0E11012
:104570001FC08F7080618093B3030E940622C60122
:104580000E9465218091B303F80185838F2D619688
:104590000FB6F894DEBF0FBECDBFDF91CF911F9154
:1045A0000F91FF90EF90DF90CF90BF90AF90089564
:1045B000AB2829F0842F85238F3F09F033C180E099
:1045C000F82FF170DF2E80FF3CC080917C0320919A
:1045D0007D0336E0821315C04D875E878D859E85ED
:1045E0000E94CB26292F22952F702230F0F0243004
:1045F00018F59F70F1F0F8019581907FD1F4D12CDE
:104600001EC090E0389FF001399FF00D1124E25850
:10461000FC4F6181651306C06081641303C0628131
:104620006E110FC001968770D5CF9F7011F088234F
:1046300031F3805E883018F3C8010E946521FD2C9B
:10464000A5CFEE2009F4A2CF8091B30381608093BF
:10465000B303F12C9BCF251306C0941304C0F801BB
:10466000EE2009F48DC04D875E878D859E850E9462
:10467000C221882319F1EE2009F18091B303803221
:1046800070F02091AE033091AF0338872F831986E5
:10469000BB86AA868C87CE0107960E94652186E09C
:1046A000F801AEEAB3E001900D928A95E1F70E941D
:1046B00014220E940622FF24F39468CFC8010E94AE
:1046C0006521F9CF311113C07A2DB98AA88A6E2DD0
:1046D00089890E94C6218EEA93E00E94652186E0C6
:1046E000F60111928A95E9F70E940622B2CF2513AE
:1046F0000FC094130DC0E1100BC0F8018583C801F1
:104700000E94652186E0F60111928A95E9F73ECF75
:104710004D875E878D859E850E94C221882371F218
:10472000EE2061F28091B303803208F4B8CF20917B
:10473000AE033091AF033A8329831B82BD82AC82E2
:104740008E83CE010196A9CFE83CF10508F041C067
:10475000FE2CEE2009F4B2CF25132AC0941328C0F2
:104760008091B30380FD1BC0982F907FC1F0F801AA
:104770008583903F31F0982F907F905F8F70892BC9
:104780008583C8010E94652186E0F801AEEAB3E0A6
:1047900001900D928A95E1F70E940622F7CE86E0FD
:1047A000F801AEEAB3E001900D928A95E1F7EECE02
:1047B0004D875E878D859E850E94C22181116FCFB6
:1047C0008091B30381608093B303C8010E94652187
:1047D000DDCE7A2DB98AA88A6E2D89890E94C621DC
:1047E00086E0F60111928A95E9F7D6CFEE2009F41A
:1047F00065CF4D875E878D859E850E94C221F82EEC
:10480000882309F45BCF86E0F801AEEAB3E00190BB
:104810000D928A95E1F78EEA93E00E94381E0E947D
:104820001422BACF81E08E25CBCE1F93CF93DF9396
:10483000CDB7DEB72C970FB6F894DEBF0FBECDBF55
:104840004F83588769877A878B879C87CE01079625
:104850000E946A22882369F08A859B85892B39F01A
:104860004F815885842F85238F3F09F071C016E052
:104870005FC086E0FE013796DE01119601900D9231
:104880008A95E1F78A859B85892B89F38F819885A5
:1048900089238F3F61F320917D0330E0C9010196A8
:1048A0008770992740917C034817190671F40E947C
:1048B0009F2110927D0310927C0386E0EEEAF3E0E4
:1048C000DF011D928A95E9F7D2CF96E0929FD00141
:1048D000939FB00D1124A258BC4FFE013196019058
:1048E0000D929A95E1F780937D030E94E521BFCF59
:1048F000819FC001112482589C4F0E946A22882304
:10490000E9F0E0917C031E9FF0011124E258FC4F76
:104910004081518162817381848195810E94D5217A
:1049200080917C0390E001968770992780937C03A7
:1049300080917C0390917D038913DACF2C960FB67A
:10494000F894DEBF0FBECDBFDF91CF911F910895C8
:1049500069857A858B859C850E94D52188CFEF92C9
:10496000FF920F931F93CF93DF938C01892B81F0DC
:10497000F12CEE24E394E8012196F8018491843728
:1049800070F4843008F05FC08130B1F08230A1F162
:10499000DF91CF911F910F91FF90EF900895853790
:1049A00009F44CC008F43DC09CE7980F903780F79D
:1049B0008F770E94C71E49C00E5F1F4FFE01849172
:1049C00090E2980F983060F48770FE2D01C0FF0FC1
:1049D0008A95EAF78F2F0E9441270E946A2702C01A
:1049E0000E943D1E8F2D815030F2EFE9FFE031979C
:1049F000F1F700C00000F7CF0E5F1F4FFE0184915A
:104A000090E2980F983050F48770FE2D01C0FF0F90
:104A10008A95EAF78F2F0E944727DFCF0E94C71E93
:104A2000E1CF0E5F1F4FFE01C491C150D8F28FE954
:104A30009FE00197F1F700C00000F7CF0E5F1F4F16
:104A4000FE01F490CFCF0E943D1E8E01CBCF089582
:104A50000C9427250E9428256093F9037093FA038C
:104A60008093FB039093FC030C948D2108950C9488
:104A70002A250F931F930091F9031091FA032091B7
:104A8000FB033091FC03602B712B822B932B1F9126
:104A90000F910C942A250F931F930091F903109105
:104AA000FA032091FB033091FC03602371238223DE
:104AB00093231F910F910C942A250F931F9300911C
:104AC000F9031091FA032091FB033091FC03602756
:104AD0007127822793271F910F910C942A250C94FC
:104AE00027250C946F250E9471256093F503709320
:104AF000F6038093F7039093F8030C948D2160E004
:104B000070E0CB010C9473250F931F9341E050E0AC
:104B100060E070E08A019B0104C0000F111F221F9A
:104B2000331F8A95D2F7C901B8011F910F910C94D8
:104B300073250F931F9341E050E060E070E004C0E4
:104B4000440F551F661F771F8A95D2F78091F50392
:104B50009091F603A091F703B091F8038A019B01AD
:104B6000082B192B2A2B3B2BC901B8011F910F9140
:104B70000C9473250F931F9341E050E060E070E0C8
:104B800004C0440F551F661F771F8A95D2F7CB01CB
:104B9000BA0160957095809590950091F5031091FC
:104BA000F6032091F7033091F803602371238223E9
:104BB00093231F910F910C9473250F931F9341E042
:104BC00050E060E070E004C0440F551F661F771F7F
:104BD0008A95D2F78091F5039091F603A091F7039F
:104BE000B091F8038A019B01082719272A273B2740
:104BF000C901B8011F910F910C9473250F931F9356
:104C00000091F5031091F6032091F7033091F8031A
:104C1000602B712B822B932B1F910F910C9473257A
:104C20000F931F930091F5031091F6032091F70362
:104C30003091F80360237123822393231F910F91F6
:104C40000C9473250F931F930091F5031091F603B5
:104C50002091F7033091F80360277127822793276B
:104C60001F910F910C947325089521E1929F800D5F
:104C70001124982F977041E001C0440F9A95EAF7EC
:104C800086958695869595E0899FF0011124EC54D0
:104C9000FC4F90E080E070E05191DF0111979B01A3
:104CA000082E02C0369527950A94E2F721702195C7
:104CB0002527242325272C9301968530910561F71C
:104CC000089521E1929F800D1124982F9770869569
:104CD0008695869525E0829FF0011124EC54FC4FC7
:104CE00050E040E080E0219130E0092E02C036958E
:104CF00027950A94E2F721703327042E01C0220F72
:104D00000A94EAF7822B4F5F5F4F4530510559F700
:104D10000895BF92CF92DF92EF92FF920F931F936D
:104D2000CF93DF938C01C090F503D090F603E09011
:104D3000F703F090F8038091F9039091FA03A091A2
:104D4000FB03B091FC03C82AD92AEA2AFB2ACFE147
:104D5000D0E0BC2ED701C6010C2E04C0B695A79595
:104D6000979587950A94D2F780FD0EC0219788F712
:104D7000B12C8B2DDF91CF911F910F91FF90EF9070
:104D8000DF90CF90BF900895B8018C2F0E94F1055D
:104D9000019761F3EECFCF93DF93EC010E94892658
:104DA000BE01DF91CF910C94F1051F93CF93DF9358
:104DB000EB0190917B03992331F0CB01DF91CF91EF
:104DC0001F910C94CB26882379F0CB010E94892671
:104DD000182F682FCE010E943526BE01812FDF914A
:104DE000CF911F910C94F105CB010E946126182FE1
:104DF000F4CF682F80917502909176020C9414295B
:104E0000682F80917502909176020C941F298091F1
:104E10007502909176020C942A298091FD03859564
:104E20008595859508958091FD03877008959091EB
:104E3000FD03977081E009F480E0089580912104DA
:104E4000089590912104892B8093210408958095E1
:104E500090912104982390932104089510922104A5
:104E6000089590912004892B8093200408958095C3
:104E70009091200498239093200408951092200488
:104E8000089590911F04892B80931F0408958095A5
:104E900090911F04982390931F04089510921F046B
:104EA00008958091FE03089508950C9454279091DD
:104EB000FE03981721F08093FE030C945527089564
:104EC0008091FE03882329F01092FE0380E00C9469
:104ED00055270895E0917502F091760280912104A2
:104EE0008083E0917502F091760280819091200498
:104EF000892B8083E0917502F091760280819091F8
:104F00001F04892B80839091FE03992381F0E09107
:104F10007502F09176028081892B808380917502E1
:104F2000909176020E94802881110E9460278091D2
:104F30007502909176020C94A21C08950C949D2702
:104F400098E0899F90011124622B6093FD030E94D9
:104F500099258091FD038595859585950C949E27CF
:104F60001092FD0380E00C949E279091FD038095A4
:104F700089238093FD03282F277071F4282F082E92
:104F8000000C330B9217130639F08595859585959E
:104F90000E94BA250C94B027089580E008956FEF21
:104FA0007FEF90E080E00C940A3390E080E00E9474
:104FB000D63221E08B3E9E4F09F020E0822F0895EB
:104FC00082E090E00C94CE3283E090E00C94CE32FC
:104FD000CF9384E090E00E94CE32C82F81E290E02F
:104FE0000E94CE32982F8C2FCF910895CF93C92F46
:104FF000682F84E090E00E94EC326C2F81E290E018
:10500000CF910C94EC32AB01BC018FE090E00C949A
:10501000FE32AB01BC0183E190E00C94FE3260E013
:1050200070E0CB010C94092860E070E0CB010E9495
:1050300003280C940F286BEE7EEF90E080E00E9436
:105040000A3360E082E090E00E94EC3260E083E0AE
:1050500090E00E94EC321092F9031092FA03109241
:10506000FB031092FC0360E084E090E00E94EC32CD
:1050700060E081E290E00E94EC3260E085E090E048
:105080000E94EC3260E086E090E00E94EC326FEF2C
:1050900087E090E00E94EC3240E050E0BA0188E006
:1050A00090E00E94FE3260E08DE090E00E94EC32E1
:1050B00040E050E0BA0188E190E00E94FE3260E0FA
:1050C00087E190E00E94EC3240E050E0BA018CE1D0
:1050D00090E00E94FE3260E080E290E00E94EC32BC
:1050E00040E050E0BA0188E190E00E94FE320C946A
:1050F00014280C941B28682F8EE090E00C94EC325E
:10510000FC01329680918102882321F08091B105C3
:105110009EE187FF96E080E0915008F40895219188
:105120002223D1F38F5FF8CF662301F12091810212
:105130002223F1F02091B10527FF1AC0462F469592
:10514000469546954E3190F4677021E030E002C0FC
:10515000220F331F6A95E2F7840F911DFC018281B3
:1051600090E02823392381E0232B69F480E008951F
:10517000FC01329608962191261721F0E817F907CD
:10518000D1F7F4CF81E008959C01FC0132969FEFA6
:1051900080E04191461751F09F3F19F4411101C041
:1051A000982F8F5F8630A9F79F3F09F40895290F44
:1051B000311D97FD3A95F90162830895FC013296FD
:1051C00008962191261303C0DF0111971C92E8175E
:1051D000F907B9F70895E62FE695E695E695EE31DD
:1051E00068F4E80FF92FF11D677021E030E001C08D
:1051F000220F6A95EAF78281822B82830895E62F37
:10520000E695E695E695EE3170F4E80FF92FF11D7D
:10521000677021E030E001C0220F6A95EAF720951F
:10522000828128232283089520918102222329F05C
:105230002091B10527FD0C94EB280C94C4282091F3
:105240008102222329F02091B10527FD0C94FF282B
:105250000C94DE28FC01329680918102882351F063
:105260008091B10587FF06C08EE1DF011D928A950E
:10527000E9F7089586E0F9CF089508950C943D2943
:105280008091B705843049F10E943E2980E00E9458
:10529000DD051092230488E190E020E40FB6F89435
:1052A000A895809360000FBE2093600083B7817F34
:1052B000846083BF83B7816083BF7894889583B708
:1052C0008E7F83BF0FB6F894A895809160008861A7
:1052D00080936000109260000FBE08950895CF93F0
:1052E0000E943C290E943F080E946E29C0E08C2F3A
:1052F0000E94DB07672B682B692B31F4CF5FC63028
:10530000B1F780E0CF91089581E0FCCF08950C942F
:1053100086290E949F210E94891C0E94DD050C9411
:1053200087291F921FB61F9211248F939F93AF93CB
:10533000BF9380912304811113C08091AD0590919A
:10534000AE05A091AF05B091B0054196A11DB11D6C
:105350008093AD059093AE05A093AF05B093B005D3
:10536000BF91AF919F918F911F901FBE1F90189575
:1053700082E084BD93E095BD9AEF97BD80936E0067
:1053800008952FB7F8948091AD059091AE05A09146
:10539000AF05B091B0052FBF08952FB7F894609175
:1053A000AD057091AE058091AF059091B0052FBF0E
:1053B00008959C014FB7F8948091AD059091AE058A
:1053C000A091AF05B091B0054FBF821B930B08951C
:1053D000CF92DF92EF92FF922FB7F894C090AD0575
:1053E000D090AE05E090AF05F090B0052FBFA701BB
:1053F0009601261B370B480B590BCA01B901FF90C8
:10540000EF90DF90CF90089578941F921FB61F926F
:1054100011248F939F93AF93BF938091AD0590918B
:10542000AE05A091AF05B091B0050196A11DB11DCB
:105430008093AD059093AE05A093AF05B093B005F2
:10544000BF91AF919F918F911F901FBE1F90189594
:1054500081E08093E00080E28093D8001092C90040
:105460008FE19EE40197F1F700C0000087E090EB28
:10547000DC018093C0059093C105A093C205B09351
:10548000C30588E19CE00FB6F894A895809360006E
:105490000FBE90936000FFCF90931F0380931E0375
:1054A00008950C94D1170E943F088FE39CE901975F
:1054B000F1F700C000000E943F0880E00E94DB0777
:1054C00060FF04C00E94512A0C94282A08950E946B
:1054D000D527811102C00E9479280E94E02780937D
:1054E00022040E94E8279093B2058093B1050E94A0
:1054F000E427682F70E090E080E00E9437256091FB
:10550000F5037091F6038091F7039091F8030C94E2
:1055100071258091440408950895CF93DF9300D0BE
:105520000F92CDB7DEB79091B705943011F589830E
:105530007B836A839093E9008FEF9091E80081501C
:1055400095FD06C095ED9A95F1F700008111F5CF14
:105550008091E80085FF0DC050E040E063E070E01E
:10556000CE0101960E94032D8091E8008E778093F2
:10557000E8000F900F900F90DF91CF910895BC013C
:1055800084E00C948D2ABC0183E00C948D2ACF9387
:10559000DF93EC01809181028823B1F18091B10504
:1055A00087FF32C060E284E08093E9008FEF909142
:1055B000E800815095FD06C095ED9A95F1F7000041
:1055C0008111F5CF8091E80085FF1BC08091810299
:1055D00070E050E040E0811104C050E040E068E03D
:1055E00070E0CE010E94032D8091E8008E778093B9
:1055F000E80080E2FE01A4E2B4E001900D928A95F9
:10560000E1F7DF91CF91089568E081E0CDCFCF93AE
:10561000FC01603221F58091B705843001F5C0911D
:10562000E900CF702091EC00922F917020FD90E85E
:10563000C92B82E08093E9008091E80080FF0CC0D4
:1056400050E040E060E270E0CF010E94032D8091C5
:10565000E8008E778093E800CF70C093E900CF9187
:1056600008958091B605811109C00E94E22E0E9422
:105670003F2F8091E20084608093E20008951092B1
:10568000B605089508950895089542E061EC81E01B
:105690000E945E2E42E261EC84E00E945E2E42E2B5
:1056A00061EC82E00E945E2E42E260EC83E00C94AA
:1056B0005E2E8091B905833009F461C030F48130E9
:1056C000D1F1823009F49DC008958A3009F489C06F
:1056D0008B3009F46FC0893009F050C08091B80553
:1056E000813209F04BC08091BC059091BD050097B7
:1056F00019F0029709F042C08091E800877F8093FB
:10570000E8008091E80082FF35C09091F30080911D
:10571000F200029729F48091F1008B7F813021F40F
:105720008091F100809344048091E8008B7780930E
:10573000E8000C94922E8091B805813AF9F480919A
:10574000E800877F8093E8008091BC059091BD05BB
:10575000892B61F460E284E294E070E00E94A12D64
:105760008091E8008B778093E800089560E090E0F6
:1057700080E0F3CF8091B7058111C3CF0895809168
:10578000B805813AD9F78091BC059091BD05892B68
:10579000A9F78091E800877F8093E8008091E80076
:1057A00080FFFCCF809181028093F1008091E8001E
:1057B0008E77BDCF8091B805813201F78091BC050D
:1057C0009091BD05892BD1F68091E800877F809369
:1057D000E8000E94922E8091BA05809381020C9479
:1057E0009F218091B805813249F68091E800877F3A
:1057F0008093E8000E94922E8091BB05809345041F
:1058000008958091B805813A09F0B8CF8091E800F9
:10581000877F8093E8008091E80080FFFCCF809133
:105820004504C2CFCDB7DEB7A0970FB6F894DEBF60
:105830000FBECDBF84B7877F84BF0FB6F894A895FD
:1058400080916000886180936000109260000FBEBC
:1058500080E890E00FB6F894809361009093610027
:105860000FBE0E94091D0E94E22E0E943F2F8091D0
:10587000E20084608093E20078940E94C8310E9424
:10588000191D87E792E00E94841C13E08091B70500
:10589000853011F10E94231D8091B705843019F1E4
:1058A0000E94171D0E94181DF1CF0E94402980916F
:1058B000B505882389F00E946F29882369F00E942A
:1058C000ED2C0E949F212FEF83EC99E02150804026
:1058D0009040E1F700C000008091B705853029F3C2
:1058E0000E948929D7CF1093E9008091E80082FFB8
:1058F000D7CF8091E80090E085FF09C050E040E0FC
:1059000060E270E0CE0101960E94522D91E08091FC
:10591000E8008B778093E800992311F260E2CE01D2
:1059200001960E943318BCCF0C94962C292F332754
:105930002330310521F168F42130310509F443C0E9
:105940002230310509F444C090E080E030E020E0EE
:1059500026C02132310551F122323105A9F76330D9
:10596000710590F7FB01EE0FFF1FEF5EFC4F2081EA
:105970003181625F7C4FFB01808190E010C09927EC
:105980008130910581F0009729F00297E9F6ECE863
:10599000F5E002C0ECECF5E0849190E09F01FA01A3
:1059A000318320830895E0EBF5E0F6CF6330710595
:1059B00058F6660F771FFB01E95EFC4F20813181AD
:1059C00089E090E0ECCF82E190E02BE236E0E7CF97
:1059D0008BE590E020ED35E0E2CF80E189BD82E10A
:1059E00089BD09B400FEFDCF8091D8008F7D8093E2
:1059F000D8008091E00082608093E0008091E00018
:105A000081FDFCCF0895AF92BF92CF92DF92FF92BB
:105A10000F931F93CF93DF936C01EB018A010E94D8
:105A2000B12EF82E811123C00115110539F0F801AE
:105A300080819181C81BD90BC80ED91EB12CA12C15
:105A40002097A9F08091E80085FD22C08091E800B0
:105A50008E778093E80001151105A1F0F80180818F
:105A60009181A80EB91EB182A08285E0F82E8F2DFB
:105A7000DF91CF911F910F91FF90DF90CF90BF905A
:105A8000AF9008950E94B12E8823D1F2F82EEFCF67
:105A9000F60181916F018093F1002197FFEFAF1A1A
:105AA000BF0ACECFAF92BF92CF92DF92FF920F93F9
:105AB0001F93CF93DF936C01EB018A010E94B12EFB
:105AC000F82E811123C00115110539F0F8018081EC
:105AD0009181C81BD90BC80ED91EB12CA12C2097BF
