:100000000C94FF030C9446040C9446040C94460490
:100010000C9446040C9446040C9446040C94460438
:100020000C9446040C9446040C94F7280C94CB29A9
:100030000C945C230C9446040C9446040C944604E3
:100040000C9446040C9446040C9446040C94460408
:100050000C9446040C94B3230C9446040C9446046C
:100060000C9446040C9446040C9446040C944604E8
:100070000C9446040C9446040C9446040C944604D8
:100080000C9446040C9446040C9446040C944604C8
:100090000C9446040C9446040C9446040C944604B8
:1000A0000C9446040C9446040C9446042900000069
:1000B0003A003B003C003D003E003F004000410054
:1000C0004200430044004500460047004800350018
:1000D0001E001F0020002100220023002400250014
:1000E000260027002D002E002A0049004A004B0060
:1000F0002B0014001A000800150017001C0018003F
:100100000C00120013002F00300028004C004D009E
:100110004E00390004001600070009000A000B0019
:100120000D000E000F00330034003200000000000C
:1001300000000000E10064001D001B000600190023
:10014000050011001000360037003800E5000000FF
:10015000000052000000E000E300E20000000000A8
:100160002C00000000000000E6006500E4000151E2
:100170005000000051004F00005C00000100010031
:100180000100010001000100010001000100010067
:1001900001000100CE5CCF5CD05C010001000100D9
:1001A0000100010001000100010001000100010047
:1001B000010001000100C65CC85CCA5C01000100CE
:1001C0000100010001000100010001000100010027
:1001D0000100010001000100C75CC95CCB5C0100AB
:1001E0000100010001000100010001000100010007
:1001F00001000100010001000000000000000000FB
:100200000100010001000100010001000100145C77
:1002100001000100010001000100000000000100D8
:1002200000000100010001000000000001000000CA
:10023000000000000100010001000100C55C000099
:10024000C35CC45C0100000001000100010001006A
:100250000100010001000100010001000100010096
:100260000100010001000100010001000100010086
:100270000100010001000100010001000100010076
:100280000100010001000100010001000100010066
:100290000100010001000100010001000100010056
:1002A0000100010001000100010001000100010046
:1002B0000100010001000100010001000100010036
:1002C000010001000000000000000000010001002A
:1002D0000100010001000100010001000100010016
:1002E0000100010001000000000001000000010009
:1002F00001000100000000000100000000000000FB
:1003000001000100010001000100000001000100E6
:1003100001000000010001000100010001000100D6
:1003200001000100010001000100010001000100C5
:1003300001000100010001000100010001000100B5
:1003400001000100010001000100010001000100A5
:100350000100010001000100010001000100010095
:100360000100010001000100010001000100010085
:100370000100010001000100010001000100010075
:100380000100010001000100010001000100010065
:100390000000000000000000010001000100010059
:1003A0000100010001000100010001000100010045
:1003B0000100000000000100000001000100010038
:1003C000000000000100000000000000010001002A
:1003D0000100010001000000010001000000000018
:1003E000000000002A2B2800000000000000000090
:1003F0000000000000000029000000002C1E342036
:10040000212224342627252E362D3738271E1F205B
:100410002122232425263333362E37381F040506A0
:100420000708090A0B0C0D0E0F10111213141516E4
:100430001718191A1B1C1D2F3130232D35040506E2
:100440000708090A0B0C0D0E0F10111213141516C4
:100450001718191A1B1C1D2F3130354C00000000D5
:10046000000000000000000000000000000000008C
:100470007E0F00D4FFFFFFC70000007832190A008A
:10048000047F3F1F643214643214783C1E1E140A29
:10049000052223252628292A2C2D2F3032333536C4
:1004A000383A3B3D3E4042434547494A4C4E505105
:1004B000535557595A5C5E6062646668696B6D6F2C
:1004C00071737577797B7D7F81838587898A8C8E2F
:1004D00090929496989A9C9E9FA1A3A5A7A8AAAC37
:1004E000AEAFB1B3B4B6B8B9BBBCBEBFC1C2C3C571
:1004F000C6C7C9CACBCCCDCED0D1D2D2D3D4D5D613
:10050000D7D7D8D9D9DADADBDBDBDCDCDCDCDCDD45
:10051000DDDDDDDCDCDCDCDCDBDBDBDADAD9D9D829
:10052000D7D7D6D5D4D3D2D2D1D0CECDCCCBCAC9C1
:10053000C7C6C5C3C2C1BFBEBCBBB9B8B6B4B3B1F0
:10054000AFAEACAAA8A7A5A3A19F9E9C9A9896948B
:1005500092908E8C8A89878583817F7D7B79777560
:1005600073716F6D6B6968666462605E5C5A59573F
:10057000555351504E4C4A4947454342403E3D3BFE
:100580003A3836353332302F2D2C2A292826252388
:1005900022FFAA7F55400001010101010101010173
:1005A0000202020202020202020303030303030324
:1005B00003040404040404040505050505060606F1
:1005C0000606070707070708080808090909090AAE
:1005D0000A0A0B0B0B0C0C0C0D0D0D0E0E0E0F0F53
:1005E0000F101011111112121313141415151616E1
:1005F0001717181819191A1A1B1B1C1D1D1E1E1F50
:100600002020212222232424252626272829292A9E
:100610002B2C2D2D2E2F30313232333435363738C6
:10062000393A3B3C3D3E3F404142434445464748C2
:10063000494A4C4D4E4F50515354555658595A5B98
:100640005D5E5F616264656668696B6C6D6F707238
:10065000737577787A7B7D7E8082838587888A8CA4
:100660008E8F91939596989A9C9EA0A2A3A5A7A9D8
:10067000ABADAFB1B3B5B7BABCBEC0C2C4C6C9CBCF
:10068000CDCFD1D4D6D8DBDDDFE2E4E7E9EBEEF085
:10069000F3F5F8FAFDFF0A03430055003800300077
:1006A00000001A03430061007000730055006E00E3
:1006B0006C006F0063006B006500640000000403C1
:1006C000090409025B00030100A0FA09040000010B
:1006D00003010100092111010001224000070581E9
:1006E0000308000A090401000203000000092111A7
:1006F00001000122220007058203200001070503F3
:100700000320000109040200010300000009211177
:10071000010001226D000705840320000A12011068
:10072000010000000855438000010001020001069D
:1007300060FF0961A1010962150026FF009520757F
:100740000881020963150026FF00952075089102B3
:10075000C005010980A101850319012AB70015010F
:1007600026B700950175108100C0050C0901A10193
:10077000850419012AA002150126A0029501751011
:100780008100C005010906A1018505050719E029B9
:10079000E715002501950875018102050719002953
:1007A000EF1500250195F075018102050819012951
:1007B00005950575019102950175039101C005012B
:1007C0000906A101050719E029E71500250195088B
:1007D000750181029501750881010507190029FF3E
:1007E000150026FF009506750881000508190129E6
:1007F00005950575019102950175039101C01124BC
:100800001FBECFEFDAE0DEBFCDBF04B603FE27C0C8
:100810008091DD059091DE05A091DF05B091E005A6
:100820008730904BA740B04BD1F41092DD05109269
:10083000DE051092DF051092E00514BE84B7877FB5
:1008400084BF0FB6F894A89580916000886180936A
:100850006000109260000FBEE0E0F8E3099511E03F
:10086000A0E0B1E0E0E8FAE502C005900D92A83DF5
:10087000B107D9F725E0A8EDB1E001C01D92AD3D6B
:10088000B207E1F70E94BD250C94EF2C0C940000F8
:1008900081E0089581E008950C944A0408950C9431
:1008A0004E041F93CF93DF9300D000D00F92CDB7AB
:1008B000DEB749835A836B833091C20389819A8161
:1008C00031111DC06623B9F02223A9F00E945420E3
:1008D000182F682F89819A810E94002069817A816E
:1008E000812F0F900F900F900F900F90DF91CF916D
:1008F0001F910C94B8130E942C20182FEFCF0E9448
:10090000542069817A81EDCFFC01262F40815181ED
:100910006281738184810C945104CF93DF93EC0145
:1009200060E00E948404BE01DF91CF910C944F04DB
:10093000FF920F931F93CF93DF93E82FF0E0E452E1
:10094000FC4FF490C82FC695C695C695D0E0FE0121
:10095000E459FB4F0491877010E0082E02C01595F2
:1009600007950A94E2F701701127C45ADB4FFE0184
:10097000C491D0E002C0D595C7958A95E2F7C170C1
:10098000DD270115110519F081EE0E94111820973D
:1009900019F086EE0E9411188F2D0E94EA18CD2BB7
:1009A00019F086EE0E949B18012B41F081EEDF9139
:1009B000CF911F910F91FF900C949B18DF91CF91D5
:1009C0001F910F91FF900895EF92FF920F931F9345
:1009D000CF93DF93EC01162F0AE08881882309F476
:1009E00054C0813009F04EC08981813099F47E0174
:1009F00022E0E20EF11C8A810E94EA18E7012196AA
:100A0000812F815050F3EFE9FFE03197F1F700C0FB
:100A10000000F7CF823041F47E0182E0E80EF11C45
:100A20008A810E941118EACF833041F47E01E2E00E
:100A3000EE0EF11C8A810E949B18E0CF843011F0E9
:100A40002196DDCF2A81229690E080E0AE014F5FB3
:100A50005F4F2053330B2A30310548F0019778F26D
:100A6000EFE9FFE03197F1F700C00000F7CF089FF2
:100A7000B001099F700D1124C901860F971F2981AC
:100A8000EA01E4CF0E949804BACFDF91CF911F9181
:100A90000F91FF90EF90089560E00C94E4048F9222
:100AA0009F92AF92BF92CF92DF92EF92FF920F93FD
:100AB0001F936B017C0181E090E0A0E0B0E04C016D
:100AC0005D0104C0880C991CAA1CBB1C4A95D2F776
:100AD000B501A4014C015D0104C0880C991CAA1C3D
:100AE000BB1C2A95D2F7482959296A297B2904C0B9
:100AF000880F991FAA1FBB1F0A95D2F78A019B0175
:100B00000C211D212E213F21041715072607370729
:100B100089F48C299D29AE29BF29BC01CD011F91E3
:100B20000F91FF90EF90DF90CF90BF90AF909F908C
:100B30008F90089580959095A095B0958C219D21DA
:100B4000AE21BF21EACF0F93382F262F60913C04AE
:100B500070913D0480913E0490913F04042F432FF7
:100B60000E944F050F910C943E1F0E94FD230E948E
:100B70009E21811102C00E9442220C941B080C94F9
:100B80001E0808950E946A1B0E94C1052FEF84E38E
:100B90009CE0215080409040E1F700C000000C94A0
:100BA000D7230F931F93CF93DF93EC0161E00E9453
:100BB00084048C01BE010E948C11882389F1BE013E
:100BC000C8010E944C04882359F1BE01C8010E944B
:100BD000ED14882329F1BE01C8010E943F15882326
:100BE000F9F0BE01C8010E9462168823C9F0BE0157
:100BF000C8010E949910882399F08A81882339F0CE
:100C000001158CE5180751F00F3D1C4579F0CE0118
:100C1000DF91CF911F910F910C9448040E94C2055F
:100C200080E0DF91CF911F910F9108950E944222A1
:100C3000F7CF08950C94190681E008950C941C06D2
:100C4000CF93C82F0E941A068C2FCF910C941E06AA
:100C500090E080E008950895FC01EE0FFF1FE45836
:100C6000FB4F859194910895CF93DF930E94B81321
:100C70000E944007EC01811520E5920708F041C071
:100C8000811530E4930708F0B4C0803E910518F553
:100C9000803C910508F09DC0883A910570F4853A32
:100CA000910508F08EC081309105F9F00097E9F0C8
:100CB0000497D8F4D0E0C0E018C08F3B9105D0F77E
:100CC000C85AD0E0CC0FDD1FCC5DDE4F0990D88133
:100CD000C02DD4640AC08115904258F4C11581E03A
:100CE000D80718F4C83ED10528F7CE01DF91CF917F
:100CF0000895C11590E3D90708F071C0CE019F7027
:100D00006AC0811525E5920758F5811534E59307EA
:100D100008F09EC0811542E5940750F4C11581E5A5
:100D2000D80708F469C0DC2FCC27C16FD06ADDCFAB
:100D3000982F969596959E0123703327C115D3451C
:100D400008F077C0C1E0D0E002C0CC0FDD1F2A95CB
:100D5000E2F720E2929FC0011124C82BD92B67C073
:100D6000C11589E5D807A8F4C11598E5D90708F099
:100D700074C0C11526E5D20708F09CCF8C2F0E94C5
:100D8000D707C82FD0E0DC2FCC27CC27DF71D0626B
:100D9000ACCFC1153AE5D30708F464C0CE01905634
:100DA0008115904208F086CF8D2F8F710E94D70752
:100DB00090E0982F882788279F719C012C2BE901B0
:100DC000E6CFC55AD0E0CE5ADE4FC881D0E0D0641D
:100DD0008CCF805C91090E942C06EC0186CFCE015D
:100DE0009927D3FF03C0EC01D86C7FCFEC01D06C06
:100DF0007CCFDF70D06A79CFCE01E4E096958795FD
:100E0000EA95E1F783702C2F26952695237090E2C2
:100E1000299F90011124382B8C2F8370C1E0D0E0E2
:100E200002C0CC0FDD1F8A95E2F7C22BD32BDC6802
:100E30005CCFC1E0D0E002C0CC0FDD1F2A95E2F705
:100E400030E2939FC0011124C82BD92BDA684DCF13
:100E5000D82FCC27C46FD06A48CFDC2FCC27C06FE7
:100E6000D06A43CF8C2F8F700E94D70734E0D6957D
:100E7000C7953A95E1F7CF709C2FEC01D06935CF3B
:100E800082389105B1F1B0F48133910509F475C050
:100E900048F48932910509F469C08A32910509F450
:100EA00073C008958533910509F459C089339105BC
:100EB00001F10895833E9105A9F138F4803E910532
:100EC000F9F0823E910549F10895863E9105A9F118
:100ED000873E9105C9F1843E910519F52091CF0512
:100EE00021FF1FC08091CE0584FD14C087EE90E0E5
:100EF00008952091CE052370A1F080EE90E0089532
:100F00002091CE0520FD47C03091CF0530FF09C0AC
:100F100024FF44C090E080E004C02091CE0522FD73
:100F2000F7CF08952091CE0522FD3BC03091CF052B
:100F300030FDE3CF24FFF5CFEDCF2091CE0523FF89
:100F4000F0CF24FDE7CFD2CF2091CE0523FD2CC0DA
:100F50003091CF0531FFEECF84EE90E008952091DF
:100F6000CE0525FFDECF89E290E008952091CE05E1
:100F700025FFD7CF85E390E008952091CE0526FF89
:100F8000D0CF8AE290E008952091CE0526FFC9CF08
:100F900081E390E0089589E390E0089583EE90E086
:100FA000089582EE90E0089586EE90E00895909185
:100FB000CE0592FF06C0282F28712830F9F4877FCC
:100FC000846093FF06C0282F28712831F1F4877EB2
:100FD00084612091CF0520FF06C0382F387138304A
:100FE000D9F4877F816021FF06C0282F287128311E
:100FF000D1F4877E816194FD877E0895282F247126
:101000002430F9F68B7F8860DCCF282F24712431BF
:1010100001F78B7E8861DDCF382F3171313019F7C0
:101020008E7F8860E0CF282F2171213121F78E7EBD
:101030008861E1CF08950C941A0808950C941D0856
:1010400094E0899FF0011124EB55FB4F6081718181
:10105000828193810895089580EA8A95F1F7089531
:10106000F894E82FE295EF70F0E031A1282F2F706F
:1010700081E090E001C0880F2A95EAF7982F9095BB
:10108000932391A392A1892B82A3789408950F931F
:101090001F93CF93DF9383E90E94300882E90E9477
:1010A000300887E30E94300881EF0E94300887E60D
:1010B0000E94300885E90E943008C5E5D1E006E6C7
:1010C00011E089910E9430080C171D07D1F7EDE857
:1010D000F4E0A5EAB4E011921192119211921D92DE
:1010E0001D921D921D9284E0E53AF807A1F786E073
:1010F0000E941E09DF91CF911F910F910C94B505AD
:101100004F925F926F927F928F929F92AF92BF9217
:10111000CF92DF92EF92FF920F931F93CF9306E649
:1011200011E03DE8E32E34E0F32EC0E0CC24C3947C
:10113000D12CF80181918F01F894E82FE295EF709E
:10114000F0E021A18F70260102C0440C551C8A9545
:10115000E2F7C201922F982B91A392A18095892347
:1011600082A378940E942C08A5E5B1E090E080E08D
:10117000812C912C54014D91E42FE295EF70F0E019
:1011800020A130E04F7002C0359527954A95E2F7CF
:1011900020FD4EC0412C512C32014394082E04C036
:1011A000440C551C661C771C0A94D2F7B301A201AB
:1011B000842A952AA62AB72A019681319105D9F663
:1011C000F801319780810E943008F7018081918178
:1011D000A281B38188169906AA06BB0669F18082AE
:1011E0009182A282B38281E0C82BF4E0EF0EF11C61
:1011F00041E00C36140709F09CCF2C2F46E065EA3D
:1012000074E08DE894E00E941F090E94BF058C2FB6
:10121000CF911F910F91FF90EF90DF90CF90BF90F3
:10122000AF909F908F907F906F905F904F900895B8
:1012300040E050E0BA01BCCF80E0D6CF0895FF92E5
:101240000F931F93CF93DF93F82ED92F8B01C42FC9
:10125000222349F081E08093DA010E948C2390934D
:10126000D9018093D8018091DA01882399F0809187
:10127000D8019091D9010E94A423069758F0EF2D30
:10128000FD2FD80190E080E0D0E08C179D0744F05E
:101290001092DA01DF91CF911F910F91FF90089585
:1012A00001911191219131910D931D932D933D93B6
:1012B0000196EBCFEF92FF920F931F93CF93DF93A3
:1012C000EB01E82FD11110C0442321F0F0E0EA56E1
:1012D000FA4FE4916E2F7E2F8E2FDF91CF911F91C9
:1012E0000F91FF90EF9008950D2F10E0282F30E020
:1012F000442329F02A563A4FF901249130E0F6E0D0
:10130000CF9FC0011124EFEFF0E0BF010E94972BA7
:10131000AB018C2F90E0880F991FA5E5A49FB00129
:10132000A59F700D1124861B970B982F990F980F6E
:10133000BF01601B710B629FD001639FB00D729F54
:10134000B00D11248B2F9D9FB0011124672F77279B
:10135000EF01C61BD70BBE01629FE001639FD00D5A
:10136000729FD00D11247F01E91AF108E09EB001AF
:10137000E19E700DF09E700D1124672F7727E61BFC
:10138000F70BE29F8001E39F100DF29F100D1124D7
:10139000E12F722F4230510599F048F44115510563
:1013A00069F04130510581F0EB2F8D2F07C044309B
:1013B000510569F080F046305105B1F76E2F8DCFA1
:1013C000E22F7B2F812FFACFE22F7D2FF7CFEB2F4C
:1013D000822F712FF3CF7B2F822FED2FEFCF41E0A4
:1013E0000C945A0908950C94EF09CF93DF93762F4C
:1013F000E901682F842F0E94F309798368838A8327
:10140000DF91CF9108958091BD04982F9E7F29F49C
:10141000817082608093BD0408958635E8F3817001
:101420008465F8CF88E090E00C94902CCF92DF9206
:10143000EF92FF926B017C010E94030AB701A601A3
:1014400088E090E0FF90EF90DF90CF900C94AE2C6E
:101450006091BD047091BE048091BF049091C0045E
:101460000C94160AEDEBF4E083E0808311828FEF99
:1014700082838383148260817181828193810C9441
:10148000160A8091BD0480FF02C08695089580E011
:1014900008959091C104933018F49F5F9093C10414
:1014A000882351F06091BD047091BE048091BF0407
:1014B0009091C0040C94160A089581E00C94490A96
:1014C0009091C104992319F091509093C1048823FD
:1014D00051F06091BD047091BE048091BF04909161
:1014E000C0040C94160A089581E00C94600A80915F
:1014F000C10408958093C104662351F06091BD0436
:101500007091BE048091BF049091C0040C94160A9F
:10151000089560E00C947A0A8091BE040895809149
:10152000BF0408958091C004089570E00C940911DF
:10153000609108018091BD0480FF0AC0809107017D
:1015400023E0829FC00111248E539B4F0C94950A77
:101550008091090190910A0123E0829FF0011124FA
:10156000EE53FB4F891750F71182108212828F5F62
:101570003396F8CF9091BD0490FF14C0909109016B
:1015800020910A0133E0939FF0011124EE53FB4FA9
:10159000921710F00C94980A8183608342839F5FB6
:1015A0003396F6CF0895CF93DF9300D00F92CDB747
:1015B000DEB79091BD0490FF0AC09E012F5F3F4FA0
:1015C0000E94F5094B8169818A810E94BA0A0F90B5
:1015D0000F900F90DF91CF910895CF93DF93EC019F
:1015E000EC81F0E0EF56FB4F4491EDEBF4E06281CB
:1015F00081810E94D30A8C818F5F8C83DF91CF9190
:101600000895CF93DF93EC01EDEBF4E04381628129
:101610008C810E94D30A8C818F5F8C83DF91CF9164
:1016200008950F931F93CF93DF9300D00F92CDB700
:10163000DEB78C018091DB0181110AC09E012F5F12
:101640003F4F4FEF6FEF0E94F5098A818093DB01D6
:10165000F8016481613069F08091DB0140E066232C
:1016600061F040E0623011F44091DB0180E060E025
:1016700004C06091DB0140E080E00E94BA0AF801FA
:10168000848190E0019663E070E00E94AB2B84833C
:101690000F900F900F90DF91CF911F910F910895B0
:1016A000AF92BF92CF92DF92EF92FF920F931F9370
:1016B000CF93DF9300D00F92CDB7DEB7182FF62E61
:1016C000042FE22E9091BD0490FF29C0E92FE695EA
:1016D000AE2FB0E0A459BE4F8C9180939D039E7FA6
:1016E000923059F59E012F5F3F4F812F0E94F509DF
:1016F0004B8169818A810E94BA0A1093BE04F092DC
:10170000BF040093C004EE2051F06091BD047091BD
:10171000BE048091BF049091C0040E94160A0F90ED
:101720000F900F90DF91CF911F910F91FF90EF904D
:10173000DF90CF90BF90AF900895823019F4009160
:10174000C004DBCF863019F41091BE04D6CF8930A7
:10175000D9F3893191F6E9518E2F8170D82EE69513
:10176000F0E0EF56FA4FA590B490C12CBB246091E5
:101770000B01C61618F00E94980ABFCF2C2D30E03E
:10178000A29EC001A39E900DB29E900D112470E008
:101790000E94972B812FD11013C0860F4091090111
:1017A000420F532F511D9A01220F331F240F351F53
:1017B0002E533B4F402F6F2D0E94F509C394D7CF76
:1017C000861BECCFEDEBF4E09181282F4381628101
:1017D00088E0890F0C94500B81E00C94E20BEDEB48
:1017E000F4E09181282F4381628188EF890F0C9466
:1017F000500B81E00C94EF0BEDEBF4E0628128E0FC
:10180000620F08F46FEF282F438181810C94500BF5
:1018100081E00C94FC0BEDEBF4E0628128E0621BAC
:1018200008F460E0282F438181810C94500B81E003
:101830000C940B0CEDEBF4E0438128E0420F08F42C
:101840004FEF282F628181810C94500B81E00C9422
:101850001A0CEDEBF4E0438128E0421B08F440E071
:10186000282F628181810C94500B81E00C94290C0B
:1018700020E00C94500BEF92FF921F93CF93DF93D5
:10188000EC0110E0EE24EA94F12C60910B011617A4
:1018900070F00E94980A9A818C8190FF27C08F5F18
:1018A0008C83DF91CF911F91FF90EF90089520914D
:1018B0000901422F410F5527551FCA019A01220FD6
:1018C000331F280F391F2E533B4F70E0C7010E9472
:1018D000AB2B962F8C814091C0046091BF04199F5F
:1018E000800D11240E94F5091F5FCFCF8150D8CF02
:1018F000AF92BF92CF92DF92EF92FF920F931F931E
:10190000CF93DF93FC0182810FEF80FF01E010E0B5
:1019100048E5A42E80910B011817C8F00E94980A80
:101920008091DD01013009F055C0811102C0809124
:101930000B0181508093DD01DF91CF911F910F91B9
:10194000FF90EF90DF90CF90BF90AF900895C0913F
:101950000901C12ED12CCC0DDD2DD11DCE01880F5A
:10196000991FC80FD91FCE53DB4F198218821A82D4
:1019700034E0E32EF12CB12C8091DD018B0D893503
:101980001CF16A2D0E94892B892F082E000C990BBF
:10199000C816D90691F48091C0048E9DA0018F9D38
:1019A000500D112455954795559547959E01609189
:1019B000BF048091BE040E94F509B00EF1E0EF1A59
:1019C000F108D1F61F5FA6CF87FFDFCF90910B0103
:1019D000890FDBCF90E0019660910B0170E00E94CF
:1019E000AB2BA8CF0F931F93CF93DF938091090167
:1019F00090910A0123E0829FF0011124EE53FB4FE6
:101A0000891740F1C0E0D3E060910B01C61740F1A7
:101A10000E94980A209105018091DC01820F809339
:101A2000DC0190910601920F90930601191654F46F
:101A3000082E000C990B40910B014150550B841757
:101A400095071CF0219520930501DF91CF911F91FF
:101A50000F9108951182108212828F5F3396D0CF3A
:101A60000C2F10E070E0C8010E94AB2B20910901FF
:101A7000820F482F50E02091DC01022E000C330B26
:101A800002171307BCF020910601022E000C330B45
:101A9000201731077CF08D9F900111242E533B4F6E
:101AA0004091C0046091BF048091BE040E94F5097A
:101AB000CF5FAACFFA01EE0FFF1FE40FF51FEE5321
:101AC000FB4F118210821282F3CF8F929F92AF92BE
:101AD000BF92CF92DF92EF92FF920F931F93CF931B
:101AE000DF93EC014C81042F10E09801D8010E9493
:101AF000F62B9B01AC010E940C2C4B015C01E0E237
:101B0000F0E0E01BF10BA5E5B0E0AC019B010E9409
:101B10000C2C6B017C019F01DF010E94EE2B9B01CD
:101B2000AC010E94172C9B01AC01280D391D4A1DE8
:101B30005B1DC701B6010E94BF2BF22E822F90E0E1
:101B400039E23F1560F143E0249F9001112435955F
:101B50002795122F109500E085E5E82EEF1880916B
:101B60000B01081758F10E94980A9C8181E0992383
:101B700019F0903219F48FEF8093040180910401E1
:101B8000890F8C83DF91CF911F910F91FF90EF9080
:101B9000DF90CF90BF90AF909F908F90089525E5F4
:101BA00030E0B901681B790B9B01220F331F260F10
:101BB000371F37FFCCCF2F5F3F4FC9CF8E2D01FD91
:101BC0008F2D20910901622F600F7727771F9B01CE
:101BD000220F331F260F371F2E533B4F412F60918B
:101BE000BF040E94F5090F5FBACF0F931F93CF93E5
:101BF000DF93EC0110E000E090910B0190171106CB
:101C000009F06CF40E94980A8C8190E00196817032
:101C100099278C83DF91CF911F910F910895209187
:101C20000901A801420F511D9A01220F331F240FF1
:101C3000351F2E533B4F4C816091BF048091BE04F1
:101C400096959017110651F04CF0442349F04091BD
:101C5000C0040E94F5090F5F1F4FCECF4423B9F394
:101C600040E0F7CF8F929F92AF92BF92CF92DF92D8
:101C7000EF92FF920F931F93CF93DF93FC01B280FB
:101C8000948081E0848300E015E05BE4A52E882445
:101C90008394EE24EA94F12C7BE4C72ED12C80911E
:101CA0000B01081770F0DF91CF911F910F91FF90FA
:101CB000EF90DF90CF90BF90AF909F908F900C945B
:101CC000980AC02FD0E01C9FF0011D9FF00D112439
:101CD000E252FE4F91101CC0138212822091090122
:101CE000CE01820F911D9C01220F331F280F391F37
:101CF0002E533B4F1C9FF0011D9FF00D1124E2520B
:101D0000FE4F4281618180810E94F5090F5FC7CF3C
:101D10002381222379F12150238334818A2D821B50
:101D2000311101C0822F1C9FF0011D9FF00D112465
:101D3000E252FE4F9091C004899FC0011124B60168
:101D40000E94972B6283211104C0332311F0148267
:101D5000A38222E02B1510F21C9FF0011D9FF00DB5
:101D60001124E252FE4F8091BE0480838091BF0413
:101D70008183B4CF0E946B2C823091400CF0AECFA7
:101D800082E08B1530F50E946B2CB7010E94AB2BC3
:101D90001C9FF0011D9FF00D1124E252FE4F808325
:101DA00022E02B15C8F40E946B2C2091BF042695CD
:101DB000622F70E00E94AB2B280F1C9FF0011D9F2B
:101DC000F00D1124E252FE4F21831282A3828482FD
:101DD00085CF8091BE04DCCF2091BF04EECFEDEB28
:101DE000F4E080818E7F8083608171818281938124
:101DF0000E94160A10929E032FEF80E792E0215076
:101E000080409040E1F700C000000C94980AEDEB90
:101E1000F4E080818E7F808310929E032FEF80E715
:101E200092E0215080409040E1F700C000000C9407
:101E3000980A6091BD04669570E04BE050E08CE03C
:101E400091E00E947B2C892B19F481E080939E0302
:101E50000E948C239093970380939603089590910A
:101E6000BD0490FF35C09170811128C0926090939D
:101E7000BD04662351F06091BD047091BE04809151
:101E8000BF049091C0040E94160A6091BD0466953B
:101E900070E04BE050E08CE091E00E947B2C892BBD
:101EA000A1F010929E0381E0809399034091C004B9
:101EB0006091BF048091BE040C94380C8B3210F0FA
:101EC0009465D5CF880F982BD2CF0E94190FEBCFF6
:101ED0000895682F9091BD04969581E0890F8B320B
:101EE00008F081E00C942F0F81E00C94690F682FAB
:101EF0009091BD0496958FEF890F09F48AE20C94B6
:101F00002F0F81E00C94770F61E00C942F0FEDEB15
:101F1000F4E080818160808386950C94840F8091A9
:101F2000BD0480FD0C94EF0E0C94870F60E00C94C0
:101F30002F0F80919C0381112EC00E949E21811140
:101F400004C00E9442220E94320A0E94120A609338
:101F5000BD047093BE048093BF049093C0046E7F51
:101F600061F40E94320A0E94120A6093BD047093C9
:101F7000BE048093BF049093C0040E94030A109291
:101F80009E038091BD0480FF03C086950E94960F3A
:101F900081E080939C030895EDEBF4E08081816003
:101FA000808386950C94960F0F931F93CF93DF93A6
:101FB00080919E03882309F49DC080919D03E09148
:101FC000BD04E695E81BE09398038230C9F5F0E084
:101FD000E357FB4FE491CE2FD0E00DEE1AE0809155
:101FE0009903882389F0109299030E948C239E0103
:101FF00020953095820F931F9093970380939603BB
:1020000010929B0310929A038091960390919703EC
:102010000E94A4238C179D0708F46CC0E0919603DE
:10202000F0919703CE0FDF1FD0939703C0939603D1
:1020300086E993E0F801DF91CF911F910F91099408
:10204000863049F4F0E0E657FB4FE491CE2FD0E024
:1020500001E01BE0C4CF893051F4E695F0E0E95788
:10206000FB4FE491CE2FD0E00BE31CE0B8CF8F30D4
:1020700051F4E695F0E0EC57FB4FE491CE2FD0E021
:1020800008E71CE0ACCF853149F4F0E0EF57FB4F97
:10209000E491CE2FD0E002EF1CE0A1CFC8E2D0E067
:1020A00005E61DE0883109F49ACF833239F4EFE771
:1020B000F4E0C591D49101E11BE091CFC4EFD1E0F0
:1020C00005EF1DE0843209F48ACFC0EDD7E002EFBE
:1020D00019E0853209F083CF8E2F63E00E947D2BBB
:1020E000E92FF0E0E458FB4FE491CE2FD0E002E37B
:1020F0001EE075CFDF91CF911F910F910895FA01E6
:10210000811101C0FB010994CF93DF93C82FD62F13
:102110000E94410A8C1740F00E94410A8D1720F45A
:10212000DF91CF910C94740F8C2FDF91CF910C9491
:10213000840F0F931F93CF938C01FB01C281CC239B
:1021400009F465C00E94E9208272F801E35CFC4555
:10215000E431F10538F4EF50F34D0C94E12B0E947B
:102160008F0FC0E08C2FCF911F910F91089541E800
:102170005FE064E77FE00E947F10F3CF44E75FE019
:1021800061E87FE0F8CF49EF5BE06CEE7BE0F3CFF6
:102190004CEE5BE069EF7BE0EECF47E15CE068E0AE
:1021A0007CE0E9CF48E05CE067E17CE0E4CF45E338
:1021B0005CE066E27CE0DFCF46E25CE065E37CE089
:1021C000DACF44E75AE06DE57AE0D5CF4DE55AE045
:1021D00064E77AE0D0CF81E00E94840FC2CF65E04F
:1021E00082E00E948410BDCF68E086E0FACF6EE006
:1021F00089E0F7CF64E18FE0F4CF67E185E1F1CFCB
:1022000088E1EACF62E289E1ECCF83E2E5CFC1E089
:10221000A9CF6E9A4EB14F7B5EB15064EFB7F89480
:102220009B01220F331F260F371F280F391F281736
:10223000390741F4EFBF8FE594E00197F1F700C053
:1022400000000895DC016D91CD0178E05EB90000D9
:1022500000C067FF4EB9660F000000C000C000C09C
:102260004EB900C07A9591F7E2CF82E290E00E94E9
:10227000882C813289F483E290E00E94882C82309D
:1022800059F484E290E00E94882C91E0843009F0B7
:1022900090E0892F8170089580E0FCCFCF93C82F04
:1022A0006FEF811161E282E290E00E949C2C6FEF5F
:1022B000C11162E083E290E00E949C2C6FEFC1119B
:1022C00064E084E290E0CF910C949C2C80E00E942A
:1022D0004E110C949821089585E290E00E94882C7C
:1022E000682F70E090E080E0089585E290E00C9423
:1022F0009C2C0E946B110E94351181110CC060E072
:1023000070E0CB010E9475110E9430130E941A14D4
:1023100081E00C944E110895CF93FB01C281CC2330
:1023200009F19C0122513F452031310520F58251B0
:102330000E942A14C0E08C2FCF91089581E00E9462
:10234000641F43E062E081E00E94A305F3CF81E0D7
:102350000E94851F43E062E081E00E94A305EBCF6D
:1023600082E0F6CF8031FFE59F0789F381319F45F9
:10237000B9F3C1E0E0CF8031EFE59E07F9F281319A
:102380009F45C9F682E0DBCF2FEFFC012083089543
:10239000CF93DF93EC0188818138A9F028F480384D
:1023A00071F0DF91CF910895823881F08338C9F7B9
:1023B0000E948C0A89830E948F0A8A83F2CF0E942E
:1023C000920A8983EECF0E94410AFBCF0E94770ACE
:1023D000F8CFCF93DF93EC0188818138E1F028F4C6
:1023E000803869F0DF91CF910895823811F18338F8
:1023F000C9F70E94920A482F6A81898108C0D98151
:102400000E948F0AC82F0E948C0A4D2F6C2FDF91DB
:10241000CF910C94380C89810E94960F898181118B
:1024200004C0DF91CF910C94070FDF91CF910C94F2
:10243000CC0F8981DF91CF910C94890AEF92FF92A2
:102440000F931F93CF93DF93EC01E62EDC01ED9108
:10245000CD01E150E33108F0C0C0F0E0EB5FF24D98
:102460000C94E12B198289E08A836E2DCE01DF91D5
:10247000CF911F910F91FF90EF900C94B12489811F
:10248000823069F0833071F08130E1F40E9498234A
:102490000E94E72B6A837B838C839D83E6CF0E9417
:1024A0006C11F6CF8E01F12C8F2D0E942008F801BF
:1024B000828373836483F3940D5F1F4FF6E0FF12F2
:1024C000F3CFD3CF6E2DCE010E94C411CECF898120
:1024D0008230C1F76A817B818C819D810E94E72BCC
:1024E0000E947511C2CF4B816A8189810E940213BB
:1024F0009827892798279D838C83B7CF2C813D818E
:102500003227232732274B816A8189810E941B133E
:10251000ACCF0E943013A9CF0E94E911A6CF0E9430
:10252000C811A3CF0E94280AA0CF0E94C513898397
:102530009CCF0E94C7139827892798279A8389835D
:1025400094CF6B8170E089819A81AE014C5F5F4FBF
:102550009827892798270E94CA1387CF6B8170E03C
:1025600089819A81AE014C5F5F4F98278927982710
:102570000E94F0137ACF0E941A1477CF0E94F012B3
:10258000D6CF6B8170E089819A81AE014C5F5F4F3D
:102590009827892798270E94681367CF6B8170E07E
:1025A00089819A81AE014C5F5F4F982789279827D0
:1025B0000E948E135ACF0E94661157CFCE010E94FF
:1025C000B1242FEF81EE94E0215080409040E1F75C
:1025D00000C000000E94D72348CF8FEF888345CFEB
:1025E00084E0089550E0440F551F92E2699F400D2A
:1025F000511D11249CEC899F400D511D1124CA01CD
:10260000869608950F931F93CF93DF930E94F21243
:102610008C010E94882CC82FD0E0DC2FCC27C80169
:1026200001960E94882C9E01282BC901DF91CF9131
:102630001F910F9108950F931F93CF93DF93122F44
:10264000032F0E94F212EC01602F0E949C2C612F3C
:10265000CE010196DF91CF911F910F910C949C2C8C
:10266000AF92BF92CF92DF92EF92FF921F93CF93E0
:10267000DF938CEAC82E80E0D82ED0E07601C0E04F
:1026800014C0F50125913491412F6C2F8D2F0E949C
:102690001B1382E0A80EB11C1F5F113191F782E27B
:1026A000E80EF11CCF5FC63019F0570110E0E9CFFA
:1026B000DF5F8CECC80ED11CD43001F7DF91CF91D5
:1026C0001F91FF90EF90DF90CF90BF90AF90089553
:1026D000EF92FF920F931F93CF93DF93EC018A0148
:1026E0007C01E60EF71ECE018696CE15DF0539F485
:1026F000DF91CF911F910F91FF90EF900895C0331C
:1027000023E0D20740F40E94882CF80180830F5FF9
:102710001F4F2196E8CFF8011082F9CFCF92DF92B8
:10272000EF92FF920F931F93CF93DF937C016A0187
:102730008C01060F171FEC01CE018696C017D1073A
:1027400049F4DF91CF911F910F91FF90EF90DF90AF
:10275000CF900895C03323E0D20740F4FE01EE1974
:10276000FF09EC0DFD1D60810E949C2C2196E4CF99
:10277000462F843038F4763028F4613118F4672F0E
:102780000C94021390E080E0089580E108958AEAB5
:1027900090E00895EF92FF920F931F93CF93DF93F2
:1027A000EC018A017C01E60EF71ECE018A5A9C4F8D
:1027B000CE15DF0539F4DF91CF911F910F91FF9076
:1027C000EF900895CA3AD10540F40E94882CF80190
:1027D00080830F5F1F4F2196E8CFF8011082F9CF59
:1027E000CF92DF92EF92FF920F931F93CF93DF93DD
:1027F0007C016A018C01060F171FEC01CE018A5A79
:102800009C4FC017D10749F4DF91CF911F910F91D1
:10281000FF90EF90DF90CF900895CA3AD10540F431
:10282000FE01EE19FF09EC0DFD1D60810E949C2C3C
:102830002196E4CFCF93DF93C6E5D3E060E0CE01ED
:102840000E949C2C2196C11584E0D807B9F7DF912E
:10285000CF910895DF92EF92FF920F931F93CF9342
:10286000DF9300D000D0CDB7DEB7F82E8FE08F1504
:1028700040F08FEF93E00E94882C06E513E0882358
:10288000C1F00F900F900F900F90DF91CF911F919B
:102890000F91FF90EF90DF900895011584E01807E5
:1028A00081F3C8010E94882C811101C0FA940F5F46
:1028B0001F4FF110F2CF19821A821B821C82DD2475
:1028C000D39478018FEFE81AF80AC8010E94882C87
:1028D00089831A828823A9F29FEF980F933078F4A6
:1028E0008A83D9820E5F1F4FC7010E94882C8B8379
:1028F000882339F2CE0101960E944C05E2CF870170
:10290000F9CF0F931F93CF93DF93C42FD22FFC01E6
:1029100082818823C9F04093A1030E948C23909365
:10292000A00380939F0380E28C0F883008F050C092
:10293000C77081E001C0880FCA95EAF7DF91CF9197
:102940001F910F910C94FD181091A103141335C021
:1029500080919F039091A0030E94A423883C91053D
:1029600060F5C0E2CD0F1D17B9F080E2810F88300D
:1029700040F4177081E001C0880F1A95EAF70E94B1
:102980000419C83048F481E09D2F977001C0880F6A
:102990009A95EAF70E94FD18802F0E94EA18C83025
:1029A000B8F4D77081E001C0880FDA95EAF7DF91BB
:1029B000CF911F910F910C94041980E28C0F8830F5
:1029C00038F4C77081E001C0880FCA95EAF7EFCFED
:1029D000DF91CF911F910F9108950F939C01CB012F
:1029E000243F4CE5340759F1A8F4293DFCE53F07A5
:1029F00001F12A3D4CE53407D1F1283D3C4591F4E5
:102A000006E221EE41EE68ED7CE50E94811480E053
:102A10000F910895263FFCE53F07E9F0B0F0273F0E
:102A20003C45F9F0FC018281882339F11092A10321
:102A3000EFCF07E225EE45EE69ED7CE5E6CF06E255
:102A400021EE40EE64EF7CE5E0CF07E225EE44EEB8
:102A500065EF7CE5DACF06E221EE42EE66EF7CE53B
:102A6000D4CF07E225EE46EE67EF7CE5CECF08E255
:102A700021E045EE6AED7CE5C8CF81E0C9CFCF9378
:102A8000DF93EC01FB018281882309F419C1C23074
:102A9000FCE5DF07C0F1C6319CE5D90730F09E01A7
:102AA0002B5F3C452930310570F50E94B121909390
:102AB000CF058093CE05C031ECE5DE0709F4CFC029
:102AC00008F05BC0C8308CE5D80709F4B6C088F5BB
:102AD000C430ECE5DE0709F4A8C0C0F4C2308CE5D0
:102AE000D80709F49CC08091CE058260C330DC45D4
:102AF00009F498C08091CE059091CF050E94BF2126
:102B00000E946A1B80E0DF91CF9108958091CE05ED
:102B10008061C630ECE5DE0709F484C08091CE0503
:102B20008860C730DC4508F47DC08091CE058062A6
:102B300079C0CC308CE5D80709F489C070F4809155
:102B4000CE058C60CA30ECE5DE0709F46BC008F4F2
:102B500078C08091CE058E7F65C0CE308CE5D807D9
:102B600009F479C08091CE058B7FCF30DC4508F425
:102B700059C08091CE058F7E55C0CC3FECE5DE0775
:102B800009F457C030F5C3318CE5D80709F46FC09C
:102B900078F4C131ECE5DE0709F465C0C231DC45EB
:102BA00009F0A8CF0E946A1B8091CE058F773AC0AA
:102BB000C5318CE5D80709F462C008F476C080916D
:102BC000CF058160CB3FDC4509F094CF8093CF05E2
:102BD00091CFC115FDE5DF0709F44DC088F4809160
:102BE000CF058D7FCE3F9CE5D90781F38091CF053E
:102BF0008E7FCF3FDC4550F38091CF058360E6CFD9
:102C0000C230FDE5DF0709F459C008F444C080E094
:102C1000C330DD4509F06ECF0E9444226BCF809116
:102C2000CE0581608093CE0565CF8091CE0584600E
:102C3000F9CF8091CF058260C9CF8091CE058064A5
:102C4000F1CF0E946A1B8091CE058068EBCF809106
:102C5000CE058D7FE7CF8091CE05877FE3CF809132
:102C6000CE058F7DDFCF8091CE058F7BDBCF80912E
:102C7000CE05837FD7CF8091CF058C7FA7CF809162
:102C8000CE0582FB992790F921E0922790FB82F9EB
:102C900090FB83F9C7CF8091CF05982F90959170C5
:102CA0008E7F892B90FB81F991CF0E946A1B9091B6
:102CB000CE05892F97FB87F98058B4CF81E0ACCF40
:102CC00081E021CFCF93DF93EB0186319C4511F555
:102CD0000E94E9209A81992399F08A7A91E009F477
:102CE00090E09093A203811109C089E20E94C42060
:102CF0000E94352180E0DF91CF91089585E3F6CFE2
:102D00008091A203811104C089E20E94CB20F0CF00
:102D100085E3FBCF81E0EFCF9093A8038093A703D7
:102D20000895E091A703F091A803309721F0019056
:102D3000F081E02D099480E00895E091A703F091DF
:102D4000A803309799F020912301222359F0209174
:102D5000CE0527FF07C0DC012C9111962C9311970B
:102D600025E02C930280F381E02D099408952091B1
:102D7000A5033091A6032817390771F09093A60395
:102D80008093A503E091A703F091A803309721F069
:102D90000680F781E02D099408952091A3033091D6
:102DA000A4032817390771F09093A4038093A30319
:102DB000E091A703F091A803309721F00084F185FA
:102DC000E02D0994089585B7806885BF85B7806830
:102DD00085BF0895089508950C94EA1608950C94FB
:102DE000EE160E94E3160E94EB160C94EC1681E09E
:102DF00008950C94F716089508950E9483230E9465
:102E000047080E9479110E9411240E94990F0C9486
:102E1000EF164F925F926F927F929F92AF92BF9206
:102E2000CF92DF92EF92FF920F931F93CF93DF9396
:102E3000CDB7DEB72A970FB6F894DEBF0FBECDBF71
:102E40000E94FB160E94FC160E9480080E94F91640
:102E5000882309F490C04AEAA42E43E0B42E10E07F
:102E600000E0902E802F0E9420082B013C01F501EC
:102E7000C190D190E190F1905F01C414D504E604B3
:102E8000F70409F472C08091690481FD0E942B0847
:102E9000B701A601442555256625772520E0C12CDC
:102EA000D12C7601C394DB01CA018C219D21AE2176
:102EB000BF21892B8A2B8B2B09F44FC02E839F8235
:102EC0004C205D206E207F2081E045284628472841
:102ED00009F480E088870E948C238160782F9A878C
:102EE00089874E815F8168858A850E94E217000F7D
:102EF000111F000F111FF801E655FC4F80819181D1
:102F0000A281B3818C259D25AE25BF258083918329
:102F1000A283B3830E94D40F0E9491169091A903BB
:102F20008917D1F10E9491168093A9032A960FB6B2
:102F3000F894DEBF0FBECDBFDF91CF911F910F91EF
:102F4000FF90EF90DF90CF90BF90AF909F907F90D9
:102F50006F905F904F900C9420062F5FCC0CDD1C7F
:102F6000EE1CFF1C213109F09ECF0F5F1F4F063072
:102F7000110509F076CF8FEF89838A831B820E9427
:102F80008C238160782F9D838C8349815A816B814A
:102F90008D810E94E217BECF2A960FB6F894DEBF4D
:102FA0000FBECDBFDF91CF911F910F91FF90EF909A
:102FB000DF90CF90BF90AF909F907F906F905F9089
:102FC0004F900895CF93DF93CDB7DEB72B970FB611
:102FD000F894DEBF0FBECDBF4F83588769877A87CD
:102FE0008B871E821D8285E0FE013796DE011196D9
:102FF00001900D928A95E1F749815A816B817C811C
:103000008D819E812B960FB6F894DEBF0FBECDBF8B
:10301000DF91CF910C94E01DFC01808191810C9493
:103020009620CF93C82F882309F483C08238C1F437
:103030000E94911681FD7DC089E30E94C4200E94F8
:1030400035212FEF81EE94E0215080409040E1F750
:1030500000C0000089E30E94CB20CF910C94352161
:103060008338A1F40E94911680FD63C083E50E941D
:10307000C4200E9435212FEF81EE94E02150804042
:103080009040E1F700C0000083E5E5CF8438A1F46B
:103090000E94911682FD4DC087E40E94C4200E94C8
:1030A00035212FEF81EE94E0215080409040E1F7F0
:1030B00000C0000087E4CFCF8CEF8C0F813A90F4F2
:1030C0006C2F80911701909118010E945D22882336
:1030D00029F08C2F0E94CB200E9435218C2F0E943A
:1030E000C420BBCF80E28C0F883048F4C77081E0E9
:1030F00001C0880FCA95EAF70E94EC20AECFEBE53D
:10310000EC0FE33040F4F0E0EB53FE4F808190E0B1
:10311000CF910C94B716C85AC73158F4EC2FF0E091
:10312000EE0FFF1FE956FE4F80819181CF910C94E5
:10313000CD16CF910895882309F44BC0823871F4DD
:103140000E94911681FF45C089E30E94C4200E941D
:10315000352189E30E94CB200C943521833859F422
:103160000E94911680FF35C083E50E94C4200E9412
:10317000352183E5EFCF843859F40E94911682FF00
:1031800028C087E40E94C4200E94352187E4E2CF52
:103190009CEF980F913AF0F290E2980F983050F42B
:1031A000877091E001C0990F8A95EAF7892F0E94F4
:1031B000F220D2CF9BE5980F933020F490E080E08E
:1031C0000C94B716885A873120F490E080E00C9474
:1031D000CD160895CF93C82F0E941118C93349F412
:1031E0002FEF87EE93E0215080409040E1F700C040
:1031F00000008C2FCF910C949B18882321F00E9403
:10320000EC200C9435210895882321F00E94F220AF
:103210000C9435210895BF92CF92DF92EF92FF92E6
:103220000F931F93CF93DF936C01D62FC72FFC0111
:10323000058102950F70128111110E9409210E94CF
:10324000E220E82E882391F01123D1F08C2F807F8B
:10325000803421F080E28D0F883090F082E00E946F
:1032600080210E94E22091E0E82EE926BC2EB29453
:103270009FE0B922EB2DF0E0E85EF24D0C94E12BDB
:10328000E12CF4CF0C2F0F70C07F11F00295007F5E
:103290001123A9F0002359F080E28D0F883010F03F
:1032A000D11109C0802F0E94EC200E9435218D2F62
:1032B0000E94111814C0802F0E94FC20F6CF8D2F81
:1032C0000E949B18002359F080E28D0F883010F087
:1032D000D1112CC0802F0E94F2200E9435212B2D6D
:1032E0002850330B2430310520F40E9491160E949F
:1032F0002006EE2009F493C10E94DE2080FD8FC1DC
:10330000F60112820E94D8200E94641FC6010E940A
:10331000301B0E94D820DF91CF911F910F91FF9019
:10332000EF90DF90CF90BF900C94851F802F0E946C
:103330000221D3CFFC2FFF70FF2EC07FC03219F0C7
:10334000F29480EFF822DD2369F0D13049F11123A6
:1033500091F1002351F1F601858180FFA8CF8F7094
:10336000858323C0112381F0011106C00E941C2116
:103370008F290E94FD18B3CF0130C1F70E941C2194
:103380008F290E942221ABCF011106C00E942B2160
:103390008F2D0E940419A3CF013009F4A0CFF6CFDE
:1033A000112329F0063008F09ACF8F2DE2CF053097
:1033B00008F095CFEDCF002359F3D93349F4FFEF4F
:1033C00027EE33E0F15020403040E1F700C000002C
:1033D0008D2F0E949B1883CF8C2F869586958370A6
:1033E00069F0813009F07BCF8D2F9C2F93701111E4
:1033F00002C090E080E00E94CD1671CF8D2F9C2FEF
:103400009370111102C090E080E00E94B71667CF60
:103410008C2F837009F041C0111161CF4D2F42955F
:1034200046954770440F440F0D2F0F7010E030E0A9
:1034300020E0042E04C0000F111F221F331F0A9426
:10344000D2F760E070E0CB01D4FF0FC06FE070E016
:1034500080E090E004C0660F771F881F991F4A958F
:10346000D2F76095709580959095C695C695C37076
:10347000602B712B822B932BC23049F058F4C13052
:1034800019F00E94161F2BCF0E94041F28CF0E9404
:10349000281F25CF0E94021F22CF8695112311F0ED
:1034A0008C2F8170882309F41ACF4D2F42954695B1
:1034B0004770440F440F0D2F0F7010E030E020E0F4
:1034C000042E04C0000F111F221F331F0A94D2F7CD
:1034D00060E070E0CB01D4FF0FC06FE070E080E0EF
:1034E00090E004C0660F771F881F991F4A95D2F796
:1034F0006095709580959095C695C695C370602B24
:10350000712B822B932BC23049F058F4C13019F043
:103510000E94DB1FE4CE0E94C91FE1CE0E94ED1F76
:10352000DECE0E943E1FDBCECF70112329F08C2F00
:103530000E94641F8D2F1DCF8D2F0E9404198C2F88
:103540000E94851FCCCED23F89F160F4D03FC9F0F4
:10355000D13F29F1112309F442C00111A8CE8C2FCB
:103560008F7121C0D33F39F1D43FA1F7112369F105
:10357000CF718C2F0E94641F63E08C2F0E946B21FF
:10358000AECE112341F0053008F0A9CE8C2F8F71FB
:103590000E94A81FA4CE063008F0A1CEF7CF8C2F32
:1035A0008F71112369F20E94641F99CE8C2F8F7145
:1035B0001123C9F3C5CF112329F08C2F8F710E94DD
:1035C0004F1F8DCE0E944A1F8ACE81E00E9480212B
:1035D000023008F484CE82E00E94802180CE002355
:1035E00059F0D93309F0F4CE8FEF97EEE3E0815034
:1035F0009040E040E1F7EACE8C2F8F71A1CF4C2FA5
:103600004F706D2FC6010E9428060E947A1E67CE59
:103610004C2F4F706D2FC6010E942B0660CEDF919C
:10362000CF911F910F91FF90EF90DF90CF90BF90BF
:1036300008950F931F93CF93DF93EC0168817981F5
:103640008A810E94A0208C010E94FF1F0E94011FFE
:10365000B801CE01DF91CF911F910F910C940B19FE
:10366000CF93DF93EC018B819C81892B29F088819A
:10367000998189238F3F59F4DF91CF910895CE012D
:103680000E94191BCE01DF91CF910C948D04CE01C5
:103690000E94D1058111F3CF0E94E220882361F3BB
:1036A0008A81882349F382E0DF91CF910C948021B5
:1036B0000E9409210E9419210E94352190E080E09A
:1036C0000E94B71690E080E00C94CD160E94D220A4
:1036D0000C94581B0E94F9200C94661BE92FE2956C
:1036E000EF70E250EE3070F4F0E0E85DF24D0C94D3
:1036F000E12B803F19F020F4883E20F481E008950A
:10370000843FE1F380E00895883EC0F3813FD1F724
:10371000F5CF93FB882780F908950E9496200C949A
:103720006E1BCF93DF9300D000D00F92CDB7DEB7E2
:103730000F900F900F900F900F90DF91CF91089501
:10374000CF93DF9300D000D000D0CDB7DEB7269660
:103750000FB6F894DEBF0FBECDBFDF91CF910895B5
:103760001F93CF93DF93C091C30316E08091C403EE
:103770008C1304C0DF91CF911F910895D0E01C9F5E
:10378000F0011D9FF00D1124EB53FC4F408151813E
:1037900062817381848195810E94A01B2196C770EC
:1037A000E5CF4091F5035091F6036091F7037091D6
:1037B000F8038091F9039091FA030C94A01B1F93D6
:1037C000CF93DF938091FA03807FA9F48091F70370
:1037D000882389F08091C303C091C4036091F503ED
:1037E0007091F603A091F803B091F903D62FD72377
:1037F00016E0C81304C0DF91CF911F91089590E0A7
:10380000109711F0DF3F19F401968770F2CF189FDF
:103810009001199F300D1124F901EB53FC4F4181A8
:103820004713F2CF40814613EFCF42814111ECCFD5
:10383000438154814A1B5B0B483C510528F780911A
:10384000FA038F7080618093FA03F901E653FC4F0D
:1038500080818F708061808385EF93E00E94301BB0
:10386000DF91CF911F910C94B01BAF92BF92CF927A
:10387000DF92EF92FF920F931F93CF93DF93CDB719
:10388000DEB761970FB6F894DEBF0FBECDBF8C01D7
:1038900085E0F801DE011D9601900D928A95E1F711
:1038A000F80140815181E28085EFC82E83E0D82E57
:1038B0006091F8037091F9036115710509F461C114
:1038C0009091F5032091F603892F82238F3F09F40D
:1038D00058C1A380B480F090F703F501E61BF70B05
:1038E000FF2009F4FCC08091FA03382F307FE83CB8
:1038F000F10508F0B2C0311179C0FE2C251323C0A8
:10390000941321C0E1101FC08F7080618093FA036F
:103910000E94D11BC6010E94301B8091FA03F8015E
:1039200085838F2D61960FB6F894DEBF0FBECDBF95
:10393000DF91CF911F910F91FF90EF90DF90CF908B
:10394000BF90AF900895AB2829F0842F85238F3F37
:1039500009F033C180E0F82FF170DF2E80FF3CC00A
:103960008091C3032091C40336E0821315C04D87B4
:103970005E878D859E850E949620292F22952F7027
:103980002230F0F0243018F59F70F1F0F8019581A5
:10399000907FD1F4D12C1EC090E0389FF001399F68
:1039A000F00D1124EB53FC4F6181651306C060815B
:1039B000641303C062816E110FC001968770D5CF6A
:1039C0009F7011F0882331F3805E883018F3C801AE
:1039D0000E94301BFD2CA5CFEE2009F4A2CF8091D0
:1039E000FA0381608093FA03F12C9BCF251306C064
:1039F000941304C0F801EE2009F48DC04D875E8752
:103A00008D859E850E948D1B882319F1EE2009F17A
:103A10008091FA03803270F02091F5033091F60323
:103A200038872F831986BB86AA868C87CE01079696
:103A30000E94301B86E0F801A5EFB3E001900D92E3
:103A40008A95E1F70E94DF1B0E94D11BFF24F394AB
:103A500068CFC8010E94301BF9CF311113C07A2DF5
:103A6000B98AA88A6E2D89890E94911B85EF93E0FF
:103A70000E94301B86E0F60111928A95E9F70E94B8
:103A8000D11BB2CF25130FC094130DC0E1100BC092
:103A9000F8018583C8010E94301B86E0F60111926F
:103AA0008A95E9F73ECF4D875E878D859E850E947A
:103AB0008D1B882371F2EE2061F28091FA0380322F
:103AC00008F4B8CF2091F5033091F6033A832983A7
:103AD0001B82BD82AC828E83CE010196A9CFE83CC9
:103AE000F10508F041C0FE2CEE2009F4B2CF2513F9
:103AF0002AC0941328C08091FA0380FD1BC0982F20
:103B0000907FC1F0F8018583903F31F0982F907F2E
:103B1000905F8F70892B8583C8010E94301B86E0DF
:103B2000F801A5EFB3E001900D928A95E1F70E94AC
:103B3000D11BF7CE86E0F801A5EFB3E001900D921E
:103B40008A95E1F7EECE4D875E878D859E850E9432
:103B50008D1B81116FCF8091FA0381608093FA03EE
:103B6000C8010E94301BDDCE7A2DB98AA88A6E2D3D
:103B700089890E94911B86E0F60111928A95E9F7E6
:103B8000D6CFEE2009F465CF4D875E878D859E8563
:103B90000E948D1BF82E882309F45BCF86E0F80184
:103BA000A5EFB3E001900D928A95E1F785EF93E0E0
:103BB0000E940C180E94DF1BBACF81E08E25CBCE6D
:103BC0001F93CF93DF93CDB7DEB72C970FB6F89442
:103BD000DEBF0FBECDBF4F83588769877A878B873B
:103BE0009C87CE0107960E94351C882369F08A8540
:103BF0009B85892B39F04F815885842F85238F3FF2
:103C000009F071C016E05FC086E0FE013796DE0164
:103C1000119601900D928A95E1F78A859B85892BF3
:103C200089F38F81988589238F3F61F32091C403A5
:103C300030E0C9010196877099274091C303481766
:103C4000190671F40E946A1B1092C4031092C303F8
:103C500086E0E5EFF3E0DF011D928A95E9F7D2CF28
:103C600096E0929FD001939FB00D1124AB53BC4FAF
:103C7000FE01319601900D929A95E1F78093C4036D
:103C80000E94B01BBFCF819FC00111248B539C4F5A
:103C90000E94351C8823E9F0E091C3031E9FF001C8
:103CA0001124EB53FC4F40815181628173818481E7
:103CB00095810E94A01B8091C30390E001968770BC
:103CC00099278093C3038091C3039091C403891300
:103CD000DACF2C960FB6F894DEBF0FBECDBFDF91C2
:103CE000CF911F91089569857A858B859C850E9467
:103CF000A01B88CFEF92FF920F931F93CF93DF9378
:103D00008C01892B81F0F12CEE24E394E8012196BB
:103D1000F8018491843770F4843008F05FC08130FA
:103D2000B1F08230A1F1DF91CF911F910F91FF90FF
:103D3000EF900895853709F44CC008F43DC09CE726
:103D4000980F903780F78F770E949B1849C00E5FBD
:103D50001F4FFE01849190E2980F983060F48770B5
:103D6000FE2D01C0FF0F8A95EAF78F2F0E940C21CC
:103D70000E94352102C00E9411188F2D815030F20F
:103D8000EFE9FFE03197F1F700C00000F7CF0E5FD9
:103D90001F4FFE01849190E2980F983050F4877085
:103DA000FE2D01C0FF0F8A95EAF78F2F0E94122186
:103DB000DFCF0E949B18E1CF0E5F1F4FFE01C49121
:103DC000C150D8F28FE99FE00197F1F700C00000E1
:103DD000F7CF0E5F1F4FFE01F490CFCF0E94111856
:103DE0008E01CBCF08950C94F21E0E94F31E6093B7
:103DF00040047093410480934204909343040C94D4
:103E0000581B08950C94F51E0F931F9300914004C6
:103E1000109141042091420430914304602B712B96
:103E2000822B932B1F910F910C94F51E0F931F93D0
:103E300000914004109141042091420430914304C8
:103E400060237123822393231F910F910C94F51EFD
:103E50000F931F930091400410914104209142045C
:103E60003091430460277127822793271F910F9178
:103E70000C94F51E0C94F21E0C943A1F0E943C1FE9
:103E800060933C0470933D0480933E0490933F0400
:103E90000C94581B60E070E0CB010C943E1F0F9314
:103EA0001F9341E050E060E070E08A019B0104C094
:103EB000000F111F221F331F8A95D2F7C901B801C5
:103EC0001F910F910C943E1F0F931F9341E050E000
:103ED00060E070E004C0440F551F661F771F8A958D
:103EE000D2F780913C0490913D04A0913E04B091A2
:103EF0003F048A019B01082B192B2A2B3B2BC9015C
:103F0000B8011F910F910C943E1F0F931F9341E036
:103F100050E060E070E004C0440F551F661F771F3B
:103F20008A95D2F7CB01BA016095709580959095EE
:103F300000913C0410913D0420913E0430913F04D7
:103F400060237123822393231F910F910C943E1FB2
:103F50000F931F9341E050E060E070E004C0440F15
:103F6000551F661F771F8A95D2F780913C04909168
:103F70003D04A0913E04B0913F048A019B010827B3
:103F800019272A273B27C901B8011F910F910C94CB
:103F90003E1F0F931F9300913C0410913D0420910C
:103FA0003E0430913F04602B712B822B932B1F9189
:103FB0000F910C943E1F0F931F9300913C0410919E
:103FC0003D0420913E0430913F04602371238223FD
:103FD00093231F910F910C943E1F0F931F930091F9
:103FE0003C0410913D0420913E0430913F04602731
:103FF0007127822793271F910F910C943E1F0895DC
:1040000021E1929F800D1124982F977041E001C00B
:10401000440F9A95EAF786958695869595E0899F4F
:10402000F0011124E550FC4F90E080E070E05191E8
:10403000DF0111979B01082E02C0369527950A943F
:10404000E2F7217021952527242325272C9301961B
:104050008530910561F7089521E1929F800D11242B
:10406000982F977086958695869525E0829FF0011A
:104070001124E550FC4F50E040E080E0219130E019
:10408000092E02C0369527950A94E2F7217033274E
:10409000042E01C0220F0A94EAF7822B4F5F5F4F74
:1040A0004530510559F70895BF92CF92DF92EF92B4
:1040B000FF920F931F93CF93DF938C01C0903C042A
:1040C000D0903D04E0903E04F0903F048091400485
:1040D00090914104A0914204B0914304C82AD92A86
:1040E000EA2AFB2ACFE1D0E0BC2ED701C6010C2E74
:1040F00004C0B695A795979587950A94D2F780FD49
:104100000EC0219788F7B12C8B2DDF91CF911F9195
:104110000F91FF90EF90DF90CF90BF900895B8017E
:104120008C2F0E943406019761F3EECFCF93DF937B
:10413000EC010E945420BE01DF91CF910C94340613
:104140001F93CF93DF93EB019091C203992331F03A
:10415000CB01DF91CF911F910C949620882379F0A9
:10416000CB010E945420182F682FCE010E940020FE
:10417000BE01812FDF91CF911F910C943406CB01AA
:104180000E942C20182FF4CF682F80911701909156
:1041900018010C94DD22682F80911701909118016D
:1041A0000C94E82280911701909118010C94F3224D
:1041B0008091440485958595859508958091440462
:1041C0008770089590914404977081E009F480E02D
:1041D000089580916804089590916804892B8093D4
:1041E00068040895809590916804982390936804DA
:1041F000089510926804089590916704892B809324
:1042000067040895809590916704982390936704BC
:10421000089510926704089590916604892B809305
:10422000660408958095909166049823909366049F
:1042300008951092660408958091450408950895A4
:104240000C941F2190914504981721F08093450408
:104250000C942021089580914504882329F0109220
:10426000450480E00C9420210895E0911701F0911D
:104270001801809168048083E0911701F091180182
:10428000808190916704892B8083E0911701F091E0
:104290001801808190916604892B80839091450458
:1042A000992381F0E0911701F09118018081892B09
:1042B000808380911701909118010E9449228111F9
:1042C0000E942B2180911701909118010C949D164A
:1042D00008950C94682198E0899F90011124622B25
:1042E000609344040E94641F8091440485958595E1
:1042F00085950C9469211092440480E00C94692106
:10430000909144048095892380934404282F27703A
:1043100071F4282F082E000C330B9217130639F076
:104320008595859585950E94851F0C947B21089520
:104330006FEF7FEF90E080E00C94BA2C90E080E08B
:104340000E94962C21E08C3E9E4F09F020E0822FA7
:10435000089582E090E00C94882C83E090E00C9427
:10436000882CCF9384E090E00E94882CC82F81E2B3
:1043700090E00E94882C982F8C2FCF910895CF9396
:10438000C92F682F84E090E00E949C2C6C2F81E262
:1043900090E0CF910C949C2CAB01BC018FE090E09D
:1043A0000C94AE2CAB01BC0183E190E00C94AE2CDC
:1043B00060E070E0CB010C94D22160E070E0CB01B2
:1043C0000E94CC210C94D8216CEE7EEF90E080E02E
:1043D0000E94BA2C60E082E090E00E949C2C60E099
:1043E00083E090E00E949C2C1092400410924104C3
:1043F000109242041092430460E084E090E00E9436
:104400009C2C60E081E290E00E949C2C60E085E0C2
:1044100090E00E949C2C60E086E090E00E949C2C42
:104420006FEF87E090E00E949C2C40E050E0BA01E2
:1044300088E090E00E94AE2C60E08DE090E00E9469
:104440009C2C40E050E0BA0188E190E00E94AE2C44
:1044500060E087E190E00E949C2C40E050E0BA01CF
:104460008CE190E00E94AE2C60E080E290E00E943F
:104470009C2C40E050E0BA0188E190E00E94AE2C14
:104480000C94DD210C94E421682F8EE090E00C94D4
:104490009C2CFC01329680912301882321F080918D
:1044A000CE059EE187FF96E080E0915008F40895E4
:1044B00021912223D1F38F5FF8CF662301F1209160
:1044C00023012223F1F02091CE0527FF1AC0462FA9
:1044D0004695469546954E3190F4677021E030E060
:1044E00002C0220F331F6A95E2F7840F911DFC0171
:1044F000828190E02823392381E0232B69F480E036
:104500000895FC01329608962191261721F0E817AC
:10451000F907D1F7F4CF81E008959C01FC013296B0
:104520009FEF80E04191461751F09F3F19F44111F0
:1045300001C0982F8F5F8630A9F79F3F09F4089537
:10454000290F311D97FD3A95F90162830895FC0109
:10455000329608962191261303C0DF0111971C9211
:10456000E817F907B9F70895E62FE695E695E69579
:10457000EE3168F4E80FF92FF11D677021E030E0AB
:1045800001C0220F6A95EAF78281822B8283089507
:10459000E62FE695E695E695EE3170F4E80FF92FF3
:1045A000F11D677021E030E001C0220F6A95EAF743
:1045B000209582812823228308952091230122239C
:1045C00029F02091CE0527FD0C94B4220C948D2265
:1045D00020912301222329F02091CE0527FD0C9460
:1045E000C8220C94A722FC013296809123018823D3
:1045F00051F08091CE0587FF06C08EE1DF011D924C
:104600008A95E9F7089586E0F9CF089508950C9406
:1046100006230E9407238091D405843049F110922B
:104620006A0488E190E020E40FB6F894A89580939E
:1046300060000FBE2093600080E00E9420060E9470
:10464000072383B7817F846083BF83B7816083BF83
:104650007894889583B78E7F83BF0FB6F894A8951A
:1046600080916000886180936000109260000FBEAE
:1046700008950895CF930E9405230E9480080E9408
:104680003923C0E08C2F0E942008672B682B692BF0
:1046900031F4CF5FC630B1F780E0CF91089581E06B
:1046A000FCCF08950C9451230E946A1B0E9491161E
:1046B0000E9420060C9452231F921FB61F921124B1
:1046C0008F939F93AF93BF9380916A04811113C01E
:1046D0008091CA059091CB05A091CC05B091CD05F4
:1046E0004196A11DB11D8093CA059093CB05A0935F
:1046F000CC05B093CD05BF91AF919F918F911F9045
:104700001FBE1F90189582E084BD93E095BD9AEF7F
:1047100097BD80936E0008952FB7F8948091CA05D5
:104720009091CB05A091CC05B091CD052FBF0895F8
:104730002FB7F8946091CA057091CB058091CC0594
:104740009091CD052FBF08959C014FB7F8948091AB
:10475000CA059091CB05A091CC05B091CD054FBF76
:10476000821B930B089578941F921FB61F921124F9
:104770008F939F93AF93BF938091CA059091CB0580
:10478000A091CC05B091CD050196A11DB11D8093DE
:10479000CA059093CB05A093CC05B093CD05BF91EE
:1047A000AF919F918F911F901FBE1F90189581E030
:1047B0008093E00080E28093D8001092C9008FE1DE
:1047C0009EE40197F1F700C0000087E090EBDC0168
:1047D0008093DD059093DE05A093DF05B093E0059F
:1047E00088E19CE00FB6F894A895809360000FBE16
:1047F00090936000FFCF0C9466110E9480088FE3B5
:104800009CE90197F1F700C000000E94800880E059
:104810000E94200860FF04C00E94FB230C94D72351
:1048200008950E949E21811102C00E9442220E948E
:10483000A921809369040E94B1219093CF058093B0
:10484000CE050E94AD21682F70E090E080E00E94CC
:10485000021F60913C0470913D0480913E04909150
:104860003F040C943C1F80918B0408950895CF93CE
:10487000DF9300D00F92CDB7DEB79091D40594307E
:1048800011F589837B836A839093E9008FEF909180
:10489000E800815095FD06C095ED9A95F1F700006E
:1048A0008111F5CF8091E80085FF0DC050E040E018
:1048B00063E070E0CE0101960E949D268091E800A1
:1048C0008E778093E8000F900F900F90DF91CF913B
:1048D0000895BC0184E00C943724BC0183E00C945F
:1048E0003724CF93DF93EC01809123018823B1F12A
:1048F0008091CE0587FF32C060E284E08093E900BA
:104900008FEF9091E800815095FD06C095ED9A9546
:10491000F1F700008111F5CF8091E80085FF1BC001
:104920008091230170E050E040E0811104C050E02C
:1049300040E068E070E0CE010E949D268091E80092
:104940008E778093E80080E2FE01ABE6B4E0019050
:104950000D928A95E1F7DF91CF91089568E081E0AB
:10496000CDCFCF93FC01603221F58091D405843006
:1049700001F5C091E900CF702091EC00922F917069
:1049800020FD90E8C92B82E08093E9008091E80047
:1049900080FF0CC050E040E060E270E0CF010E9478
:1049A0009D268091E8008E778093E800CF70C093B9
:1049B000E900CF9108958091D305811109C00E942B
:1049C0007C280E94D9288091E20084608093E200D4
:1049D00008951092D3050895089508950C945423D2
:1049E00042E061EC81E00E94F82742E261EC84E061
:1049F0000E94F82742E261EC82E00E94F82742E23E
:104A000060EC83E00C94F8278091D605833009F49C
:104A100061C030F48130D1F1823009F49DC0089535
:104A20008A3009F489C08B3009F46FC0893009F0ED
:104A300050C08091D505813209F04BC08091D905D5
:104A40009091DA05009719F0029709F042C0809121
:104A5000E800877F8093E8008091E80082FF35C0FE
:104A60009091F3008091F200029729F48091F10077
:104A70008B7F813021F48091F10080938B048091B1
:104A8000E8008B778093E8000C942C288091D50562
:104A9000813AF9F48091E800877F8093E800809163
:104AA000D9059091DA05892B61F460E28BE694E0F8
:104AB00070E00E943B278091E8008B778093E800AC
:104AC000089560E090E080E0F3CF8091D4058111FB
:104AD000C3CF08958091D505813AD9F78091D90542
:104AE0009091DA05892BA9F78091E800877F809360
:104AF000E8008091E80080FFFCCF80912301809343
:104B0000F1008091E8008E77BDCF8091D50581328C
:104B100001F78091D9059091DA05892BD1F6809122
:104B2000E800877F8093E8000E942C288091D705B9
:104B3000809323010C946A1B8091D505813249F63C
:104B40008091E800877F8093E8000E942C28809164
:104B5000D80580938C0408958091D505813A09F099
:104B6000B8CF8091E800877F8093E8008091E800CB
:104B700080FFFCCF80918C04C2CFCDB7DEB7A09769
:104B80000FB6F894DEBF0FBECDBF84B7877F84BF5A
:104B90000FB6F894A89580916000886180936000BA
:104BA000109260000FBE80E890E00FB6F8948093FA
:104BB0006100909361000FBE0E94F1160E947C2854
:104BC0000E94D9288091E20084608093E20078946A
:104BD0000E94622B0E94FD1689E191E00E948C16D2
:104BE00013E08091D405853059F00E940917809117
:104BF000D405843091F00E94FB160E94FC16F1CF80
:104C00000E9409238091D205882359F30E943A23F8
:104C1000882339F30E948726E4CF1093E90080911E
:104C2000E80082FFE8CF8091E80090E085FF09C0AE
:104C300050E040E060E270E0CE0101960E94EC2678
:104C400091E08091E8008B778093E800992399F2B6
:104C500060E2CE0101960E941E12CDCF0C94302648
:104C6000292F33272330310521F168F42130310514
:104C700009F443C02230310509F444C090E080E0DB
:104C800030E020E026C02132310551F122323105D9
:104C9000A9F76330710590F7FB01EE0FFF1FE55395
:104CA000FE4F2081318168537E4FFB01808190E06F
:104CB00010C099278130910581F0009729F0029763
:104CC000E9F6E6E9F6E002C0EEEBF6E0849190E06A
:104CD0009F01FA01318320830895E2EAF6E0F6CFDE
:104CE0006330710558F6660F771FFB01EF52FE4FD8
:104CF0002081318189E090E0ECCF82E190E02DE1EC
:104D000037E0E7CF8BE590E022EC36E0E2CF80E1C0
:104D100089BD82E189BD09B400FEFDCF8091D80034
:104D20008F7D8093D8008091E00082608093E000C6
:104D30008091E00081FDFCCF0895AF92BF92CF92A9
:104D4000DF92FF920F931F93CF93DF936C01EB01E0
:104D50008A010E944B28F82E811123C001151105EC
:104D600039F0F80180819181C81BD90BC80ED91E7A
:104D7000B12CA12C2097A9F08091E80085FD22C0DC
:104D80008091E8008E778093E80001151105A1F06D
:104D9000F80180819181A80EB91EB182A08285E0C0
:104DA000F82E8F2DDF91CF911F910F91FF90DF9003
:104DB000CF90BF90AF9008950E944B288823D1F2E6
:104DC000F82EEFCFF60181916F018093F1002197CA
:104DD000FFEFAF1ABF0ACECFAF92BF92CF92DF9252
:104DE000FF920F931F93CF93DF936C01EB018A0126
:104DF0000E944B28F82E811123C00115110539F0AE
:104E0000F80180819181C81BD90BC80ED91EB12C25
:104E1000A12C2097A9F08091E80085FD22C0809107
:104E2000E8008B778093E80001151105A1F0F801E7
:104E300080819181A80EB91EB182A08285E0F82EF2
:104E40008F2DDF91CF911F910F91FF90DF90CF9029
:104E5000BF90AF9008950E944B288823D1F2F82E7E
:104E6000EFCF8091F100F60181936F012197FFEF61
:104E7000AF1ABF0ACECFFC018091DB059091DC0513
:104E800086179707A0F06115710529F49091E80045
:104E90009E779093E80090E06115710551F49111AF
:104EA00008C08091E80082FF34C080E00895BC0112
:104EB000F2CF8091D4058823C1F18530C1F1809172
:104EC000E80083FD30C08091E80082FDEACF809148
:104ED000E80080FFE1CF8091F3002091F200382FAD
:104EE0006115710519F02830310558F091E028302E
:104EF000310509F090E02091E8002E772093E8003A
:104F0000CBCF81918093F100615071092F5F3F4FAA
:104F1000E7CF8091D405882341F0853041F080911E
:104F2000E80083FFBECF81E0089582E0089583E02A
:104F30000895FC018091DB059091DC0586179707A9
:104F4000A0F06115710529F48091E8008E778093B7
:104F5000E80090E06115710551F4911108C080914D
:104F6000E80082FF35C080E00895BC01F2CF809157
:104F7000D4058823C9F18530C9F18091E80083FD0B
:104F800031C08091E80082FDEACF8091E80080FF87
:104F9000E1CF8091F3002091F200382F6115710567
:104FA00019F02830310558F091E02830310509F02A
:104FB00090E08091E8008E778093E800CBCF8491D9
:104FC0008093F1003196615071092F5F3F4FE6CF1A
:104FD0008091D405882341F0853041F08091E8002C
:104FE00083FFBDCF81E0089582E0089583E00895B6
:104FF000982F973028F08F708093E90081E0089512
:105000009093E900242F762F50E0981731F070919B
:10501000EC002091ED005091F00021FD02C09F5F57
:10502000E8CF3091EB003E7F3093EB003091ED0004
:105030003D7F3093ED003091EB0031603093EB0019
:105040007093EC002093ED005093F0002091EE005F
:1050500027FDE5CF80E008958091D50587FF13C037
:105060008091E80082FF06C08091E8008B778093F2
:10507000E80004C08091D4058111F2CF0895809199
:10508000D4058823D9F38091E80080FFF8CF809180
:10509000E8008E77ECCF2091E4003091E50095E6B2
:1050A000A9012091EC00822F817020FF06C0809121
:1050B000E80080FF06C080E008952091E80022FD0E
:1050C0001AC08091D405882389F0853089F08091B9
:1050D000EB0085FD0FC02091E4003091E500421700
:1050E0005307F9F29150E1F684E0089582E00895C3
:1050F00083E0089581E008950E94EA280E94F22842
:10510000E0EEF0E0808181608083E8EDF0E0808176
:105110008F77808319BCA7EDB0E08C918E7F8C9344
:1051200080818F7E80831092D30508950F931F9303
:10513000CF93DF930E94EA280E94F228C8EDD0E0C6
:1051400088818F77888388818068888388818F7D34
:10515000888319BC1092D4051092D0051092D20504
:105160001092D10500EE10E0F80180818B7F8083E2
:1051700088818160888342E060E080E00E94F827B7
:10518000E1EEF0E080818E7F8083E2EEF0E08081CE
:1051900081608083808188608083F80180818E7F38
:1051A0008083888180618883DF91CF911F910F91E7
:1051B0000895E8EDF0E080818F7E8083E7EDF0E0F8
:1051C00080818160808384E082BF81E08093D30509
:1051D0000C949628E8EDF0E080818E7F8083109219
:1051E000E20008951092DA001092E10008951F92F3
:1051F0000F920FB60F9211242F933F934F935F930B
:105200006F937F938F939F93AF93BF93EF93FF938E
:105210008091E10082FF0BC08091E20082FF07C015
:105220008091E1008B7F8093E1000E94612B80914F
:10523000DA0080FF19C08091D80080FF15C08091EE
:10524000DA008E7F8093DA008091D90080FF96C0CB
:1052500080E189BD82E189BD09B400FEFDCF81E016
:105260008093D4050E94DB248091E10080FF19C067
:105270008091E20080FF15C08091E2008E7F8093D4
:10528000E2008091E20080618093E2008091D8008A
:1052900080628093D80019BC85E08093D4050E9479
:1052A000ED248091E10084FF2BC08091E20084FF17
:1052B00027C080E189BD82E189BD89B5982F9170B1
:1052C00080FFFBCF8091D8008F7D8093D8008091A4
:1052D000E1008F7E8093E1008091E2008F7E8093D9
:1052E000E2008091E20081608093E2008091D0052D
:1052F000882309F449C084E08093D4050E94EE24F9
:105300008091E10083FF29C08091E20083FF25C0E6
:105310008091E100877F8093E10082E08093D40553
:105320001092D0058091E1008E7F8093E100809102
:10533000E2008E7F8093E2008091E20080618093A2
:10534000E20042E060E080E00E94F8278091F000F7
:1053500088608093F0000E94EC24FF91EF91BF9150
:10536000AF919F918F917F916F915F914F913F91FD
:105370002F910F900FBE0F901F90189519BC10928F
:10538000D4050E94E92470CF8091E30087FD93E06B
:105390009093D405B3CF1F920F920FB60F921124A2
:1053A0002F933F934F935F936F937F938F939F932D
:1053B000AF93BF93CF93DF93EF93FF93D091E90027
:1053C000DF708091EC00C82FC17080FDC0E81092A2
:1053D000E9008091F000877F8093F00078940E942C
:1053E0000F2A1092E9008091F00088608093F0000D
:1053F000CD2BCF70C093E900FF91EF91DF91CF915A
:10540000BF91AF919F918F917F916F915F914F91DC
:105410003F912F910F900FBE0F901F9018951F93E3
:10542000CF93DF93CDB7DEB7AA970FB6F894DEBF60
:105430000FBECDBF85ED95E02091F100FC012193D9
:10544000CF01F5E08D3D9F07B9F70E9404258091BB
:10545000E80083FF1EC18091D5059091D6059A3052
:1054600008F017C1E92FF0E0EA5CF24D0C94E12B53
:10547000803899F0823809F00CC18091D9058F707D
:10548000873008F006C18093E9008091EB0085FB2E
:10549000882780F91092E90006C08091D10590918B
:1054A000D205911182609091E800977F9093E80077
:1054B0008093F1001092F1008091E8008E77E5C0B2
:1054C000882309F4D3C0823009F0E3C08091D70566
:1054D0008111D6C08091D9058F702FEF280F26300B
:1054E00008F0D7C08093E9002091EB0020FFC8C0EE
:1054F000933031F48091EB0080628093EB00C0C068
:105500009091EB0090619093EB0021E030E001C0BE
:10551000220F8A95EAF72093EA001092EA00809120
:10552000EB008860EACF8111B4C01091D7051F77D6
:105530008091E3008078812B8093E3008091E800E4
:10554000877F8093E8000E942C288091E80080FFEC
:10555000FCCF8091E30080688093E30082E011112A
:1055600083E08093D40595C08058823008F091C0C4
:105570008091D7059091D8058C3D23E09207A1F545
:1055800083E08A838AE289834FB7F894DE01139619
:1055900020E03EE051E2E32FF0E050935700E49129
:1055A00020FF03C0E295EF703F5FEF708E2F90E019
:1055B000EA30C0F0C7968D939D932F5F243159F741
:1055C0004FBF8091E800877F8093E8006AE270E037
:1055D000CE0101960E943B278091E8008B77809353
:1055E000E80057C0C096E7CF6091D9057091DA0501
:1055F000AE014F5F5F4F0E942E26BC01892B09F43C
:1056000048C09091E800977F9093E80089819A8143
:105610000E949927E1CF8038E1F58091E800877FEB
:105620008093E8008091D0058093F10045CF8111EF
:1056300030C09091D705923060F58091E800877F67
:105640008093E8009093D0050E942C288091D0058B
:10565000882311F084E005C08091E30087FDFACF34
:1056600081E08093D4050E94F02413C08091D70577
:10567000813079F481E0933009F080E08093D205A5
:105680001092E9008091E800877F8093E8000E94F3
:105690002C288091E80083FF0AC08091E800877F72
:1056A0008093E8008091EB0080628093EB00AA96E3
:1056B0000FB6F894DEBF0FBECDBFDF91CF911F9123
:1056C00008950895CF938091D4058823A1F0C091C7
:1056D000E900CF709091EC00892F817090FD80E8F7
:1056E000C82B1092E9008091E80083FD0E940F2AE8
:1056F000CF70C093E900CF910895991B79E004C061
:10570000991F961708F0961B881F7A95C9F7809500
:10571000089587FB082E062687FD819567FD619514
:105720000E947D2B0EF4919507FC81950895AA1B8C
:10573000BB1B51E107C0AA1FBB1FA617B70710F07C
:10574000A61BB70B881F991F5A95A9F780959095AE
:10575000BC01CD01089597FB072E16F4009407D0E5
:1057600077FD09D00E94972B07FC05D03EF4909559
:1057700081959F4F0895709561957F4F0895A1E29F
:105780001A2EAA1BBB1BFD010DC0AA1FBB1FEE1FBB
:10579000FF1FA217B307E407F50720F0A21BB30B06
:1057A000E40BF50B661F771F881F991F1A9469F782
:1057B00060957095809590959B01AC01BD01CF01DE
:1057C0000895EE0FFF1F0590F491E02D09946927CD
:1057D0009627692778278727782708950E94F62B30
:1057E000332312F48A1B9B0B0C94072CA29FB0014D
:1057F000B39FC001A39F700D811D1124911DB29F05
:10580000700D811D1124911D08950E94F62BB7FF84
:105810000895821B930B08950E94F62BA59F900D6F
:10582000B49F900DA49F800D911D11240895B7FF82
:105830000C940C2C0E940C2C821B930B08958F92BD
:105840009F92AF92BF92CF92DF92EF92FF92CF934F
:10585000DF93EC01688179818A819B8161157105F3
:105860008105910521F464E279ED8BE597E02DE166
:1058700033EF41E050E00E94D02C49015A019B01D6
:10588000AC01A7EAB1E40E940C2C6B017C01ACEEE8
:10589000B4EFA50194010E941A2CDC01CB018C0D00
:1058A0009D1DAE1DBF1DB7FF03C00197A109B048E4
:1058B00088839983AA83BB839F77DF91CF91FF90E1
:1058C000EF90DF90CF90BF90AF909F908F90089512
:1058D0000E941F2C089580E091E00E941F2C0895E3
:1058E000B0E0A0E08093000190930101A093020139
:1058F000B09303010895FC014150504030F00190F5
:105900000616D1F73197CF01089588279927089572
:10591000F999FECF92BD81BDF89A992780B5089577
:10592000A6E1B0E044E050E00C94C22CA8E1B0E065
:1059300042E050E00C94C22C262FF999FECF92BD84
:1059400081BDF89A019700B4021639F01FBA20BD44
:105950000FB6F894FA9AF99A0FBE08950396272F76
:105960000E949D2C0E949C2C252F0E949D2C242F50
:105970000C949D2C0196272F0E949D2C0C949C2CFE
:10598000DC01CB01FC01F999FECF06C0F2BDE1BDFF
:10599000F89A319600B40D9241505040B8F70895EE
:1059A000052E97FB1EF400940E94E72C57FD07D0AC
:1059B0000E94BF2B07FC03D04EF40C94E72C5095AB
:1059C0004095309521953F4F4F4F5F4F08959095EB
:1059D0008095709561957F4F8F4F9F4F0895F894F4
:1059E000FFCFAF10B710BE10C310C810CD10D2102B
:1059F000D710DC10E110E610EB10EF10F410F710E8
:105A0000FA10FD1000110211051132123F12671237
:105A100073127E1289128C128F129212DB12DE1216
:105A200095129912A112AE12BB12BE12C112CE1261
:105A3000421942199A199A19EC196F196F196F19AD
:105A4000081A941AA31AA31AFF1A6F196F19081BC0
:105A5000791B791B821B821B841B821B821B821B6E
:105A6000791B791B891B821B821B891B382A602AA0
:105A7000492B602A492B932AB42A492B0B2B172B2D
:105A800001000000010102005800585801191A1BBA
:105A90001C1D1E1F20212246043324712436246D30
:105AA00024692401E200E900EA00B500B600B7006D
:105AB000CD008301CC008A019201940121022302CE
:105AC00024022502260227022A02B300B4006F0036
:105AD000700081828330313233F4F5F6F736359732
