:100000000C9413040C945A040C945A040C945A043F
:100010000C945A040C945A040C945A040C945A04E8
:100020000C945A040C945A040C94DB290C94AF2AB7
:100030000C9440240C945A040C945A040C945A04C2
:100040000C945A040C945A040C945A040C945A04B8
:100050000C945A040C9497240C945A040C945A044B
:100060000C945A040C945A040C945A040C945A0498
:100070000C945A040C945A040C945A040C945A0488
:100080000C945A040C945A040C945A040C945A0478
:100090000C945A040C945A040C945A040C945A0468
:1000A0000C945A040C945A040C945A04BC00B200E8
:1000B00000000E010000FFFF000000003E010000F4
:1000C000FFFF00000000290000003A003B003C0058
:1000D0003D003E003F00400041004200430044001C
:1000E000450046004700480035001E001F00200064
:1000F00021002200230024002500260027002D00D7
:100100002E002A0049004A004B002B0014001A0060
:100110000800150017001C0018000C001200130046
:100120002F00300028004C004D004E003900040024
:100130001600070009000A000B000D000E000F005A
:100140003300340032000000000000000000E10035
:1001500064001D001B0006001900050011001000BE
:10016000360037003800E5000000000052000000B3
:10017000E000E300E200000000002C0000000000AE
:100180000000E60001516500E4005000000051004D
:100190004F00005C000001000100010001000100AF
:1001A0000100010001000100010001000100CD5C1F
:1001B000CE5CCF5C010001000100010001000100E4
:1001C0000100010001000100010001000100010027
:1001D000C55CC75CC95C01000100010001000100B1
:1001E0000100010001000100010001000100010007
:1001F0000100C65CC85CCA5C01000100010001008E
:1002000001000100010001000100010001000100E6
:1002100001000000000000000000010001000100DA
:100220000100010001000100145C01000100010057
:1002300001000100000000000100000001000100B9
:1002400001000000000001000000000000000100AB
:10025000010001000100C45C0000C25CC35C01003D
:100260000000010001000100010001000100010087
:100270000100010001000100010001000100010076
:100280000100010001000100010001000100010066
:100290000100010001000100010001000100010056
:1002A0000100010001000100010001000100010046
:1002B0000100010001000100010001000100010036
:1002C0000100010001000100010001000100010026
:1002D0000100010001000100010001000100000017
:1002E0000000000000000100010001000100010009
:1002F00001000100010001000100010001000100F6
:1003000000000000010000000100010001000000E9
:1003100000000100000000000000010001000100D9
:1003200001000100000001000100010000000100C7
:1003300001000100010001000100010001000100B5
:1003400001000100010001000100010001000100A5
:100350000100010001000100010001000100010095
:100360000100010001000100010001000100010085
:100370000100010001000100010001000100010075
:100380000100010001000100010001000100010065
:100390000100010001000100010001000100010055
:1003A0000100010001000100010000000000000048
:1003B0000000010001000100010001000100010036
:1003C0000100010001000100010001000000000027
:1003D0000100000001000100010000000000010018
:1003E0000000000000000100010001000100010008
:1003F00000000100010000000000000000002A2BA6
:1004000028000000000000000000000000000000C4
:100410000029000000002C1E34202122243426272D
:10042000252E362D3738271E1F202122232425264E
:100430003333362E37381F0405060708090A0B0C1C
:100440000D0E0F101112131415161718191A1B1C64
:100450001D2F3130232D350405060708090A0B0C22
:100460000D0E0F101112131415161718191A1B1C44
:100470001D2F3130354C000000000000000000004E
:10048000000000000000000000007E0F00D4FFFF0D
:10049000FFC70000007832190A00047F3F1F643252
:1004A00014643214783C1E1E140A052223252628C3
:1004B000292A2C2D2F3032333536383A3B3D3E40F9
:1004C00042434547494A4C4E5051535557595A5C3F
:1004D0005E6062646668696B6D6F71737577797B56
:1004E0007D7F81838587898A8C8E90929496989A55
:1004F0009C9E9FA1A3A5A7A8AAACAEAFB1B3B4B66A
:10050000B8B9BBBCBEBFC1C2C3C5C6C7C9CACBCCC4
:10051000CDCED0D1D2D2D3D4D5D6D7D7D8D9D9DA97
:10052000DADBDBDBDCDCDCDCDCDDDDDDDDDCDCDC0C
:10053000DCDCDBDBDBDADAD9D9D8D7D7D6D5D4D334
:10054000D2D2D1D0CECDCCCBCAC9C7C6C5C3C2C109
:10055000BFBEBCBBB9B8B6B4B3B1AFAEACAAA8A766
:10056000A5A3A19F9E9C9A98969492908E8C8A891E
:10057000878583817F7D7B79777573716F6D6B69FB
:1005800068666462605E5C5A5957555351504E4CD0
:100590004A4947454342403E3D3B3A38363533327F
:1005A000302F2D2C2A292826252322FFAA7F5540CB
:1005B0000001010101010101010102020202020226
:1005C00002020203030303030303030404040404F9
:1005D00004040505050505060606060607070707C0
:1005E0000708080808090909090A0A0A0B0B0B0C75
:1005F0000C0C0D0D0D0E0E0E0F0F0F101011111112
:100600001212131314141515161617171818191992
:100610001A1A1B1B1C1D1D1E1E1F202021222223F7
:100620002424252626272829292A2B2C2D2D2E2F38
:1006300030313232333435363738393A3B3C3D3E4F
:100640003F404142434445464748494A4C4D4E4F3E
:1006500050515354555658595A5B5D5E5F61626400
:10066000656668696B6C6D6F7072737577787A7B8D
:100670007D7E8082838587888A8C8E8F91939596E4
:10068000989A9C9EA0A2A3A5A7A9ABADAFB1B3B504
:10069000B7BABCBEC0C2C4C6C9CBCDCFD1D4D6D8E0
:1006A000DBDDDFE2E4E7E9EBEEF0F3F5F8FAFDFF7E
:1006B0001803430055003800300020007600320057
:1006C0002000490053004F0000001A03430061005E
:1006D0007000730055006E006C006F0063006B00CB
:1006E0006500640000000403090409025B000301C3
:1006F00000A0FA0904000001030101000921110111
:1007000000012240000705810308000A09040100D6
:100710000203000000092111010001222200070547
:1007200082032000010705030320000109040200E1
:100730000103000000092111010001226D000705DD
:10074000840320000A1201100100000008554380B4
:10075000000100010200010660FF0961A1010962B8
:10076000150026FF009520750881020963150026F3
:10077000FF00952075089102C005010980A101853F
:100780000319012AB700150126B7009501751081DC
:1007900000C0050C0901A101850419012AA0021558
:1007A0000126A002950175108100C005010906A16E
:1007B000018505050719E029E7150025019508754C
:1007C0000181020507190029EF1500250195F07533
:1007D0000181020508190129059505750191029508
:1007E0000175039101C005010906A101050719E082
:1007F00029E7150025019508750181029501750805
:1008000081010507190029FF150026FF00950675CF
:1008100008810005081901290595057501910295C2
:100820000175039101C011241FBECFEFDAE0DEBFD6
:10083000CDBF04B603FE27C08091E0059091E1058D
:10084000A091E205B091E3058730904BA740B04BF3
:10085000D1F41092E0051092E1051092E205109299
:10086000E30514BE84B7877F84BF0FB6F894A895BC
:1008700080916000886180936000109260000FBEDC
:10088000E0E0F8E3099511E0A0E0B1E0EAE5FCE57D
:1008900002C005900D92A83DB107D9F725E0A8ED5B
:1008A000B1E001C01D92A03EB207E1F70E94A1266F
:1008B0000C94DC2D0C9400008CEA90E0909397034C
:1008C000809396030895CF93C82F81FB662760F924
:1008D00080E00E949610C2FB662760F981E00E94CA
:1008E000961081E0CF91089581E0089581E0089508
:1008F0000C94760408950C947A041F93CF93DF939D
:1009000000D000D00F92CDB7DEB749835A836B83F6
:100910003091C50389819A8131111DC06623B9F0D8
:100920002223A9F00E943821182F682F89819A81EB
:100930000E94E42069817A81812F0F900F900F909F
:100940000F900F90DF91CF911F910C949D140E94F6
:100950001021182FEFCF0E94382169817A81EDCFC5
:10096000FC01262F408151816281738184810C9426
:100970007D04CF93DF93EC0160E00E94B004BE01E0
:10098000DF91CF910C947B04FF920F931F93CF9331
:10099000DF93E82FF0E0EA50FC4FF490C82FC695A3
:1009A000C695C695D0E0FE01EA57FB4F04918770CB
:1009B00010E0082E02C0159507950A94E2F7017021
:1009C0001127CA58DB4FFE01C491D0E002C0D59573
:1009D000C7958A95E2F7C170DD270115110519F059
:1009E00081EE0E94F518209719F086EE0E94F51806
:1009F0008F2D0E94CE19CD2B19F086EE0E947F1903
:100A0000012B41F081EEDF91CF911F910F91FF906B
:100A10000C947F19DF91CF911F910F91FF90089552
:100A2000EF92FF920F931F93CF93DF93EC01162F5A
:100A30000AE08881882309F454C0813009F04EC04F
:100A40008981813099F47E0122E0E20EF11C8A81D5
:100A50000E94CE19E7012196812F815050F3EFE9D2
:100A6000FFE03197F1F700C00000F7CF823041F48A
:100A70007E0182E0E80EF11C8A810E94F518EACF1F
:100A8000833041F47E01E2E0EE0EF11C8A810E9487
:100A90007F19E0CF843011F02196DDCF2A81229694
:100AA00090E080E0AE014F5F5F4F2053330B2A3060
:100AB000310548F0019778F2EFE9FFE03197F1F75F
:100AC00000C00000F7CF089FB001099F700D1124EE
:100AD000C901860F971F2981EA01E4CF0E94C4044F
:100AE000BACFDF91CF911F910F91FF90EF900895B2
:100AF00060E00C9410058F929F92AF92BF92CF92BC
:100B0000DF92EF92FF920F931F936B017C0181E0C4
:100B100090E0A0E0B0E04C015D0104C0880C991C9D
:100B2000AA1CBB1C4A95D2F7B501A4014C015D017A
:100B300004C0880C991CAA1CBB1C2A95D2F7482912
:100B400059296A297B2904C0880F991FAA1FBB1F36
:100B50000A95D2F78A019B010C211D212E213F21EC
:100B6000041715072607370789F48C299D29AE2914
:100B7000BF29BC01CD011F910F91FF90EF90DF9035
:100B8000CF90BF90AF909F908F9008958095909553
:100B9000A095B0958C219D21AE21BF21EACF0F9366
:100BA000382F262F60913F047091400480914104BA
:100BB00090914204042F432F0E947B050F910C94C7
:100BC00022200E94E1240E948222811102C00E9400
:100BD00026230C9445080C94480808950E944E1C46
:100BE0000E94ED052FEF84E39CE02150804090406F
:100BF000E1F700C000000C94BB240F931F93CF9328
:100C0000DF93EC0161E00E94B0048C01BE010E9400
:100C10007112882389F1BE01C8010E9478048823DB
:100C200059F1BE01C8010E94D215882329F1BE01E5
:100C3000C8010E9424168823F9F0BE01C8010E9451
:100C400047178823C9F0BE01C8010E947E1188237E
:100C500099F08A81882339F001158CE5180751F045
:100C60000E3D1C4579F0CE01DF91CF911F910F9180
:100C70000C9474040E94EE0580E0DF91CF911F91E7
:100C80000F9108950E942623F7CF08950C944506EE
:100C90000C946304CF93C82F0E9446068C2FCF91EB
:100CA0000C94480690E080E008950895FC01EE0F52
:100CB000FF1FEA56FB4F859194910895CF93DF93E0
:100CC0000E949D140E946A07EC01811520E592079D
:100CD00008F041C0811530E4930708F0B4C0803EAD
:100CE000910518F5803C910508F09DC0883A910562
:100CF00070F4853A910508F08EC081309105F9F0C5
:100D00000097E9F00497D8F4D0E0C0E018C08F3B1A
:100D10009105D0F7C85AD0E0CC0FDD1FCC5DDE4F77
:100D20000990D881C02DD4640AC08115904258F42E
:100D3000C11581E0D80718F4C83ED10528F7CE01C7
:100D4000DF91CF910895C11590E3D90708F071C0E4
:100D5000CE019F706AC0811525E5920758F581156F
:100D600034E5930708F09EC0811542E5940750F4DE
:100D7000C11581E5D80708F469C0DC2FCC27C16F05
:100D8000D06ADDCF982F969596959E0123703327D4
:100D9000C115D34508F077C0C1E0D0E002C0CC0F48
:100DA000DD1F2A95E2F720E2929FC0011124C82B93
:100DB000D92B67C0C11589E5D807A8F4C11598E5F6
:100DC000D90708F074C0C11526E5D20708F09CCFFA
:100DD0008C2F0E940108C82FD0E0DC2FCC27CC2715
:100DE000DF71D062ACCFC1153AE5D30708F464C017
:100DF000CE0190568115904208F086CF8D2F8F71CD
:100E00000E94010890E0982F882788279F719C01F5
:100E10002C2BE901E6CFC55AD0E0CE5ADE4FC8816F
:100E2000D0E0D0648CCF805C91090E945606EC0122
:100E300086CFCE019927D3FF03C0EC01D86C7FCFBA
:100E4000EC01D06C7CCFDF70D06A79CFCE01E4E0CA
:100E500096958795EA95E1F783702C2F2695269530
:100E6000237090E2299F90011124382B8C2F8370DE
:100E7000C1E0D0E002C0CC0FDD1F8A95E2F7C22BA3
:100E8000D32BDC685CCFC1E0D0E002C0CC0FDD1F0B
:100E90002A95E2F730E2939FC0011124C82BD92B89
:100EA000DA684DCFD82FCC27C46FD06A48CFDC2F5B
:100EB000CC27C06FD06A43CF8C2F8F700E9401085F
:100EC00034E0D695C7953A95E1F7CF709C2FEC01A9
:100ED000D06935CF82389105B1F1B0F481339105F5
:100EE00009F475C048F48932910509F469C08A3261
:100EF000910509F473C008958533910509F459C02B
:100F00008933910501F10895833E9105A9F138F4E3
:100F1000803E9105F9F0823E910549F10895863EA3
:100F20009105A9F1873E9105C9F1843E910519F516
:100F30002091D20521FF1FC08091D10584FD14C0EE
:100F400087EE90E008952091D1052370A1F080EE06
:100F500090E008952091D10520FD47C03091D20541
:100F600030FF09C024FF44C090E080E004C020911D
:100F7000D10522FDF7CF08952091D10522FD3BC078
:100F80003091D20530FDE3CF24FFF5CFEDCF209196
:100F9000D10523FFF0CF24FDE7CFD2CF2091D1059B
:100FA00023FD2CC03091D20531FFEECF84EE90E0CE
:100FB00008952091D10525FFDECF89E290E00895C4
:100FC0002091D10525FFD7CF85E390E008952091AA
:100FD000D10526FFD0CF8AE290E008952091D10577
:100FE00026FFC9CF81E390E0089589E390E008955A
:100FF00083EE90E0089582EE90E0089586EE90E012
:1010000008959091D10592FF06C0282F28712830AD
:10101000F9F4877F846093FF06C0282F2871283158
:10102000F1F4877E84612091D20520FF06C0382F1D
:1010300038713830D9F4877F816021FF06C0282FAE
:1010400028712831D1F4877E816194FD877E0895CF
:10105000282F24712430F9F68B7F8860DCCF282F6D
:101060002471243101F78B7E8861DDCF382F3171F7
:10107000313019F78E7F8860E0CF282F2171213120
:1010800021F78E7E8861E1CF08950C94440808957D
:101090000C94470894E0899FF0011124E855FB4F18
:1010A00060817181828193810895089580EA8A9593
:1010B000F1F70895F894E82FE295EF70F0E031A190
:1010C000282F2F7081E090E001C0880F2A95EAF761
:1010D000982F9095932391A392A1892B82A3789422
:1010E00008950F931F93CF93DF9383E90E945A08CB
:1010F00082E90E945A0887E30E945A0881EF0E9401
:101100005A0887E60E945A0885E90E945A08C5E5F0
:10111000D1E006E611E089910E945A080C171D07DC
:10112000D1F7E0E9F4E0A8EAB4E01192119211924B
:1011300011921D921D921D921D9284E0E83AF807CB
:10114000A1F786E00E944809DF91CF911F910F918E
:101150000C94E1054F925F926F927F928F929F92D3
:10116000AF92BF92CF92DF92EF92FF920F931F93B5
:10117000CF9306E611E030E9E32E34E0F32EC0E031
:10118000CC24C394D12CF80181918F01F894E82FDD
:10119000E295EF70F0E021A18F70260102C0440CAF
:1011A000551C8A95E2F7C201922F982B91A392A128
:1011B0008095892382A378940E945608A5E5B1E022
:1011C00090E080E0812C912C54014D91E42FE29528
:1011D000EF70F0E020A130E04F7002C03595279508
:1011E0004A95E2F720FD4EC0412C512C3201439428
:1011F000082E04C0440C551C661C771C0A94D2F7B8
:10120000B301A201842A952AA62AB72A0196813120
:101210009105D9F6F801319780810E945A08F701AB
:1012200080819181A281B38188169906AA06BB06A6
:1012300069F180829182A282B38281E0C82BF4E0BE
:10124000EF0EF11C41E00C36140709F09CCF2C2F57
:1012500046E068EA74E080E994E00E9449090E944F
:10126000EB058C2FCF911F910F91FF90EF90DF90A6
:10127000CF90BF90AF909F908F907F906F905F9036
:101280004F90089540E050E0BA01BCCF80E0D6CF47
:101290000895FF920F931F93CF93DF93F82ED92FCA
:1012A0008B01C42F222349F081E08093DA010E9450
:1012B00070249093D9018093D8018091DA0188231A
:1012C00099F08091D8019091D9010E9488240697C5
:1012D00058F0EF2DFD2FD80190E080E0D0E08C1782
:1012E0009D0744F01092DA01DF91CF911F910F9189
:1012F000FF90089501911191219131910D931D93CA
:101300002D933D930196EBCFEF92FF920F931F9396
:10131000CF93DF93EB01E82FD11110C0442321F0CC
:10132000F0E0E055FA4FE4916E2F7E2F8E2FDF9183
:10133000CF911F910F91FF90EF9008950D2F10E026
:10134000282F30E0442329F020553A4FF901249109
:1013500030E0F6E0CF9FC0011124EFEFF0E0BF01D5
:101360000E947B2CAB018C2F90E0880F991FA5E584
:10137000A49FB001A59F700D1124861B970B982F79
:10138000990F980FBF01601B710B629FD001639F83
:10139000B00D729FB00D11248B2F9D9FB0011124B1
:1013A000672F7727EF01C61BD70BBE01629FE001B5
:1013B000639FD00D729FD00D11247F01E91AF108AF
:1013C000E09EB001E19E700DF09E700D1124672F1C
:1013D0007727E61BF70BE29F8001E39F100DF29F3A
:1013E000100D1124E12F722F4230510599F048F46D
:1013F0004115510569F04130510581F0EB2F8D2FDA
:1014000007C04430510569F080F046305105B1F70E
:101410006E2F8DCFE22F7B2F812FFACFE22F7D2FE2
:10142000F7CFEB2F822F712FF3CF7B2F822FED2F52
:10143000EFCF41E00C94840908950C94190ACF93DE
:10144000DF93762FE901682F842F0E941D0A79838C
:1014500068838A83DF91CF910895433308F042E394
:101460000C941F0A8091C004982F9E7F61F48170B4
:1014700082608093C0048091C304833318F082E3B8
:101480008093C30408958635B0F381708465F1CFED
:1014900088E090E00C947D2DCF92DF92EF92FF9246
:1014A0006B017C010E94320AB701A60188E090E03E
:1014B000FF90EF90DF90CF900C949B2D6091C00433
:1014C0007091C1048091C2049091C3040C944C0AA1
:1014D000E0ECF4E083E0808311828FEF828382E38B
:1014E0008383148260817181828193810C944C0A80
:1014F0008091C00480FF02C08695089580E0089521
:101500009091C404933018F49F5F9093C40488238F
:1015100051F06091C0047091C1048091C204909117
:10152000C3040C944C0A089581E00C94800A9091B5
:10153000C404992319F091509093C404882351F066
:101540006091C0047091C1048091C2049091C30461
:101550000C944C0A089581E00C94970A8091C4047D
:1015600008958093C404662351F06091C004709183
:10157000C1048091C2049091C3040C944C0A089554
:1015800060E00C94B10A8091C10408958091C20476
:1015900008958091C304089521E030E001C0220F36
:1015A0008A95EAF79091A103922381E009F480E003
:1015B000089570E00C94EE116F927F928F929F923B
:1015C000AF92BF92CF92DF92EF92FF920F931F9351
:1015D000CF93DF9300D000D00F92CDB7DEB77090DD
:1015E00008018091C00480FF2BC0C0909603D0906A
:1015F0009703F12CE12C43E0642EC114D10409F0CF
:1016000042C08091070133E0839FC0011124672D00
:101610008B539B4F0E94D90A0F900F900F900F9001
:101620000F90DF91CF911F910F91FF90EF90DF907E
:10163000CF90BF90AF909F908F907F906F900895C4
:101640008091090190910A0123E0829FF001112409
:10165000EB53FB4F891748F61182108212828F5F7D
:101660003396F8CF98014D816C818B810E942D0AB1
:101670000D5F1F4F39C08FEFE81AF80A28E0E21615
:10168000F10409F4BECF8E2D0E94CC0A882399F371
:10169000F701EE0FFF1FEC0DFD1DA590B490A114F6
:1016A000B10409F4AECF45E050E0B501CE0101969A
:1016B0000E945F2D09810F3FF1F28A81800F9927E7
:1016C000991F8935910514F088E590E04C01880C4C
:1016D000991C880D991D9C012B533B4F4901069D78
:1016E000800111240B531B4F0815190508F4BACFBC
:1016F00035E0A30EB11CD7CF9091C00490FF14C069
:101700009091090120910A0133E0939FF001112487
:10171000EB53FB4F921710F00C94DC0A818360832B
:1017200042839F5F3396F6CF0895CF93DF9300D027
:101730000F92CDB7DEB79091C00490FF0AC09E0112
:101740002F5F3F4F0E942D0A4B8169818A810E9441
:101750007C0B0F900F900F90DF91CF910895CF9356
:10176000DF93EC01EC81F0E0E555FB4F4491E0ECB8
:10177000F4E0628181810E94950B8C818F5F8C8364
:10178000DF91CF910895CF93DF93EC01E0ECF4E08B
:10179000438162818C810E94950B8C818F5F8C8349
:1017A000DF91CF9108950F931F93CF93DF9300D0D4
:1017B0000F92CDB7DEB78C018091DB0181110AC099
:1017C0009E012F5F3F4F42E36FEF0E942D0A8A81F7
:1017D0008093DB01F8016481613069F08091DB0165
:1017E00040E0662361F040E0623011F44091DB019B
:1017F00080E060E004C06091DB0140E080E00E9496
:101800007C0BF801848190E0019663E070E00E9417
:101810008F2C84830F900F900F90DF91CF911F91A9
:101820000F910895AF92BF92CF92DF92EF92FF9205
:101830000F931F93CF93DF9300D00F92CDB7DEB7F6
:10184000182FF62E042FE22E9091C00490FF29C08D
:10185000E92FE695AE2FB0E0A459BE4F8C9180934E
:101860009F039E7F923059F59E012F5F3F4F812F3E
:101870000E942D0A4B8169818A810E947C0B109302
:10188000C104F092C2040093C304EE2051F06091B1
:10189000C0047091C1048091C2049091C3040E945D
:1018A0004C0A0F900F900F90DF91CF911F910F91E5
:1018B000FF90EF90DF90CF90BF90AF90089582306F
:1018C00019F40091C304DBCF863019F41091C104E0
:1018D000D6CF8930D9F3893191F6E9518E2F8170B5
:1018E000D82EE695F0E0E555FA4FA590B490C12CBE
:1018F000BB2460910B01C61618F00E94DC0ABFCF12
:101900002C2D30E0A29EC001A39E900DB29E900DA2
:10191000112470E00E947B2C812FD11013C0860F00
:1019200040910901420F532F511D9A01220F331F7D
:10193000240F351F2B533B4F402F6F2D0E942D0A34
:10194000C394D7CF861BECCFE0ECF4E09181282F35
:101950004381628188E0890F0C94120C81E00C9421
:10196000A40CE0ECF4E09181282F4381628188EFA0
:10197000890F0C94120C81E00C94B10CE0ECF4E0B3
:10198000628128E0620F08F46FEF282F4381818184
:101990000C94120C81E00C94BE0CE0ECF4E062813B
:1019A00028E0621B08F460E0282F438181810C94B9
:1019B000120C81E00C94CD0CE0ECF4E0438128E0C3
:1019C000420F08F44FEF282F628181810C94120C92
:1019D00081E00C94DC0CE0ECF4E0438128E0421B55
:1019E00008F440E0282F628181810C94120C81E080
:1019F0000C94EB0C20E00C94120CEF92FF921F93CE
:101A0000CF93DF93EC0110E0EE24EA94F12C609187
:101A10000B01161770F00E94DC0A9A818C8190FFEE
:101A200027C08F5F8C83DF91CF911F91FF90EF9044
:101A3000089520910901422F410F5527551FCA01D2
:101A40009A01220F331F280F391F2B533B4F70E091
:101A5000C7010E948F2C962F8C814091C304609106
:101A6000C204199F800D11240E942D0A1F5FCFCF41
:101A70008150D8CFAF92BF92CF92DF92EF92FF9278
:101A80000F931F93CF93DF93FC0182810FEF80FFB1
:101A900001E010E048E5A42E80910B011817C8F072
:101AA0000E94DC0A8091DD01013009F055C08111EE
:101AB00002C080910B0181508093DD01DF91CF91B5
:101AC0001F910F91FF90EF90DF90CF90BF90AF905C
:101AD0000895C0910901C12ED12CCC0DDD2DD11D51
:101AE000CE01880F991FC80FD91FCB53DB4F198226
:101AF00018821A8234E0E32EF12CB12C8091DD01A2
:101B00008B0D89351CF16A2D0E946D2C892F082EB2
:101B1000000C990BC816D90691F48091C3048E9DD0
:101B2000A0018F9D500D11245595479555954795CA
:101B30009E016091C2048091C1040E942D0AB00EE2
:101B4000F1E0EF1AF108D1F61F5FA6CF87FFDFCFD4
:101B500090910B01890FDBCF90E0019660910B0112
:101B600070E00E948F2CA8CF0F931F93CF93DF9329
:101B70008091090190910A0123E0829FF0011124D4
:101B8000EB53FB4F891740F1C0E0D3E060910B01AC
:101B9000C61740F10E94DC0A209105018091DC010A
:101BA000820F8093DC0190910601920F90930601C1
:101BB000191654F4082E000C990B40910B0141505A
:101BC000550B841795071CF0219520930501DF9193
:101BD000CF911F910F9108951182108212828F5F11
:101BE0003396D0CF0C2F10E070E0C8010E948F2CEC
:101BF00020910901820F482F50E02091DC01022E34
:101C0000000C330B02171307BCF020910601022EC3
:101C1000000C330B201731077CF08D9F90011124AD
:101C20002B533B4F4091C3046091C2048091C10487
:101C30000E942D0ACF5FAACFFA01EE0FFF1FE40F1B
:101C4000F51FEB53FB4F118210821282F3CF8F925C
:101C50009F92AF92BF92CF92DF92EF92FF920F933B
:101C60001F93CF93DF93EC014C81042F10E0980178
:101C7000D8010E94DA2C9B01AC010E94F02C4B0190
:101C80005C01E0E2F0E0E01BF10BA5E5B0E0AC01A7
:101C90009B010E94F02C6B017C019F01DF010E94DF
:101CA000D22C9B01AC010E94FB2C9B01AC01280DA6
:101CB000391D4A1D5B1DC701B6010E94A32CF22EDF
:101CC000822F90E039E23F1560F143E0249F9001BC
:101CD000112435952795122F109500E085E5E82E03
:101CE000EF1880910B01081758F10E94DC0A9C81C3
:101CF00081E0992319F0903219F48FEF8093040159
:101D000080910401890F8C83DF91CF911F910F91F6
:101D1000FF90EF90DF90CF90BF90AF909F908F900B
:101D2000089525E530E0B901681B790B9B01220F6E
:101D3000331F260F371F37FFCCCF2F5F3F4FC9CF41
:101D40008E2D01FD8F2D20910901622F600F7727C5
:101D5000771F9B01220F331F260F371F2B533B4F3B
:101D6000412F6091C2040E942D0A0F5FBACF0F93DA
:101D70001F93CF93DF93EC0110E000E090910B01F3
:101D80009017110609F06CF40E94DC0A8C8190E037
:101D90000196817099278C83DF91CF911F910F91CC
:101DA000089520910901A801420F511D9A01220FA7
:101DB000331F240F351F2B533B4F4C816091C204BE
:101DC0008091C10496959017110651F04CF0442370
:101DD00049F04091C3040E942D0A0F5F1F4FCECFE0
:101DE0004423B9F340E0F7CF8F929F92AF92BF9216
:101DF000CF92DF92EF92FF920F931F93CF93DF93D7
:101E0000FC01B280948081E0848300E015E05BE413
:101E1000A52E88248394EE24EA94F12C7BE4C72E2B
:101E2000D12C80910B01081770F0DF91CF911F9199
:101E30000F91FF90EF90DF90CF90BF90AF909F9069
:101E40008F900C94DC0AC02FD0E01C9FF0011D9FE6
:101E5000F00D1124E252FE4F91101CC01382128229
:101E600020910901CE01820F911D9C01220F331F89
:101E7000280F391F2B533B4F1C9FF0011D9FF00D66
:101E80001124E252FE4F4281618180810E942D0A1D
:101E90000F5FC7CF2381222379F12150238334811F
:101EA0008A2D821B311101C0822F1C9FF0011D9FC2
:101EB000F00D1124E252FE4F9091C304899FC0019E
:101EC0001124B6010E947B2C6283211104C03323AC
:101ED00011F01482A38222E02B1510F21C9FF00156
:101EE0001D9FF00D1124E252FE4F8091C1048083AA
:101EF0008091C2048183B4CF0E944F2D82309140E3
:101F00000CF0AECF82E08B1530F50E944F2DB7015B
:101F10000E948F2C1C9FF0011D9FF00D1124E25296
:101F2000FE4F808322E02B15C8F40E944F2D209194
:101F3000C2042695622F70E00E948F2C280F1C9FF0
:101F4000F0011D9FF00D1124E252FE4F21831282F9
:101F5000A382848285CF8091C104DCCF2091C2040A
:101F6000EECFE0ECF4E080818E7F80836081718130
:101F7000828193810E944C0A1092A0032FEF80E788
:101F800092E0215080409040E1F700C000000C94A6
:101F9000DC0AE0ECF4E080818E7F80831092A00365
:101FA0002FEF80E792E0215080409040E1F700C0A1
:101FB00000000C94DC0A6091C004669570E04BE070
:101FC00050E08CE091E00E94682D892B19F481E0AB
:101FD0008093A0030E9470249093990380939803A8
:101FE00008959091C00490FF35C09170811128C070
:101FF00092609093C004662351F06091C004709188
:10200000C1048091C2049091C3040E944C0A609163
:10201000C004669570E04BE050E08CE091E00E94D7
:10202000682D892BA1F01092A00381E080939B037F
:102030004091C3046091C2048091C1040C94FA0CD5
:102040008B3210F09465D5CF880F982BD2CF0E9499
:10205000DB0FEBCF0895682F9091C004969581E037
:10206000890F8B3208F081E00C94F10F81E00C9421
:102070002B10682F9091C00496958FEF890F09F46B
:102080008AE20C94F10F81E00C94391061E00C9419
:10209000F10FE0ECF4E080818160808386950C9400
:1020A00046108091C00480FD0C94B10F0C9449102F
:1020B00060E00C94F10F80919E0381112EC00E946C
:1020C0008222811104C00E9426230E94680A0E9475
:1020D000480A6093C0047093C1048093C204909333
:1020E000C3046E7F61F40E94680A0E94480A6093EC
:1020F000C0047093C1048093C2049093C3040E94EF
:10210000320A1092A0038091C00480FF03C086951C
:102110000E94581081E080939E030895E0ECF4E063
:1021200080818160808386950C94581021E030E096
:10213000A90102C0440F551F8A95E2F7CA012091F8
:10214000A103662391F0822B8093A1038091A003C9
:10215000811105C08091C00486950E94581080911D
:10216000C00480FD05C00C94DC0A80958223ECCF6E
:1021700008950F931F93CF93DF938091A00388233B
:1021800009F49DC080919F03E091C004E695E81B8F
:10219000E0939A038230C9F5F0E0E955FB4FE491F2
:1021A000CE2FD0E00FEA1BE080919B03882389F0BB
:1021B00010929B030E9470249E0120953095820FFF
:1021C000931F909399038093980310929D0310920C
:1021D0009C0380919803909199030E9488248C1706
:1021E0009D0708F46CC0E0919803F0919903CE0F1D
:1021F000DF1FD0939903C093980388E993E0F80117
:10220000DF91CF911F910F910994863049F4F0E04E
:10221000EC55FB4FE491CE2FD0E003EC1BE0C4CF94
:10222000893051F4E695F0E0EF55FB4FE491CE2F65
:10223000D0E00DEF1CE0B8CF8F3051F4E695F0E020
:10224000E256FB4FE491CE2FD0E00AE31DE0ACCF85
:10225000853149F4F0E0E556FB4FE491CE2FD0E014
:1022600004EB1DE0A1CFC8E2D0E007E21EE0883118
:1022700009F49ACF833239F4E9E9F4E0C591D491B5
:1022800003ED1BE091CFC4EFD1E007EB1EE08432F9
:1022900009F48ACFC0EDD7E00CE11AE0853209F0ED
:1022A00083CF8E2F63E00E94612CE92FF0E0EA5685
:1022B000FB4FE491CE2FD0E004EF1EE075CFDF910D
:1022C000CF911F910F910895FA01811101C0FB0177
:1022D0000994CF93DF93C82FD62F0E94780A8C17CA
:1022E00040F00E94780A8D1720F4DF91CF910C9472
:1022F00036108C2FDF91CF910C9446100F931F93C3
:10230000CF938C01FB01C281CC2309F465C00E94EC
:10231000CD218272F801E25CFC45E431F10538F42C
:10232000E252F24D0C94C52C0E945110C0E08C2F4B
:10233000CF911F910F91089543E450E166E370E15E
:102340000E946411F3CF46E350E163E470E1F8CFFB
:102350004BEB5CE06EEA7CE0F3CF4EEA5CE06BEBCB
:102360007CE0EECF49ED5CE06AEC7CE0E9CF4AEC42
:102370005CE069ED7CE0E4CF47EF5CE068EE7CE098
:10238000DFCF48EE5CE067EF7CE0DACF4BEA5AE063
:1023900064E97AE0D5CF44E95AE06BEA7AE0D0CF3D
:1023A00081E00E944610C2CF65E082E00E94691180
:1023B000BDCF68E086E0FACF6EE089E0F7CF64E158
:1023C0008FE0F4CF67E185E1F1CF88E1EACF62E207
:1023D00089E1ECCF83E2E5CFC1E0A9CF6E9A4EB19F
:1023E0004F7B5EB15064EFB7F8949B01220F331F0F
:1023F000260F371F280F391F2817390741F4EFBF61
:102400008FE594E00197F1F700C000000895DC012A
:102410006D91CD0178E05EB9000000C067FF4EB954
:10242000660F000000C000C000C04EB900C07A9521
:1024300091F7E2CF82E290E00E94752D813289F41B
:1024400083E290E00E94752D823059F484E290E09E
:102450000E94752D91E0863109F090E0892F8170FE
:10246000089580E0FCCFCF93C82F6FEF811161E218
:1024700082E290E00E94892D6FEFC11162E083E259
:1024800090E00E94892D6FEFC11166E184E290E037
:10249000CF910C94892D80E00E9433120C947C2201
:1024A000089585E290E00E94752D682F70E090E01D
:1024B00080E0089585E290E00C94892D0E945012EE
:1024C0000E941A1281110CC060E070E0CB010E94E2
:1024D0005A120E9415140E94FF1481E00C943312CA
:1024E0000895CF93FB01C281CC2309F19C012251B5
:1024F0003F452031310520F582510E940F15C0E083
:102500008C2FCF91089581E00E94482043E062E043
:1025100081E00E94CF05F3CF81E00E94692043E073
:1025200062E081E00E94CF05EBCF82E0F6CF803100
:10253000FFE59F0789F381319F45B9F3C1E0E0CF03
:102540008031EFE59E07F9F281319F45C9F682E0BF
:10255000DBCF2FEFFC0120830895CF93DF93EC01B5
:1025600088818138A9F028F4803871F0DF91CF910B
:102570000895823881F08338C9F70E94C30A89839D
:102580000E94C60A8A83F2CF0E94C90A8983EECFCD
:102590000E94780AFBCF0E94AE0AF8CFCF93DF9358
:1025A000EC0188818138E1F028F4803869F0DF910E
:1025B000CF910895823811F18338C9F70E94C90A72
:1025C000482F6A81898108C0D9810E94C60AC82F14
:1025D0000E94C30A4D2F6C2FDF91CF910C94FA0CFF
:1025E00089810E9458108981811104C0DF91CF91A7
:1025F0000C94C90FDF91CF910C948E108981DF91DB
:10260000CF910C94C00AEF92FF920F931F93CF9338
:10261000DF93EC01E62EDC01ED91CD01E150E331D9
:1026200008F0C0C0F0E0EE50F24D0C94C52C1982B9
:1026300089E08A836E2DCE01DF91CF911F910F919A
:10264000FF90EF900C9495258981823069F083305A
:1026500071F08130E1F40E947C240E94CB2C6A83CB
:102660007B838C839D83E6CF0E945112F6CF8E012F
:10267000F12C8F2D0E944A08F801828373836483B2
:10268000F3940D5F1F4FF6E0FF12F3CFD3CF6E2D03
:10269000CE010E94A912CECF89818230C1F76A8112
:1026A0007B818C819D810E94CB2C0E945A12C2CFCB
:1026B0004B816A8189810E94E7139827892798278F
:1026C0009D838C83B7CF2C813D81322723273227EE
:1026D0004B816A8189810E940014ACCF0E9415143D
:1026E000A9CF0E94CE12A6CF0E94AD12A3CF0E9406
:1026F0005E0AA0CF0E94AA1489839CCF0E94AC14CA
:102700009827892798279A83898394CF6B8170E0D3
:1027100089819A81AE014C5F5F4F9827892798275E
:102720000E94AF1487CF6B8170E089819A81AE01DE
:102730004C5F5F4F9827892798270E94D5147ACF3E
:102740000E94FF1477CF0E94D513D6CF6B8170E023
:1027500089819A81AE014C5F5F4F9827892798271E
:102760000E944D1467CF6B8170E089819A81AE0120
:102770004C5F5F4F9827892798270E9473145ACF80
:102780000E944B1257CFCE010E9495252FEF81EE6C
:1027900094E0215080409040E1F700C000000E948A
:1027A000BB2448CF8FEF888345CF84E0089550E065
:1027B000440F551F92E2699F400D511D11249CEC5E
:1027C000899F400D511D1124CA01869608950F93CB
:1027D0001F93CF93DF930E94D7138C010E94752D16
:1027E000C82FD0E0DC2FCC27C80101960E94752DA0
:1027F0009E01282BC901DF91CF911F910F91089560
:102800000F931F93CF93DF93122F032F0E94D713A1
:10281000EC01602F0E94892D612FCE010196DF917E
:10282000CF911F910F910C94892DAF92BF92CF92AF
:10283000DF92EF92FF921F93CF93DF9386ECC82E27
:1028400080E0D82ED0E07601C0E014C0F5012591DB
:102850003491412F6C2F8D2F0E94001482E0A80E1E
:10286000B11C1F5F113191F782E2E80EF11CCF5FBE
:10287000C63019F0570110E0E9CFDF5F8CECC80ECD
:10288000D11CD43001F7DF91CF911F91FF90EF90D1
:10289000DF90CF90BF90AF900895EF92FF920F938B
:1028A0001F93CF93DF93EC018A017C01E60EF71EA4
:1028B000CE018696CE15DF0539F4DF91CF911F91B9
:1028C0000F91FF90EF900895C03323E0D20740F4BA
:1028D0000E94752DF80180830F5F1F4F2196E8CF6E
:1028E000F8011082F9CFCF92DF92EF92FF920F930F
:1028F0001F93CF93DF937C016A018C01060F171F92
:10290000EC01CE018696C017D10749F4DF91CF9133
:102910001F910F91FF90EF90DF90CF900895C033FB
:1029200023E0D20740F4FE01EE19FF09EC0DFD1D76
:1029300060810E94892D2196E4CF462F843038F49F
:10294000763028F4613118F4672F0C94E71390E087
:1029500080E0089580E108958AEA90E00895EF927A
:10296000FF920F931F93CF93DF93EC018A017C01B9
:10297000E60EF71ECE018A5A9C4FCE15DF0539F4BC
:10298000DF91CF911F910F91FF90EF900895CA3A78
:10299000D10540F40E94752DF80180830F5F1F4F11
:1029A0002196E8CFF8011082F9CFCF92DF92EF9213
:1029B000FF920F931F93CF93DF937C016A018C01E9
:1029C000060F171FEC01CE018A5A9C4FC017D10782
:1029D00049F4DF91CF911F910F91FF90EF90DF901D
:1029E000CF900895CA3AD10540F4FE01EE19FF09CF
:1029F000EC0DFD1D60810E94892D2196E4CFCF93BF
:102A0000DF93C6E5D3E060E0CE010E94892D2196D8
:102A1000C11584E0D807B9F7DF91CF910895DF920F
:102A2000EF92FF920F931F93CF93DF9300D000D0CC
:102A3000CDB7DEB7F82E8FE08F1540F08FEF93E023
:102A40000E94752D06E513E08823C1F00F900F90CA
:102A50000F900F90DF91CF911F910F91FF90EF900A
:102A6000DF900895011584E0180781F3C8010E94E2
:102A7000752D811101C0FA940F5F1F4FF110F2CF35
:102A800019821A821B821C82DD24D39478018FEF75
:102A9000E81AF80AC8010E94752D89831A828823D2
:102AA000A9F29FEF980F933078F48A83D9820E5F52
:102AB0001F4FC7010E94752D8B83882339F2CE01E9
:102AC00001960E947805E2CF8701F9CF0F931F93FB
:102AD000CF93DF93C42FD22FFC0182818823C9F0CA
:102AE0004093A4030E9470249093A3038093A203B5
:102AF00080E28C0F883008F050C0C77081E001C0C0
:102B0000880FCA95EAF7DF91CF911F910F910C942E
:102B1000E1191091A403141335C08091A203909180
:102B2000A3030E948824883C910560F5C0E2CD0F84
:102B30001D17B9F080E2810F883040F4177081E0F2
:102B400001C0880F1A95EAF70E94E819C83048F4C6
:102B500081E09D2F977001C0880F9A95EAF70E9437
:102B6000E119802F0E94CE19C830B8F4D77081E0E7
:102B700001C0880FDA95EAF7DF91CF911F910F918D
:102B80000C94E81980E28C0F883038F4C77081E02B
:102B900001C0880FCA95EAF7EFCFDF91CF911F915F
:102BA0000F9108950F939C01CB01233F4CE534070F
:102BB00059F1A8F4283DFCE53F0701F1293D4CE51A
:102BC0003407D1F1273D3C4591F406E221EE41EE78
:102BD00067ED7CE50E94661580E00F910895253F22
:102BE000FCE53F07E9F0B0F0263F3C45F9F0FC0179
:102BF0008281882339F11092A403EFCF07E225EEFA
:102C000045EE68ED7CE5E6CF06E221EE40EE63EFAF
:102C10007CE5E0CF07E225EE44EE64EF7CE5DACF19
:102C200006E221EE42EE65EF7CE5D4CF07E225EE29
:102C300046EE66EF7CE5CECF08E221E045EE69ED99
:102C40007CE5C8CF81E0C9CFCF93DF93EC01FB01D6
:102C50008281882309F419C1C230FCE5DF07C0F185
:102C6000C6319CE5D90730F09E012A5F3C452930EA
:102C7000310570F50E9495229093D2058093D1057D
:102C8000C031ECE5DE0709F4CFC008F05BC0C83006
:102C90008CE5D80709F4B6C088F5C430ECE5DE074A
:102CA00009F4A8C0C0F4C2308CE5D80709F49CC070
:102CB0008091D1058260C330DC4509F498C08091D1
:102CC000D1059091D2050E94A3220E944E1C80E063
:102CD000DF91CF9108958091D1058061C630ECE5F8
:102CE000DE0709F484C08091D1058860C730DC45D7
:102CF00008F47DC08091D105806279C0CC308CE52C
:102D0000D80709F489C070F48091D1058C60CA306D
:102D1000ECE5DE0709F46BC008F478C08091D105BA
:102D20008E7F65C0CE308CE5D80709F479C08091DC
:102D3000D1058B7FCF30DC4508F459C08091D10597
:102D40008F7E55C0CB3FECE5DE0709F457C030F568
:102D5000C3318CE5D80709F46FC078F4C131ECE5D4
:102D6000DE0709F465C0C231DC4509F0A8CF0E9436
:102D70004E1C8091D1058F773AC0C5318CE5D807BC
:102D800009F462C008F476C08091D2058160CA3F20
:102D9000DC4509F094CF8093D20591CFCF3FFCE57D
:102DA000DF0709F44DC088F48091D2058D7FCD3FB7
:102DB0009CE5D90781F38091D2058E7FCE3FDC451B
:102DC00050F38091D2058360E6CFC130FDE5DF0787
:102DD00009F459C008F444C080E0C230DD4509F070
:102DE0006ECF0E9428236BCF8091D10581608093A4
:102DF000D10565CF8091D1058460F9CF8091D2054E
:102E00008260C9CF8091D1058064F1CF0E944E1CB1
:102E10008091D1058068EBCF8091D1058D7FE7CF80
:102E20008091D105877FE3CF8091D1058F7DDFCF62
:102E30008091D1058F7BDBCF8091D105837FD7CF68
:102E40008091D2058C7FA7CF8091D10582FB9927F5
:102E500090F921E0922790FB82F990FB83F9C7CF8C
:102E60008091D205982F909591708E7F892B90FB41
:102E700081F991CF0E944E1C9091D105892F97FB2B
:102E800087F98058B4CF81E0ACCF81E021CFCF93D8
:102E9000DF93EB0186319C4511F50E94CD219A818B
:102EA000992399F08A7A91E009F490E09093A50330
:102EB000811109C089E20E94A8210E94192280E0A4
:102EC000DF91CF91089585E3F6CF8091A50381111D
:102ED00004C089E20E94AF21F0CF85E3FBCF81E0FF
:102EE000EFCF9093AB038093AA030895E091AA03D8
:102EF000F091AB03309721F00190F081E02D09941F
:102F000080E00895E091AA03F091AB03309799F027
:102F100020912301222359F02091D10527FF07C0DA
:102F2000DC012C9111962C93119725E02C930280B3
:102F3000F381E02D099408952091A8033091A9030D
:102F40002817390771F09093A9038093A803E091A3
:102F5000AA03F091AB03309721F00680F781E02DB2
:102F6000099408952091A6033091A70328173907E3
:102F700071F09093A7038093A603E091AA03F091C8
:102F8000AB03309721F00084F185E02D099408957A
:102F900085B7806885BF85B7806885BF0895089527
:102FA00008950C94CF170C945C040E94C8170E94DB
:102FB000D0170C94D11781E008950C94DB17089575
:102FC00008950E9467240E9471080E945E120E9468
:102FD000F5240E945B100C94D3174F925F926F926E
:102FE0007F929F92AF92BF92CF92DF92EF92FF9229
:102FF0000F931F93CF93DF93CDB7DEB72A970FB60A
:10300000F894DEBF0FBECDBF0E94DF170E94E0170D
:103010000E94AA080E94DD17882309F490C04DEA97
:10302000A42E43E0B42E10E000E0902E802F0E94EA
:103030004A082B013C01F501C190D190E190F1903B
:103040005F01C414D504E604F70409F472C080914A
:103050006C0481FD0E945508B701A6014425552541
:103060006625772520E0C12CD12C7601C394DB01A5
:10307000CA018C219D21AE21BF21892B8A2B8B2B4C
:1030800009F44FC02E839F824C205D206E207F204C
:1030900081E045284628472809F480E088870E9477
:1030A00070248160782F9A8789874E815F81688537
:1030B0008A850E94C618000F111F000F111FF8010A
:1030C000E355FC4F80819181A281B3818C259D25A0
:1030D000AE25BF2580839183A283B3830E94B9105C
:1030E0000E9476179091AC038917D1F10E94761750
:1030F0008093AC032A960FB6F894DEBF0FBECDBF07
:10310000DF91CF911F910F91FF90EF90DF90CF90C3
:10311000BF90AF909F907F906F905F904F900C9476
:103120004A062F5FCC0CDD1CEE1CFF1C213109F080
:103130009ECF0F5F1F4F0630110509F076CF8FEF3E
:1031400089838A831B820E9470248160782F9D83EB
:103150008C8349815A816B818D810E94C618BECFB4
:103160002A960FB6F894DEBF0FBECDBFDF91CF9188
:103170001F910F91FF90EF90DF90CF90BF90AF9095
:103180009F907F906F905F904F900895CF93DF93C3
:10319000CDB7DEB72B970FB6F894DEBF0FBECDBF0D
:1031A0004F83588769877A878B871E821D8285E0C7
:1031B000FE013796DE01119601900D928A95E1F796
:1031C00049815A816B817C818D819E812B960FB6BE
:1031D000F894DEBF0FBECDBFDF91CF910C94C41E1B
:1031E000FC01808191810C947A21CF93C82F882390
:1031F00009F483C08238C1F40E94761781FD7DC036
:1032000089E30E94A8210E9419222FEF81EE94E009
:10321000215080409040E1F700C0000089E30E9407
:10322000AF21CF910C9419228338A1F40E94761714
:1032300080FD63C083E50E94A8210E9419222FEF20
:1032400081EE94E0215080409040E1F700C0000002
:1032500083E5E5CF8438A1F40E94761782FD4DC046
:1032600087E40E94A8210E9419222FEF81EE94E0AA
:10327000215080409040E1F700C0000087E4CFCFAC
:103280008CEF8C0F813A90F46C2F80911701909104
:1032900018010E944123882329F08C2F0E94AF211E
:1032A0000E9419228C2F0E94A821BBCF80E28C0F94
:1032B000883048F4C77081E001C0880FCA95EAF7EA
:1032C0000E94D021AECFEBE5EC0FE33040F4F0E00C
:1032D000EB53FE4F808190E0CF910C949C17C85A1D
:1032E000C73158F4EC2FF0E0EE0FFF1FE956FE4F08
:1032F00080819181CF910C94B217CF91089588234A
:1033000009F44BC0823871F40E94761781FF45C0E2
:1033100089E30E94A8210E94192289E30E94AF211B
:103320000C941922833859F40E94761780FF35C017
:1033300083E50E94A8210E94192283E5EFCF8438FB
:1033400059F40E94761782FF28C087E40E94A821C2
:103350000E94192287E4E2CF9CEF980F913AF0F295
:1033600090E2980F983050F4877091E001C0990F67
:103370008A95EAF7892F0E94D621D2CF9BE5980F34
:10338000933020F490E080E00C949C17885A8731A9
:1033900020F490E080E00C94B2170895CF93C82FEA
:1033A0000E94F518C93349F42FEF87EE93E02150BE
:1033B00080409040E1F700C000008C2FCF910C942A
:1033C0007F19882321F00E94D0210C94192208959E
:1033D000882321F00E94D6210C9419220895BF92CF
:1033E000CF92DF92EF92FF920F931F93CF93DF93D1
:1033F0006C01D62FC72FFC01058102950F70128139
:1034000011110E94ED210E94C621E82E882391F01F
:103410001123D1F08C2F807F803421F080E28D0F3A
:10342000883090F082E00E9464220E94C62191E0E0
:10343000E82EE926BC2EB2949FE0B922EB2DF0E0F5
:10344000EB5FF14D0C94C52CE12CF4CF0C2F0F70D9
:10345000C07F11F00295007F1123A9F0002359F0DD
:1034600080E28D0F883010F0D11109C0802F0E94AA
:10347000D0210E9419228D2F0E94F51814C0802F90
:103480000E94E021F6CF8D2F0E947F19002359F072
:1034900080E28D0F883010F0D1112CC0802F0E9457
:1034A000D6210E9419222B2D2850330B24303105B0
:1034B00020F40E9476170E944A06EE2009F493C178
:1034C0000E94C22180FD8FC1F60112820E94BC21A0
:1034D0000E944820C6010E94141C0E94BC21DF915A
:1034E000CF911F910F91FF90EF90DF90CF90BF9001
:1034F0000C946920802F0E94E621D3CFFC2FFF700F
:10350000FF2EC07FC03219F0F29480EFF822DD2345
:1035100069F0D13049F1112391F1002351F1F60105
:10352000858180FFA8CF8F70858323C0112381F010
:10353000011106C00E9400228F290E94E119B3CF19
:103540000130C1F70E9400228F290E940622ABCFD2
:10355000011106C00E940F228F2D0E94E819A3CFEF
:10356000013009F4A0CFF6CF112329F0063008F07E
:103570009ACF8F2DE2CF053008F095CFEDCF002305
:1035800059F3D93349F4FFEF27EE33E0F1502040EF
:103590003040E1F700C000008D2F0E947F1983CFDB
:1035A0008C2F86958695837069F0813009F07BCFEA
:1035B0008D2F9C2F9370111102C090E080E00E942B
:1035C000B21771CF8D2F9C2F9370111102C090E014
:1035D00080E00E949C1767CF8C2F837009F041C058
:1035E000111161CF4D2F429546954770440F440FFE
:1035F0000D2F0F7010E030E020E0042E04C0000F0B
:10360000111F221F331F0A94D2F760E070E0CB0134
:10361000D4FF0FC06FE070E080E090E004C0660F60
:10362000771F881F991F4A95D2F7609570958095EE
:103630009095C695C695C370602B712B822B932BEA
:10364000C23049F058F4C13019F00E94FA1F2BCF54
:103650000E94E81F28CF0E940C2025CF0E94E61F61
:1036600022CF8695112311F08C2F8170882309F4C5
:103670001ACF4D2F429546954770440F440F0D2F9A
:103680000F7010E030E020E0042E04C0000F111F86
:10369000221F331F0A94D2F760E070E0CB01D4FF01
:1036A0000FC06FE070E080E090E004C0660F771F0D
:1036B000881F991F4A95D2F76095709580959095CF
:1036C000C695C695C370602B712B822B932BC2308D
:1036D00049F058F4C13019F00E94BF20E4CE0E9496
:1036E000AD20E1CE0E94D120DECE0E942220DBCE92
:1036F000CF70112329F08C2F0E9448208D2F1DCFD1
:103700008D2F0E94E8198C2F0E946920CCCED23FC9
:1037100089F160F4D03FC9F0D13F29F1112309F4B8
:1037200042C00111A8CE8C2F8F7121C0D33F39F137
:10373000D43FA1F7112369F1CF718C2F0E9448204B
:1037400063E08C2F0E944F22AECE112341F0053052
:1037500008F0A9CE8C2F8F710E948C20A4CE063049
:1037600008F0A1CEF7CF8C2F8F71112369F20E9440
:10377000482099CE8C2F8F711123C9F3C5CF112307
:1037800029F08C2F8F710E9433208DCE0E942E2025
:103790008ACE81E00E946422023008F484CE82E066
:1037A0000E94642280CE002359F0D93309F0F4CE70
:1037B0008FEF97EEE3E081509040E040E1F7EACEF2
:1037C0008C2F8F71A1CF4C2F4F706D2FC6010E948F
:1037D00052060E945E1F67CE4C2F4F706D2FC601A0
:1037E0000E94550660CEDF91CF911F910F91FF90FF
:1037F000EF90DF90CF90BF9008950F931F93CF93DA
:10380000DF93EC01688179818A810E9484218C0197
:103810000E94E3200E94E51FB801CE01DF91CF9105
:103820001F910F910C94EF19CF93DF93EC018B81D3
:103830009C81892B29F08881998189238F3F59F4B4
:10384000DF91CF910895CE010E94FD1BCE01DF9143
:10385000CF910C94B904CE010E94FD058111F3CFE4
:103860000E94C621882361F38A81882349F382E07C
:10387000DF91CF910C9464220E94ED210E94FD21E2
:103880000E94192290E080E00E949C1790E080E066
:103890000C94B2170E94B6210C943C1C0E94DD21AE
:1038A0000C944A1CE92FE295EF70E250EE3070F470
:1038B000F0E0EB5EF14D0C94C52C803F19F020F444
:1038C000883E20F481E00895843FE1F380E008958C
:1038D000883EC0F3813FD1F7F5CF93FB882780F96D
:1038E00008950E947A210C94521CCF93DF9300D04C
:1038F00000D00F92CDB7DEB70F900F900F900F90C2
:103900000F90DF91CF910895CF93DF9300D000D037
:1039100000D0CDB7DEB726960FB6F894DEBF0FBE47
:10392000CDBFDF91CF9108951F93CF93DF93C091C7
:10393000C60316E08091C7038C1304C0DF91CF91BA
:103940001F910895D0E01C9FF0011D9FF00D1124E0
:10395000E853FC4F4081518162817381848195815C
:103960000E94841C2196C770E5CF4091F8035091C6
:10397000F9036091FA037091FB038091FC0390912D
:10398000FD030C94841C1F93CF93DF938091FD0360
:10399000807FA9F48091FA03882389F08091C6037F
:1039A000C091C7036091F8037091F903A091FB03E4
:1039B000B091FC03D62FD72316E0C81304C0DF91C3
:1039C000CF911F91089590E0109711F0DF3F19F407
:1039D00001968770F2CF189F9001199F300D112426
:1039E000F901E853FC4F41814713F2CF4081461360
:1039F000EFCF42814111ECCF438154814A1B5B0BD5
:103A0000483C510528F78091FD038F7080618093B9
:103A1000FD03F901E353FC4F80818F708061808347
:103A200088EF93E00E94141CDF91CF911F910C94BA
:103A3000941CAF92BF92CF92DF92EF92FF920F93BE
:103A40001F93CF93DF93CDB7DEB761970FB6F8948E
:103A5000DEBF0FBECDBF8C0185E0F801DE011D96F3
:103A600001900D928A95E1F7F80140815181E28041
:103A700088EFC82E83E0D82E6091FB037091FC0381
:103A80006115710509F461C19091F8032091F90362
:103A9000892F82238F3F09F458C1A380B480F0900E
:103AA000FA03F501E61BF70BFF2009F4FCC0809137
:103AB000FD03382F307FE83CF10508F0B2C031112A
:103AC00079C0FE2C251323C0941321C0E1101FC020
:103AD0008F7080618093FD030E94B51CC6010E9417
:103AE000141C8091FD03F80185838F2D61960FB61C
:103AF000F894DEBF0FBECDBFDF91CF911F910F9124
:103B0000FF90EF90DF90CF90BF90AF900895AB28DB
:103B100029F0842F85238F3F09F033C180E0F82FEF
:103B2000F170DF2E80FF3CC08091C6032091C70357
:103B300036E0821315C04D875E878D859E850E9475
:103B40007A21292F22952F702230F0F0243018F599
:103B50009F70F1F0F8019581907FD1F4D12C1EC0B7
:103B600090E0389FF001399FF00D1124E853FC4F8D
:103B70006181651306C06081641303C062816E11A8
:103B80000FC001968770D5CF9F7011F0882331F355
:103B9000805E883018F3C8010E94141CFD2CA5CF4C
:103BA000EE2009F4A2CF8091FD0381608093FD0394
:103BB000F12C9BCF251306C0941304C0F801EE200E
:103BC00009F48DC04D875E878D859E850E94711C8E
:103BD000882319F1EE2009F18091FD03803270F005
:103BE0002091F8033091F90338872F831986BB861B
:103BF000AA868C87CE0107960E94141C86E0F801E5
:103C0000A8EFB3E001900D928A95E1F70E94C31CE2
:103C10000E94B51CFF24F39468CFC8010E94141CB5
:103C2000F9CF311113C07A2DB98AA88A6E2D8989EE
:103C30000E94751C88EF93E00E94141C86E0F60138
:103C400011928A95E9F70E94B51CB2CF25130FC0D7
:103C500094130DC0E1100BC0F8018583C8010E94C8
:103C6000141C86E0F60111928A95E9F73ECF4D8744
:103C70005E878D859E850E94711C882371F2EE20DF
:103C800061F28091FD03803208F4B8CF2091F803EF
:103C90003091F9033A8329831B82BD82AC828E83E3
:103CA000CE010196A9CFE83CF10508F041C0FE2CF9
:103CB000EE2009F4B2CF25132AC0941328C08091B6
:103CC000FD0380FD1BC0982F907FC1F0F801858314
:103CD000903F31F0982F907F905F8F70892B858374
:103CE000C8010E94141C86E0F801A8EFB3E001901F
:103CF0000D928A95E1F70E94B51CF7CE86E0F80197
:103D0000A8EFB3E001900D928A95E1F7EECE4D87D2
:103D10005E878D859E850E94711C81116FCF809179
:103D2000FD0381608093FD03C8010E94141CDDCE59
:103D30007A2DB98AA88A6E2D89890E94751C86E021
:103D4000F60111928A95E9F7D6CFEE2009F465CFF6
:103D50004D875E878D859E850E94711CF82E882375
:103D600009F45BCF86E0F801A8EFB3E001900D9273
:103D70008A95E1F788EF93E00E94F0180E94C31C37
:103D8000BACF81E08E25CBCE1F93CF93DF93CDB7F3
:103D9000DEB72C970FB6F894DEBF0FBECDBF4F83B2
:103DA000588769877A878B879C87CE0107960E9400
:103DB000191D882369F08A859B85892B39F04F81ED
:103DC0005885842F85238F3F09F071C016E05FC0AE
:103DD00086E0FE013796DE01119601900D928A95DC
:103DE000E1F78A859B85892B89F38F8198858923C3
:103DF0008F3F61F32091C70330E0C90101968770BE
:103E000099274091C6034817190671F40E944E1C69
:103E10001092C7031092C60386E0E8EFF3E0DF01DB
:103E20001D928A95E9F7D2CF96E0929FD001939F99
:103E3000B00D1124A853BC4FFE01319601900D9294
:103E40009A95E1F78093C7030E94941CBFCF819F8E
:103E5000C001112488539C4F0E94191D8823E9F04A
:103E6000E091C6031E9FF0011124E853FC4F4081EE
:103E7000518162817381848195810E94841C80912B
:103E8000C60390E00196877099278093C6038091BE
:103E9000C6039091C7038913DACF2C960FB6F89416
:103EA000DEBF0FBECDBFDF91CF911F910895698511
:103EB0007A858B859C850E94841C88CFEF92FF9227
:103EC0000F931F93CF93DF938C01892B81F0F12CFB
:103ED000EE24E394E8012196F8018491843770F48C
:103EE000843008F05FC08130B1F08230A1F1DF9101
:103EF000CF911F910F91FF90EF900895853709F4AE
:103F00004CC008F43DC09CE7980F903780F78F773E
:103F10000E947F1949C00E5F1F4FFE01849190E2FD
:103F2000980F983060F48770FE2D01C0FF0F8A95BE
:103F3000EAF78F2F0E94F0210E94192202C00E94EE
:103F4000F5188F2D815030F2EFE9FFE03197F1F74E
:103F500000C00000F7CF0E5F1F4FFE01849190E27A
:103F6000980F983050F48770FE2D01C0FF0F8A958E
:103F7000EAF78F2F0E94F621DFCF0E947F19E1CF51
:103F80000E5F1F4FFE01C491C150D8F28FE99FE030
:103F90000197F1F700C00000F7CF0E5F1F4FFE0141
:103FA000F490CFCF0E94F5188E01CBCF08950C94DA
:103FB000D61F0E94D71F60934304709344048093DC
:103FC0004504909346040C943C1C08950C94D91F0E
:103FD0000F931F93009143041091440420914504D2
:103FE00030914604602B712B822B932B1F910F91E4
:103FF0000C94D91F0F931F93009143041091440414
:104000002091450430914604602371238223932339
:104010001F910F910C94D91F0F931F93009143048C
:104020001091440420914504309146046027712783
:10403000822793271F910F910C94D91F0C94D61FA0
:104040000C941E200E94202060933F047093400433
:1040500080934104909342040C943C1C60E070E017
:10406000CB010C9422200F931F9341E050E060E0BD
:1040700070E08A019B0104C0000F111F221F331F33
:104080008A95D2F7C901B8011F910F910C94222093
:104090000F931F9341E050E060E070E004C0440FD4
:1040A000551F661F771F8A95D2F780913F04909124
:1040B0004004A0914104B09142048A019B01082B65
:1040C000192B2A2B3B2BC901B8011F910F910C947E
:1040D00022200F931F9341E050E060E070E004C0A5
:1040E000440F551F661F771F8A95D2F7CB01BA017F
:1040F000609570958095909500913F0410914004D3
:104100002091410430914204602371238223932340
:104110001F910F910C9422200F931F9341E050E0C8
:1041200060E070E004C0440F551F661F771F8A953A
:10413000D2F780913F0490914004A0914104B09146
:1041400042048A019B01082719272A273B27C90116
:10415000B8011F910F910C9422200F931F9300918F
:104160003F04109140042091410430914204602B9F
:10417000712B822B932B1F910F910C9422200F9364
:104180001F9300913F04109140042091410430910D
:10419000420460237123822393231F910F910C9477
:1041A00022200F931F9300913F041091400420910F
:1041B00041043091420460277127822793271F9181
:1041C0000F910C942220089521E1929F800D1124DB
:1041D000982F977041E001C0440F9A95EAF78695B1
:1041E0008695869595E0899FF0011124E250FC4F59
:1041F00090E080E070E05191DF0111979B01082E63
:1042000002C0369527950A94E2F72170219525275B
:10421000242325272C9301968530910561F7089575
:1042200021E1929F800D1124982F97708695869595
:10423000869525E0829FF0011124E250FC4F50E06A
:1042400040E080E0219130E0092E02C036952795AC
:104250000A94E2F721703327042E01C0220F0A943A
:10426000EAF7822B4F5F5F4F4530510559F70895AC
:10427000BF92CF92DF92EF92FF920F931F93CF9353
:10428000DF938C01C0903F04D0904004E090410443
:10429000F09042048091430490914404A09145041D
:1042A000B0914604C82AD92AEA2AFB2ACFE1D0E0F5
:1042B000BC2ED701C6010C2E04C0B695A7959795C4
:1042C00087950A94D2F780FD0EC0219788F7B12C0C
:1042D0008B2DDF91CF911F910F91FF90EF90DF9089
:1042E000CF90BF900895B8018C2F0E945E06019771
:1042F00061F3EECFCF93DF93EC010E943821BE0132
:10430000DF91CF910C945E061F93CF93DF93EB0167
:104310009091C503992331F0CB01DF91CF911F918B
:104320000C947A21882379F0CB010E943821182F30
:10433000682FCE010E94E420BE01812FDF91CF9132
:104340001F910C945E06CB010E941021182FF4CF10
:10435000682F80911701909118010C94C123682F48
:1043600080911701909118010C94CC238091170132
:10437000909118010C94D7238091470485958595D9
:10438000859508958091470487700895909147041A
:10439000977081E009F480E0089580916B0408959E
:1043A00090916B04892B80936B0408958095909174
:1043B0006B04982390936B04089510926B040895F6
:1043C00090916A04892B80936A0408958095909156
:1043D0006A04982390936A04089510926A040895D9
:1043E00090916904892B8093690408958095909138
:1043F00069049823909369040895109269040895BC
:1044000080914804089508950C94032290914804E3
:10441000981721F0809348040C9404220895809109
:104420004804882329F01092480480E00C94042268
:104430000895E0911701F091180180916B04808339
:10444000E0911701F0911801808190916A04892B05
:104450008083E0911701F0911801808190916904A7
:10446000892B808390914804992381F0E091170172
:10447000F09118018081892B8083809117019091A0
:1044800018010E942D2381110E940F228091170193
:10449000909118010C94821708950C944C2298E086
:1044A000899F90011124622B609347040E94482049
:1044B000809147048595859585950C944D221092A1
:1044C000470480E00C944D22909147048095892305
:1044D00080934704282F277071F4282F082E000C92
:1044E000330B9217130639F08595859585950E94B3
:1044F00069200C945F2208956FEF7FEF90E080E0D9
:104500000C94A72D90E080E00E94832D21E08C3E4A
:104510009E4F09F020E0822F089582E090E00C94F5
:10452000752D83E090E00C94752DCF9384E090E09E
:104530000E94752DC82F81E290E00E94752D982F62
:104540008C2FCF910895CF93C92F682F84E090E0EE
:104550000E94892D6C2F81E290E0CF910C94892DDF
:10456000AB01BC018FE090E00C949B2DAB01BC0132
:1045700083E190E00C949B2D60E070E0CB010C9403
:10458000B62260E070E0CB010E94B0220C94BC2205
:104590006CEE7EEF90E080E00E94A72D60E082E06C
:1045A00090E00E94892D60E083E090E00E94892DD8
:1045B0001092430410924404109245041092460451
:1045C00060E084E090E00E94892D60E081E290E06C
:1045D0000E94892D60E085E090E00E94892D60E0D6
:1045E00086E090E00E94892D6FEF87E090E00E94C6
:1045F000892D40E050E0BA0188E090E00E949B2DB8
:1046000060E08DE090E00E94892D40E050E0BA012A
:1046100088E190E00E949B2D60E087E190E00E949D
:10462000892D40E050E0BA018CE190E00E949B2D82
:1046300060E080E290E00E94892D40E050E0BA0105
:1046400088E190E00E949B2D0C94C1220C94C8221A
:10465000682F8EE090E00C94892DFC0132968091B9
:104660002301882321F08091D1059EE187FF96E008
:1046700080E0915008F4089521912223D1F38F5FB7
:10468000F8CF662301F1209123012223F1F020913C
:10469000D10527FF1AC0462F4695469546954E31BF
:1046A00090F4677021E030E002C0220F331F6A955A
:1046B000E2F7840F911DFC01828190E028233923C9
:1046C00081E0232B69F480E00895FC01329608967E
:1046D0002191261721F0E817F907D1F7F4CF81E0EF
:1046E00008959C01FC0132969FEF80E041914617AE
:1046F00051F09F3F19F4411101C0982F8F5F863010
:10470000A9F79F3F09F40895290F311D97FD3A95A8
:10471000F90162830895FC013296089621912613CF
:1047200003C0DF0111971C92E817F907B9F7089544
:10473000E62FE695E695E695EE3168F4E80FF92F59
:10474000F11D677021E030E001C0220F6A95EAF7A1
:104750008281822B82830895E62FE695E695E69581
:10476000EE3170F4E80FF92FF11D677021E030E0B1
:1047700001C0220F6A95EAF72095828128232283BF
:10478000089520912301222329F02091D10527FDAE
:104790000C9498230C94712320912301222329F057
:1047A0002091D10527FD0C94AC230C948B23FC01A4
:1047B000329680912301882351F08091D10587FFA3
:1047C00006C08EE1DF011D928A95E9F7089586E023
:1047D000F9CF089508950C94EA230E94EB23809169
:1047E000D705843049F110926D0488E190E020E40F
:1047F0000FB6F894A895809360000FBE20936000D8
:1048000080E00E944A060E94EB2383B7817F846088
:1048100083BF83B7816083BF7894889583B78E7F89
:1048200083BF0FB6F894A89580916000886180934B
:104830006000109260000FBE08950895CF930E940B
:10484000E9230E94AA080E941D24C0E08C2F0E9428
:104850004A08672B682B692B31F4CF5FC630B1F75C
:1048600080E0CF91089581E0FCCF08950C94352429
:104870000E944E1C0E9476170E944A060C94362411
:104880001F921FB61F9211248F939F93AF93BF93D4
:1048900080916D04811113C08091CD059091CE055A
:1048A000A091CF05B091D0054196A11DB11D809377
:1048B000CD059093CE05A093CF05B093D005BF91C1
:1048C000AF919F918F911F901FBE1F90189582E00E
:1048D00084BD93E095BD9AEF97BD80936E000895D7
:1048E0002FB7F8948091CD059091CE05A091CF057A
:1048F000B091D0052FBF08952FB7F8946091CD05E2
:104900007091CE058091CF059091D0052FBF08956D
:104910009C014FB7F8948091CD059091CE05A09160
:10492000CF05B091D0054FBF821B930B08957894AB
:104930001F921FB61F9211248F939F93AF93BF9323
:104940008091CD059091CE05A091CF05B091D00575
:104950000196A11DB11D8093CD059093CE05A09326
:10496000CF05B093D005BF91AF919F918F911F90CC
:104970001FBE1F90189581E08093E00080E2809335
:10498000D8001092C9008FE19EE40197F1F700C0B2
:10499000000087E090EBDC018093E0059093E10557
:1049A000A093E205B093E30588E19CE00FB6F8948C
:1049B000A895809360000FBE90936000FFCF0C9489
:1049C0004B120E94AA088FE39CE90197F1F700C0FF
:1049D00000000E94AA0880E00E944A0860FF04C00C
:1049E0000E94DF240C94BB2408950E94822281112E
:1049F00002C00E9426230E948D2280936C040E9494
:104A000095229093D2058093D1050E949122682F20
:104A100070E090E080E00E94E61F60913F0470919A
:104A2000400480914104909142040C942020809194
:104A30008E0408950895CF93DF9300D00F92CDB7E1
:104A4000DEB79091D705943011F589837B836A8313
:104A50009093E9008FEF9091E800815095FD06C09A
:104A600095ED9A95F1F700008111F5CF8091E8005E
:104A700085FF0DC050E040E063E070E0CE0101969C
:104A80000E9481278091E8008E778093E8000F9044
:104A90000F900F90DF91CF910895BC0184E00C94AA
:104AA0001B25BC0183E00C941B25CF93DF93EC0105
:104AB000809123018823B1F18091D10587FF32C015
:104AC00060E284E08093E9008FEF9091E8008150EC
:104AD00095FD06C095ED9A95F1F700008111F5CF8F
:104AE0008091E80085FF1BC08091230170E050E0B9
:104AF00040E0811104C050E040E068E070E0CE0189
:104B00000E9481278091E8008E778093E80080E200
:104B1000FE01AEE6B4E001900D928A95E1F7DF91D7
:104B2000CF91089568E081E0CDCFCF93FC01603252
:104B300021F58091D705843001F5C091E900CF704F
:104B40002091EC00922F917020FD90E8C92B82E01B
:104B50008093E9008091E80080FF0CC050E040E0C5
:104B600060E270E0CF010E9481278091E8008E779B
:104B70008093E800CF70C093E900CF9108958091B1
:104B8000D605811109C00E9460290E94BD2980912B
:104B9000E20084608093E20008951092D6050895A3
:104BA000089508950C94382442E061EC81E00E945D
:104BB000DC2842E261EC84E00E94DC2842E261EC05
:104BC00082E00E94DC2842E260EC83E00C94DC2866
:104BD0008091D905833009F461C030F48130D1F17E
:104BE000823009F49DC008958A3009F489C08B3061
:104BF00009F46FC0893009F050C08091D805813226
:104C000009F04BC08091DC059091DD05009719F00B
:104C1000029709F042C08091E800877F8093E80006
:104C20008091E80082FF35C09091F3008091F200FE
:104C3000029729F48091F1008B7F813021F48091DB
:104C4000F10080938E048091E8008B778093E800D8
:104C50000C9410298091D805813AF9F48091E800EC
:104C6000877F8093E8008091DC059091DD05892B9A
:104C700061F460E28EE694E070E00E941F2880916B
:104C8000E8008B778093E800089560E090E080E092
:104C9000F3CF8091D7058111C3CF08958091D805B6
:104CA000813AD9F78091DC059091DD05892BA9F730
:104CB0008091E800877F8093E8008091E80080FF82
:104CC000FCCF809123018093F1008091E8008E77E2
:104CD000BDCF8091D805813201F78091DC0590919C
:104CE000DD05892BD1F68091E800877F8093E8006D
:104CF0000E9410298091DA05809323010C944E1CA8
:104D00008091D805813249F68091E800877F8093B1
:104D1000E8000E9410298091DB0580938F0408959C
:104D20008091D805813A09F0B8CF8091E800877F5B
:104D30008093E8008091E80080FFFCCF80918F0491
:104D4000C2CFCDB7DEB7A0970FB6F894DEBF0FBEC7
:104D5000CDBF84B7877F84BF0FB6F894A8958091A4
:104D60006000886180936000109260000FBE80E850
:104D700090E00FB6F89480936100909361000FBEAD
:104D80000E94D5170E9460290E94BD298091E200EF
:104D900084608093E20078940E94462C0E94E11780
:104DA00089E191E00E94711713E08091D705853069
:104DB00059F00E94ED178091D705843091F00E9440
:104DC000DF170E94E017F1CF0E94ED238091D505F7
:104DD000882359F30E941E24882339F30E946B27ED
:104DE000E4CF1093E9008091E80082FFE8CF809142
:104DF000E80090E085FF09C050E040E060E270E02C
:104E0000CE0101960E94D02791E08091E8008B7737
:104E10008093E800992399F260E2CE0101960E9406
:104E20000313CDCF0C941427292F332723303105BA
:104E300021F168F42130310509F443C022303105F5
:104E400009F444C090E080E030E020E026C0213248
:104E5000310551F122323105A9F76330710590F720
:104E6000FB01EE0FFF1FE553FE4F20813181685398
:104E70007E4FFB01808190E010C099278130910521
:104E800081F0009729F00297E9F6E0EBF6E002C026
:104E9000E6EEF6E0849190E09F01FA0131832083F1
:104EA0000895EAECF6E0F6CF6330710558F6660F28
:104EB000771FFB01EF52FE4F2081318189E090E0A6
:104EC000ECCF82E190E025E437E0E7CF8BE590E09E
:104ED0002AEE36E0E2CF80E189BD82E189BD09B4E6
:104EE00000FEFDCF8091D8008F7D8093D800809107
:104EF000E00082608093E0008091E00081FDFCCFC3
:104F00000895AF92BF92CF92DF92FF920F931F93BB
:104F1000CF93DF936C01EB018A010E942F29F82EB9
:104F2000811123C00115110539F0F80180819181AB
:104F3000C81BD90BC80ED91EB12CA12C2097A9F0E3
:104F40008091E80085FD22C08091E8008E778093F3
:104F5000E80001151105A1F0F80180819181A80EEA
:104F6000B91EB182A08285E0F82E8F2DDF91CF91FE
:104F70001F910F91FF90DF90CF90BF90AF90089559
:104F80000E942F298823D1F2F82EEFCFF6018191CC
:104F90006F018093F1002197FFEFAF1ABF0ACECFC8
:104FA000AF92BF92CF92DF92FF920F931F93CF9356
:104FB000DF936C01EB018A010E942F29F82E8111E9
:104FC00023C00115110539F0F80180819181C81BBA
:104FD000D90BC80ED91EB12CA12C2097A9F0809115
:104FE000E80085FD22C08091E8008B778093E8007F
:104FF00001151105A1F0F80180819181A80EB91E5B
:10500000B182A08285E0F82E8F2DDF91CF911F9184
:105010000F91FF90DF90CF90BF90AF9008950E94C6
:105020002F298823D1F2F82EEFCF8091F100F601DD
:1050300081936F012197FFEFAF1ABF0ACECFFC011A
:105040008091DE059091DF0586179707A0F0611526
:10505000710529F49091E8009E779093E80090E024
:105060006115710551F4911108C08091E80082FF2B
:1050700034C080E00895BC01F2CF8091D705882329
:10508000C1F18530C1F18091E80083FD30C080918D
:10509000E80082FDEACF8091E80080FFE1CF8091B7
:1050A000F3002091F200382F6115710519F02830B6
:1050B000310558F091E02830310509F090E0209159
:1050C000E8002E772093E800CBCF81918093F10008
:1050D000615071092F5F3F4FE7CF8091D70588233B
:1050E00041F0853041F08091E80083FFBECF81E040
:1050F000089582E0089583E00895FC018091DE0523
:105100009091DF0586179707A0F06115710529F4C6
:105110008091E8008E778093E80090E0611571053A
:1051200051F4911108C08091E80082FF35C080E001
:105130000895BC01F2CF8091D7058823C9F185304D
:10514000C9F18091E80083FD31C08091E80082FDC3
:10515000EACF8091E80080FFE1CF8091F3002091B9
:10516000F200382F6115710519F02830310558F01B
:1051700091E02830310509F090E08091E8008E77C9
:105180008093E800CBCF84918093F10031966150F9
:1051900071092F5F3F4FE6CF8091D705882341F0FB
:1051A000853041F08091E80083FFBDCF81E0089514
:1051B00082E0089583E00895982F973028F08F704B
:1051C0008093E90081E008959093E900242F762FE1
:1051D00050E0981731F07091EC002091ED00509163
:1051E000F00021FD02C09F5FE8CF3091EB003E7FD1
:1051F0003093EB003091ED003D7F3093ED00309126
:10520000EB0031603093EB007093EC002093ED00E5
:105210005093F0002091EE0027FDE5CF80E0089547
:105220008091D80587FF13C08091E80082FF06C0F7
:105230008091E8008B778093E80004C08091D705C7
:105240008111F2CF08958091D7058823D9F38091F9
:10525000E80080FFF8CF8091E8008E77ECCF2091B6
:10526000E4003091E50095E6A9012091EC00822F41
:10527000817020FF06C08091E80080FF06C080E0BA
:1052800008952091E80022FD1AC08091D705882357
:1052900089F0853089F08091EB0085FD0FC0209169
:1052A000E4003091E50042175307F9F29150E1F61E
:1052B00084E0089582E0089583E0089581E00895F0
:1052C0000E94CE290E94D629E0EEF0E08081816024
:1052D0008083E8EDF0E080818F77808319BCA7EDB3
:1052E000B0E08C918E7F8C9380818F7E8083109232
:1052F000D60508950F931F93CF93DF930E94CE2975
:105300000E94D629C8EDD0E088818F778883888174
:105310008068888388818F7D888319BC1092D70527
:105320001092D3051092D5051092D40500EE10E02E
:10533000F80180818B7F808388818160888342E04F
:1053400060E080E00E94DC28E1EEF0E080818E7F6A
:105350008083E2EEF0E080818160808380818860DC
:105360008083F80180818E7F80838881806188833B
:10537000DF91CF911F910F910895E8EDF0E08081CA
:105380008F7E8083E7EDF0E080818160808384E020
:1053900082BF81E08093D6050C947A29E8EDF0E095
:1053A00080818E7F80831092E20008951092DA004F
:1053B0001092E10008951F920F920FB60F921124E0
:1053C0002F933F934F935F936F937F938F939F930D
:1053D000AF93BF93EF93FF938091E10082FF0BC0E7
:1053E0008091E20082FF07C08091E1008B7F809373
:1053F000E1000E94452C8091DA0080FF19C0809165
:10540000D80080FF15C08091DA008E7F8093DA008B
:105410008091D90080FF96C080E189BD82E189BD7D
:1054200009B400FEFDCF81E08093D7050E94BF251F
:105430008091E10080FF19C08091E20080FF15C0DB
:105440008091E2008E7F8093E2008091E200806193
:105450008093E2008091D80080628093D80019BCCC
:1054600085E08093D7050E94D1258091E10084FFDB
:105470002BC08091E20084FF27C080E189BD82E1DA
:1054800089BD89B5982F917080FFFBCF8091D8009E
:105490008F7D8093D8008091E1008F7E8093E10022
:1054A0008091E2008F7E8093E2008091E200816033
:1054B0008093E2008091D305882309F449C084E0F9
:1054C0008093D7050E94D2258091E10083FF29C0F7
:1054D0008091E20083FF25C08091E100877F809367
:1054E000E10082E08093D7051092D3058091E1001E
:1054F0008E7F8093E1008091E2008E7F8093E200B6
:105500008091E20080618093E20042E060E080E010
:105510000E94DC288091F00088608093F0000E9457
:10552000D025FF91EF91BF91AF919F918F917F9186
:105530006F915F914F913F912F910F900FBE0F9000
:105540001F90189519BC1092D7050E94CD2570CFD9
:105550008091E30087FD93E09093D705B3CF1F922E
:105560000F920FB60F9211242F933F934F935F9397
:105570006F937F938F939F93AF93BF93CF93DF935B
:10558000EF93FF93D091E900DF708091EC00C82F7A
:10559000C17080FDC0E81092E9008091F000877F23
:1055A0008093F00078940E94F32A1092E900809191
:1055B000F00088608093F000CD2BCF70C093E9009D
:1055C000FF91EF91DF91CF91BF91AF919F918F911B
:1055D0007F916F915F914F913F912F910F900FBEEF
:1055E0000F901F9018951F93CF93DF93CDB7DEB721
:1055F000AA970FB6F894DEBF0FBECDBF88ED95E039
:105600002091F100FC012193CF01F5E0803E9F073E
:10561000B9F70E94E8258091E80083FF1EC18091C0
:10562000D8059091D9059A3008F017C1E92FF0E01C
:10563000ED5DF14D0C94C52C803899F0823809F05D
:105640000CC18091DC058F70873008F006C1809313
:10565000E9008091EB0085FB882780F91092E90032
:1056600006C08091D4059091D505911182609091EA
:10567000E800977F9093E8008093F1001092F1008A
:105680008091E8008E77E5C0882309F4D3C082308A
:1056900009F0E3C08091DA058111D6C08091DC0564
:1056A0008F702FEF280F263008F0D7C08093E900C5
:1056B0002091EB0020FFC8C0933031F48091EB00C3
:1056C00080628093EB00C0C09091EB00906190935A
:1056D000EB0021E030E001C0220F8A95EAF7209329
:1056E000EA001092EA008091EB008860EACF811115
:1056F000B4C01091DA051F778091E3008078812B88
:105700008093E3008091E800877F8093E8000E9407
:1057100010298091E80080FFFCCF8091E300806831
:105720008093E30082E0111183E08093D70595C058
:105730008058823008F091C08091DA059091DB05A5
:105740008C3D23E09207A1F583E08A838AE2898376
:105750004FB7F894DE01139620E03EE051E2E32FCC
:10576000F0E050935700E49120FF03C0E295EF7002
:105770003F5FEF708E2F90E0EA30C0F0C7968D93B8
:105780009D932F5F243159F74FBF8091E800877FA9
:105790008093E8006AE270E0CE0101960E941F2823
:1057A0008091E8008B778093E80057C0C096E7CFE0
:1057B0006091DC057091DD05AE014F5F5F4F0E9487
:1057C0001227BC01892B09F448C09091E800977F0B
:1057D0009093E80089819A810E947D28E1CF8038EA
:1057E000E1F58091E800877F8093E8008091D30500
:1057F0008093F10045CF811130C09091DA0592304D
:1058000060F58091E800877F8093E8009093D3054E
:105810000E9410298091D305882311F084E005C0EF
:105820008091E30087FDFACF81E08093D7050E9445
:10583000D42513C08091DA05813079F481E093306A
:1058400009F080E08093D5051092E9008091E8008E
:10585000877F8093E8000E9410298091E80083FFF1
:105860000AC08091E800877F8093E8008091EB0078
:1058700080628093EB00AA960FB6F894DEBF0FBE4D
:10588000CDBFDF91CF911F9108950895CF9380915F
:10589000D7058823A1F0C091E900CF709091EC006A
:1058A000892F817090FD80E8C82B1092E9008091CB
:1058B000E80083FD0E94F32ACF70C093E900CF91E6
:1058C0000895991B79E004C0991F961708F0961B5C
:1058D000881F7A95C9F78095089587FB082E0626BC
:1058E00087FD819567FD61950E94612C0EF491956D
:1058F00007FC81950895AA1BBB1B51E107C0AA1F95
:10590000BB1FA617B70710F0A61BB70B881F991F60
:105910005A95A9F780959095BC01CD01089597FB04
:10592000072E16F4009407D077FD09D00E947B2C37
:1059300007FC05D03EF4909581959F4F0895709592
:1059400061957F4F0895A1E21A2EAA1BBB1BFD0192
:105950000DC0AA1FBB1FEE1FFF1FA217B307E4074E
:10596000F50720F0A21BB30BE40BF50B661F771FA6
:10597000881F991F1A9469F7609570958095909586
:105980009B01AC01BD01CF010895EE0FFF1F0590F3
:10599000F491E02D099469279627692778278727AE
:1059A000782708950E94DA2C332312F48A1B9B0B6C
:1059B0000C94EB2CA29FB001B39FC001A39F700D6C
:1059C000811D1124911DB29F700D811D1124911D07
:1059D00008950E94DA2CB7FF0895821B930B089557
:1059E0000E94DA2CA59F900DB49F900DA49F800D6E
:1059F000911D11240895B7FF0C94F02C0E94F02CF7
:105A0000821B930B08958F929F92AF92BF92CF9279
:105A1000DF92EF92FF92CF93DF93EC01688179815F
:105A20008A819B81611571058105910521F464E2EC
:105A300079ED8BE597E02DE133EF41E050E00E94F6
:105A4000BD2D49015A019B01AC01A7EAB1E40E94B6
:105A5000F02C6B017C01ACEEB4EFA50194010E9427
:105A6000FE2CDC01CB018C0D9D1DAE1DBF1DB7FFB3
:105A700003C00197A109B04888839983AA83BB8397
:105A80009F77DF91CF91FF90EF90DF90CF90BF9005
:105A9000AF909F908F9008950E94032D089580E00D
:105AA00091E00E94032D0895B0E0A0E080930001F2
:105AB00090930101A0930201B09303010895FB01AB
:105AC000DC0102C005900D9241505040D8F7089576
:105AD000FC014150504030F001900616D1F731974B
