:100000000C9414040C945B040C945B040C945B043B
:100010000C945B040C945B040C945B040C945B04E4
:100020000C945B040C945B040C94DC290C94B02AB3
:100030000C9441240C945B040C945B040C945B04BE
:100040000C945B040C945B040C945B040C945B04B4
:100050000C945B040C9498240C945B040C945B0447
:100060000C945B040C945B040C945B040C945B0494
:100070000C945B040C945B040C945B040C945B0484
:100080000C945B040C945B040C945B040C945B0474
:100090000C945B040C945B040C945B040C945B0464
:1000A0000C945B040C945B040C945B04BC00B200E5
:1000B00000000E010000FFFF000000003E010000F4
:1000C000FFFF00000000290000003A003B003C0058
:1000D0003D003E003F00400041004200430044001C
:1000E000450046004700480035001E001F00200064
:1000F00021002200230024002500260027002D00D7
:100100002E002A0049004A004B002B0014001A0060
:100110000800150017001C0018000C001200130046
:100120002F00300031004C004D004E00390004001B
:100130001600070009000A000B000D000E000F005A
:100140003300340028000000000000000000E1003F
:1001500000001D001B000600190005001100100022
:10016000360037003800E5000000000052000000B3
:10017000E000E300E200000000002C0000000000AE
:100180000000E60001516500E4005000000051004D
:100190004F00005C000001000100010001000100AF
:1001A0000100010001000100010001000100CD5C1F
:1001B000CE5CCF5C010001000100010001000100E4
:1001C0000100010001000100010001000100010027
:1001D000C55CC75CC95C01000100010001000100B1
:1001E0000100010001000100010001000100010007
:1001F0000100C65CC85CCA5C01000100010001008E
:1002000001000100010001000100010001000100E6
:1002100001000000000000000000010000000100DB
:100220000100010001000100145C01000100010057
:1002300001000100000000000100000001000100B9
:1002400001000000000001000000000000000100AB
:10025000010001000100C45C0000C25CC35C005CE2
:100260000000010001000100010001000100010087
:100270000100010001000100010001000100010076
:100280000100010001000100010001000100010066
:100290000100010001000100010001000100010056
:1002A0000100010001000100010001000100010046
:1002B0000100010001000100010001000100010036
:1002C0000100010001000100010001000100010026
:1002D0000100010001000100010001000100000017
:1002E000000000000000010000000100010001000A
:1002F00001000100010001000100010001000100F6
:1003000000000000010000000100010001000000E9
:1003100000000100000000000000010001000100D9
:1003200001000100000001000100005C000001006C
:1003300001000100010001000100010001000100B5
:1003400001000100010001000100010001000100A5
:100350000100010001000100010001000100010095
:100360000100010001000100010001000100010085
:100370000100010001000100010001000100010075
:100380000100010001000100010001000100010065
:100390000100010001000100010001000100010055
:1003A0000100010001000100010000000000000048
:1003B0000000010000000100010001000100010037
:1003C0000100010001000100010001000000000027
:1003D0000100000001000100010000000000010018
:1003E0000000000000000100010001000100010008
:1003F00000000100010000000000000000002A2BA6
:1004000028000000000000000000000000000000C4
:100410000029000000002C1E34202122243426272D
:10042000252E362D3738271E1F202122232425264E
:100430003333362E37381F0405060708090A0B0C1C
:100440000D0E0F101112131415161718191A1B1C64
:100450001D2F3130232D350405060708090A0B0C22
:100460000D0E0F101112131415161718191A1B1C44
:100470001D2F3130354C000000000000000000004E
:10048000000000000000000000007E0F00D4FFFF0D
:10049000FFC70000007832190A00047F3F1F643252
:1004A00014643214783C1E1E140A052223252628C3
:1004B000292A2C2D2F3032333536383A3B3D3E40F9
:1004C00042434547494A4C4E5051535557595A5C3F
:1004D0005E6062646668696B6D6F71737577797B56
:1004E0007D7F81838587898A8C8E90929496989A55
:1004F0009C9E9FA1A3A5A7A8AAACAEAFB1B3B4B66A
:10050000B8B9BBBCBEBFC1C2C3C5C6C7C9CACBCCC4
:10051000CDCED0D1D2D2D3D4D5D6D7D7D8D9D9DA97
:10052000DADBDBDBDCDCDCDCDCDDDDDDDDDCDCDC0C
:10053000DCDCDBDBDBDADAD9D9D8D7D7D6D5D4D334
:10054000D2D2D1D0CECDCCCBCAC9C7C6C5C3C2C109
:10055000BFBEBCBBB9B8B6B4B3B1AFAEACAAA8A766
:10056000A5A3A19F9E9C9A98969492908E8C8A891E
:10057000878583817F7D7B79777573716F6D6B69FB
:1005800068666462605E5C5A5957555351504E4CD0
:100590004A4947454342403E3D3B3A38363533327F
:1005A000302F2D2C2A292826252322FFAA7F5540CB
:1005B0000001010101010101010102020202020226
:1005C00002020203030303030303030404040404F9
:1005D00004040505050505060606060607070707C0
:1005E0000708080808090909090A0A0A0B0B0B0C75
:1005F0000C0C0D0D0D0E0E0E0F0F0F101011111112
:100600001212131314141515161617171818191992
:100610001A1A1B1B1C1D1D1E1E1F202021222223F7
:100620002424252626272829292A2B2C2D2D2E2F38
:1006300030313232333435363738393A3B3C3D3E4F
:100640003F404142434445464748494A4C4D4E4F3E
:1006500050515354555658595A5B5D5E5F61626400
:10066000656668696B6C6D6F7072737577787A7B8D
:100670007D7E8082838587888A8C8E8F91939596E4
:10068000989A9C9EA0A2A3A5A7A9ABADAFB1B3B504
:10069000B7BABCBEC0C2C4C6C9CBCDCFD1D4D6D8E0
:1006A000DBDDDFE2E4E7E9EBEEF0F3F5F8FAFDFF7E
:1006B0001A03430055003800300020007600320055
:1006C000200041004E005300490000001A0343007F
:1006D00061007000730055006E006C006F006300D5
:1006E0006B006500640000000403090409025B005C
:1006F000030100A0FA09040000010301010009211F
:10070000110100012240000705810308000A0904C5
:100710000100020300000009211101000122220052
:1007200007058203200001070503032000010904D7
:1007300002000103000000092111010001226D00E7
:100740000705840320000A1201100100000008556B
:100750004381000100010200010660FF0961A1015F
:100760000962150026FF00952075088102096315AE
:100770000026FF00952075089102C005010980A19F
:1007800001850319012AB700150126B700950175E7
:10079000108100C0050C0901A101850419012AA0DE
:1007A00002150126A002950175108100C0050109FE
:1007B00006A1018505050719E029E7150025019522
:1007C00008750181020507190029EF15002501951B
:1007D000F07501810205081901290595057501913A
:1007E00002950175039101C005010906A1010507E4
:1007F00019E029E715002501950875018102950189
:10080000750881010507190029FF150026FF0095CD
:1008100006750881000508190129059505750191DE
:1008200002950175039101C011241FBECFEFDAE0DC
:10083000DEBFCDBF04B603FE27C08091D8059091DE
:10084000D905A091DA05B091DB058730904BA74020
:10085000B04BD1F41092D8051092D9051092DA0558
:100860001092DB0514BE84B7877F84BF0FB6F8945F
:10087000A89580916000886180936000109260006C
:100880000FBEE0E0F8E3099511E0A0E0B1E0ECE58F
:10089000FCE502C005900D92A83DB107D9F725E00F
:1008A000A8EDB1E001C01D92A83DB207E1F70E949A
:1008B000A2260C94DD2D0C9400008CEA90E090931D
:1008C0009203809391030895CF93C82F81FB6627ED
:1008D00060F980E00E949710C2FB662760F981E012
:1008E0000E94971081E0CF91089581E0089581E002
:1008F00008950C94770408950C947B041F93CF9370
:10090000DF9300D000D00F92CDB7DEB749835A8372
:100910006B833091C00389819A8131111DC0662398
:10092000B9F02223A9F00E943921182F682F89815C
:100930009A810E94E52069817A81812F0F900F9022
:100940000F900F900F90DF91CF911F910C949E14F8
:100950000E941121182FEFCF0E94392169817A81DD
:10096000EDCFFC01262F408151816281738184810A
:100970000C947E04CF93DF93EC0160E00E94B104FD
:10098000BE01DF91CF910C947C04FF920F931F93D3
:10099000CF93DF93E82FF0E0EA50FC4FF490C82F9C
:1009A000C695C695C695D0E0FE01EA57FB4F049167
:1009B000877010E0082E02C0159507950A94E2F79B
:1009C00001701127CA58DB4FFE01C491D0E002C06C
:1009D000D595C7958A95E2F7C170DD2701151105F8
:1009E00019F081EE0E94F618209719F086EE0E9409
:1009F000F6188F2D0E94CF19CD2B19F086EE0E948C
:100A00008019012B41F081EEDF91CF911F910F9161
:100A1000FF900C948019DF91CF911F910F91FF905F
:100A20000895EF92FF920F931F93CF93DF93EC0102
:100A3000162F0AE08881882309F454C0813009F018
:100A40004EC08981813099F47E0122E0E20EF11CD2
:100A50008A810E94CF19E7012196812F815050F39E
:100A6000EFE9FFE03197F1F700C00000F7CF8230E7
:100A700041F47E0182E0E80EF11C8A810E94F618A2
:100A8000EACF833041F47E01E2E0EE0EF11C8A8170
:100A90000E948019E0CF843011F02196DDCF2A81A9
:100AA000229690E080E0AE014F5F5F4F2053330B02
:100AB0002A30310548F0019778F2EFE9FFE03197ED
:100AC000F1F700C00000F7CF089FB001099F700D3B
:100AD0001124C901860F971F2981EA01E4CF0E94E2
:100AE000C504BACFDF91CF911F910F91FF90EF9086
:100AF000089560E00C9411058F929F92AF92BF927F
:100B0000CF92DF92EF92FF920F931F936B017C01C4
:100B100081E090E0A0E0B0E04C015D0104C0880CF1
:100B2000991CAA1CBB1C4A95D2F7B501A4014C0123
:100B30005D0104C0880C991CAA1CBB1C2A95D2F725
:100B4000482959296A297B2904C0880F991FAA1F9F
:100B5000BB1F0A95D2F78A019B010C211D212E2172
:100B60003F21041715072607370789F48C299D298B
:100B7000AE29BF29BC01CD011F910F91FF90EF90CD
:100B8000DF90CF90BF90AF909F908F900895809509
:100B90009095A095B0958C219D21AE21BF21EACFE3
:100BA0000F93382F262F60913A0470913B04809167
:100BB0003C0490913D04042F432F0E947C050F912B
:100BC0000C9423200E94E2240E948322811102C0FF
:100BD0000E9427230C9446080C94490808950E940B
:100BE0004F1C0E94EE052FEF84E39CE021508040D3
:100BF0009040E1F700C000000C94BC240F931F93B9
:100C0000CF93DF93EC0161E00E94B1048C01BE013F
:100C10000E947212882389F1BE01C8010E947904E2
:100C2000882359F1BE01C8010E94D315882329F1F8
:100C3000BE01C8010E9425168823F9F0BE01C80133
:100C40000E9448178823C9F0BE01C8010E947F1185
:100C5000882399F08A81882339F001158CE51807DB
:100C600051F00E3D1C4579F0CE01DF91CF911F91DF
:100C70000F910C9475040E94EF0580E0DF91CF91F5
:100C80001F910F9108950E942723F7CF08950C9488
:100C900046060C946404CF93C82F0E9447068C2FFD
:100CA000CF910C94490690E080E008950895FC01EE
:100CB000EE0FFF1FEA56FB4F859194910895CF9355
:100CC000DF930E949E140E946B07EC01811520E5C2
:100CD000920708F041C0811530E4930708F0B4C0D2
:100CE000803E910518F5803C910508F09DC0883A3A
:100CF000910570F4853A910508F08EC08130910518
:100D0000F9F00097E9F00497D8F4D0E0C0E018C0FB
:100D10008F3B9105D0F7C85AD0E0CC0FDD1FCC5DDA
:100D2000DE4F0990D881C02DD4640AC0811590424D
:100D300058F4C11581E0D80718F4C83ED10528F74A
:100D4000CE01DF91CF910895C11590E3D90708F046
:100D500071C0CE019F706AC0811525E5920758F5D4
:100D6000811534E5930708F09EC0811542E594078C
:100D700050F4C11581E5D80708F469C0DC2FCC27F1
:100D8000C16FD06ADDCF982F969596959E012370FE
:100D90003327C115D34508F077C0C1E0D0E002C0C9
:100DA000CC0FDD1F2A95E2F720E2929FC0011124AB
:100DB000C82BD92B67C0C11589E5D807A8F4C11580
:100DC00098E5D90708F074C0C11526E5D20708F0E8
:100DD0009CCF8C2F0E940208C82FD0E0DC2FCC279C
:100DE000CC27DF71D062ACCFC1153AE5D30708F448
:100DF00064C0CE0190568115904208F086CF8D2FA9
:100E00008F710E94020890E0982F882788279F7191
:100E10009C012C2BE901E6CFC55AD0E0CE5ADE4F1B
:100E2000C881D0E0D0648CCF805C91090E945706C5
:100E3000EC0186CFCE019927D3FF03C0EC01D86C1B
:100E40007FCFEC01D06C7CCFDF70D06A79CFCE0140
:100E5000E4E096958795EA95E1F783702C2F269527
:100E60002695237090E2299F90011124382B8C2F16
:100E70008370C1E0D0E002C0CC0FDD1F8A95E2F79D
:100E8000C22BD32BDC685CCFC1E0D0E002C0CC0F1A
:100E9000DD1F2A95E2F730E2939FC0011124C82B91
:100EA000D92BDA684DCFD82FCC27C46FD06A48CF62
:100EB000DC2FCC27C06FD06A43CF8C2F8F700E945D
:100EC000020834E0D695C7953A95E1F7CF709C2F8C
:100ED000EC01D06935CF82389105B1F1B0F481339E
:100EE000910509F475C048F48932910509F469C087
:100EF0008A32910509F473C008958533910509F488
:100F000059C08933910501F10895833E9105A9F1F6
:100F100038F4803E9105F9F0823E910549F108953B
:100F2000863E9105A9F1873E9105C9F1843E910560
:100F300019F52091CA0521FF1FC08091C90584FDC4
:100F400014C087EE90E008952091C9052370A1F0A8
:100F500080EE90E008952091C90520FD47C03091B2
:100F6000CA0530FF09C024FF44C090E080E004C0FF
:100F70002091C90522FDF7CF08952091C90522FDD2
:100F80003BC03091CA0530FDE3CF24FFF5CFEDCF54
:100F90002091C90523FFF0CF24FDE7CFD2CF2091C8
:100FA000C90523FD2CC03091CA0531FFEECF84EE78
:100FB00090E008952091C90525FFDECF89E290E0F9
:100FC00008952091C90525FFD7CF85E390E00895C6
:100FD0002091C90526FFD0CF8AE290E008952091A4
:100FE000C90526FFC9CF81E390E0089589E390E029
:100FF000089583EE90E0089582EE90E0089586EEE5
:1010000090E008959091C90592FF06C0282F28719D
:101010002830F9F4877F846093FF06C0282F287159
:101020002831F1F4877E84612091CA0520FF06C033
:10103000382F38713830D9F4877F816021FF06C09E
:10104000282F28712831D1F4877E816194FD877E15
:101050000895282F24712430F9F68B7F8860DCCF27
:10106000282F2471243101F78B7E8861DDCF382F42
:101070003171313019F78E7F8860E0CF282F2171D0
:10108000213121F78E7E8861E1CF08950C944508C7
:1010900008950C94480894E0899FF0011124ED55BF
:1010A000FB4F60817181828193810895089580EA68
:1010B0008A95F1F70895F894E82FE295EF70F0E043
:1010C00031A1282F2F7081E090E001C0880F2A9570
:1010D000EAF7982F9095932391A392A1892B82A34D
:1010E000789408950F931F93CF93DF9383E90E9421
:1010F0005B0882E90E945B0887E30E945B0881EF3E
:101100000E945B0887E60E945B0885E90E945B08F5
:10111000C5E5D1E006E611E089910E945B080C1755
:101120001D07D1F7EBE8F4E0A3EAB4E011921192C5
:10113000119211921D921D921D921D9284E0E33A2C
:10114000F807A1F786E00E944909DF91CF911F912E
:101150000F910C94E2054F925F926F927F928F9263
:101160009F92AF92BF92CF92DF92EF92FF920F9336
:101170001F93CF9306E611E03BE8E32E34E0F32E15
:10118000C0E0CC24C394D12CF80181918F01F89454
:10119000E82FE295EF70F0E021A18F70260102C0E8
:1011A000440C551C8A95E2F7C201922F982B91A30B
:1011B00092A18095892382A378940E945708A5E57F
:1011C000B1E090E080E0812C912C54014D91E42F0E
:1011D000E295EF70F0E020A130E04F7002C035954D
:1011E00027954A95E2F720FD4EC0412C512C320143
:1011F0004394082E04C0440C551C661C771C0A94AA
:10120000D2F7B301A201842A952AA62AB72A019609
:1012100081319105D9F6F801319780810E945B08F0
:10122000F70180819181A281B38188169906AA066F
:10123000BB0669F180829182A282B38281E0C82BD1
:10124000F4E0EF0EF11C41E00C36140709F09CCFDE
:101250002C2F46E063EA74E08BE894E00E944A0990
:101260000E94EC058C2FCF911F910F91FF90EF9072
:10127000DF90CF90BF90AF909F908F907F906F90B6
:101280005F904F90089540E050E0BA01BCCF80E0FD
:10129000D6CF0895FF920F931F93CF93DF93F82E2D
:1012A000D92F8B01C42F222349F081E08093DA01EA
:1012B0000E9471249093D9018093D8018091DA0122
:1012C000882399F08091D8019091D9010E948924B6
:1012D000069758F0EF2DFD2FD80190E080E0D0E088
:1012E0008C179D0744F01092DA01DF91CF911F9186
:1012F0000F91FF90089501911191219131910D93DA
:101300001D932D933D930196EBCFEF92FF920F9398
:101310001F93CF93DF93EB01E82FD11110C044232B
:1013200021F0F0E0E055FA4FE4916E2F7E2F8E2FE2
:10133000DF91CF911F910F91FF90EF9008950D2FA6
:1013400010E0282F30E0442329F020553A4FF901CE
:10135000249130E0F6E0CF9FC0011124EFEFF0E0E0
:10136000BF010E947C2CAB018C2F90E0880F991F4D
:10137000A5E5A49FB001A59F700D1124861B970BB6
:10138000982F990F980FBF01601B710B629FD001BE
:10139000639FB00D729FB00D11248B2F9D9FB001E4
:1013A0001124672F7727EF01C61BD70BBE01629F61
:1013B000E001639FD00D729FD00D11247F01E91AC7
:1013C000F108E09EB001E19E700DF09E700D1124B9
:1013D000672F7727E61BF70BE29F8001E39F100D35
:1013E000F29F100D1124E12F722F4230510599F018
:1013F00048F44115510569F04130510581F0EB2F5A
:101400008D2F07C04430510569F080F046305105FA
:10141000B1F76E2F8DCFE22F7B2F812FFACFE22FE6
:101420007D2FF7CFEB2F822F712FF3CF7B2F822FC2
:10143000ED2FEFCF41E00C94850908950C941A0A22
:10144000CF93DF93762FE901682F842F0E941E0A25
:10145000798368838A83DF91CF910895433308F0BD
:1014600042E30C94200A8091BB04982F9E7F61F484
:10147000817082608093BB048091BE04833318F036
:1014800082E38093BE0408958635B0F3817084654D
:10149000F1CF88E090E00C947E2DCF92DF92EF9216
:1014A000FF926B017C010E94330AB701A60188E01C
:1014B00090E0FF90EF90DF90CF900C949C2D609186
:1014C000BB047091BC048091BD049091BE040C9447
:1014D0004D0AEBEBF4E083E0808311828FEF82838F
:1014E00082E38383148260817181828193810C9471
:1014F0004D0A8091BB0480FF02C08695089580E06C
:1015000008959091BF04933018F49F5F9093BF04A7
:10151000882351F06091BB047091BC048091BD049C
:101520009091BE040C944D0A089581E00C94810AB8
:101530009091BF04992319F091509093BF04882390
:1015400051F06091BB047091BC048091BD049091F6
:10155000BE040C944D0A089581E00C94980A809181
:10156000BF0408958093BF04662351F06091BB04CB
:101570007091BC048091BD049091BE040C944D0AFE
:10158000089560E00C94B20A8091BC0408958091A3
:10159000BD0408958091BE04089521E030E001C0AB
:1015A000220F8A95EAF790919C03922381E009F437
:1015B00080E0089570E00C94EF116F927F928F920B
:1015C0009F92AF92BF92CF92DF92EF92FF920F93D2
:1015D0001F93CF93DF9300D000D00F92CDB7DEB72B
:1015E000709008018091BB0480FF2BC0C0909103D4
:1015F000D0909203F12CE12C43E0642EC114D1046D
:1016000009F042C08091070133E0839FC00111249B
:10161000672D80549B4F0E94DA0A0F900F900F9015
:101620000F900F90DF91CF911F910F91FF90EF904E
:10163000DF90CF90BF90AF909F908F907F906F90F2
:1016400008958091090190910A0123E0829FF001A1
:101650001124E054FB4F891748F611821082128240
:101660008F5F3396F8CF98014D816C818B810E94FA
:101670002E0A0D5F1F4F39C08FEFE81AF80A28E0D5
:10168000E216F10409F4BECF8E2D0E94CD0A882304
:1016900099F3F701EE0FFF1FEC0DFD1DA590B4901F
:1016A000A114B10409F4AECF45E050E0B501CE017C
:1016B00001960E94602D09810F3FF1F28A81800F0F
:1016C0009927991F8835910514F087E590E04C0122
:1016D000880C991C880D991D9C0120543B4F490191
:1016E000069D8001112400541B4F0815190508F4AC
:1016F000BACF35E0A30EB11CD7CF9091BB0490FFB9
:1017000014C09091090120910A0133E0939FF001E8
:101710001124E054FB4F921710F00C94DD0A8183E2
:10172000608342839F5F3396F6CF0895CF93DF9314
:1017300000D00F92CDB7DEB79091BB0490FF0AC0E6
:101740009E012F5F3F4F0E942E0A4B8169818A8143
:101750000E947D0B0F900F900F90DF91CF91089515
:10176000CF93DF93EC01EC81F0E0E555FB4F449122
:10177000EBEBF4E0628181810E94960B8C818F5F9C
:101780008C83DF91CF910895CF93DF93EC01EBEB46
:10179000F4E0438162818C810E94960B8C818F5F83
:1017A0008C83DF91CF9108950F931F93CF93DF9395
:1017B00000D00F92CDB7DEB78C018091DB01811193
:1017C0000AC09E012F5F3F4F42E36FEF0E942E0A37
:1017D0008A818093DB01F8016481613069F0809136
:1017E000DB0140E0662361F040E0623011F440919B
:1017F000DB0180E060E004C06091DB0140E080E05C
:101800000E947D0BF801848190E0019663E070E016
:101810000E94902C84830F900F900F90DF91CF91B6
:101820001F910F910895AF92BF92CF92DF92EF92E6
:10183000FF920F931F93CF93DF9300D00F92CDB7FA
:10184000DEB7182FF62E042FE22E9091BB0490FFE6
:1018500029C0E92FE695AE2FB0E0A459BE4F8C9178
:1018600080939A039E7F923059F59E012F5F3F4FE0
:10187000812F0E942E0A4B8169818A810E947D0BF3
:101880001093BC04F092BD040093BE04EE2051F00E
:101890006091BB047091BC048091BD049091BE0422
:1018A0000E944D0A0F900F900F90DF91CF911F91E2
:1018B0000F91FF90EF90DF90CF90BF90AF90089581
:1018C000823019F40091BE04DBCF863019F41091F8
:1018D000BC04D6CF8930D9F3893191F6E9518E2FE6
:1018E0008170D82EE695F0E0E555FA4FA590B490BA
:1018F000C12CBB2460910B01C61618F00E94DD0AB2
:10190000BFCF2C2D30E0A29EC001A39E900DB29EB1
:10191000900D112470E00E947C2C812FD11013C0F7
:10192000860F40910901420F532F511D9A01220F3A
:10193000331F240F351F20543B4F402F6F2D0E9423
:101940002E0AC394D7CF861BECCFEBEBF4E091814A
:10195000282F4381628188E0890F0C94130C81E069
:101960000C94A50CEBEBF4E09181282F438162816C
:1019700088EF890F0C94130C81E00C94B20CEBEB04
:10198000F4E0628128E0620F08F46FEF282F4381B2
:1019900081810C94130C81E00C94BF0CEBEBF4E010
:1019A000628128E0621B08F460E0282F4381818176
:1019B0000C94130C81E00C94CE0CEBEBF4E043811F
:1019C00028E0420F08F44FEF282F628181810C94A8
:1019D000130C81E00C94DD0CEBEBF4E0438128E088
:1019E000421B08F440E0282F628181810C94130C83
:1019F00081E00C94EC0C20E00C94130CEF92FF921D
:101A00001F93CF93DF93EC0110E0EE24EA94F12CC6
:101A100060910B01161770F00E94DD0A9A818C818B
:101A200090FF27C08F5F8C83DF91CF911F91FF9034
:101A3000EF90089520910901422F410F5527551F1E
:101A4000CA019A01220F331F280F391F20543B4F20
:101A500070E0C7010E94902C962F8C814091BE04AB
:101A60006091BD04199F800D11240E942E0A1F5FF2
:101A7000CFCF8150D8CFAF92BF92CF92DF92EF926B
:101A8000FF920F931F93CF93DF93FC0182810FEF9F
:101A900080FF01E010E047E5A42E80910B011817AC
:101AA000C8F00E94DD0A8091DD01013009F055C0C7
:101AB000811102C080910B0181508093DD01DF9183
:101AC000CF911F910F91FF90EF90DF90CF90BF903B
:101AD000AF900895C0910901C12ED12CCC0DDD2D00
:101AE000D11DCE01880F991FC80FD91FC054DB4FDD
:101AF000198218821A8234E0E32EF12CB12C8091E5
:101B0000DD018B0D88351CF16A2D0E946E2C892F0A
:101B1000082E000C990BC816D90691F48091BE04CA
:101B20008E9DA0018F9D500D11245595479555957B
:101B300047959E016091BD048091BC040E942E0ACD
:101B4000B00EF1E0EF1AF108D1F61F5FA6CF87FFC4
:101B5000DFCF90910B01890FDBCF90E00196609170
:101B60000B0170E00E94902CA8CF0F931F93CF938E
:101B7000DF938091090190910A0123E0829FF00197
:101B80001124E054FB4F891740F1C0E0D3E060918D
:101B90000B01C61740F10E94DD0A209105018091DA
:101BA000DC01820F8093DC0190910601920F9093EB
:101BB0000601191654F4082E000C990B40910B01E4
:101BC0004150550B841795071CF021952093050172
:101BD000DF91CF911F910F9108951182108212828F
:101BE0008F5F3396D0CF0C2F10E070E0C8010E94B9
:101BF000902C20910901820F482F50E02091DC01A8
:101C0000022E000C330B02171307BCF020910601C3
:101C1000022E000C330B201731077CF08D9F9001B2
:101C2000112420543B4F4091BE046091BD0480912B
:101C3000BC040E942E0ACF5FAACFFA01EE0FFF1F4D
:101C4000E40FF51FE054FB4F118210821282F3CF94
:101C50008F929F92AF92BF92CF92DF92EF92FF92BC
:101C60000F931F93CF93DF93EC014C81042F10E06F
:101C70009801D8010E94DB2C9B01AC010E94F12C41
:101C80004B015C01E0E2F0E0E01BF10BA5E5B0E008
:101C9000AC019B010E94F12C6B017C019F01DF01D3
:101CA0000E94D32C9B01AC010E94FC2C9B01AC0137
:101CB000280D391D4A1D5B1DC701B6010E94A42CC9
:101CC000F22E822F90E039E23F1560F143E0249F2D
:101CD0009001112435952795122F109500E085E588
:101CE000E82EEF1880910B01081758F10E94DD0AC9
:101CF0009C8181E0992319F0903219F48FEF809341
:101D0000040180910401890F8C83DF91CF911F9191
:101D10000F91FF90EF90DF90CF90BF90AF909F908A
:101D20008F90089525E530E0B901681B790B9B0180
:101D3000220F331F260F371F37FFCCCF2F5F3F4FA8
:101D4000C9CF8E2D01FD8F2D20910901622F600FCB
:101D50007727771F9B01220F331F260F371F205431
:101D60003B4F412F6091BD040E942E0A0F5FBACFF6
:101D70000F931F93CF93DF93EC0110E000E090915D
:101D80000B019017110609F06CF40E94DD0A8C819A
:101D900090E00196817099278C83DF91CF911F91FC
:101DA0000F91089520910901A801420F511D9A0138
:101DB000220F331F240F351F20543B4F4C8160915D
:101DC000BD048091BC0496959017110651F04CF01B
:101DD000442349F04091BE040E942E0A0F5F1F4F1A
:101DE000CECF4423B9F340E0F7CF8F929F92AF92CA
:101DF000BF92CF92DF92EF92FF920F931F93CF93F8
:101E0000DF93FC01B280948081E0848300E015E0E0
:101E10005BE4A52E88248394EE24EA94F12C7BE4E1
:101E2000C72ED12C80910B01081770F0DF91CF9154
:101E30001F910F91FF90EF90DF90CF90BF90AF90E8
:101E40009F908F900C94DD0AC02FD0E01C9FF00172
:101E50001D9FF00D1124E252FE4F91101CC0138201
:101E6000128220910901CE01820F911D9C01220F47
:101E7000331F280F391F20543B4F1C9FF0011D9F1B
:101E8000F00D1124E252FE4F4281618180810E9457
:101E90002E0A0F5FC7CF2381222379F1215023839C
:101EA00034818A2D821B311101C0822F1C9FF001C9
:101EB0001D9FF00D1124E252FE4F9091BE04899FA8
:101EC000C0011124B6010E947C2C6283211104C040
:101ED000332311F01482A38222E02B1510F21C9FF1
:101EE000F0011D9FF00D1124E252FE4F8091BC04C1
:101EF00080838091BD048183B4CF0E94502D8230B5
:101F000091400CF0AECF82E08B1530F50E94502D41
:101F1000B7010E94902C1C9FF0011D9FF00D112411
:101F2000E252FE4F808322E02B15C8F40E94502D10
:101F30002091BD042695622F70E00E94902C280FFE
:101F40001C9FF0011D9FF00D1124E252FE4F2183D2
:101F50001282A382848285CF8091BC04DCCF209141
:101F6000BD04EECFEBEBF4E080818E7F8083608157
:101F70007181828193810E944D0A10929B032FEF01
:101F800080E792E0215080409040E1F700C00000DF
:101F90000C94DD0AEBEBF4E080818E7F808310925D
:101FA0009B032FEF80E792E0215080409040E1F7C3
:101FB00000C000000C94DD0A6091BB04669570E0DF
:101FC0004BE050E08CE091E00E94692D892B19F4E0
:101FD00081E080939B030E947124909394038093EB
:101FE000930308959091BB0490FF35C091708111C7
:101FF00028C092609093BB04662351F06091BB04AB
:102000007091BC048091BD049091BE040E944D0A61
:102010006091BB04669570E04BE050E08CE091E08D
:102020000E94692D892BA1F010929B0381E080937F
:1020300096034091BE046091BD048091BC040C9451
:10204000FB0C8B3210F09465D5CF880F982BD2CF34
:102050000E94DC0FEBCF0895682F9091BB049695FA
:1020600081E0890F8B3208F081E00C94F20F81E05F
:102070000C942C10682F9091BB0496958FEF890FCC
:1020800009F48AE20C94F20F81E00C943A1061E0BA
:102090000C94F20FEBEBF4E08081816080838695F5
:1020A0000C9447108091BB0480FD0C94B20F0C94EB
:1020B0004A1060E00C94F20F8091990381112EC0B8
:1020C0000E948322811104C00E9427230E94690A72
:1020D0000E94490A6093BB047093BC048093BD04C2
:1020E0009093BE046E7F61F40E94690A0E94490ABF
:1020F0006093BB047093BC048093BD049093BE04B2
:102100000E94330A10929B038091BB0480FF03C09E
:1021100086950E94591081E0809399030895EBEB16
:10212000F4E080818160808386950C94591021E0D1
:1021300030E0A90102C0440F551F8A95E2F7CA0199
:1021400020919C03662391F0822B80939C038091C5
:102150009B03811105C08091BB0486950E94591094
:102160008091BB0480FD05C00C94DD0A809582231C
:10217000ECCF08950F931F93CF93DF9380919B0330
:10218000882309F49DC080919A03E091BB04E695F1
:10219000E81BE09395038230C9F5F0E0E955FB4F69
:1021A000E491CE2FD0E000EB1BE0809196038823D2
:1021B00089F0109296030E9471249E01209530951B
:1021C000820F931F9093940380939303109298032C
:1021D0001092970380919303909194030E94892415
:1021E0008C179D0708F46CC0E0919303F091940361
:1021F000CE0FDF1FD0939403C093930383E993E042
:10220000F801DF91CF911F910F910994863049F425
:10221000F0E0EC55FB4FE491CE2FD0E004EC1BE056
:10222000C4CF893051F4E695F0E0EF55FB4FE491CF
:10223000CE2FD0E00EEF1CE0B8CF8F3051F4E695F2
:10224000F0E0E256FB4FE491CE2FD0E00BE31DE02F
:10225000ACCF853149F4F0E0E556FB4FE491CE2F49
:10226000D0E005EB1DE0A1CFC8E2D0E008E21EE01F
:10227000883109F49ACF833239F4E9E9F4E0C59161
:10228000D49104ED1BE091CFC4EFD1E008EB1EE048
:10229000843209F48ACFC0EDD7E00DE11AE085322F
:1022A00009F083CF8E2F63E00E94622CE92FF0E0CB
:1022B000EA56FB4FE491CE2FD0E005EF1EE075CF3C
:1022C000DF91CF911F910F910895FA01811101C003
:1022D000FB010994CF93DF93C82FD62F0E94790A70
:1022E0008C1740F00E94790A8D1720F4DF91CF916E
:1022F0000C9437108C2FDF91CF910C9447100F93D3
:102300001F93CF938C01FB01C281CC2309F465C0DC
:102310000E94CE218272F801E25CFC45E431F105B5
:1023200038F4E152F24D0C94C62C0E945210C0E0D9
:102330008C2FCF911F910F91089544E450E167E3F2
:1023400070E10E946511F3CF47E350E164E470E16E
:10235000F8CF4CEB5CE06FEA7CE0F3CF4FEA5CE057
:102360006CEB7CE0EECF4AED5CE06BEC7CE0E9CF1F
:102370004BEC5CE06AED7CE0E4CF48EF5CE069EEBA
:102380007CE0DFCF49EE5CE068EF7CE0DACF4CEA3E
:102390005AE065E97AE0D5CF45E95AE06CEA7AE09F
:1023A000D0CF81E00E944710C2CF65E082E00E945A
:1023B0006A11BDCF68E086E0FACF6EE089E0F7CF22
:1023C00064E18FE0F4CF67E185E1F1CF88E1EACF06
:1023D00062E289E1ECCF83E2E5CFC1E0A9CF6E9A5A
:1023E0004EB14F7B5EB15064EFB7F8949B01220F62
:1023F000331F260F371F280F391F2817390741F4BD
:10240000EFBF8FE594E00197F1F700C00000089559
:10241000DC016D91CD0178E05EB9000000C067FF7E
:102420004EB9660F000000C000C000C04EB900C029
:102430007A9591F7E2CF82E290E00E94762D813288
:1024400089F483E290E00E94762D823059F484E290
:1024500090E00E94762D91E0863109F090E0892F7E
:102460008170089580E0FCCFCF93C82F6FEF81116A
:1024700061E282E290E00E948A2D6FEFC11162E07A
:1024800083E290E00E948A2D6FEFC11166E184E241
:1024900090E0CF910C948A2D80E00E9434120C942D
:1024A0007D22089585E290E00E94762D682F70E0ED
:1024B00090E080E0089585E290E00C948A2D0E94DF
:1024C00051120E941B1281110CC060E070E0CB0120
:1024D0000E945B120E9416140E94001581E00C9469
:1024E00034120895CF93FB01C281CC2309F19C01E2
:1024F00022513F452031310520F582510E941015AF
:10250000C0E08C2FCF91089581E00E94492043E0E4
:1025100062E081E00E94D005F3CF81E00E946A2052
:1025200043E062E081E00E94D005EBCF82E0F6CF8D
:102530008031FFE59F0789F381319F45B9F3C1E001
:10254000E0CF8031EFE59E07F9F281319F45C9F672
:1025500082E0DBCF2FEFFC0120830895CF93DF9340
:10256000EC0188818138A9F028F4803871F0DF917E
:10257000CF910895823881F08338C9F70E94C40A48
:1025800089830E94C70A8A83F2CF0E94CA0A89837C
:10259000EECF0E94790AFBCF0E94AF0AF8CFCF930B
:1025A000DF93EC0188818138E1F028F4803869F00C
:1025B000DF91CF910895823811F18338C9F70E94D5
:1025C000CA0A482F6A81898108C0D9810E94C70A36
:1025D000C82F0E94C40A4D2F6C2FDF91CF910C940D
:1025E000FB0C89810E9459108981811104C0DF91FF
:1025F000CF910C94CA0FDF91CF910C948F108981E9
:10260000DF91CF910C94C10AEF92FF920F931F9329
:10261000CF93DF93EC01E62EDC01ED91CD01E1508B
:10262000E33108F0C0C0F0E0ED50F24D0C94C62C40
:10263000198289E08A836E2DCE01DF91CF911F919F
:102640000F91FF90EF900C9496258981823069F06C
:10265000833071F08130E1F40E947D240E94CC2C03
:102660006A837B838C839D83E6CF0E945212F6CFD0
:102670008E01F12C8F2D0E944B08F8018283738309
:102680006483F3940D5F1F4FF6E0FF12F3CFD3CFB7
:102690006E2DCE010E94AA12CECF89818230C1F761
:1026A0006A817B818C819D810E94CC2C0E945B126F
:1026B000C2CF4B816A8189810E94E81398278927BC
:1026C00098279D838C83B7CF2C813D813227232788
:1026D00032274B816A8189810E940114ACCF0E940C
:1026E0001614A9CF0E94CF12A6CF0E94AE12A3CF7C
:1026F0000E945F0AA0CF0E94AB1489839CCF0E94E6
:10270000AD149827892798279A83898394CF6B8162
:1027100070E089819A81AE014C5F5F4F98278927CD
:1027200098270E94B01487CF6B8170E089819A81CD
:10273000AE014C5F5F4F9827892798270E94D614D7
:102740007ACF0E94001577CF0E94D613D6CF6B8127
:1027500070E089819A81AE014C5F5F4F982789278D
:1027600098270E944E1467CF6B8170E089819A810F
:10277000AE014C5F5F4F9827892798270E947414F9
:102780005ACF0E944C1257CFCE010E9496252FEFB0
:1027900081EE94E0215080409040E1F700C00000BD
:1027A0000E94BC2448CF8FEF888345CF84E00895F2
:1027B00050E0440F551F92E2699F400D511D1124B6
:1027C0009CEC899F400D511D1124CA0186960895E5
:1027D0000F931F93CF93DF930E94D8138C010E9415
:1027E000762DC82FD0E0DC2FCC27C80101960E949F
:1027F000762D9E01282BC901DF91CF911F910F915A
:1028000008950F931F93CF93DF93122F032F0E94EE
:10281000D813EC01602F0E948A2D612FCE01019602
:10282000DF91CF911F910F910C948A2DAF92BF929F
:10283000CF92DF92EF92FF921F93CF93DF9386ECBC
:10284000C82E80E0D82ED0E07601C0E014C0F5019B
:1028500025913491412F6C2F8D2F0E94011482E01D
:10286000A80EB11C1F5F113191F782E2E80EF11C36
:10287000CF5FC63019F0570110E0E9CFDF5F8CEC75
:10288000C80ED11CD43001F7DF91CF911F91FF907A
:10289000EF90DF90CF90BF90AF900895EF92FF92AE
:1028A0000F931F93CF93DF93EC018A017C01E60E17
:1028B000F71ECE018696CE15DF0539F4DF91CF9154
:1028C0001F910F91FF90EF900895C03323E0D2073E
:1028D00040F40E94762DF80180830F5F1F4F2196F0
:1028E000E8CFF8011082F9CFCF92DF92EF92FF92FA
:1028F0000F931F93CF93DF937C016A018C01060F26
:10290000171FEC01CE018696C017D10749F4DF915D
:10291000CF911F910F91FF90EF90DF90CF9008958E
:10292000C03323E0D20740F4FE01EE19FF09EC0D9D
:10293000FD1D60810E948A2D2196E4CF462F8430B0
:1029400038F4763028F4613118F4672F0C94E813CA
:1029500090E080E0089580E108958AEA90E008958B
:10296000EF92FF920F931F93CF93DF93EC018A01B5
:102970007C01E60EF71ECE018A5A9C4FCE15DF056C
:1029800039F4DF91CF911F910F91FF90EF9008954F
:10299000CA3AD10540F40E94762DF80180830F5F7A
:1029A0001F4F2196E8CFF8011082F9CFCF92DF9226
:1029B000EF92FF920F931F93CF93DF937C016A01F5
:1029C0008C01060F171FEC01CE018A5A9C4FC017CD
:1029D000D10749F4DF91CF911F910F91FF90EF90B4
:1029E000DF90CF900895CA3AD10540F4FE01EE1968
:1029F000FF09EC0DFD1D60810E948A2D2196E4CF18
:102A0000CF93DF93C6E5D3E060E0CE010E948A2D2C
:102A10002196C11584E0D807B9F7DF91CF910895C9
:102A2000DF92EF92FF920F931F93CF93DF9300D02B
:102A300000D0CDB7DEB7F82E8FE08F1540F08FEFC6
:102A400093E00E94762D06E513E08823C1F00F90F5
:102A50000F900F900F90DF91CF911F910F91FF90EA
:102A6000EF90DF900895011584E0180781F3C80105
:102A70000E94762D811101C0FA940F5F1F4FF11053
:102A8000F2CF19821A821B821C82DD24D394780132
:102A90008FEFE81AF80AC8010E94762D89831A82FE
:102AA0008823A9F29FEF980F933078F48A83D98214
:102AB0000E5F1F4FC7010E94762D8B83882339F24A
:102AC000CE0101960E947905E2CF8701F9CF0F93DD
:102AD0001F93CF93DF93C42FD22FFC0182818823D1
:102AE000C9F040939F030E94712490939E038093AA
:102AF0009D0380E28C0F883008F050C0C77081E0E1
:102B000001C0880FCA95EAF7DF91CF911F910F910D
:102B10000C94E21910919F03141335C080919D030A
:102B200090919E030E948924883C910560F5C0E243
:102B3000CD0F1D17B9F080E2810F883040F4177077
:102B400081E001C0880F1A95EAF70E94E919C830A0
:102B500048F481E09D2F977001C0880F9A95EAF79D
:102B60000E94E219802F0E94CF19C830B8F4D770A4
:102B700081E001C0880FDA95EAF7DF91CF911F91CC
:102B80000F910C94E91980E28C0F883038F4C770EB
:102B900081E001C0880FCA95EAF7EFCFDF91CF91AE
:102BA0001F910F9108950F939C01CB01233F4CE59A
:102BB000340759F1A8F4283DFCE53F0701F1293D10
:102BC0004CE53407D1F1273D3C4591F406E221EE76
:102BD00041EE67ED7CE50E94671580E00F91089556
:102BE000253FFCE53F07E9F0B0F0263F3C45F9F012
:102BF000FC018281882339F110929F03EFCF07E215
:102C000025EE45EE68ED7CE5E6CF06E221EE40EEEE
:102C100063EF7CE5E0CF07E225EE44EE64EF7CE570
:102C2000DACF06E221EE42EE65EF7CE5D4CF07E293
:102C300025EE46EE66EF7CE5CECF08E221E045EEDC
:102C400069ED7CE5C8CF81E0C9CFCF93DF93EC017C
:102C5000FB018281882309F419C1C230FCE5DF073A
:102C6000C0F1C6319CE5D90730F09E012A5F3C4592
:102C70002930310570F50E9496229093CA05809301
:102C8000C905C031ECE5DE0709F4CFC008F05BC030
:102C9000C8308CE5D80709F4B6C088F5C430ECE537
:102CA000DE0709F4A8C0C0F4C2308CE5D80709F4E7
:102CB0009CC08091C9058260C330DC4509F498C08E
:102CC0008091C9059091CA050E94A4220E944F1CC0
:102CD00080E0DF91CF9108958091C9058061C63071
:102CE000ECE5DE0709F484C08091C9058860C7302F
:102CF000DC4508F47DC08091C905806279C0CC3084
:102D00008CE5D80709F489C070F48091C9058C60FE
:102D1000CA30ECE5DE0709F46BC008F478C0809196
:102D2000C9058E7F65C0CE308CE5D80709F479C01F
:102D30008091C9058B7FCF30DC4508F459C0809164
:102D4000C9058F7E55C0CB3FECE5DE0709F457C0BF
:102D500030F5C3318CE5D80709F46FC078F4C13180
:102D6000ECE5DE0709F465C0C231DC4509F0A8CF07
:102D70000E944F1C8091C9058F773AC0C5318CE500
:102D8000D80709F462C008F476C08091CA05816052
:102D9000CA3FDC4509F094CF8093CA0591CFCF3F5D
:102DA000FCE5DF0709F44DC088F48091CA058D7FEA
:102DB000CD3F9CE5D90781F38091CA058E7FCE3F38
:102DC000DC4550F38091CA058360E6CFC130FDE554
:102DD000DF0709F459C008F444C080E0C230DD4583
:102DE00009F06ECF0E9429236BCF8091C9058160C5
:102DF0008093C90565CF8091C9058460F9CF809122
:102E0000CA058260C9CF8091C9058064F1CF0E9454
:102E10004F1C8091C9058068EBCF8091C9058D7FDB
:102E2000E7CF8091C905877FE3CF8091C9058F7D6A
:102E3000DFCF8091C9058F7BDBCF8091C905837F70
:102E4000D7CF8091CA058C7FA7CF8091C90582FB1F
:102E5000992790F921E0922790FB82F990FB83F962
:102E6000C7CF8091CA05982F909591708E7F892B3E
:102E700090FB81F991CF0E944F1C9091C905892F39
:102E800097FB87F98058B4CF81E0ACCF81E021CFA8
:102E9000CF93DF93EB0186319C4511F50E94CE2143
:102EA0009A81992399F08A7A91E009F490E09093BD
:102EB000A003811109C089E20E94A9210E941A225F
:102EC00080E0DF91CF91089585E3F6CF8091A00354
:102ED000811104C089E20E94B021F0CF85E3FBCFCD
:102EE00081E0EFCF9093A6038093A5030895E0912E
:102EF000A503F091A603309721F00190F081E02D19
:102F0000099480E00895E091A503F091A60330971D
:102F100099F020912301222359F02091C90527FF20
:102F200007C0DC012C9111962C93119725E02C936E
:102F30000280F381E02D099408952091A30330913C
:102F4000A4032817390771F09093A4038093A30377
:102F5000E091A503F091A603309721F00680F78158
:102F6000E02D099408952091A1033091A203281720
:102F7000390771F09093A2038093A103E091A50318
:102F8000F091A603309721F00084F185E02D09949B
:102F9000089585B7806885BF85B7806885BF089527
:102FA000089508950C94D0170C945D040E94C917DD
:102FB0000E94D1170C94D21781E008950C94DC176D
:102FC000089508950E9468240E9472080E945F126A
:102FD0000E94F6240E945C100C94D4174F925F92CA
:102FE0006F927F929F92AF92BF92CF92DF92EF92B9
:102FF000FF920F931F93CF93DF93CDB7DEB72A973E
:103000000FB6F894DEBF0FBECDBF0E94E0170E943E
:10301000E1170E94AB080E94DE17882309F490C0D4
:1030200048EAA42E43E0B42E10E000E0902E802F5A
:103030000E944B082B013C01F501C190D190E19019
:10304000F1905F01C414D504E604F70409F472C0DA
:103050008091670481FD0E945608B701A6014425AE
:1030600055256625772520E0C12CD12C7601C39407
:10307000DB01CA018C219D21AE21BF21892B8A2B26
:103080008B2B09F44FC02E839F824C205D206E2035
:103090007F2081E045284628472809F480E088877A
:1030A0000E9471248160782F9A8789874E815F8181
:1030B00068858A850E94C718000F111F000F111F15
:1030C000F801E855FC4F80819181A281B3818C2564
:1030D0009D25AE25BF2580839183A283B3830E9463
:1030E000BA100E9477179091A7038917D1F10E9417
:1030F00077178093A7032A960FB6F894DEBF0FBE0A
:10310000CDBFDF91CF911F910F91FF90EF90DF9096
:10311000CF90BF90AF909F907F906F905F904F90B7
:103120000C944B062F5FCC0CDD1CEE1CFF1C2131D8
:1031300009F09ECF0F5F1F4F0630110509F076CFC3
:103140008FEF89838A831B820E9471248160782F8C
:103150009D838C8349815A816B818D810E94C71820
:10316000BECF2A960FB6F894DEBF0FBECDBFDF915B
:10317000CF911F910F91FF90EF90DF90CF90BF9074
:10318000AF909F907F906F905F904F900895CF93F6
:10319000DF93CDB7DEB72B970FB6F894DEBF0FBE27
:1031A000CDBF4F83588769877A878B871E821D82A0
:1031B00085E0FE013796DE01119601900D928A9509
:1031C000E1F749815A816B817C818D819E812B96AB
:1031D0000FB6F894DEBF0FBECDBFDF91CF910C9438
:1031E000C51EFC01808191810C947B21CF93C82F57
:1031F000882309F483C08238C1F40E94771781FDC7
:103200007DC089E30E94A9210E941A222FEF81EE3E
:1032100094E0215080409040E1F700C0000089E335
:103220000E94B021CF910C941A228338A1F40E94FD
:10323000771780FD63C083E50E94A9210E941A22AE
:103240002FEF81EE94E0215080409040E1F700C0E4
:10325000000083E5E5CF8438A1F40E94771782FD52
:103260004DC087E40E94A9210E941A222FEF81EE0F
:1032700094E0215080409040E1F700C0000087E4D6
:10328000CFCF8CEF8C0F813A90F46C2F8091170187
:10329000909118010E944223882329F08C2F0E94CC
:1032A000B0210E941A228C2F0E94A921BBCF80E25C
:1032B0008C0F883048F4C77081E001C0880FCA9530
:1032C000EAF70E94D121AECFEBE5EC0FE33040F4FA
:1032D000F0E0EB53FE4F808190E0CF910C949D176E
:1032E000C85AC73158F4EC2FF0E0EE0FFF1FE95633
:1032F000FE4F80819181CF910C94B317CF910895A7
:10330000882309F44BC0823871F40E94771781FF3B
:1033100045C089E30E94A9210E941A2289E30E94E4
:10332000B0210C941A22833859F40E94771780FF39
:1033300035C083E50E94A9210E941A2283E5EFCFC0
:10334000843859F40E94771782FF28C087E40E94CE
:10335000A9210E941A2287E4E2CF9CEF980F913AAC
:10336000F0F290E2980F983050F4877091E001C02D
:10337000990F8A95EAF7892F0E94D721D2CF9BE532
:10338000980F933020F490E080E00C949D17885AB9
:10339000873120F490E080E00C94B3170895CF9328
:1033A000C82F0E94F618C93349F42FEF87EE93E037
:1033B000215080409040E1F700C000008C2FCF9159
:1033C0000C948019882321F00E94D1210C941A2298
:1033D0000895882321F00E94D7210C941A22089581
:1033E000BF92CF92DF92EF92FF920F931F93CF93F2
:1033F000DF936C01D62FC72FFC01058102950F705A
:10340000128111110E94EE210E94C721E82E88230B
:1034100091F01123D1F08C2F807F803421F080E255
:103420008D0F883090F082E00E9465220E94C721B3
:1034300091E0E82EE926BC2EB2949FE0B922EB2D54
:10344000F0E0EA5FF14D0C94C62CE12CF4CF0C2F88
:103450000F70C07F11F00295007F1123A9F00023A7
:1034600059F080E28D0F883010F0D11109C0802F03
:103470000E94D1210E941A228D2F0E94F61814C09A
:10348000802F0E94E121F6CF8D2F0E94801900230A
:1034900059F080E28D0F883010F0D1112CC0802FB0
:1034A0000E94D7210E941A222B2D2850330B243042
:1034B000310520F40E9477170E944B06EE2009F494
:1034C00093C10E94C32180FD8FC1F60112820E9428
:1034D000BD210E944920C6010E94151C0E94BD21E9
:1034E000DF91CF911F910F91FF90EF90DF90CF90E0
:1034F000BF900C946A20802F0E94E721D3CFFC2F2D
:10350000FF70FF2EC07FC03219F0F29480EFF822D6
:10351000DD2369F0D13049F1112391F1002351F1FC
:10352000F601858180FFA8CF8F70858323C011238A
:1035300081F0011106C00E9401228F290E94E21928
:10354000B3CF0130C1F70E9401228F290E940722C8
:10355000ABCF011106C00E9410228F2D0E94E919E5
:10356000A3CF013009F4A0CFF6CF112329F0063004
:1035700008F09ACF8F2DE2CF053008F095CFEDCF30
:10358000002359F3D93349F4FFEF27EE33E0F1502C
:1035900020403040E1F700C000008D2F0E948019CC
:1035A00083CF8C2F86958695837069F0813009F0E2
:1035B0007BCF8D2F9C2F9370111102C090E080E083
:1035C0000E94B31771CF8D2F9C2F9370111102C0E1
:1035D00090E080E00E949D1767CF8C2F837009F0E8
:1035E00041C0111161CF4D2F429546954770440F50
:1035F000440F0D2F0F7010E030E020E0042E04C0C7
:10360000000F111F221F331F0A94D2F760E070E0F1
:10361000CB01D4FF0FC06FE070E080E090E004C009
:10362000660F771F881F991F4A95D2F7609570958E
:1036300080959095C695C695C370602B712B822B93
:10364000932BC23049F058F4C13019F00E94FB1F8F
:103650002BCF0E94E91F28CF0E940D2025CF0E946A
:10366000E71F22CF8695112311F08C2F81708823BC
:1036700009F41ACF4D2F429546954770440F440FD9
:103680000D2F0F7010E030E020E0042E04C0000F7A
:10369000111F221F331F0A94D2F760E070E0CB01A4
:1036A000D4FF0FC06FE070E080E090E004C0660FD0
:1036B000771F881F991F4A95D2F76095709580955E
:1036C0009095C695C695C370602B712B822B932B5A
:1036D000C23049F058F4C13019F00E94C020E4CE45
:1036E0000E94AE20E1CE0E94D220DECE0E94232096
:1036F000DBCECF70112329F08C2F0E9449208D2F13
:103700001DCF8D2F0E94E9198C2F0E946A20CCCEEC
:10371000D23F89F160F4D03FC9F0D13F29F11123A4
:1037200009F442C00111A8CE8C2F8F7121C0D33F64
:1037300039F1D43FA1F7112369F1CF718C2F0E9489
:10374000492063E08C2F0E945022AECE112341F01D
:10375000053008F0A9CE8C2F8F710E948D20A4CE49
:10376000063008F0A1CEF7CF8C2F8F71112369F2AC
:103770000E94492099CE8C2F8F711123C9F3C5CF98
:10378000112329F08C2F8F710E9434208DCE0E943E
:103790002F208ACE81E00E946522023008F484CE78
:1037A00082E00E94652280CE002359F0D93309F0CF
:1037B000F4CE8FEF97EEE3E081509040E040E1F7E8
:1037C000EACE8C2F8F71A1CF4C2F4F706D2FC60179
:1037D0000E9453060E945F1F67CE4C2F4F706D2FC3
:1037E000C6010E94560660CEDF91CF911F910F91C6
:1037F000FF90EF90DF90CF90BF9008950F931F93AD
:10380000CF93DF93EC01688179818A810E948521C1
:103810008C010E94E4200E94E61FB801CE01DF91D6
:10382000CF911F910F910C94F019CF93DF93EC017E
:103830008B819C81892B29F08881998189238F3FF5
:1038400059F4DF91CF910895CE010E94FE1BCE0165
:10385000DF91CF910C94BA04CE010E94FE05811134
:10386000F3CF0E94C721882361F38A81882349F31B
:1038700082E0DF91CF910C9465220E94EE210E949C
:10388000FE210E941A2290E080E00E949D1790E0A5
:1038900080E00C94B3170E94B7210C943D1C0E9449
:1038A000DE210C944B1CE92FE295EF70E250EE30D4
:1038B00070F4F0E0EA5EF14D0C94C62C803F19F0F4
:1038C00020F4883E20F481E00895843FE1F380E015
:1038D0000895883EC0F3813FD1F7F5CF93FB882749
:1038E00080F908950E947B210C94531CCF93DF93A1
:1038F00000D000D00F92CDB7DEB70F900F900F9091
:103900000F900F90DF91CF910895CF93DF9300D068
:1039100000D000D0CDB7DEB726960FB6F894DEBF44
:103920000FBECDBFDF91CF9108951F93CF93DF934B
:10393000C091C10316E08091C2038C1304C0DF91D3
:10394000CF911F910895D0E01C9FF0011D9FF00DB5
:103950001124ED53FC4F4081518162817381848138
:1039600095810E94851C2196C770E5CF4091F30395
:103970005091F4036091F5037091F6038091F70381
:103980009091F8030C94851C1F93CF93DF93809143
:10399000F803807FA9F48091F503882389F0809152
:1039A000C103C091C2036091F3037091F403A0912D
:1039B000F603B091F703D62FD72316E0C81304C03F
:1039C000DF91CF911F91089590E0109711F0DF3FA4
:1039D00019F401968770F2CF189F9001199F300D4E
:1039E0001124F901ED53FC4F41814713F2CF40817F
:1039F0004613EFCF42814111ECCF438154814A1BE2
:103A00005B0B483C510528F78091F8038F7080616B
:103A10008093F803F901E853FC4F80818F70806137
:103A2000808383EF93E00E94151CDF91CF911F915B
:103A30000C94951CAF92BF92CF92DF92EF92FF92BF
:103A40000F931F93CF93DF93CDB7DEB761970FB678
:103A5000F894DEBF0FBECDBF8C0185E0F801DE011A
:103A60001D9601900D928A95E1F7F80140815181F0
:103A7000E28083EFC82E83E0D82E6091F603709128
:103A8000F7036115710509F461C19091F303209169
:103A9000F403892F82238F3F09F458C1A380B48097
:103AA000F090F503F501E61BF70BFF2009F4FCC0CD
:103AB0008091F803382F307FE83CF10508F0B2C060
:103AC000311179C0FE2C251323C0941321C0E110BD
:103AD0001FC08F7080618093F8030E94B61CC601DE
:103AE0000E94151C8091F803F80185838F2D619643
:103AF0000FB6F894DEBF0FBECDBFDF91CF911F91FF
:103B00000F91FF90EF90DF90CF90BF90AF9008950E
:103B1000AB2829F0842F85238F3F09F033C180E043
:103B2000F82FF170DF2E80FF3CC08091C1032091FF
:103B3000C20336E0821315C04D875E878D859E8552
:103B40000E947B21292F22952F702230F0F0243003
:103B500018F59F70F1F0F8019581907FD1F4D12C88
:103B60001EC090E0389FF001399FF00D1124ED53F5
:103B7000FC4F6181651306C06081641303C06281DC
:103B80006E110FC001968770D5CF9F7011F08823FA
:103B900031F3805E883018F3C8010E94151CFD2C9B
:103BA000A5CFEE2009F4A2CF8091F8038160809325
:103BB000F803F12C9BCF251306C0941304C0F80121
:103BC000EE2009F48DC04D875E878D859E850E940D
:103BD000721C882319F1EE2009F18091F8038032DC
:103BE00070F02091F3033091F40338872F83198606
:103BF000BB86AA868C87CE0107960E94151C86E09C
:103C0000F801A3EFB3E001900D928A95E1F70E94CD
:103C1000C41C0E94B61CFF24F39468CFC8010E9404
:103C2000151CF9CF311113C07A2DB98AA88A6E2DCF
:103C300089890E94761C83EF93E00E94151C86E020
:103C4000F60111928A95E9F70E94B61CB2CF2513AE
:103C50000FC094130DC0E1100BC0F8018583C8019B
:103C60000E94151C86E0F60111928A95E9F73ECF75
:103C70004D875E878D859E850E94721C882371F218
:103C8000EE2061F28091F803803208F4B8CF2091E1
:103C9000F3033091F4033A8329831B82BD82AC8203
:103CA0008E83CE010196A9CFE83CF10508F041C012
:103CB000FE2CEE2009F4B2CF25132AC0941328C09D
:103CC0008091F80380FD1BC0982F907FC1F0F80110
:103CD0008583903F31F0982F907F905F8F70892B74
:103CE0008583C8010E94151C86E0F801A3EFB3E0AC
:103CF00001900D928A95E1F70E94B61CF7CE86E0FE
:103D0000F801A3EFB3E001900D928A95E1F7EECEB2
:103D10004D875E878D859E850E94721C81116FCFB5
:103D20008091F80381608093F803C8010E94151CFC
:103D3000DDCE7A2DB98AA88A6E2D89890E94761CDB
:103D400086E0F60111928A95E9F7D6CFEE2009F4C4
:103D500065CF4D875E878D859E850E94721CF82EEB
:103D6000882309F45BCF86E0F801A3EFB3E001906C
:103D70000D928A95E1F783EF93E00E94F1180E947B
:103D8000C41CBACF81E08E25CBCE1F93CF93DF9397
:103D9000CDB7DEB72C970FB6F894DEBF0FBECDBF00
:103DA0004F83588769877A878B879C87CE010796D0
:103DB0000E941A1D882369F08A859B85892B39F01A
:103DC0004F815885842F85238F3F09F071C016E0FD
:103DD0005FC086E0FE013796DE01119601900D92DC
:103DE0008A95E1F78A859B85892B89F38F81988550
:103DF00089238F3F61F32091C20330E0C90101960E
:103E0000877099274091C1034817190671F40E94E1
:103E10004F1C1092C2031092C10386E0E3EFF3E05F
:103E2000DF011D928A95E9F7D2CF96E0929FD001EB
:103E3000939FB00D1124AD53BC4FFE0131960190FC
:103E40000D929A95E1F78093C2030E94951CBFCF13
:103E5000819FC00111248D539C4F0E941A1D8823FD
:103E6000E9F0E091C1031E9FF0011124ED53FC4FD6
:103E70004081518162817381848195810E94851C7A
:103E80008091C10390E00196877099278093C103C8
:103E90008091C1039091C2038913DACF2C960FB69B
:103EA000F894DEBF0FBECDBFDF91CF911F91089573
:103EB00069857A858B859C850E94851C88CFEF92C9
:103EC000FF920F931F93CF93DF938C01892B81F087
:103ED000F12CEE24E394E8012196F80184918437D3
:103EE00070F4843008F05FC08130B1F08230A1F10D
:103EF000DF91CF911F910F91FF90EF90089585373B
:103F000009F44CC008F43DC09CE7980F903780F747
:103F10008F770E94801949C00E5F1F4FFE01849168
:103F200090E2980F983060F48770FE2D01C0FF0F6B
:103F30008A95EAF78F2F0E94F1210E941A2202C06F
:103F40000E94F6188F2D815030F2EFE9FFE0319793
:103F5000F1F700C00000F7CF0E5F1F4FFE01849104
:103F600090E2980F983050F48770FE2D01C0FF0F3B
:103F70008A95EAF78F2F0E94F721DFCF0E948019E0
:103F8000E1CF0E5F1F4FFE01C491C150D8F28FE9FF
:103F90009FE00197F1F700C00000F7CF0E5F1F4FC1
:103FA000FE01F490CFCF0E94F6188E01CBCF08957A
:103FB0000C94D71F0E94D81F60933E0470933F0457
:103FC00080934004909341040C943D1C08950C94FC
:103FD000DA1F0F931F9300913E0410913F0420912C
:103FE000400430914104602B712B822B932B1F9145
:103FF0000F910C94DA1F0F931F9300913E041091C0
:104000003F042091400430914104602371238223B6
:1040100093231F910F910C94DA1F0F931F9300911C
:104020003E0410913F0420914004309141046027E8
:104030007127822793271F910F910C94DA1F0C94FC
:10404000D71F0C941F200E94212060933A04709384
:104050003B0480933C0490933D040C943D1C60E031
:1040600070E0CB010C9423200F931F9341E050E0AC
:1040700060E070E08A019B0104C0000F111F221F45
:10408000331F8A95D2F7C901B8011F910F910C9483
:1040900023200F931F9341E050E060E070E004C0E4
:1040A000440F551F661F771F8A95D2F780913A04F7
:1040B00090913B04A0913C04B0913D048A019B0186
:1040C000082B192B2A2B3B2BC901B8011F910F91EB
:1040D0000C9423200F931F9341E050E060E070E0C8
:1040E00004C0440F551F661F771F8A95D2F7CB0176
:1040F000BA01609570958095909500913A04109161
:104100003B0420913C0430913D04602371238223C1
:1041100093231F910F910C9423200F931F9341E041
:1041200050E060E070E004C0440F551F661F771F29
:104130008A95D2F780913A0490913B04A0913C0477
:10414000B0913D048A019B01082719272A273B27A4
:10415000C901B8011F910F910C9423200F931F9355
:1041600000913A0410913B0420913C0430913D04AD
:10417000602B712B822B932B1F910F910C9423207A
:104180000F931F9300913A0410913B0420913C043B
:1041900030913D0460237123822393231F910F915B
:1041A0000C9423200F931F9300913A0410913B0429
:1041B00020913C0430913D0460277127822793278A
:1041C0001F910F910C942320089521E1929F800D5F
:1041D0001124982F977041E001C0440F9A95EAF797
:1041E00086958695869595E0899FF0011124E75084
:1041F000FC4F90E080E070E05191DF0111979B014E
:10420000082E02C0369527950A94E2F72170219571
:104210002527242325272C9301968530910561F7C6
:10422000089521E1929F800D1124982F9770869513
:104230008695869525E0829FF0011124E750FC4F7A
:1042400050E040E080E0219130E0092E02C0369538
:1042500027950A94E2F721703327042E01C0220F1C
:104260000A94EAF7822B4F5F5F4F4530510559F7AB
:104270000895BF92CF92DF92EF92FF920F931F9318
:10428000CF93DF938C01C0903A04D0903B04E09030
:104290003C04F0903D0480913E0490913F04A09135
:1042A0004004B0914104C82AD92AEA2AFB2ACFE166
:1042B000D0E0BC2ED701C6010C2E04C0B695A79540
:1042C000979587950A94D2F780FD0EC0219788F7BD
:1042D000B12C8B2DDF91CF911F910F91FF90EF901B
:1042E000DF90CF90BF900895B8018C2F0E945F0699
:1042F000019761F3EECFCF93DF93EC010E94392158
:10430000BE01DF91CF910C945F061F93CF93DF9393
:10431000EB019091C003992331F0CB01DF91CF9154
:104320001F910C947B21882379F0CB010E943921C5
:10433000182F682FCE010E94E520BE01812FDF914A
:10434000CF911F910C945F06CB010E941121182F71
:10435000F4CF682F80911701909118010C94C2231B
:10436000682F80911701909118010C94CD238091B2
:104370001701909118010C94D823809142048595DF
:104380008595859508958091420487700895909150
:104390004204977081E009F480E0089580916604FA
:1043A000089590916604892B809366040895809502
:1043B0009091660498239093660408951092660481
:1043C000089590916504892B8093650408958095E4
:1043D0009091650498239093650408951092650464
:1043E000089590916404892B8093640408958095C6
:1043F0009091640498239093640408951092640447
:10440000089580914304089508950C940422909196
:104410004304981721F0809343040C9405220895D7
:1044200080914304882329F01092430480E00C9487
:1044300005220895E0911701F0911801809166041A
:104440008083E0911701F0911801808190916504BB
:10445000892B8083E0911701F09118018081909160
:104460006404892B808390914304992381F0E09127
:104470001701F09118018081892B808380911701A9
:10448000909118010E942E2381110E941022809188
:104490001701909118010C94831708950C944D22E4
:1044A00098E0899F90011124622B609342040E943E
:1044B0004920809142048595859585950C944E22DE
:1044C0001092420480E00C944E2290914204809518
:1044D000892380934204282F277071F4282F082EF7
:1044E000000C330B9217130639F085958595859549
:1044F0000E946A200C94602208956FEF7FEF90E095
:1045000080E00C94A82D90E080E00E94842D21E0B2
:104510008C3E9E4F09F020E0822F089582E090E0CB
:104520000C94762D83E090E00C94762DCF9384E06C
:1045300090E00E94762DC82F81E290E00E94762DB7
:10454000982F8C2FCF910895CF93C92F682F84E097
:1045500090E00E948A2D6C2F81E290E0CF910C9424
:104560008A2DAB01BC018FE090E00C949C2DAB0137
:10457000BC0183E190E00C949C2D60E070E0CB01E5
:104580000C94B72260E070E0CB010E94B1220C9441
:10459000BD226CEE7EEF90E080E00E94A82D60E0EE
:1045A00082E090E00E948A2D60E083E090E00E942B
:1045B0008A2D10923E0410923F04109240041092F3
:1045C000410460E084E090E00E948A2D60E081E296
:1045D00090E00E948A2D60E085E090E00E948A2DA4
:1045E00060E086E090E00E948A2D6FEF87E090E027
:1045F0000E948A2D40E050E0BA0188E090E00E94DD
:104600009C2D60E08DE090E00E948A2D40E050E01B
:10461000BA0188E190E00E949C2D60E087E190E083
:104620000E948A2D40E050E0BA018CE190E00E94A7
:104630009C2D60E080E290E00E948A2D40E050E0F6
:10464000BA0188E190E00E949C2D0C94C2220C9447
:10465000C922682F8EE090E00C948A2DFC013296DE
:1046600080912301882321F08091C9059EE187FF75
:1046700096E080E0915008F4089521912223D1F32F
:104680008F5FF8CF662301F1209123012223F1F0FF
:104690002091C90527FF1AC0462F46954695469595
:1046A0004E3190F4677021E030E002C0220F331FDA
:1046B0006A95E2F7840F911DFC01828190E0282326
:1046C000392381E0232B69F480E00895FC013296C0
:1046D00008962191261721F0E817F907D1F7F4CFB2
:1046E00081E008959C01FC0132969FEF80E04191AA
:1046F000461751F09F3F19F4411101C0982F8F5F69
:104700008630A9F79F3F09F40895290F311D97FDC1
:104710003A95F90162830895FC0132960896219139
:10472000261303C0DF0111971C92E817F907B9F7A8
:104730000895E62FE695E695E695EE3168F4E80FE4
:10474000F92FF11D677021E030E001C0220F6A955A
:10475000EAF78281822B82830895E62FE695E6951B
:10476000E695EE3170F4E80FF92FF11D677021E046
:1047700030E001C0220F6A95EAF720958281282354
:104780002283089520912301222329F02091C90535
:1047900027FD0C9499230C9472232091230122234A
:1047A00029F02091C90527FD0C94AD230C948C238E
:1047B000FC01329680912301882351F08091C90534
:1047C00087FF06C08EE1DF011D928A95E9F7089503
:1047D00086E0F9CF089508950C94EB230E94EC2312
:1047E0008091CF05843049F11092680488E190E00F
:1047F00020E40FB6F894A895809360000FBE209334
:10480000600080E00E944B060E94EC2383B7817F0A
:10481000846083BF83B7816083BF7894889583B7B2
:104820008E7F83BF0FB6F894A89580916000886151
:1048300080936000109260000FBE08950895CF939A
:104840000E94EA230E94AB080E941E24C0E08C2F25
:104850000E944B08672B682B692B31F4CF5FC63061
:10486000B1F780E0CF91089581E0FCCF08950C94DA
:1048700036240E944F1C0E9477170E944B060C940E
:1048800037241F921FB61F9211248F939F93AF93CB
:10489000BF9380916804811113C08091C5059091E8
:1048A000C605A091C705B091C8054196A11DB11DCF
:1048B0008093C5059093C605A093C705B093C8051E
:1048C000BF91AF919F918F911F901FBE1F90189520
:1048D00082E084BD93E095BD9AEF97BD80936E0012
:1048E00008952FB7F8948091C5059091C605A091C1
:1048F000C705B091C8052FBF08952FB7F8946091F0
:10490000C5057091C6058091C7059091C8052FBF58
:1049100008959C014FB7F8948091C5059091C60504
:10492000A091C705B091C8054FBF821B930B089596
:1049300078941F921FB61F9211248F939F93AF9369
:10494000BF938091C5059091C605A091C705B09110
:10495000C8050196A11DB11D8093C5059093C6059C
:10496000A093C705B093C805BF91AF919F918F9158
:104970001F901FBE1F90189581E08093E00080E299
:104980008093D8001092C9008FE19EE40197F1F75F
:1049900000C0000087E090EBDC018093D805909385
:1049A000D905A093DA05B093DB0588E19CE00FB64A
:1049B000F894A895809360000FBE90936000FFCF9D
:1049C0000C944C120E94AB088FE39CE90197F1F71D
:1049D00000C000000E94AB0880E00E944B0860FF0E
:1049E00004C00E94E0240C94BC2408950E948322F9
:1049F000811102C00E9427230E948E2280936704A7
:104A00000E9496229093CA058093C9050E94922223
:104A1000682F70E090E080E00E94E71F60913A0408
:104A200070913B0480913C0490913D040C942120B2
:104A30008091890408950895CF93DF9300D00F9259
:104A4000CDB7DEB79091CF05943011F589837B8384
:104A50006A839093E9008FEF9091E800815095FD73
:104A600006C095ED9A95F1F700008111F5CF809180
:104A7000E80085FF0DC050E040E063E070E0CE014B
:104A800001960E9482278091E8008E778093E8004B
:104A90000F900F900F90DF91CF910895BC0184E0AB
:104AA0000C941C25BC0183E00C941C25CF93DF9350
:104AB000EC01809123018823B1F18091C90587FF22
:104AC00032C060E284E08093E9008FEF9091E800CB
:104AD000815095FD06C095ED9A95F1F70000811182
:104AE000F5CF8091E80085FF1BC08091230170E025
:104AF00050E040E0811104C050E040E068E070E028
:104B0000CE010E9482278091E8008E778093E80092
:104B100080E2FE01A9E6B4E001900D928A95E1F7EA
:104B2000DF91CF91089568E081E0CDCFCF93FC0174
:104B3000603221F58091CF05843001F5C091E90004
:104B4000CF702091EC00922F917020FD90E8C92B3E
:104B500082E08093E9008091E80080FF0CC050E083
:104B600040E060E270E0CF010E9482278091E8007F
:104B70008E778093E800CF70C093E900CF910895BD
:104B80008091CE05811109C00E9461290E94BE2931
:104B90008091E20084608093E20008951092CE0537
:104BA0000895089508950C94392442E061EC81E061
:104BB0000E94DD2842E261EC84E00E94DD2842E2AE
:104BC00061EC82E00E94DD2842E260EC83E00C941C
:104BD000DD288091D105833009F461C030F4813043
:104BE000D1F1823009F49DC008958A3009F489C05A
:104BF0008B3009F46FC0893009F050C08091D00526
:104C0000813209F04BC08091D4059091D505009771
:104C100019F0029709F042C08091E800877F8093E5
:104C2000E8008091E80082FF35C09091F300809108
:104C3000F200029729F48091F1008B7F813021F4FA
:104C40008091F100809389048091E8008B778093B4
:104C5000E8000C9411298091D005813AF9F48091F3
:104C6000E800877F8093E8008091D4059091D50576
:104C7000892B61F460E289E694E070E00E942028CC
:104C80008091E8008B778093E800089560E090E0E1
:104C900080E0F3CF8091CF058111C3CF089580913B
:104CA000D005813AD9F78091D4059091D505892B0B
:104CB000A9F78091E800877F8093E8008091E80061
:104CC00080FFFCCF809123018093F1008091E80068
:104CD0008E77BDCF8091D005813201F78091D405C8
:104CE0009091D505892BD1F68091E800877F80933C
:104CF000E8000E9411298091D205809323010C9431
:104D00004F1C8091D005813249F68091E800877F61
:104D10008093E8000E9411298091D30580938A0432
:104D200008958091D005813A09F0B8CF8091E800CC
:104D3000877F8093E8008091E80080FFFCCF80911E
:104D40008A04C2CFCDB7DEB7A0970FB6F894DEBF06
:104D50000FBECDBF84B7877F84BF0FB6F894A895E8
:104D600080916000886180936000109260000FBEA7
:104D700080E890E00FB6F894809361009093610012
:104D80000FBE0E94D6170E9461290E94BE29809101
:104D9000E20084608093E20078940E94472C0E9495
:104DA000E21789E191E00E94721713E08091CF052C
:104DB000853059F00E94EE178091CF05843091F034
:104DC0000E94E0170E94E117F1CF0E94EE2380912C
:104DD000CD05882359F30E941F24882339F30E94AC
:104DE0006C27E4CF1093E9008091E80082FFE8CFC0
:104DF0008091E80090E085FF09C050E040E060E26B
:104E000070E0CE0101960E94D12791E08091E800E8
:104E10008B778093E800992399F260E2CE010196A6
:104E20000E940413CDCF0C941527292F332723304C
:104E3000310521F168F42130310509F443C02230F5
:104E4000310509F444C090E080E030E020E026C065
:104E50002132310551F122323105A9F76330710554
:104E600090F7FB01EE0FFF1FE553FE4F20813181CC
:104E700068537E4FFB01808190E010C099278130FC
:104E8000910581F0009729F00297E9F6E0EBF6E052
:104E900002C0E8EEF6E0849190E09F01FA013183D0
:104EA00020830895ECECF6E0F6CF6330710558F6F8
:104EB000660F771FFB01EF52FE4F2081318189E0A1
:104EC00090E0ECCF82E190E027E437E0E7CF8BE59C
:104ED00090E02CEE36E0E2CF80E189BD82E189BD31
:104EE00009B400FEFDCF8091D8008F7D8093D8005B
:104EF0008091E00082608093E0008091E00081FD7D
:104F0000FCCF0895AF92BF92CF92DF92FF920F93A2
:104F10001F93CF93DF936C01EB018A010E9430292C
:104F2000F82E811123C00115110539F0F801808197
:104F30009181C81BD90BC80ED91EB12CA12C20976A
:104F4000A9F08091E80085FD22C08091E8008E776D
:104F50008093E80001151105A1F0F801808191818D
:104F6000A80EB91EB182A08285E0F82E8F2DDF91A8
:104F7000CF911F910F91FF90DF90CF90BF90AF9096
:104F800008950E9430298823D1F2F82EEFCFF60140
:104F900081916F018093F1002197FFEFAF1ABF0A53
:104FA000CECFAF92BF92CF92DF92FF920F931F931B
:104FB000CF93DF936C01EB018A010E943029F82E18
:104FC000811123C00115110539F0F801808191810B
:104FD000C81BD90BC80ED91EB12CA12C2097A9F043
:104FE0008091E80085FD22C08091E8008B77809356
:104FF000E80001151105A1F0F80180819181A80E4A
:10500000B91EB182A08285E0F82E8F2DDF91CF915D
:105010001F910F91FF90DF90CF90BF90AF900895B8
:105020000E9430298823D1F2F82EEFCF8091F10031
:10503000F60181936F012197FFEFAF1ABF0ACECF20
:10504000FC018091D6059091D70586179707A0F0AF
:105050006115710529F49091E8009E779093E8001E
:1050600090E06115710551F4911108C08091E8003C
:1050700082FF34C080E00895BC01F2CF8091CF055B
:105080008823C1F18530C1F18091E80083FD30C0F3
:105090008091E80082FDEACF8091E80080FFE1CFB7
:1050A0008091F3002091F200382F6115710519F0FD
:1050B0002830310558F091E02830310509F090E0B2
:1050C0002091E8002E772093E800CBCF8191809348
:1050D000F100615071092F5F3F4FE7CF8091CF05FD
:1050E000882341F0853041F08091E80083FFBECFF6
:1050F00081E0089582E0089583E00895FC018091A5
:10510000D6059091D70586179707A0F06115710510
:1051100029F48091E8008E778093E80090E0611593
:10512000710551F4911108C08091E80082FF35C0EB
:1051300080E00895BC01F2CF8091CF058823C9F1AA
:105140008530C9F18091E80083FD31C08091E8008D
:1051500082FDEACF8091E80080FFE1CF8091F300EB
:105160002091F200382F6115710519F028303105B2
:1051700058F091E02830310509F090E08091E80086
:105180008E778093E800CBCF84918093F1003196A5
:10519000615071092F5F3F4FE6CF8091CF05882383
:1051A00041F0853041F08091E80083FFBDCF81E080
:1051B000089582E0089583E00895982F973028F0AD
:1051C0008F708093E90081E008959093E900242F87
:1051D000762F50E0981731F07091EC002091ED009F
:1051E0005091F00021FD02C09F5FE8CF3091EB00AD
:1051F0003E7F3093EB003091ED003D7F3093ED002A
:105200003091EB0031603093EB007093EC00209311
:10521000ED005093F0002091EE0027FDE5CF80E0F7
:1052200008958091D00587FF13C08091E80082FF28
:1052300006C08091E8008B778093E80004C08091DD
:10524000CF058111F2CF08958091CF058823D9F33E
:105250008091E80080FFF8CF8091E8008E77ECCF56
:105260002091E4003091E50095E6A9012091EC0041
:10527000822F817020FF06C08091E80080FF06C069
:1052800080E008952091E80022FD1AC08091CF05AA
:10529000882389F0853089F08091EB0085FD0FC06F
:1052A0002091E4003091E50042175307F9F2915044
:1052B000E1F684E0089582E0089583E0089581E0B6
:1052C00008950E94CF290E94D729E0EEF0E0808166
:1052D00081608083E8EDF0E080818F77808319BC66
:1052E000A7EDB0E08C918E7F8C9380818F7E808340
:1052F0001092CE0508950F931F93CF93DF930E94D2
:10530000CF290E94D729C8EDD0E088818F77888384
:1053100088818068888388818F7D888319BC1092FA
:10532000CF051092CB051092CD051092CC0500EE62
:1053300010E0F80180818B7F808388818160888381
:1053400042E060E080E00E94DD28E1EEF0E0808154
:105350008E7F8083E2EEF0E08081816080838081B7
:1053600088608083F80180818E7F8083888180615E
:105370008883DF91CF911F910F910895E8EDF0E0C0
:1053800080818F7E8083E7EDF0E080818160808383
:1053900084E082BF81E08093CE050C947B29E8ED08
:1053A000F0E080818E7F80831092E2000895109259
:1053B000DA001092E10008951F920F920FB60F923B
:1053C00011242F933F934F935F936F937F938F930A
:1053D0009F93AF93BF93EF93FF938091E10082FF80
:1053E0000BC08091E20082FF07C08091E1008B7FBB
:1053F0008093E1000E94462C8091DA0080FF19C062
:105400008091D80080FF15C08091DA008E7F809354
:10541000DA008091D90080FF96C080E189BD82E1E9
:1054200089BD09B400FEFDCF81E08093CF050E94C5
:10543000C0258091E10080FF19C08091E20080FFCB
:1054400015C08091E2008E7F8093E2008091E2009F
:1054500080618093E2008091D80080628093D800C0
:1054600019BC85E08093CF050E94D2258091E10090
:1054700084FF2BC08091E20084FF27C080E189BDBA
:1054800082E189BD89B5982F917080FFFBCF809113
:10549000D8008F7D8093D8008091E1008F7E80932B
:1054A000E1008091E2008F7E8093E2008091E20033
:1054B00081608093E2008091CB05882309F449C084
:1054C00084E08093CF050E94D3258091E10083FF83
:1054D00029C08091E20083FF25C08091E100877F91
:1054E0008093E10082E08093CF051092CB058091FC
:1054F000E1008E7F8093E1008091E2008E7F8093B7
:10550000E2008091E20080618093E20042E060E08E
:1055100080E00E94DD288091F00088608093F00098
:105520000E94D125FF91EF91BF91AF919F918F91F3
:105530007F916F915F914F913F912F910F900FBE8F
:105540000F901F90189519BC1092CF050E94CE2580
:1055500070CF8091E30087FD93E09093CF05B3CFA8
:105560001F920F920FB60F9211242F933F934F93D8
:105570005F936F937F938F939F93AF93BF93CF93DB
:10558000DF93EF93FF93D091E900DF708091EC00FF
:10559000C82FC17080FDC0E81092E9008091F00032
:1055A000877F8093F00078940E94F42A1092E9009B
:1055B0008091F00088608093F000CD2BCF70C09375
:1055C000E900FF91EF91DF91CF91BF91AF919F9152
:1055D0008F917F916F915F914F913F912F910F909C
:1055E0000FBE0F901F9018951F93CF93DF93CDB7E9
:1055F000DEB7AA970FB6F894DEBF0FBECDBF80ED21
:1056000095E02091F100FC012193CF01F5E0883D68
:105610009F07B9F70E94E9258091E80083FF1EC12A
:105620008091D0059091D1059A3008F017C1E92FEB
:10563000F0E0EC5DF14D0C94C62C803899F0823886
:1056400009F00CC18091D4058F70873008F006C135
:105650008093E9008091EB0085FB882780F9109208
:10566000E90006C08091CC059091CD059111826032
:105670009091E800977F9093E8008093F10010925A
:10568000F1008091E8008E77E5C0882309F4D3C04B
:10569000823009F0E3C08091D2058111D6C080919B
:1056A000D4058F702FEF280F263008F0D7C08093D5
:1056B000E9002091EB0020FFC8C0933031F48091C5
:1056C000EB0080628093EB00C0C09091EB00906192
:1056D0009093EB0021E030E001C0220F8A95EAF7B9
:1056E0002093EA001092EA008091EB008860EACFF4
:1056F0008111B4C01091D2051F778091E3008078AA
:10570000812B8093E3008091E800877F8093E800FD
:105710000E9411298091E80080FFFCCF8091E30076
:1057200080688093E30082E0111183E08093CF05CD
:1057300095C08058823008F091C08091D205909138
:10574000D3058C3D23E09207A1F583E08A838AE2AA
:1057500089834FB7F894DE01139620E03EE051E2D2
:10576000E32FF0E050935700E49120FF03C0E2954F
:10577000EF703F5FEF708E2F90E0EA30C0F0C79679
:105780008D939D932F5F243159F74FBF8091E8008F
:10579000877F8093E8006AE270E0CE0101960E9464
:1057A00020288091E8008B778093E80057C0C0964E
:1057B000E7CF6091D4057091D505AE014F5F5F4F83
:1057C0000E941327BC01892B09F448C09091E8007E
:1057D000977F9093E80089819A810E947E28E1CF8B
:1057E0008038E1F58091E800877F8093E800809120
:1057F000CB058093F10045CF811130C09091D20547
:10580000923060F58091E800877F8093E800909364
:10581000CB050E9411298091CB05882311F084E0EB
:1058200005C08091E30087FDFACF81E08093CF052A
:105830000E94D52513C08091D205813079F481E092
:10584000933009F080E08093CD051092E9008091BB
:10585000E800877F8093E8000E9411298091E8008A
:1058600083FF0AC08091E800877F8093E8008091E1
:10587000EB0080628093EB00AA960FB6F894DEBF2F
:105880000FBECDBFDF91CF911F9108950895CF93A3
:105890008091CF058823A1F0C091E900CF7090914D
:1058A000EC00892F817090FD80E8C82B1092E900F0
:1058B0008091E80083FD0E94F42ACF70C093E90034
:1058C000CF910895991B79E004C0991F961708F0AD
:1058D000961B881F7A95C9F78095089587FB082E37
:1058E000062687FD819567FD61950E94622C0EF466
:1058F000919507FC81950895AA1BBB1B51E107C038
:10590000AA1FBB1FA617B70710F0A61BB70B881F4F
:10591000991F5A95A9F780959095BC01CD010895DE
:1059200097FB072E16F4009407D077FD09D00E944C
:105930007C2C07FC05D03EF4909581959F4F0895EF
:10594000709561957F4F0895A1E21A2EAA1BBB1B8B
:10595000FD010DC0AA1FBB1FEE1FFF1FA217B3073B
:10596000E407F50720F0A21BB30BE40BF50B661F51
:10597000771F881F991F1A9469F760957095809515
:1059800090959B01AC01BD01CF010895EE0FFF1F63
:105990000590F491E02D09946927962769277827C7
:1059A0008727782708950E94DB2C332312F48A1B63
:1059B0009B0B0C94EC2CA29FB001B39FC001A39F42
:1059C000700D811D1124911DB29F700D811D112438
:1059D000911D08950E94DB2CB7FF0895821B930B45
:1059E00008950E94DB2CA59F900DB49F900DA49F5D
:1059F000800D911D11240895B7FF0C94F12C0E9485
:105A0000F12C821B930B08958F929F92AF92BF92BD
:105A1000CF92DF92EF92FF92CF93DF93EC016881F8
:105A200079818A819B81611571058105910521F438
:105A300064E279ED8BE597E02DE133EF41E050E052
:105A40000E94BE2D49015A019B01AC01A7EAB1E4B5
:105A50000E94F12C6B017C01ACEEB4EFA501940126
:105A60000E94FF2CDC01CB018C0D9D1DAE1DBF1DC6
:105A7000B7FF03C00197A109B04888839983AA831F
:105A8000BB839F77DF91CF91FF90EF90DF90CF9016
:105A9000BF90AF909F908F9008950E94042D08951D
:105AA00080E091E00E94042D0895B0E0A0E0809392
:105AB000000190930101A0930201B09303010895A6
:105AC000FB01DC0102C005900D9241505040D8F717
:105AD0000895FC014150504030F001900616D1F776
