:100000000C941C040C9463040C9463040C9463041B
:100010000C9463040C9463040C9463040C946304C4
:100020000C9463040C9463040C940D290C94E12942
:100030000C9494230C9463040C9463040C94630454
:100040000C9463040C9463040C9463040C94630494
:100050000C9463040C94EB230C9463040C946304DD
:100060000C9463040C9463040C9463040C94630474
:100070000C9463040C9463040C9463040C94630464
:100080000C9463040C9463040C9463040C94630454
:100090000C9463040C9463040C9463040C94630444
:1000A0000C9463040C9463040C9463042900000012
:1000B0003A003B003C003D003E003F004000410054
:1000C0004200430044004500460047004800350018
:1000D0001E001F0020002100220023002400250014
:1000E000260027002D002E002A0049004A004B0060
:1000F0002B0014001A000800150017001C0018003F
:100100000C00120013002F00300031004C004D0095
:100110004E00390004001600070009000A000B0019
:100120000D000E000F003300340028000000000016
:1001300000000000E10000001D001B000600190087
:10014000050011001000360037003800E5000000FF
:10015000000052000000E000E300E20000000000A8
:100160002C00000000000000E60001516500E400E2
:100170005000000051004F00005C00000100010031
:100180000100010001000100010001000100010067
:1001900001000100CD5CCE5CCF5C010001000100DC
:1001A0000100010001000100010001000100010047
:1001B000010001000100C55CC75CC95C01000100D1
:1001C0000100010001000100010001000100010027
:1001D0000100010001000100C65CC85CCA5C0100AE
:1001E0000100010001000100010001000100010007
:1001F00001000100010001000000000000000000FB
:100200000100000001000100010001000100145C78
:100210000100010001000100010000000000CC5CB1
:1002200000000100010001000000000001000000CA
:10023000000000000100010001000100C45C00009A
:10024000C25CC35C0100000001000100010001006C
:100250000100010001000100010001000100010096
:100260000100010001000100010001000100010086
:100270000100010001000100010001000100010076
:100280000100010001000100010001000100010066
:100290000100010001000100010001000100010056
:1002A0000100010001000100010001000100010046
:1002B0000100010001000100010001000100010036
:1002C000010001000000000000000000010000002B
:1002D0000100010001000100010001000100010016
:1002E0000100010001000000000001000000010009
:1002F00001000100000000000100000000000000FB
:1003000001000100010001000100000001000100E6
:1003100001000000010001000100010001000100D6
:1003200001000100010001000100010001000100C5
:1003300001000100010001000100010001000100B5
:1003400001000100010001000100010001000100A5
:100350000100010001000100010001000100010095
:100360000100010001000100010001000100010085
:100370000100010001000100010001000100010075
:100380000100010001000100010001000100010065
:10039000000000000000000001000000010001005A
:1003A0000100010001000100010001000100010045
:1003B0000100000000000100000001000100010038
:1003C000000000000100000000000000010001002A
:1003D0000100010001000000010001000000000018
:1003E000000000002A2B2800000000000000000090
:1003F0000000000000000029000000002C1E342036
:10040000212224342627252E362D3738271E1F205B
:100410002122232425263333362E37381F040506A0
:100420000708090A0B0C0D0E0F10111213141516E4
:100430001718191A1B1C1D2F3130232D35040506E2
:100440000708090A0B0C0D0E0F10111213141516C4
:100450001718191A1B1C1D2F3130354C00000000D5
:10046000000000000000000000000000000000008C
:10047000000000000000000000000000000000007C
:100480007E0F00D4FFFFFFC7000000781E0F05009D
:10049000047F3F1F643214643214783C1E1E140A19
:1004A000052223252628292A2C2D2F3032333536B4
:1004B000383A3B3D3E4042434547494A4C4E5051F5
:1004C000535557595A5C5E6062646668696B6D6F1C
:1004D00071737577797B7D7F81838587898A8C8E1F
:1004E00090929496989A9C9E9FA1A3A5A7A8AAAC27
:1004F000AEAFB1B3B4B6B8B9BBBCBEBFC1C2C3C561
:10050000C6C7C9CACBCCCDCED0D1D2D2D3D4D5D602
:10051000D7D7D8D9D9DADADBDBDBDCDCDCDCDCDD35
:10052000DDDDDDDCDCDCDCDCDBDBDBDADAD9D9D819
:10053000D7D7D6D5D4D3D2D2D1D0CECDCCCBCAC9B1
:10054000C7C6C5C3C2C1BFBEBCBBB9B8B6B4B3B1E0
:10055000AFAEACAAA8A7A5A3A19F9E9C9A9896947B
:1005600092908E8C8A89878583817F7D7B79777550
:1005700073716F6D6B6968666462605E5C5A59572F
:10058000555351504E4C4A4947454342403E3D3BEE
:100590003A3836353332302F2D2C2A292826252378
:1005A00022FFAA7F55400001010101010101010163
:1005B0000202020202020202020303030303030314
:1005C00003040404040404040505050505060606E1
:1005D0000606070707070708080808090909090A9E
:1005E0000A0A0B0B0B0C0C0C0D0D0D0E0E0E0F0F43
:1005F0000F101011111112121313141415151616D1
:100600001717181819191A1A1B1B1C1D1D1E1E1F3F
:100610002020212222232424252626272829292A8E
:100620002B2C2D2D2E2F30313232333435363738B6
:10063000393A3B3C3D3E3F404142434445464748B2
:10064000494A4C4D4E4F50515354555658595A5B88
:100650005D5E5F616264656668696B6C6D6F707228
:10066000737577787A7B7D7E8082838587888A8C94
:100670008E8F91939596989A9C9EA0A2A3A5A7A9C8
:10068000ABADAFB1B3B5B7BABCBEC0C2C4C6C9CBBF
:10069000CDCFD1D4D6D8DBDDDFE2E4E7E9EBEEF075
:1006A000F3F5F8FAFDFF3403630061007000730096
:1006B00075006E006C006F0063006B0065006400E5
:1006C0002F0063007500380030002F0076003200E4
:1006D0005F0061006E007300690000001A034300B0
:1006E00061007000730055006E006C006F006300C5
:1006F0006B006500640000000403090409025B004C
:10070000030100A0FA09040000010301010009210E
:10071000110100012240000705810308000A0904B5
:100720000100020300000009211101000122220042
:1007300007058203200001070503032000010904C7
:1007400002000103000000092111010001226D00D7
:100750000705840320000A1201100100000008555B
:100760004381000100010200010660FF0961A1014F
:100770000962150026FF009520750881020963159E
:100780000026FF00952075089102C005010980A18F
:1007900001850319012AB700150126B700950175D7
:1007A000108100C0050C0901A101850419012AA0CE
:1007B00002150126A002950175108100C0050109EE
:1007C00006A1018505050719E029E7150025019512
:1007D00008750181020507190029EF15002501950B
:1007E000F07501810205081901290595057501912A
:1007F00002950175039101C005010906A1010507D4
:1008000019E029E715002501950875018102950178
:10081000750881010507190029FF150026FF0095BD
:1008200006750881000508190129059505750191CE
:1008300002950175039101C011241FBECFEFDAE0CC
:10084000DEBFCDBF04B603FE27C08091DF059091C7
:10085000E005A091E105B091E2058730904BA740FB
:10086000B04BD1F41092DF051092E0051092E10533
:100870001092E20514BE84B7877F84BF0FB6F89448
:10088000A89580916000886180936000109260005C
:100890000FBEE0E0F8E3099511E0A0E0B1E0ECEA7A
:1008A000FAE502C005900D92A83DB107D9F725E001
:1008B000A8EDB1E001C01D92AF3DB207E1F70E9483
:1008C000FA250C94052D0C94000081E0089581E038
:1008D00008950C94670408950C946B041F93CF93B0
:1008E000DF9300D000D00F92CDB7DEB749835A8393
:1008F0006B833091C70389819A8131111DC06623B2
:10090000B9F02223A9F00E94D620182F682F8981E0
:100910009A810E94822069817A81812F0F900F90A5
:100920000F900F900F90DF91CF911F910C940D14A9
:100930000E94AE20182FEFCF0E94D62069817A81C5
:10094000EDCFFC01262F408151816281738184812A
:100950000C946E04CF93DF93EC0160E00E94A1043D
:10096000BE01DF91CF910C946C048F929F92AF9255
:10097000BF92CF92DF92EF92FF920F931F936B0182
:100980007C0181E090E0A0E0B0E04C015D0104C09A
:10099000880C991CAA1CBB1C4A95D2F7B501A4016E
:1009A0004C015D0104C0880C991CAA1CBB1C2A9533
:1009B000D2F7482959296A297B2904C0880F991F31
:1009C000AA1FBB1F0A95D2F78A019B010C211D218A
:1009D0002E213F21041715072607370789F48C2994
:1009E0009D29AE29BF29BC01CD011F910F91FF9018
:1009F000EF90DF90CF90BF90AF909F908F90089531
:100A000080959095A095B0958C219D21AE21BF2118
:100A1000EACF0F93382F262F609141047091420442
:100A20008091430490914404042F432F0E94B50405
:100A30000F910C94C01F0E943A240E94222281111F
:100A400002C00E94C6220C9452080C9455080895C6
:100A50000E94EC1B0E9427052FEF84E39CE02150AD
:100A600080409040E1F700C000000C940F240F93E9
:100A70001F93CF93DF93EC0161E00E94A1048C01EE
:100A8000BE010E94F311882389F1BE01C8010E94B2
:100A90006904882359F1BE01C8010E9442158823C8
:100AA00029F1BE01C8010E9494158823F9F0BE0106
:100AB000C8010E94B7168823C9F0BE01C8010E9470
:100AC0000011882399F08A81882339F001158CE57B
:100AD000180751F00E3D1C4579F0CE01DF91CF9102
:100AE0001F910F910C9465040E94280580E0DF910E
:100AF000CF911F910F9108950E94C622F7CFDF92E8
:100B0000EF92FF920F931F93CF93DF93E82FF0E0C4
:100B1000E452FC4FD490282F26952695269530E058
:100B2000F901E458FB4F0491877010E0082E02C0D1
:100B3000159507950A94E2F701701127F901E45918
:100B4000FB4FE490F12C082E02C0F594E7940A9430
:100B5000E2F791E0E922FF24F901E45AFB4FC49146
:100B6000D0E002C0D595C7958A95E2F7C170DD2720
:100B70000115110519F081EE0E948A18E114F104A3
:100B800019F086EE0E948A188D2D0E947A19EF289E
:100B900019F086EE0E941419012B19F081EE0E94C3
:100BA0001419CD2B51F08CE2DF91CF911F910F9151
:100BB000FF90EF90DF900C947A19DF91CF911F9105
:100BC0000F91FF90EF90DF900895EF92FF920F93B7
:100BD0001F93CF93DF93EC01162F0AE088818823BF
:100BE00009F454C0813009F04EC08981813099F4F4
:100BF0007E0122E0E20EF11C8A810E947A19E7014F
:100C00002196812F815050F3EFE9FFE03197F1F702
:100C100000C00000F7CF823041F47E0182E0E80E90
:100C2000F11C8A810E948A18EACF833041F47E0148
:100C3000E2E0EE0EF11C8A810E941419E0CF8430AC
:100C400011F02196DDCF2A81229690E080E0AE015E
:100C50004F5F5F4F2053330B2A30310548F0019727
:100C600078F2EFE9FFE03197F1F700C00000F7CF2D
:100C7000089FB001099F700D1124C901860F971FAD
:100C80002981EA01E4CF0E947F05BACFDF91CF919D
:100C90001F910F91FF90EF90089560E00C94E5058F
:100CA00008950C94500681E008950C945306CF9358
:100CB000C82F0E9451068C2FCF910C94550690E0BE
:100CC00080E008950895FC01EE0FFF1FE457FB4FED
:100CD000859194910895CF93DF930E940D140E9403
:100CE0007707EC01811520E5920708F041C08115D6
:100CF00030E4930708F0B4C0803E910518F5803CBD
:100D0000910508F09DC0883A910570F4853A9105E7
:100D100008F08EC081309105F9F00097E9F0049752
:100D2000D8F4D0E0C0E018C08F3B9105D0F7C85A86
:100D3000D0E0CC0FDD1FCC5DDE4F0990D881C02DF7
:100D4000D4640AC08115904258F4C11581E0D807D7
:100D500018F4C83ED10528F7CE01DF91CF91089550
:100D6000C11590E3D90708F071C0CE019F706AC029
:100D7000811525E5920758F5811534E5930708F0AC
:100D80009EC0811542E5940750F4C11581E5D8074E
:100D900008F469C0DC2FCC27C16FD06ADDCF982F53
:100DA000969596959E0123703327C115D34508F07B
:100DB00077C0C1E0D0E002C0CC0FDD1F2A95E2F77A
:100DC00020E2929FC0011124C82BD92B67C0C11506
:100DD00089E5D807A8F4C11598E5D90708F074C0CB
:100DE000C11526E5D20708F09CCF8C2F0E940E0873
:100DF000C82FD0E0DC2FCC27CC27DF71D062ACCF5E
:100E0000C1153AE5D30708F464C0CE0190568115A8
:100E1000904208F086CF8D2F8F710E940E0890E0CF
:100E2000982F882788279F719C012C2BE901E6CFFA
:100E3000C55AD0E0CE5ADE4FC881D0E0D0648CCF06
:100E4000805C91090E946306EC0186CFCE01992750
:100E5000D3FF03C0EC01D86C7FCFEC01D06C7CCF0A
:100E6000DF70D06A79CFCE01E4E096958795EA9558
:100E7000E1F783702C2F26952695237090E2299F09
:100E800090011124382B8C2F8370C1E0D0E002C078
:100E9000CC0FDD1F8A95E2F7C22BD32BDC685CCF29
:100EA000C1E0D0E002C0CC0FDD1F2A95E2F730E2AE
:100EB000939FC0011124C82BD92BDA684DCFD82FAE
:100EC000CC27C46FD06A48CFDC2FCC27C06FD06A44
:100ED00043CF8C2F8F700E940E0834E0D695C795B3
:100EE0003A95E1F7CF709C2FEC01D06935CF82386D
:100EF0009105B1F1B0F48133910509F475C048F45E
:100F00008932910509F469C08A32910509F473C0E8
:100F100008958533910509F459C08933910501F18C
:100F20000895833E9105A9F138F4803E9105F9F0CA
:100F3000823E910549F10895863E9105A9F1873ECB
:100F40009105C9F1843E910519F52091D10521FF44
:100F50001FC08091D00584FD14C087EE90E00895F5
:100F60002091D0052370A1F080EE90E008952091AB
:100F7000D00520FD47C03091D10530FF09C024FFC6
:100F800044C090E080E004C02091D00522FDF7CF5E
:100F900008952091D00522FD3BC03091D10530FD50
:100FA000E3CF24FFF5CFEDCF2091D00523FFF0CF85
:100FB00024FDE7CFD2CF2091D00523FD2CC0309166
:100FC000D10531FFEECF84EE90E008952091D00559
:100FD00025FFDECF89E290E008952091D00525FF1E
:100FE000D7CF85E390E008952091D00526FFD0CF9C
:100FF0008AE290E008952091D00526FFC9CF81E3D1
:1010000090E0089589E390E0089583EE90E00895DC
:1010100082EE90E0089586EE90E008959091D005DC
:1010200092FF06C0282F28712830F9F4877F84604A
:1010300093FF06C0282F28712831F1F4877E846140
:101040002091D10520FF06C0382F38713830D9F4EF
:10105000877F816021FF06C0282F28712831D1F4B5
:10106000877E816194FD877E0895282F2471243026
:10107000F9F68B7F8860DCCF282F2471243101F7AB
:101080008B7E8861DDCF382F3171313019F78E7F3B
:101090008860E0CF282F2171213121F78E7E886171
:1010A000E1CF08950C94510808950C94540894E0ED
:1010B000899FF0011124E655FB4F60817181828187
:1010C00093810895089580EA8A95F1F7089500C004
:1010D00008950C946308F894E82FE295EF70F0E01F
:1010E00031A1282F2F7081E090E001C0880F2A9550
:1010F000EAF7982F9095932391A392A1892B82A32D
:10110000789408950F931F93CF93DF9383E90E9400
:101110006B0882E90E946B0887E30E946B0881EFED
:101120000E946B0887E60E946B0885E90E946B08A5
:10113000C5E5D1E006E611E089910E946B080C1725
:101140001D07D1F7E2E9F4E0AAEAB4E011921192A6
:10115000119211921D921D921D921D9284E0EA3A05
:10116000F807A1F786E00E945E09DF91CF911F91F9
:101170000F910C941B054F925F926F927F928F920A
:101180009F92AF92BF92CF92DF92EF92FF920F9316
:101190001F93CF93DF9336E6A32E31E0B32E02E9FF
:1011A00014E0D0E0C0E088248394912CF501819173
:1011B0005F01F894E82FE295EF70F0E021A18F70C5
:1011C000240102C0440C551C8A95E2F7C201922FFB
:1011D000982B91A392A18095892382A378940E9451
:1011E0006708A5E5B1E090E080E0C12CD12C760144
:1011F0004D91E42FE295EF70F0E020A130E04F70C8
:1012000002C0359527954A95E2F720FD51C0412C43
:10121000512C32014394082E04C0440C551C661C0A
:10122000771C0A94D2F7B301A201C42AD52AE62A70
:10123000F72A019681319105D9F6F5013197808120
:101240000E946B08D53011F00E946908F801808176
:101250009181A281B381C816D906EA06FB0661F125
:10126000C082D182E282F38281E0C82BDF5F0C5F13
:101270001F4FD63009F09ACF2C2F46E06AEA74E06F
:1012800082E994E00E945F090E9425058C2FDF917E
:10129000CF911F910F91FF90EF90DF90CF90BF9073
:1012A000AF909F908F907F906F905F904F90089538
:1012B00040E050E0BA01B9CF80E0D7CF0895FF9267
:1012C0000F931F93CF93DF93F82ED92F8B01C42F49
:1012D000222349F081E08093DC010E94C423909393
:1012E000DB018093DA018091DC01882399F0809101
:1012F000DA019091DB010E94DC23069758F0EF2D74
:10130000FD2FD80190E080E0D0E08C179D0744F0DD
:101310001092DC01DF91CF911F910F91FF90089502
:1013200001911191219131910D931D932D933D9335
:101330000196EBCFEF92FF920F931F93CF93DF9322
:10134000EB01E82FD11110C0442321F0F0E0EA5561
:10135000FA4FE4916E2F7E2F8E2FDF91CF911F9148
:101360000F91FF90EF9008950D2F10E0282F30E09F
:10137000442329F02A553A4FF901249130E0F6E050
:10138000CF9FC0011124EFEFF0E0BF010E94AD2B11
:10139000AB018C2F90E0880F991FA5E5A49FB001A9
:1013A000A59F700D1124861B970B982F990F980FEE
:1013B000BF01601B710B629FD001639FB00D729FD4
:1013C000B00D11248B2F9D9FB0011124672F77271B
:1013D000EF01C61BD70BBE01629FE001639FD00DDA
:1013E000729FD00D11247F01E91AF108E09EB0012F
:1013F000E19E700DF09E700D1124672F7727E61B7C
:10140000F70BE29F8001E39F100DF29F100D112456
:10141000E12F722F4230510599F048F441155105E2
:1014200069F04130510581F0EB2F8D2F07C044301A
:10143000510569F080F046305105B1F76E2F8DCF20
:10144000E22F7B2F812FFACFE22F7D2FF7CFEB2FCB
:10145000822F712FF3CF7B2F822FED2FEFCF41E023
:101460000C949A0908950C942F0ACF93DF93762F4A
:10147000E901682F842F0E94330A798368838A8365
:10148000DF91CF910895433308F042E30C94350A7D
:101490008091C204982F9E7F61F481708260809356
:1014A000C2048091C504833318F082E38093C5049D
:1014B00008958635B0F381708465F1CF88E090E0BF
:1014C0000C94A62CCF92DF92EF92FF926B017C01DD
:1014D0000E94480AB701A60188E090E0FF90EF90D3
:1014E000DF90CF900C94C42C6091C2047091C3041F
:1014F0008091C4049091C5040C94620AE2ECF4E07B
:1015000083E0808311828FEF828382E3838314825E
:1015100060817181828193810C94620A8091C204FE
:1015200080FF02C08695089580E008959091C604DA
:10153000933018F49F5F9093C604882351F0609114
:10154000C2047091C3048091C4049091C5040C94AA
:10155000620A089581E00C94960A9091C60499233A
:1015600019F091509093C604882351F06091C20401
:101570007091C3048091C4049091C5040C94620AD4
:10158000089581E00C94AD0A8091C604089580937B
:10159000C604662351F06091C2047091C304809127
:1015A000C4049091C5040C94620A089560E00C9400
:1015B000C70A8091C30408958091C404089580915E
:1015C000C504089570E00C94701160910801809139
:1015D000C20480FF0AC08091070123E0829FC001FE
:1015E000112489539B4F0C94E20A80910901909138
:1015F0000A0123E0829FF0011124E953FB4F891770
:1016000050F71182108212828F5F3396F8CF90913B
:10161000C20490FF14C09091090120910A0133E0A7
:10162000939FF0011124E953FB4F921710F00C9493
:10163000E50A8183608342839F5F3396F6CF0895E6
:10164000CF93DF9300D00F92CDB7DEB79091C20455
:1016500090FF0AC09E012F5F3F4F0E94430A4B81BB
:1016600069818A810E94070B0F900F900F90DF9184
:10167000CF910895CF93DF93EC01EC81F0E0EF552B
:10168000FB4F4491E2ECF4E0628181810E94200BE7
:101690008C818F5F8C83DF91CF910895CF93DF93FF
:1016A000EC01E2ECF4E0438162818C810E94200B2A
:1016B0008C818F5F8C83DF91CF9108950F931F935F
:1016C000CF93DF9300D00F92CDB7DEB78C0180911E
:1016D000DD0181110AC09E012F5F3F4F42E36FEF92
:1016E0000E94430A8A818093DD01F80164816130A0
:1016F00069F08091DD0140E0662361F040E06230F6
:1017000011F44091DD0180E060E004C06091DD01F2
:1017100040E080E00E94070BF801848190E0019690
:1017200063E070E00E94C12B84830F900F900F90B4
:10173000DF91CF911F910F910895AF92BF92CF92F9
:10174000DF92EF92FF920F931F93CF93DF9300D01E
:101750000F92CDB7DEB7182FF62E042FE22E909100
:10176000C20490FF29C0E92FE695AE2FB0E0A4593E
:10177000BE4F8C9180939A039E7F923059F59E01C3
:101780002F5F3F4F812F0E94430A4B8169818A81DD
:101790000E94070B1093C304F092C4040093C50485
:1017A000EE2051F06091C2047091C3048091C40492
:1017B0009091C5040E94620A0F900F900F90DF91E4
:1017C000CF911F910F91FF90EF90DF90CF90BF903E
:1017D000AF900895823019F40091C504DBCF8630B4
:1017E00019F41091C304D6CF8930D9F3893191F619
:1017F000E9518E2F8170D82EE695F0E0EF55FA4F23
:10180000A590B490C12CBB2460910B01C61618F0B2
:101810000E94E50ABFCF2C2D30E0A29EC001A39EFE
:10182000900DB29E900D112470E00E94AD2B812F7F
:10183000D11013C0860F40910901420F532F511D43
:101840009A01220F331F240F351F29533B4F402F7E
:101850006F2D0E94430AC394D7CF861BECCFE2ECD6
:10186000F4E09181282F4381628188E0890F0C94F4
:101870009D0B81E00C942F0CE2ECF4E09181282F79
:101880004381628188EF890F0C949D0B81E00C9459
:101890003C0CE2ECF4E0628128E0620F08F46FEFA8
:1018A000282F438181810C949D0B81E00C94490C7D
:1018B000E2ECF4E0628128E0621B08F460E0282F8B
:1018C000438181810C949D0B81E00C94580CE2ECD7
:1018D000F4E0438128E0420F08F44FEF282F6281A3
:1018E00081810C949D0B81E00C94670CE2ECF4E098
:1018F000438128E0421B08F440E0282F6281818167
:101900000C949D0B81E00C94760C20E00C949D0BC4
:10191000EF92FF921F93CF93DF93EC0110E0EE2440
:10192000EA94F12C60910B01161770F00E94E50A01
:101930009A818C8190FF27C08F5F8C83DF91CF913C
:101940001F91FF90EF90089520910901422F410FC0
:101950005527551FCA019A01220F331F280F391F1F
:1019600029533B4F70E0C7010E94C12B962F8C81F9
:101970004091C5046091C404199F800D11240E94F8
:10198000430A1F5FCFCF8150D8CFAF92BF92CF9283
:10199000DF92EF92FF920F931F93CF93DF93FC019F
:1019A00082810FEF80FF01E010E047E5A42E8091D7
:1019B0000B011817C8F00E94E50A8091DF01013081
:1019C00009F055C0811102C080910B0181508093B4
:1019D000DF01DF91CF911F910F91FF90EF90DF908A
:1019E000CF90BF90AF900895C0910901C12ED12C26
:1019F000CC0DDD2DD11DCE01880F991FC80FD91F29
:101A0000C953DB4F198218821A8234E0E32EF12C7D
:101A1000B12C8091DF018B0D88351CF16A2D0E945D
:101A20009F2B892F082E000C990BC816D90691F40C
:101A30008091C5048E9DA0018F9D500D1124559558
:101A40004795559547959E016091C4048091C304C4
:101A50000E94430AB00EF1E0EF1AF108D1F61F5FC1
:101A6000A6CF87FFDFCF90910B01890FDBCF90E0EE
:101A7000019660910B0170E00E94C12BA8CF0F93DB
:101A80001F93CF93DF938091090190910A0123E086
:101A9000829FF0011124E953FB4F891740F1C0E008
:101AA000D3E060910B01C61740F10E94E50A209136
:101AB00005018091DE01820F8093DE019091060185
:101AC000920F90930601191654F4082E000C990BEE
:101AD00040910B014150550B841795071CF021953F
:101AE00020930501DF91CF911F910F9108951182ED
:101AF000108212828F5F3396D0CF0C2F10E070E0EF
:101B0000C8010E94C12B20910901820F482F50E08B
:101B10002091DE01022E000C330B02171307BCF0DC
:101B200020910601022E000C330B201731077CF0A8
:101B30008D9F9001112429533B4F4091C504609122
:101B4000C4048091C3040E94430ACF5FAACFFA0164
:101B5000EE0FFF1FE40FF51FE953FB4F11821082B8
:101B60001282F3CF8F929F92AF92BF92CF92DF9269
:101B7000EF92FF920F931F93CF93DF93EC014C8171
:101B8000042F10E09801D8010E940C2C9B01AC019D
:101B90000E94222C4B015C01E0E2F0E0E01BF10B23
:101BA000A5E5B0E0AC019B010E94222C6B017C01F9
:101BB0009F01DF010E94042C9B01AC010E942D2C8F
:101BC0009B01AC01280D391D4A1D5B1DC701B601E3
:101BD0000E94D52BF22E822F90E039E23F1560F162
:101BE00043E0249F9001112435952795122F1095DD
:101BF00000E085E5E82EEF1880910B01081758F1F9
:101C00000E94E50A9C8181E0992319F0903219F431
:101C10008FEF8093040180910401890F8C83DF9101
:101C2000CF911F910F91FF90EF90DF90CF90BF90D9
:101C3000AF909F908F90089525E530E0B901681B23
:101C4000790B9B01220F331F260F371F37FFCCCF95
:101C50002F5F3F4FC9CF8E2D01FD8F2D20910901A0
:101C6000622F600F7727771F9B01220F331F260FEC
:101C7000371F29533B4F412F6091C4040E94430AF0
:101C80000F5FBACF0F931F93CF93DF93EC0110E058
:101C900000E090910B019017110609F06CF40E947E
:101CA000E50A8C8190E00196817099278C83DF9101
:101CB000CF911F910F91089520910901A801420F22
:101CC000511D9A01220F331F240F351F29533B4FFB
:101CD0004C816091C4048091C304969590171106BD
:101CE00051F04CF0442349F04091C5040E94430A4E
:101CF0000F5F1F4FCECF4423B9F340E0F7CF4F9291
:101D00005F926F927F928F929F92AF92BF92CF928B
:101D1000DF92EF92FF920F931F93CF93DF93FC011B
:101D20006280448081E08483E1EAF4E07490E0E240
:101D3000F5E0E491812C75E0972EF2E0CF2EDD24C2
:101D4000D394AA24AA94B12C55245A94E7190E2F9F
:101D500010E080910B01881690F0DF91CF911F91D8
:101D60000F91FF90EF90DF90CF90BF90AF909F903A
:101D70008F907F906F905F904F900C94E50AE82CC5
:101D8000F12C82E0861568F09E9CF0019F9CF00D7E
:101D90001124E052FE4F8091C30480838091C404DB
:101DA0008183411023C09E9CF0019F9CF00D112463
:101DB000E052FE4F1382128220910901C701820F67
:101DC000911D9C01220F331F280F391F29533B4FB0
:101DD0009E9CF0019F9CF00D1124E052FE4F428129
:101DE000618180810E94430A8394B3CF9E9CE0016D
:101DF0009F9CD00D1124C052DE4F8B818823E9F0C7
:101E000081508B83859DC00111246C8170E00E94FC
:101E1000AD2BFB01FF27EF55FB4F8491E82FE7190E
:101E2000E59DC0011124B8010E94AD2B8091C5042D
:101E3000689FB00111247A83BFCF0E94812C20912A
:101E4000C504269521582C9DA0012D9D500D1124CF
:101E5000452F5527841795070CF0AECF82E08615E5
:101E600088F40E94812CB5010E94C12B88830E94B6
:101E7000812C2091C4042695622F70E00E94C12B12
:101E8000280F29839E9CF0019F9CF00D1124E052A5
:101E9000FE4F12828091C504893C58F088EC9E9CCC
:101EA000F0019F9CF00D1124E052FE4F8483838348
:101EB00083CF8431A0F784E1F2CFE2ECF4E08081BB
:101EC0008E7F808360817181828193810E94620A0A
:101ED00010929B032FEF80E792E0215080409040CA
:101EE000E1F700C000000C94E50AE2ECF4E0808128
:101EF0008E7F808310929B032FEF80E792E021502A
:101F000080409040E1F700C000000C94E50A609129
:101F1000C204669570E04BE050E08CE091E00E94D6
:101F2000912C892B19F481E080939B030E94C42398
:101F3000909394038093930308959091C20490FF2B
:101F400035C09170811128C092609093C2046623BD
:101F500051F06091C2047091C3048091C4049091C7
:101F6000C5040E94620A6091C204669570E04BE06D
:101F700050E08CE091E00E94912C892BA1F010920E
:101F80009B0381E0809396034091C5046091C40453
:101F90008091C3040C94850C8B3210F09465D5CFDE
:101FA000880F982BD2CF0E94870FEBCF0895682F10
:101FB0009091C204969581E0890F8B3208F081E000
:101FC0000C949D0F81E00C94D70F682F9091C20460
:101FD00096958FEF890F09F48AE20C949D0F81E0AA
:101FE0000C94E50F61E00C949D0FE2ECF4E080812D
:101FF0008160808386950C94F20F8091C20480FDED
:102000000C945D0F0C94F50F60E00C949D0F809183
:10201000990381112EC00E942222811104C00E94C6
:10202000C6220E947E0A0E945E0A6093C2047093D8
:10203000C3048093C4049093C5046E7F61F40E942E
:102040007E0A0E945E0A6093C2047093C304809368
:10205000C4049093C5040E94480A10929B03809187
:10206000C20480FF03C086950E94041081E0809323
:1020700099030895E2ECF4E0808181608083869585
:102080000C9404100F931F93CF93DF9380919B03C5
:10209000882309F496C080919A03E091C204E695E2
:1020A000E81BE0939503823091F5F0E0E356FB4F97
:1020B000E491CE2FD0E00AE31BE0809196038823C1
:1020C00061F0109296030E94C4239093940380932E
:1020D000930310929803109297030E94C423E091F7
:1020E0009303F09194038E1B9F0B8F3F9F4708F043
:1020F00068C0EC0FFD1FF0939403E093930383E912
:1021000093E0F801DF91CF911F910F9109948630F0
:1021100049F4F0E0E656FB4FE491CE2FD0E00EE418
:102120001BE0CBCF893051F4E695F0E0E956FB4F48
:10213000E491CE2FD0E008E81CE0BFCF8F3051F4FF
:10214000E695F0E0EC56FB4FE491CE2FD0E005ECA5
:102150001CE0B3CF853149F4F0E0EF56FB4FE4913A
:10216000CE2FD0E00FE31DE0A8CFC8E2D0E002EB15
:102170001DE0883109F4A1CF833239F4EFE8F4E0AF
:10218000C591D4910EE51BE098CFC4EFD1E002E4F5
:102190001EE0843209F491CFC0EDD7E002E31AE0EB
:1021A000853209F08ACF8E2F63E00E94932BE92FAE
:1021B000F0E0E457FB4FE491CE2FD0E00FE71EE0B4
:1021C0007CCFDF91CF911F910F910895FA0181117A
:1021D00001C0FB010994CF93DF93C82FD62F0E9433
:1021E0008E0A8C1740F00E948E0A8D1720F4DF9122
:1021F000CF910C94E20F8C2FDF91CF910C94F20FC2
:102200000F931F93CF938C01FB01C281CC2309F460
:1022100065C00E946B218272F801E25CFC45E431EA
:10222000F10538F4E95FF24D0C94F72B0E94FD0F95
:10223000C0E08C2FCF911F910F9108954FEE5FE07A
:1022400062EE7FE00E94E610F3CF42EE5FE06FEEB9
:102250007FE0F8CF46E45CE069E37CE0F3CF49E35C
:102260005CE066E47CE0EECF44E65CE065E57CE0C3
:10227000E9CF45E55CE064E67CE0E4CF42E85CE081
:1022800063E77CE0DFCF43E75CE062E87CE0DACF45
:1022900041EC5AE06AEA7AE0D5CF4AEA5AE061ECCA
:1022A0007AE0D0CF81E00E94F20FC2CF65E082E0F9
:1022B0000E94EB10BDCF68E086E0FACF6EE089E0C7
:1022C000F7CF64E18FE0F4CF67E185E1F1CF88E1FA
:1022D000EACF62E289E1ECCF83E2E5CFC1E0A9CFAA
:1022E0006E9A4EB14F7B5EB15064EFB7F8949B018C
:1022F000220F331F260F371F280F391F28173907C2
:1023000041F4EFBF8FE594E00197F1F700C00000C2
:102310000895DC016D91CD0178E05EB9000000C048
:1023200067FF4EB9660F000000C000C000C04EB984
:1023300000C07A9591F7E2CF82E290E00E949E2C55
:10234000813289F483E290E00E949E2C843059F41B
:1023500084E290E00E949E2C91E0893109F090E0A7
:10236000892F8170089580E0FCCFCF93C82F6FEF45
:10237000811161E282E290E00E94B22C6FEFC11104
:1023800064E083E290E00E94B22C6FEFC11169E13A
:1023900084E290E0CF910C94B22C80E00E94B511C1
:1023A0000C941C22089585E290E00E949E2C682FD8
:1023B00070E090E080E0089585E290E00C94B22C0B
:1023C0000E94D2110E949C1181110CC060E070E04B
:1023D000CB010E94DC110E9485130E946F1481E0E2
:1023E0000C94B5110895CF93FB01C281CC2309F160
:1023F0009C0122513F452031310520F582510E9438
:102400007F14C0E08C2FCF91089581E00E94E61FD9
:1024100043E062E081E00E940905F3CF81E00E9481
:10242000072043E062E081E00E940905EBCF82E0F3
:10243000F6CF8031FFE59F0789F381319F45B9F3DE
:10244000C1E0E0CF8031EFE59E07F9F281319F4591
:10245000C9F682E0DBCF2FEFFC0120830895CF93F4
:10246000DF93EC0188818138A9F028F4803871F07D
:10247000DF91CF910895823881F08338C9F70E94A7
:10248000D90A89830E94DC0A8A83F2CF0E94DF0A7C
:102490008983EECF0E948E0AFBCF0E94C40AF8CF38
:1024A000CF93DF93EC0188818138E1F028F4803804
:1024B00069F0DF91CF910895823811F18338C9F71F
:1024C0000E94DF0A482F6A81898108C0D9810E9451
:1024D000DC0AC82F0E94D90A4D2F6C2FDF91CF91B3
:1024E0000C94850C89810E9404108981811104C09B
:1024F000DF91CF910C94750FDF91CF910C943A102E
:102500008981DF91CF910C94D60AEF92FF920F93BD
:102510001F93CF93DF93EC01E62EDC01ED91CD010B
:10252000E150E33108F0AEC0F0E0E55EF24D0C940E
:10253000F72B198289E08A836E2DCE01DF91CF912E
:102540001F910F91FF90EF900C94EE2489818230BF
:1025500069F0833071F08130E1F40E94D0230E9451
:10256000FD2B6A837B838C839D83E6CF0E94D311EE
:10257000F6CF8E01F12C8F2D0E945708F80182832F
:1025800073836483F3940D5F1F4FF6E0FF12F3CF64
:10259000D3CF6E2DCE010E942B12CECF89818230F7
:1025A000C1F76A817B818C819D810E94FD2B0E94F5
:1025B000DC11C2CF4B816A8189810E945713982711
:1025C000892798279D838C83B7CF2C813D81322723
:1025D000232732274B816A8189810E947013ACCFF7
:1025E0000E948513A9CF0E945012A6CF0E942F12DD
:1025F000A3CF0E94740AA0CF0E941A1489839CCF93
:102600000E941C149827892798279A83898394CF3E
:102610006B8170E089819A81AE014C5F5F4F982792
:10262000892798270E941F1487CF6B8170E08981CA
:102630009A81AE014C5F5F4F9827892798270E94A7
:1026400045147ACF0E946F1477CF0E944513D6CFDE
:102650006B8170E089819A81AE014C5F5F4F982752
:10266000892798270E94BD1367CF6B8170E089810D
:102670009A81AE014C5F5F4F9827892798270E9467
:10268000E3135ACF8FEF888357CF84E0089550E04B
:10269000440F551F92E2699F400D511D11249CEC7F
:1026A000899F400D511D1124CA01869608950F93EC
:1026B0001F93CF93DF930E9447138C010E949E2C9F
:1026C000C82FD0E0DC2FCC27C80101960E949E2C99
:1026D0009E01282BC901DF91CF911F910F91089581
:1026E0000F931F93CF93DF93122F032F0E94471353
:1026F000EC01602F0E94B22C612FCE010196DF9178
:10270000CF911F910F910C94B22CAF92BF92CF92A8
:10271000DF92EF92FF921F93CF93DF938CEAC82E44
:1027200080E0D82ED0E07601C0E014C0F5012591FC
:102730003491412F6C2F8D2F0E94701382E0A80ED0
:10274000B11C1F5F113191F782E2E80EF11CCF5FDF
:10275000C63019F0570110E0E9CFDF5F8CECC80EEE
:10276000D11CD43001F7DF91CF911F91FF90EF90F2
:10277000DF90CF90BF90AF900895EF92FF920F93AC
:102780001F93CF93DF93EC018A017C01E60EF71EC5
:10279000CE018696CE15DF0539F4DF91CF911F91DA
:1027A0000F91FF90EF900895C03323E0D20740F4DB
:1027B0000E949E2CF80180830F5F1F4F2196E8CF67
:1027C000F8011082F9CFCF92DF92EF92FF920F9330
:1027D0001F93CF93DF937C016A018C01060F171FB3
:1027E000EC01CE018696C017D10749F4DF91CF9155
:1027F0001F910F91FF90EF90DF90CF900895C0331D
:1028000023E0D20740F4FE01EE19FF09EC0DFD1D97
:1028100060810E94B22C2196E4CF462F843038F498
:10282000763028F4613118F4672F0C94571390E038
:1028300080E0089580E108958AEA90E00895EF929B
:10284000FF920F931F93CF93DF93EC018A017C01DA
:10285000E60EF71ECE018A5A9C4FCE15DF0539F4DD
:10286000DF91CF911F910F91FF90EF900895CA3A99
:10287000D10540F40E949E2CF80180830F5F1F4F0A
:102880002196E8CFF8011082F9CFCF92DF92EF9234
:10289000FF920F931F93CF93DF937C016A018C010A
:1028A000060F171FEC01CE018A5A9C4FC017D107A3
:1028B00049F4DF91CF911F910F91FF90EF90DF903E
:1028C000CF900895CA3AD10540F4FE01EE19FF09F0
:1028D000EC0DFD1D60810E94B22C2196E4CFCF93B8
:1028E000DF93C6E5D3E060E0CE010E94B22C2196D2
:1028F000C11584E0D807B9F7DF91CF910895DF9231
:10290000EF92FF920F931F93CF93DF9300D000D0ED
:10291000CDB7DEB7F82E8FE08F1540F08FEF93E044
:102920000E949E2C06E513E08823C1F00F900F90C3
:102930000F900F90DF91CF911F910F91FF90EF902B
:10294000DF900895011584E0180781F3C8010E9403
:102950009E2C811101C0FA940F5F1F4FF110F2CF2E
:1029600019821A821B821C82DD24D39478018FEF96
:10297000E81AF80AC8010E949E2C89831A828823CB
:10298000A9F29FEF980F933078F48A83D9820E5F73
:102990001F4FC7010E949E2C8B83882339F2CE01E2
:1029A00001960E944D06E2CF8701F9CF0F931F9346
:1029B000CF93DF93C42FD22FFC0182818823C9F0EB
:1029C00040939E030E94C42390939D0380939C0395
:1029D00080E28C0F883008F050C0C77081E001C0E1
:1029E000880FCA95EAF7DF91CF911F910F910C9450
:1029F000821910919E03141335C080919C0390910D
:102A00009D030E94DC23883C910560F5C0E2CD0F58
:102A10001D17B9F080E2810F883040F4177081E013
:102A200001C0880F1A95EAF70E948919C83048F446
:102A300081E09D2F977001C0880F9A95EAF70E9458
:102A40008219802F0E947A19C830B8F4D77081E0BB
:102A500001C0880FDA95EAF7DF91CF911F910F91AE
:102A60000C94891980E28C0F883038F4C77081E0AB
:102A700001C0880FCA95EAF7EFCFDF91CF911F9180
:102A80000F9108950F939C01CB01233F4CE5340730
:102A900059F1A8F4283DFCE53F0701F1293D4CE53B
:102AA0003407D1F1273D3C4591F406E221EE41EE99
:102AB00067ED7CE50E94D61480E00F910895253FD4
:102AC000FCE53F07E9F0B0F0263F3C45F9F0FC019A
:102AD0008281882339F110929E03EFCF07E225EE21
:102AE00045EE68ED7CE5E6CF06E221EE40EE63EFD1
:102AF0007CE5E0CF07E225EE44EE64EF7CE5DACF3B
:102B000006E221EE42EE65EF7CE5D4CF07E225EE4A
:102B100046EE66EF7CE5CECF08E221E045EE69EDBA
:102B20007CE5C8CF81E0C9CFCF93DF93EC01FB01F7
:102B30008281882309F419C1C230FCE5DF07C0F1A6
:102B4000C6319CE5D90730F09E012A5F3C4529300B
:102B5000310570F50E9435229093D1058093D00500
:102B6000C031ECE5DE0709F4CFC008F05BC0C83027
:102B70008CE5D80709F4B6C088F5C430ECE5DE076B
:102B800009F4A8C0C0F4C2308CE5D80709F49CC091
:102B90008091D0058260C330DC4509F498C08091F3
:102BA000D0059091D1050E9443220E94EC1B80E049
:102BB000DF91CF9108958091D0058061C630ECE51A
:102BC000DE0709F484C08091D0058860C730DC45F9
:102BD00008F47DC08091D005806279C0CC308CE54E
:102BE000D80709F489C070F48091D0058C60CA3090
:102BF000ECE5DE0709F46BC008F478C08091D005DD
:102C00008E7F65C0CE308CE5D80709F479C08091FD
:102C1000D0058B7FCF30DC4508F459C08091D005BA
:102C20008F7E55C0CB3FECE5DE0709F457C030F589
:102C3000C3318CE5D80709F46FC078F4C131ECE5F5
:102C4000DE0709F465C0C231DC4509F0A8CF0E9457
:102C5000EC1B8091D0058F773AC0C5318CE5D80741
:102C600009F462C008F476C08091D1058160CA3F42
:102C7000DC4509F094CF8093D10591CFCF3FFCE59F
:102C8000DF0709F44DC088F48091D1058D7FCD3FD9
:102C90009CE5D90781F38091D1058E7FCE3FDC453D
:102CA00050F38091D1058360E6CFC130FDE5DF07A9
:102CB00009F459C008F444C080E0C230DD4509F091
:102CC0006ECF0E94C8226BCF8091D0058160809327
:102CD000D00565CF8091D0058460F9CF8091D10572
:102CE0008260C9CF8091D0058064F1CF0E94EC1B37
:102CF0008091D0058068EBCF8091D0058D7FE7CFA4
:102D00008091D005877FE3CF8091D0058F7DDFCF85
:102D10008091D0058F7BDBCF8091D005837FD7CF8B
:102D20008091D1058C7FA7CF8091D00582FB992718
:102D300090F921E0922790FB82F990FB83F9C7CFAD
:102D40008091D105982F909591708E7F892B90FB63
:102D500081F991CF0E94EC1B9091D005892F97FBB0
:102D600087F98058B4CF81E0ACCF81E021CFCF93F9
:102D7000DF93EB0186319C4511F50E946B219A810E
:102D8000992399F08A7A91E009F490E090939F0357
:102D9000811109C089E20E9446210E94B72180E08A
:102DA000DF91CF91089585E3F6CF80919F03811144
:102DB00004C089E20E944D21F0CF85E3FBCF81E082
:102DC000EFCF9093A5038093A4030895E091A4030B
:102DD000F091A503309721F00190F081E02D099446
:102DE00080E00895E091A403F091A503309799F055
:102DF00020912301222359F02091D00527FF07C0FD
:102E0000DC012C9111962C93119725E02C930280D4
:102E1000F381E02D099408952091A2033091A3033A
:102E20002817390771F09093A3038093A203E091D0
:102E3000A403F091A503309721F00680F781E02DDF
:102E4000099408952091A0033091A1032817390710
:102E500071F09093A1038093A003E091A403F091FB
:102E6000A503309721F00084F185E02D09940895A1
:102E70000E94D0236093C3037093C4038093C5035F
:102E80009093C6036093BF037093C0038093C10304
:102E90009093C203089585B7806885BF85B7806821
:102EA00085BF0895089508950C94521708950C94C1
:102EB00056170E944B178AE192E20E9433240E9427
:102EC00053170C94541781E008950C9463170895D8
:102ED00008950E94BB230E9482080E94E0110E9474
:102EE0004E240E9407100C9457174F925F926F92D6
:102EF0007F928F929F92AF92BF92CF92DF92EF928A
:102F0000FF920F931F93CF93DF93CDB7DEB72A972E
:102F10000FB6F894DEBF0FBECDBF0E9467170E94A8
:102F200068170E94BB0881110E94381757EAA52E26
:102F300053E0B52E10E000E0802E802F0E9457084D
:102F40002B013C01F501C190D190E190F1905F011E
:102F5000C414D504E604F70409F477C080916E0424
:102F600081FD0E946208D701C60184259525A6250A
:102F7000B725912CC12CD12C7601C394AC01BD0195
:102F80004C215D216E217F21452B462B472B09F4D7
:102F900054C00E9465178823C9F09E828F824C20FE
:102FA0005D206E207F2081E045284628472809F4CF
:102FB00080E088870E94C4238160782F9A87898760
:102FC0004E815F8168858A850E945318000F111F0A
:102FD000000F111FF801E955FC4F80819181A281FA
:102FE000B3818C259D25AE25BF2580839183A28347
:102FF000B3830E9442100E94E6169091A60389179F
:10300000D9F10E94E6168093A6032A960FB6F8948B
:10301000DEBF0FBECDBFDF91CF911F910F91FF900B
:10302000EF90DF90CF90BF90AF909F908F907F9068
:103030006F905F904F900C9457069394CC0CDD1CCE
:10304000EE1CFF1CF1E19F1299CF0F5F1F4F06305E
:10305000110509F071CF8FEF89838A831B820E944B
:10306000C4238160782F9D838C8349815A816B8131
:103070008D810E945318BDCF2A960FB6F894DEBFFB
:103080000FBECDBFDF91CF911F910F91FF90EF90B9
:10309000DF90CF90BF90AF909F908F907F906F9078
:1030A0005F904F900895DF92EF92FF920F931F93DE
:1030B000CF93DF93CDB7DEB72B970FB6F894DEBF73
:1030C0000FBECDBF7A878B87F42E052F162FE72EE4
:1030D000D82E61110E948B211E821D827E2DEC82D2
:1030E000DD824F2D502F612F8D2D9E812B960FB697
:1030F000F894DEBF0FBECDBFDF91CF911F910F912E
:10310000FF90EF90DF900C94621EFC018081918112
:103110000C941821CF93C82F882309F483C08238D8
:10312000C1F40E94E61681FD7DC089E30E9446211C
:103130000E94B7212FEF81EE94E021508040904013
:10314000E1F700C0000089E30E944D21CF910C946B
:10315000B7218338A1F40E94E61680FD63C083E5A1
:103160000E9446210E94B7212FEF81EE94E021506A
:1031700080409040E1F700C0000083E5E5CF84384F
:10318000A1F40E94E61682FD4DC087E40E9446210C
:103190000E94B7212FEF81EE94E0215080409040B3
:1031A000E1F700C0000087E4CFCF8CEF8C0F813AAD
:1031B00090F46C2F80911701909118010E94E122E8
:1031C000882329F08C2F0E944D210E94B7218C2F3B
:1031D0000E944621BBCF80E28C0F883048F4C77034
:1031E00081E001C0880FCA95EAF70E946E21AECF38
:1031F000EBE5EC0FE33040F4F0E0EB53FE4F808161
:1032000090E0CF910C940C17C85AC73158F4EC2FAA
:10321000F0E0EE0FFF1FE956FE4F80819181CF91C4
:103220000C942217CF910895882309F44BC082385B
:1032300071F40E94E61681FF45C089E30E94462191
:103240000E94B72189E30E944D210C94B721833855
:1032500059F40E94E61680FF35C083E50E9446219E
:103260000E94B72183E5EFCF843859F40E94E61617
:1032700082FF28C087E40E9446210E94B72187E48C
:10328000E2CF9CEF980F913AF0F290E2980F9830CD
:1032900050F4877091E001C0990F8A95EAF7892F61
:1032A0000E947421D2CF9BE5980F933020F490E0D8
:1032B00080E00C940C17885A873120F490E080E06D
:1032C0000C94221708951F93CF93DF93182FEB01CF
:1032D0000E948A18209731F4812FDF91CF911F919E
:1032E0000C9414198FE99FE00197F1F700C00000DA
:1032F0002197F0CF70E060E0893311F460E570E071
:103300000C946319882321F00E946E210C94B7213C
:103310000895882321F00E9474210C94B721089508
:10332000BF92CF92DF92EF92FF920F931F93CF93B2
:10333000DF936C01D62FC72FFC0112810581029506
:103340000F700E946421E82E8823A1F0E12E112342
:1033500089F08C2F807F803429F080E28D0FE12C62
:10336000883040F082E00E9402220E94642191E0B5
:10337000E82EE926BC2EB2949FE0B922EB2DF0E0B6
:10338000E25DF24D0C94F72B0C2F0F70C07F11F003
:103390000295007F1123A9F0002359F080E28D0FE0
:1033A000883010F0D11109C0802F0E946E210E9438
:1033B000B7218D2F0E948A1814C0802F0E947E2171
:1033C000F6CF8D2F0E941419002359F080E28D0F43
:1033D000883010F0D1112CC0802F0E9474210E94DF
:1033E000B7212B2D2850330B2430310520F40E94B7
:1033F000E6160E945706EE2009F493C10E94602150
:1034000080FD8FC1F60112820E945A210E94E61FA0
:10341000C6010E94B21B0E945A21DF91CF911F91D9
:103420000F91FF90EF90DF90CF90BF900C9407200A
:10343000802F0E948421D3CFFC2FFF70FF2EC07FEE
:10344000C03219F0F29480EFF822DD2369F0D13018
:1034500049F1112391F1002351F1F601858180FF9B
:10346000A8CF8F70858323C0112381F0011106C07E
:103470000E949E218F290E948219B3CF0130C1F78B
:103480000E949E218F290E94A421ABCF011106C06A
:103490000E94AD218F2D0E948919A3CF013009F41C
:1034A000A0CFF6CF112329F0063008F09ACF8F2D48
:1034B000E2CF053008F095CFEDCF002359F3D93393
:1034C00049F4FFEF27EE33E0F15020403040E1F7C0
:1034D00000C000008D2F0E94141983CF8C2F869579
:1034E0008695837069F0813009F07BCF8D2F9C2FFA
:1034F0009370111102C090E080E00E94221771CFFA
:103500008D2F9C2F9370111102C090E080E00E94DB
:103510000C1767CF8C2F837009F041C0111161CF58
:103520004D2F429546954770440F440F0D2F0F7055
:1035300010E030E020E0042E04C0000F111F221F15
:10354000331F0A94D2F760E070E0CB01D4FF0FC0C4
:103550006FE070E080E090E004C0660F771F881F86
:10356000991F4A95D2F76095709580959095C6956C
:10357000C695C370602B712B822B932BC23049F000
:1035800058F4C13019F00E94981F2BCF0E94861F5B
:1035900028CF0E94AA1F25CF0E94841F22CF869584
:1035A000112311F08C2F8170882309F41ACF4D2F2D
:1035B000429546954770440F440F0D2F0F7010E051
:1035C00030E020E0042E04C0000F111F221F331F23
:1035D0000A94D2F760E070E0CB01D4FF0FC06FE037
:1035E00070E080E090E004C0660F771F881F991F8D
:1035F0004A95D2F76095709580959095C695C69539
:10360000C370602B712B822B932BC23049F058F47E
:10361000C13019F00E945D20E4CE0E944B20E1CE23
:103620000E946F20DECE0E94C01FDBCECF70112320
:1036300029F08C2F0E94E61F8D2F1DCF8D2F0E9409
:1036400089198C2F0E940720CCCED23F89F160F4DB
:10365000D03FC9F0D13F29F1112309F442C0011133
:10366000A8CE8C2F8F7121C0D33F39F1D43FA1F761
:10367000112369F1CF718C2F0E94E61F63E08C2F1C
:103680000E94ED21AECE112341F0053008F0A9CE05
:103690008C2F8F710E942A20A4CE063008F0A1CE74
:1036A000F7CF8C2F8F71112369F20E94E61F99CEFC
:1036B0008C2F8F711123C9F3C5CF112329F08C2FC3
:1036C0008F710E94D11F8DCE0E94CC1F8ACE81E0C7
:1036D0000E940222023008F484CE82E00E9402227C
:1036E00080CE002359F0D93309F0F4CE8FEF97EE56
:1036F000E3E081509040E040E1F7EACE8C2F8F71FB
:10370000A1CF4C2F4F706D2FC6010E945F060E9403
:10371000FC1E67CE4C2F4F706D2FC6010E946206B3
:1037200060CEDF91CF911F910F91FF90EF90DF90CE
:10373000CF90BF9008950F931F93CF93DF93EC0129
:10374000688179818A810E9422218C010E948120D6
:103750000E94831FB801CE01DF91CF911F910F917D
:103760000C949019CF93DF93EC018B819C81892B72
:1037700029F08881998189238F3F59F4DF91CF9176
:103780000895CE010E949B1BCE01DF91CF910C9436
:10379000AA04CE010E9437058111F3CF0E94642153
:1037A000882361F38A81882349F382E0DF91CF91F6
:1037B0000C94022290E080E00E940C1790E080E0E0
:1037C0000E9422170E948B210E949B210C94B721FA
:1037D0000E9454210C94DA1B0E947B210C94E81B5C
:1037E000E92FE295EF70E250EE3070F4F0E0E25C29
:1037F000F24D0C94F72B803F19F020F4883E20F412
:1038000081E00895843FE1F380E00895883EC0F3AD
:10381000813FD1F7F5CF93FB882780F908950E9467
:1038200018210C94F01BCF93DF9300D000D00F929F
:10383000CDB7DEB70F900F900F900F900F90DF91E4
:10384000CF910895CF93DF9300D000D000D0CDB7B3
:10385000DEB726960FB6F894DEBF0FBECDBFDF9160
:10386000CF9108951F93CF93DF93C091C80316E0C3
:103870008091C9038C1304C0DF91CF911F910895EB
:10388000D0E01C9FF0011D9FF00D1124E653FC4F6A
:103890004081518162817381848195810E94221CC3
:1038A0002196C770E5CF4091FA035091FB036091D8
:1038B000FC037091FD038091FE039091FF030C9433
:1038C000221C1F93CF93DF938091FF03807FA9F485
:1038D0008091FC03882389F08091C803C091C903BB
:1038E0006091FA037091FB03A091FD03B091FE0378
:1038F000D62FD72316E0C81304C0DF91CF911F91B4
:10390000089590E0109711F0DF3F19F40196877049
:10391000F2CF189F9001199F300D1124F901E65341
:10392000FC4F41814713F2CF40814613EFCF4281D4
:103930004111ECCF438154814A1B5B0B483C51053C
:1039400028F78091FF038F7080618093FF03F90156
:10395000E153FC4F80818F70806180838AEF93E018
:103960000E94B21BDF91CF911F910C94321CAF9239
:10397000BF92CF92DF92EF92FF920F931F93CF935C
:10398000DF93CDB7DEB761970FB6F894DEBF0FBEF9
:10399000CDBF8C0185E0F801DE011D9601900D92EE
:1039A0008A95E1F7F80140815181E2808AEFC82EC3
:1039B00083E0D82E6091FD037091FE0361157105BF
:1039C00009F461C19091FA032091FB03892F8223AE
:1039D0008F3F09F458C1A380B480F090FC03F50137
:1039E000E61BF70BFF2009F4FCC08091FF03382F82
:1039F000307FE83CF10508F0B2C0311179C0FE2CEF
:103A0000251323C0941321C0E1101FC08F70806163
:103A10008093FF030E94531CC6010E94B21B809139
:103A2000FF03F80185838F2D61960FB6F894DEBFF2
:103A30000FBECDBFDF91CF911F910F91FF90EF90FF
:103A4000DF90CF90BF90AF900895AB2829F0842FDE
:103A500085238F3F09F033C180E0F82FF170DF2E0E
:103A600080FF3CC08091C8032091C90336E08213D7
:103A700015C04D875E878D859E850E941821292F50
:103A800022952F702230F0F0243018F59F70F1F05D
:103A9000F8019581907FD1F4D12C1EC090E0389F21
:103AA000F001399FF00D1124E653FC4F618165133D
:103AB00006C06081641303C062816E110FC001965D
:103AC0008770D5CF9F7011F0882331F3805E8830E6
:103AD00018F3C8010E94B21BFD2CA5CFEE2009F4FB
:103AE000A2CF8091FF0381608093FF03F12C9BCFD5
:103AF000251306C0941304C0F801EE2009F48DC00C
:103B00004D875E878D859E850E940F1C882319F145
:103B1000EE2009F18091FF03803270F02091FA03CA
:103B20003091FB0338872F831986BB86AA868C8742
:103B3000CE0107960E94B21B86E0F801AAEFB3E01F
:103B400001900D928A95E1F70E94611C0E94531C1E
:103B5000FF24F39468CFC8010E94B21BF9CF311142
:103B600013C07A2DB98AA88A6E2D89890E94131CE8
:103B70008AEF93E00E94B21B86E0F60111928A95CB
:103B8000E9F70E94531CB2CF25130FC094130DC048
:103B9000E1100BC0F8018583C8010E94B21B86E0CA
:103BA000F60111928A95E9F73ECF4D875E878D85A4
:103BB0009E850E940F1C882371F2EE2061F2809195
:103BC000FF03803208F4B8CF2091FA033091FB0351
:103BD0003A8329831B82BD82AC828E83CE010196FB
:103BE000A9CFE83CF10508F041C0FE2CEE2009F415
:103BF000B2CF25132AC0941328C08091FF0380FD03
:103C00001BC0982F907FC1F0F8018583903F31F061
:103C1000982F907F905F8F70892B8583C8010E94B9
:103C2000B21B86E0F801AAEFB3E001900D928A95ED
:103C3000E1F70E94531CF7CE86E0F801AAEFB3E04B
:103C400001900D928A95E1F7EECE4D875E878D85C6
:103C50009E850E940F1C81116FCF8091FF038160B0
:103C60008093FF03C8010E94B21BDDCE7A2DB98A72
:103C7000A88A6E2D89890E94131C86E0F601119294
:103C80008A95E9F7D6CFEE2009F465CF4D875E8798
:103C90008D859E850E940F1CF82E882309F45BCF2A
:103CA00086E0F801AAEFB3E001900D928A95E1F762
:103CB0008AEF93E00E9485180E94611CBACF81E0D0
:103CC0008E25CBCE1F93CF93DF93CDB7DEB72C9746
:103CD0000FB6F894DEBF0FBECDBF4F8358876987FC
:103CE0007A878B879C87CE0107960E94B71C882312
:103CF00069F08A859B85892B39F04F815885842FFF
:103D000085238F3F09F071C016E05FC086E0FE0199
:103D10003796DE01119601900D928A95E1F78A851A
:103D20009B85892B89F38F81988589238F3F61F348
:103D30002091C90330E0C90101968770992740910D
:103D4000C8034817190671F40E94EC1B1092C903AE
:103D50001092C80386E0EAEFF3E0DF011D928A9536
:103D6000E9F7D2CF96E0929FD001939FB00D112436
:103D7000A653BC4FFE01319601900D929A95E1F742
:103D80008093C9030E94321CBFCF819FC0011124C0
:103D900086539C4F0E94B71C8823E9F0E091C8032A
:103DA0001E9FF0011124E653FC4F40815181628136
:103DB0007381848195810E94221C8091C80390E0C8
:103DC0000196877099278093C8038091C8039091CA
:103DD000C9038913DACF2C960FB6F894DEBF0FBE55
:103DE000CDBFDF91CF911F91089569857A858B852D
:103DF0009C850E94221C88CFEF92FF920F931F9305
:103E0000CF93DF938C01892B81F0F12CEE24E39486
:103E1000E8012196F8018491843770F4843008F029
:103E20005FC08130B1F08230A1F1DF91CF911F915D
:103E30000F91FF90EF900895853709F44CC008F476
:103E40003DC09CE7980F903780F78F770E94141938
:103E500049C00E5F1F4FFE01849190E2980F983089
:103E600060F48770FE2D01C0FF0F8A95EAF78F2F4F
:103E70000E948E210E94B72102C00E948A188F2DB5
:103E8000815030F2EFE9FFE03197F1F700C0000018
:103E9000F7CF0E5F1F4FFE01849190E2980F98308C
:103EA00050F48770FE2D01C0FF0F8A95EAF78F2F1F
:103EB0000E949421DFCF0E941419E1CF0E5F1F4FA3
:103EC000FE01C491C150D8F28FE99FE00197F1F74C
:103ED00000C00000F7CF0E5F1F4FFE01F490CFCF60
:103EE0000E948A188E01CBCF08950C94741F0E94F3
:103EF000751F609345047093460480934704909324
:103F000048040C94DA1B08950C94771F0F931F93A9
:103F100000914504109146042091470430914804D3
:103F2000602B712B822B932B1F910F910C94771F79
:103F30000F931F930091450410914604209147046C
:103F40003091480460237123822393231F910F91A2
:103F50000C94771F0F931F93009145041091460412
:103F600020914704309148046027712782279327C6
:103F70001F910F910C94771F0C94741F0C94BC1F0D
:103F80000E94BE1F609341047093420480934304D7
:103F9000909344040C94DA1B60E070E0CB010C9425
:103FA000C01F0F931F9341E050E060E070E08A0172
:103FB0009B0104C0000F111F221F331F8A95D2F7E7
:103FC000C901B8011F910F910C94C01F0F931F934B
:103FD00041E050E060E070E004C0440F551F661FF0
:103FE000771F8A95D2F78091410490914204A09165
:103FF0004304B09144048A019B01082B192B2A2BFE
:104000003B2BC901B8011F910F910C94C01F0F9356
:104010001F9341E050E060E070E004C0440F551F82
:10402000661F771F8A95D2F7CB01BA01609570950C
:104030008095909500914104109142042091430491
:104040003091440460237123822393231F910F91A5
:104050000C94C01F0F931F9341E050E060E070E0AC
:1040600004C0440F551F661F771F8A95D2F78091B1
:10407000410490914204A0914304B09144048A0108
:104080009B01082719272A273B27C901B8011F913F
:104090000F910C94C01F0F931F9300914104109136
:1040A00042042091430430914404602B712B822BF5
:1040B000932B1F910F910C94C01F0F931F9300918E
:1040C0004104109142042091430430914404602340
:1040D0007123822393231F910F910C94C01F0F9380
:1040E0001F930091410410914204209143043091A8
:1040F000440460277127822793271F910F910C9406
:10410000C01F089521E1929F800D1124982F977070
:1041100041E001C0440F9A95EAF786958695869509
:1041200095E0899FF0011124E050FC4F90E080E081
:1041300070E05191DF0111979B01082E02C0369566
:1041400027950A94E2F72170219525272423252716
:104150002C9301968530910561F7089521E1929F96
:10416000800D1124982F977086958695869525E069
:10417000829FF0011124E050FC4F50E040E080E0CD
:10418000219130E0092E02C0369527950A94E2F776
:1041900021703327042E01C0220F0A94EAF7822BE4
:1041A0004F5F5F4F4530510559F70895BF92CF9249
:1041B000DF92EF92FF920F931F93CF93DF938C01C7
:1041C000C0904104D0904204E0904304F090440435
:1041D0008091450490914604A0914704B091480411
:1041E000C82AD92AEA2AFB2ACFE1D0E0BC2ED7017F
:1041F000C6010C2E04C0B695A795979587950A948D
:10420000D2F780FD0EC0219788F7B12C8B2DDF915E
:10421000CF911F910F91FF90EF90DF90CF90BF90C3
:104220000895B8018C2F0E946B06019761F3EECFC1
:10423000CF93DF93EC010E94D620BE01DF91CF9196
:104240000C946B061F93CF93DF93EB019091C70300
:10425000992331F0CB01DF91CF911F910C9418215C
:10426000882379F0CB010E94D620182F682FCE0129
:104270000E948220BE01812FDF91CF911F910C946B
:104280006B06CB010E94AE20182FF4CF682F8091CF
:104290001701909118010C946123682F80911701E8
:1042A000909118010C946C23809117019091180142
:1042B0000C9477238091490485958595859508957B
:1042C000809149048770089590914904977081E026
:1042D00009F480E0089580916D04089590916D0433
:1042E000892B80936D040895809590916D04982397
:1042F00090936D04089510926D04089590916C044C
:10430000892B80936C040895809590916C04982378
:1043100090936C04089510926C04089590916B042E
:10432000892B80936B040895809590916B0498235A
:1043300090936B04089510926B04089580914A0441
:10434000089508950C94A12190914A04981721F0A2
:1043500080934A040C94A221089580914A048823F2
:1043600029F010924A0480E00C94A2210895E09173
:104370001701F091180180916D048083E09117017D
:10438000F0911801808190916C04892B8083E091D9
:104390001701F0911801808190916B04892B808323
:1043A00090914A04992381F0E0911701F09118014E
:1043B0008081892B808380911701909118010E9440
:1043C000CD2281110E94AD21809117019091180199
:1043D0000C94F21608950C94EA2198E0899F9001BC
:1043E0001124622B609349040E94E61F80914904C6
:1043F0008595859585950C94EB211092490480E074
:104400000C94EB2190914904809589238093490471
:10441000282F277071F4282F082E000C330B9217C9
:10442000130639F08595859585950E9407200C9493
:10443000FD21089580E008956FEF7FEF90E080E028
:104440000C94D02C90E080E00E94AC2C21E08B3EBC
:104450009E4F09F020E0822F089582E090E00C94B6
:104460009E2C83E090E00C949E2CCF9384E090E00F
:104470000E949E2CC82F81E290E00E949E2C982FD3
:104480008C2FCF910895CF93C92F682F84E090E0AF
:104490000E94B22C6C2F81E290E0CF910C94B22C50
:1044A000AB01BC018FE090E00C94C42CAB01BC01CB
:1044B00083E190E00C94C42C60E070E0CB010C949C
:1044C000562260E070E0CB010E9450220C945C22E6
:1044D0006BEE7EEF90E080E00E94D02C60E082E006
:1044E00090E00E94B22C60E083E090E00E94B22C49
:1044F000109245041092460410924704109248040A
:1045000060E084E090E00E94B22C60E081E290E004
:104510000E94B22C60E085E090E00E94B22C60E046
:1045200086E090E00E94B22C6FEF87E090E00E945E
:10453000B22C40E050E0BA0188E090E00E94C42C28
:1045400060E08DE090E00E94B22C40E050E0BA01C3
:1045500088E190E00E94C42C60E087E190E00E9436
:10456000B22C40E050E0BA018CE190E00E94C42CF3
:1045700060E080E290E00E94B22C40E050E0BA019E
:1045800088E190E00E94C42C0C9461220C94682273
:10459000682F8EE090E00C94B22CFC013296809152
:1045A0002301882321F08091D0059EE187FF96E0CA
:1045B00080E0915008F4089521912223D1F38F5F78
:1045C000F8CF662301F1209123012223F1F02091FD
:1045D000D00527FF1AC0462F4695469546954E3181
:1045E00090F4677021E030E002C0220F331F6A951B
:1045F000E2F7840F911DFC01828190E0282339238A
:1046000081E0232B69F480E00895FC01329608963E
:104610002191261721F0E817F907D1F7F4CF81E0AF
:1046200008959C01FC0132969FEF80E0419146176E
:1046300051F09F3F19F4411101C0982F8F5F8630D0
:10464000A9F79F3F09F40895290F311D97FD3A9569
:10465000F90162830895FC01329608962191261390
:1046600003C0DF0111971C92E817F907B9F7089505
:10467000E62FE695E695E695EE3168F4E80FF92F1A
:10468000F11D677021E030E001C0220F6A95EAF762
:104690008281822B82830895E62FE695E695E69542
:1046A000EE3170F4E80FF92FF11D677021E030E072
:1046B00001C0220F6A95EAF7209582812823228380
:1046C000089520912301222329F02091D00527FD70
:1046D0000C9438230C94112320912301222329F0D8
:1046E0002091D00527FD0C944C230C942B23FC0126
:1046F000329680912301882351F08091D00587FF65
:1047000006C08EE1DF011D928A95E9F7089586E0E3
:10471000F9CF08950C9489230E94EC1B0E94E616A1
:104720000E9457060C948A231F921FB61F921124D1
:104730008F939F93AF93BF9380916F04811113C0A8
:104740008091CC059091CD05A091CE05B091CF057B
:104750004196A11DB11D8093CC059093CD05A093EA
:10476000CE05B093CF05BF91AF919F918F911F90D0
:104770001FBE1F90189582E084BD93E095BD9AEF0F
:1047800097BD80936E0008952FB7F8948091CC0563
:104790009091CD05A091CE05B091CF052FBF089582
:1047A0002FB7F8946091CC057091CD058091CE051E
:1047B0009091CF052FBF08959C014FB7F894809139
:1047C000CC059091CD05A091CE05B091CF054FBFFE
:1047D000821B930B089578941F921FB61F92112489
:1047E0008F939F93AF93BF938091CC059091CD050C
:1047F000A091CE05B091CF050196A11DB11D80936A
:10480000CC059093CD05A093CE05B093CF05BF9175
:10481000AF919F918F911F901FBE1F90189581E0BF
:104820008093E00080E28093D8001092C9008FE16D
:104830009EE40197F1F700C0000087E090EBDC01F7
:104840008093DF059093E005A093E105B093E20526
:1048500088E19CE00FB6F894A895809360000FBEA5
:1048600090936000FFCF9093D9018093D801089571
:104870000C94CD110E94BB088FE39CE90197F1F7DE
:1048800000C000000E94BB0880E00E94570860FF43
:1048900004C00E9438240C940F2408950E94222200
:1048A000811102C00E94C6220E942D2280936E04B4
:1048B0000E9435229093D1058093D0050E94312229
:1048C000682F70E090E080E00E94841F60914104B6
:1048D0007091420480914304909144040C94BE1F53
:1048E0008091900408950895CF93DF9300D00F92A4
:1048F000CDB7DEB79091D605943011F589837B83CF
:104900006A839093E9008FEF9091E800815095FDC4
:1049100006C095ED9A95F1F700008111F5CF8091D1
:10492000E80085FF0DC050E040E063E070E0CE019C
:1049300001960E94B3268091E8008E778093E8006C
:104940000F900F900F90DF91CF910895BC0184E0FC
:104950000C947424BC0183E00C947424CF93DF93F3
:10496000EC01809123018823B1F18091D00587FF6C
:1049700032C060E284E08093E9008FEF9091E8001C
:10498000815095FD06C095ED9A95F1F700008111D3
:10499000F5CF8091E80085FF1BC08091230170E076
:1049A00050E040E0811104C050E040E068E070E079
:1049B000CE010E94B3268091E8008E778093E800B4
:1049C00080E2FE01A0E7B4E001900D928A95E1F744
:1049D000DF91CF91089568E081E0CDCFCF93FC01C6
:1049E000603221F58091D605843001F5C091E9004F
:1049F000CF702091EC00922F917020FD90E8C92B90
:104A000082E08093E9008091E80080FF0CC050E0D4
:104A100040E060E270E0CF010E94B3268091E800A0
:104A20008E778093E800CF70C093E900CF9108950E
:104A30008091D505811109C00E9492280E94EF281B
:104A40008091E20084608093E20008951092D50581
:104A50000895089508950C948C2342E061EC81E060
:104A60000E940E2842E261EC84E00E940E2842E29D
:104A700061EC82E00E940E2842E260EC83E00C943C
:104A80000E288091D805833009F461C030F481305C
:104A9000D1F1823009F49DC008958A3009F489C0AB
:104AA0008B3009F46FC0893009F050C08091D70570
:104AB000813209F04BC08091DB059091DC050097B5
:104AC00019F0029709F042C08091E800877F809337
:104AD000E8008091E80082FF35C09091F30080915A
:104AE000F200029729F48091F1008B7F813021F44C
:104AF0008091F100809390048091E8008B778093FF
:104B0000E8000C9442288091D705813AF9F480910D
:104B1000E800877F8093E8008091DB059091DC05B9
:104B2000892B61F460E280E794E070E00E945127F5
:104B30008091E8008B778093E800089560E090E032
:104B400080E0F3CF8091D6058111C3CF0895809185
:104B5000D705813AD9F78091DB059091DC05892B47
:104B6000A9F78091E800877F8093E8008091E800B2
:104B700080FFFCCF809123018093F1008091E800B9
:104B80008E77BDCF8091D705813201F78091DB050B
:104B90009091DC05892BD1F68091E800877F809386
:104BA000E8000E9442288091D905809323010C944B
:104BB000EC1B8091D705813249F68091E800877F10
:104BC0008093E8000E9442288091DA058093910446
:104BD00008958091D705813A09F0B8CF8091E80017
:104BE000877F8093E8008091E80080FFFCCF809170
:104BF0009104C2CFCDB7DEB7A0970FB6F894DEBF51
:104C00000FBECDBF84B7877F84BF0FB6F894A89539
:104C100080916000886180936000109260000FBEF8
:104C200080E890E00FB6F894809361009093610063
:104C30000FBE0E9459170E9492280E94EF2880916F
:104C4000E20084608093E20078940E94782B0E94B6
:104C5000691789E191E00E94E11613E00E9475173F
:104C60008091D605843029F00E9467170E9468174A
:104C7000F5CF1093E9008091E80082FFF5CF809195
:104C8000E80090E085FF09C050E040E060E270E09D
:104C9000CE0101960E94022791E08091E8008B7777
:104CA0008093E800992301F360E2CE0101960E940F
:104CB0008512DACF0C945C26292F33272330310557
:104CC00021F168F42130310509F443C02230310567
:104CD00009F444C090E080E030E020E026C02132BA
:104CE000310551F122323105A9F76330710590F792
:104CF000FB01EE0FFF1FE553FE4F2081318168530A
:104D00007E4FFB01808190E010C099278130910592
:104D100081F0009729F00297E9F6E6EAF6E002C092
:104D2000E8EFF6E0849190E09F01FA01318320835F
:104D30000895ECEDF6E0F6CF6330710558F6660F96
:104D4000771FFB01EF52FE4F2081318189E090E017
:104D5000ECCF82E190E027E537E0E7CF8BE590E00C
:104D60002CEF36E0E2CFAF92BF92CF92DF92FF926C
:104D70000F931F93CF93DF936C01EB018A010E9485
:104D80006128F82E811123C00115110539F0F801B1
:104D900080819181C81BD90BC80ED91EB12CA12CC2
:104DA0002097A9F08091E80085FD22C08091E8005D
:104DB0008E778093E80001151105A1F0F80180813C
:104DC0009181A80EB91EB182A08285E0F82E8F2DA8
:104DD000DF91CF911F910F91FF90DF90CF90BF9007
:104DE000AF9008950E9461288823D1F2F82EEFCF6A
:104DF000F60181916F018093F1002197FFEFAF1AC7
:104E0000BF0ACECFAF92BF92CF92DF92FF920F93A5
:104E10001F93CF93DF936C01EB018A010E946128FD
:104E2000F82E811123C00115110539F0F801808198
:104E30009181C81BD90BC80ED91EB12CA12C20976B
:104E4000A9F08091E80085FD22C08091E8008B7771
:104E50008093E80001151105A1F0F801808191818E
:104E6000A80EB91EB182A08285E0F82E8F2DDF91A9
:104E7000CF911F910F91FF90DF90CF90BF90AF9097
:104E800008950E9461288823D1F2F82EEFCF8091F7
:104E9000F100F60181936F012197FFEFAF1ABF0A6E
:104EA000CECFFC018091DD059091DE058617970736
:104EB000A0F06115710529F49091E8009E77909318
:104EC000E80090E06115710551F4911108C08091DE
:104ED000E80082FF34C080E00895BC01F2CF8091E9
:104EE000D6058823C1F18530C1F18091E80083FDAA
:104EF00030C08091E80082FDEACF8091E80080FF19
:104F0000E1CF8091F3002091F200382F61157105F7
:104F100019F02830310558F091E02830310509F0BA
:104F200090E02091E8002E772093E800CBCF81918C
:104F30008093F100615071092F5F3F4FE7CF80915F
:104F4000D605882341F0853041F08091E80083FF49
:104F5000BECF81E0089582E0089583E00895FC01CA
:104F60008091DD059091DE0586179707A0F0611509
:104F7000710529F48091E8008E778093E80090E035
:104F80006115710551F4911108C08091E80082FF0C
:104F900035C080E00895BC01F2CF8091D60588230A
:104FA000C9F18530C9F18091E80083FD31C080915D
:104FB000E80082FDEACF8091E80080FFE1CF809198
:104FC000F3002091F200382F6115710519F0283097
:104FD000310558F091E02830310509F090E08091DA
:104FE000E8008E778093E800CBCF84918093F10026
:104FF0003196615071092F5F3F4FE6CF8091D60502
:10500000882341F0853041F08091E80083FFBDCFD7
:1050100081E0089582E0089583E00895982F973005
:1050200028F08F708093E90081E008959093E90063
:10503000242F762F50E0981731F07091EC002091DA
:10504000ED005091F00021FD02C09F5FE8CF30914C
:10505000EB003E7F3093EB003091ED003D7F3093CD
:10506000ED003091EB0031603093EB007093EC0079
:105070002093ED005093F0002091EE0027FDE5CF46
:1050800080E008958091D70587FF13C08091E800E4
:1050900082FF06C08091E8008B778093E80004C00F
:1050A0008091D6058111F2CF08958091D60588238D
:1050B000D9F38091E80080FFF8CF8091E8008E77E7
:1050C000ECCF2091E4003091E50095E6A901209114
:1050D000EC00822F817020FF06C08091E80080FFE5
:1050E00006C080E008952091E80022FD1AC080915A
:1050F000D605882389F0853089F08091EB0085FD05
:105100000FC02091E4003091E50042175307F9F2F7
:105110009150E1F684E0089582E0089583E00895D7
:1051200081E008950E9400290E940829E0EEF0E045
:10513000808181608083E8EDF0E080818F778083DB
:1051400019BCA7EDB0E08C918E7F8C9380818F7E0F
:1051500080831092D50508950F931F93CF93DF930B
:105160000E9400290E940829C8EDD0E088818F772D
:10517000888388818068888388818F7D888319BC33
:105180001092D6051092D2051092D4051092D30534
:1051900000EE10E0F80180818B7F80838881816040
:1051A000888342E060E080E00E940E28E1EEF0E0BB
:1051B00080818E7F8083E2EEF0E080818160808359
:1051C000808188608083F80180818E7F80838881E0
:1051D00080618883DF91CF911F910F910895E8ED51
:1051E000F0E080818F7E8083E7EDF0E08081816058
:1051F000808384E082BF81E08093D5050C94AC2845
:10520000E8EDF0E080818E7F80831092E2000895C7
:105210001092DA001092E10008951F920F920FB6DB
:105220000F9211242F933F934F935F936F937F932C
:105230008F939F93AF93BF93EF93FF938091E10080
:1052400082FF0BC08091E20082FF07C08091E100E5
:105250008B7F8093E1000E94772B8091DA0080FFA2
:1052600019C08091D80080FF15C08091DA008E7F30
:105270008093DA008091D90080FF96C080E189BDDB
:1052800082E189BD09B400FEFDCF81E08093D6059F
:105290000E9418258091E10080FF19C08091E200F2
:1052A00080FF15C08091E2008E7F8093E2008091A4
:1052B000E20080618093E2008091D8008062809358
:1052C000D80019BC85E08093D6050E942A258091DC
:1052D000E10084FF2BC08091E20084FF27C080E1C1
:1052E00089BD82E189BD89B5982F917080FFFBCF80
:1052F0008091D8008F7D8093D8008091E1008F7ECF
:105300008093E1008091E2008F7E8093E2008091A3
:10531000E20081608093E2008091D205882309F445
:1053200049C084E08093D6050E942B258091E1003E
:1053300083FF29C08091E20083FF25C08091E100B6
:10534000877F8093E10082E08093D6051092D2059A
:105350008091E1008E7F8093E1008091E2008E7F5A
:105360008093E2008091E20080618093E20042E05D
:1053700060E080E00E940E288091F00088608093B9
:10538000F0000E942925FF91EF91BF91AF919F916D
:105390008F917F916F915F914F913F912F910F90DE
:1053A0000FBE0F901F90189519BC1092D6050E9441
:1053B000262570CF8091E30087FD93E09093D6057A
:1053C000B3CF1F920F920FB60F9211242F933F93DA
:1053D0004F935F936F937F938F939F93AF93BF93FD
:1053E000CF93DF93EF93FF93D091E900DF7080912B
:1053F000EC00C82FC17080FDC0E81092E9008091D8
:10540000F000877F8093F00078940E94252A109204
:10541000E9008091F00088608093F000CD2BCF7080
:10542000C093E900FF91EF91DF91CF91BF91AF91D0
:105430009F918F917F916F915F914F913F912F91AC
:105440000F900FBE0F901F9018951F93CF93DF936F
:10545000CDB7DEB7AA970FB6F894DEBF0FBECDBFAB
:1054600087ED95E02091F100FC012193CF01F5E05B
:105470008F3D9F07B9F70E9441258091E80083FF87
:105480001EC18091D7059091D8059A3008F017C1B8
:10549000E92FF0E0E45BF24D0C94F72B803899F0A3
:1054A000823809F00CC18091DB058F70873008F0DD
:1054B00006C18093E9008091EB0085FB882780F985
:1054C0001092E90006C08091D3059091D405911106
:1054D00082609091E800977F9093E8008093F100BC
:1054E0001092F1008091E8008E77E5C0882309F4DE
:1054F000D3C0823009F0E3C08091D9058111D6C0B4
:105500008091DB058F702FEF280F263008F0D7C071
:105510008093E9002091EB0020FFC8C0933031F464
:105520008091EB0080628093EB00C0C09091EB0013
:1055300090619093EB0021E030E001C0220F8A954A
:10554000EAF72093EA001092EA008091EB0088606D
:10555000EACF8111B4C01091D9051F778091E30083
:105560008078812B8093E3008091E800877F80938F
:10557000E8000E9442288091E80080FFFCCF8091E3
:10558000E30080688093E30082E0111183E0809360
:10559000D60595C08058823008F091C08091D90519
:1055A0009091DA058C3D23E09207A1F583E08A8390
:1055B0008AE289834FB7F894DE01139620E03EE03B
:1055C00051E2E32FF0E050935700E49120FF03C035
:1055D000E295EF703F5FEF708E2F90E0EA30C0F001
:1055E000C7968D939D932F5F243159F74FBF8091BC
:1055F000E800877F8093E8006AE270E0CE010196C0
:105600000E9451278091E8008B778093E80057C073
:10561000C096E7CF6091DB057091DC05AE014F5F6E
:105620005F4F0E945A26BC01892B09F448C0909113
:10563000E800977F9093E80089819A810E94AF27C4
:10564000E1CF8038E1F58091E800877F8093E80022
:105650008091D2058093F10045CF811130C09091A7
:10566000D905923060F58091E800877F8093E8004B
:105670009093D2050E9442288091D205882311F090
:1056800084E005C08091E30087FDFACF81E080933C
:10569000D6050E942D2513C08091D905813079F45B
:1056A00081E0933009F080E08093D4051092E90006
:1056B0008091E800877F8093E8000E9442288091D3
:1056C000E80083FF0AC08091E800877F8093E800AC
:1056D0008091EB0080628093EB00AA960FB6F8945D
:1056E000DEBF0FBECDBFDF91CF911F91089508950A
:1056F000CF938091D6058823A1F0C091E900CF70A7
:105700009091EC00892F817090FD80E8C82B109259
:10571000E9008091E80083FD0E94252ACF70C093A4
:10572000E900CF910895991B79E004C0991F96175D
:1057300008F0961B881F7A95C9F78095089587FB16
:10574000082E062687FD819567FD61950E94932BA3
:105750000EF4919507FC81950895AA1BBB1B51E19E
:1057600007C0AA1FBB1FA617B70710F0A61BB70BD1
:10577000881F991F5A95A9F780959095BC01CD0176
:10578000089597FB072E16F4009407D077FD09D0F3
:105790000E94AD2B07FC05D03EF4909581959F4F5C
:1057A0000895709561957F4F0895A1E21A2EAA1B66
:1057B000BB1BFD010DC0AA1FBB1FEE1FFF1FA217C1
:1057C000B307E407F50720F0A21BB30BE40BF50BBE
:1057D000661F771F881F991F1A9469F76095709547
:1057E000809590959B01AC01BD01CF010895EE0F0E
:1057F000FF1F0590F491E02D0994692796276927EA
:1058000078278727782708950E940C2C332312F4D9
:105810008A1B9B0B0C941D2CA29FB001B39FC0014F
:10582000A39F700D811D1124911DB29F700D811DCC
:105830001124911D08950E940C2CB7FF0895821B1E
:10584000930B08950E940C2CA59F900DB49F900D72
:10585000A49F800D911D11240895B7FF0C94222C54
:105860000E94222C821B930B08958F929F92AF92DD
:10587000BF92CF92DF92EF92FF92CF93DF93EC0132
:10588000688179818A819B81611571058105910506
:1058900021F464E279ED8BE597E02DE133EF41E00F
:1058A00050E00E94E62C49015A019B01AC01A7EA95
:1058B000B1E40E94222C6B017C01ACEEB4EFA50197
:1058C00094010E94302CDC01CB018C0D9D1DAE1D7E
:1058D000BF1DB7FF03C00197A109B0488883998312
:1058E000AA83BB839F77DF91CF91FF90EF90DF90EA
:1058F000CF90BF90AF909F908F9008950E94352CCD
:10590000089580E091E00E94352C0895B0E0A0E079
:105910008093000190930101A0930201B0930301D1
:105920000895FC014150504030F001900616D1F727
:105930003197CF010895882799270895F999FECFC7
:1059400092BD81BDF89A992780B50895A6E1B0E08F
:1059500044E050E00C94D82CA8E1B0E042E050E0E4
:105960000C94D82C262FF999FECF92BD81BDF89AC0
:10597000019700B4021639F01FBA20BD0FB6F89493
:10598000FA9AF99A0FBE08950396272F0E94B32C16
:105990000E94B22C252F0E94B32C242F0C94B32CE0
:1059A0000196272F0E94B32C0C94B22CDC01CB0162
:1059B000FC01F999FECF06C0F2BDE1BDF89A31961F
:1059C00000B40D9241505040B8F70895052E97FB52
:1059D0001EF400940E94FD2C57FD07D00E94D52B89
:1059E00007FC03D04EF40C94FD2C50954095309557
:1059F00021953F4F4F4F5F4F08959095809570953B
:105A000061957F4F8F4F9F4F0895F894FFCF1611E8
:105A10001E1125112A112F11341139113E11431174
:105A200048114D11521156115B115E116111641133
:105A3000671169116C119912A612CE12DA12E512D1
:105A4000F012F312F612F91242134213FC12001371
:105A5000081315132213251328133513C419C41959
:105A60001C1A1C1A6E1AF119F119F1198A1A161B4F
:105A7000251B251B811BF119F1198A1BFB1BFB1B25
:105A8000041C041C061C041C041C041CFB1BFB1B28
:105A90000B1C041C041C0B1C4E2A762A5F2B762A36
:0C5AA0005F2BA92ACA2A5F2B212B2D2B7B
:105AAC0001000000010102005700575701191A1B91
:105ABC001C1D1E1F2021224B047024AE247324AA0B
:105ACC0024A62401E200E900EA00B500B600B70004
