:100000000C9485030C94CC030C94CC030C94CC037B
:100010000C94CC030C94CC030C94CC030C94CC0324
:100020000C94CC030C94CC030C94842F0C94583077
:100030000C94EF290C94CC030C94CC030C94CC03BB
:100040000C94CC030C94CC030C94CC030C94CC03F4
:100050000C94CC030C94622A0C94CC030C94CC0327
:100060000C94CC030C94CC030C94CC030C94CC03D4
:100070000C94CC030C94CC030C94CC030C94CC03C4
:100080000C94CC030C94CC030C94CC030C94CC03B4
:100090000C94CC030C94CC030C94CC030C94CC03A4
:1000A0000C94CC030C94CC030C94CC0329000000DA
:1000B0003A003B003C003D003E003F004000410054
:1000C0004200430044004500460047004800350018
:1000D0001E001F0020002100220023002400250014
:1000E000260027002D002E002A0049004A004B0060
:1000F0002B0014001A000800150017001C0018003F
:100100000C00120013002F00300028004C004D009E
:100110004E00390004001600070009000A000B0019
:100120000D000E000F00330034003200000000000C
:1001300000000000E10064001D001B000600190023
:10014000050011001000360037003800E5000000FF
:10015000000052000000E000E300E20000000000A8
:100160002C00000000000000E60001516500E400E2
:100170005000000051004F00005C00000100010031
:100180000100010001000100010001000100010067
:1001900001000100CD5CCE5CCF5C010001000100DC
:1001A0000100010001000100010001000100010047
:1001B000010001000100C55CC75CC95C01000100D1
:1001C0000100010001000100010001000100010027
:1001D0000100010001000100C65CC85CCA5C0100AE
:1001E0000100010001000100010001000100010007
:1001F00001000100010001000000000000000000FB
:100200000100010001000100010001000100145C77
:1002100001000100010001000100000000000100D8
:1002200000000100010001000000000001000000CA
:10023000000000000100010001000100C45C00009A
:10024000C25CC35C0100000001000100010001006C
:100250000100010001000100010001000100010096
:100260000100010001000100010001000100010086
:100270000100010001000100010001000100010076
:100280000100010001000100010001000100010066
:100290000100010001000100010001000100010056
:1002A0000100010001000100010001000100010046
:1002B0000100010001000100010001000100010036
:1002C000010001000000000000000000010001002A
:1002D0000100010001000100010001000100010016
:1002E0000100010001000000000001000000010009
:1002F00001000100000000000100000000000000FB
:1003000001000100010001000100000001000100E6
:1003100001000000010001000100010001000100D6
:1003200001000100010001000100010001000100C5
:1003300001000100010001000100010001000100B5
:1003400001000100010001000100010001000100A5
:100350000100010001000100010001000100010095
:100360000100010001000100010001000100010085
:100370000100010001000100010001000100010075
:100380000100010001000100010001000100010065
:100390000000000000000000010001000100010059
:1003A0000100010001000100010001000100010045
:1003B0000100000000000100000001000100010038
:1003C000000000000100000000000000010001002A
:1003D0000100010001000000010001000000000018
:1003E000000000002A2B2800000000000000000090
:1003F0000000000000000029000000002C1E342036
:10040000212224342627252E362D3738271E1F205B
:100410002122232425263333362E37381F040506A0
:100420000708090A0B0C0D0E0F10111213141516E4
:100430001718191A1B1C1D2F3130232D35040506E2
:100440000708090A0B0C0D0E0F10111213141516C4
:100450001718191A1B1C1D2F3130354C00000000D5
:10046000000000000000000000000000000000008C
:10047000000000000000000000000000000000007C
:100480007E0F00D4FFFFFFC70000007800010101CC
:100490000101010101010202020202020202020341
:1004A0000303030303030304040404040404050511
:1004B00005050506060606060707070707080808D4
:1004C00008090909090A0A0A0B0B0B0C0C0C0D0D83
:1004D0000D0E0E0E0F0F0F1010111111121213131B
:1004E0001414151516161717181819191A1A1B1B94
:1004F0001C1D1D1E1E1F20202122222324242526F0
:1005000026272829292A2B2C2D2D2E2F3031323227
:10051000333435363738393A3B3C3D3E3F40414233
:10052000434445464748494A4C4D4E4F5051535419
:10053000555658595A5B5D5E5F61626465666869CD
:100540006B6C6D6F7072737577787A7B7D7E80824D
:10055000838587888A8C8E8F91939596989A9C9E96
:10056000A0A2A3A5A7A9ABADAFB1B3B5B7BABCBEA6
:10057000C0C2C4C6C9CBCDCFD1D4D6D8DBDDDFE273
:10058000E4E7E9EBEEF0F3F5F8FAFDFF20034300B2
:10059000550038003000200076003200200049006D
:1005A00053004F00200052004700420000001A0391
:1005B000430061007000730055006E006C006F0016
:1005C00063006B0065006400000004030904090275
:1005D0005B00030100A0FA0904000001030101000F
:1005E0000921110100012240000705810308000ACA
:1005F0000904010002030000000921110100012289
:1006000022000705820320000107050303200001E3
:100610000904020001030000000921110100012268
:100620006D000705840320000A120110010000007C
:1006300008554383000100010200010660FF0961C3
:10064000A1010962150026FF0095207508810209A5
:1006500063150026FF00952075089102C005010969
:1006600080A101850319012AB700150126B700955D
:100670000175108100C0050C0901A1018504190153
:100680002AA002150126A002950175108100C0055F
:10069000010906A1018505050719E029E7150025CF
:1006A000019508750181020507190029EF1500253C
:1006B0000195F07501810205081901290595057557
:1006C000019102950175039101C005010906A1017F
:1006D000050719E029E71500250195087501810234
:1006E0009501750881010507190029FF150026FFEE
:1006F00000950675088100050819012905950575FD
:10070000019102950175039101C011241FBECFEF25
:10071000DAE0DEBFCDBF04B603FE27C08091C50579
:100720009091C605A091C705B091C8058730904B40
:10073000A740B04BD1F41092C5051092C605109297
:10074000C7051092C80514BE84B7877F84BF0FB653
:10075000F894A89580916000886180936000109261
:1007600060000FBEE0E0F8E3099513E0A0E0B1E01F
:10077000E4EAF7E602C005900D92A032B107D9F77E
:1007800025E0A0E2B3E001C01D92A53CB207E1F76D
:100790000E94712C0C9459330C9400006E9A0C94A6
:1007A000D6070E943D1D81FF07C02FEF4FEF6FEF6F
:1007B0008EE390E00E94600D0E943D1D82FF07C005
:1007C0002FEF4FEF6FEF8EE090E00C94600D0895E7
:1007D00081E0089581E008950C94EA0308950C9453
:1007E000EE031F93CF93DF9300D000D00F92CDB7CD
:1007F000DEB749835A836B8330917D0389819A8167
:1008000031111DC06623B9F02223A9F00E943127BF
:10081000182F682F89819A810E94DD2669817A814B
:10082000812F0F900F900F900F900F90DF91CF912D
:100830001F910C94581A0E940927182FEFCF0E947D
:10084000312769817A81EDCFFC01262F40815181CA
:100850006281738184810C94F103CF93DF93EC0167
:1008600060E00E942404BE01DF91CF910C94EF035D
:100870008F929F92AF92BF92CF92DF92EF92FF92B0
:100880000F931F936B017C0181E090E0A0E0B0E04A
:100890004C015D0104C0880C991CAA1CBB1C4A9524
:1008A000D2F7B501A4014C015D0104C0880C991C6C
:1008B000AA1CBB1C2A95D2F7482959296A297B29E9
:1008C00004C0880F991FAA1FBB1F0A95D2F78A017F
:1008D0009B010C211D212E213F21041715072607FE
:1008E000370789F48C299D29AE29BF29BC01CD0188
:1008F0001F910F91FF90EF90DF90CF90BF90AF903E
:100900009F908F90089580959095A095B0958C219B
:100910009D21AE21BF21EACF0F93382F262F609162
:10092000F7037091F8038091F9039091FA03042F73
:10093000432F0E9438040F910C941B260E94B12A69
:100940000E947D28811102C00E9421290E94641604
:100950000C94CE030C94D80708950E9447220E945D
:10096000AC042FEF84E39CE0215080409040E1F7FD
:1009700000C000000C94862A0F931F93CF93DF933F
:10098000EC0161E00E9424048C01BE010E949F18CA
:10099000882389F1BE01C8010E94EC03882359F124
:1009A000BE01C8010E948D1B882329F1BE01C80128
:1009B0000E94DF1B8823F9F0BE01C8010E94021DBE
:1009C0008823C9F0BE01C8010E94BE17882399F090
:1009D0008A81882339F001158CE5180751F00E3D06
:1009E0001C4579F0CE01DF91CF911F910F910C94AE
:1009F000E8030E94AD0480E0DF91CF911F910F9139
:100A000008950E942129F7CFDF92EF92FF920F9372
:100A10001F93CF93DF93E82FF0E0E452FC4FD49084
:100A2000282F26952695269530E0F901E458FB4FAE
:100A30000491877010E0082E02C0159507950A945E
:100A4000E2F701701127F901E459FB4FE490F12C12
:100A5000082E02C0F594E7940A94E2F791E0E922A7
:100A6000FF24F901E45AFB4FC491D0E002C0D595B0
:100A7000C7958A95E2F7C170DD270115110519F0B8
:100A800081EE0E94E51EE114F10419F086EE0E9449
:100A9000E51E8D2D0E94D51FEF2819F086EE0E94CD
:100AA0006F1F012B19F081EE0E946F1FCD2B51F0AB
:100AB0008CE2DF91CF911F910F91FF90EF90DF902B
:100AC0000C94D51FDF91CF911F910F91FF90EF9064
:100AD000DF900895EF92FF920F931F93CF93DF93D0
:100AE000EC01162F0AE08881882309F454C0813074
:100AF00009F04EC08981813099F47E0122E0E20E36
:100B0000F11C8A810E94D51FE7012196812F815017
:100B100050F3EFE9FFE03197F1F700C00000F7CFA5
:100B2000823041F47E0182E0E80EF11C8A810E944D
:100B3000E51EEACF833041F47E01E2E0EE0EF11CC7
:100B40008A810E946F1FE0CF843011F02196DDCFA3
:100B50002A81229690E080E0AE014F5F5F4F2053E4
:100B6000330B2A30310548F0019778F2EFE9FFE0C6
:100B70003197F1F700C00000F7CF089FB001099F3F
:100B8000700D1124C901860F971F2981EA01E4CF56
:100B90000E940405BACFDF91CF911F910F91FF9072
:100BA000EF90089560E00C946A0508950C94D505C3
:100BB00081E008950C94D805CF93C82F0E94D605E4
:100BC0008C2FCF910C94DA0590E080E00895089581
:100BD000FC01EE0FFF1FE457FB4F859194910895A0
:100BE000CF93DF930E94581A0E94FC06EC018115F6
:100BF00020E5920708F041C0811530E4930708F022
:100C0000B4C0803E910518F5803C910508F09DC068
:100C1000883A910570F4853A910508F08EC08130CC
:100C20009105F9F00097E9F00497D8F4D0E0C0E01E
:100C300018C08F3B9105D0F7C85AD0E0CC0FDD1F0C
:100C4000C857DD4F0990D881C02DD4640AC08115E2
:100C5000904258F4C11581E0D80718F4C83ED10578
:100C600028F7CE01DF91CF910895C11590E3D90700
:100C700008F071C0CE019F706AC0811525E592070A
:100C800058F5811534E5930708F09EC0811542E5BB
:100C9000940750F4C11581E5D80708F469C0DC2F2A
:100CA000CC27C16FD06ADDCF982F969596959E017F
:100CB00023703327C115D34508F077C0C1E0D0E0D9
:100CC00002C0CC0FDD1F2A95E2F720E2929FC001FF
:100CD0001124C82BD92B67C0C11589E5D807A8F402
:100CE000C11598E5D90708F074C0C11526E5D207EB
:100CF00008F09CCF8C2F0E949307C82FD0E0DC2FE8
:100D0000CC27CC27DF71D062ACCFC1153AE5D30731
:100D100008F464C0CE0190568115904208F086CF49
:100D20008D2F8F710E94930790E0982F8827882736
:100D30009F719C012C2BE901E6CFC55AD0E0CA5423
:100D4000DD4FC881D0E0D0648CCF805C91090E94D7
:100D5000E805EC0186CFCE019927D3FF03C0EC0153
:100D6000D86C7FCFEC01D06C7CCFDF70D06A79CFAC
:100D7000CE01E4E096958795EA95E1F783702C2FF4
:100D800026952695237090E2299F90011124382BF7
:100D90008C2F8370C1E0D0E002C0CC0FDD1F8A959C
:100DA000E2F7C22BD32BDC685CCFC1E0D0E002C0FD
:100DB000CC0FDD1F2A95E2F730E2939FC00111248A
:100DC000C82BD92BDA684DCFD82FCC27C46FD06A67
:100DD00048CFDC2FCC27C06FD06A43CF8C2F8F70C9
:100DE0000E94930734E0D695C7953A95E1F7CF7006
:100DF0009C2FEC01D06935CF82389105B1F1B0F468
:100E00008133910509F475C048F48932910509F4DC
:100E100069C08A32910509F473C00895853391053C
:100E200009F459C08933910501F10895833E910574
:100E3000A9F138F4803E9105F9F0823E910549F11F
:100E40000895863E9105A9F1873E9105C9F1843E3A
:100E5000910519F52091B70521FF1FC08091B605B6
:100E600084FD14C087EE90E008952091B6052370AC
:100E7000A1F080EE90E008952091B60520FD47C0D6
:100E80003091B70530FF09C024FF44C090E080E0F6
:100E900004C02091B60522FDF7CF08952091B60534
:100EA00022FD3BC03091B70530FDE3CF24FFF5CFE5
:100EB000EDCF2091B60523FFF0CF24FDE7CFD2CFB1
:100EC0002091B60523FD2CC03091B70531FFEECF40
:100ED00084EE90E008952091B60525FFDECF89E2EB
:100EE00090E008952091B60525FFD7CF85E390E0E7
:100EF00008952091B60526FFD0CF8AE290E00895AC
:100F00002091B60526FFC9CF81E390E0089589E3DB
:100F100090E0089583EE90E0089582EE90E00895C9
:100F200086EE90E008959091B60592FF06C0282FB6
:100F300028712830F9F4877F846093FF06C0282F3A
:100F400028712831F1F4877E84612091B70520FF54
:100F500006C0382F38713830D9F4877F816021FF7F
:100F600006C0282F28712831D1F4877E816194FD35
:100F7000877E0895282F24712430F9F68B7F8860AE
:100F8000DCCF282F2471243101F78B7E8861DDCFDF
:100F9000382F3171313019F78E7F8860E0CF282FDC
:100FA0002171213121F78E7E8861E1CF0895089566
:100FB0000C94D70794E0899FF0011124E05AFB4F6D
:100FC00060817181828193810895089580EA8A9574
:100FD000F1F7089500C008950C94E607F894E82FFF
:100FE000E295EF70F0E031A1282F2F7081E090E0C2
:100FF00001C0880F2A95EAF7982F9095932391A323
:1010000092A1892B82A3789408950F931F93CF9375
:10101000DF9383E90E94EE0782E90E94EE0787E3EF
:101020000E94EE0781EF0E94EE0787E60E94EE071E
:1010300085E90E94EE07C9EBD2E00AEC12E0899143
:101040000E94EE070C171D07D1F7E8E4F4E0A0E6D4
:10105000B4E011921192119211921D921D921D9263
:101060001D9284E0E036F807A1F786E00E94E108CF
:10107000DF91CF911F910F910C949E044F925F923C
:101080006F927F928F929F92AF92BF92CF92DF9298
:10109000EF92FF920F931F93CF93DF933AECA32E1F
:1010A00032E0B32E08E414E0D0E0C0E0882483945A
:1010B000912CF50181915F01F894E82FE295EF7092
:1010C000F0E021A18F70240102C0440C551C8A95C8
:1010D000E2F7C201922F982B91A392A180958923C8
:1010E00082A378940E94EA07A9EBB2E090E080E046
:1010F000C12CD12C76014D91E42FE295EF70F0E0F8
:1011000020A130E04F7002C0359527954A95E2F74F
:1011100020FD51C0412C512C32014394082E04C0B3
:10112000440C551C661C771C0A94D2F7B301A2012B
:10113000C42AD52AE62AF72A019681319105D9F6E3
:10114000F501319780810E94EE07D53011F00E94A1
:10115000EC07F80180819181A281B381C816D9067C
:10116000EA06FB0661F1C082D182E282F38281E06D
:10117000C82BDF5F0C5F1F4FD63009F09ACF2C2FA2
:1011800046E060E674E088E494E00E94E2080E9491
:10119000AA048C2FDF91CF911F910F91FF90EF90B8
:1011A000DF90CF90BF90AF909F908F907F906F9087
:1011B0005F904F90089540E050E0BA01B9CF80E0D1
:1011C000D7CF0895FF920F931F93CF93DF93F82EFD
:1011D000D92F8B01C42F222349F081E0809324036F
:1011E0000E941F2A9093230380932203809124035B
:1011F000882399F080912203909123030E94372A3B
:10120000069758F0EF2DFD2FD80190E080E0D0E058
:101210008C179D0744F010922403DF91CF911F910A
:101220000F91FF90089501911191219131910D93AA
:101230001D932D933D930196EBCFEF92FF920F9369
:101240001F93CF93DF93EB01E82FD11110C04423FC
:1012500021F0F0E0E457FB4FE4916E2F7E2F8E2FAC
:10126000DF91CF911F910F91FF90EF9008950D2F77
:1012700010E0282F30E0442329F024573B4FF90198
:10128000249130E0F6E0CF9FC0011124EFEFF0E0B1
:10129000BF010E940A32AB018C2F90E0880F991F8A
:1012A000A5E5A49FB001A59F700D1124861B970B87
:1012B000982F990F980FBF01601B710B629FD0018F
:1012C000639FB00D729FB00D11248B2F9D9FB001B5
:1012D0001124672F7727EF01C61BD70BBE01629F32
:1012E000E001639FD00D729FD00D11247F01E91A98
:1012F000F108E09EB001E19E700DF09E700D11248A
:10130000672F7727E61BF70BE29F8001E39F100D05
:10131000F29F100D1124E12F722F4230510599F0E8
:1013200048F44115510569F04130510581F0EB2F2A
:101330008D2F07C04430510569F080F046305105CB
:10134000B1F76E2F8DCFE22F7B2F812FFACFE22FB7
:101350007D2FF7CFEB2F822F712FF3CF7B2F822F93
:10136000ED2FEFCF41E00C941D0930E020E0869F87
:10137000212D969F200D311D1124C9010895AC0126
:101380008230910508F408959FEF413E8EE15807A1
:1013900040F49A0195E0369527959A95E1F798E003
:1013A000920F61E0E62FE90FFF27FF1F9F013595A0
:1013B0002795822F229FF001239FF00DF00D11241D
:1013C0004E175F0738F49FEF920F961758F78FEF7D
:1013D000860F08952F3FE9F361E0620FF6CFE82F03
:1013E00086FDE0952E2F2F7086FD2F5FE695E69502
:1013F000E695E670F0E0E053FD4F9181929F902DCD
:10140000212D112492959F702295207F922B20816F
:10141000920F87FD919580E8890F0895E42FF0E001
:10142000EE0FFF1FE659FE4F408134EE439F412DE2
:101430001124E72FF0E050E0445E5F4FDA01A21B79
:10144000B1099D01B7FF03C031952195310993E0A2
:10145000220F331F9A95E1F7AF01421B530B9A01FC
:1014600057FD20E0279F212D1124722F0895E42F8E
:10147000F0E0EE0FFF1FE659FE4F408134EE439F30
:10148000412D1124E82FF0E050E0445E5F4FDA0177
:10149000A21BB1099D01B7FF03C031952195310908
:1014A00093E0220F331F9A95E1F7AF01421B530BD4
:1014B0009A0157FD20E0582F259F212D1124822FBE
:1014C0000895622F0895E42FF0E0EE0FFF1FE65914
:1014D000FE4F6081621B0895E42FF0E0EE0FFF1FC6
:1014E000E559FE4F6081621B0895322F50E0FA01EA
:1014F000EE0FFF1FE559FE4F9081905297FD919599
:10150000440F551FFA01E659FE4F2081231B330B70
:10151000290F311D97FD3A95620F0895EF920F93B1
:10152000972F23E0029FB0011124759567956E0DEA
:10153000792F0F91EF9008950F93CF93DF93D72FCB
:10154000C82F47FD419588E390E0841B910947FD32
:101550009395889FB001899F700D700D1124229F73
:10156000C001239F900D900D1124860F971F0E949C
:10157000BF09982F990F890F682F600F7D2F8C2F2F
:10158000DF91CF910F9108950F931F93522F10E089
:10159000F801EE0FFF1FE559FE4FA081A052BB0BD3
:1015A0009D015203F001539FF00D1124000F111FF4
:1015B000D801A659BE4F0C910057110B4003900162
:1015C000419F300D11242E0F3F1F37FF02C02158BD
:1015D0003F4F220F232F221F330B620F1F910F91BA
:1015E00008950F931F93522F10E0F801EE0FFF1F85
:1015F000E559FE4FA081A052BB0B9D015203F001A3
:10160000539FF00D1124000F111FD801A659BE4F92
:101610000C910057110B40039001419F300D112494
:101620002E0F3F1F37FF02C0215C3F4F96E03595DC
:1016300027959A95E1F7620F1F910F9108950F93E7
:101640001F9310E0F801EE0FFF1FE659FE4F908147
:10165000905797FD9195000F111FF801E559FE4F26
:1016600000810052110B2003F001219FF00D112485
:1016700008E310E0091B110997FD13954003900141
:10168000419F300D1124E20FF31F9F01220F331FE2
:101690002E0F3F1F37FF02C021583F4F220F232F2D
:1016A000221F330B620F1F910F9108950F931F9309
:1016B000CF93DF938B01D82FC42F822F0E94EF0985
:1016C000EC2FF0E0EE0FFF1FE659FE4F908190588F
:1016D000890F87FD8195880F682F2CE0629F612D0F
:1016E0001124600F712F8D2FDF91CF911F910F91DA
:1016F0000895E42FF0E0EE0FFF1FE659FE4F9081B2
:10170000921B97FD9195292F38E1239F212D1124BC
:10171000620F08954095282F429F412D1124842F58
:10172000089522E8241B08F420E0620F0895EF9248
:10173000FF920F93970195E0099F200D311D112411
:101740002F3F310519F010F02FEF30E02095382FA2
:10175000320F08F43FEF832F0F91FF90EF90089521
:10176000EF92FF920F931F930E0D1F2D111DF90184
:1017700037FF03C0F195E195F10924E0EE0FFF1F5B
:101780002A95E1F7EF3FF10519F014F0EFEFF0E0E3
:101790009A0157FF03C031952195310994E0220F3A
:1017A000331F9A95E1F72E173F070CF4F901E00F6C
:1017B000F11FEF3FF10519F010F0EFEFF0E0E095C9
:1017C000282F3E2F230F08F42FEF822F1F910F9108
:1017D000FF90EF900895EF92FF920F93972F0934A7
:1017E00038F4B701601B71096F3F710519F010F0F3
:1017F0006FEF70E0485F5F4F4131510540F0A90144
:10180000485F5F4F4131510510F06FEF70E0609518
:10181000482F460F08F44FEF842F37FF02C02D5F8B
:101820003F4F359527953595279560917904620F3F
:10183000792F0F91FF90EF900895EF92FF920F9301
:101840009701201B31092F3F310519F010F02FEFC0
:1018500030E0322F3095482F430F08F44FEF842F9C
:10186000620F0F91FF90EF900895EF92FF920F9308
:101870009701201B31092F3F310519F010F02FEF90
:1018800030E02095382F320F08F43FEF832F0F916F
:10189000FF90EF900895FC019B01009729F480E0F0
:1018A00077FF2BC080E80895AC0197FF04C0442760
:1018B0005527481B590BB901640F751F37FD10C020
:1018C000241B350BC901A5E0880F991FAA95E1F7E4
:1018D0000E941E3280E2861BF7FF0FC0819508959B
:1018E000CB0165E0880F991F6A95E1F7BA01621B89
:1018F000730B0E941E3280E6EECF08950F931F9364
:10190000CF93DF93D62F172FC82FC901272F201B66
:10191000022FBA010E944B0C982F990F990F782F24
:10192000791B700F719F712D11246D2F8C2FDF91FA
:10193000CF911F910F9108950F931F93CF93DF9332
:10194000D62FC72F182FC901212F201B022FBA0114
:101950000E944B0C982F990F990F891B800F282FED
:10196000219F212D1124822F6D2F7C2FDF91CF916C
:101970001F910F910895EF920F931F93CF93DF93D1
:10198000D62F172FC82FC9010E19070FBA010E94B1
:101990004B0C702F781B719F712D11246D2F8C2F84
:1019A000DF91CF911F910F91EF900895EF920F93D8
:1019B0001F93CF93DF93D62FC72F182FC9010E196E
:1019C000010FBA010E944B0C081B202F219F212DD3
:1019D0001124822F6D2F7C2FDF91CF911F910F91BA
:1019E000EF9008950F93CF93DF93D72FC82FC9019E
:1019F000BA010E944B0C682F600F7D2F8C2FDF9156
:101A0000CF910F910895EF920F93CF93DF93D72F3C
:101A1000C82FC9010E19BA010E944B0C602F681B18
:101A20007D2F8C2FDF91CF910F91EF9008950C9423
:101A3000B20945E050E06CE170E088E794E00C9476
:101A4000E53245E050E06CE170E088E794E00C940A
:101A50000333E8E7F4E085E3808380918502909189
:101A60008602A091870281839283A3838FE7848378
:101A70000C94210D80E008950F931F93CF93DF9373
:101A8000C82FD62F8A010E943A0D91E1C99FB0015B
:101A900011246C5F7E4F6D0F711DFB0190819F3F84
:101AA00029F0F801E80FF11D90838F5FDF91CF914E
:101AB0001F910F910895E091DE02F091DF020994E9
:101AC000E091DA02F091DB0209945F926F927F92CB
:101AD0008F929F92AF92BF92CF92DF92EF92FF923E
:101AE0000F931F93CF93DF935C014B01FC01C081E7
:101AF00082E1C89FC02D112412E11C0FF12E19356F
:101B000010F038E5F32E60917C04669580917D0499
:101B100090917E040E94B509582ED0E0CF15A0F018
:101B200081E0183508F080E0DF91CF911F910F918F
:101B3000FF90EF90DF90CF90BF90AF909F908F90ED
:101B40007F906F905F900895FE01E65EFD4F80816B
:101B5000F50191818923C9F1CE01880F991F8C5F0E
:101B60009E4FFC01EA59FF4F2081422F4057550BF1
:101B70006A0189599F4FFC018081282F2052330B25
:101B80003901449F9001459F300D300D1124669C12
:101B9000C001679C900D900D1124820F931F0E942D
:101BA000BF09082F6091790470917A0480917B04B9
:101BB000E52C9301A601F40109950E94170D462F0B
:101BC000282F672FCE010E94600D2196A7CF6BEBC7
:101BD0007CE00C94650D66ED7CE00C94650D6EE880
:101BE0007AE00C94650D63E07DE00C94650DAF9296
:101BF000BF92CF92DF92EF92FF920F931F93CF93FA
:101C0000DF936C017B01FC01C08182E1C89FC02D84
:101C1000112412E11C0FB12E193510F038E5B32E46
:101C200060917C04669580917D0490917E040E9471
:101C3000B509A82ED0E0CB1578F081E0183508F072
:101C400080E0DF91CF911F910F91FF90EF90DF9097
:101C5000CF90BF90AF900895FE01E65EFD4F80816A
:101C6000F6019181892311F1CE01880F991F8C5FB4
:101C70009E4FFC01E959FF4F20812052330B8A59B6
:101C80009F4FFC0140814057550B60917904709142
:101C90007A0480917B040A2DF70109950E94170DA3
:101CA000462F282F672FCE010E94600D2196C3CFAB
:101CB0006EE77CE00C94F70D6CE97CE00C94F70D7A
:101CC0006CE97AE00C94F70D62EF7CE00C94F70D70
:101CD000BF92CF92DF92EF92FF920F931F93CF9319
:101CE000DF936C017B01FC01C08182E1C89FC02DA4
:101CF000112412E11C0F012F193508F008E560913D
:101D00007C046695669580917D0490917E040E9486
:101D1000B509B82ED0E0C01770F081E0183508F092
:101D200080E0DF91CF911F910F91FF90EF90DF90B6
:101D3000CF90BF900895FE01E65EFD4F8081F601D1
:101D40009181892391F06091790470917A04809156
:101D50007B042B2D4C2FF70109950E94170D462F60
:101D6000282F672FCE010E94600D2196D4CF6EE000
:101D70007AE00C94680E67E37AE00C94680E61E6F2
:101D80007AE00C94680E63E67AE00C94680E6CE6D8
:101D90007AE00C94680E65E77AE00C94680E66E5CC
:101DA0007BE00C94680E69E77BE00C94680E7F92F0
:101DB0008F929F92AF92BF92CF92DF92EF92FF925B
:101DC0000F931F93CF93DF935C016B01FC01C081E4
:101DD00082E1C89FC02D112412E11C0F912E1935EC
:101DE00010F038E5932E60917C046695669580919D
:101DF0007D0490917E040E94B509F82E80E48F0D39
:101E00000E94EF0990E8892E880E8F2D0E94EF091D
:101E100020E8722E780ED0E0C91590F081E01835D8
:101E200008F080E0DF91CF911F910F91FF90EF902C
:101E3000DF90CF90BF90AF909F908F907F9008954C
:101E4000FE01E65EFD4F8081F50191818923A1F0BD
:101E50006091790470917A0480917B04EF2C0C2FAF
:101E6000272D482DF60109950E94170D462F282F82
:101E7000672FCE010E94600D2196CECF64EC7AE0F0
:101E80000C94D70E61EF7AE00C94D70E6FE17BE0F3
:101E90000C94D70EAF92BF92CF92DF92EF92FF9247
:101EA0000F931F93CF93DF937C016B01FC01C081E3
:101EB00082E1C89FC02D112422E1B22EBC0EAB2CB2
:101EC000F8E5FB1510F498E5A92E20917C0430E08C
:101ED00050E040E06FEF7FEF80E090E00E94323210
:101EE0008901D0E02C2FCA1580F081E0F7E5FB15C1
:101EF00008F480E0DF91CF911F910F91FF90EF9058
:101F0000DF90CF90BF90AF900895FE01E65EFD4F49
:101F10008081F70191818923F1F040918104415042
:101F2000042E000C550B47FF18C0C80160917C04BB
:101F30000E94B509AC016091790470917A04809196
:101F40007B04F60109950E94170D462F282F672F55
:101F5000CE010E94600D2196C5CFFA01EF57FB4FCD
:101F6000818982130AC0FA01EE0FFF1FEF57FB4F62
:101F7000818D928D80179107C8F241505109D3CFBE
:101F80006AE87BE00C944A0F61E97BE00C944A0F0D
:101F90002F923F924F925F926F927F928F929F9279
:101FA000AF92BF92CF92DF92EF92FF920F931F9367
:101FB000CF93DF93CDB7DEB72B970FB6F894DEBF84
:101FC0000FBECDBF8C832B015F834E83FB01F0815D
:101FD00082E1F89F802D112489838E5E8A838B8312
:101FE000893510F028E52B83309181043D83998158
:101FF000892F90E09B878A87880F991FFC01E659FB
:10200000FE4F6F01FC818F2F90E09C012F5F3F4FAF
:1020100039872887EB81FA85FE17F0F081E02A8165
:10202000283508F080E02B960FB6F894DEBF0FBE7F
:10203000CDBFDF91CF911F910F91FF90EF90DF9077
:10204000CF90BF90AF909F908F907F906F905F9058
:102050004F903F902F900895EA85FB85E65EFD4FF7
:102060008081F2019181892301F1209079043090DF
:102070007A04288539852F573B4F39013C813983B4
:1020800010E029813D812317C8F020917B04129F25
:10209000112D1124B101812F0E94170D462F282FD9
:1020A000672F8A859B850E94600D8A859B85019696
:1020B0009B878A8792E0C90ED11CACCFF301819136
:1020C0003F01F601A080A81ABB088180F301878137
:1020D000881A9908AA9C9001AB9C300D300D1124F0
:1020E000889CC001899C900D900D1124820F931F34
:1020F0000E94BF09082FF301EE0FFF1FE158F440C3
:1021000060917C04858996890E94B5097C019401BF
:10211000A501B101812FEE81FF8109951B01F98194
:10212000FF5FF983182FADCF2091810431E0231B8D
:1021300008F420E047E95BE0BC01822F0C94C80F53
:1021400047E95BE0BC0180E00C94C80F209181045A
:1021500031E0231B08F420E040EB5BE0BC01822F60
:102160000C94C80F40EB5BE0BC0180E00C94C80FFE
:102170002091810431E0231B08F420E04BEE5BE06A
:10218000BC01822F0C94C80F4BEE5BE0BC0180E0D9
:102190000C94C80F2091810431E0231B08F420E047
:1021A0004DE15CE0BC01822F0C94C80F4DE15CE076
:1021B000BC0180E00C94C80F2091810431E0231B06
:1021C00008F420E045E35CE0BC01822F0C94C80FCA
:1021D00045E35CE0BC0180E00C94C80FBF92CF9255
:1021E000DF92EF92FF920F931F93CF93DF937C01C7
:1021F000FC01C08182E1C89FC02D112412E11C0F97
:10220000012F193508F008E56091790470917A047E
:1022100080917B040E94170DD62EC72EB82ED0E0D9
:10222000C01770F081E0183508F080E0DF91CF91A1
:102230001F910F91FF90EF90DF90CF90BF90089586
:10224000FE01E65EFD4F8081F7019181892331F027
:102250002B2D4D2D6C2DCE010E94600D2196E0CFCF
:102260008F929F92AF92BF92CF92DF92EF92FF92A6
:102270000F931F93CF93DF937C01FC01C08182E118
:10228000C89FC02D112412E11C0F012F193508F031
:1022900008E5C0907A04D0907B04D09179046D2F2A
:1022A0007C2D8D2D0E94170DB62EA72E982E609195
:1022B0007C046D0F7C2D8D2D0E94170DD62EC72E00
:1022C000882ED0E0C01788F081E0183508F080E053
:1022D000DF91CF911F910F91FF90EF90DF90CF9002
:1022E000BF90AF909F908F900895FE01E65EFD4FE6
:1022F0009081F7018181892359F0282D4D2D6C2D76
:1023000090FD03C0292D4B2D6A2DCE010E94600D3A
:102310002196D8CFBF92CF92DF92EF92FF920F9388
:102320001F93CF93DF937C01FC01C08182E1C89FA2
:10233000C02D112412E11C0FD12E193510F098E593
:10234000D92EC0907A04B0907B0420917C0400E4E4
:10235000029F012D1124D0E0CD1570F081E01835D9
:1023600008F080E0DF91CF911F910F91FF90EF90E7
:10237000DF90CF90BF900895FE01E65EFD4F808113
:10238000F70191818923B9F0FE01EE0FFF1FE55996
:10239000FE4F808182958F7060917904809F600DDF
:1023A00011247C2D8B2D0E94170D462F282F672F6F
:1023B000CE010E94600D2196CFCFBF92CF92DF92C7
:1023C000EF92FF920F931F93CF93DF938C01FC0149
:1023D000C08182E1C89FC02D112452E1F52EFC0E70
:1023E000DF2CF8E5FF1510F448E5D42EC0907A04F0
:1023F000B0907B0420917C0430E4E32E3E2D329F8C
:10240000312D1124E32ED0E0CD1578F081E037E5B1
:102410003F1508F480E0DF91CF911F910F91FF905D
:10242000EF90DF90CF90BF900895FE01E65EFD4FE4
:102430008081F80191818923D9F0FE01EE0FFF1F01
:10244000E659FE4F6081E69EB001112495E0759536
:1024500067959A95E1F780917904680F7C2D8B2D13
:102460000E94170D462F282F672FCE010E94600D66
:102470002196CACFBF92CF92DF92EF92FF920F9335
:102480001F93CF93DF938C01FC01C08182E1C89F31
:10249000C02D112492E1F92EFC0EEF2CF8E5FF156A
:1024A00010F488E5E82ED0907904D0917A04C09099
:1024B0007B0460917C0466956695669580917D04A9
:1024C00090917E040E94B5090E94EF09805887FD13
:1024D0008195880F282F3C2D239F212D1124822F99
:1024E0006D2D7D2F0E94170DD62EC72EB82ED0E051
:1024F000CE1578F081E027E52F1508F480E0DF9114
:10250000CF911F910F91FF90EF90DF90CF90BF90F0
:102510000895FE01E65EFD4F8081F80191818923D7
:1025200031F02B2D4D2D6C2DCE010E94600D21968A
:10253000DFCFDF92EF92FF920F931F93CF93DF9342
:102540008C01FC01E65EFD4F8081682381F1D09013
:102550007A04D0917B04C0917904EC2EF12C0E9476
:10256000CC32282FC7018C549F4F68E671E00E943F
:102570001E328E199F0997FD03969595879595951F
:10258000879523706C2F289F600D11247D2D8D2F32
:102590000E94170D462F282F672FC801DF91CF917A
:1025A0001F910F91FF90EF90DF900C94600DDF91E1
:1025B000CF911F910F91FF90EF90DF900895DF92E0
:1025C000EF92FF920F931F93CF93DF938C01FC0147
:1025D000C281C11125C060917C0420E1620F08F422
:1025E0006FEF80917D0490917E040E94B5096AE0AE
:1025F00070E00E940A32892B51F40E94CC3268E5C7
:1026000070E00E941E32F80161810E9499128C2FA5
:10261000DF91CF911F910F91FF90EF90DF90089580
:10262000C08182E1C89FC02D112482E1D82EDC0E2A
:102630008D2DF8E5FD1508F488E5D0E0E82EF12CA5
:10264000CE15DF0534F0C1E0F7E5FD1500F7C0E079
:10265000DECFF8016181CE010E9499122196F0CF60
:102660001F93CF93DF93EC01FC01E65EFD4F808169
:102670006823A1F00E94CC32182F0E94CC32612F27
:10268000782F80917B040E94170D462F282F672FEB
:10269000CE01DF91CF911F910C94600DDF91CF910E
:1026A0001F910895DF92EF92FF920F931F93CF93A4
:1026B000DF938C01FC01C281C11125C060917C04B3
:1026C00020E1620F08F46FEF80917D0490917E0409
:1026D0000E94B50965E070E00E940A32892B51F42E
:1026E0000E94CC3268E570E00E941E32F8016181E0
:1026F0000E9430138C2FDF91CF911F910F91FF908B
:10270000EF90DF900895C08182E1C89FC02D112411
:1027100082E1D82EDC0E8D2DF8E5FD1508F488E554
:10272000D0E0E82EF12CCE15DF0534F0C1E0F7E55E
:10273000FD1500F7C0E0DECFF8016181CE010E94F7
:1027400030132196F0CFBF92CF92DF92EF92FF929B
:102750000F931F93CF93DF937C01FC01C08182E133
:10276000C89FC02D112412E11C0F012F193508F04C
:1027700008E5C0907A04D0907B04D09179046091F0
:102780007C0466956695669580917D0490917E04A3
:102790000E94B5090E94EF09805887FD8195880F36
:1027A000682F2CE0629F612D11246D0F7C2D8D2DE3
:1027B0000E94B209D62EC72EB82ED0E0C01770F0F6
:1027C00081E0183508F080E0DF91CF911F910F91E3
:1027D000FF90EF90DF90CF90BF900895FE01E65EEE
:1027E000FD4F8081F7019181892331F02B2D4D2DF3
:1027F0006C2DCE010E94600D2196E0CFE091DC02AD
:10280000F091DD020994CF92DF92EF92FF920F9345
:102810001F93CF93DF93CDB7DEB728970FB6F89409
:10282000DEBF0FBECDBF182F062FF42E0E94BB1D9A
:10283000882309F44BC0FF2009F457C0AE014F5F55
:102840005F4F602F812F0E943C0DF82EE0902503F2
:102850000F2D10E0C8018E0D911D099764F188E0DD
:1028600090E06C01C01AD10AB8016A5D7C4FA601E4
:1028700086E293E00E94DC32B801625D7C4FA601E3
:102880008EE293E00E94DC32A601440F551FB8018E
:10289000660F771F625C7C4F8EE393E00E94DC3210
:1028A000B8016A5C7C4FA60186E393E00E94DC32AB
:1028B000EA94E092250310912503DE01119640E091
:1028C000842F810FF41213C08093250328960FB62E
:1028D000F894DEBF0FBECDBFDF91CF911F910F9156
:1028E000FF90EF90DF90CF900895F12CAFCF5D91E6
:1028F000252F30E090E0BC016B5D7C4FF901EE0FBD
:10290000FF1FE659FE4F0081FB010183220F331F99
:10291000F901E559FE4F2081FB012187518B880F7A
:10292000991FFC01EB5DFC4F128E118E4F5FC8CFDB
:1029300008950E94D1030C94981408950895CF939C
:10294000DF93FC01C08182E1C89FC02D1124DEEE1F
:10295000DC0FC93508F0C8E56C2F8D2F0E949D143F
:102960006C2F8D2FDF91CF910C949E144F925F921C
:102970006F927F928F929F92AF92BF92CF92DF928F
:10298000EF92FF92CF9360914E0370914F0380912D
:102990005003909151030E94462A6B017C010E94D2
:1029A0002B2A4B015C0180924E0390924F03A09220
:1029B0005003B0925103A0912503E5E2F3E08A2F82
:1029C00090E04FEF5FEF60E070E04C195D096E0939
:1029D0007F09A91325C08093250380917804C82F0F
:1029E000C37019F0C82FC695C695909172029130A8
:1029F00009F440C0992339F1923009F449C1933068
:102A000009F44FC1CF91FF90EF90DF90CF90BF902E
:102A1000AF909F908F907F906F905F904F900895B0
:102A2000218D328D2901712C612C441555056605C7
:102A3000770520F481509F5F3296CBCF2C0D3D1D42
:102A4000328F218FF8CF1092730280927D04909282
:102A50007E04A0927F04B092800489E2E5E2F3E074
:102A6000A1E8B4E001900D928A95E1F781E08093AE
:102A70007202C8CF90917602C91315C0982F937037
:102A80002091770230E081E09217130609F480E08C
:102A9000817080937502C83278F4EC2FF0E0E55A2B
:102AA000FC4C0C94513281E0F3CF882359F040E084
:102AB00060E080E00E94FE1380E004C083E792E0C3
:102AC0000E94EE10909173029F5F909373028111A8
:102AD000DBC082E080937202809175028111D4C0C4
:102AE000CC2309F4DCC00E94991483E792E0CF91D3
:102AF000FF90EF90DF90CF90BF90AF909F908F901E
:102B00007F906F905F904F900C949F1483E792E0BA
:102B10000E943011D7CF83E792E00E948A11D2CF72
:102B200083E792E00E94DD11CDCF83E792E00E941F
:102B30003A12C8CF83E792E00E94B70EC3CF83E773
:102B400092E00E94BB0EBECF83E792E00E94580E37
:102B5000B9CF83E792E00E945C0EB4CF83E792E0A6
:102B60000E94E70DAFCF83E792E00E94EB0DAACF62
:102B700083E792E00E94BF0EA5CF83E792E00E9418
:102B8000C30EA0CF83E792E00E94C70E9BCF83E7DE
:102B900092E00E94CB0E96CF83E792E00E94EF0D69
:102BA00091CF83E792E00E94600E8CCF83E792E0A2
:102BB0000E94640E87CF83E792E00E94F30D82CFDC
:102BC00083E792E00E943E0F7DCF83E792E00E9470
:102BD000420F78CF83E792E00E94460F73CF83E7DE
:102BE00092E00E94DF126ECF83E792E00E945213C0
:102BF00069CF83E792E00E94A31364CF83E792E05A
:102C00000E94CF0E5FCF83E792E00E94D30E5ACF8F
:102C100083E792E00E94C00F55CF83E792E00E94C5
:102C2000C40F50CF83E792E00E9494104BCF83E70C
:102C300092E00E94A01046CF83E792E00E94A61087
:102C400041CF83E792E00E94B2103CCF83E792E04D
:102C50000E94B81037CF83E792E00E94C41032CFB1
:102C600083E792E00E94CA102DCF83E792E00E9492
:102C7000D61028CF83E792E00E94DC1023CF83E7B1
:102C800092E00E94E8101ECFCC2309F4BBCE2BCFDC
:102C9000C09376028370809377020E945B0D83E07D
:102CA000E6CE60917D0470917E0480917F049091C6
:102CB00080040E94462A603171058105910508F45F
:102CC000A1CE109272029ECEE091D802F091D9026C
:102CD0000995109281048FEF9FEF90939B0480934E
:102CE0009A0490939D0480939C0490939F048093F6
:102CF0009E049093A1048093A0049093A3048093D6
:102D0000A2049093A5048093A4049093A7048093B5
:102D1000A6049093A9048093A8041092250390938D
:102D20003F0380933E03909341038093400390932D
:102D3000430380934203909345038093440390930D
:102D400047038093460390934903809348039093ED
:102D50004B0380934A0390934D0380934C030E944E
:102D60007D28811104C00E9421290E94290D0E9402
:102D7000190D809178048C7F11F40C94290D08951D
:102D80009091780421E09227909378041092720237
:102D900081110C94210D089581E00C94C01690913E
:102DA0007804937099F0811109C09460909378042D
:102DB00010927202662351F00C94210D883210F0AB
:102DC0009C69F4CF880F880F982BF0CF089561E0AD
:102DD0000C94CF16682F909178049695969581E083
:102DE000890F883208F081E00C94CF1681E00C94B2
:102DF000EA16682F90917804969596958FEF890F33
:102E000009F487E20C94CF1681E00C94F9169091A6
:102E10007804937061F08093790460937A0443336B
:102E200008F042E340937B0421110C94210D089596
:102E3000A8E7B4E01196EC911197F0E0282F1396D3
:102E40004C91139712966C91CF0108960C9407172A
:102E500081E00C941817E8E7F4E09181282F438172
:102E60006281E92FE850FF0BCF010C94071781E036
:102E70000C942B17E8E7F4E0628120E1620F08F47C
:102E80006FEF9181282F4381892F90E00C940717D1
:102E900081E00C943A17E8E7F4E0628120E1621BDC
:102EA00008F460E09181282F4381892F90E00C94F1
:102EB000071781E00C944B17E8E7F4E0438120E129
:102EC000420F08F44FEF9181282F6281892F90E003
:102ED0000C94071781E00C945C17E8E7F4E0438159
:102EE00020E1421B08F440E09181282F6281892F64
:102EF00090E00C94071781E00C946D1720917C04EE
:102F000030E1230F08F42FEF20937C0481110C94FF
:102F1000210D089581E00C947E1720917C0430E10E
:102F2000231B08F420E020937C0481110C94210DD4
:102F3000089581E00C948D170895FC01EE0FFF1F9A
:102F4000E80FF91FE655FB4F618340832283089504
:102F5000EAEAF4E0818360834283339695E0E23BC2
:102F6000F907C1F7089568E570E08AEA94E00C94E7
:102F70001C18FA01811101C0FB0109940F931F93E2
:102F8000CF938C01FB01C281CC2309F453C00E9472
:102F9000C6278272F801E25CFC45E431F10538F4A1
:102FA000ED57FC4C0C9451320E94CC16C0E08C2F93
:102FB000CF911F910F91089544E057E166EF76E1BC
:102FC0000E94B917F3CF46EF56E164E077E1F8CFFE
:102FD00047E357E168E277E1F3CF48E257E167E37F
:102FE00077E1EECF49E557E168E477E1E9CF48E4DE
:102FF00057E169E577E1E4CF4BE757E16AE677E12E
:10300000DFCF4AE657E16BE777E1DACF49E957E1ED
:103010006AE877E1D5CF4AE857E169E977E1D0CFAF
:1030200081E00E94E716C2CF85E0FBCF8DE0F9CFAB
:1030300082E1F7CFC1E0BBCF6E9A4EB14F7B5EB15C
:103040005064EFB7F8949B01220F331F260F371FF0
:10305000280F391F2817390741F4EFBF8FE594E097
:103060000197F1F700C000000895DC016D91CD01DA
:1030700078E05EB9000000C067FF4EB9660F00003F
:1030800000C000C000C04EB900C07A9591F7E2CFF1
:1030900082E290E00E94F532813289F483E290E08E
:1030A0000E94F532843059F484E290E00E94F532B7
:1030B00091E0893109F090E0892F8170089580E0D6
:1030C000FCCFCF93C82F6FEF811161E282E290E0D5
:1030D0000E9413336FEFC11164E083E290E00E941D
:1030E00013336FEFC11169E184E290E0CF910C944A
:1030F000133380E00E9461180C947728089585E2CC
:1031000090E00E94F532682F70E090E080E0089532
:1031100085E290E00C9413330E947E180E944818B8
:1031200081110CC060E070E0CB010E9488180E9401
:10313000D0190E94BA1A81E00C9461180895CF93B7
:10314000FB01C281CC2309F19C0122513F45203172
:10315000310520F582510E94CA1AC0E08C2FCF9110
:10316000089581E00E94412643E062E081E00E94F0
:103170008C04F3CF81E00E94622643E062E081E0AC
:103180000E948C04EBCF82E0F6CF8031FFE59F07F1
:1031900089F381319F45B9F3C1E0E0CF8031EFE59C
:1031A0009E07F9F281319F45C9F682E0DBCF2FEF10
:1031B000FC0120830895EF92FF920F931F93CF930A
:1031C000DF93EC01E62EE881E150E33108F05FC0C7
:1031D000F0E0E956FC4C0C945132198289E08A8364
:1031E0006E2DCE01DF91CF911F910F91FF90EF9047
:1031F0000C94652B8981823069F0833071F08130C5
:10320000E1F40E942B2A0E9457326A837B838C83CD
:103210009D83E6CF0E947F18F6CF8E01F12C8F2D73
:103220000E94DA07F801828373836483F3940D5F4D
:103230001F4FF6E0FF12F3CFD3CF6E2DCE010E94C9
:10324000D718CECF89818230C1F76A817B818C818A
:103250009D810E9457320E948818C2CF4B816A819B
:1032600089810E94A2199827892798279D838C839A
:10327000B7CF2C813D813227232732274B816A81AA
:1032800089810E94BB19ACCF0E94D019A9CF8FEFC2
:103290008883A6CF0E94651A8983A2CF0E94671AED
:1032A0009827892798279A8389839ACF6B8170E022
:1032B00089819A81AE014C5F5F4F982789279827B3
:1032C0000E946A1A8DCF6B8170E089819A81AE016C
:1032D0004C5F5F4F9827892798270E94901A80CFCC
:1032E0000E94BA1A7DCF0E949019D6CF6B8170E0F0
:1032F00089819A81AE014C5F5F4F98278927982773
:103300000E94081A6DCF6B8170E089819A81AE01AD
:103310004C5F5F4F9827892798270E942E1A60CF0D
:1033200084E0089550E0440F551F92E2699F400DDC
:10333000511D11249CEC899F400D511D1124CA017F
:10334000869608950F931F93CF93DF930E9492194F
:103350008C010E94F532C82FD0E0DC2FCC27C801A9
:1033600001960E94F5329E01282BC901DF91CF9171
:103370001F910F9108950F931F93CF93DF93122FF7
:10338000032F0E949219EC01602F0E941333612FCA
:10339000CE010196DF91CF911F910F910C941333C1
:1033A000AF92BF92CF92DF92EF92FF921F93CF9393
:1033B000DF938CEAC82E80E0D82ED0E07601C0E002
:1033C00014C0F50125913491412F6C2F8D2F0E944F
:1033D000BB1982E0A80EB11C1F5F113191F782E288
:1033E000E80EF11CCF5FC63019F0570110E0E9CFAD
:1033F000DF5F8CECC80ED11CD43001F7DF91CF9188
:103400001F91FF90EF90DF90CF90BF90AF90089505
:10341000EF92FF920F931F93CF93DF93EC018A01FA
:103420007C01E60EF71ECE018696CE15DF0539F437
:10343000DF91CF911F910F91FF90EF900895C033CE
:1034400023E0D20740F40E94F532F80180830F5F39
:103450001F4F2196E8CFF8011082F9CFCF92DF926B
:10346000EF92FF920F931F93CF93DF937C016A013A
:103470008C01060F171FEC01CE018696C017D107ED
:1034800049F4DF91CF911F910F91FF90EF90DF9062
:10349000CF900895C03323E0D20740F4FE01EE1927
:1034A000FF09EC0DFD1D60810E9413332196E4CFCE
:1034B000462F843038F4763028F4613118F4672FC1
:1034C0000C94A21990E080E0089580E108958AEAC2
:1034D00090E00895EF92FF920F931F93CF93DF93A5
:1034E000EC018A017C01E60EF71ECE018A5A9C4F40
:1034F000CE15DF0539F4DF91CF911F910F91FF9029
:10350000EF900895CA3AD10540F40E94F532F801CF
:1035100080830F5F1F4F2196E8CFF8011082F9CF0B
:10352000CF92DF92EF92FF920F931F93CF93DF938F
:103530007C016A018C01060F171FEC01CE018A5A2B
:103540009C4FC017D10749F4DF91CF911F910F9184
:10355000FF90EF90DF90CF900895CA3AD10540F4E4
:10356000FE01EE19FF09EC0DFD1D60810E94133371
:103570002196E4CFCF93DF93C6E5D3E060E0CE01A0
:103580000E9413332196C11584E0D807B9F7DF9163
:10359000CF910895DF92EF92FF920F931F93CF93F5
:1035A000DF9300D000D0CDB7DEB7F82E8FE08F15B7
:1035B00040F08FEF93E00E94F53206E513E0882398
:1035C000C1F00F900F900F900F90DF91CF911F914E
:1035D0000F91FF90EF90DF900895011584E0180798
:1035E00081F3C8010E94F532811101C0FA940F5F86
:1035F0001F4FF110F2CF19821A821B821C82DD2428
:10360000D39478018FEFE81AF80AC8010E94F532C6
:1036100089831A828823A9F29FEF980F933078F458
:103620008A83D9820E5F1F4FC7010E94F5328B83B8
:10363000882339F2CE0101960E94D205E2CF87019C
:10364000F9CF0F931F93CF93DF93C42FD22FFC0199
:1036500082818823C9F0409354030E941F2A9093CB
:1036600053038093520380E28C0F883008F050C0DF
:10367000C77081E001C0880FCA95EAF7DF91CF914A
:103680001F910F910C94DD1F10915403141335C03A
:1036900080915203909153030E94372A883C9105F0
:1036A00060F5C0E2CD0F1D17B9F080E2810F8830C0
:1036B00040F4177081E001C0880F1A95EAF70E9464
:1036C000E41FC83048F481E09D2F977001C0880F37
:1036D0009A95EAF70E94DD1F802F0E94D51FC830FF
:1036E000B8F4D77081E001C0880FDA95EAF7DF916E
:1036F000CF911F910F910C94E41F80E28C0F8830C2
:1037000038F4C77081E001C0880FCA95EAF7EFCF9F
:10371000DF91CF911F910F9108950F939C01CB01E1
:10372000233F4CE5340759F1A8F4283DFCE53F0759
:1037300001F1293D4CE53407D1F1273D3C4591F499
:1037400006E221EE41EE67ED7CE50E94211B80E060
:103750000F910895253FFCE53F07E9F0B0F0263FC3
:103760003C45F9F0FC018281882339F11092540321
:10377000EFCF07E225EE45EE68ED7CE5E6CF06E209
:1037800021EE40EE63EF7CE5E0CF07E225EE44EE6C
:1037900064EF7CE5DACF06E221EE42EE65EF7CE5F0
:1037A000D4CF07E225EE46EE66EF7CE5CECF08E209
:1037B00021E045EE69ED7CE5C8CF81E0C9CFCF932C
:1037C000DF93EC01FB018281882309F419C1C23027
:1037D000FCE5DF07C0F1C6319CE5D90730F09E015A
:1037E0002A5F3C452930310570F50E94902890935E
:1037F000B7058093B605C031ECE5DE0709F4CFC00C
:1038000008F05BC0C8308CE5D80709F4B6C088F56D
:10381000C430ECE5DE0709F4A8C0C0F4C2308CE582
:10382000D80709F49CC08091B6058260C330DC459E
:1038300009F498C08091B6059091B7050E949E2822
:103840000E94472280E0DF91CF9108958091B605D4
:103850008061C630ECE5DE0709F484C08091B605CE
:103860008860C730DC4508F47DC08091B605806271
:1038700079C0CC308CE5D80709F489C070F4809108
:10388000B6058C60CA30ECE5DE0709F46BC008F4BD
:1038900078C08091B6058E7F65C0CE308CE5D807A4
:1038A00009F479C08091B6058B7FCF30DC4508F4F0
:1038B00059C08091B6058F7E55C0CB3FECE5DE0741
:1038C00009F457C030F5C3318CE5D80709F46FC04F
:1038D00078F4C131ECE5DE0709F465C0C231DC459E
:1038E00009F0A8CF0E9447228091B6058F773AC091
:1038F000C5318CE5D80709F462C008F476C0809120
:10390000B7058160CA3FDC4509F094CF8093B705C5
:1039100091CFCF3FFCE5DF0709F44DC088F48091DB
:10392000B7058D7FCD3F9CE5D90781F38091B70521
:103930008E7FCE3FDC4550F38091B7058360E6CFA4
:10394000C130FDE5DF0709F459C008F444C080E048
:10395000C230DD4509F06ECF0E9423296BCF8091E4
:10396000B60581608093B60565CF8091B605846009
:10397000F9CF8091B7058260C9CF8091B605806488
:10398000F1CF0E9447228091B6058068EBCF8091ED
:10399000B6058D7FE7CF8091B605877FE3CF809115
:1039A000B6058F7DDFCF8091B6058F7BDBCF809111
:1039B000B605837FD7CF8091B7058C7FA7CF809145
:1039C000B60582FB992790F921E0922790FB82F9B6
:1039D00090FB83F9C7CF8091B705982F9095917090
:1039E0008E7F892B90FB81F991CF0E944722909185
:1039F000B605892F97FB87F98058B4CF81E0ACCF0B
:103A000081E021CFCF93DF93EB0186319C4511F507
:103A10000E94C6279A81992399F08A7A91E009F445
:103A200090E090935503811109C089E20E94A1277B
:103A30000E94122880E0DF91CF91089585E3F6CFB0
:103A400080915503811104C089E20E94A827F0CF1C
:103A500085E3FBCF81E0EFCF90935B0380935A0324
:103A60000895E0915A03F0915B03309721F00190A3
:103A7000F081E02D099480E00895E0915A03F091DF
:103A80005B03309711F480E008950190F081E02D00
:103A900009950895E0915A03F0915B03309799F0EE
:103AA00020918402222359F02091B60527FF07C0F8
:103AB000DC012C9111962C93119725E02C93028018
:103AC000F381E02D09940895209158033091590312
:103AD0002817390771F09093590380935803E091A8
:103AE0005A03F0915B03309721F00680F781E02DB7
:103AF00009940895209156033091570328173907E8
:103B000071F09093570380935603E0915A03F0911C
:103B10005B03309721F00084F185E02D099408952E
:103B20000E942B2A6093790370937A0380937B031E
:103B300090937C036093750370937603809377036F
:103B400090937803089585B7806885BF85B78068AE
:103B500085BF0895089508950C94AA1D08950C94A6
:103B6000AE1D0E94A31D85E798E20E94AA2A0E942A
:103B7000AB1D0C94AC1D81E008950C94BB1D089501
:103B800008950E94162A0E9405080E948C180E941F
:103B9000C52A0C94AF1D4F925F926F927F928F92C5
:103BA0009F92AF92BF92CF92DF92EF92FF920F93CC
:103BB0001F93CF93DF93CDB7DEB72A970FB6F89454
:103BC000DEBF0FBECDBF0E94BF1D0E94C01D0E9460
:103BD0003E0881110E94901D5DE5C52E53E0D52E53
:103BE00010E000E0E02E802F0E94DA072B013C015C
:103BF000F60181909190A190B1906F018414950489
:103C0000A604B704B1F40F5F1F4F0630110551F73A
:103C10008FEF89838A831B820E941F2A8160782FFD
:103C20009D838C8349815A816B818D810E94AE1E58
:103C300051C08091240481FD0E94E507D501C40193
:103C400084259525A625B725F12C812C912C54018E
:103C50008394AC01BD01482159216A217B21452B68
:103C6000462B472B09F45AC00E94BD1D48205920FD
:103C70006A207B20DD24D39445284628472809F470
:103C8000D12C882379F0FE82EF82D8860E941F2AE9
:103C90008160782F9A8789874E815F8168858A85C0
:103CA0000E94AE1E000F111F000F111FF801E35AF2
:103CB000FC4F80819181A281B38188259925AA2515
:103CC000BB2580839183A283B3834D2D6F2D8E2DD1
:103CD0000E9403140E94B6140E94311D90915C034F
:103CE000891729F10E94311D80935C032A960FB633
:103CF000F894DEBF0FBECDBFDF91CF911F910F9122
:103D0000FF90EF90DF90CF90BF90AF909F908F90FB
:103D10007F906F905F904F900C94DC05F394880C2B
:103D2000991CAA1CBB1CF1E1FF1293CF6CCF2A9601
:103D30000FB6F894DEBF0FBECDBFDF91CF911F91BC
:103D40000F91FF90EF90DF90CF90BF90AF909F903A
:103D50008F907F906F905F904F900895DF92EF92D9
:103D6000FF920F931F93CF93DF93CDB7DEB72B97BF
:103D70000FB6F894DEBF0FBECDBF7A878B87F42EC7
:103D8000052F162FE72ED82E61110E94E6271E82DE
:103D90001D827E2DEC82DD824F2D502F612F8D2DC7
:103DA0009E812B960FB6F894DEBF0FBECDBFDF917C
:103DB000CF911F910F91FF90EF90DF900C94BD2455
:103DC000FC01808191810C947327CF93C82F8823A5
:103DD00009F483C08238C1F40E94311D81FD7DC089
:103DE00089E30E94A1270E9412282FEF81EE94E020
:103DF000215080409040E1F700C0000089E30E941C
:103E0000A827CF910C9412288338A1F40E94311D69
:103E100080FD63C083E50E94A1270E9412282FEF36
:103E200081EE94E0215080409040E1F700C0000016
:103E300083E5E5CF8438A1F40E94311D82FD4DC099
:103E400087E40E94A1270E9412282FEF81EE94E0C0
:103E5000215080409040E1F700C0000087E4CFCFC0
:103E60008CEF8C0F813A90F46C2F809178029091B6
:103E700079020E943C29882329F08C2F0E94A827D0
:103E80000E9412288C2F0E94A127BBCF80E28C0FAA
:103E9000883048F4C77081E001C0880FCA95EAF7FE
:103EA0000E94C927AECFEBE5EC0FE33040F4F0E021
:103EB000E25FFC4F808190E0CF910C94641DC85A62
:103EC000C73158F4EC2FF0E0EE0FFF1FE052FD4F2A
:103ED00080819181CF910C947A1DCF910895882390
:103EE00009F44BC0823871F40E94311D81FF45C036
:103EF00089E30E94A1270E94122889E30E94A82733
:103F00000C941228833859F40E94311D80FF35C06B
:103F100083E50E94A1270E94122883E5EFCF843811
:103F200059F40E94311D82FF28C087E40E94A12716
:103F30000E94122887E4E2CF9CEF980F913AF0F2AA
:103F400090E2980F983050F4877091E001C0990F7B
:103F50008A95EAF7892F0E94CF27D2CF9BE5980F49
:103F6000933020F490E080E00C94641D885A8731EF
:103F700020F490E080E00C947A1D08951F93CF9375
:103F8000DF93182FEB010E94E51E209731F4812F5B
:103F9000DF91CF911F910C946F1F8FE99FE00197E4
:103FA000F1F700C000002197F0CF70E060E08933A6
:103FB00011F460E570E00C94BE1F882321F00E948C
:103FC000C9270C9412280895882321F00E94CF2736
:103FD0000C9412280895BF92CF92DF92EF92FF9235
:103FE0000F931F93CF93DF936C01D62FC72FFC0144
:103FF0001281058102950F700E94BF27E82E882349
:10400000A1F0E12E112389F08C2F807F803429F0DC
:1040100080E28D0FE12C883040F082E00E945D2824
:104020000E94BF2791E0E82EE926BC2EB2949FE0C3
:10403000B922EB2DF0E0E655FC4C0C9451320C2FDC
:104040000F70C07F11F00295007F1123A9F00023AB
:1040500059F080E28D0F883010F0D11109C0802F07
:104060000E94C9270E9412288D2F0E94E51E14C0AD
:10407000802F0E94D927F6CF8D2F0E946F1F00231B
:1040800059F080E28D0F883010F0D1112CC0802FB4
:104090000E94CF270E9412282B2D2850330B24304A
:1040A000310520F40E94311D0E94DC05EE2009F448
:1040B00093C10E94BB2780FD8FC1F60112820E942E
:1040C000B5270E944126C6010E940D220E94B527F5
:1040D000DF91CF911F910F91FF90EF90DF90CF90E4
:1040E000BF900C946226802F0E94DF27D3CFFC2F35
:1040F000FF70FF2EC07FC03219F0F29480EFF822DB
:10410000DD2369F0D13049F1112391F1002351F100
:10411000F601858180FFA8CF8F70858323C011238E
:1041200081F0011106C00E94F9278F290E94DD1F2E
:10413000B3CF0130C1F70E94F9278F290E94FF27D2
:10414000ABCF011106C00E9408288F2D0E94E41FEA
:10415000A3CF013009F4A0CFF6CF112329F0063008
:1041600008F09ACF8F2DE2CF053008F095CFEDCF34
:10417000002359F3D93349F4FFEF27EE33E0F15030
:1041800020403040E1F700C000008D2F0E946F1FDB
:1041900083CF8C2F86958695837069F0813009F0E6
:1041A0007BCF8D2F9C2F9370111102C090E080E087
:1041B0000E947A1D71CF8D2F9C2F9370111102C018
:1041C00090E080E00E94641D67CF8C2F837009F01F
:1041D00041C0111161CF4D2F429546954770440F54
:1041E000440F0D2F0F7010E030E020E0042E04C0CB
:1041F000000F111F221F331F0A94D2F760E070E0F6
:10420000CB01D4FF0FC06FE070E080E090E004C00D
:10421000660F771F881F991F4A95D2F76095709592
:1042200080959095C695C695C370602B712B822B97
:10423000932BC23049F058F4C13019F00E94F32595
:104240002BCF0E94E12528CF0E94052625CF0E9472
:10425000DF2522CF8695112311F08C2F81708823C2
:1042600009F41ACF4D2F429546954770440F440FDD
:104270000D2F0F7010E030E020E0042E04C0000F7E
:10428000111F221F331F0A94D2F760E070E0CB01A8
:10429000D4FF0FC06FE070E080E090E004C0660FD4
:1042A000771F881F991F4A95D2F760957095809562
:1042B0009095C695C695C370602B712B822B932B5E
:1042C000C23049F058F4C13019F00E94B826E4CE4B
:1042D0000E94A626E1CE0E94CA26DECE0E941B26A0
:1042E000DBCECF70112329F08C2F0E9441268D2F19
:1042F0001DCF8D2F0E94E41F8C2F0E946226CCCEF2
:10430000D23F89F160F4D03FC9F0D13F29F11123A8
:1043100009F442C00111A8CE8C2F8F7121C0D33F68
:1043200039F1D43FA1F7112369F1CF718C2F0E948D
:10433000412663E08C2F0E944828AECE112341F025
:10434000053008F0A9CE8C2F8F710E948526A4CE4F
:10435000063008F0A1CEF7CF8C2F8F71112369F2B0
:104360000E94412699CE8C2F8F711123C9F3C5CF9E
:10437000112329F08C2F8F710E942C268DCE0E9444
:1043800027268ACE81E00E945D28023008F484CE80
:1043900082E00E945D2880CE002359F0D93309F0D5
:1043A000F4CE8FEF97EEE3E081509040E040E1F7EC
:1043B000EACE8C2F8F71A1CF4C2F4F706D2FC6017D
:1043C0000E94E4050E94572567CE4C2F4F706D2F39
:1043D000C6010E94E70560CEDF91CF911F910F913A
:1043E000FF90EF90DF90CF90BF9008950F931F93B1
:1043F000CF93DF93EC01688179818A810E947D27C8
:104400008C010E94DC260E94DE25B801CE01DF91DE
:10441000CF911F910F910C94EB1FCF93DF93EC0181
:104420008B819C81892B29F08881998189238F3FF9
:1044300059F4DF91CF910895CE010E94F621CE016B
:10444000DF91CF910C942D04CE010E94BC04811108
:10445000F3CF0E94BF27882361F38A81882349F321
:1044600082E0DF91CF910C945D2890E080E00E9483
:10447000641D90E080E00E947A1D0E94E6270E9461
:10448000F6270C9412280E94AF270C9435220E9424
:10449000D6270C944322E92FE295EF70E250EE30DC
:1044A00070F4F0E0E654FC4C0C945132803F19F06B
:1044B00020F4883E20F481E00895843FE1F380E019
:1044C0000895883EC0F3813FD1F7F5CF93FB88274D
:1044D00080F908950E9473270C944B22CF93DF93A9
:1044E00000D000D00F92CDB7DEB70F900F900F9095
:1044F0000F900F90DF91CF910895CF93DF9300D06D
:1045000000D000D0CDB7DEB726960FB6F894DEBF48
:104510000FBECDBFDF91CF9108951F93CF93DF934F
:10452000C0917E0316E080917F038C1304C0DF915D
:10453000CF911F910895D0E01C9FF0011D9FF00DB9
:104540001124E058FC4F4081518162817381848144
:1045500095810E947D222196C770E5CF4091B003DE
:104560005091B1036091B2037091B3038091B40391
:104570009091B5030C947D221F93CF93DF9380918C
:10458000B503807FA9F48091B203882389F08091DC
:104590007E03C0917F036091B0037091B103A0913D
:1045A000B303B091B403D62FD72316E0C81304C0C9
:1045B000DF91CF911F91089590E0109711F0DF3FA8
:1045C00019F401968770F2CF189F9001199F300D52
:1045D0001124F901E058FC4F41814713F2CF40818B
:1045E0004613EFCF42814111ECCF438154814A1BE6
:1045F0005B0B483C510528F78091B5038F708061B3
:104600008093B503F901EB57FC4F80818F70806177
:10461000808380EB93E00E940D22DF91CF911F9168
:104620000C948D22AF92BF92CF92DF92EF92FF92C5
:104630000F931F93CF93DF93CDB7DEB761970FB67C
:10464000F894DEBF0FBECDBF8C0185E0F801DE011E
:104650001D9601900D928A95E1F7F80140815181F4
:10466000E28080EBC82E83E0D82E6091B303709176
:10467000B4036115710509F461C19091B0032091F3
:10468000B103892F82238F3F09F458C1A380B480DE
:10469000F090B203F501E61BF70BFF2009F4FCC014
:1046A0008091B503382F307FE83CF10508F0B2C0A7
:1046B000311179C0FE2C251323C0941321C0E110C1
:1046C0001FC08F7080618093B5030E94AE22C60127
:1046D0000E940D228091B503F80185838F2D61968C
:1046E0000FB6F894DEBF0FBECDBFDF91CF911F9103
:1046F0000F91FF90EF90DF90CF90BF90AF90089513
:10470000AB2829F0842F85238F3F09F033C180E047
:10471000F82FF170DF2E80FF3CC080917E03209146
:104720007F0336E0821315C04D875E878D859E8599
:104730000E947327292F22952F702230F0F0243009
:1047400018F59F70F1F0F8019581907FD1F4D12C8C
:104750001EC090E0389FF001399FF00D1124E05801
:10476000FC4F6181651306C06081641303C06281E0
:104770006E110FC001968770D5CF9F7011F08823FE
:1047800031F3805E883018F3C8010E940D22FD2CA1
:10479000A5CFEE2009F4A2CF8091B503816080936C
:1047A000B503F12C9BCF251306C0941304C0F80168
:1047B000EE2009F48DC04D875E878D859E850E9411
:1047C0006A22882319F1EE2009F18091B503803225
:1047D00070F02091B0033091B10338872F83198690
:1047E000BB86AA868C87CE0107960E940D2286E0A2
:1047F000F801A0EBB3E001900D928A95E1F70E94D9
:10480000BC220E94AE22FF24F39468CFC8010E940C
:104810000D22F9CF311113C07A2DB98AA88A6E2DD5
:1048200089890E946E2280EB93E00E940D2286E02F
:10483000F60111928A95E9F70E94AE22B2CF2513B4
:104840000FC094130DC0E1100BC0F8018583C8019F
:104850000E940D2286E0F60111928A95E9F73ECF7B
:104860004D875E878D859E850E946A22882371F21E
:10487000EE2061F28091B503803208F4B8CF209128
:10488000B0033091B1033A8329831B82BD82AC828D
:104890008E83CE010196A9CFE83CF10508F041C016
:1048A000FE2CEE2009F4B2CF25132AC0941328C0A1
:1048B0008091B50380FD1BC0982F907FC1F0F80157
:1048C0008583903F31F0982F907F905F8F70892B78
:1048D0008583C8010E940D2286E0F801A0EBB3E0B9
:1048E00001900D928A95E1F70E94AE22F7CE86E004
:1048F000F801A0EBB3E001900D928A95E1F7EECEBE
:104900004D875E878D859E850E946A2281116FCFBB
:104910008091B50381608093B503C8010E940D2288
:10492000DDCE7A2DB98AA88A6E2D89890E946E22E1
:1049300086E0F60111928A95E9F7D6CFEE2009F4C8
:1049400065CF4D875E878D859E850E946A22F82EF1
:10495000882309F45BCF86E0F801A0EBB3E0019077
:104960000D928A95E1F780EB93E00E94E01E0E9491
:10497000BC22BACF81E08E25CBCE1F93CF93DF939D
:10498000CDB7DEB72C970FB6F894DEBF0FBECDBF04
:104990004F83588769877A878B879C87CE010796D4
:1049A0000E941223882369F08A859B85892B39F020
:1049B0004F815885842F85238F3F09F071C016E001
:1049C0005FC086E0FE013796DE01119601900D92E0
:1049D0008A95E1F78A859B85892B89F38F81988554
:1049E00089238F3F61F320917F0330E0C901019655
:1049F0008770992740917E034817190671F40E9429
:104A0000472210927F0310927E0386E0E0EBF3E0F2
:104A1000DF011D928A95E9F7D2CF96E0929FD001EF
:104A2000939FB00D1124A058BC4FFE013196019008
:104A30000D929A95E1F780937F030E948D22BFCF5C
:104A4000819FC001112480589C4F0E94122388230B
:104A5000E9F0E0917E031E9FF0011124E058FC4F25
:104A60004081518162817381848195810E947D2280
:104A700080917E0390E001968770992780937E0352
:104A800080917E0390917F038913DACF2C960FB625
:104A9000F894DEBF0FBECDBFDF91CF911F91089577
:104AA00069857A858B859C850E947D2288CFEF92CF
:104AB000FF920F931F93CF93DF938C01892B81F08B
:104AC000F12CEE24E394E8012196F80184918437D7
:104AD00070F4843008F05FC08130B1F08230A1F111
:104AE000DF91CF911F910F91FF90EF90089585373F
:104AF00009F44CC008F43DC09CE7980F903780F74C
:104B00008F770E946F1F49C00E5F1F4FFE01849177
:104B100090E2980F983060F48770FE2D01C0FF0F6F
:104B20008A95EAF78F2F0E94E9270E94122802C077
:104B30000E94E51E8F2D815030F2EFE9FFE03197A2
:104B4000F1F700C00000F7CF0E5F1F4FFE01849108
:104B500090E2980F983050F48770FE2D01C0FF0F3F
:104B60008A95EAF78F2F0E94EF27DFCF0E946F1FF1
:104B7000E1CF0E5F1F4FFE01C491C150D8F28FE903
:104B80009FE00197F1F700C00000F7CF0E5F1F4FC5
:104B9000FE01F490CFCF0E94E51E8E01CBCF089589
:104BA0000C94CF250E94D0256093FB037093FC03E7
:104BB0008093FD039093FE030C94352208950C948A
:104BC000D2250F931F930091FB031091FC032091BA
:104BD000FD033091FE03602B712B822B932B1F91D1
:104BE0000F910C94D2250F931F930091FB0310910A
:104BF000FC032091FD033091FE0360237123822387
:104C000093231F910F910C94D2250F931F93009122
:104C1000FB031091FC032091FD033091FE036027FC
:104C20007127822793271F910F910C94D2250C9402
:104C3000CF250C9417260E9419266093F7037093D2
:104C4000F8038093F9039093FA030C94352260E003
:104C500070E0CB010C941B260F931F9341E050E0B2
:104C600060E070E08A019B0104C0000F111F221F49
:104C7000331F8A95D2F7C901B8011F910F910C9487
:104C80001B260F931F9341E050E060E070E004C0EA
:104C9000440F551F661F771F8A95D2F78091F7033F
:104CA0009091F803A091F903B091FA038A019B0156
:104CB000082B192B2A2B3B2BC901B8011F910F91EF
:104CC0000C941B260F931F9341E050E060E070E0CE
:104CD00004C0440F551F661F771F8A95D2F7CB017A
:104CE000BA0160957095809590950091F7031091A9
:104CF000F8032091F9033091FA0360237123822392
:104D000093231F910F910C941B260F931F9341E047
:104D100050E060E070E004C0440F551F661F771F2D
:104D20008A95D2F78091F7039091F803A091F90347
:104D3000B091FA038A019B01082719272A273B27EC
:104D4000C901B8011F910F910C941B260F931F935B
:104D50000091F7031091F8032091F9033091FA03C1
:104D6000602B712B822B932B1F910F910C941B2680
:104D70000F931F930091F7031091F8032091F9030B
:104D80003091FA0360237123822393231F910F91A3
:104D90000C941B260F931F930091F7031091F803B7
:104DA0002091F9033091FA03602771278227932716
:104DB0001F910F910C941B26089521E1929F800D65
:104DC0001124982F977041E001C0440F9A95EAF79B
:104DD00086958695869595E0899FF0011124EA5481
:104DE000FC4F90E080E070E05191DF0111979B0152
:104DF000082E02C0369527950A94E2F72170219576
:104E00002527242325272C9301968530910561F7CA
:104E1000089521E1929F800D1124982F9770869517
:104E20008695869525E0829FF0011124EA54FC4F77
:104E300050E040E080E0219130E0092E02C036953C
:104E400027950A94E2F721703327042E01C0220F20
:104E50000A94EAF7822B4F5F5F4F4530510559F7AF
:104E60000895BF92CF92DF92EF92FF920F931F931C
:104E7000CF93DF938C01C090F703D090F803E090BC
:104E8000F903F090FA038091FB039091FC03A09149
:104E9000FD03B091FE03C82AD92AEA2AFB2ACFE1F2
:104EA000D0E0BC2ED701C6010C2E04C0B695A79544
:104EB000979587950A94D2F780FD0EC0219788F7C1
:104EC000B12C8B2DDF91CF911F910F91FF90EF901F
:104ED000DF90CF90BF900895B8018C2F0E94F0050D
:104EE000019761F3EECFCF93DF93EC010E9431275E
:104EF000BE01DF91CF910C94F0051F93CF93DF9308
:104F0000EB0190917D03992331F0CB01DF91CF919B
:104F10001F910C947327882379F0CB010E943127CD
:104F2000182F682FCE010E94DD26BE01812FDF9150
:104F3000CF911F910C94F005CB010E940927182FE7
:104F4000F4CF682F80917802909179020C94BC295B
:104F5000682F80917802909179020C94C7298091F2
:104F60007802909179020C94D2298091FF03859563
:104F70008595859508958091FF0387700895909198
:104F8000FF03977081E009F480E008958091230485
:104F9000089590912304892B80932304089580958C
:104FA000909123049823909323040895109223044E
:104FB000089590912204892B80932204089580956E
:104FC0009091220498239093220408951092220431
:104FD000089590912104892B809321040895809550
:104FE0009091210498239093210408951092210414
:104FF000089580910004089508950C94FC279091E1
:105000000004981721F0809300040C94FD27089564
:1050100080910004882329F01092000480E00C9411
:10502000FD270895E0917802F091790280912304A0
:105030008083E0917802F09179028081909122043E
:10504000892B8083E0917802F091790280819091A0
:105050002104892B808390910004992381F0E091B1
:105060007802F09179028081892B80838091780287
:10507000909179020E94282981110E94082880912C
:105080007802909179020C944A1D08950C94452859
:1050900098E0899F90011124622B6093FF030E9486
:1050A00041268091FF038595859585950C9446282A
:1050B0001092FF0380E00C9446289091FF038095A6
:1050C00089238093FF03282F277071F4282F082E3F
:1050D000000C330B9217130639F08595859585954D
:1050E0000E9462260C945828089580E008956FEF7E
:1050F0007FEF90E080E00C94313390E080E00E94FC
:10510000FD3221E08B3E9E4F09F020E0822F089572
:1051100082E090E00C94F53283E090E00C94F5325C
:10512000CF9384E090E00E94F532C82F81E290E0B6
:105130000E94F532982F8C2FCF910895CF93C92FCD
:10514000682F84E090E00E9413336C2F81E290E09E
:10515000CF910C941333AB01BC018FE090E00C9421
:105160002533AB01BC0183E190E00C94253360E072
:1051700070E0CB010C94B12860E070E0CB010E949C
:10518000AB280C94B7286BEE7EEF90E080E00E9495
:10519000313360E082E090E00E94133360E083E00E
:1051A00090E00E9413331092FB031092FC031092C4
:1051B000FD031092FE0360E084E090E00E94133350
:1051C00060E081E290E00E94133360E085E090E0CF
:1051D0000E94133360E086E090E00E9413336FEF8B
:1051E00087E090E00E94133340E050E0BA0188E08D
:1051F00090E00E94253360E08DE090E00E94133340
:1052000040E050E0BA0188E190E00E94253360E080
:1052100087E190E00E94133340E050E0BA018CE156
:1052200090E00E94253360E080E290E00E9413331A
:1052300040E050E0BA0188E190E00E9425330C94F0
:10524000BC280C94C328682F8EE090E00C94133394
:10525000FC01329680918402882321F08091B6056A
:105260009EE187FF96E080E0915008F40895219137
:105270002223D1F38F5FF8CF662301F120918402BE
:105280002223F1F02091B60527FF1AC0462F46953C
:10529000469546954E3190F4677021E030E002C0AB
:1052A000220F331F6A95E2F7840F911DFC01828162
:1052B00090E02823392381E0232B69F480E00895CE
:1052C000FC01329608962191261721F0E817F9077C
:1052D000D1F7F4CF81E008959C01FC0132969FEF55
:1052E00080E04191461751F09F3F19F4411101C0F0
:1052F000982F8F5F8630A9F79F3F09F40895290FF3
:10530000311D97FD3A95F90162830895FC013296AB
:1053100008962191261303C0DF0111971C92E8170C
:10532000F907B9F70895E62FE695E695E695EE318B
:1053300068F4E80FF92FF11D677021E030E001C03B
:10534000220F6A95EAF78281822B82830895E62FE5
:10535000E695E695E695EE3170F4E80FF92FF11D2C
:10536000677021E030E001C0220F6A95EAF72095CE
:10537000828128232283089520918402222329F008
:105380002091B60527FD0C9493290C946C2920914B
:105390008402222329F02091B60527FD0C94A72929
:1053A0000C948629FC01329680918402882351F066
:1053B0008091B60587FF06C08EE1DF011D928A95B8
:1053C000E9F7089586E0F9CF08950C94E4290E9446
:1053D00047220E94311D0E94DC050C94E5291F9292
:1053E0001FB61F9211248F939F93AF93BF93809109
:1053F0002504811113C08091B2059091B305A0914D
:10540000B405B091B5054196A11DB11D8093B205BB
:105410009093B305A093B405B093B505BF91AF9138
:105420009F918F911F901FBE1F90189582E084BDA1
:1054300093E095BD9AEF97BD80936E0008952FB7C6
:10544000F8948091B2059091B305A091B405B09104
:10545000B5052FBF08952FB7F8946091B2057091EC
:10546000B3058091B4059091B5052FBF08959C01B7
:105470004FB7F8948091B2059091B305A091B4050F
:10548000B091B5054FBF821B930B0895CF92DF9269
:10549000EF92FF922FB7F894C090B205D090B30569
:1054A000E090B405F090B5052FBFA7019601261B2B
:1054B000370B480B590BCA01B901FF90EF90DF90F1
:1054C000CF90089578941F921FB61F9211248F9346
:1054D0009F93AF93BF938091B2059091B305A09134
:1054E000B405B091B5050196A11DB11D8093B2051B
:1054F0009093B305A093B405B093B505BF91AF9158
:105500009F918F911F901FBE1F90189581E08093EF
:10551000E00080E28093D8001092C9008FE19EE401
:105520000197F1F700C0000087E090EBDC01809369
:10553000C5059093C605A093C705B093C80588E13B
:105540009CE00FB6F894A895809360000FBE9093EE
:105550006000FFCF909321038093200308950C9463
:1055600079180E943E088FE39CE90197F1F700C08B
:1055700000000E943E0880E00E94DA0760FF04C03D
:105580000E94AF2A0C94862A08950E947D288111DA
:1055900002C00E9421290E948828809324040E942E
:1055A00090289093B7058093B6050E948C28682FA9
:1055B00070E090E080E00E94DF256091F703709139
:1055C000F8038091F9039091FA030C9419268091C5
:1055D000460408950895CF93DF9300D00F92CDB77E
:1055E000DEB79091BC05943011F589837B836A8383
:1055F0009093E9008FEF9091E800815095FD06C0EF
:1056000095ED9A95F1F700008111F5CF8091E800B2
:1056100085FF0DC050E040E063E070E0CE010196F0
:105620000E942A2D8091E8008E778093E8000F90E9
:105630000F900F90DF91CF910895BC0184E00C94FE
:10564000EB2ABC0183E00C94EB2ACF93DF93EC01AF
:10565000809184028823B1F18091B60587FF32C022
:1056600060E284E08093E9008FEF9091E800815040
:1056700095FD06C095ED9A95F1F700008111F5CFE3
:105680008091E80085FF1BC08091840270E050E0AB
:1056900040E0811104C050E040E068E070E0CE01DD
:1056A0000E942A2D8091E8008E778093E80080E2A6
:1056B000FE01A6E2B4E001900D928A95E1F7DF9138
:1056C000CF91089568E081E0CDCFCF93FC016032A7
:1056D00021F58091BC05843001F5C091E900CF70BF
:1056E0002091EC00922F917020FD90E8C92B82E070
:1056F0008093E9008091E80080FF0CC050E040E01A
:1057000060E270E0CF010E942A2D8091E8008E7740
:105710008093E800CF70C093E900CF910895809105
:10572000BB05811109C00E94092F0E94662F80913C
:10573000E20084608093E20008951092BB05089512
:10574000089508950C94E72942E061EC81E00E94FD
:10575000852E42E261EC84E00E94852E42E261ECFB
:1057600082E00E94852E42E260EC83E00C94852E5C
:105770008091BE05833009F461C030F48130D1F1ED
:10578000823009F49DC008958A3009F489C08B30B5
:1057900009F46FC0893009F050C08091BD05813295
:1057A00009F04BC08091C1059091C205009719F096
:1057B000029709F042C08091E800877F8093E8005B
:1057C0008091E80082FF35C09091F3008091F20053
:1057D000029729F48091F1008B7F813021F4809130
:1057E000F100809346048091E8008B778093E80075
:1057F0000C94B92E8091BD05813AF9F48091E800AE
:10580000877F8093E8008091C1059091C205892B24
:1058100061F460E286E294E070E00E94C82D80911D
:10582000E8008B778093E800089560E090E080E0E6
:10583000F3CF8091BC058111C3CF08958091BD0540
:10584000813AD9F78091C1059091C205892BA9F7BA
:105850008091E800877F8093E8008091E80080FFD6
:10586000FCCF809184028093F1008091E8008E77D4
:10587000BDCF8091BD05813201F78091C105909126
:10588000C205892BD1F68091E800877F8093E800DC
:105890000E94B92E8091BF05809384020C94472208
:1058A0008091BD05813249F68091E800877F809321
:1058B000E8000E94B92E8091C005809347040895A6
:1058C0008091BD05813A09F0B8CF8091E800877FCB
:1058D0008093E8008091E80080FFFCCF809147042E
:1058E000C2CFCDB7DEB7A0970FB6F894DEBF0FBE1C
:1058F000CDBF84B7877F84BF0FB6F894A8958091F9
:105900006000886180936000109260000FBE80E8A4
:1059100090E00FB6F89480936100909361000FBE01
:105920000E94B11D0E94092F0E94662F8091E20003
:1059300084608093E20078940E94EF310E94C11D40
:105940008AE792E00E942C1D13E00E94CB1D8091FB
:10595000BC05843029F00E94BF1D0E94C01DF5CFF8
:105960001093E9008091E80082FFF5CF8091E80074
:1059700090E085FF09C050E040E060E270E0CE01B9
:1059800001960E94792D91E08091E8008B778093B9
:10599000E800992301F360E2CE0101960E94DB1832
:1059A000DACF0C94D32C292F33272330310521F162
:1059B00068F42130310509F443C02230310509F47F
:1059C00044C090E080E030E020E026C02132310584
:1059D00051F122323105A9F76330710590F7FB01CF
:1059E000EE0FFF1FEC5EFC4F208131816F5E7C4F1C
:1059F000FB01808190E010C099278130910581F0F2
:105A0000009729F00297E9F6ECE8F5E002C0EAEC2D
:105A1000F5E0849190E09F01FA013183208308959D
:105A2000EEEAF5E0F6CF6330710558F6660F771FA2
:105A3000FB01E65EFC4F2081318189E090E0ECCFF4
:105A400082E190E029E236E0E7CF8BE590E02EECB2
:105A500035E0E2CFAF92BF92CF92DF92FF920F93E9
:105A60001F93CF93DF936C01EB018A010E94D82E24
:105A7000F82E811123C00115110539F0F80180813C
:105A80009181C81BD90BC80ED91EB12CA12C20970F
:105A9000A9F08091E80085FD22C08091E8008E7712
:105AA0008093E80001151105A1F0F8018081918132
:105AB000A80EB91EB182A08285E0F82E8F2DDF914D
:105AC000CF911F910F91FF90DF90CF90BF90AF903B
:105AD00008950E94D82E8823D1F2F82EEFCFF60138
