:100000000C941B040C9462040C9462040C9462041F
:100010000C9462040C9462040C9462040C946204C8
:100020000C9462040C9462040C940C290C94E02946
:100030000C9493230C9462040C9462040C94620458
:100040000C9462040C9462040C9462040C94620498
:100050000C9462040C94EA230C9462040C946204E1
:100060000C9462040C9462040C9462040C94620478
:100070000C9462040C9462040C9462040C94620468
:100080000C9462040C9462040C9462040C94620458
:100090000C9462040C9462040C9462040C94620448
:1000A0000C9462040C9462040C9462042900000015
:1000B0003A003B003C003D003E003F004000410054
:1000C0004200430044004500460047004800350018
:1000D0001E001F0020002100220023002400250014
:1000E000260027002D002E002A0049004A004B0060
:1000F0002B0014001A000800150017001C0018003F
:100100000C00120013002F00300028004C004D009E
:100110004E00390004001600070009000A000B0019
:100120000D000E000F00330034003200000000000C
:1001300000000000E10064001D001B000600190023
:10014000050011001000360037003800E5000000FF
:10015000000052000000E000E300E20000000000A8
:100160002C00000000000000E60001516500E400E2
:100170005000000051004F00005C00000100010031
:100180000100010001000100010001000100010067
:1001900001000100CD5CCE5CCF5C010001000100DC
:1001A0000100010001000100010001000100010047
:1001B000010001000100C55CC75CC95C01000100D1
:1001C0000100010001000100010001000100010027
:1001D0000100010001000100C65CC85CCA5C0100AE
:1001E0000100010001000100010001000100010007
:1001F00001000100010001000000000000000000FB
:100200000100010001000100010001000100145C77
:1002100001000100010001000100000000000100D8
:1002200000000100010001000000000001000000CA
:10023000000000000100010001000100C45C00009A
:10024000C25CC35C0100000001000100010001006C
:100250000100010001000100010001000100010096
:100260000100010001000100010001000100010086
:100270000100010001000100010001000100010076
:100280000100010001000100010001000100010066
:100290000100010001000100010001000100010056
:1002A0000100010001000100010001000100010046
:1002B0000100010001000100010001000100010036
:1002C000010001000000000000000000010001002A
:1002D0000100010001000100010001000100010016
:1002E0000100010001000000000001000000010009
:1002F00001000100000000000100000000000000FB
:1003000001000100010001000100000001000100E6
:1003100001000000010001000100010001000100D6
:1003200001000100010001000100010001000100C5
:1003300001000100010001000100010001000100B5
:1003400001000100010001000100010001000100A5
:100350000100010001000100010001000100010095
:100360000100010001000100010001000100010085
:100370000100010001000100010001000100010075
:100380000100010001000100010001000100010065
:100390000000000000000000010001000100010059
:1003A0000100010001000100010001000100010045
:1003B0000100000000000100000001000100010038
:1003C000000000000100000000000000010001002A
:1003D0000100010001000000010001000000000018
:1003E000000000002A2B2800000000000000000090
:1003F0000000000000000029000000002C1E342036
:10040000212224342627252E362D3738271E1F205B
:100410002122232425263333362E37381F040506A0
:100420000708090A0B0C0D0E0F10111213141516E4
:100430001718191A1B1C1D2F3130232D35040506E2
:100440000708090A0B0C0D0E0F10111213141516C4
:100450001718191A1B1C1D2F3130354C00000000D5
:10046000000000000000000000000000000000008C
:10047000000000000000000000000000000000007C
:100480007E0F00D4FFFFFFC7000000781E0F05009D
:10049000047F3F1F643214643214783C1E1E140A19
:1004A000052223252628292A2C2D2F3032333536B4
:1004B000383A3B3D3E4042434547494A4C4E5051F5
:1004C000535557595A5C5E6062646668696B6D6F1C
:1004D00071737577797B7D7F81838587898A8C8E1F
:1004E00090929496989A9C9E9FA1A3A5A7A8AAAC27
:1004F000AEAFB1B3B4B6B8B9BBBCBEBFC1C2C3C561
:10050000C6C7C9CACBCCCDCED0D1D2D2D3D4D5D602
:10051000D7D7D8D9D9DADADBDBDBDCDCDCDCDCDD35
:10052000DDDDDDDCDCDCDCDCDBDBDBDADAD9D9D819
:10053000D7D7D6D5D4D3D2D2D1D0CECDCCCBCAC9B1
:10054000C7C6C5C3C2C1BFBEBCBBB9B8B6B4B3B1E0
:10055000AFAEACAAA8A7A5A3A19F9E9C9A9896947B
:1005600092908E8C8A89878583817F7D7B79777550
:1005700073716F6D6B6968666462605E5C5A59572F
:10058000555351504E4C4A4947454342403E3D3BEE
:100590003A3836353332302F2D2C2A292826252378
:1005A00022FFAA7F55400001010101010101010163
:1005B0000202020202020202020303030303030314
:1005C00003040404040404040505050505060606E1
:1005D0000606070707070708080808090909090A9E
:1005E0000A0A0B0B0B0C0C0C0D0D0D0E0E0E0F0F43
:1005F0000F101011111112121313141415151616D1
:100600001717181819191A1A1B1B1C1D1D1E1E1F3F
:100610002020212222232424252626272829292A8E
:100620002B2C2D2D2E2F30313232333435363738B6
:10063000393A3B3C3D3E3F404142434445464748B2
:10064000494A4C4D4E4F50515354555658595A5B88
:100650005D5E5F616264656668696B6C6D6F707228
:10066000737577787A7B7D7E8082838587888A8C94
:100670008E8F91939596989A9C9EA0A2A3A5A7A9C8
:10068000ABADAFB1B3B5B7BABCBEC0C2C4C6C9CBBF
:10069000CDCFD1D4D6D8DBDDDFE2E4E7E9EBEEF075
:1006A000F3F5F8FAFDFF3203630061007000730098
:1006B00075006E006C006F0063006B0065006400E5
:1006C0002F0063007500380030002F0076003200E4
:1006D0005F00690073006F0000001A0343006100AF
:1006E0007000730055006E006C006F0063006B00BB
:1006F0006500640000000403090409025B000301B3
:1007000000A0FA0904000001030101000921110100
:1007100000012240000705810308000A09040100C6
:100720000203000000092111010001222200070537
:1007300082032000010705030320000109040200D1
:100740000103000000092111010001226D000705CD
:10075000840320000A1201100100000008554380A4
:10076000000100010200010660FF0961A1010962A8
:10077000150026FF009520750881020963150026E3
:10078000FF00952075089102C005010980A101852F
:100790000319012AB700150126B7009501751081CC
:1007A00000C0050C0901A101850419012AA0021548
:1007B0000126A002950175108100C005010906A15E
:1007C000018505050719E029E7150025019508753C
:1007D0000181020507190029EF1500250195F07523
:1007E00001810205081901290595057501910295F8
:1007F0000175039101C005010906A101050719E072
:1008000029E71500250195087501810295017508F4
:1008100081010507190029FF150026FF00950675BF
:1008200008810005081901290595057501910295B2
:100830000175039101C011241FBECFEFDAE0DEBFC6
:10084000CDBF04B603FE27C08091E7059091E8056F
:10085000A091E905B091EA058730904BA740B04BD5
:10086000D1F41092E7051092E8051092E905109274
:10087000EA0514BE84B7877F84BF0FB6F894A895A5
:1008800080916000886180936000109260000FBECC
:10089000E0E0F8E3099511E0A0E0B1E0EAEAFAE56A
:1008A00002C005900D92A83DB107D9F725E0A8ED4B
:1008B000B1E001C01D92A73EB207E1F70E94F92501
:1008C0000C94042D0C94000081E0089581E00895BB
:1008D0000C94660408950C946A041F93CF93DF93DD
:1008E00000D000D00F92CDB7DEB749835A836B8317
:1008F0003091CC0389819A8131111DC06623B9F0F2
:100900002223A9F00E94D520182F682F89819A816F
:100910000E94812069817A81812F0F900F900F9022
:100920000F900F90DF91CF911F910C940C140E94A7
:10093000AD20182FEFCF0E94D52069817A81EDCFAD
:10094000FC01262F408151816281738184810C9446
:100950006D04CF93DF93EC0160E00E94A004BE0120
:10096000DF91CF910C946B048F929F92AF92BF92C4
:10097000CF92DF92EF92FF920F931F936B017C0156
:1009800081E090E0A0E0B0E04C015D0104C0880C83
:10099000991CAA1CBB1C4A95D2F7B501A4014C01B5
:1009A0005D0104C0880C991CAA1CBB1C2A95D2F7B7
:1009B000482959296A297B2904C0880F991FAA1F31
:1009C000BB1F0A95D2F78A019B010C211D212E2104
:1009D0003F21041715072607370789F48C299D291D
:1009E000AE29BF29BC01CD011F910F91FF90EF905F
:1009F000DF90CF90BF90AF909F908F90089580959B
:100A00009095A095B0958C219D21AE21BF21EACF74
:100A10000F93382F262F60914604709147048091E0
:100A2000480490914904042F432F0E94B4040F916D
:100A30000C94BF1F0E9439240E942122811102C000
:100A40000E94C5220C9451080C94540808950E94E9
:100A5000EB1B0E9426052FEF84E39CE02150804091
:100A60009040E1F700C000000C940E240F931F93F8
:100A7000CF93DF93EC0161E00E94A0048C01BE01E2
:100A80000E94F211882389F1BE01C8010E94680406
:100A9000882359F1BE01C8010E944115882329F11C
:100AA000BE01C8010E9493158823F9F0BE01C80158
:100AB0000E94B6168823C9F0BE01C8010E94FF102B
:100AC000882399F08A81882339F001158CE518076D
:100AD00051F00E3D1C4579F0CE01DF91CF911F9171
:100AE0000F910C9464040E94270580E0DF91CF9160
:100AF0001F910F9108950E94C522F7CFDF92EF92C8
:100B0000FF920F931F93CF93DF93E82FF0E0E4520F
:100B1000FC4FD490282F26952695269530E0F90194
:100B2000E458FB4F0491877010E0082E02C0159521
:100B300007950A94E2F701701127F901E459FB4F78
:100B4000E490F12C082E02C0F594E7940A94E2F7A1
:100B500091E0E922FF24F901E45AFB4FC491D0E06F
:100B600002C0D595C7958A95E2F7C170DD270115BA
:100B7000110519F081EE0E948918E114F10419F0B1
:100B800086EE0E9489188D2D0E947919EF2819F0A0
:100B900086EE0E941319012B19F081EE0E941319A1
:100BA000CD2B51F08CE2DF91CF911F910F91FF90EF
:100BB000EF90DF900C947919DF91CF911F910F91F5
:100BC000FF90EF90DF900895EF92FF920F931F93A5
:100BD000CF93DF93EC01162F0AE08881882309F474
:100BE00054C0813009F04EC08981813099F47E0172
:100BF00022E0E20EF11C8A810E947919E701219618
:100C0000812F815050F3EFE9FFE03197F1F700C0F9
:100C10000000F7CF823041F47E0182E0E80EF11C43
:100C20008A810E948918EACF833041F47E01E2E094
:100C3000EE0EF11C8A810E941319E0CF843011F06E
:100C40002196DDCF2A81229690E080E0AE014F5FB1
:100C50005F4F2053330B2A30310548F0019778F26B
:100C6000EFE9FFE03197F1F700C00000F7CF089FF0
:100C7000B001099F700D1124C901860F971F2981AA
:100C8000EA01E4CF0E947E05BACFDF91CF911F9198
:100C90000F91FF90EF90089560E00C94E4050895A3
:100CA0000C944F0681E008950C945206CF93C82F00
:100CB0000E9450068C2FCF910C94540690E080E057
:100CC00008950895FC01EE0FFF1FE457FB4F859137
:100CD00094910895CF93DF930E940C140E9476079D
:100CE000EC01811520E5920708F041C0811530E440
:100CF000930708F0B4C0803E910518F5803C91053B
:100D000008F09DC0883A910570F4853A910508F085
:100D10008EC081309105F9F00097E9F00497D8F47E
:100D2000D0E0C0E018C08F3B9105D0F7C85AD0E0A2
:100D3000CC0FDD1FCC5DDE4F0990D881C02DD4646F
:100D40000AC08115904258F4C11581E0D80718F403
:100D5000C83ED10528F7CE01DF91CF910895C11586
:100D600090E3D90708F071C0CE019F706AC0811569
:100D700025E5920758F5811534E5930708F09EC0E4
:100D8000811542E5940750F4C11581E5D80708F4B0
:100D900069C0DC2FCC27C16FD06ADDCF982F969524
:100DA00096959E0123703327C115D34508F077C06F
:100DB000C1E0D0E002C0CC0FDD1F2A95E2F720E2AF
:100DC000929FC0011124C82BD92B67C0C11589E59A
:100DD000D807A8F4C11598E5D90708F074C0C11563
:100DE00026E5D20708F09CCF8C2F0E940D08C82F53
:100DF000D0E0DC2FCC27CC27DF71D062ACCFC1157F
:100E00003AE5D30708F464C0CE01905681159042AC
:100E100008F086CF8D2F8F710E940D0890E0982FDB
:100E2000882788279F719C012C2BE901E6CFC55AA2
:100E3000D0E0CE5ADE4FC881D0E0D0648CCF805C49
:100E400091090E946206EC0186CFCE019927D3FF5B
:100E500003C0EC01D86C7FCFEC01D06C7CCFDF708D
:100E6000D06A79CFCE01E4E096958795EA95E1F7CF
:100E700083702C2F26952695237090E2299F900150
:100E80001124382B8C2F8370C1E0D0E002C0CC0F2E
:100E9000DD1F8A95E2F7C22BD32BDC685CCFC1E063
:100EA000D0E002C0CC0FDD1F2A95E2F730E2939F1D
:100EB000C0011124C82BD92BDA684DCFD82FCC27ED
:100EC000C46FD06A48CFDC2FCC27C06FD06A43CF25
:100ED0008C2F8F700E940D0834E0D695C7953A95F7
:100EE000E1F7CF709C2FEC01D06935CF82389105A6
:100EF000B1F1B0F48133910509F475C048F4893239
:100F0000910509F469C08A32910509F473C0089506
:100F10008533910509F459C08933910501F108958C
:100F2000833E9105A9F138F4803E9105F9F0823EA7
:100F3000910549F10895863E9105A9F1873E9105F5
:100F4000C9F1843E910519F52091D90521FF1FC0F3
:100F50008091D80584FD14C087EE90E0089520911B
:100F6000D8052370A1F080EE90E008952091D80577
:100F700020FD47C03091D90530FF09C024FF44C08F
:100F800090E080E004C02091D80522FDF7CF0895BD
:100F90002091D80522FD3BC03091D90530FDE3CF2B
:100FA00024FFF5CFEDCF2091D80523FFF0CF24FD0E
:100FB000E7CFD2CF2091D80523FD2CC03091D905A1
:100FC00031FFEECF84EE90E008952091D80525FF03
:100FD000DECF89E290E008952091D80525FFD7CF94
:100FE00085E390E008952091D80526FFD0CF8AE2CE
:100FF00090E008952091D80526FFC9CF81E390E0C5
:10100000089589E390E0089583EE90E0089582EEDC
:1010100090E0089586EE90E008959091D80592FFB3
:1010200006C0282F28712830F9F4877F846093FF49
:1010300006C0282F28712831F1F4877E8461209121
:10104000D90520FF06C0382F38713830D9F4877F92
:10105000816021FF06C0282F28712831D1F4877EB6
:10106000816194FD877E0895282F24712430F9F63C
:101070008B7F8860DCCF282F2471243101F78B7E91
:101080008861DDCF382F3171313019F78E7F88605C
:10109000E0CF282F2171213121F78E7E8861E1CFA9
:1010A00008950C94500808950C94530894E0899F77
:1010B000F0011124E155FB4F6081718182819381A0
:1010C0000895089580EA8A95F1F7089500C008957B
:1010D0000C946208F894E82FE295EF70F0E031A1EB
:1010E000282F2F7081E090E001C0880F2A95EAF741
:1010F000982F9095932391A392A1892B82A3789402
:1011000008950F931F93CF93DF9383E90E946A089A
:1011100082E90E946A0887E30E946A0881EF0E94C0
:101120006A0887E60E946A0885E90E946A08C5E5A0
:10113000D1E006E611E089910E946A080C171D07AC
:10114000D1F7E7E9F4E0AFEAB4E01192119211921D
:1011500011921D921D921D921D9284E0EF3AF807A4
:10116000A1F786E00E945D09DF91CF911F910F9159
:101170000C941A054F925F926F927F928F929F927A
:10118000AF92BF92CF92DF92EF92FF920F931F9395
:10119000CF93DF9336E6A32E31E0B32E07E914E0B8
:1011A000D0E0C0E088248394912CF50181915F0107
:1011B000F894E82FE295EF70F0E021A18F70240100
:1011C00002C0440C551C8A95E2F7C201922F982B5D
:1011D00091A392A18095892382A378940E946608A6
:1011E000A5E5B1E090E080E0C12CD12C76014D91D5
:1011F000E42FE295EF70F0E020A130E04F7002C0E4
:10120000359527954A95E2F720FD51C0412C512C88
:1012100032014394082E04C0440C551C661C771CF4
:101220000A94D2F7B301A201C42AD52AE62AF72AE2
:10123000019681319105D9F6F501319780810E949F
:101240006A08D53011F00E946808F8018081918108
:10125000A281B381C816D906EA06FB0661F1C082F5
:10126000D182E282F38281E0C82BDF5F0C5F1F4FE7
:10127000D63009F09ACF2C2F46E06FEA74E087E968
:1012800094E00E945E090E9424058C2FDF91CF918B
:101290001F910F91FF90EF90DF90CF90BF90AF9094
:1012A0009F908F907F906F905F904F90089540E057
:1012B00050E0BA01B9CF80E0D7CF0895FF920F93E5
:1012C0001F93CF93DF93F82ED92F8B01C42F2223A6
:1012D00049F081E08093DC010E94C3239093DB01FD
:1012E0008093DA018091DC01882399F08091DA0102
:1012F0009091DB010E94DB23069758F0EF2DFD2F24
:10130000D80190E080E0D0E08C179D0744F0109267
:10131000DC01DF91CF911F910F91FF900895019112
:101320001191219131910D931D932D933D93019630
:10133000EBCFEF92FF920F931F93CF93DF93EB01CD
:10134000E82FD11110C0442321F0F0E0EA55FA4F04
:10135000E4916E2F7E2F8E2FDF91CF911F910F91F1
:10136000FF90EF9008950D2F10E0282F30E04423D8
:1013700029F02A553A4FF901249130E0F6E0CF9F49
:10138000C0011124EFEFF0E0BF010E94AC2BAB01D4
:101390008C2F90E0880F991FA5E5A49FB001A59F11
:1013A000700D1124861B970B982F990F980FBF0172
:1013B000601B710B629FD001639FB00D729FB00DD7
:1013C00011248B2F9D9FB0011124672F7727EF01E8
:1013D000C61BD70BBE01629FE001639FD00D729FB9
:1013E000D00D11247F01E91AF108E09EB001E19EC1
:1013F000700DF09E700D1124672F7727E61BF70BF9
:10140000E29F8001E39F100DF29F100D1124E12F48
:10141000722F4230510599F048F44115510569F099
:101420004130510581F0EB2F8D2F07C0443051051D
:1014300069F080F046305105B1F76E2F8DCFE22F65
:101440007B2F812FFACFE22F7D2FF7CFEB2F822F2B
:10145000712FF3CF7B2F822FED2FEFCF41E00C9434
:10146000990908950C942E0ACF93DF93762FE90102
:10147000682F842F0E94320A798368838A83DF91E0
:10148000CF910895433308F042E30C94340A8091DD
:10149000C704982F9E7F61F4817082608093C70497
:1014A0008091CA04833318F082E38093CA040895BC
:1014B0008635B0F381708465F1CF88E090E00C94BC
:1014C000A52CCF92DF92EF92FF926B017C010E94DC
:1014D000470AB701A60188E090E0FF90EF90DF9007
:1014E000CF900C94C32C6091C7047091C804809174
:1014F000C9049091CA040C94610AE7ECF4E083E01B
:10150000808311828FEF828382E3838314826081E0
:101510007181828193810C94610A8091C70480FF5C
:1015200002C08695089580E008959091CB04933091
:1015300018F49F5F9093CB04882351F06091C70407
:101540007091C8048091C9049091CA040C94610AF6
:10155000089581E00C94950A9091CB04992319F099
:1015600091509093CB04882351F06091C7047091FF
:10157000C8048091C9049091CA040C94610A08952A
:1015800081E00C94AC0A8091CB0408958093CB0445
:10159000662351F06091C7047091C8048091C9041A
:1015A0009091CA040C94610A089560E00C94C60AF4
:1015B0008091C80408958091C90408958091CA0457
:1015C000089570E00C946F11609108018091C70438
:1015D00080FF0AC08091070123E0829FC00111248F
:1015E00084539B4F0C94E10A8091090190910A0168
:1015F00023E0829FF0011124E453FB4F891750F739
:101600001182108212828F5F3396F8CF9091C704B7
:1016100090FF14C09091090120910A0133E0939F3B
:10162000F0011124E453FB4F921710F00C94E40ADC
:101630008183608342839F5F3396F6CF0895CF9373
:10164000DF9300D00F92CDB7DEB79091C70490FF23
:101650000AC09E012F5F3F4F0E94420A4B81698161
:101660008A810E94060B0F900F900F90DF91CF910F
:101670000895CF93DF93EC01EC81F0E0EF55FB4F41
:101680004491E7ECF4E0628181810E941F0B8C8120
:101690008F5F8C83DF91CF910895CF93DF93EC011F
:1016A000E7ECF4E0438162818C810E941F0B8C8106
:1016B0008F5F8C83DF91CF9108950F931F93CF930A
:1016C000DF9300D00F92CDB7DEB78C018091DD01A2
:1016D00081110AC09E012F5F3F4F42E36FEF0E94CE
:1016E000420A8A818093DD01F8016481613069F0EA
:1016F0008091DD0140E0662361F040E0623011F44A
:101700004091DD0180E060E004C06091DD0140E0D7
:1017100080E00E94060BF801848190E0019663E06E
:1017200070E00E94C02B84830F900F900F90DF9188
:10173000CF911F910F910895AF92BF92CF92DF92F8
:10174000EF92FF920F931F93CF93DF9300D00F92EE
:10175000CDB7DEB7182FF62E042FE22E9091C704D6
:1017600090FF29C0E92FE695AE2FB0E0A459BE4FF7
:101770008C9180939F039E7F923059F59E012F5F3D
:101780003F4F812F0E94420A4B8169818A810E94CA
:10179000060B1093C804F092C9040093CA04EE200B
:1017A00051F06091C7047091C8048091C904909170
:1017B000CA040E94610A0F900F900F90DF91CF91A1
:1017C0001F910F91FF90EF90DF90CF90BF90AF905F
:1017D0000895823019F40091CA04DBCF863019F4E1
:1017E0001091C804D6CF8930D9F3893191F6E951E7
:1017F0008E2F8170D82EE695F0E0EF55FA4FA59028
:10180000B490C12CBB2460910B01C61618F00E9445
:10181000E40ABFCF2C2D30E0A29EC001A39E900D04
:10182000B29E900D112470E00E94AC2B812FD1103C
:1018300013C0860F40910901420F532F511D9A0189
:10184000220F331F240F351F24533B4F402F6F2D82
:101850000E94420AC394D7CF861BECCFE7ECF4E09A
:101860009181282F4381628188E0890F0C949C0B21
:1018700081E00C942E0CE7ECF4E09181282F438159
:10188000628188EF890F0C949C0B81E00C943B0CD7
:10189000E7ECF4E0628128E0620F08F46FEF282F94
:1018A000438181810C949C0B81E00C94480CE7EC03
:1018B000F4E0628128E0621B08F460E0282F438195
:1018C00081810C949C0B81E00C94570CE7ECF4E0C4
:1018D000438128E0420F08F44FEF282F6281818175
:1018E0000C949C0B81E00C94660CE7ECF4E04381D3
:1018F00028E0421B08F440E0282F628181810C948B
:101900009C0B81E00C94750C20E00C949C0BEF92E6
:10191000FF921F93CF93DF93EC0110E0EE24EA9443
:10192000F12C60910B01161770F00E94E40A9A8165
:101930008C8190FF27C08F5F8C83DF91CF911F91A7
:10194000FF90EF90089520910901422F410F5527F4
:10195000551FCA019A01220F331F280F391F245324
:101960003B4F70E0C7010E94C02B962F8C814091A5
:10197000CA046091C904199F800D11240E94420A73
:101980001F5FCFCF8150D8CFAF92BF92CF92DF925F
:10199000EF92FF920F931F93CF93DF93FC0182810D
:1019A0000FEF80FF01E010E048E5A42E80910B01CD
:1019B0001817C8F00E94E40A8091DF01013009F095
:1019C00055C0811102C080910B0181508093DF01CD
:1019D000DF91CF911F910F91FF90EF90DF90CF900B
:1019E000BF90AF900895C0910901C12ED12CCC0DAC
:1019F000DD2DD11DCE01880F991FC80FD91FC453EB
:101A0000DB4F198218821A8234E0E32EF12CB12CBC
:101A10008091DF018B0D89351CF16A2D0E949E2B70
:101A2000892F082E000C990BC816D90691F48091C5
:101A3000CA048E9DA0018F9D500D11245595479588
:101A4000559547959E016091C9048091C8040E94F4
:101A5000420AB00EF1E0EF1AF108D1F61F5FA6CFEF
:101A600087FFDFCF90910B01890FDBCF90E00196CC
:101A700060910B0170E00E94C02BA8CF0F931F93C1
:101A8000CF93DF938091090190910A0123E0829F17
:101A9000F0011124E453FB4F891740F1C0E0D3E07B
:101AA00060910B01C61740F10E94E40A20910501E4
:101AB0008091DE01820F8093DE0190910601920FEA
:101AC00090930601191654F4082E000C990B4091BE
:101AD0000B014150550B841795071CF0219520935D
:101AE0000501DF91CF911F910F910895118210820E
:101AF00012828F5F3396D0CF0C2F10E070E0C801B8
:101B00000E94C02B20910901820F482F50E02091A4
:101B1000DE01022E000C330B02171307BCF02091DC
:101B20000601022E000C330B201731077CF08D9F2D
:101B30009001112424533B4F4091CA046091C90481
:101B40008091C8040E94420ACF5FAACFFA01EE0F2B
:101B5000FF1FE40FF51FE453FB4F11821082128226
:101B6000F3CF8F929F92AF92BF92CF92DF92EF927C
:101B7000FF920F931F93CF93DF93EC014C81042FBF
:101B800010E09801D8010E940B2C9B01AC010E942F
:101B9000212C4B015C01E0E2F0E0E01BF10BA5E53C
:101BA000B0E0AC019B010E94212C6B017C019F01E4
:101BB000DF010E94032C9B01AC010E942C2C9B0195
:101BC000AC01280D391D4A1D5B1DC701B6010E94DD
:101BD000D42BF22E822F90E039E23F1560F143E0E2
:101BE000249F9001112435952795122F109500E020
:101BF00085E5E82EEF1880910B01081758F10E9437
:101C0000E40A9C8181E0992319F0903219F48FEF56
:101C10008093040180910401890F8C83DF91CF911F
:101C20001F910F91FF90EF90DF90CF90BF90AF90FA
:101C30009F908F90089525E530E0B901681B790BDE
:101C40009B01220F331F260F371F37FFCCCF2F5F8B
:101C50003F4FC9CF8E2D01FD8F2D20910901622F9D
:101C6000600F7727771F9B01220F331F260F371F27
:101C700024533B4F412F6091C9040E94420A0F5FD9
:101C8000BACF0F931F93CF93DF93EC0110E000E0E6
:101C900090910B019017110609F06CF40E94E40A70
:101CA0008C8190E00196817099278C83DF91CF9190
:101CB0001F910F91089520910901A801420F511D14
:101CC0009A01220F331F240F351F24533B4F4C81A1
:101CD0006091C9048091C80496959017110651F03F
:101CE0004CF0442349F04091CA040E94420A0F5F1D
:101CF0001F4FCECF4423B9F340E0F7CF4F925F920E
:101D00006F927F928F929F92AF92BF92CF92DF920B
:101D1000EF92FF920F931F93CF93DF93FC016280AA
:101D2000448081E08483E1EAF4E07490E0E2F5E04D
:101D3000E491812C75E0972EF2E0CF2EDD24D39430
:101D4000AA24AA94B12C55245A94E7190E2F10E016
:101D500080910B01881690F0DF91CF911F910F9128
:101D6000FF90EF90DF90CF90BF90AF909F908F90BB
:101D70007F906F905F904F900C94E40AE82CF12CC8
:101D800082E0861568F09E9CF0019F9CF00D112466
:101D9000E052FE4F8091C80480838091C904818302
:101DA000411023C09E9CF0019F9CF00D1124E05235
:101DB000FE4F1382128220910901C701820F911DEB
:101DC0009C01220F331F280F391F24533B4F9E9C29
:101DD000F0019F9CF00D1124E052FE4F4281618181
:101DE00080810E94420A8394B3CF9E9CE0019F9C15
:101DF000D00D1124C052DE4F8B818823E9F0815031
:101E00008B83859DC00111246C8170E00E94AC2BF6
:101E1000FB01FF27EF55FB4F8491E82FE719E59D64
:101E2000C0011124B8010E94AC2B8091CA04689FA4
:101E3000B00111247A83BFCF0E94802C2091CA0464
:101E4000269521582C9DA0012D9D500D1124452F24
:101E50005527841795070CF0AECF82E0861588F4DD
:101E60000E94802CB5010E94C02B88830E94802C88
:101E70002091C9042695622F70E00E94C02B280F84
:101E800029839E9CF0019F9CF00D1124E052FE4F8F
:101E900012828091CA04893C58F088EC9E9CF00123
:101EA0009F9CF00D1124E052FE4F8483838383CFE7
:101EB0008431A0F784E1F2CFE7ECF4E080818E7FFB
:101EC000808360817181828193810E94610A109276
:101ED000A0032FEF80E792E0215080409040E1F78F
:101EE00000C000000C94E40AE7ECF4E080818E7FEF
:101EF00080831092A0032FEF80E792E02150804072
:101F00009040E1F700C000000C94E40A6091C7041F
:101F1000669570E04BE050E08CE091E00E94902CE0
:101F2000892B19F481E08093A0030E94C32390932E
:101F300099038093980308959091C70490FF35C04A
:101F40009170811128C092609093C704662351F06C
:101F50006091C7047091C8048091C9049091CA042B
:101F60000E94610A6091C704669570E04BE050E002
:101F70008CE091E00E94902C892BA1F01092A0039C
:101F800081E080939B034091CA046091C9048091D1
:101F9000C8040C94840C8B3210F09465D5CF880F54
:101FA000982BD2CF0E94860FEBCF0895682F909187
:101FB000C704969581E0890F8B3208F081E00C947C
:101FC0009C0F81E00C94D60F682F9091C7049695D2
:101FD0008FEF890F09F48AE20C949C0F81E00C9436
:101FE000E40F61E00C949C0FE7ECF4E080818160E9
:101FF000808386950C94F10F8091C70480FD0C942A
:102000005C0F0C94F40F60E00C949C0F80919E0385
:1020100081112EC00E942122811104C00E94C5227C
:102020000E947D0A0E945D0A6093C7047093C804F1
:102030008093C9049093CA046E7F61F40E947D0A64
:102040000E945D0A6093C7047093C8048093C9041A
:102050009093CA040E94470A1092A0038091C7047B
:1020600080FF03C086950E94031081E080939E0349
:102070000895E7ECF4E080818160808386950C947C
:1020800003100F931F93CF93DF938091A0038823B6
:1020900009F496C080919F03E091C704E695E81B80
:1020A000E0939A03823091F5F0E0E356FB4FE49120
:1020B000CE2FD0E009E31BE080919B03882361F0E1
:1020C00010929B030E94C3239093990380939803DB
:1020D00010929D0310929C030E94C323E0919803E9
:1020E000F09199038E1B9F0B8F3F9F4708F068C0AC
:1020F000EC0FFD1FF0939903E093980388E993E0B8
:10210000F801DF91CF911F910F910994863049F426
:10211000F0E0E656FB4FE491CE2FD0E00DE41BE05B
:10212000CBCF893051F4E695F0E0E956FB4FE491CE
:10213000CE2FD0E007E81CE0BFCF8F3051F4E695FA
:10214000F0E0EC56FB4FE491CE2FD0E004EC1CE025
:10215000B3CF853149F4F0E0EF56FB4FE491CE2F39
:10216000D0E00EE31DE0A8CFC8E2D0E001EB1DE017
:10217000883109F4A1CF833239F4EFE8F4E0C59156
:10218000D4910DE51BE098CFC4EFD1E001E41EE04F
:10219000843209F491CFC0EDD7E001E31AE0853233
:1021A00009F08ACF8E2F63E00E94922BE92FF0E096
:1021B000E457FB4FE491CE2FD0E00EE71EE07CCF3A
:1021C000DF91CF911F910F910895FA01811101C004
:1021D000FB010994CF93DF93C82FD62F0E948D0A5D
:1021E0008C1740F00E948D0A8D1720F4DF91CF915B
:1021F0000C94E10F8C2FDF91CF910C94F10F0F9382
:102200001F93CF938C01FB01C281CC2309F465C0DD
:102210000E946A218272F801E25CFC45E431F1051A
:1022200038F4EA5FF24D0C94F62B0E94FC0FC0E0EC
:102230008C2FCF911F910F9108954EEE5FE061EECC
:102240007FE00E94E510F3CF41EE5FE06EEE7FE0AD
:10225000F8CF45E45CE068E37CE0F3CF48E35CE082
:1022600065E47CE0EECF43E65CE064E57CE0E9CF4A
:1022700044E55CE063E67CE0E4CF41E85CE062E7F3
:102280007CE0DFCF42E75CE061E87CE0DACF40EC65
:102290005AE069EA7AE0D5CF49EA5AE060EC7AE0A0
:1022A000D0CF81E00E94F10FC2CF65E082E00E94B2
:1022B000EA10BDCF68E086E0FACF6EE089E0F7CFA4
:1022C00064E18FE0F4CF67E185E1F1CF88E1EACF07
:1022D00062E289E1ECCF83E2E5CFC1E0A9CF6E9A5B
:1022E0004EB14F7B5EB15064EFB7F8949B01220F63
:1022F000331F260F371F280F391F2817390741F4BE
:10230000EFBF8FE594E00197F1F700C0000008955A
:10231000DC016D91CD0178E05EB9000000C067FF7F
:102320004EB9660F000000C000C000C04EB900C02A
:102330007A9591F7E2CF82E290E00E949D2C813263
:1023400089F483E290E00E949D2C843059F484E269
:1023500090E00E949D2C91E0893109F090E0892F56
:102360008170089580E0FCCFCF93C82F6FEF81116B
:1023700061E282E290E00E94B12C6FEFC11164E053
:1023800083E290E00E94B12C6FEFC11169E184E219
:1023900090E0CF910C94B12C80E00E94B4110C9489
:1023A0001B22089585E290E00E949D2C682F70E02A
:1023B00090E080E0089585E290E00C94B12C0E94BA
:1023C000D1110E949B1181110CC060E070E0CB0123
:1023D0000E94DB110E9484130E946E1481E00C9411
:1023E000B4110895CF93FB01C281CC2309F19C0164
:1023F00022513F452031310520F582510E947E1443
:10240000C0E08C2FCF91089581E00E94E51F43E04A
:1024100062E081E00E940805F3CF81E00E9406207F
:1024200043E062E081E00E940805EBCF82E0F6CF56
:102430008031FFE59F0789F381319F45B9F3C1E002
:10244000E0CF8031EFE59E07F9F281319F45C9F673
:1024500082E0DBCF2FEFFC0120830895CF93DF9341
:10246000EC0188818138A9F028F4803871F0DF917F
:10247000CF910895823881F08338C9F70E94D80A35
:1024800089830E94DB0A8A83F2CF0E94DE0A898355
:10249000EECF0E948D0AFBCF0E94C30AF8CFCF93E4
:1024A000DF93EC0188818138E1F028F4803869F00D
:1024B000DF91CF910895823811F18338C9F70E94D6
:1024C000DE0A482F6A81898108C0D9810E94DB0A0F
:1024D000C82F0E94D80A4D2F6C2FDF91CF910C94FA
:1024E000840C89810E9403108981811104C0DF91CD
:1024F000CF910C94740FDF91CF910C943910898196
:10250000DF91CF910C94D50AEF92FF920F931F9316
:10251000CF93DF93EC01E62EDC01ED91CD01E1508C
:10252000E33108F0AEC0F0E0E65EF24D0C94F62B1D
:10253000198289E08A836E2DCE01DF91CF911F91A0
:102540000F91FF90EF900C94ED248981823069F017
:10255000833071F08130E1F40E94CF230E94FC2B84
:102560006A837B838C839D83E6CF0E94D211F6CF52
:102570008E01F12C8F2D0E945608F80182837383FF
:102580006483F3940D5F1F4FF6E0FF12F3CFD3CFB8
:102590006E2DCE010E942A12CECF89818230C1F7E2
:1025A0006A817B818C819D810E94FC2B0E94DB11C2
:1025B000C2CF4B816A8189810E945613982789274F
:1025C00098279D838C83B7CF2C813D813227232789
:1025D00032274B816A8189810E946F13ACCF0E94A0
:1025E0008413A9CF0E944F12A6CF0E942E12A3CF10
:1025F0000E94730AA0CF0E94191489839CCF0E9465
:102600001B149827892798279A83898394CF6B81F5
:1026100070E089819A81AE014C5F5F4F98278927CE
:1026200098270E941E1487CF6B8170E089819A8160
:10263000AE014C5F5F4F9827892798270E9444146A
:102640007ACF0E946E1477CF0E944413D6CF6B814D
:1026500070E089819A81AE014C5F5F4F982789278E
:1026600098270E94BC1367CF6B8170E089819A81A3
:10267000AE014C5F5F4F9827892798270E94E2138D
:102680005ACF8FEF888357CF84E0089550E0440FEE
:10269000551F92E2699F400D511D11249CEC899FAA
:1026A000400D511D1124CA01869608950F931F9362
:1026B000CF93DF930E9446138C010E949D2CC82F5C
:1026C000D0E0DC2FCC27C80101960E949D2C9E01F2
:1026D000282BC901DF91CF911F910F9108950F937E
:1026E0001F93CF93DF93122F032F0E944613EC0109
:1026F000602F0E94B12C612FCE010196DF91CF9106
:102700001F910F910C94B12CAF92BF92CF92DF9298
:10271000EF92FF921F93CF93DF938CEAC82E80E055
:10272000D82ED0E07601C0E014C0F5012591349197
:10273000412F6C2F8D2F0E946F1382E0A80EB11CC9
:102740001F5F113191F782E2E80EF11CCF5FC630B6
:1027500019F0570110E0E9CFDF5F8CECC80ED11CF7
:10276000D43001F7DF91CF911F91FF90EF90DF9070
:10277000CF90BF90AF900895EF92FF920F931F9369
:10278000CF93DF93EC018A017C01E60EF71ECE01A8
:102790008696CE15DF0539F4DF91CF911F910F9109
:1027A000FF90EF900895C03323E0D20740F40E94D9
:1027B0009D2CF80180830F5F1F4F2196E8CFF80111
:1027C0001082F9CFCF92DF92EF92FF920F931F9377
:1027D000CF93DF937C016A018C01060F171FEC0178
:1027E000CE018696C017D10749F4DF91CF911F9192
:1027F0000F91FF90EF90DF90CF900895C03323E0CA
:10280000D20740F4FE01EE19FF09EC0DFD1D6081B9
:102810000E94B12C2196E4CF462F843038F47630D4
:1028200028F4613118F4672F0C94561390E080E07F
:10283000089580E108958AEA90E00895EF92FF926A
:102840000F931F93CF93DF93EC018A017C01E60E77
:10285000F71ECE018A5A9C4FCE15DF0539F4DF9161
:10286000CF911F910F91FF90EF900895CA3AD10533
:1028700040F40E949D2CF80180830F5F1F4F21962A
:10288000E8CFF8011082F9CFCF92DF92EF92FF925A
:102890000F931F93CF93DF937C016A018C01060F86
:1028A000171FEC01CE018A5A9C4FC017D10749F47B
:1028B000DF91CF911F910F91FF90EF90DF90CF901C
:1028C0000895CA3AD10540F4FE01EE19FF09EC0D56
:1028D000FD1D60810E94B12C2196E4CFCF93DF9340
:1028E000C6E5D3E060E0CE010E94B12C2196C1156F
:1028F00084E0D807B9F7DF91CF910895DF92EF9286
:10290000FF920F931F93CF93DF9300D000D0CDB7EA
:10291000DEB7F82E8FE08F1540F08FEF93E00E9426
:102920009D2C06E513E08823C1F00F900F900F90C7
:102930000F90DF91CF911F910F91FF90EF90DF905B
:102940000895011584E0180781F3C8010E949D2CA9
:10295000811101C0FA940F5F1F4FF110F2CF19825D
:102960001A821B821C82DD24D39478018FEFE81A2F
:10297000F80AC8010E949D2C89831A828823A9F233
:102980009FEF980F933078F48A83D9820E5F1F4FA0
:10299000C7010E949D2C8B83882339F2CE010196BA
:1029A0000E944C06E2CF8701F9CF0F931F93CF937C
:1029B000DF93C42FD22FFC0182818823C9F040937A
:1029C000A3030E94C3239093A2038093A10380E2F8
:1029D0008C0F883008F050C0C77081E001C0880FAC
:1029E000CA95EAF7DF91CF911F910F910C9481194D
:1029F0001091A303141335C08091A1039091A203F9
:102A00000E94DB23883C910560F5C0E2CD0F1D17C5
:102A1000B9F080E2810F883040F4177081E001C086
:102A2000880F1A95EAF70E948819C83048F481E0A7
:102A30009D2F977001C0880F9A95EAF70E9481191F
:102A4000802F0E947919C830B8F4D77081E001C096
:102A5000880FDA95EAF7DF91CF911F910F910C94CF
:102A6000881980E28C0F883038F4C77081E001C08B
:102A7000880FCA95EAF7EFCFDF91CF911F910F91A1
:102A800008950F939C01CB01233F4CE5340759F186
:102A9000A8F4283DFCE53F0701F1293D4CE534074A
:102AA000D1F1273D3C4591F406E221EE41EE67ED80
:102AB0007CE50E94D51480E00F910895253FFCE548
:102AC0003F07E9F0B0F0263F3C45F9F0FC01828178
:102AD000882339F11092A303EFCF07E225EE45EEEC
:102AE00068ED7CE5E6CF06E221EE40EE63EF7CE5A3
:102AF000E0CF07E225EE44EE64EF7CE5DACF06E2B4
:102B000021EE42EE65EF7CE5D4CF07E225EE46EEFE
:102B100066EF7CE5CECF08E221E045EE69ED7CE58D
:102B2000C8CF81E0C9CFCF93DF93EC01FB01828155
:102B3000882309F419C1C230FCE5DF07C0F1C631B2
:102B40009CE5D90730F09E012A5F3C4529303105CC
:102B500070F50E9434229093D9058093D805C03136
:102B6000ECE5DE0709F4CFC008F05BC0C8308CE5A7
:102B7000D80709F4B6C088F5C430ECE5DE0709F4DF
:102B8000A8C0C0F4C2308CE5D80709F49CC080917D
:102B9000D8058260C330DC4509F498C08091D8051F
:102BA0009091D9050E9442220E94EB1B80E0DF91A8
:102BB000CF9108958091D8058061C630ECE5DE079D
:102BC00009F484C08091D8058860C730DC4508F4DA
:102BD0007DC08091D805806279C0CC308CE5D80763
:102BE00009F489C070F48091D8058C60CA30ECE596
:102BF000DE0709F46BC008F478C08091D8058E7F99
:102C000065C0CE308CE5D80709F479C08091D8052D
:102C10008B7FCF30DC4508F459C08091D8058F7E7A
:102C200055C0CB3FECE5DE0709F457C030F5C331A2
:102C30008CE5D80709F46FC078F4C131ECE5DE0704
:102C400009F465C0C231DC4509F0A8CF0E94EB1B36
:102C50008091D8058F773AC0C5318CE5D80709F443
:102C600062C008F476C08091D9058160CA3FDC4516
:102C700009F094CF8093D90591CFCF3FFCE5DF07D2
:102C800009F44DC088F48091D9058D7FCD3F9CE536
:102C9000D90781F38091D9058E7FCE3FDC4550F373
:102CA0008091D9058360E6CFC130FDE5DF0709F4E7
:102CB00059C008F444C080E0C230DD4509F06ECF51
:102CC0000E94C7226BCF8091D80581608093D80580
:102CD00065CF8091D8058460F9CF8091D905826055
:102CE000C9CF8091D8058064F1CF0E94EB1B809101
:102CF000D8058068EBCF8091D8058D7FE7CF809194
:102D0000D805877FE3CF8091D8058F7DDFCF809175
:102D1000D8058F7BDBCF8091D805837FD7CF80917B
:102D2000D9058C7FA7CF8091D80582FB992790F990
:102D300021E0922790FB82F990FB83F9C7CF809125
:102D4000D905982F909591708E7F892B90FB81F9F2
:102D500091CF0E94EB1B9091D805892F97FB87F9A3
:102D60008058B4CF81E0ACCF81E021CFCF93DF9307
:102D7000EB0186319C4511F50E946A219A819923C5
:102D800099F08A7A91E009F490E09093A40381117C
:102D900009C089E20E9445210E94B62180E0DF91AE
:102DA000CF91089585E3F6CF8091A403811104C0EB
:102DB00089E20E944C21F0CF85E3FBCF81E0EFCF89
:102DC0009093AA038093A9030895E091A903F09139
:102DD000AA03309721F00190F081E02D099480E062
:102DE0000895E091A903F091AA03309799F02091FA
:102DF0002301222359F02091D80527FF07C0DC01C9
:102E00002C9111962C93119725E02C930280F3813D
:102E1000E02D099408952091A7033091A803281765
:102E2000390771F09093A8038093A703E091A90359
:102E3000F091AA03309721F00680F781E02D0994E4
:102E400008952091A5033091A6032817390771F042
:102E50009093A6038093A503E091A903F091AA03A0
:102E6000309721F00084F185E02D099408950E94A7
:102E7000CF236093C8037093C9038093CA039093D0
:102E8000CB036093C4037093C5038093C6039093F0
:102E9000C703089585B7806885BF85B7806885BFFB
:102EA0000895089508950C94511708950C9455179A
:102EB0000E944A1789E192E20E9432240E9452172E
:102EC0000C94531781E008950C94621708950895A7
:102ED0000E94BA230E9481080E94DF110E944D24A3
:102EE0000E9406100C9456174F925F926F927F9239
:102EF0008F929F92AF92BF92CF92DF92EF92FF920A
:102F00000F931F93CF93DF93CDB7DEB72A970FB6FA
:102F1000F894DEBF0FBECDBF0E9466170E946717F0
:102F20000E94BA0881110E9437175CEAA52E53E06F
:102F3000B52E10E000E0802E802F0E9456082B0155
:102F40003C01F501C190D190E190F1905F01C41472
:102F5000D504E604F70409F477C08091730481FD79
:102F60000E946108D701C60184259525A625B725AD
:102F7000912CC12CD12C7601C394AC01BD014C2104
:102F80005D216E217F21452B462B472B09F454C030
:102F90000E9464178823C9F09E828F824C205D2096
:102FA0006E207F2081E045284628472809F480E0EC
:102FB00088870E94C3238160782F9A8789874E81F2
:102FC0005F8168858A850E945218000F111F000FCB
:102FD000111FF801E455FC4F80819181A281B381DA
:102FE0008C259D25AE25BF2580839183A283B38345
:102FF0000E9441100E94E5169091AB038917D9F108
:103000000E94E5168093AB032A960FB6F894DEBFB4
:103010000FBECDBFDF91CF911F910F91FF90EF9029
:10302000DF90CF90BF90AF909F908F907F906F90E8
:103030005F904F900C9456069394CC0CDD1CEE1CC4
:10304000FF1CF1E19F1299CF0F5F1F4F0630110552
:1030500009F071CF8FEF89838A831B820E94C3237B
:103060008160782F9D838C8349815A816B818D810A
:103070000E945218BDCF2A960FB6F894DEBF0FBE3D
:10308000CDBFDF91CF911F910F91FF90EF90DF9017
:10309000CF90BF90AF909F908F907F906F905F90F8
:1030A0004F900895DF92EF92FF920F931F93CF936B
:1030B000DF93CDB7DEB72B970FB6F894DEBF0FBE08
:1030C000CDBF7A878B87F42E052F162FE72ED82EAB
:1030D00061110E948A211E821D827E2DEC82DD827A
:1030E0004F2D502F612F8D2D9E812B960FB6F8946A
:1030F000DEBF0FBECDBFDF91CF911F910F91FF902B
:10310000EF90DF900C94611EFC01808191810C9402
:103110001721CF93C82F882309F483C08238C1F4C4
:103120000E94E51681FD7DC089E30E9445210E9431
:10313000B6212FEF81EE94E0215080409040E1F7DE
:1031400000C0000089E30E944C21CF910C94B6216D
:103150008338A1F40E94E51680FD63C083E50E94D8
:1031600045210E94B6212FEF81EE94E0215080404E
:103170009040E1F700C0000083E5E5CF8438A1F47A
:103180000E94E51682FD4DC087E40E9445210E9401
:10319000B6212FEF81EE94E0215080409040E1F77E
:1031A00000C0000087E4CFCF8CEF8C0F813A90F401
:1031B0006C2F80911701909118010E94E0228823C2
:1031C00029F08C2F0E944C210E94B6218C2F0E9446
:1031D0004521BBCF80E28C0F883048F4C77081E076
:1031E00001C0880FCA95EAF70E946D21AECFEBE5CA
:1031F000EC0FE33040F4F0E0EB53FE4F808190E0C1
:10320000CF910C940B17C85AC73158F4EC2FF0E04B
:10321000EE0FFF1FE956FE4F80819181CF910C94F4
:103220002117CF910895882309F44BC0823871F497
:103230000E94E51681FF45C089E30E9445210E9456
:10324000B62189E30E944C210C94B621833859F4AD
:103250000E94E51680FF35C083E50E9445210E944B
:10326000B62183E5EFCF843859F40E94E51682FF3A
:1032700028C087E40E9445210E94B62187E4E2CF5E
:103280009CEF980F913AF0F290E2980F983050F43A
:10329000877091E001C0990F8A95EAF7892F0E9403
:1032A0007321D2CF9BE5980F933020F490E080E01B
:1032B0000C940B17885A873120F490E080E00C942E
:1032C000211708951F93CF93DF93182FEB010E94CE
:1032D0008918209731F4812FDF91CF911F910C94A1
:1032E00013198FE99FE00197F1F700C000002197C3
:1032F000F0CF70E060E0893311F460E570E00C9489
:103300006219882321F00E946D210C94B621089542
:10331000882321F00E9473210C94B6210895BF9256
:10332000CF92DF92EF92FF920F931F93CF93DF9391
:103330006C01D62FC72FFC011281058102950F70F9
:103340000E946321E82E8823A1F0E12E112389F049
:103350008C2F807F803429F080E28D0FE12C883023
:1033600040F082E00E9401220E94632191E0E82E59
:10337000E926BC2EB2949FE0B922EB2DF0E0E35D8C
:10338000F24D0C94F62B0C2F0F70C07F11F00295AC
:10339000007F1123A9F0002359F080E28D0F8830BF
:1033A00010F0D11109C0802F0E946D210E94B6211A
:1033B0008D2F0E94891814C0802F0E947D21F6CF86
:1033C0008D2F0E941319002359F080E28D0F883051
:1033D00010F0D1112CC0802F0E9473210E94B621C1
:1033E0002B2D2850330B2430310520F40E94E51694
:1033F0000E945606EE2009F493C10E945F2180FDD1
:103400008FC1F60112820E9459210E94E51FC60158
:103410000E94B11B0E945921DF91CF911F910F9102
:10342000FF90EF90DF90CF90BF900C940620802FFC
:103430000E948321D3CFFC2FFF70FF2EC07FC032AC
:1034400019F0F29480EFF822DD2369F0D13049F1D0
:10345000112391F1002351F1F601858180FFA8CF5E
:103460008F70858323C0112381F0011106C00E9453
:103470009D218F290E948119B3CF0130C1F70E948D
:103480009D218F290E94A321ABCF011106C00E946C
:10349000AC218F2D0E948819A3CF013009F4A0CF51
:1034A000F6CF112329F0063008F09ACF8F2DE2CF06
:1034B000053008F095CFEDCF002359F3D93349F407
:1034C000FFEF27EE33E0F15020403040E1F700C03D
:1034D00000008D2F0E94131983CF8C2F869586951F
:1034E000837069F0813009F07BCF8D2F9C2F937012
:1034F000111102C090E080E00E94211771CF8D2F42
:103500009C2F9370111102C090E080E00E940B1775
:1035100067CF8C2F837009F041C0111161CF4D2FFF
:10352000429546954770440F440F0D2F0F7010E0E1
:1035300030E020E0042E04C0000F111F221F331FB3
:103540000A94D2F760E070E0CB01D4FF0FC06FE0C7
:1035500070E080E090E004C0660F771F881F991F1D
:103560004A95D2F76095709580959095C695C695C9
:10357000C370602B712B822B932BC23049F058F40F
:10358000C13019F00E94971F2BCF0E94851F28CFB2
:103590000E94A91F25CF0E94831F22CF8695112349
:1035A00011F08C2F8170882309F41ACF4D2F42958A
:1035B00046954770440F440F0D2F0F7010E030E018
:1035C00020E0042E04C0000F111F221F331F0A9495
:1035D000D2F760E070E0CB01D4FF0FC06FE070E085
:1035E00080E090E004C0660F771F881F991F4A95FE
:1035F000D2F76095709580959095C695C695C370E5
:10360000602B712B822B932BC23049F058F4C130C0
:1036100019F00E945C20E4CE0E944A20E1CE0E9474
:103620006E20DECE0E94BF1FDBCECF70112329F0AB
:103630008C2F0E94E51F8D2F1DCF8D2F0E94881982
:103640008C2F0E940620CCCED23F89F160F4D03F6F
:10365000C9F0D13F29F1112309F442C00111A8CECC
:103660008C2F8F7121C0D33F39F1D43FA1F71123A3
:1036700069F1CF718C2F0E94E51F63E08C2F0E94AF
:10368000EC21AECE112341F0053008F0A9CE8C2FED
:103690008F710E942920A4CE063008F0A1CEF7CF6A
:1036A0008C2F8F71112369F20E94E51F99CE8C2F08
:1036B0008F711123C9F3C5CF112329F08C2F8F717E
:1036C0000E94D01F8DCE0E94CB1F8ACE81E00E9427
:1036D0000122023008F484CE82E00E94012280CED2
:1036E000002359F0D93309F0F4CE8FEF97EEE3E0E1
:1036F00081509040E040E1F7EACE8C2F8F71A1CF4E
:103700004C2F4F706D2FC6010E945E060E94FB1E5B
:1037100067CE4C2F4F706D2FC6010E94610660CEA0
:10372000DF91CF911F910F91FF90EF90DF90CF909D
:10373000BF9008950F931F93CF93DF93EC0168819F
:1037400079818A810E9421218C010E9480200E941F
:10375000821FB801CE01DF91CF911F910F910C9480
:103760008F19CF93DF93EC018B819C81892B29F0FA
:103770008881998189238F3F59F4DF91CF910895F2
:10378000CE010E949A1BCE01DF91CF910C94A90427
:10379000CE010E9436058111F3CF0E946321882358
:1037A00061F38A81882349F382E0DF91CF910C9401
:1037B000012290E080E00E940B1790E080E00E94E0
:1037C00021170E948A210E949A210C94B6210E94FE
:1037D00053210C94D91B0E947A210C94E71BE92FEA
:1037E000E295EF70E250EE3070F4F0E0E35CF24D01
:1037F0000C94F62B803F19F020F4883E20F481E0F1
:103800000895843FE1F380E00895883EC0F3813F4E
:10381000D1F7F5CF93FB882780F908950E941721EF
:103820000C94EF1BCF93DF9300D000D00F92CDB755
:10383000DEB70F900F900F900F900F90DF91CF9108
:103840000895CF93DF9300D000D000D0CDB7DEB77E
:1038500026960FB6F894DEBF0FBECDBFDF91CF9195
:1038600008951F93CF93DF93C091CD0316E080910D
:10387000CE038C1304C0DF91CF911F910895D0E047
:103880001C9FF0011D9FF00D1124E153FC4F40815E
:10389000518162817381848195810E94211C2196CE
:1038A000C770E5CF4091FF0350910004609101047F
:1038B0007091020480910304909104040C94211CE3
:1038C0001F93CF93DF9380910404807FA9F48091AC
:1038D0000104882389F08091CD03C091CE036091CB
:1038E000FF0370910004A0910204B0910304D62F4D
:1038F000D72316E0C81304C0DF91CF911F9108951C
:1039000090E0109711F0DF3F19F401968770F2CF25
:10391000189F9001199F300D1124F901E153FC4FBC
:1039200041814713F2CF40814613EFCF42814111CD
:10393000ECCF438154814A1B5B0B483C510528F76F
:10394000809104048F70806180930404F901EC522B
:10395000FC4F80818F70806180838FEF93E00E94A5
:10396000B11BDF91CF911F910C94311CAF92BF928C
:10397000CF92DF92EF92FF920F931F93CF93DF933B
:10398000CDB7DEB761970FB6F894DEBF0FBECDBFDF
:103990008C0185E0F801DE011D9601900D928A955B
:1039A000E1F7F80140815181E2808FEFC82E83E07A
:1039B000D82E60910204709103046115710509F419
:1039C00061C19091FF0320910004892F82238F3FD2
:1039D00009F458C1A380B480F0900104F501E61BFE
:1039E000F70BFF2009F4FCC080910404382F307FCE
:1039F000E83CF10508F0B2C0311179C0FE2C251366
:103A000023C0941321C0E1101FC08F708061809388
:103A100004040E94521CC6010E94B11B8091040440
:103A2000F80185838F2D61960FB6F894DEBF0FBE27
:103A3000CDBFDF91CF911F910F91FF90EF90DF905D
:103A4000CF90BF90AF900895AB2829F0842F8523A5
:103A50008F3F09F033C180E0F82FF170DF2E80FF37
:103A60003CC08091CD032091CE0336E0821315C077
:103A70004D875E878D859E850E941721292F22956F
:103A80002F702230F0F0243018F59F70F1F0F8011B
:103A90009581907FD1F4D12C1EC090E0389FF00129
:103AA000399FF00D1124E153FC4F6181651306C06D
:103AB0006081641303C062816E110FC0019687702C
:103AC000D5CF9F7011F0882331F3805E883018F3D2
:103AD000C8010E94B11BFD2CA5CFEE2009F4A2CF96
:103AE00080910404816080930404F12C9BCF251302
:103AF00006C0941304C0F801EE2009F48DC04D8770
:103B00005E878D859E850E940E1C882319F1EE200C
:103B100009F180910404803270F02091FF0330910C
:103B2000000438872F831986BB86AA868C87CE012E
:103B300007960E94B11B86E0F801AFEFB3E0019059
:103B40000D928A95E1F70E94601C0E94521CFF248E
:103B5000F39468CFC8010E94B11BF9CF311113C093
:103B60007A2DB98AA88A6E2D89890E94121C8FEF3E
:103B700093E00E94B11B86E0F60111928A95E9F765
:103B80000E94521CB2CF25130FC094130DC0E11038
:103B90000BC0F8018583C8010E94B11B86E0F601C5
:103BA00011928A95E9F73ECF4D875E878D859E8578
:103BB0000E940E1C882371F2EE2061F280910404B1
:103BC000803208F4B8CF2091FF03309100043A838B
:103BD00029831B82BD82AC828E83CE010196A9CF40
:103BE000E83CF10508F041C0FE2CEE2009F4B2CF0C
:103BF00025132AC0941328C08091040480FD1BC0A3
:103C0000982F907FC1F0F8018583903F31F0982F75
:103C1000907F905F8F70892B8583C8010E94B11BB4
:103C200086E0F801AFEFB3E001900D928A95E1F7DD
:103C30000E94521CF7CE86E0F801AFEFB3E001908E
:103C40000D928A95E1F7EECE4D875E878D859E8534
:103C50000E940E1C81116FCF8091040481608093BB
:103C60000404C8010E94B11BDDCE7A2DB98AA88A4E
:103C70006E2D89890E94121C86E0F60111928A95A8
:103C8000E9F7D6CFEE2009F465CF4D875E878D85A5
:103C90009E850E940E1CF82E882309F45BCF86E0D7
:103CA000F801AFEFB3E001900D928A95E1F78FEF45
:103CB00093E00E9484180E94601CBACF81E08E2598
:103CC000CBCE1F93CF93DF93CDB7DEB72C970FB634
:103CD000F894DEBF0FBECDBF4F83588769877A87C0
:103CE0008B879C87CE0107960E94B61C882369F0BB
:103CF0008A859B85892B39F04F815885842F8523B0
:103D00008F3F09F071C016E05FC086E0FE01379674
:103D1000DE01119601900D928A95E1F78A859B85C7
:103D2000892B89F38F81988589238F3F61F32091B7
:103D3000CE0330E0C9010196877099274091CD03E9
:103D40004817190671F40E94EB1B1092CE031092D3
:103D5000CD0386E0EFEFF3E0DF011D928A95E9F7EE
:103D6000D2CF96E0929FD001939FB00D1124A15322
:103D7000BC4FFE01319601900D929A95E1F7809328
:103D8000CE030E94311CBFCF819FC00111248153FB
:103D90009C4F0E94B61C8823E9F0E091CD031E9F42
:103DA000F0011124E153FC4F408151816281738104
:103DB000848195810E94211C8091CD0390E0019621
:103DC000877099278093CD038091CD039091CE0386
:103DD0008913DACF2C960FB6F894DEBF0FBECDBF95
:103DE000DF91CF911F91089569857A858B859C8598
:103DF0000E94211C88CFEF92FF920F931F93CF93C5
:103E0000DF938C01892B81F0F12CEE24E394E801FF
:103E10002196F8018491843770F4843008F05FC0F3
:103E20008130B1F08230A1F1DF91CF911F910F91DC
:103E3000FF90EF900895853709F44CC008F43DC019
:103E40009CE7980F903780F78F770E94131949C02D
:103E50000E5F1F4FFE01849190E2980F983060F43E
:103E60008770FE2D01C0FF0F8A95EAF78F2F0E9401
:103E70008D210E94B62102C00E9489188F2D815089
:103E800030F2EFE9FFE03197F1F700C00000F7CF23
:103E90000E5F1F4FFE01849190E2980F983050F40E
:103EA0008770FE2D01C0FF0F8A95EAF78F2F0E94C1
:103EB0009321DFCF0E941319E1CF0E5F1F4FFE0148
:103EC000C491C150D8F28FE99FE00197F1F700C08B
:103ED0000000F7CF0E5F1F4FFE01F490CFCF0E947E
:103EE00089188E01CBCF08950C94731F0E94741F04
:103EF00060934A0470934B0480934C0490934D0458
:103F00000C94D91B08950C94761F0F931F93009166
:103F10004A0410914B0420914C0430914D04602BC5
:103F2000712B822B932B1F910F910C94761F0F9363
:103F30001F9300914A0410914B0420914C0430913E
:103F40004D0460237123822393231F910F910C94BE
:103F5000761F0F931F9300914A0410914B042091F8
:103F60004C0430914D0460277127822793271F91BD
:103F70000F910C94761F0C94731F0C94BB1F0E941E
:103F8000BD1F609346047093470480934804909348
:103F900049040C94D91B60E070E0CB010C94BF1F66
:103FA0000F931F9341E050E060E070E08A019B01B5
:103FB00004C0000F111F221F331F8A95D2F7C901B9
:103FC000B8011F910F910C94BF1F0F931F9341E0F5
:103FD00050E060E070E004C0440F551F661F771F7B
:103FE0008A95D2F78091460490914704A0914804A5
:103FF000B09149048A019B01082B192B2A2B3B2BDA
:10400000C901B8011F910F910C94BF1F0F931F930B
:1040100041E050E060E070E004C0440F551F661FAF
:10402000771F8A95D2F7CB01BA016095709580957C
:1040300090950091460410914704209148043091D6
:10404000490460237123822393231F910F910C94C1
:10405000BF1F0F931F9341E050E060E070E004C089
:10406000440F551F661F771F8A95D2F7809146042B
:1040700090914704A0914804B09149048A019B01A2
:10408000082719272A273B27C901B8011F910F913B
:104090000C94BF1F0F931F93009146041091470487
:1040A0002091480430914904602B712B822B932B73
:1040B0001F910F910C94BF1F0F931F930091460403
:1040C00010914704209148043091490460237123E2
:1040D000822393231F910F910C94BF1F0F931F9363
:1040E00000914604109147042091480430914904FE
:1040F00060277127822793271F910F910C94BF1F70
:10410000089521E1929F800D1124982F977041E02E
:1041100001C0440F9A95EAF786958695869595E0B5
:10412000899FF0011124EB5FFB4F90E080E070E08D
:104130005191DF0111979B01082E02C036952795FA
:104140000A94E2F7217021952527242325272C9313
:1041500001968530910561F7089521E1929F800DC8
:104160001124982F977086958695869525E0829FD5
:10417000F0011124EB5FFB4F50E040E080E0219123
:1041800030E0092E02C0369527950A94E2F7217097
:104190003327042E01C0220F0A94EAF7822B4F5FC7
:1041A0005F4F4530510559F70895BF92CF92DF9286
:1041B000EF92FF920F931F93CF93DF938C01C090E8
:1041C0004604D0904704E0904804F0904904809160
:1041D0004A0490914B04A0914C04B0914D04C82A1C
:1041E000D92AEA2AFB2ACFE1D0E0BC2ED701C601AA
:1041F0000C2E04C0B695A795979587950A94D2F78B
:1042000080FD0EC0219788F7B12C8B2DDF91CF91C7
:104210001F910F91FF90EF90DF90CF90BF90089586
:10422000B8018C2F0E946A06019761F3EECFCF93FD
:10423000DF93EC010E94D520BE01DF91CF910C9459
:104240006A061F93CF93DF93EB019091CC039923E0
:1042500031F0CB01DF91CF911F910C94172188236E
:1042600079F0CB010E94D520182F682FCE010E9433
:104270008120BE01812FDF91CF911F910C946A069E
:10428000CB010E94AD20182FF4CF682F8091170129
:10429000909118010C946023682F809117019091E0
:1042A00018010C946B2380911701909118010C94C4
:1042B000762380914E048595859585950895809106
:1042C0004E048770089590914E04977081E009F430
:1042D00080E0089580917204089590917204892B72
:1042E000809372040895809590917204982390931E
:1042F0007204089510927204089590917104892BAC
:1043000080937104089580959091710498239093FF
:104310007104089510927104089590917004892B8E
:1043200080937004089580959091700498239093E1
:104330007004089510927004089580914F040895B8
:1043400008950C94A02190914F04981721F0809328
:104350004F040C94A121089580914F04882329F0E3
:1043600010924F0480E00C94A1210895E091170170
:10437000F0911801809172048083E0911701F0910F
:104380001801808190917104892B8083E09117013D
:10439000F0911801808190917004892B8083909115
:1043A0004F04992381F0E0911701F0911801808169
:1043B000892B808380911701909118010E94CC2253
:1043C00081110E94AC2180911701909118010C94E9
:1043D000F11608950C94E92198E0899F9001112429
:1043E000622B60934E040E94E51F80914E048595D8
:1043F000859585950C94EA2110924E0480E00C94EA
:10440000EA2190914E048095892380934E04282FB1
:10441000277071F4282F082E000C330B9217130607
:1044200039F08595859585950E9406200C94FC2190
:10443000089580E008956FEF7FEF90E080E00C94A6
:10444000CF2C90E080E00E94AB2C21E08B3E9E4F71
:1044500009F020E0822F089582E090E00C949D2CDA
:1044600083E090E00C949D2CCF9384E090E00E9438
:104470009D2CC82F81E290E00E949D2C982F8C2FBC
:10448000CF910895CF93C92F682F84E090E00E94C8
:10449000B12C6C2F81E290E0CF910C94B12CAB0148
:1044A000BC018FE090E00C94C32CAB01BC0183E114
:1044B00090E00C94C32C60E070E0CB010C9455228A
:1044C00060E070E0CB010E944F220C945B226BEE07
:1044D0007EEF90E080E00E94CF2C60E082E090E0F0
:1044E0000E94B12C60E083E090E00E94B12C109219
:1044F0004A0410924B0410924C0410924D0460E058
:1045000084E090E00E94B12C60E081E290E00E94A3
:10451000B12C60E085E090E00E94B12C60E086E084
:1045200090E00E94B12C6FEF87E090E00E94B12CE8
:1045300040E050E0BA0188E090E00E94C32C60E0C7
:104540008DE090E00E94B12C40E050E0BA0188E19B
:1045500090E00E94C32C60E087E190E00E94B12CC3
:1045600040E050E0BA018CE190E00E94C32C60E092
:1045700080E290E00E94B12C40E050E0BA0188E176
:1045800090E00E94C32C0C9460220C946722682F48
:104590008EE090E00C94B12CFC01329680912301C6
:1045A000882321F08091D8059EE187FF96E080E086
:1045B000915008F4089521912223D1F38F5FF8CF11
:1045C000662301F1209123012223F1F02091D805E7
:1045D00027FF1AC0462F4695469546954E3190F4D2
:1045E000677021E030E002C0220F331F6A95E2F7C6
:1045F000840F911DFC01828190E02823392381E002
:10460000232B69F480E00895FC01329608962191ED
:10461000261721F0E817F907D1F7F4CF81E00895C4
:104620009C01FC0132969FEF80E04191461751F0CA
:104630009F3F19F4411101C0982F8F5F8630A9F771
:104640009F3F09F40895290F311D97FD3A95F9010F
:1046500062830895FC01329608962191261303C0C7
:10466000DF0111971C92E817F907B9F70895E62FB3
:10467000E695E695E695EE3168F4E80FF92FF11D21
:10468000677021E030E001C0220F6A95EAF782816D
:10469000822B82830895E62FE695E695E695EE3126
:1046A00070F4E80FF92FF11D677021E030E001C0D0
:1046B000220F6A95EAF720958281282322830895A4
:1046C00020912301222329F02091D80527FD0C9465
:1046D00037230C94102320912301222329F02091C9
:1046E000D80527FD0C944B230C942A23FC01329609
:1046F00080912301882351F08091D80587FF06C05F
:104700008EE1DF011D928A95E9F7089586E0F9CFE1
:1047100008950C9488230E94EB1B0E94E5160E94CA
:1047200056060C9489231F921FB61F9211248F9353
:104730009F93AF93BF9380917404811113C08091B4
:10474000D4059091D505A091D605B091D705419695
:10475000A11DB11D8093D4059093D505A093D605D6
:10476000B093D705BF91AF919F918F911F901FBEBE
:104770001F90189582E084BD93E095BD9AEF97BD98
:1047800080936E0008952FB7F8948091D40590918E
:10479000D505A091D605B091D7052FBF08952FB7A5
:1047A000F8946091D4057091D5058091D6059091CB
:1047B000D7052FBF08959C014FB7F8948091D40579
:1047C0009091D505A091D605B091D7054FBF821B1A
:1047D000930B089578941F921FB61F9211248F9304
:1047E0009F93AF93BF938091D4059091D505A091ED
:1047F000D605B091D7050196A11DB11D8093D405B2
:104800009093D505A093D605B093D705BF91AF91EE
:104810009F918F911F901FBE1F90189581E08093EC
:10482000E00080E28093D8001092C9008FE19EE4FE
:104830000197F1F700C0000087E090EBDC01809366
:10484000E7059093E805A093E905B093EA0588E1B0
:104850009CE00FB6F894A895809360000FBE9093EB
:104860006000FFCF9093D9018093D80108950C94F4
:10487000CC110E94BA088FE39CE90197F1F700C0C0
:1048800000000E94BA0880E00E94560860FF04C041
:104890000E9437240C940E2408950E942122811135
:1048A00002C00E94C5220E942C22809373040E94A1
:1048B00034229093D9058093D8050E943022682F26
:1048C00070E090E080E00E94831F60914604709148
:1048D000470480914804909149040C94BD1F809135
:1048E000950408950895CF93DF9300D00F92CDB72C
:1048F000DEB79091DE05943011F589837B836A835E
:104900009093E9008FEF9091E800815095FD06C0EB
:1049100095ED9A95F1F700008111F5CF8091E800AF
:1049200085FF0DC050E040E063E070E0CE010196ED
:104930000E94B2268091E8008E778093E8000F9065
:104940000F900F90DF91CF910895BC0184E00C94FB
:104950007324BC0183E00C947324CF93DF93EC01A8
:10496000809123018823B1F18091D80587FF32C05F
:1049700060E284E08093E9008FEF9091E80081503D
:1049800095FD06C095ED9A95F1F700008111F5CFE0
:104990008091E80085FF1BC08091230170E050E00A
:1049A00040E0811104C050E040E068E070E0CE01DA
:1049B0000E94B2268091E8008E778093E80080E222
:1049C000FE01A5E7B4E001900D928A95E1F7DF9131
:1049D000CF91089568E081E0CDCFCF93FC016032A4
:1049E00021F58091DE05843001F5C091E900CF709A
:1049F0002091EC00922F917020FD90E8C92B82E06D
:104A00008093E9008091E80080FF0CC050E040E016
:104A100060E270E0CF010E94B2268091E8008E77BC
:104A20008093E800CF70C093E900CF910895809102
:104A3000DD05811109C00E9491280E94EE28809115
:104A4000E20084608093E20008951092DD050895ED
:104A5000089508950C948B2342E061EC81E00E945C
:104A60000D2842E261EC84E00E940D2842E261ECF4
:104A700082E00E940D2842E260EC83E00C940D2855
:104A80008091E005833009F461C030F48130D1F1C8
:104A9000823009F49DC008958A3009F489C08B30B2
:104AA00009F46FC0893009F050C08091DF05813270
:104AB00009F04BC08091E3059091E405009719F04F
:104AC000029709F042C08091E800877F8093E80058
:104AD0008091E80082FF35C09091F3008091F20050
:104AE000029729F48091F1008B7F813021F480912D
:104AF000F100809395048091E8008B778093E80023
:104B00000C9441288091DF05813AF9F48091E80006
:104B1000877F8093E8008091E3059091E405892BDD
:104B200061F460E285E794E070E00E945027809194
:104B3000E8008B778093E800089560E090E080E0E3
:104B4000F3CF8091DE058111C3CF08958091DF05F9
:104B5000813AD9F78091E3059091E405892BA9F773
:104B60008091E800877F8093E8008091E80080FFD3
:104B7000FCCF809123018093F1008091E8008E7733
:104B8000BDCF8091DF05813201F78091E3059091DF
:104B9000E405892BD1F68091E800877F8093E800B7
:104BA0000E9441288091E105809323010C94EB1B26
:104BB0008091DF05813249F68091E800877F8093FC
:104BC000E8000E9441288091E205809396040895B0
:104BD0008091DF05813A09F0B8CF8091E800877FA6
:104BE0008093E8008091E80080FFFCCF80919604DC
:104BF000C2CFCDB7DEB7A0970FB6F894DEBF0FBE19
:104C0000CDBF84B7877F84BF0FB6F894A8958091F5
:104C10006000886180936000109260000FBE80E8A1
:104C200090E00FB6F89480936100909361000FBEFE
:104C30000E9458170E9491280E94EE288091E2005D
:104C400084608093E20078940E94772B0E9468171A
:104C500089E191E00E94E01613E00E9474178091B0
:104C6000DE05843029F00E9466170E946717F5CF91
:104C70001093E9008091E80082FFF5CF8091E80071
:104C800090E085FF09C050E040E060E270E0CE01B6
:104C900001960E94012791E08091E8008B77809334
:104CA000E800992301F360E2CE0101960E9484128C
:104CB000DACF0C945B26292F33272330310521F1DD
:104CC00068F42130310509F443C02230310509F47C
:104CD00044C090E080E030E020E026C02132310581
:104CE00051F122323105A9F76330710590F7FB01CC
:104CF000EE0FFF1FE553FE4F2081318168537E4F39
:104D0000FB01808190E010C099278130910581F0EE
:104D1000009729F00297E9F6E6EAF6E002C0E6EF2E
:104D2000F6E0849190E09F01FA0131832083089599
:104D3000EAEDF6E0F6CF6330710558F6660F771F9F
:104D4000FB01EF52FE4F2081318189E090E0ECCFF2
:104D500082E190E025E537E0E7CF8BE590E02AEFB0
:104D600036E0E2CFAF92BF92CF92DF92FF920F93E5
:104D70001F93CF93DF936C01EB018A010E9460289F
:104D8000F82E811123C00115110539F0F801808139
:104D90009181C81BD90BC80ED91EB12CA12C20970C
:104DA000A9F08091E80085FD22C08091E8008E770F
:104DB0008093E80001151105A1F0F801808191812F
:104DC000A80EB91EB182A08285E0F82E8F2DDF914A
:104DD000CF911F910F91FF90DF90CF90BF90AF9038
:104DE00008950E9460288823D1F2F82EEFCFF601B3
:104DF00081916F018093F1002197FFEFAF1ABF0AF5
:104E0000CECFAF92BF92CF92DF92FF920F931F93BC
:104E1000CF93DF936C01EB018A010E946028F82E8A
:104E2000811123C00115110539F0F80180819181AC
:104E3000C81BD90BC80ED91EB12CA12C2097A9F0E4
:104E40008091E80085FD22C08091E8008B778093F7
:104E5000E80001151105A1F0F80180819181A80EEB
:104E6000B91EB182A08285E0F82E8F2DDF91CF91FF
:104E70001F910F91FF90DF90CF90BF90AF9008955A
:104E80000E9460288823D1F2F82EEFCF8091F100A4
:104E9000F60181936F012197FFEFAF1ABF0ACECFC2
:104EA000FC018091E5059091E60586179707A0F033
:104EB0006115710529F49091E8009E779093E800C0
:104EC00090E06115710551F4911108C08091E800DE
:104ED00082FF34C080E00895BC01F2CF8091DE05EE
:104EE0008823C1F18530C1F18091E80083FD30C095
:104EF0008091E80082FDEACF8091E80080FFE1CF59
:104F00008091F3002091F200382F6115710519F09E
:104F10002830310558F091E02830310509F090E053
:104F20002091E8002E772093E800CBCF81918093E9
:104F3000F100615071092F5F3F4FE7CF8091DE058F
:104F4000882341F0853041F08091E80083FFBECF97
:104F500081E0089582E0089583E00895FC01809146
:104F6000E5059091E60586179707A0F06115710594
:104F700029F48091E8008E778093E80090E0611535
:104F8000710551F4911108C08091E80082FF35C08D
:104F900080E00895BC01F2CF8091DE058823C9F13D
:104FA0008530C9F18091E80083FD31C08091E8002F
:104FB00082FDEACF8091E80080FFE1CF8091F3008D
:104FC0002091F200382F6115710519F02830310554
:104FD00058F091E02830310509F090E08091E80028
:104FE0008E778093E800CBCF84918093F100319647
:104FF000615071092F5F3F4FE6CF8091DE05882316
:1050000041F0853041F08091E80083FFBDCF81E021
:10501000089582E0089583E00895982F973028F04E
:105020008F708093E90081E008959093E900242F28
:10503000762F50E0981731F07091EC002091ED0040
:105040005091F00021FD02C09F5FE8CF3091EB004E
:105050003E7F3093EB003091ED003D7F3093ED00CB
:105060003091EB0031603093EB007093EC002093B3
:10507000ED005093F0002091EE0027FDE5CF80E099
:1050800008958091DF0587FF13C08091E80082FFBB
:1050900006C08091E8008B778093E80004C080917F
:1050A000DE058111F2CF08958091DE058823D9F3C2
:1050B0008091E80080FFF8CF8091E8008E77ECCFF8
:1050C0002091E4003091E50095E6A9012091EC00E3
:1050D000822F817020FF06C08091E80080FF06C00B
:1050E00080E008952091E80022FD1AC08091DE053D
:1050F000882389F0853089F08091EB0085FD0FC011
:105100002091E4003091E50042175307F9F29150E5
:10511000E1F684E0089582E0089583E0089581E057
:1051200008950E94FF280E940729E0EEF0E08081A8
:1051300081608083E8EDF0E080818F77808319BC07
:10514000A7EDB0E08C918E7F8C9380818F7E8083E1
:105150001092DD0508950F931F93CF93DF930E9464
:10516000FF280E940729C8EDD0E088818F778883C7
:1051700088818068888388818F7D888319BC10929C
:10518000DE051092DA051092DC051092DB0500EEC8
:1051900010E0F80180818B7F808388818160888323
:1051A00042E060E080E00E940D28E1EEF0E08081C6
:1051B0008E7F8083E2EEF0E0808181608083808159
:1051C00088608083F80180818E7F80838881806100
:1051D0008883DF91CF911F910F910895E8EDF0E062
:1051E00080818F7E8083E7EDF0E080818160808325
:1051F00084E082BF81E08093DD050C94AB28E8ED6C
:10520000F0E080818E7F80831092E20008951092FA
:10521000DA001092E10008951F920F920FB60F92DC
:1052200011242F933F934F935F936F937F938F93AB
:105230009F93AF93BF93EF93FF938091E10082FF21
:105240000BC08091E20082FF07C08091E1008B7F5C
:105250008093E1000E94762B8091DA0080FF19C0D4
:105260008091D80080FF15C08091DA008E7F8093F6
:10527000DA008091D90080FF96C080E189BD82E18B
:1052800089BD09B400FEFDCF81E08093DE050E9458
:1052900017258091E10080FF19C08091E20080FF16
:1052A00015C08091E2008E7F8093E2008091E20041
:1052B00080618093E2008091D80080628093D80062
:1052C00019BC85E08093DE050E9429258091E100CC
:1052D00084FF2BC08091E20084FF27C080E189BD5C
:1052E00082E189BD89B5982F917080FFFBCF8091B5
:1052F000D8008F7D8093D8008091E1008F7E8093CD
:10530000E1008091E2008F7E8093E2008091E200D4
:1053100081608093E2008091DA05882309F449C016
:1053200084E08093DE050E942A258091E10083FFBE
:1053300029C08091E20083FF25C08091E100877F32
:105340008093E10082E08093DE051092DA0580917F
:10535000E1008E7F8093E1008091E2008E7F809358
:10536000E2008091E20080618093E20042E060E030
:1053700080E00E940D288091F00088608093F0000A
:105380000E942825FF91EF91BF91AF919F918F913E
:105390007F916F915F914F913F912F910F900FBE31
:1053A0000F901F90189519BC1092DE050E942525BC
:1053B00070CF8091E30087FD93E09093DE05B3CF3B
:1053C0001F920F920FB60F9211242F933F934F937A
:1053D0005F936F937F938F939F93AF93BF93CF937D
:1053E000DF93EF93FF93D091E900DF708091EC00A1
:1053F000C82FC17080FDC0E81092E9008091F000D4
:10540000877F8093F00078940E94242A1092E9000C
:105410008091F00088608093F000CD2BCF70C09316
:10542000E900FF91EF91DF91CF91BF91AF919F91F3
:105430008F917F916F915F914F913F912F910F903D
:105440000FBE0F901F9018951F93CF93DF93CDB78A
:10545000DEB7AA970FB6F894DEBF0FBECDBF8FEDB3
:1054600095E02091F100FC012193CF01F5E0873E0A
:105470009F07B9F70E9440258091E80083FF1EC175
:105480008091DF059091E0059A3008F017C1E92F6F
:10549000F0E0E55BF24D0C94F62B803899F0823801
:1054A00009F00CC18091E3058F70873008F006C1C8
:1054B0008093E9008091EB0085FB882780F91092AA
:1054C000E90006C08091DB059091DC0591118260B6
:1054D0009091E800977F9093E8008093F1001092FC
:1054E000F1008091E8008E77E5C0882309F4D3C0ED
:1054F000823009F0E3C08091E1058111D6C080912E
:10550000E3058F702FEF280F263008F0D7C0809367
:10551000E9002091EB0020FFC8C0933031F4809166
:10552000EB0080628093EB00C0C09091EB00906133
:105530009093EB0021E030E001C0220F8A95EAF75A
:105540002093EA001092EA008091EB008860EACF95
:105550008111B4C01091E1051F778091E30080783C
:10556000812B8093E3008091E800877F8093E8009F
:105570000E9441288091E80080FFFCCF8091E300E9
:1055800080688093E30082E0111183E08093DE0560
:1055900095C08058823008F091C08091E1059091CB
:1055A000E2058C3D23E09207A1F583E08A838AE23D
:1055B00089834FB7F894DE01139620E03EE051E274
:1055C000E32FF0E050935700E49120FF03C0E295F1
:1055D000EF703F5FEF708E2F90E0EA30C0F0C7961B
:1055E0008D939D932F5F243159F74FBF8091E80031
:1055F000877F8093E8006AE270E0CE0101960E9406
:1056000050278091E8008B778093E80057C0C096C0
:10561000E7CF6091E3057091E405AE014F5F5F4F06
:105620000E945926BC01892B09F448C09091E800DA
:10563000977F9093E80089819A810E94AE27E1CFFD
:105640008038E1F58091E800877F8093E8008091C1
:10565000DA058093F10045CF811130C09091E105CA
:10566000923060F58091E800877F8093E800909306
:10567000DA050E9441288091DA05882311F084E040
:1056800005C08091E30087FDFACF81E08093DE05BD
:105690000E942C2513C08091E105813079F481E0CE
:1056A000933009F080E08093DC051092E90080914E
:1056B000E800877F8093E8000E9441288091E800FD
:1056C00083FF0AC08091E800877F8093E800809183
:1056D000EB0080628093EB00AA960FB6F894DEBFD1
:1056E0000FBECDBFDF91CF911F9108950895CF9345
:1056F0008091DE058823A1F0C091E900CF709091E0
:10570000EC00892F817090FD80E8C82B1092E90091
:105710008091E80083FD0E94242ACF70C093E900A5
:10572000CF910895991B79E004C0991F961708F04E
:10573000961B881F7A95C9F78095089587FB082ED8
:10574000062687FD819567FD61950E94922B0EF4D8
:10575000919507FC81950895AA1BBB1B51E107C0D9
:10576000AA1FBB1FA617B70710F0A61BB70B881FF1
:10577000991F5A95A9F780959095BC01CD01089580
:1057800097FB072E16F4009407D077FD09D00E94EE
:10579000AC2B07FC05D03EF4909581959F4F089562
:1057A000709561957F4F0895A1E21A2EAA1BBB1B2D
:1057B000FD010DC0AA1FBB1FEE1FFF1FA217B307DD
:1057C000E407F50720F0A21BB30BE40BF50B661FF3
:1057D000771F881F991F1A9469F7609570958095B7
:1057E00090959B01AC01BD01CF010895EE0FFF1F05
:1057F0000590F491E02D0994692796276927782769
:105800008727782708950E940B2C332312F48A1BD4
:105810009B0B0C941C2CA29FB001B39FC001A39FB3
:10582000700D811D1124911DB29F700D811D1124D9
:10583000911D08950E940B2CB7FF0895821B930BB6
:1058400008950E940B2CA59F900DB49F900DA49FCE
:10585000800D911D11240895B7FF0C94212C0E94F6
:10586000212C821B930B08958F929F92AF92BF922F
:10587000CF92DF92EF92FF92CF93DF93EC0168819A
:1058800079818A819B81611571058105910521F4DA
:1058900064E279ED8BE597E02DE133EF41E050E0F4
:1058A0000E94E52C49015A019B01AC01A7EAB1E431
:1058B0000E94212C6B017C01ACEEB4EFA501940198
:1058C0000E942F2CDC01CB018C0D9D1DAE1DBF1D38
:1058D000B7FF03C00197A109B04888839983AA83C1
:1058E000BB839F77DF91CF91FF90EF90DF90CF90B8
:1058F000BF90AF909F908F9008950E94342C089590
:1059000080E091E00E94342C0895B0E0A0E0809304
:10591000000190930101A0930201B0930301089547
:10592000FC014150504030F001900616D1F73197FC
:10593000CF010895882799270895F999FECF92BD40
:1059400081BDF89A992780B50895A6E1B0E044E0BA
:1059500050E00C94D72CA8E1B0E042E050E00C9469
:10596000D72C262FF999FECF92BD81BDF89A0197C9
:1059700000B4021639F01FBA20BD0FB6F894FA9A97
:10598000F99A0FBE08950396272F0E94B22C0E9409
:10599000B12C252F0E94B22C242F0C94B22C0196EE
:1059A000272F0E94B22C0C94B12CDC01CB01FC01FE
:1059B000F999FECF06C0F2BDE1BDF89A319600B468
:1059C0000D9241505040B8F70895052E97FB1EF4F4
:1059D00000940E94FC2C57FD07D00E94D42B07FC9A
:1059E00003D04EF40C94FC2C5095409530952195A5
:1059F0003F4F4F4F5F4F08959095809570956195FB
:105A00007F4F8F4F9F4F0895F894FFCF15111D11B1
:105A1000241129112E11331138113D114211471152
:105A20004C11511155115A115D116011631166111C
:105A300068116B119812A512CD12D912E412EF124F
:105A4000F212F512F81241134113FB12FF12071361
:105A500014132113241327133413C319C3191B1A46
:105A60001B1A6D1AF019F019F019891A151B241B4D
:105A7000241B801BF019F019891BFA1BFA1B031C4D
:105A8000031C051C031C031C031CFA1BFA1B0A1C29
:105A9000031C031C0A1C4D2A752A5E2B752A5E2BDB
:0A5AA000A82AC92A5E2B202B2C2B0C
:105AAA0001000000010102005800585801191A1B90
:105ABA001C1D1E1F20212250046F24AD247224A90C
:105ACA0024A52401E200E900EA00B500B600B70007
