:100000000C940E040C9455040C9455040C94550453
:100010000C9455040C9455040C9455040C945504FC
:100020000C9455040C9455040C9480290C94542A77
:100030000C94D0230C9455040C9455040C94550442
:100040000C9455040C9455040C9455040C945504CC
:100050000C9455040C9427240C9455040C945504CA
:100060000C9455040C9455040C9455040C945504AC
:100070000C9455040C9455040C9455040C9455049C
:100080000C9455040C9455040C9455040C9455048C
:100090000C9455040C9455040C9455040C9455047C
:1000A0000C9455040C9455040C945504290000003C
:1000B0003A003B003C003D003E003F004000410054
:1000C0004200430044004500460047004800350018
:1000D0001E001F0020002100220023002400250014
:1000E000260027002D002E002A0049004A004B0060
:1000F0002B0014001A000800150017001C0018003F
:100100000C00120013002F00300028004C004D009E
:100110004E00390004001600070009000A000B0019
:100120000D000E000F00330034003200000000000C
:1001300000000000E10064001D001B000600190023
:10014000050011001000360037003800E5000000FF
:10015000000052000000E000E300E20000000000A8
:100160002C00000000000000E6006500E4000151E2
:100170005000000051004F00005C00000100010031
:100180000100010001000100010001000100010067
:1001900001000100CE5CCF5CD05C010001000100D9
:1001A0000100010001000100010001000100010047
:1001B000010001000100C65CC85CCA5C01000100CE
:1001C0000100010001000100010001000100010027
:1001D0000100010001000100C75CC95CCB5C0100AB
:1001E0000100010001000100010001000100010007
:1001F00001000100010001000000000000000000FB
:100200000100010001000100010001000100145C77
:1002100001000100010001000100000000000100D8
:1002200000000100010001000000000001000000CA
:10023000000000000100010001000100C55C000099
:10024000C35CC45C0100000001000100010001006A
:100250000100010001000100010001000100010096
:100260000100010001000100010001000100010086
:100270000100010001000100010001000100010076
:100280000100010001000100010001000100010066
:100290000100010001000100010001000100010056
:1002A0000100010001000100010001000100010046
:1002B0000100010001000100010001000100010036
:1002C000010001000000000000000000010001002A
:1002D0000100010001000100010001000100010016
:1002E0000100010001000000000001000000010009
:1002F00001000100000000000100000000000000FB
:1003000001000100010001000100000001000100E6
:1003100001000000010001000100010001000100D6
:1003200001000100010001000100010001000100C5
:1003300001000100010001000100010001000100B5
:1003400001000100010001000100010001000100A5
:100350000100010001000100010001000100010095
:100360000100010001000100010001000100010085
:100370000100010001000100010001000100010075
:100380000100010001000100010001000100010065
:100390000000000000000000010001000100010059
:1003A0000100010001000100010001000100010045
:1003B0000100000000000100000001000100010038
:1003C000000000000100000000000000010001002A
:1003D0000100010001000000010001000000000018
:1003E000000000002A2B2800000000000000000090
:1003F0000000000000000029000000002C1E342036
:10040000212224342627252E362D3738271E1F205B
:100410002122232425263333362E37381F040506A0
:100420000708090A0B0C0D0E0F10111213141516E4
:100430001718191A1B1C1D2F3130232D35040506E2
:100440000708090A0B0C0D0E0F10111213141516C4
:100450001718191A1B1C1D2F3130354C00000000D5
:10046000000000000000000000000000000000008C
:10047000000000000000000000000000000000007C
:100480007E0F00D4FFFFFFC7000000781E0F05009D
:10049000047F3F1F643214643214783C1E1E140A19
:1004A000052223252628292A2C2D2F3032333536B4
:1004B000383A3B3D3E4042434547494A4C4E5051F5
:1004C000535557595A5C5E6062646668696B6D6F1C
:1004D00071737577797B7D7F81838587898A8C8E1F
:1004E00090929496989A9C9E9FA1A3A5A7A8AAAC27
:1004F000AEAFB1B3B4B6B8B9BBBCBEBFC1C2C3C561
:10050000C6C7C9CACBCCCDCED0D1D2D2D3D4D5D602
:10051000D7D7D8D9D9DADADBDBDBDCDCDCDCDCDD35
:10052000DDDDDDDCDCDCDCDCDBDBDBDADAD9D9D819
:10053000D7D7D6D5D4D3D2D2D1D0CECDCCCBCAC9B1
:10054000C7C6C5C3C2C1BFBEBCBBB9B8B6B4B3B1E0
:10055000AFAEACAAA8A7A5A3A19F9E9C9A9896947B
:1005600092908E8C8A89878583817F7D7B79777550
:1005700073716F6D6B6968666462605E5C5A59572F
:10058000555351504E4C4A4947454342403E3D3BEE
:100590003A3836353332302F2D2C2A292826252378
:1005A00022FFAA7F55400001010101010101010163
:1005B0000202020202020202020303030303030314
:1005C00003040404040404040505050505060606E1
:1005D0000606070707070708080808090909090A9E
:1005E0000A0A0B0B0B0C0C0C0D0D0D0E0E0E0F0F43
:1005F0000F101011111112121313141415151616D1
:100600001717181819191A1A1B1B1C1D1D1E1E1F3F
:100610002020212222232424252626272829292A8E
:100620002B2C2D2D2E2F30313232333435363738B6
:10063000393A3B3C3D3E3F404142434445464748B2
:10064000494A4C4D4E4F50515354555658595A5B88
:100650005D5E5F616264656668696B6C6D6F707228
:10066000737577787A7B7D7E8082838587888A8C94
:100670008E8F91939596989A9C9EA0A2A3A5A7A9C8
:10068000ABADAFB1B3B5B7BABCBEC0C2C4C6C9CBBF
:10069000CDCFD1D4D6D8DBDDDFE2E4E7E9EBEEF075
:1006A000F3F5F8FAFDFF1803430055003800300059
:1006B0002000760032002000490053004F00000067
:1006C0001A03430061007000730055006E006C0057
:1006D0006F0063006B006500640000000403090400
:1006E00009025B00030100A0FA09040000010301F4
:1006F00001000921110100012240000705810308C2
:10070000000A090401000203000000092111010090
:1007100001222200070582032000010705030320B0
:100720000001090402000103000000092111010079
:1007300001226D000705840320000A120110010048
:10074000000008554380000100010200010660FF1F
:100750000961A1010962150026FF00952075088135
:10076000020963150026FF00952075089102C00557
:10077000010980A101850319012AB700150126B7D7
:1007800000950175108100C0050C0901A1018504C7
:1007900019012AA002150126A002950175108100F9
:1007A000C005010906A1018505050719E029E7151E
:1007B0000025019508750181020507190029EF152B
:1007C00000250195F075018102050819012905959B
:1007D0000575019102950175039101C00501090696
:1007E000A101050719E029E7150025019508750104
:1007F00081029501750881010507190029FF15007F
:1008000026FF009506750881000508190129059540
:100810000575019102950175039101C011241FBE58
:10082000CFEFDAE0DEBFCDBF04B603FE27C0809174
:10083000E7059091E805A091E905B091EA058730B8
:10084000904BA740B04BD1F41092E7051092E80509
:100850001092E9051092EA0514BE84B7877F84BF21
:100860000FB6F894A895809160008861809360002D
:10087000109260000FBEE0E0F8E3099511E0A0E0FF
:10088000B1E0E2E9FBE502C005900D92A83DB10799
:10089000D9F725E0A8EDB1E001C01D92A73EB2074F
:1008A000E1F70E9435260C94782D0C94000081E02D
:1008B000089581E008950C94590408950C945D0402
:1008C0001F93CF93DF9300D000D00F92CDB7DEB748
:1008D00049835A836B833091CC0389819A8131118A
:1008E0001DC06623B9F02223A9F00E94C820182F4A
:1008F000682F89819A810E94742069817A81812F71
:100900000F900F900F900F900F90DF91CF911F914C
:100910000C94FF130E94A020182FEFCF0E94C82034
:1009200069817A81EDCFFC01262F4081518162815E
:10093000738184810C946004CF93DF93EC0160E0B9
:100940000E949304BE01DF91CF910C945E048F92BC
:100950009F92AF92BF92CF92DF92EF92FF920F934E
:100960001F936B017C0181E090E0A0E0B0E04C01BE
:100970005D0104C0880C991CAA1CBB1C4A95D2F7C7
:10098000B501A4014C015D0104C0880C991CAA1C8E
:10099000BB1C2A95D2F7482959296A297B2904C00A
:1009A000880F991FAA1FBB1F0A95D2F78A019B01C6
:1009B0000C211D212E213F2104171507260737077B
:1009C00089F48C299D29AE29BF29BC01CD011F9135
:1009D0000F91FF90EF90DF90CF90BF90AF909F90DE
:1009E0008F90089580959095A095B0958C219D212C
:1009F000AE21BF21EACF0F93382F262F60914604F6
:100A0000709147048091480490914904042F432F2A
:100A10000E94A7040F910C94B21F0E9476240E949A
:100A20001422811102C00E94B8220C9444080C9434
:100A3000470808950E94DE1B0E9419052FEF84E3EA
:100A40009CE0215080409040E1F700C000000C94F1
:100A50004B240F931F93CF93DF93EC0161E00E942F
:100A600093048C01BE010E94E511882389F1BE0127
:100A7000C8010E945B04882359F1BE01C8010E948D
:100A80003415882329F1BE01C8010E9486158823E8
:100A9000F9F0BE01C8010E94A9168823C9F0BE0161
:100AA000C8010E94F210882399F08A81882339F0C6
:100AB00001158CE5180751F00F3D1C4579F0CE016A
:100AC000DF91CF911F910F910C9457040E941A054A
:100AD00080E0DF91CF911F910F9108950E94B8227D
:100AE000F7CFDF92EF92FF920F931F93CF93DF9395
:100AF000E82FF0E0E452FC4FD490282F269526955D
:100B0000269530E0F901E458FB4F0491877010E01E
:100B1000082E02C0159507950A94E2F70170112777
:100B2000F901E459FB4FE490F12C082E02C0F59432
:100B3000E7940A94E2F791E0E922FF24F901E45AEC
:100B4000FB4FC491D0E002C0D595C7958A95E2F7D6
:100B5000C170DD270115110519F081EE0E947C1886
:100B6000E114F10419F086EE0E947C188D2D0E948C
:100B70006C19EF2819F086EE0E940619012B19F066
:100B800081EE0E940619CD2B51F08CE2DF91CF91BE
:100B90001F910F91FF90EF90DF900C946C19DF91F3
:100BA000CF911F910F91FF90EF90DF900895EF92FA
:100BB000FF920F931F93CF93DF93EC01162F0AE060
:100BC0008881882309F454C0813009F04EC089819E
:100BD000813099F47E0122E0E20EF11C8A810E94AC
:100BE0006C19E7012196812F815050F3EFE9FFE066
:100BF0003197F1F700C00000F7CF823041F47E0159
:100C000082E0E80EF11C8A810E947C18EACF8330D2
:100C100041F47E01E2E0EE0EF11C8A810E94061989
:100C2000E0CF843011F02196DDCF2A81229690E02A
:100C300080E0AE014F5F5F4F2053330B2A30310508
:100C400048F0019778F2EFE9FFE03197F1F700C043
:100C50000000F7CF089FB001099F700D1124C90152
:100C6000860F971F2981EA01E4CF0E947105BACF50
:100C7000DF91CF911F910F91FF90EF90089560E069
:100C80000C94D70508950C94420681E008950C94C5
:100C90004506CF93C82F0E9443068C2FCF910C940A
:100CA000470690E080E008950895FC01EE0FFF1FD5
:100CB000E457FB4F859194910895CF93DF930E9461
:100CC000FF130E946907EC01811520E5920708F0E7
:100CD00041C0811530E4930708F0B4C0803E91050F
:100CE00018F5803C910508F09DC0883A910570F494
:100CF000853A910508F08EC081309105F9F0009792
:100D0000E9F00497D8F4D0E0C0E018C08F3B91051B
:100D1000D0F7C85AD0E0CC0FDD1FCC5DDE4F099074
:100D2000D881C02DD4640AC08115904258F4C115F1
:100D300081E0D80718F4C83ED10528F7CE01DF912D
:100D4000CF910895C11590E3D90708F071C0CE0185
:100D50009F706AC0811525E5920758F5811534E525
:100D6000930708F09EC0811542E5940750F4C11521
:100D700081E5D80708F469C0DC2FCC27C16FD06AA1
:100D8000DDCF982F969596959E0123703327C11538
:100D9000D34508F077C0C1E0D0E002C0CC0FDD1F22
:100DA0002A95E2F720E2929FC0011124C82BD92B8B
:100DB00067C0C11589E5D807A8F4C11598E5D9071A
:100DC00008F074C0C11526E5D20708F09CCF8C2F1F
:100DD0000E940008C82FD0E0DC2FCC27CC27DF7181
:100DE000D062ACCFC1153AE5D30708F464C0CE0198
:100DF00090568115904208F086CF8D2F8F710E94FA
:100E0000000890E0982F882788279F719C012C2B41
:100E1000E901E6CFC55AD0E0CE5ADE4FC881D0E016
:100E2000D0648CCF805C91090E945506EC0186CF7E
:100E3000CE019927D3FF03C0EC01D86C7FCFEC0122
:100E4000D06C7CCFDF70D06A79CFCE01E4E096958C
:100E50008795EA95E1F783702C2F269526952370C8
:100E600090E2299F90011124382B8C2F8370C1E0D0
:100E7000D0E002C0CC0FDD1F8A95E2F7C22BD32B46
:100E8000DC685CCFC1E0D0E002C0CC0FDD1F2A954A
:100E9000E2F730E2939FC0011124C82BD92BDA6806
:100EA0004DCFD82FCC27C46FD06A48CFDC2FCC27AA
:100EB000C06FD06A43CF8C2F8F700E94000834E03F
:100EC000D695C7953A95E1F7CF709C2FEC01D06984
:100ED00035CF82389105B1F1B0F48133910509F431
:100EE00075C048F48932910509F469C08A329105C8
:100EF00009F473C008958533910509F459C0893305
:100F0000910501F10895833E9105A9F138F4803EE1
:100F10009105F9F0823E910549F10895863E9105CB
:100F2000A9F1873E9105C9F1843E910519F52091FB
:100F3000D90521FF1FC08091D80584FD14C087EE1C
:100F400090E008952091D8052370A1F080EE90E004
:100F500008952091D80520FD47C03091D90530FF74
:100F600009C024FF44C090E080E004C02091D8056F
:100F700022FDF7CF08952091D80522FD3BC0309186
:100F8000D90530FDE3CF24FFF5CFEDCF2091D80573
:100F900023FFF0CF24FDE7CFD2CF2091D80523FD4A
:100FA0002CC03091D90531FFEECF84EE90E008954A
:100FB0002091D80525FFDECF89E290E008952091A9
:100FC000D80525FFD7CF85E390E008952091D80577
:100FD00026FFD0CF8AE290E008952091D80526FF21
:100FE000C9CF81E390E0089589E390E0089583EE0E
:100FF00090E0089582EE90E0089586EE90E00895E6
:101000009091D80592FF06C0282F28712830F9F456
:10101000877F846093FF06C0282F28712831F1F460
:10102000877E84612091D90520FF06C0382F387152
:101030003830D9F4877F816021FF06C0282F2871BE
:101040002831D1F4877E816194FD877E0895282F11
:1010500024712430F9F68B7F8860DCCF282F24712F
:10106000243101F78B7E8861DDCF382F317131302B
:1010700019F78E7F8860E0CF282F2171213121F769
:101080008E7E8861E1CF08950C94430808950C94F6
:10109000460894E0899FF0011124E155FB4F6081DF
:1010A0007181828193810895089580EA8A95F1F78C
:1010B000089500C008950C945508F894E82FE2951F
:1010C000EF70F0E031A1282F2F7081E090E001C097
:1010D000880F2A95EAF7982F9095932391A392A1D0
:1010E000892B82A3789408950F931F93CF93DF9356
:1010F00083E90E945D0882E90E945D0887E30E94FF
:101100005D0881EF0E945D0887E60E945D0885E921
:101110000E945D08C5E5D1E006E611E089910E94D4
:101120005D080C171D07D1F7E7E9F4E0AFEAB4E07A
:1011300011921192119211921D921D921D921D9267
:1011400084E0EF3AF807A1F786E00E945009DF91AA
:10115000CF911F910F910C940D054F925F926F925A
:101160007F928F929F92AF92BF92CF92DF92EF9237
:10117000FF920F931F93CF93DF9336E6A32E31E0B8
:10118000B32E07E914E0D0E0C0E088248394912CCA
:10119000F50181915F01F894E82FE295EF70F0E09E
:1011A00021A18F70240102C0440C551C8A95E2F7DE
:1011B000C201922F982B91A392A18095892382A39B
:1011C00078940E945908A5E5B1E090E080E0C12C38
:1011D000D12C76014D91E42FE295EF70F0E020A143
:1011E00030E04F7002C0359527954A95E2F720FD13
:1011F00051C0412C512C32014394082E04C0440CA0
:10120000551C661C771C0A94D2F7B301A201C42AAC
:10121000D52AE62AF72A019681319105D9F6F501FA
:10122000319780810E945D08D53011F00E945B08E3
:10123000F80180819181A281B381C816D906EA069E
:10124000FB0661F1C082D182E282F38281E0C82B89
:10125000DF5F0C5F1F4FD63009F09ACF2C2F46E08E
:101260006FEA74E087E994E00E9451090E94170533
:101270008C2FDF91CF911F910F91FF90EF90DF9016
:10128000CF90BF90AF909F908F907F906F905F9026
:101290004F90089540E050E0BA01B9CF80E0D7CF39
:1012A0000895FF920F931F93CF93DF93F82ED92FBA
:1012B0008B01C42F222349F081E08093DC010E943E
:1012C00000249093DB018093DA018091DC01882374
:1012D00099F08091DA019091DB010E941824069721
:1012E00058F0EF2DFD2FD80190E080E0D0E08C1772
:1012F0009D0744F01092DC01DF91CF911F910F9177
:10130000FF90089501911191219131910D931D93B9
:101310002D933D930196EBCFEF92FF920F931F9386
:10132000CF93DF93EB01E82FD11110C0442321F0BC
:10133000F0E0EA55FA4FE4916E2F7E2F8E2FDF9169
:10134000CF911F910F91FF90EF9008950D2F10E016
:10135000282F30E0442329F02A553A4FF9012491EF
:1013600030E0F6E0CF9FC0011124EFEFF0E0BF01C5
:101370000E94202CAB018C2F90E0880F991FA5E5CF
:10138000A49FB001A59F700D1124861B970B982F69
:10139000990F980FBF01601B710B629FD001639F73
:1013A000B00D729FB00D11248B2F9D9FB0011124A1
:1013B000672F7727EF01C61BD70BBE01629FE001A5
:1013C000639FD00D729FD00D11247F01E91AF1089F
:1013D000E09EB001E19E700DF09E700D1124672F0C
:1013E0007727E61BF70BE29F8001E39F100DF29F2A
:1013F000100D1124E12F722F4230510599F048F45D
:101400004115510569F04130510581F0EB2F8D2FC9
:1014100007C04430510569F080F046305105B1F7FE
:101420006E2F8DCFE22F7B2F812FFACFE22F7D2FD2
:10143000F7CFEB2F822F712FF3CF7B2F822FED2F42
:10144000EFCF41E00C948C0908950C94210ACF93BE
:10145000DF93762FE901682F842F0E94250A798374
:1014600068838A83DF91CF910895433308F042E384
:101470000C94270A8091C704982F9E7F61F4817095
:1014800082608093C7048091CA04833318F082E39A
:101490008093CA0408958635B0F381708465F1CFD6
:1014A00088E090E00C94192DCF92DF92EF92FF929A
:1014B0006B017C010E943A0AB701A60188E090E026
:1014C000FF90EF90DF90CF900C94372D6091C70480
:1014D0007091C8048091C9049091CA040C94540A74
:1014E000E7ECF4E083E0808311828FEF828382E374
:1014F0008383148260817181828193810C94540A68
:101500008091C70480FF02C08695089580E0089509
:101510009091CB04933018F49F5F9093CB04882371
:1015200051F06091C7047091C8048091C9049091F2
:10153000CA040C94540A089581E00C94880A90918E
:10154000CB04992319F091509093CB04882351F048
:101550006091C7047091C8048091C9049091CA0435
:101560000C94540A089581E00C949F0A8091CB0456
:1015700008958093CB04662351F06091C704709165
:10158000C8048091C9049091CA040C94540A089527
:1015900060E00C94B90A8091C80408958091C90450
:1015A00008958091CA04089570E00C9462116091CE
:1015B00008018091C70480FF0AC08091070123E0E1
:1015C000829FC001112484539B4F0C94D40A8091B4
:1015D000090190910A0123E0829FF0011124E45354
:1015E000FB4F891750F71182108212828F5F33965A
:1015F000F8CF9091C70490FF14C0909109012091F9
:101600000A0133E0939FF0011124E453FB4F92173A
:1016100010F00C94D70A8183608342839F5F3396D6
:10162000F6CF0895CF93DF9300D00F92CDB7DEB7FA
:101630009091C70490FF0AC09E012F5F3F4F0E9408
:10164000350A4B8169818A810E94F90A0F900F90B7
:101650000F90DF91CF910895CF93DF93EC01EC8150
:10166000F0E0EF55FB4F4491E7ECF4E062818181BB
:101670000E94120B8C818F5F8C83DF91CF91089534
:10168000CF93DF93EC01E7ECF4E0438162818C813E
:101690000E94120B8C818F5F8C83DF91CF91089514
:1016A0000F931F93CF93DF9300D00F92CDB7DEB788
:1016B0008C018091DD0181110AC09E012F5F3F4F97
:1016C00042E36FEF0E94350A8A818093DD01F801C1
:1016D0006481613069F08091DD0140E0662361F052
:1016E00040E0623011F44091DD0180E060E004C030
:1016F0006091DD0140E080E00E94F90AF8018481F8
:1017000090E0019663E070E00E94342C84830F9097
:101710000F900F90DF91CF911F910F910895AF928D
:10172000BF92CF92DF92EF92FF920F931F93CF93CE
:10173000DF9300D00F92CDB7DEB7182FF62E042F0F
:10174000E22E9091C70490FF29C0E92FE695AE2FB5
:10175000B0E0A459BE4F8C9180939F039E7F92303E
:1017600059F59E012F5F3F4F812F0E94350A4B8113
:1017700069818A810E94F90A1093C804F092C90411
:101780000093CA04EE2051F06091C7047091C80420
:101790008091C9049091CA040E94540A0F900F903E
:1017A0000F90DF91CF911F910F91FF90EF90DF90FD
:1017B000CF90BF90AF900895823019F40091CA0481
:1017C000DBCF863019F41091C804D6CF8930D9F315
:1017D000893191F6E9518E2F8170D82EE695F0E08F
:1017E000EF55FA4FA590B490C12CBB2460910B012A
:1017F000C61618F00E94D70ABFCF2C2D30E0A29E4B
:10180000C001A39E900DB29E900D112470E00E9425
:10181000202C812FD11013C0860F40910901420F57
:10182000532F511D9A01220F331F240F351F2453AC
:101830003B4F402F6F2D0E94350AC394D7CF861B94
:10184000ECCFE7ECF4E09181282F4381628188E0BE
:10185000890F0C948F0B81E00C94210CE7ECF4E0E1
:101860009181282F4381628188EF890F0C948F0B1F
:1018700081E00C942E0CE7ECF4E0628128E0620F2A
:1018800008F46FEF282F438181810C948F0B81E046
:101890000C943B0CE7ECF4E0628128E0621B08F456
:1018A00060E0282F438181810C948F0B81E00C94A0
:1018B0004A0CE7ECF4E0438128E0420F08F44FEFD4
:1018C000282F628181810C948F0B81E00C94590C3C
:1018D000E7ECF4E0438128E0421B08F440E0282FC5
:1018E000628181810C948F0B81E00C94680C20E064
:1018F0000C948F0BEF92FF921F93CF93DF93EC0129
:1019000010E0EE24EA94F12C60910B01161770F0B0
:101910000E94D70A9A818C8190FF27C08F5F8C83A9
:10192000DF91CF911F91FF90EF90089520910901D1
:10193000422F410F5527551FCA019A01220F331F0D
:10194000280F391F24533B4F70E0C7010E94342CED
:10195000962F8C814091CA046091C904199F800D13
:1019600011240E94350A1F5FCFCF8150D8CFAF928C
:10197000BF92CF92DF92EF92FF920F931F93CF937C
:10198000DF93FC0182810FEF80FF01E010E048E56A
:10199000A42E80910B011817C8F00E94D70A8091DD
:1019A000DF01013009F055C0811102C080910B01A7
:1019B00081508093DF01DF91CF911F910F91FF90B4
:1019C000EF90DF90CF90BF90AF900895C091090144
:1019D000C12ED12CCC0DDD2DD11DCE01880F991F2C
:1019E000C80FD91FC453DB4F198218821A8234E002
:1019F000E32EF12CB12C8091DF018B0D89351CF188
:101A00006A2D0E94122C892F082E000C990BC816E3
:101A1000D90691F48091CA048E9DA0018F9D500D2E
:101A2000112455954795559547959E016091C90498
:101A30008091C8040E94350AB00EF1E0EF1AF10857
:101A4000D1F61F5FA6CF87FFDFCF90910B01890FE3
:101A5000DBCF90E0019660910B0170E00E94342C86
:101A6000A8CF0F931F93CF93DF938091090190919B
:101A70000A0123E0829FF0011124E453FB4F8917F0
:101A800040F1C0E0D3E060910B01C61740F10E9425
:101A9000D70A209105018091DE01820F8093DE013B
:101AA00090910601920F90930601191654F4082E96
:101AB000000C990B40910B014150550B8417950771
:101AC0001CF0219520930501DF91CF911F910F917B
:101AD00008951182108212828F5F3396D0CF0C2F1F
:101AE00010E070E0C8010E94342C20910901820F9F
:101AF000482F50E02091DE01022E000C330B02171C
:101B00001307BCF020910601022E000C330B2017A6
:101B100031077CF08D9F9001112424533B4F40915D
:101B2000CA046091C9048091C8040E94350ACF5F3D
:101B3000AACFFA01EE0FFF1FE40FF51FE453FB4F8E
:101B4000118210821282F3CF8F929F92AF92BF9236
:101B5000CF92DF92EF92FF920F931F93CF93DF9379
:101B6000EC014C81042F10E09801D8010E947F2CD9
:101B70009B01AC010E94952C4B015C01E0E2F0E07E
:101B8000E01BF10BA5E5B0E0AC019B010E94952C98
:101B90006B017C019F01DF010E94772C9B01AC014E
:101BA0000E94A02C9B01AC01280D391D4A1D5B1D14
:101BB000C701B6010E94482CF22E822F90E039E234
:101BC0003F1560F143E0249F90011124359527953E
:101BD000122F109500E085E5E82EEF1880910B019B
:101BE000081758F10E94D70A9C8181E0992319F0C7
:101BF000903219F48FEF8093040180910401890FD2
:101C00008C83DF91CF911F910F91FF90EF90DF9028
:101C1000CF90BF90AF909F908F90089525E530E0D2
:101C2000B901681B790B9B01220F331F260F371F49
:101C300037FFCCCF2F5F3F4FC9CF8E2D01FD8F2DAA
:101C400020910901622F600F7727771F9B01220FD8
:101C5000331F260F371F24533B4F412F6091C90478
:101C60000E94350A0F5FBACF0F931F93CF93DF9374
:101C7000EC0110E000E090910B019017110609F0C3
:101C80006CF40E94D70A8C8190E0019681709927AC
:101C90008C83DF91CF911F910F91089520910901BD
:101CA000A801420F511D9A01220F331F240F351F27
:101CB00024533B4F4C816091C9048091C804969590
:101CC0009017110651F04CF0442349F04091CA049A
:101CD0000E94350A0F5F1F4FCECF4423B9F340E077
:101CE000F7CF4F925F926F927F928F929F92AF92B7
:101CF000BF92CF92DF92EF92FF920F931F93CF93F9
:101D0000DF93FC016280448081E08483E1EAF4E0B7
:101D10007490E0E2F5E0E491812C75E0972EF2E01A
:101D2000CF2EDD24D394AA24AA94B12C55245A94FE
:101D3000E7190E2F10E080910B01881690F0DF91CB
:101D4000CF911F910F91FF90EF90DF90CF90BF90B8
:101D5000AF909F908F907F906F905F904F900C947A
:101D6000D70AE82CF12C82E0861568F09E9CF001E1
:101D70009F9CF00D1124E052FE4F8091C804808397
:101D80008091C9048183411023C09E9CF0019F9CD7
:101D9000F00D1124E052FE4F1382128220910901AE
:101DA000C701820F911D9C01220F331F280F391F7D
:101DB00024533B4F9E9CF0019F9CF00D1124E05258
:101DC000FE4F4281618180810E94350A8394B3CFA6
:101DD0009E9CE0019F9CD00D1124C052DE4F8B8150
:101DE0008823E9F081508B83859DC00111246C818B
:101DF00070E00E94202CFB01FF27EF55FB4F8491E0
:101E0000E82FE719E59DC0011124B8010E94202C9C
:101E10008091CA04689FB00111247A83BFCF0E94C9
:101E2000F42C2091CA04269521582C9DA0012D9DAB
:101E3000500D1124452F5527841795070CF0AECF70
:101E400082E0861588F40E94F42CB5010E94342C9F
:101E500088830E94F42C2091C9042695622F70E09B
:101E60000E94342C280F29839E9CF0019F9CF00D2A
:101E70001124E052FE4F12828091CA04893C58F02E
:101E800088EC9E9CF0019F9CF00D1124E052FE4FC7
:101E90008483838383CF8431A0F784E1F2CFE7EC9E
:101EA000F4E080818E7F8083608171818281938163
:101EB0000E94540A1092A0032FEF80E792E0215075
:101EC00080409040E1F700C000000C94D70AE7EC96
:101ED000F4E080818E7F80831092A0032FEF80E753
:101EE00092E0215080409040E1F700C000000C9447
:101EF000D70A6091C704669570E04BE050E08CE033
:101F000091E00E94042D892B19F481E08093A003B5
:101F10000E940024909399038093980308959091D0
:101F2000C70490FF35C09170811128C092609093D2
:101F3000C704662351F06091C7047091C804809172
:101F4000C9049091CA040E94540A6091C70466951E
:101F500070E04BE050E08CE091E00E94042D892B72
:101F6000A1F01092A00381E080939B034091CA04EA
:101F70006091C9048091C8040C94770C8B3210F0E6
:101F80009465D5CF880F982BD2CF0E94790FEBCFD5
:101F90000895682F9091C704969581E0890F8B3240
:101FA00008F081E00C948F0F81E00C94C90F682F2A
:101FB0009091C70496958FEF890F09F48AE20C94EB
:101FC0008F0F81E00C94D70F61E00C948F0FE7EC3A
:101FD000F4E080818160808386950C94E40F809189
:101FE000C70480FD0C944F0F0C94E70F60E00C9435
:101FF0008F0F80919E0381112EC00E9414228111A7
:1020000004C00E94B8220E94700A0E94500A609385
:10201000C7047093C8048093C9049093CA046E7F68
:1020200061F40E94700A0E94500A6093C704709382
:10203000C8048093C9049093CA040E943A0A10927B
:10204000A0038091C70480FF03C086950E94F60F0D
:1020500081E080939E030895E7ECF4E08081816045
:10206000808386950C94F60F0F931F93CF93DF9385
:102070008091A003882309F496C080919F03E0918A
:10208000C704E695E81BE0939A03823091F5F0E0EF
:10209000E356FB4FE491CE2FD0E00CE21BE08091A1
:1020A0009B03882361F010929B030E94002490936D
:1020B00099038093980310929D0310929C030E94B1
:1020C0000024E0919803F09199038E1B9F0B8F3FA2
:1020D0009F4708F068C0EC0FFD1FF0939903E09351
:1020E000980388E993E0F801DF91CF911F910F9158
:1020F0000994863049F4F0E0E656FB4FE491CE2F88
:10210000D0E000E41BE0CBCF893051F4E695F0E05D
:10211000E956FB4FE491CE2FD0E00AE71CE0BFCF99
:102120008F3051F4E695F0E0EC56FB4FE491CE2F62
:10213000D0E007EB1CE0B3CF853149F4F0E0EF5677
:10214000FB4FE491CE2FD0E001E31DE0A8CFC8E221
:10215000D0E004EA1DE0883109F4A1CF833239F4DC
:10216000EFE8F4E0C591D49100E51BE098CFC4EF0F
:10217000D1E004E31EE0843209F491CFC0EDD7E052
:1021800004E21AE0853209F08ACF8E2F63E00E94C4
:10219000062CE92FF0E0E457FB4FE491CE2FD0E07E
:1021A00001E71EE07CCFDF91CF911F910F91089541
:1021B000FA01811101C0FB010994CF93DF93C82F6D
:1021C000D62F0E94800A8C1740F00E94800A8D173B
:1021D00020F4DF91CF910C94D40F8C2FDF91CF910D
:1021E0000C94E40F0F931F93CF938C01FB01C281DA
:1021F000CC2309F465C00E945D218272F801E35C82
:10220000FC45E431F10538F4E658F24D0C946A2CA3
:102210000E94EF0FC0E08C2FCF911F910F91089576
:1022200041EE5FE064ED7FE00E94D810F3CF44ED13
:102230005FE061EE7FE0F8CF48E35CE06BE27CE0DA
:10224000F3CF4BE25CE068E37CE0EECF46E55CE098
:1022500067E47CE0E9CF47E45CE066E57CE0E4CF5E
:1022600044E75CE065E67CE0DFCF45E65CE064E700
:102270007CE0DACF43EB5AE06CE97AE0D5CF4CE969
:102280005AE063EB7AE0D0CF81E00E94E40FC2CF46
:1022900065E082E00E94DD10BDCF68E086E0FACF05
:1022A0006EE089E0F7CF64E18FE0F4CF67E185E18C
:1022B000F1CF88E1EACF62E289E1ECCF83E2E5CFBA
:1022C000C1E0A9CF6E9A4EB14F7B5EB15064EFB7BB
:1022D000F8949B01220F331F260F371F280F391F39
:1022E0002817390741F4EFBF8FE594E00197F1F724
:1022F00000C000000895DC016D91CD0178E05EB969
:10230000000000C067FF4EB9660F000000C000C0AB
:1023100000C04EB900C07A9591F7E2CF82E290E01A
:102320000E94112D813289F483E290E00E94112DE8
:10233000833059F484E290E00E94112D91E08130C5
:1023400009F090E0892F8170089580E0FCCFCF9351
:10235000C82F6FEF811161E282E290E00E94252D8B
:102360006FEFC11163E083E290E00E94252D6FEFD3
:10237000C11161E084E290E0CF910C94252D80E0C2
:102380000E94A7110C940E22089585E290E00E940D
:10239000112D682F70E090E080E0089585E290E0D4
:1023A0000C94252D0E94C4110E948E1181110CC025
:1023B00060E070E0CB010E94CE110E9477130E9472
:1023C000611481E00C94A7110895CF93FB01C281A1
:1023D000CC2309F19C0122513F452031310520F5E4
:1023E00082510E947114C0E08C2FCF91089581E03A
:1023F0000E94D81F43E062E081E00E94FB04F3CF1B
:1024000081E00E94F91F43E062E081E00E94FB044A
:10241000EBCF82E0F6CF8031FFE59F0789F3813172
:102420009F45B9F3C1E0E0CF8031EFE59E07F9F2B7
:1024300081319F45C9F682E0DBCF2FEFFC0120837D
:102440000895CF93DF93EC0188818138A9F028F4B7
:10245000803871F0DF91CF910895823881F0833810
:10246000C9F70E94CB0A89830E94CE0A8A83F2CFE1
:102470000E94D10A8983EECF0E94800AFBCF0E947E
:10248000B60AF8CFCF93DF93EC0188818138E1F071
:1024900028F4803869F0DF91CF910895823811F1E6
:1024A0008338C9F70E94D10A482F6A81898108C000
:1024B000D9810E94CE0AC82F0E94CB0A4D2F6C2FC3
:1024C000DF91CF910C94770C89810E94F60F89815E
:1024D000811104C0DF91CF910C94670FDF91CF91F0
:1024E0000C942C108981DF91CF910C94C80AEF9243
:1024F000FF920F931F93CF93DF93EC01E62EDC0145
:10250000ED91CD01E150E33108F0AEC0F0E0E257CB
:10251000F24D0C946A2C198289E08A836E2DCE01CB
:10252000DF91CF911F910F91FF90EF900C942A258E
:102530008981823069F0833071F08130E1F40E944A
:102540000C240E94702C6A837B838C839D83E6CF4E
:102550000E94C511F6CF8E01F12C8F2D0E944908E3
:10256000F801828373836483F3940D5F1F4FF6E059
:10257000FF12F3CFD3CF6E2DCE010E941D12CECF0E
:1025800089818230C1F76A817B818C819D810E9423
:10259000702C0E94CE11C2CF4B816A8189810E942A
:1025A00049139827892798279D838C83B7CF2C813F
:1025B0003D813227232732274B816A8189810E94FE
:1025C0006213ACCF0E947713A9CF0E944212A6CF0C
:1025D0000E942112A3CF0E94660AA0CF0E940C1471
:1025E00089839CCF0E940E149827892798279A8365
:1025F000898394CF6B8170E089819A81AE014C5FB1
:102600005F4F9827892798270E94111487CF6B81E5
:1026100070E089819A81AE014C5F5F4F98278927CE
:1026200098270E9437147ACF0E94611477CF0E94B6
:102630003713D6CF6B8170E089819A81AE014C5FF0
:102640005F4F9827892798270E94AF1367CF6B8128
:1026500070E089819A81AE014C5F5F4F982789278E
:1026600098270E94D5135ACF8FEF888357CF84E0E5
:10267000089550E0440F551F92E2699F400D511D8F
:1026800011249CEC899F400D511D1124CA0186968E
:1026900008950F931F93CF93DF930E9439138C01FA
:1026A0000E94112DC82FD0E0DC2FCC27C801019645
:1026B0000E94112D9E01282BC901DF91CF911F91FE
:1026C0000F9108950F931F93CF93DF93122F032F32
:1026D0000E943913EC01602F0E94252D612FCE013D
:1026E0000196DF91CF911F910F910C94252DAF9200
:1026F000BF92CF92DF92EF92FF921F93CF93DF931F
:102700008CEAC82E80E0D82ED0E07601C0E014C05C
:10271000F50125913491412F6C2F8D2F0E9462136A
:1027200082E0A80EB11C1F5F113191F782E2E80E22
:10273000F11CCF5FC63019F0570110E0E9CFDF5F21
:102740008CECC80ED11CD43001F7DF91CF911F91D2
:10275000FF90EF90DF90CF90BF90AF900895EF92F1
:10276000FF920F931F93CF93DF93EC018A017C01BB
:10277000E60EF71ECE018696CE15DF0539F4DF9101
:10278000CF911F910F91FF90EF900895C03323E0F8
:10279000D20740F40E94112DF80180830F5F1F4F74
:1027A0002196E8CFF8011082F9CFCF92DF92EF9215
:1027B000FF920F931F93CF93DF937C016A018C01EB
:1027C000060F171FEC01CE018696C017D10749F4FA
:1027D000DF91CF911F910F91FF90EF90DF90CF90FD
:1027E0000895C03323E0D20740F4FE01EE19FF093B
:1027F000EC0DFD1D60810E94252D2196E4CF462F12
:10280000843038F4763028F4613118F4672F0C9452
:10281000491390E080E0089580E108958AEA90E00D
:102820000895EF92FF920F931F93CF93DF93EC01E4
:102830008A017C01E60EF71ECE018A5A9C4FCE1506
:10284000DF0539F4DF91CF911F910F91FF90EF9049
:102850000895CA3AD10540F40E94112DF8018083F1
:102860000F5F1F4F2196E8CFF8011082F9CFCF926A
:10287000DF92EF92FF920F931F93CF93DF937C0130
:102880006A018C01060F171FEC01CE018A5A9C4F7A
:10289000C017D10749F4DF91CF911F910F91FF909D
:1028A000EF90DF90CF900895CA3AD10540F4FE0131
:1028B000EE19FF09EC0DFD1D60810E94252D21966A
:1028C000E4CFCF93DF93C6E5D3E060E0CE010E9472
:1028D000252D2196C11584E0D807B9F7DF91CF9156
:1028E0000895DF92EF92FF920F931F93CF93DF93A0
:1028F00000D000D0CDB7DEB7F82E8FE08F1540F0B6
:102900008FEF93E00E94112D06E513E08823C1F0BC
:102910000F900F900F900F90DF91CF911F910F911B
:10292000FF90EF90DF900895011584E0180781F380
:10293000C8010E94112D811101C0FA940F5F1F4F31
:10294000F110F2CF19821A821B821C82DD24D394EB
:1029500078018FEFE81AF80AC8010E94112D8983C7
:102960001A828823A9F29FEF980F933078F48A8314
:10297000D9820E5F1F4FC7010E94112D8B838823C0
:1029800039F2CE0101960E943F06E2CF8701F9CFCE
:102990000F931F93CF93DF93C42FD22FFC0182811B
:1029A0008823C9F04093A3030E9400249093A203BC
:1029B0008093A10380E28C0F883008F050C0C7706C
:1029C00081E001C0880FCA95EAF7DF91CF911F918E
:1029D0000F910C9474191091A303141335C08091B6
:1029E000A1039091A2030E941824883C910560F5F0
:1029F000C0E2CD0F1D17B9F080E2810F883040F49E
:102A0000177081E001C0880F1A95EAF70E947B19C0
:102A1000C83048F481E09D2F977001C0880F9A95C7
:102A2000EAF70E947419802F0E946C19C830B8F41C
:102A3000D77081E001C0880FDA95EAF7DF91CF9176
:102A40001F910F910C947B1980E28C0F883038F421
:102A5000C77081E001C0880FCA95EAF7EFCFDF9118
:102A6000CF911F910F9108950F939C01CB01243FAB
:102A70004CE5340759F1A8F4293DFCE53F0701F185
:102A80002A3D4CE53407D1F1283D3C4591F406E25E
:102A900021EE41EE68ED7CE50E94C81480E00F91C4
:102AA0000895263FFCE53F07E9F0B0F0273F3C459D
:102AB000F9F0FC018281882339F11092A303EFCF52
:102AC00007E225EE45EE69ED7CE5E6CF06E221EE74
:102AD00040EE64EF7CE5E0CF07E225EE44EE65EFE3
:102AE0007CE5DACF06E221EE42EE66EF7CE5D4CF5C
:102AF00007E225EE46EE67EF7CE5CECF08E221E067
:102B000045EE6AED7CE5C8CF81E0C9CFCF93DF9376
:102B1000EC01FB018281882309F419C1C230FCE574
:102B2000DF07C0F1C6319CE5D90730F09E012B5F6D
:102B30003C452930310570F50E9427229093D90534
:102B40008093D805C031ECE5DE0709F4CFC008F06A
:102B50005BC0C8308CE5D80709F4B6C088F5C4302E
:102B6000ECE5DE0709F4A8C0C0F4C2308CE5D80754
:102B700009F49CC08091D8058260C330DC4509F41B
:102B800098C08091D8059091D9050E9435220E9465
:102B9000DE1B80E0DF91CF9108958091D8058061A0
:102BA000C630ECE5DE0709F484C08091D805886062
:102BB000C730DC4508F47DC08091D805806279C0BB
:102BC000CC308CE5D80709F489C070F48091D80521
:102BD0008C60CA30ECE5DE0709F46BC008F478C0FD
:102BE0008091D8058E7F65C0CE308CE5D80709F47A
:102BF00079C08091D8058B7FCF30DC4508F459C06F
:102C00008091D8058F7E55C0CC3FECE5DE0709F4F6
:102C100057C030F5C3318CE5D80709F46FC078F49C
:102C2000C131ECE5DE0709F465C0C231DC4509F0CD
:102C3000A8CF0E94DE1B8091D8058F773AC0C5319E
:102C40008CE5D80709F462C008F476C08091D905F4
:102C50008160CB3FDC4509F094CF8093D90591CFBB
:102C6000C115FDE5DF0709F44DC088F48091D90551
:102C70008D7FCE3F9CE5D90781F38091D9058E7F6A
:102C8000CF3FDC4550F38091D9058360E6CFC23059
:102C9000FDE5DF0709F459C008F444C080E0C33003
:102CA000DD4509F06ECF0E94BA226BCF8091D80526
:102CB00081608093D80565CF8091D8058460F9CF75
:102CC0008091D9058260C9CF8091D8058064F1CF09
:102CD0000E94DE1B8091D8058068EBCF8091D805DB
:102CE0008D7FE7CF8091D805877FE3CF8091D8058E
:102CF0008F7DDFCF8091D8058F7BDBCF8091D8058A
:102D0000837FD7CF8091D9058C7FA7CF8091D805BD
:102D100082FB992790F921E0922790FB82F990FBA2
:102D200083F9C7CF8091D905982F909591708E7FA8
:102D3000892B90FB81F991CF0E94DE1B9091D805E1
:102D4000892F97FB87F98058B4CF81E0ACCF81E021
:102D500021CFCF93DF93EB0186319C4511F50E9483
:102D60005D219A81992399F08A7A91E009F490E0A3
:102D70009093A403811109C089E20E9438210E9426
:102D8000A92180E0DF91CF91089585E3F6CF80916E
:102D9000A403811104C089E20E943F21F0CF85E3A2
:102DA000FBCF81E0EFCF9093AA038093A90308950E
:102DB000E091A903F091AA03309721F00190F081EE
:102DC000E02D099480E00895E091A903F091AA0311
:102DD000309799F020912301222359F02091D805B2
:102DE00027FF07C0DC012C9111962C93119725E049
:102DF0002C930280F381E02D099408952091A7037C
:102E00003091A8032817390771F09093A803809395
:102E1000A703E091A903F091AA03309721F006805F
:102E2000F781E02D099408952091A5033091A60320
:102E30002817390771F09093A6038093A503E091BA
:102E4000A903F091AA03309721F00084F185E02DC9
:102E5000099408950E940C246093C8037093C903D9
:102E60008093CA039093CB036093C4037093C5030C
:102E70008093C6039093C703089585B7806885BF84
:102E800085B7806885BF0895089508950C94441708
:102E900008950C9448170E943D178CE092E20E941E
:102EA0006F240E9445170C94461781E008950C94F6
:102EB0005517089508950E94F7230E9474080E94F0
:102EC000D2110E948A240E94F90F0C9449174F9244
:102ED0005F926F927F928F929F92AF92BF92CF92AA
:102EE000DF92EF92FF920F931F93CF93DF93CDB7B3
:102EF000DEB72A970FB6F894DEBF0FBECDBF0E9493
:102F000059170E945A170E94AD0881110E942A1772
:102F10005CEAA52E53E0B52E10E000E0802E802F55
:102F20000E9449082B013C01F501C190D190E1902C
:102F3000F1905F01C414D504E604F70409F477C0E6
:102F40008091730481FD0E945408D701C601842535
:102F50009525A625B725912CC12CD12C7601C3949B
:102F6000AC01BD014C215D216E217F21452B462BFB
:102F7000472B09F454C00E9457178823C9F09E823A
:102F80008F824C205D206E207F2081E045284628DE
:102F9000472809F480E088870E9400248160782F08
:102FA0009A8789874E815F8168858A850E94451846
:102FB000000F111F000F111FF801E455FC4F808115
:102FC0009181A281B3818C259D25AE25BF2580836B
:102FD0009183A283B3830E9434100E94D8169091EB
:102FE000AB038917D9F10E94D8168093AB032A96B8
:102FF0000FB6F894DEBF0FBECDBFDF91CF911F910A
:103000000F91FF90EF90DF90CF90BF90AF909F9087
:103010008F907F906F905F904F900C94490693949F
:10302000CC0CDD1CEE1CFF1CF1E19F1299CF0F5F51
:103030001F4F0630110509F071CF8FEF89838A8306
:103040001B820E9400248160782F9D838C8349819C
:103050005A816B818D810E944518BDCF2A960FB68B
:10306000F894DEBF0FBECDBFDF91CF911F910F91BE
:10307000FF90EF90DF90CF90BF90AF909F908F9098
:103080007F906F905F904F900895DF92EF92FF9244
:103090000F931F93CF93DF93CDB7DEB72B970FB668
:1030A000F894DEBF0FBECDBF7A878B87F42E052F35
:1030B000162FE72ED82E61110E947D211E821D82BF
:1030C0007E2DEC82DD824F2D502F612F8D2D9E8124
:1030D0002B960FB6F894DEBF0FBECDBFDF91CF9118
:1030E0001F910F91FF90EF90DF900C94541EFC0104
:1030F000808191810C940A21CF93C82F882309F4F1
:1031000083C08238C1F40E94D81681FD7DC089E356
:103110000E9438210E94A9212FEF81EE94E02150D6
:1031200080409040E1F700C0000089E30E943F2109
:10313000CF910C94A9218338A1F40E94D81680FD68
:1031400063C083E50E9438210E94A9212FEF81EE00
:1031500094E0215080409040E1F700C0000083E5FA
:10316000E5CF8438A1F40E94D81682FD4DC087E4D3
:103170000E9438210E94A9212FEF81EE94E0215076
:1031800080409040E1F700C0000087E4CFCF8CEF93
:103190008C0F813A90F46C2F809117019091180157
:1031A0000E94D322882329F08C2F0E943F210E9465
:1031B000A9218C2F0E943821BBCF80E28C0F883050
:1031C00048F4C77081E001C0880FCA95EAF70E94F1
:1031D0006021AECFEBE5EC0FE33040F4F0E0EB53D1
:1031E000FE4F808190E0CF910C94FE16C85AC731F3
:1031F00058F4EC2FF0E0EE0FFF1FE956FE4F8081F0
:103200009181CF910C941417CF910895882309F4DC
:103210004BC0823871F40E94D81681FF45C089E303
:103220000E9438210E94A92189E30E943F210C9429
:10323000A921833859F40E94D81680FF35C083E550
:103240000E9438210E94A92183E5EFCF843859F4E8
:103250000E94D81682FF28C087E40E9438210E946D
:10326000A92187E4E2CF9CEF980F913AF0F290E227
:10327000980F983050F4877091E001C0990F8A95AB
:10328000EAF7892F0E946621D2CF9BE5980F9330F1
:1032900020F490E080E00C94FE16885A873120F4E8
:1032A00090E080E00C94141708951F93CF93DF9360
:1032B000182FEB010E947C18209731F4812FDF91A9
:1032C000CF911F910C9406198FE99FE00197F1F7B8
:1032D00000C000002197F0CF70E060E0893311F466
:1032E00060E570E00C945519882321F00E9460215C
:1032F0000C94A9210895882321F00E9466210C9442
:10330000A9210895BF92CF92DF92EF92FF920F937F
:103310001F93CF93DF936C01D62FC72FFC0112812F
:10332000058102950F700E945621E82E8823A1F096
:10333000E12E112389F08C2F807F803429F080E2E8
:103340008D0FE12C883040F082E00E94F4210E9431
:10335000562191E0E82EE926BC2EB2949FE0B922D6
:10336000EB2DF0E0EF55F24D0C946A2C0C2F0F7002
:10337000C07F11F00295007F1123A9F0002359F0BE
:1033800080E28D0F883010F0D11109C0802F0E948B
:1033900060210E94A9218D2F0E947C1814C0802FCB
:1033A0000E947021F6CF8D2F0E940619002359F03C
:1033B00080E28D0F883010F0D1112CC0802F0E9438
:1033C00066210E94A9212B2D2850330B2430310572
:1033D00020F40E94D8160E944906EE2009F493C1F9
:1033E0000E94522180FD8FC1F60112820E944C2161
:1033F0000E94D81FC6010E94A41B0E944C21DF918D
:10340000CF911F910F91FF90EF90DF90CF90BF90E1
:103410000C94F91F802F0E947621D3CFFC2FFF70D0
:10342000FF2EC07FC03219F0F29480EFF822DD2326
:1034300069F0D13049F1112391F1002351F1F601E6
:10344000858180FFA8CF8F70858323C0112381F0F1
:10345000011106C00E9490218F290E947419B3CFD8
:103460000130C1F70E9490218F290E949621ABCF95
:10347000011106C00E949F218F2D0E947B19A3CFAE
:10348000013009F4A0CFF6CF112329F0063008F05F
:103490009ACF8F2DE2CF053008F095CFEDCF0023E6
:1034A00059F3D93349F4FFEF27EE33E0F1502040D0
:1034B0003040E1F700C000008D2F0E94061983CF35
:1034C0008C2F86958695837069F0813009F07BCFCB
:1034D0008D2F9C2F9370111102C090E080E00E940C
:1034E000141771CF8D2F9C2F9370111102C090E093
:1034F00080E00E94FE1667CF8C2F837009F041C0D8
:10350000111161CF4D2F429546954770440F440FDE
:103510000D2F0F7010E030E020E0042E04C0000FEB
:10352000111F221F331F0A94D2F760E070E0CB0115
:10353000D4FF0FC06FE070E080E090E004C0660F41
:10354000771F881F991F4A95D2F7609570958095CF
:103550009095C695C695C370602B712B822B932BCB
:10356000C23049F058F4C13019F00E948A1F2BCFA5
:103570000E94781F28CF0E949C1F25CF0E94761F93
:1035800022CF8695112311F08C2F8170882309F4A6
:103590001ACF4D2F429546954770440F440F0D2F7B
:1035A0000F7010E030E020E0042E04C0000F111F67
:1035B000221F331F0A94D2F760E070E0CB01D4FFE2
:1035C0000FC06FE070E080E090E004C0660F771FEE
:1035D000881F991F4A95D2F76095709580959095B0
:1035E000C695C695C370602B712B822B932BC2306E
:1035F00049F058F4C13019F00E944F20E4CE0E94E7
:103600003D20E1CE0E946120DECE0E94B21FDBCEC3
:10361000CF70112329F08C2F0E94D81F8D2F1DCF22
:103620008D2F0E947B198C2F0E94F91FCCCED23F88
:1036300089F160F4D03FC9F0D13F29F1112309F499
:1036400042C00111A8CE8C2F8F7121C0D33F39F118
:10365000D43FA1F7112369F1CF718C2F0E94D81F9D
:1036600063E08C2F0E94DF21AECE112341F00530A4
:1036700008F0A9CE8C2F8F710E941C20A4CE06309A
:1036800008F0A1CEF7CF8C2F8F71112369F20E9421
:10369000D81F99CE8C2F8F711123C9F3C5CF112359
:1036A00029F08C2F8F710E94C31F8DCE0E94BE1FE8
:1036B0008ACE81E00E94F421023008F484CE82E0B8
:1036C0000E94F42180CE002359F0D93309F0F4CEC2
:1036D0008FEF97EEE3E081509040E040E1F7EACED3
:1036E0008C2F8F71A1CF4C2F4F706D2FC6010E9470
:1036F00051060E94EE1E67CE4C2F4F706D2FC601F3
:103700000E94540660CEDF91CF911F910F91FF90E0
:10371000EF90DF90CF90BF9008950F931F93CF93BA
:10372000DF93EC01688179818A810E9414218C01E8
:103730000E9473200E94751FB801CE01DF91CF91C6
:103740001F910F910C948219CF93DF93EC018B8121
:103750009C81892B29F08881998189238F3F59F495
:10376000DF91CF910895CE010E948D1BCE01DF9194
:10377000CF910C949C04CE010E9429058111F3CFB6
:103780000E945621882361F38A81882349F382E0CD
:10379000DF91CF910C94F42190E080E00E94FE161E
:1037A00090E080E00E9414170E947D210E948D21EC
:1037B0000C94A9210E9446210C94CC1B0E946D21DF
:1037C0000C94DA1BE92FE295EF70E250EE3070F4C2
:1037D000F0E0EF54F24D0C946A2C803F19F020F485
:1037E000883E20F481E00895843FE1F380E008956D
:1037F000883EC0F3813FD1F7F5CF93FB882780F94E
:1038000008950E940A210C94E21BCF93DF9300D00D
:1038100000D00F92CDB7DEB70F900F900F900F90A2
:103820000F90DF91CF910895CF93DF9300D000D018
:1038300000D0CDB7DEB726960FB6F894DEBF0FBE28
:10384000CDBFDF91CF9108951F93CF93DF93C091A8
:10385000CD0316E08091CE038C1304C0DF91CF918D
:103860001F910895D0E01C9FF0011D9FF00D1124C1
:10387000E153FC4F40815181628173818481958144
:103880000E94141C2196C770E5CF4091FF03509110
:1038900000046091010470910204809103049091EE
:1038A00004040C94141C1F93CF93DF9380910404A1
:1038B000807FA9F480910104882389F08091CD0351
:1038C000C091CE036091FF0370910004A0910204A7
:1038D000B0910304D62FD72316E0C81304C0DF919C
:1038E000CF911F91089590E0109711F0DF3F19F4E8
:1038F00001968770F2CF189F9001199F300D112407
:10390000F901E153FC4F41814713F2CF4081461347
:10391000EFCF42814111ECCF438154814A1B5B0BB5
:10392000483C510528F7809104048F708061809392
:103930000404F901EC52FC4F80818F708061808318
:103940008FEF93E00E94A41BDF91CF911F910C9405
:10395000241CAF92BF92CF92DF92EF92FF920F930F
:103960001F93CF93DF93CDB7DEB761970FB6F8946F
:10397000DEBF0FBECDBF8C0185E0F801DE011D96D4
:1039800001900D928A95E1F7F80140815181E28022
:103990008FEFC82E83E0D82E60910204709103044B
:1039A0006115710509F461C19091FF032091000434
:1039B000892F82238F3F09F458C1A380B480F090EF
:1039C0000104F501E61BF70BFF2009F4FCC0809110
:1039D0000404382F307FE83CF10508F0B2C0311103
:1039E00079C0FE2C251323C0941321C0E1101FC001
:1039F0008F708061809304040E94451CC6010E9460
:103A0000A41B80910404F80185838F2D61960FB665
:103A1000F894DEBF0FBECDBFDF91CF911F910F9104
:103A2000FF90EF90DF90CF90BF90AF900895AB28BC
:103A300029F0842F85238F3F09F033C180E0F82FD0
:103A4000F170DF2E80FF3CC08091CD032091CE032A
:103A500036E0821315C04D875E878D859E850E9456
:103A60000A21292F22952F702230F0F0243018F5EA
:103A70009F70F1F0F8019581907FD1F4D12C1EC098
:103A800090E0389FF001399FF00D1124E153FC4F75
:103A90006181651306C06081641303C062816E1189
:103AA0000FC001968770D5CF9F7011F0882331F336
:103AB000805E883018F3C8010E94A41BFD2CA5CF9E
:103AC000EE2009F4A2CF8091040481608093040465
:103AD000F12C9BCF251306C0941304C0F801EE20EF
:103AE00009F48DC04D875E878D859E850E94011CDF
:103AF000882319F1EE2009F180910404803270F0DE
:103B00002091FF033091000438872F831986BB86EC
:103B1000AA868C87CE0107960E94A41B86E0F80136
:103B2000AFEFB3E001900D928A95E1F70E94531C2C
:103B30000E94451CFF24F39468CFC8010E94A41B77
:103B4000F9CF311113C07A2DB98AA88A6E2D8989CF
:103B50000E94051C8FEF93E00E94A41B86E0F601F3
:103B600011928A95E9F70E94451CB2CF25130FC028
:103B700094130DC0E1100BC0F8018583C8010E94A9
:103B8000A41B86E0F60111928A95E9F73ECF4D8796
:103B90005E878D859E850E94011C882371F2EE2030
:103BA00061F280910404803208F4B8CF2091FF03C1
:103BB000309100043A8329831B82BD82AC828E83BC
:103BC000CE010196A9CFE83CF10508F041C0FE2CDA
:103BD000EE2009F4B2CF25132AC0941328C0809197
:103BE000040480FD1BC0982F907FC1F0F8018583ED
:103BF000903F31F0982F907F905F8F70892B858355
:103C0000C8010E94A41B86E0F801AFEFB3E0019069
:103C10000D928A95E1F70E94451CF7CE86E0F801E7
:103C2000AFEFB3E001900D928A95E1F7EECE4D87AC
:103C30005E878D859E850E94011C81116FCF8091CA
:103C40000404816080930404C8010E94A41BDDCE9B
:103C50007A2DB98AA88A6E2D89890E94051C86E072
:103C6000F60111928A95E9F7D6CFEE2009F465CFD7
:103C70004D875E878D859E850E94011CF82E8823C6
:103C800009F45BCF86E0F801AFEFB3E001900D924D
:103C90008A95E1F78FEF93E00E9477180E94531CFA
:103CA000BACF81E08E25CBCE1F93CF93DF93CDB7D4
:103CB000DEB72C970FB6F894DEBF0FBECDBF4F8393
:103CC000588769877A878B879C87CE0107960E94E1
:103CD000A91C882369F08A859B85892B39F04F813F
:103CE0005885842F85238F3F09F071C016E05FC08F
:103CF00086E0FE013796DE01119601900D928A95BD
:103D0000E1F78A859B85892B89F38F8198858923A3
:103D10008F3F61F32091CE0330E0C9010196877097
:103D200099274091CD034817190671F40E94DE1BB4
:103D30001092CE031092CD0386E0EFEFF3E0DF01A7
:103D40001D928A95E9F7D2CF96E0929FD001939F7A
:103D5000B00D1124A153BC4FFE01319601900D927C
:103D60009A95E1F78093CE030E94241CBFCF819FD8
:103D7000C001112481539C4F0E94A91C8823E9F0A3
:103D8000E091CD031E9FF0011124E153FC4F4081CF
:103D9000518162817381848195810E94141C80917C
:103DA000CD0390E00196877099278093CD03809191
:103DB000CD039091CE038913DACF2C960FB6F894E9
:103DC000DEBF0FBECDBFDF91CF911F9108956985F2
:103DD0007A858B859C850E94141C88CFEF92FF9278
:103DE0000F931F93CF93DF938C01892B81F0F12CDC
:103DF000EE24E394E8012196F8018491843770F46D
:103E0000843008F05FC08130B1F08230A1F1DF91E1
:103E1000CF911F910F91FF90EF900895853709F48E
:103E20004CC008F43DC09CE7980F903780F78F771F
:103E30000E94061949C00E5F1F4FFE01849190E257
:103E4000980F983060F48770FE2D01C0FF0F8A959F
:103E5000EAF78F2F0E9480210E94A92102C00E94B0
:103E60007C188F2D815030F2EFE9FFE03197F1F7A8
:103E700000C00000F7CF0E5F1F4FFE01849190E25B
:103E8000980F983050F48770FE2D01C0FF0F8A956F
:103E9000EAF78F2F0E948621DFCF0E940619E1CF1B
:103EA0000E5F1F4FFE01C491C150D8F28FE99FE011
:103EB0000197F1F700C00000F7CF0E5F1F4FFE0122
:103EC000F490CFCF0E947C188E01CBCF08950C9434
:103ED000661F0E94671F60934A0470934B0480938F
:103EE0004C0490934D040C94CC1B08950C94691FC2
:103EF0000F931F9300914A0410914B0420914C049E
:103F000030914D04602B712B822B932B1F910F91BD
:103F10000C94691F0F931F9300914A0410914B0456
:103F200020914C0430914D0460237123822393230C
:103F30001F910F910C94691F0F931F9300914A04D6
:103F400010914B0420914C0430914D04602771274F
:103F5000822793271F910F910C94691F0C94661F61
:103F60000C94AE1F0E94B01F6093460470934704E8
:103F700080934804909349040C94CC1B60E070E05B
:103F8000CB010C94B21F0F931F9341E050E060E00F
:103F900070E08A019B0104C0000F111F221F331F14
:103FA0008A95D2F7C901B8011F910F910C94B21FE5
:103FB0000F931F9341E050E060E070E004C0440FB5
:103FC000551F661F771F8A95D2F7809146049091FE
:103FD0004704A0914804B09149048A019B01082B31
:103FE000192B2A2B3B2BC901B8011F910F910C945F
:103FF000B21F0F931F9341E050E060E070E004C0F7
:10400000440F551F661F771F8A95D2F7CB01BA015F
:1040100060957095809590950091460410914704A5
:104020002091480430914904602371238223932313
:104030001F910F910C94B21F0F931F9341E050E01A
:1040400060E070E004C0440F551F661F771F8A951B
:10405000D2F78091460490914704A0914804B09112
:1040600049048A019B01082719272A273B27C901F0
:10407000B8011F910F910C94B21F0F931F930091E1
:104080004604109147042091480430914904602B64
:10409000712B822B932B1F910F910C94B21F0F93B6
:1040A0001F930091460410914704209148043091D9
:1040B000490460237123822393231F910F910C9451
:1040C000B21F0F931F930091460410914704209153
:1040D00048043091490460277127822793271F9154
:1040E0000F910C94B21F089521E1929F800D11242D
:1040F000982F977041E001C0440F9A95EAF7869592
:104100008695869595E0899FF0011124EB5FFB4F22
:1041100090E080E070E05191DF0111979B01082E43
:1041200002C0369527950A94E2F72170219525273C
:10413000242325272C9301968530910561F7089556
:1041400021E1929F800D1124982F97708695869576
:10415000869525E0829FF0011124EB5FFB4F50E034
:1041600040E080E0219130E0092E02C0369527958D
:104170000A94E2F721703327042E01C0220F0A941B
:10418000EAF7822B4F5F5F4F4530510559F708958D
:10419000BF92CF92DF92EF92FF920F931F93CF9334
:1041A000DF938C01C0904604D0904704E09048040F
:1041B000F090490480914A0490914B04A0914C04E2
:1041C000B0914D04C82AD92AEA2AFB2ACFE1D0E0CF
:1041D000BC2ED701C6010C2E04C0B695A7959795A5
:1041E00087950A94D2F780FD0EC0219788F7B12CED
:1041F0008B2DDF91CF911F910F91FF90EF90DF906A
:10420000CF90BF900895B8018C2F0E945D06019752
:1042100061F3EECFCF93DF93EC010E94C820BE0183
:10422000DF91CF910C945D061F93CF93DF93EB0149
:104230009091CC03992331F0CB01DF91CF911F9165
:104240000C940A21882379F0CB010E94C820182FF2
:10425000682FCE010E947420BE01812FDF91CF9183
:104260001F910C945D06CB010E94A020182FF4CF63
:10427000682F80911701909118010C945323682F97
:1042800080911701909118010C945E238091170181
:10429000909118010C94692380914E048595859521
:1042A0008595089580914E048770089590914E04ED
:1042B000977081E009F480E0089580917204089578
:1042C00090917204892B8093720408958095909147
:1042D00072049823909372040895109272040895C2
:1042E00090917104892B8093710408958095909129
:1042F00071049823909371040895109271040895A5
:1043000090917004892B809370040895809590910A
:104310007004982390937004089510927004089587
:1043200080914F04089508950C94932190914F0427
:10433000981721F080934F040C9494210895809154
:104340004F04882329F010924F0480E00C949421AC
:104350000895E0911701F091180180917204808313
:10436000E0911701F0911801808190917104892BDF
:104370008083E0911701F091180180819091700481
:10438000892B808390914F04992381F0E09117014C
:10439000F09118018081892B808380911701909181
:1043A00018010E94BF2281110E949F218091170154
:1043B000909118010C94E41608950C94DC2198E077
:1043C000899F90011124622B60934E040E94D81F94
:1043D00080914E048595859585950C94DD211092EC
:1043E0004E0480E00C94DD2190914E048095892349
:1043F00080934E04282F277071F4282F082E000C6C
:10440000330B9217130639F08595859585950E9493
:10441000F91F0C94EF21089580E008956FEF7FEF6E
:1044200090E080E00C94432D90E080E00E941F2DEE
:1044300021E08B3E9E4F09F020E0822F089582E01C
:1044400090E00C94112D83E090E00C94112DCF930B
:1044500084E090E00E94112DC82F81E290E00E943C
:10446000112D982F8C2FCF910895CF93C92F682F9E
:1044700084E090E00E94252D6C2F81E290E0CF91A6
:104480000C94252DAB01BC018FE090E00C94372DEE
:10449000AB01BC0183E190E00C94372D60E070E04B
:1044A000CB010C94482260E070E0CB010E944222D4
:1044B0000C944E226BEE7EEF90E080E00E94432D44
:1044C00060E082E090E00E94252D60E083E090E0D3
:1044D0000E94252D10924A0410924B0410924C0415
:1044E00010924D0460E084E090E00E94252D60E091
:1044F00081E290E00E94252D60E085E090E00E943E
:10450000252D60E086E090E00E94252D6FEF87E08A
:1045100090E00E94252D40E050E0BA0188E090E054
:104520000E94372D60E08DE090E00E94252D40E054
:1045300050E0BA0188E190E00E94372D60E087E109
:1045400090E00E94252D40E050E0BA018CE190E01F
:104550000E94372D60E080E290E00E94252D40E02F
:1045600050E0BA0188E190E00E94372D0C9453226C
:104570000C945A22682F8EE090E00C94252DFC01BB
:10458000329680912301882321F08091D8059EE105
:1045900087FF96E080E0915008F40895219122234E
:1045A000D1F38F5FF8CF662301F1209123012223FD
:1045B000F1F02091D80527FF1AC0462F4695469561
:1045C00046954E3190F4677021E030E002C0220F32
:1045D000331F6A95E2F7840F911DFC01828190E000
:1045E0002823392381E0232B69F480E00895FC011E
:1045F000329608962191261721F0E817F907D1F78E
:10460000F4CF81E008959C01FC0132969FEF80E099
:104610004191461751F09F3F19F4411101C0982F65
:104620008F5F8630A9F79F3F09F40895290F311D48
:1046300097FD3A95F90162830895FC013296089638
:104640002191261303C0DF0111971C92E817F90787
:10465000B9F70895E62FE695E695E695EE3168F40C
:10466000E80FF92FF11D677021E030E001C0220F43
:104670006A95EAF78281822B82830895E62FE69578
:10468000E695E695EE3170F4E80FF92FF11D6770AD
:1046900021E030E001C0220F6A95EAF7209582817F
:1046A00028232283089520912301222329F0209199
:1046B000D80527FD0C942A230C9403232091230171
:1046C000222329F02091D80527FD0C943E230C9439
:1046D0001D23FC01329680912301882351F08091A3
:1046E000D80587FF06C08EE1DF011D928A95E9F7A4
:1046F000089586E0F9CF089508950C947C23809165
:10470000DE05843049F10E947D2380E00E94490645
:104710001092740488E190E020E40FB6F894A89514
:10472000809360000FBE2093600083B7817F846018
:1047300083BF83B7816083BF7894889583B78E7F6A
:1047400083BF0FB6F894A89580916000886180932C
:104750006000109260000FBE08950895CF930E94EC
:104760007B230E94AD080E94AD23C0E08C2F0E94E5
:104770004908672B682B692B31F4CF5FC630B1F73E
:1047800080E0CF91089581E0FCCF08950C94C5237B
:104790000E94DE1B0E94D8160E9449060C94C62374
:1047A0001F921FB61F9211248F939F93AF93BF93B5
:1047B00080917404811113C08091D4059091D50526
:1047C000A091D605B091D7054196A11DB11D80934A
:1047D000D4059093D505A093D605B093D705BF9186
:1047E000AF919F918F911F901FBE1F90189582E0EF
:1047F00084BD93E095BD9AEF97BD80936E000895B8
:104800002FB7F8948091D4059091D505A091D60545
:10481000B091D7052FBF08952FB7F8946091D405B4
:104820007091D5058091D6059091D7052FBF089539
:104830009C014FB7F8948091D4059091D505A09133
:10484000D605B091D7054FBF821B930B089578947E
:104850001F921FB61F9211248F939F93AF93BF9304
:104860008091D4059091D505A091D605B091D7053A
:104870000196A11DB11D8093D4059093D505A093F9
:10488000D605B093D705BF91AF919F918F911F909F
:104890001FBE1F90189581E08093E00080E2809316
:1048A000D8001092C9008FE19EE40197F1F700C093
:1048B000000087E090EBDC018093E7059093E8052A
:1048C000A093E905B093EA0588E19CE00FB6F8945F
:1048D000A895809360000FBE90936000FFCF9093E7
:1048E000D9018093D80108950C94BF110E94AD089E
:1048F0008FE39CE90197F1F700C000000E94AD082A
:1049000080E00E94490860FF04C00E9474240C9457
:104910004B2408950E941422811102C00E94B822E3
:104920000E941F22809373040E9427229093D9052E
:104930008093D8050E942322682F70E090E080E0E9
:104940000E94761F6091460470914704809148044C
:10495000909149040C94B01F809195040895089596
:10496000CF93DF9300D00F92CDB7DEB79091DE05E5
:10497000943011F589837B836A839093E9008FEFEC
:104980009091E800815095FD06C095ED9A95F1F75C
:1049900000008111F5CF8091E80085FF0DC050E047
:1049A00040E063E070E0CE0101960E9426278091EE
:1049B000E8008E778093E8000F900F900F90DF91C2
:1049C000CF910895BC0184E00C94B024BC0183E035
:1049D0000C94B024CF93DF93EC01809123018823C2
:1049E000B1F18091D80587FF32C060E284E0809306
:1049F000E9008FEF9091E800815095FD06C095ED9C
:104A00009A95F1F700008111F5CF8091E80085FFBC
:104A10001BC08091230170E050E040E0811104C090
:104A200050E040E068E070E0CE010E9426278091CF
:104A3000E8008E778093E80080E2FE01A5E7B4E00D
:104A400001900D928A95E1F7DF91CF91089568E08A
:104A500081E0CDCFCF93FC01603221F58091DE055E
:104A6000843001F5C091E900CF702091EC00922FC5
:104A7000917020FD90E8C92B82E08093E90080913D
:104A8000E80080FF0CC050E040E060E270E0CF0141
:104A90000E9426278091E8008E778093E800CF70EF
:104AA000C093E900CF9108958091DD05811109C07F
:104AB0000E9405290E9462298091E200846080930F
:104AC000E20008951092DD0508950895089508956F
:104AD00042E061EC81E00E94812842E261EC84E0E6
:104AE0000E94812842E261EC82E00E94812842E239
:104AF00060EC83E00C9481288091E005833009F418
:104B000061C030F48130D1F1823009F49DC0089544
:104B10008A3009F489C08B3009F46FC0893009F0FC
:104B200050C08091DF05813209F04BC08091E305D0
:104B30009091E405009719F0029709F042C0809126
:104B4000E800877F8093E8008091E80082FF35C00D
:104B50009091F3008091F200029729F48091F10086
:104B60008B7F813021F48091F100809395048091B6
:104B7000E8008B778093E8000C94B5288091DF05DE
:104B8000813AF9F48091E800877F8093E800809172
:104B9000E3059091E405892B61F460E285E794E0F8
:104BA00070E00E94C4278091E8008B778093E80032
:104BB000089560E090E080E0F3CF8091DE05811100
:104BC000C3CF08958091DF05813AD9F78091E3053D
:104BD0009091E405892BA9F78091E800877F809365
:104BE000E8008091E80080FFFCCF80912301809352
:104BF000F1008091E8008E77BDCF8091DF05813292
:104C000001F78091E3059091E405892BD1F680911D
:104C1000E800877F8093E8000E94B5288091E10535
:104C2000809323010C94DE1B8091DF05813249F6CD
:104C30008091E800877F8093E8000E94B5288091EA
:104C4000E2058093960408958091DF05813A09F08A
:104C5000B8CF8091E800877F8093E8008091E800DA
:104C600080FFFCCF80919604C2CFCDB7DEB7A0976E
:104C70000FB6F894DEBF0FBECDBF84B7877F84BF69
:104C80000FB6F894A89580916000886180936000C9
:104C9000109260000FBE80E890E00FB6F894809309
:104CA0006100909361000FBE0E944B170E9405297E
:104CB0000E9462298091E20084608093E2007894EF
:104CC0000E94EB2B0E945B1789E191E00E94D316B2
:104CD00013E08091DE05853011F10E946717809105
:104CE000DE05843019F10E9459170E945A17F1CF3E
:104CF0000E947F238091DC05882389F00E94AE23E7
:104D0000882369F00E9410270E94DE1B2FEF83EC9E
:104D100099E0215080409040E1F700C00000809170
:104D2000DE05853029F30E94C823D7CF1093E90010
:104D30008091E80082FFD7CF8091E80090E085FF66
:104D400009C050E040E060E270E0CE0101960E94B0
:104D5000752791E08091E8008B778093E800992394
:104D600011F260E2CE0101960E947712BCCF0C9442
:104D7000B926292F33272330310521F168F421305A
:104D8000310509F443C02230310509F444C090E0F4
:104D900080E030E020E026C02132310551F122329E
:104DA0003105A9F76330710590F7FB01EE0FFF1F86
:104DB000E553FE4F2081318168537E4FFB01808196
:104DC00090E010C099278130910581F0009729F07B
:104DD0000297E9F6E6EAF6E002C0ECEDF6E084912F
:104DE00090E09F01FA01318320830895E0ECF6E022
:104DF000F6CF6330710558F6660F771FFB01EF524F
:104E0000FE4F2081318189E090E0ECCF82E190E09B
:104E10002BE337E0E7CF8BE590E020EE36E0E2CF02
:104E200080E189BD82E189BD09B400FEFDCF80919A
:104E3000D8008F7D8093D8008091E00082608093BD
:104E4000E0008091E00081FDFCCF0895AF92BF9219
:104E5000CF92DF92FF920F931F93CF93DF936C015A
:104E6000EB018A010E94D428F82E811123C001157C
:104E7000110539F0F80180819181C81BD90BC80E4A
:104E8000D91EB12CA12C2097A9F08091E80085FDB6
:104E900022C08091E8008E778093E800011511050B
:104EA000A1F0F80180819181A80EB91EB182A08283
:104EB00085E0F82E8F2DDF91CF911F910F91FF90FC
:104EC000DF90CF90BF90AF9008950E94D4288823A0
:104ED000D1F2F82EEFCFF60181916F018093F100AE
:104EE0002197FFEFAF1ABF0ACECFAF92BF92CF92FA
:104EF000DF92FF920F931F93CF93DF936C01EB012F
:104F00008A010E94D428F82E811123C001151105B1
:104F100039F0F80180819181C81BD90BC80ED91EC8
:104F2000B12CA12C2097A9F08091E80085FD22C02A
:104F30008091E8008B778093E80001151105A1F0BE
:104F4000F80180819181A80EB91EB182A08285E00E
:104F5000F82E8F2DDF91CF911F910F91FF90DF9051
:104F6000CF90BF90AF9008950E94D4288823D1F2AB
:104F7000F82EEFCF8091F100F60181936F01219718
:104F8000FFEFAF1ABF0ACECFFC018091E5059091EB
:104F9000E60586179707A0F06115710529F4909131
:104FA000E8009E779093E80090E06115710551F458
:104FB000911108C08091E80082FF34C080E008951C
:104FC000BC01F2CF8091DE058823C1F18530C1F1AB
:104FD0008091E80083FD30C08091E80082FDEACF37
:104FE0008091E80080FFE1CF8091F3002091F200F2
:104FF000382F6115710519F02830310558F091E00E
:105000002830310509F090E02091E8002E772093B8
:10501000E800CBCF81918093F100615071092F5F3F
:105020003F4FE7CF8091DE05882341F0853041F086
:105030008091E80083FFBECF81E0089582E008956B
:1050400083E00895FC018091E5059091E6058617BF
:105050009707A0F06115710529F48091E8008E771B
:105060008093E80090E06115710551F4911108C03A
:105070008091E80082FF35C080E00895BC01F2CF46
:105080008091DE058823C9F18530C9F18091E8005F
:1050900083FD31C08091E80082FDEACF8091E80075
:1050A00080FFE1CF8091F3002091F200382F61154D
:1050B000710519F02830310558F091E0283031059C
:1050C00009F090E08091E8008E778093E800CBCFE4
:1050D00084918093F1003196615071092F5F3F4FA9
:1050E000E6CF8091DE05882341F0853041F0809144
:1050F000E80083FFBDCF81E0089582E0089583E05A
:105100000895982F973028F08F708093E90081E000
:1051100008959093E900242F762F50E0981731F0EE
:105120007091EC002091ED005091F00021FD02C043
:105130009F5FE8CF3091EB003E7F3093EB003091E2
:10514000ED003D7F3093ED003091EB003160309306
:10515000EB007093EC002093ED005093F000209151
:10516000EE0027FDE5CF80E008958091DF0587FF01
:1051700013C08091E80082FF06C08091E8008B7721
:105180008093E80004C08091DE058111F2CF08957C
:105190008091DE058823D9F38091E80080FFF8CF65
:1051A0008091E8008E77ECCF2091E4003091E5000B
:1051B00095E6A9012091EC00822F817020FF06C0A6
:1051C0008091E80080FF06C080E008952091E8000B
:1051D00022FD1AC08091DE05882389F0853089F090
:1051E0008091EB0085FD0FC02091E4003091E50037
:1051F00042175307F9F29150E1F684E0089582E0F6
:10520000089583E0089581E008950E9473290E9423
:105210007B29E0EEF0E0808181608083E8EDF0E0C2
:1052200080818F77808319BCA7EDB0E08C918E7F51
:105230008C9380818F7E80831092DD0508950F937B
:105240001F93CF93DF930E9473290E947B29C8ED9F
:10525000D0E088818F77888388818068888388817F
:105260008F7D888319BC1092DE051092DA051092AA
:10527000DC051092DB0500EE10E0F80180818B7FE9
:10528000808388818160888342E060E080E00E94C2
:105290008128E1EEF0E080818E7F8083E2EEF0E015
:1052A000808181608083808188608083F801808133
:1052B0008E7F8083888180618883DF91CF911F9169
:1052C0000F910895E8EDF0E080818F7E8083E7ED17
:1052D000F0E080818160808384E082BF81E0809300
:1052E000DD050C941F29E8EDF0E080818E7F80833E
:1052F0001092E20008951092DA001092E1000895F1
:105300001F920F920FB60F9211242F933F934F933A
:105310005F936F937F938F939F93AF93BF93EF931D
:10532000FF938091E10082FF0BC08091E20082FF39
:1053300007C08091E1008B7F8093E1000E94EA2BFF
:105340008091DA0080FF19C08091D80080FF15C0DD
:105350008091DA008E7F8093DA008091D90080FFFF
:1053600096C080E189BD82E189BD09B400FEFDCF10
:1053700081E08093DE050E9454258091E10080FF4A
:1053800019C08091E20080FF15C08091E2008E7FFD
:105390008093E2008091E20080618093E20080913E
:1053A000D80080628093D80019BC85E08093DE0528
:1053B0000E9466258091E10084FF2BC08091E2006D
:1053C00084FF27C080E189BD82E189BD89B5982F1E
:1053D000917080FFFBCF8091D8008F7D8093D800A3
:1053E0008091E1008F7E8093E1008091E2008F7ECA
:1053F0008093E2008091E20081608093E2008091DE
:10540000DA05882309F449C084E08093DE050E9410
:1054100067258091E10083FF29C08091E20083FF2E
:1054200025C08091E100877F8093E10082E0809336
:10543000DE051092DA058091E1008E7F8093E10015
:105440008091E2008E7F8093E2008091E200806193
:105450008093E20042E060E080E00E948128809139
:10546000F00088608093F0000E946525FF91EF9125
:10547000BF91AF919F918F917F916F915F914F916C
:105480003F912F910F900FBE0F901F90189519BC50
:105490001092DE050E94622570CF8091E30087FDA7
:1054A00093E09093DE05B3CF1F920F920FB60F9249
:1054B00011242F933F934F935F936F937F938F9319
:1054C0009F93AF93BF93CF93DF93EF93FF93D091CD
:1054D000E900DF708091EC00C82FC17080FDC0E84A
:1054E0001092E9008091F000877F8093F00078941B
:1054F0000E94982A1092E9008091F00088608093C1
:10550000F000CD2BCF70C093E900FF91EF91DF91B8
:10551000CF91BF91AF919F918F917F916F915F914B
:105520004F913F912F910F900FBE0F901F901895A4
:105530001F93CF93DF93CDB7DEB7AA970FB6F8943A
:10554000DEBF0FBECDBF8FED95E02091F100FC01D5
:105550002193CF01F5E0873E9F07B9F70E947C2594
:105560008091E80083FF1EC18091DF059091E005E6
:105570009A3008F017C1E92FF0E0E154F24D0C9495
:105580006A2C803899F0823809F00CC18091E305CB
:105590008F70873008F006C18093E9008091EB009E
:1055A00085FB882780F91092E90006C08091DB0511
:1055B0009091DC05911182609091E800977F909323
:1055C000E8008093F1001092F1008091E8008E775E
:1055D000E5C0882309F4D3C0823009F0E3C080918C
:1055E000E1058111D6C08091E3058F702FEF280F60
:1055F000263008F0D7C08093E9002091EB0020FF0F
:10560000C8C0933031F48091EB0080628093EB004E
:10561000C0C09091EB0090619093EB0021E030E0EE
:1056200001C0220F8A95EAF72093EA001092EA005F
:105630008091EB008860EACF8111B4C01091E10540
:105640001F778091E3008078812B8093E300809125
:10565000E800877F8093E8000E94B5288091E800E9
:1056600080FFFCCF8091E30080688093E30082E0BC
:10567000111183E08093DE0595C08058823008F0D8
:1056800091C08091E1059091E2058C3D23E0920765
:10569000A1F583E08A838AE289834FB7F894DE011B
:1056A000139620E03EE051E2E32FF0E050935700E4
:1056B000E49120FF03C0E295EF703F5FEF708E2F03
:1056C00090E0EA30C0F0C7968D939D932F5F243110
:1056D00059F74FBF8091E800877F8093E8006AE226
:1056E00070E0CE0101960E94C4278091E8008B777C
:1056F0008093E80057C0C096E7CF6091E3057091B2
:10570000E405AE014F5F5F4F0E94B726BC01892BB5
:1057100009F448C09091E800977F9093E800898150
:105720009A810E942228E1CF8038E1F58091E8003B
:10573000877F8093E8008091DA058093F10045CF60
:10574000811130C09091E105923060F58091E800C0
:10575000877F8093E8009093DA050E94B5288091B6
:10576000DA05882311F084E005C08091E30087FD0D
:10577000FACF81E08093DE050E94682513C08091F6
:10578000E105813079F481E0933009F080E0809385
:10579000DC051092E9008091E800877F8093E800A3
:1057A0000E94B5288091E80083FF0AC08091E8003C
:1057B000877F8093E8008091EB0080628093EB000C
:1057C000AA960FB6F894DEBF0FBECDBFDF91CF9182
:1057D0001F9108950895CF938091DE058823A1F04D
:1057E000C091E900CF709091EC00892F817090FDFD
:1057F00080E8C82B1092E9008091E80083FD0E94A8
:10580000982ACF70C093E900CF910895991B79E051
:1058100004C0991F961708F0961B881F7A95C9F740
:105820008095089587FB082E062687FD819567FDE4
:1058300061950E94062C0EF4919507FC81950895C0
:10584000AA1BBB1B51E107C0AA1FBB1FA617B707A6
:1058500010F0A61BB70B881F991F5A95A9F78095C2
:105860009095BC01CD01089597FB072E16F4009486
:1058700007D077FD09D00E94202C07FC05D03EF40C
:10588000909581959F4F0895709561957F4F0895EC
:10589000A1E21A2EAA1BBB1BFD010DC0AA1FBB1F34
:1058A000EE1FFF1FA217B307E407F50720F0A21BA6
:1058B000B30BE40BF50B661F771F881F991F1A9413
:1058C00069F760957095809590959B01AC01BD013D
:1058D000CF010895EE0FFF1F0590F491E02D09947C
:1058E00069279627692778278727782708950E94B0
:1058F0007F2C332312F48A1B9B0B0C94902CA29FB9
:10590000B001B39FC001A39F700D811D1124911D93
:10591000B29F700D811D1124911D08950E947F2C4E
:10592000B7FF0895821B930B08950E947F2CA59FBB
:10593000900DB49F900DA49F800D911D112408958A
:10594000B7FF0C94952C0E94952C821B930B089505
:105950008F929F92AF92BF92CF92DF92EF92FF927F
:10596000CF93DF93EC01688179818A819B816115F6
:1059700071058105910521F464E279ED8BE597E0ED
:105980002DE133EF41E050E00E94592D49015A01C9
:105990009B01AC01A7EAB1E40E94952C6B017C014C
:1059A000ACEEB4EFA50194010E94A32CDC01CB0165
:1059B0008C0D9D1DAE1DBF1DB7FF03C00197A10932
:1059C000B04888839983AA83BB839F77DF91CF9167
:1059D000FF90EF90DF90CF90BF90AF909F908F900F
:1059E00008950E94A82C089580E091E00E94A82CC0
:1059F0000895B0E0A0E08093000190930101A0938E
:105A00000201B09303010895FC014150504030F071
:105A100001900616D1F73197CF010895882799276D
:105A20000895F999FECF92BD81BDF89A992780B566
:105A30000895A6E1B0E044E050E00C944B2DA8E1BD
:105A4000B0E042E050E00C944B2D262FF999FECFA8
:105A500092BD81BDF89A019700B4021639F01FBAC1
:105A600020BD0FB6F894FA9AF99A0FBE08950396DE
:105A7000272F0E94262D0E94252D252F0E94262D9E
:105A8000242F0C94262D0196272F0E94262D0C944E
:105A9000252DDC01CB01FC01F999FECF06C0F2BD3A
:105AA000E1BDF89A319600B40D9241505040B8F7DC
:105AB0000895052E97FB1EF400940E94702D57FD4B
:105AC00007D00E94482C07FC03D04EF40C94702D94
:105AD00050954095309521953F4F4F4F5F4F08951A
