:100000000C947D030C94C4030C94C4030C94C4039B
:100010000C94C4030C94C4030C94C4030C94C40344
:100020000C94C4030C94C4030C94EB2E0C94BF2FBB
:100030000C9434290C94C4030C94C4030C94C4038E
:100040000C94C4030C94C4030C94C4030C94C40314
:100050000C94C4030C94A7290C94C4030C94C403FB
:100060000C94C4030C94C4030C94C4030C94C403F4
:100070000C94C4030C94C4030C94C4030C94C403E4
:100080000C94C4030C94C4030C94C4030C94C403D4
:100090000C94C4030C94C4030C94C4030C94C403C4
:1000A0000C94C4030C94C4030C94C40329000000F2
:1000B0003A003B003C003D003E003F004000410054
:1000C0004200430044004500460047004800350018
:1000D0001E001F0020002100220023002400250014
:1000E000260027002D002E002A0049004A004B0060
:1000F0002B0014001A000800150017001C0018003F
:100100000C00120013002F00300028004C004D009E
:100110004E00390004001600070009000A000B0019
:100120000D000E000F00330034003200000000000C
:1001300000000000E10064001D001B000600190023
:10014000050011001000360037003800E5000000FF
:10015000000052000000E000E300E20000000000A8
:100160002C00000000000000E60001516500E400E2
:100170005000000051004F00005C00000100010031
:100180000100010001000100010001000100010067
:1001900001000100CE5CCF5CD05C010001000100D9
:1001A0000100010001000100010001000100010047
:1001B000010001000100C65CC85CCA5C01000100CE
:1001C0000100010001000100010001000100010027
:1001D0000100010001000100C75CC95CCB5C0100AB
:1001E0000100010001000100010001000100010007
:1001F00001000100010001000000000000000000FB
:100200000100010001000100010001000100145C77
:1002100001000100010001000100000000000100D8
:1002200000000100010001000000000001000000CA
:10023000000000000100010001000100C55C000099
:10024000C35CC45C0100000001000100010001006A
:100250000100010001000100010001000100010096
:100260000100010001000100010001000100010086
:100270000100010001000100010001000100010076
:100280000100010001000100010001000100010066
:100290000100010001000100010001000100010056
:1002A0000100010001000100010001000100010046
:1002B0000100010001000100010001000100010036
:1002C000010001000000000000000000010001002A
:1002D0000100010001000100010001000100010016
:1002E0000100010001000000000001000000010009
:1002F00001000100000000000100000000000000FB
:1003000001000100010001000100000001000100E6
:1003100001000000010001000100010001000100D6
:1003200001000100010001000100010001000100C5
:1003300001000100010001000100010001000100B5
:1003400001000100010001000100010001000100A5
:100350000100010001000100010001000100010095
:100360000100010001000100010001000100010085
:100370000100010001000100010001000100010075
:100380000100010001000100010001000100010065
:100390000000000000000000010001000100010059
:1003A0000100010001000100010001000100010045
:1003B0000100000000000100000001000100010038
:1003C000000000000100000000000000010001002A
:1003D0000100010001000000010001000000000018
:1003E000000000002A2B2800000000000000000090
:1003F0000000000000000029000000002C1E342036
:10040000212224342627252E362D3738271E1F205B
:100410002122232425263333362E37381F040506A0
:100420000708090A0B0C0D0E0F10111213141516E4
:100430001718191A1B1C1D2F3130232D35040506E2
:100440000708090A0B0C0D0E0F10111213141516C4
:100450001718191A1B1C1D2F3130354C00000000D5
:10046000000000000000000000000000000000008C
:100470007E0F00D4FFFFFFC70000007800010101DC
:100480000101010101010202020202020202020351
:100490000303030303030304040404040404050521
:1004A00005050506060606060707070707080808E4
:1004B00008090909090A0A0A0B0B0B0C0C0C0D0D93
:1004C0000D0E0E0E0F0F0F1010111111121213132B
:1004D0001414151516161717181819191A1A1B1BA4
:1004E0001C1D1D1E1E1F2020212222232424252600
:1004F00026272829292A2B2C2D2D2E2F3031323238
:10050000333435363738393A3B3C3D3E3F40414243
:10051000434445464748494A4C4D4E4F5051535429
:10052000555658595A5B5D5E5F61626465666869DD
:100530006B6C6D6F7072737577787A7B7D7E80825D
:10054000838587888A8C8E8F91939596989A9C9EA6
:10055000A0A2A3A5A7A9ABADAFB1B3B5B7BABCBEB6
:10056000C0C2C4C6C9CBCDCFD1D4D6D8DBDDDFE283
:10057000E4E7E9EBEEF0F3F5F8FAFDFF20034300C2
:10058000550038003000200076003200200049007D
:1005900053004F00200052004700420000001A03A1
:1005A000430061007000730055006E006C006F0026
:1005B00063006B0065006400000004030904090285
:1005C0005B00030100A0FA0904000001030101001F
:1005D0000921110100012240000705810308000ADA
:1005E0000904010002030000000921110100012299
:1005F00022000705820320000107050303200001F4
:100600000904020001030000000921110100012278
:100610006D000705840320000A120110010000008C
:1006200008554383000100010200010660FF0961D3
:10063000A1010962150026FF0095207508810209B5
:1006400063150026FF00952075089102C005010979
:1006500080A101850319012AB700150126B700956D
:100660000175108100C0050C0901A1018504190163
:100670002AA002150126A002950175108100C0056F
:10068000010906A1018505050719E029E7150025DF
:10069000019508750181020507190029EF1500254C
:1006A0000195F07501810205081901290595057567
:1006B000019102950175039101C005010906A1018F
:1006C000050719E029E71500250195087501810244
:1006D0009501750881010507190029FF150026FFFE
:1006E000009506750881000508190129059505750D
:1006F000019102950175039101C011241FBECFEF36
:10070000DAE0DEBFCDBF04B603FE27C08091BB0593
:100710009091BC05A091BD05B091BE058730904B6E
:10072000A740B04BD1F41092BB051092BC051092BB
:10073000BD051092BE0514BE84B7877F84BF0FB677
:10074000F894A89580916000886180936000109271
:1007500060000FBEE0E0F8E3099513E0A0E0B1E02F
:10076000ECE6F6E602C005900D92A032B107D9F78B
:1007700025E0A0E2B3E001C01D92AB3BB207E1F778
:100780000E94B12B0C94C0320C9400006E9A0C9411
:10079000BC070C94BD070C94E70308950E946D1CE0
:1007A00081FF07C02FEF4FEF6FEF8EE390E00E94C5
:1007B000070D0E946D1C82FF07C02FEF4FEF6FEFF8
:1007C0008EE090E00C94070D089581E0089581E09B
:1007D000089508950C94E9031F93CF93DF9300D0FD
:1007E00000D00F92CDB7DEB749835A836B83309127
:1007F000730389819A8131111DC06623B9F02223C8
:10080000A9F00E942C26182F682F89819A810E94B6
:10081000D82569817A81812F0F900F900F900F90CA
:100820000F90DF91CF911F910C9494190E94042690
:10083000182FEFCF0E942C2669817A81EDCFFC0121
:10084000262F408151816281738184810C94EC0355
:10085000CF93DF93EC0160E00E941F04BE01DF91A3
:10086000CF910C94EA03FF920F931F93CF93DF93E2
:10087000E82FF0E0E452FC4FF490C82FC695C695DF
:10088000C695D0E0FE01E459FB4F0491877010E05B
:10089000082E02C0159507950A94E2F701701127FA
:1008A000C45ADB4FFE01C491D0E002C0D595C79574
:1008B0008A95E2F7C170DD270115110519F081EE67
:1008C0000E94E91D209719F086EE0E94E91D8F2DE8
:1008D0000E94C21ECD2B19F086EE0E94731E012BC2
:1008E00041F081EEDF91CF911F910F91FF900C9419
:1008F000731EDF91CF911F910F91FF900895EF929A
:10090000FF920F931F93CF93DF93EC01162F0AE012
:100910008881882309F454C0813009F04EC0898150
:10092000813099F47E0122E0E20EF11C8A810E945E
:10093000C21EE7012196812F815050F3EFE9FFE0BD
:100940003197F1F700C00000F7CF823041F47E010B
:1009500082E0E80EF11C8A810E94E91DEACF833013
:1009600041F47E01E2E0EE0EF11C8A810E94731ECA
:10097000E0CF843011F02196DDCF2A81229690E0DD
:1009800080E0AE014F5F5F4F2053330B2A303105BB
:1009900048F0019778F2EFE9FFE03197F1F700C0F6
:1009A0000000F7CF089FB001099F700D1124C90105
:1009B000860F971F2981EA01E4CF0E943304BACF42
:1009C000DF91CF911F910F91FF90EF90089560E01C
:1009D0000C947F048F929F92AF92BF92CF92DF923E
:1009E000EF92FF920F931F936B017C0181E090E0E7
:1009F000A0E0B0E04C015D0104C0880C991CAA1C69
:100A0000BB1C4A95D2F7B501A4014C015D0104C09D
:100A1000880C991CAA1CBB1C2A95D2F74829592975
:100A20006A297B2904C0880F991FAA1FBB1F0A953A
:100A3000D2F78A019B010C211D212E213F21041791
:100A400015072607370789F48C299D29AE29BF2968
:100A5000BC01CD011F910F91FF90EF90DF90CF90DF
:100A6000BF90AF909F908F90089580959095A0959E
:100A7000B0958C219D21AE21BF21EACF0F93382F55
:100A8000262F6091ED037091EE038091EF0390911A
:100A9000F003042F432F0E94EA040F910C941625B3
:100AA0000E94F1290E947627811102C00E941A2813
:100AB0000E9492150C94C6030E94F3130C94C90370
:100AC00008950E9442210E9460052FEF84E39CE07C
:100AD000215080409040E1F700C000000C94CB29E9
:100AE0000F931F93CF93DF93EC0161E00E941F04EB
:100AF0008C01BE010E9447138823B9F1BE01C801D1
:100B00000E94CA17882389F1BE01C8010E94CB0345
:100B1000882359F1BE01C8010E94C91A882329F10E
:100B2000BE01C8010E941B1B8823F9F0BE01C80149
:100B30000E943E1C8823C9F0BE01C8010E94E9162C
:100B4000882399F08A81882339F001158CE51807EC
:100B500051F00F3D1C4579F0CE01DF91CF911F91EF
:100B60000F910C94E5030E94610580E0DF91CF9125
:100B70001F910F9108950E941A28F7CF81E00895E0
:100B80000C94BE05CF93C82F0E94CD038C2FCF911C
:100B90000C94C00590E080E008950895FC01EE0FEC
:100BA000FF1FE458FB4F859194910895CF93DF93F5
:100BB0000E9494190E94E206EC01811520E592073B
:100BC00008F041C0811530E4930708F0B4C0803EBE
:100BD000910518F5803C910508F09DC0883A910573
:100BE00070F4853A910508F08EC081309105F9F0D6
:100BF0000097E9F00497D8F4D0E0C0E018C08F3B2C
:100C00009105D0F7C85AD0E0CC0FDD1FC857DD4F93
:100C10000990D881C02DD4640AC08115904258F43F
:100C2000C11581E0D80718F4C83ED10528F7CE01D8
:100C3000DF91CF910895C11590E3D90708F071C0F5
:100C4000CE019F706AC0811525E5920758F5811580
:100C500034E5930708F09EC0811542E5940750F4EF
:100C6000C11581E5D80708F469C0DC2FCC27C16F16
:100C7000D06ADDCF982F969596959E0123703327E5
:100C8000C115D34508F077C0C1E0D0E002C0CC0F59
:100C9000DD1F2A95E2F720E2929FC0011124C82BA4
:100CA000D92B67C0C11589E5D807A8F4C11598E507
:100CB000D90708F074C0C11526E5D20708F09CCF0B
:100CC0008C2F0E947907C82FD0E0DC2FCC27CC27AF
:100CD000DF71D062ACCFC1153AE5D30708F464C028
:100CE000CE0190568115904208F086CF8D2F8F71DE
:100CF0000E94790790E0982F882788279F719C0190
:100D00002C2BE901E6CFC55AD0E0CA54DD4FC8818B
:100D1000D0E0D0648CCF805C91090E94CE05EC01BC
:100D200086CFCE019927D3FF03C0EC01D86C7FCFCB
:100D3000EC01D06C7CCFDF70D06A79CFCE01E4E0DB
:100D400096958795EA95E1F783702C2F2695269541
:100D5000237090E2299F90011124382B8C2F8370EF
:100D6000C1E0D0E002C0CC0FDD1F8A95E2F7C22BB4
:100D7000D32BDC685CCFC1E0D0E002C0CC0FDD1F1C
:100D80002A95E2F730E2939FC0011124C82BD92B9A
:100D9000DA684DCFD82FCC27C46FD06A48CFDC2F6C
:100DA000CC27C06FD06A43CF8C2F8F700E947907F9
:100DB00034E0D695C7953A95E1F7CF709C2FEC01BA
:100DC000D06935CF82389105B1F1B0F48133910506
:100DD00009F475C048F48932910509F469C08A3272
:100DE000910509F473C008958533910509F459C03C
:100DF0008933910501F10895833E9105A9F138F4F5
:100E0000803E9105F9F0823E910549F10895863EB4
:100E10009105A9F1873E9105C9F1843E910519F527
:100E20002091AD0521FF1FC08091AC0584FD14C049
:100E300087EE90E008952091AC052370A1F080EE3C
:100E400090E008952091AC0520FD47C03091AD059C
:100E500030FF09C024FF44C090E080E004C020912E
:100E6000AC0522FDF7CF08952091AC0522FD3BC0D3
:100E70003091AD0530FDE3CF24FFF5CFEDCF2091CC
:100E8000AC0523FFF0CF24FDE7CFD2CF2091AC05F6
:100E900023FD2CC03091AD0531FFEECF84EE90E004
:100EA00008952091AC0525FFDECF89E290E00895FA
:100EB0002091AC0525FFD7CF85E390E008952091E0
:100EC000AC0526FFD0CF8AE290E008952091AC05D2
:100ED00026FFC9CF81E390E0089589E390E008956B
:100EE00083EE90E0089582EE90E0089586EE90E023
:100EF00008959091AC0592FF06C0282F28712830E4
:100F0000F9F4877F846093FF06C0282F2871283169
:100F1000F1F4877E84612091AD0520FF06C0382F53
:100F200038713830D9F4877F816021FF06C0282FBF
:100F300028712831D1F4877E816194FD877E0895E0
:100F4000282F24712430F9F68B7F8860DCCF282F7E
:100F50002471243101F78B7E8861DDCF382F317108
:100F6000313019F78E7F8860E0CF282F2171213131
:100F700021F78E7E8861E1CF0895089594E0899FDE
:100F8000F0011124EA5AFB4F6081718182819381C3
:100F90000895089580EA8A95F1F70895F894E82F66
:100FA000E295EF70F0E031A1282F2F7081E090E002
:100FB00001C0880F2A95EAF7982F9095932391A363
:100FC00092A1892B82A3789408950F931F93CF93B6
:100FD000DF9383E90E94CE0782E90E94CE0787E370
:100FE0000E94CE0781EF0E94CE0787E60E94CE07BF
:100FF00085E90E94CE07C9EBD2E00AEC12E08991A4
:101000000E94CE070C171D07D1F7EEE3F4E0A6E52A
:10101000B4E011921192119211921D921D921D92A3
:101020001D9284E0E635F807A1F786E00E94BC082F
:10103000DF91CF911F910F910C9450054F925F92C9
:101040006F927F928F929F92AF92BF92CF92DF92D8
:10105000EF92FF920F931F93CF930AEC12E03EE3BF
:10106000E32E34E0F32EC0E0CC24C394D12CF8015D
:1010700081918F01F894E82FE295EF70F0E021A1C3
:101080008F70260102C0440C551C8A95E2F7C201FC
:10109000922F982B91A392A18095892382A3789473
:1010A0000E94CA07A9EBB2E090E080E0812C912C6D
:1010B00054014D91E42FE295EF70F0E020A130E073
:1010C0004F7002C0359527954A95E2F720FD4EC036
:1010D000412C512C32014394082E04C0440C551C61
:1010E000661C771C0A94D2F7B301A201842A952AC0
:1010F000A62AB72A019681319105D9F6F8013197D0
:1011000080810E94CE07F70180819181A281B38105
:1011100088169906AA06BB0669F180829182A2828E
:10112000B38281E0C82BF4E0EF0EF11C42E0003DF9
:10113000140709F09CCF2C2F46E066E574E08EE39F
:1011400094E00E94BD080E945C058C2FCF911F91F6
:101150000F91FF90EF90DF90CF90BF90AF909F9056
:101160008F907F906F905F904F90089540E050E097
:10117000BA01BCCF80E0D6CF0895FF920F931F93A2
:10118000CF93DF93F82ED92F8B01C42F222349F060
:1011900081E0809322030E9464299093210380932D
:1011A000200380912203882399F08091200390915D
:1011B00021030E947C29069758F0EF2DFD2FD801BE
:1011C00090E080E0D0E08C179D0744F0109222035D
:1011D000DF91CF911F910F91FF900895019111918F
:1011E000219131910D931D932D933D930196EBCF5A
:1011F000EF92FF920F931F93CF93DF93EB01E82FB2
:10120000D11110C0442321F0F0E0E458FB4FE491E9
:101210006E2F7E2F8E2FDF91CF911F910F91FF9018
:10122000EF9008950D2F10E0282F30E0442329F08F
:1012300024583B4FF901249130E0F6E0CF9FC001E4
:101240001124EFEFF0E0BF010E947131AB018C2F50
:1012500090E0880F991FA5E5A49FB001A59F700D90
:101260001124861B970B982F990F980FBF01601BB5
:10127000710B629FD001639FB00D729FB00D11245E
:101280008B2F9D9FB0011124672F7727EF01C61B7D
:10129000D70BBE01629FE001639FD00D729FD00DFE
:1012A00011247F01E91AF108E09EB001E19E700D62
:1012B000F09E700D1124672F7727E61BF70BE29F36
:1012C0008001E39F100DF29F100D1124E12F722F6A
:1012D0004230510599F048F44115510569F041300B
:1012E000510581F0EB2F8D2F07C04430510569F077
:1012F00080F046305105B1F76E2F8DCFE22F7B2F56
:10130000812FFACFE22F7D2FF7CFEB2F822F712F76
:10131000F3CF7B2F822FED2FEFCF41E00C94F80815
:1013200030E020E0869F212D969F200D311D112455
:10133000C9010895AC018230910508F408959FEF2A
:10134000413E8EE1580740F49A0195E03695279585
:101350009A95E1F798E0920F61E0E62FE90FFF27F9
:10136000FF1F9F0135952795822F229FF001239F14
:10137000F00DF00D11244E175F0738F49FEF920F18
:10138000961758F78FEF860F08952F3FE9F361E026
:10139000620FF6CFE82F86FDE0952E2F2F7086FD89
:1013A0002F5FE695E695E695E670F0E0E053FD4F99
:1013B0009181929F902D212D112492959F702295BD
:1013C000207F922B2081920F87FD919580E8890FD5
:1013D0000895E42FF0E0EE0FFF1FE659FE4F408125
:1013E00034EE439F412D1124E72FF0E050E0445E9E
:1013F0005F4FDA01A21BB1099D01B7FF03C0319510
:101400002195310993E0220F331F9A95E1F7AF013F
:10141000421B530B9A0157FD20E0279F212D1124D9
:10142000722F0895E42FF0E0EE0FFF1FE659FE4FF4
:10143000408134EE439F412D1124E82FF0E050E02D
:10144000445E5F4FDA01A21BB1099D01B7FF03C0E3
:1014500031952195310993E0220F331F9A95E1F7D9
:10146000AF01421B530B9A0157FD20E0582F259FD7
:10147000212D1124822F0895622F0895E42FF0E08A
:10148000EE0FFF1FE659FE4F6081621B0895E42FA7
:10149000F0E0EE0FFF1FE559FE4F6081621B0895DB
:1014A000322F50E0FA01EE0FFF1FE559FE4F9081F9
:1014B000905297FD9195440F551FFA01E659FE4F42
:1014C0002081231B330B290F311D97FD3A95620FA5
:1014D0000895EF920F93972F23E0029FB0011124FC
:1014E000759567956E0D792F0F91EF9008950F9375
:1014F000CF93DF93D72FC82F47FD419588E390E026
:10150000841B910947FD9395889FB001899F700DB9
:10151000700D1124229FC001239F900D900D112466
:10152000860F971F0E949A09982F990F890F682F8D
:10153000600F7D2F8C2FDF91CF910F9108950F9326
:101540001F93522F10E0F801EE0FFF1FE559FE4FD9
:10155000A081A052BB0B9D015203F001539FF00DDF
:101560001124000F111FD801A659BE4F0C9100572E
:10157000110B40039001419F300D11242E0F3F1F8E
:1015800037FF02C021583F4F220F232F221F330B5A
:10159000620F1F910F9108950F931F93522F10E028
:1015A000F801EE0FFF1FE559FE4FA081A052BB0BC3
:1015B0009D015203F001539FF00D1124000F111FE4
:1015C000D801A659BE4F0C910057110B4003900152
:1015D000419F300D11242E0F3F1F37FF02C0215CA9
:1015E0003F4F96E0359527959A95E1F7620F1F9149
:1015F0000F9108950F931F9310E0F801EE0FFF1F56
:10160000E659FE4F9081905797FD9195000F111F5D
:10161000F801E559FE4F00810052110B2003F00143
:10162000219FF00D112408E310E0091B110997FD1B
:10163000139540039001419F300D1124E20FF31FD9
:101640009F01220F331F2E0F3F1F37FF02C021586B
:101650003F4F220F232F221F330B620F1F910F9139
:1016600008954095282F429F412D1124842F0895DD
:1016700022E8241B08F420E0620F0895EF92FF9205
:101680000F93970195E0099F200D311D11242F3FE5
:10169000310519F010F02FEF30E02095382F320F80
:1016A00008F43FEF832F0F91FF90EF900895EF9292
:1016B000FF920F931F930E0D1F2D111DF90137FF80
:1016C00003C0F195E195F10924E0EE0FFF1F2A9583
:1016D000E1F7EF3FF10519F014F0EFEFF0E09A01B8
:1016E00057FF03C031952195310994E0220F331F34
:1016F0009A95E1F72E173F070CF4F901E00FF11F5F
:10170000EF3FF10519F010F0EFEFF0E0E095282F32
:101710003E2F230F08F42FEF822F1F910F91FF9080
:10172000EF900895EF92FF920F93972F093438F4BA
:10173000B701601B71096F3F710519F010F06FEF71
:1017400070E0485F5F4F4131510540F0A901485FAB
:101750005F4F4131510510F06FEF70E06095482FF9
:10176000460F08F44FEF842F37FF02C02D5F3F4F25
:10177000359527953595279560916F04620F792FE0
:101780000F91FF90EF900895EF92FF920F939701C2
:10179000201B31092F3F310519F010F02FEF30E0F9
:1017A000322F3095482F430F08F44FEF842F620FEC
:1017B0000F91FF90EF900895EF92FF920F93970192
:1017C000201B31092F3F310519F010F02FEF30E0C9
:1017D0002095382F320F08F43FEF832F0F91FF90A1
:1017E000EF900895FC019B01009729F480E077FFBA
:1017F0002BC080E80895AC0197FF04C0442755270B
:10180000481B590BB901640F751F37FD10C0241B0D
:10181000350BC901A5E0880F991FAA95E1F70E9431
:10182000853180E2861BF7FF0FC081950895CB01BB
:1018300065E0880F991F6A95E1F7BA01621B730B87
:101840000E94853180E6EECF08950F931F93CF93CA
:10185000DF93D62F172FC82FC901272F201B022F48
:10186000BA010E94F20B982F990F990F782F791BCC
:10187000700F719F712D11246D2F8C2FDF91CF91DF
:101880001F910F9108950F931F93CF93DF93D62F3E
:10189000C72F182FC901212F201B022FBA010E9428
:1018A000F20B982F990F990F891B800F282F219FDA
:1018B000212D1124822F6D2F7C2FDF91CF911F912D
:1018C0000F910895EF920F931F93CF93DF93D62F2D
:1018D000172FC82FC9010E19070FBA010E94F20B6A
:1018E000702F781B719F712D11246D2F8C2FDF911C
:1018F000CF911F910F91EF900895EF920F931F9347
:10190000CF93DF93D62FC72F182FC9010E19010FC0
:10191000BA010E94F20B081B202F219F212D1124B8
:10192000822F6D2F7C2FDF91CF911F910F91EF9020
:1019300008950F93CF93DF93D72FC82FC901BA0112
:101940000E94F20B682F600F7D2F8C2FDF91CF91BB
:101950000F910895EF920F93CF93DF93D72FC82F56
:10196000C9010E19BA010E94F20B602F681B7D2F6E
:101970008C2FDF91CF910F91EF9008950C948D09EA
:1019800045E050E06CE170E08EE694E00C944C325F
:1019900045E050E06CE170E08EE694E00C946A3231
:1019A000EEE6F4E085E380838091850290918602E3
:1019B000A091870281839283A3838FE784830C9411
:1019C000C80C80E008950F931F93CF93DF93C82F27
:1019D000D62F8A010E94E10C91E1C99FB001112428
:1019E0006C5F7E4F6D0F711DFB0190819F3F29F051
:1019F000F801E80FF11D90838F5FDF91CF911F9168
:101A00000F910895E091DE02F091DF020994E091D8
:101A1000DA02F091DB0209945F926F927F928F92CB
:101A20009F92AF92BF92CF92DF92EF92FF920F936D
:101A30001F93CF93DF935C014B01FC01C08182E1D6
:101A4000C89FC02D112412E11C0FF12E193510F082
:101A500038E5F32E6091720466958091730490913D
:101A600074040E949009582ED0E0CF15A0F081E0B8
:101A7000183508F080E0DF91CF911F910F91FF9012
:101A8000EF90DF90CF90BF90AF909F908F907F901E
:101A90006F905F900895FE01E65EFD4F8081F50135
:101AA00091818923C9F1CE01880F991F8C5F9E4FC8
:101AB000FC01EA59FF4F2081422F4057550B6A0124
:101AC00089599F4FFC018081282F2052330B390107
:101AD000449F9001459F300D300D1124669CC0013C
:101AE000679C900D900D1124820F931F0E949A09FC
:101AF000082F60916F047091700480917104E52C3F
:101B00009301A601F40109950E94BE0C462F282FCF
:101B1000672FCE010E94070D2196A7CF62E67CE0D9
:101B20000C940C0D6DE77CE00C940C0D69E67AE0EA
:101B30000C940C0D6AEA7CE00C940C0DAF92BF92F1
:101B4000CF92DF92EF92FF920F931F93CF93DF9389
:101B50006C017B01FC01C08182E1C89FC02D112472
:101B600012E11C0FB12E193510F038E5B32E60913B
:101B70007204669580917304909174040E94900998
:101B8000A82ED0E0CB1578F081E0183508F080E081
:101B9000DF91CF911F910F91FF90EF90DF90CF9049
:101BA000BF90AF900895FE01E65EFD4F8081F60183
:101BB0009181892311F1CE01880F991F8C5F9E4F6F
:101BC000FC01E959FF4F20812052330B8A599F4F66
:101BD000FC0140814057550B60916F047091700477
:101BE000809171040A2DF70109950E94BE0C462FC1
:101BF000282F672FCE010E94070D2196C3CF65E2E3
:101C00007CE00C949E0D63E47CE00C949E0D67E7F1
:101C10007AE00C949E0D69E97CE00C949E0DBF92D5
:101C2000CF92DF92EF92FF920F931F93CF93DF93A8
:101C30006C017B01FC01C08182E1C89FC02D112491
:101C400012E11C0F012F193508F008E560917204AC
:101C50006695669580917304909174040E94900932
:101C6000B82ED0E0C01770F081E0183508F080E0A1
:101C7000DF91CF911F910F91FF90EF90DF90CF9068
:101C8000BF900895FE01E65EFD4F8081F6019181CF
:101C9000892391F060916F047091700480917104B8
:101CA0002B2D4C2FF70109950E94BE0C462F282F93
:101CB000672FCE010E94070D2196D4CF69EE79E0FF
:101CC0000C940F0E62E17AE00C940F0E6CE37AE054
:101CD0000C940F0E6EE37AE00C940F0E67E47AE03A
:101CE0000C940F0E60E57AE00C940F0E7F928F92A9
:101CF0009F92AF92BF92CF92DF92EF92FF920F939B
:101D00001F93CF93DF935C016B01FC01C08182E1E3
:101D1000C89FC02D112412E11C0F912E193510F00F
:101D200038E5932E609172046695669580917304F0
:101D3000909174040E949009F82E80E48F0D0E9407
:101D4000CA0990E8892E880E8F2D0E94CA0920E8C2
:101D5000722E780ED0E0C91590F081E0183508F0A9
:101D600080E0DF91CF911F910F91FF90EF90DF9076
:101D7000CF90BF90AF909F908F907F900895FE017D
:101D8000E65EFD4F8081F50191818923A1F060918C
:101D90006F047091700480917104EF2C0C2F272D2B
:101DA000482DF60109950E94BE0C462F282F672F5B
:101DB000CE010E94070D2196CECF6FE97AE00C94F8
:101DC000760E6CEC7AE00C94760E6AEF7AE00C9466
:101DD000760EAF92BF92CF92DF92EF92FF920F9367
:101DE0001F93CF93DF937C016B01FC01C08182E1E3
:101DF000C89FC02D112422E1B22EBC0EAB2CF8E5F9
:101E0000FB1510F498E5A92E2091720430E050E003
:101E100040E06FEF7FEF80E090E00E949931890110
:101E2000D0E02C2FCA1580F081E0F7E5FB1508F40F
:101E300080E0DF91CF911F910F91FF90EF90DF90A5
:101E4000CF90BF90AF900895FE01E65EFD4F808178
:101E5000F70191818923F1F0409177044150042EDC
:101E6000000C550B47FF18C0C801609172040E9416
:101E70009009AC0160916F047091700480917104BD
:101E8000F60109950E94BE0C462F282F672FCE0120
:101E90000E94070D2196C5CFFA01E958FB4F8189B1
:101EA00082130AC0FA01EE0FFF1FE958FB4F818D24
:101EB000928D80179107C8F241505109D3CF61E349
:101EC0007BE00C94E90E68E37BE00C94E90E2F9222
:101ED0003F924F925F926F927F928F929F92AF92BA
:101EE000BF92CF92DF92EF92FF920F931F93CF9307
:101EF000DF93CDB7DEB72B970FB6F894DEBF0FBEDA
:101F0000CDBF8C832B015F834E83FB01F08182E187
:101F1000F89F802D112489838E5E8A838B83893577
:101F200010F028E52B83309177043D839981892F28
:101F300090E09B878A87880F991FFC01E659FE4F26
:101F40006F01FC818F2F90E09C012F5F3F4F3987FD
:101F50002887EB81FA85FE17F0F081E02A81283589
:101F600008F080E02B960FB6F894DEBF0FBECDBF11
:101F7000DF91CF911F910F91FF90EF90DF90CF9065
:101F8000BF90AF909F908F907F906F905F904F9099
:101F90003F902F900895EA85FB85E65EFD4F808196
:101FA000F2019181892301F120906F043090700437
:101FB0002885398529583B4F39013C81398310E008
:101FC00029813D812317C8F020917104129F112DA2
:101FD0001124B101812F0E94BE0C462F282F672F9C
:101FE0008A859B850E94070D8A859B8501969B8724
:101FF0008A8792E0C90ED11CACCFF30181913F01D9
:10200000F601A080A81ABB088180F3018781881A95
:102010009908AA9C9001AB9C300D300D1124889C2E
:10202000C001899C900D900D1124820F931F0E9476
:102030009A09082FF301EE0FFF1FE757F440609154
:102040007204858996890E9490097C019401A501FA
:10205000B101812FEE81FF8109951B01F981FF5F9D
:10206000F983182FADCF2091770431E0231B08F4BA
:1020700020E04EE35BE0BC01822F0C94670F4EE33F
:102080005BE0BC0180E00C94670F2091770431E0A5
:10209000231B08F420E047E55BE0BC01822F0C9491
:1020A000670F47E55BE0BC0180E00C94670F20916F
:1020B000770431E0231B08F420E042E95BE0BC0137
:1020C000822F0C94670F42E95BE0BC0180E00C9426
:1020D000670F2091770431E0231B08F420E044ECE3
:1020E0005BE0BC01822F0C94670F44EC5BE0BC0109
:1020F00080E00C94670F2091770431E0231B08F4F3
:1021000020E04CED5BE0BC01822F0C94670F4CED9E
:102110005BE0BC0180E00C94670FBF92CF92DF922E
:10212000EF92FF920F931F93CF93DF937C01FC01FB
:10213000C08182E1C89FC02D112412E11C0F012F24
:10214000193508F008E560916F0470917004809172
:1021500071040E94BE0CD62EC72EB82ED0E0C01738
:1021600070F081E0183508F080E0DF91CF911F9189
:102170000F91FF90EF90DF90CF90BF900895FE01F8
:10218000E65EFD4F8081F7019181892331F02B2D8F
:102190004D2D6C2DCE010E94070D2196E0CF8F9220
:1021A0009F92AF92BF92CF92DF92EF92FF920F93E6
:1021B0001F93CF93DF937C01FC01C08182E1C89F14
:1021C000C02D112412E11C0F012F193508F008E56C
:1021D000C0907004D0907104D0916F046D2F7C2D4D
:1021E0008D2D0E94BE0CB62EA72E982E60917204E3
:1021F0006D0F7C2D8D2D0E94BE0CD62EC72E882EE5
:10220000D0E0C01788F081E0183508F080E0DF9159
:10221000CF911F910F91FF90EF90DF90CF90BF90E3
:10222000AF909F908F900895FE01E65EFD4F9081E4
:10223000F7018181892359F0282D4D2D6C2D90FDBA
:1022400003C0292D4B2D6A2DCE010E94070D21962A
:10225000D8CFBF92CF92DF92EF92FF920F931F934E
:10226000CF93DF937C01FC01C08182E1C89FC02D28
:10227000112412E11C0FD12E193510F098E5D92E3A
:10228000C0907004B09071042091720400E4029F29
:10229000012D1124D0E0CD1570F081E0183508F043
:1022A00080E0DF91CF911F910F91FF90EF90DF9031
:1022B000CF90BF900895FE01E65EFD4F8081F7014B
:1022C00091818923B9F0FE01EE0FFF1FE559FE4F02
:1022D000808182958F7060916F04809F600D1124C2
:1022E0007C2D8B2D0E94BE0C462F282F672FCE01F0
:1022F0000E94070D2196CFCFBF92CF92DF92EF922F
:10230000FF920F931F93CF93DF938C01FC01C08149
:1023100082E1C89FC02D112452E1F52EFC0EDF2C66
:10232000F8E5FF1510F448E5D42EC0907004B09085
:1023300071042091720430E4E32E3E2D329F312D42
:102340001124E32ED0E0CD1578F081E037E53F157C
:1023500008F480E0DF91CF911F910F91FF90EF90F3
:10236000DF90CF90BF900895FE01E65EFD4F808123
:10237000F80191818923D9F0FE01EE0FFF1FE65984
:10238000FE4F6081E69EB001112495E0759567953A
:102390009A95E1F780916F04680F7C2D8B2D0E9438
:1023A000BE0C462F282F672FCE010E94070D2196C5
:1023B000CACFBF92CF92DF92EF92FF920F931F93FB
:1023C000CF93DF938C01FC01C08182E1C89FC02DB7
:1023D000112492E1F92EFC0EEF2CF8E5FF1510F414
:1023E00088E5E82ED0906F04D0917004C0907104FD
:1023F00060917204669566956695809173049091DC
:1024000074040E9490090E94CA09805887FD819532
:10241000880F282F3C2D239F212D1124822F6D2DD5
:102420007D2F0E94BE0CD62EC72EB82ED0E0CE1522
:1024300078F081E027E52F1508F480E0DF91CF9157
:102440001F910F91FF90EF90DF90CF90BF90089574
:10245000FE01E65EFD4F8081F8019181892331F014
:102460002B2D4D2D6C2DCE010E94070D2196DFCF17
:10247000DF92EF92FF920F931F93CF93DF938C0124
:10248000FC01E65EFD4F8081682381F1D0907004ED
:10249000D0917104C0916F04EC2EF12C0E94333264
:1024A000282FC7018C549F4F68E671E00E94853148
:1024B0008E199F0997FD0396959587959595879514
:1024C00023706C2F289F600D11247D2D8D2F0E946D
:1024D000BE0C462F282F672FC801DF91CF911F9187
:1024E0000F91FF90EF90DF900C94070DDF91CF914B
:1024F0001F910F91FF90EF90DF900895DF92EF9280
:10250000FF920F931F93CF93DF938C01FC01C28145
:10251000C11125C06091720420E1620F08F46FEFD1
:1025200080917304909174040E9490096AE070E0B5
:102530000E947131892B51F40E94333268E570E0BA
:102540000E948531F80161810E9438128C2FDF9141
:10255000CF911F910F91FF90EF90DF900895C08170
:1025600082E1C89FC02D112482E1D82EDC0E8D2D72
:10257000F8E5FD1508F488E5D0E0E82EF12CCE153D
:10258000DF0534F0C1E0F7E5FD1500F7C0E0DECF70
:10259000F8016181CE010E9438122196F0CF1F937D
:1025A000CF93DF93EC01FC01E65EFD4F8081682351
:1025B000A1F00E943332182F0E943332612F782FFE
:1025C000809171040E94BE0C462F282F672FCE01E8
:1025D000DF91CF911F910C94070DDF91CF911F9147
:1025E0000895DF92EF92FF920F931F93CF93DF93A3
:1025F0008C01FC01C281C11125C06091720420E1EF
:10260000620F08F46FEF80917304909174040E943C
:10261000900965E070E00E947131892B51F40E94AD
:10262000333268E570E00E948531F80161810E94D3
:10263000CF128C2FDF91CF911F910F91FF90EF90D0
:10264000DF900895C08182E1C89FC02D112482E1EE
:10265000D82EDC0E8D2DF8E5FD1508F488E5D0E0C8
:10266000E82EF12CCE15DF0534F0C1E0F7E5FD15BD
:1026700000F7C0E0DECFF8016181CE010E94CF12E9
:102680002196F0CFE091DC02F091DD020994CF9227
:10269000DF92EF92FF920F931F93CF93DF93CDB70B
:1026A000DEB728970FB6F894DEBF0FBECDBFFB0193
:1026B0008281F12C882341F0AE014F5F5F4F608132
:1026C00081810E94E30CF82EE09023030F2D10E08F
:1026D000C8018E0D911D099764F188E090E06C01AE
:1026E000C01AD10AB8016C5D7C4FA60184E293E068
:1026F0000E944332B801645D7C4FA6018CE293E0F6
:102700000E944332A601440F551FB801660F771F80
:10271000645C7C4F8CE393E00E944332B8016C5CB4
:102720007C4FA60184E393E00E944332EA94E09256
:10273000230310912303DE01119640E0842F810FC3
:10274000F41212C08093230381E028960FB6F89408
:10275000DEBF0FBECDBFDF91CF911F910F91FF90D4
:10276000EF90DF90CF9008955D91252F30E090E0BD
:10277000BC016D5D7C4FF901EE0FFF1FE659FE4F66
:102780000081FB010183220F331FF901E559FE4F40
:102790002081FB012187518B880F991FFC01ED5D82
:1027A000FC4F128E118E4F5FC9CF08950E94CE0349
:1027B0000C94D51308950895CF93DF93FC01C08145
:1027C00082E1C89FC02D1124DEEEDC0FC93508F070
:1027D000C8E56C2F8D2F0E94DA136C2F8D2FDF919F
:1027E000CF910C94DB134F925F926F927F928F92F6
:1027F0009F92AF92BF92CF92DF92EF92FF92CF93D0
:1028000060914C0370914D0380914E0390914F0362
:102810000E948B296B017C010E9470294B015C0195
:1028200080924C0390924D03A0924E03B0924F03BE
:10283000A0912303E3E2F3E08A2F90E04FEF5FEFF4
:1028400060E070E04C195D096E097F09A91325C08D
:102850008093230380916E04C82FC37019F0C82F92
:10286000C695C69590917202913009F440C09923A3
:1028700039F1923009F43AC1933009F440C1CF9153
:10288000FF90EF90DF90CF90BF90AF909F908F9090
:102890007F906F905F904F900895218D328D290128
:1028A000712C612C441555056605770520F481507F
:1028B0009F5F3296CBCF2C0D3D1D328F218FF8CFED
:1028C000109273028092730490927404A092750423
:1028D000B092760489E2E3E2F3E0A7E7B4E0019086
:1028E0000D928A95E1F781E080937202C8CF9091B2
:1028F0007602C91315C0982F93702091770230E0AB
:1029000081E09217130609F480E0817080937502CC
:10291000C53278F4EC2FF0E0EE53FD4C0C94B83156
:1029200081E0F3CF882359F040E060E080E00E942E
:10293000421380E004C083E792E00E948D109091E2
:1029400073029F5F909373028111CCC082E08093E9
:102950007202809175028111C5C0CC2309F4CDC0EB
:102960000E94D61383E792E0CF91FF90EF90DF9023
:10297000CF90BF90AF909F908F907F906F905F901F
:102980004F900C94DC1383E792E00E94CF10D7CFD6
:1029900083E792E00E942911D2CF83E792E00E9460
:1029A0007C11CDCF83E792E00E94D911C8CF83E795
:1029B00092E00E945E0EC3CF83E792E00E94620E17
:1029C000BECF83E792E00E94FF0DB9CF83E792E08C
:1029D0000E94030EB4CF83E792E00E948E0DAFCF2A
:1029E00083E792E00E94920DAACF83E792E00E94D3
:1029F000660EA5CF83E792E00E946A0EA0CF83E720
:102A000092E00E946E0E9BCF83E792E00E94720ECE
:102A100096CF83E792E00E94960D91CF83E792E0F4
:102A20000E94070E8CCF83E792E00E940B0E87CFA7
:102A300083E792E00E949A0D82CF83E792E00E94A2
:102A4000DD0E7DCF83E792E00E94E10E78CF83E731
:102A500092E00E94E50E73CF83E792E00E947E121F
:102A60006ECF83E792E00E94F11269CF83E792E094
:102A70000E945F0F64CF83E792E00E94630F5FCFF5
:102A800083E792E00E9433105ACF83E792E00E94DE
:102A90003F1055CF83E792E00E94451050CF83E767
:102AA00092E00E9451104BCF83E792E00E945710B2
:102AB00046CF83E792E00E94631041CF83E792E024
:102AC0000E9469103CCF83E792E00E94751037CFD7
:102AD00083E792E00E947B1032CF83E792E00E946E
:102AE00087102DCFCC2309F4CACE3ACFC0937602FB
:102AF0008370809377020E94020D83E0F5CE60918F
:102B000073047091740480917504909176040E940E
:102B10008B29603171058105910508F4B0CE1092C2
:102B20007202ADCEE091D802F091D90209951092CF
:102B300077048FEF9FEF909391048093900490938C
:102B400093048093920490939504809394049093BB
:102B5000970480939604909399048093980490939B
:102B60009B0480939A0490939D0480939C0490937B
:102B70009F0480939E041092230390933D038093BF
:102B80003C0390933F0380933E03909341038093D3
:102B900040039093430380934203909345038093B3
:102BA0004403909347038093460390934903809393
:102BB000480390934B0380934A030E947627811128
:102BC00004C00E941A280E94D00C0E94C00C809160
:102BD0006E048C7F11F40C94D00C089590916E04C7
:102BE00021E0922790936E041092720281110C944E
:102BF000C80C089581E00C94EE1590916E049370CA
:102C000099F0811109C0946090936E041092720241
:102C1000662351F00C94C80C853210F09069F4CF03
:102C2000880F880F982BF0CF089561E00C94FD1564
:102C3000682F90916E049695969581E0890F853264
:102C400008F081E00C94FD1581E00C941816682FB3
:102C500090916E04969596958FEF890F09F484E212
:102C60000C94FD1581E00C94271690916E049370DE
:102C700049F080936F0460937004409371042111B4
:102C80000C94C80C0895AEE6B4E01196EC9111973F
:102C9000F0E0282F13964C91139712966C91CF0168
:102CA00008960C94351681E00C944316EEE6F4E099
:102CB0009181282F43816281E92FE850FF0BCF01DA
:102CC0000C94351681E00C945616EEE6F4E0628121
:102CD00020E1620F08F46FEF9181282F4381892F43
:102CE00090E00C94351681E00C946516EEE6F4E065
:102CF000628120E1621B08F460E09181282F43810A
:102D0000892F90E00C94351681E00C947616EEE64F
:102D1000F4E0438120E1420F08F44FEF9181282F26
:102D20006281892F90E00C94351681E00C9487160F
:102D3000EEE6F4E0438120E1421B08F440E091819B
:102D4000282F6281892F90E00C94351681E00C9435
:102D500098162091720430E1230F08F42FEF20938E
:102D6000720481110C94C80C089581E00C94A9168A
:102D70002091720430E1231B08F420E020937204B8
:102D800081110C94C80C089581E00C94B816089534
:102D9000FC01EE0FFF1FE80FF91FE056FB4F6183A8
:102DA000408322830895E0EAF4E0818360834283D4
:102DB000339695E0E83AF907C1F7089568E570E0C1
:102DC00080EA94E00C944717FA01811101C0FB01DD
:102DD00009940F931F93CF938C01FB01C281CC23E5
:102DE00009F453C00E94C1268272F801E35CFC45DD
:102DF000E431F10538F4E951FD4C0C94B8310E94EE
:102E0000FA15C0E08C2FCF911F910F91089542E3E6
:102E100056E164E276E10E94E416F3CF44E256E123
:102E200062E376E1F8CF42E656E163E576E1F3CF7F
:102E300043E556E162E676E1EECF44E856E163E72A
:102E400076E1E9CF43E756E164E876E1E4CF46EA8C
:102E500056E165E976E1DFCF45E956E166EA76E1DC
:102E6000DACF44EC56E165EB76E1D5CF45EB56E1A0
:102E700064EC76E1D0CF81E00E941516C2CF85E0E8
:102E8000FBCF8DE0F9CF82E1F7CFC1E0BBCF6E9AE7
:102E90004EB14F7B5EB15064EFB7F8949B01220FA7
:102EA000331F260F371F280F391F2817390741F402
:102EB000EFBF8FE594E00197F1F700C0000008959F
:102EC000DC016D91CD0178E05EB9000000C067FFC4
:102ED0004EB9660F000000C000C000C04EB900C06F
:102EE0007A9591F7E2CF82E290E00E945C328132E3
:102EF00089F483E290E00E945C32823059F484E2EB
:102F000090E00E945C3291E0823109F090E0892FDC
:102F10008170089580E0FCCFCF93C82F6FEF8111AF
:102F200061E282E290E00E947A326FEFC11162E0CA
:102F300083E290E00E947A326FEFC11162E184E295
:102F400090E0CF910C947A3280E00E948C170C9420
:102F50007027089585E290E00E945C32682F70E04F
:102F600090E080E0089585E290E00C947A320E942F
:102F7000A9170E94731781110CC060E070E0CB01AB
:102F80000E94B3170E940C190E94F61981E00C945C
:102F90008C170895CF93FB01C281CC2309F19C01CA
:102FA00022513F452031310520F582510E94061AF9
:102FB000C0E08C2FCF91089581E00E943C2543E032
:102FC00062E081E00E943E05F3CF81E00E945D2532
:102FD00043E062E081E00E943E05EBCF82E0F6CF65
:102FE0008031FFE59F0789F381319F45B9F3C1E047
:102FF000E0CF8031EFE59E07F9F281319F45C9F6B8
:1030000082E0DBCF2FEFFC0120830895EF92FF9247
:103010000F931F93CF93DF93EC01E62EE881E150ED
:10302000E33108F05FC0F0E0E550FD4C0C94B8319E
:10303000198289E08A836E2DCE01DF91CF911F9195
:103040000F91FF90EF900C94A52A8981823069F04E
:10305000833071F08130E1F40E9470290E94BE310A
:103060006A837B838C839D83E6CF0E94AA17F6CF69
:103070008E01F12C8F2D0E94BE07F801828373838D
:103080006483F3940D5F1F4FF6E0FF12F3CFD3CFAD
:103090006E2DCE010E940218CECF89818230C1F7F9
:1030A0006A817B818C819D810E94BE310E94B31711
:1030B000C2CF4B816A8189810E94DE1898278927B7
:1030C00098279D838C83B7CF2C813D81322723277E
:1030D00032274B816A8189810E94F718ACCF0E9408
:1030E0000C19A9CF8FEF8883A6CF0E94A1198983DD
:1030F000A2CF0E94A3199827892798279A838983AA
:103100009ACF6B8170E089819A81AE014C5F5F4FED
:103110009827892798270E94A6198DCF6B8170E088
:1031200089819A81AE014C5F5F4F98278927982744
:103130000E94CC1980CF0E94F6197DCF0E94CC1836
:10314000D6CF6B8170E089819A81AE014C5F5F4F71
:103150009827892798270E9444196DCF6B8170E0CA
:1031600089819A81AE014C5F5F4F98278927982704
:103170000E946A1960CF0E94A4175DCF0E94A52A01
:103180002FEF81EE94E0215080409040E1F700C0A5
:1031900000000E94CB294FCF84E0089550E0440FF7
:1031A000551F92E2699F400D511D11249CEC899F8F
:1031B000400D511D1124CA01869608950F931F9347
:1031C000CF93DF930E94CE188C010E945C32C82FEF
:1031D000D0E0DC2FCC27C80101960E945C329E0112
:1031E000282BC901DF91CF911F910F9108950F9363
:1031F0001F93CF93DF93122F032F0E94CE18EC0161
:10320000602F0E947A32612FCE010196DF91CF911B
:103210001F910F910C947A32AF92BF92CF92DF92AE
:10322000EF92FF921F93CF93DF938CEAC82E80E03A
:10323000D82ED0E07601C0E014C0F501259134917C
:10324000412F6C2F8D2F0E94F71882E0A80EB11C21
:103250001F5F113191F782E2E80EF11CCF5FC6309B
:1032600019F0570110E0E9CFDF5F8CECC80ED11CDC
:10327000D43001F7DF91CF911F91FF90EF90DF9055
:10328000CF90BF90AF900895EF92FF920F931F934E
:10329000CF93DF93EC018A017C01E60EF71ECE018D
:1032A0008696CE15DF0539F4DF91CF911F910F91EE
:1032B000FF90EF900895C03323E0D20740F40E94BE
:1032C0005C32F80180830F5F1F4F2196E8CFF80131
:1032D0001082F9CFCF92DF92EF92FF920F931F935C
:1032E000CF93DF937C016A018C01060F171FEC015D
:1032F000CE018696C017D10749F4DF91CF911F9177
:103300000F91FF90EF90DF90CF900895C03323E0AE
:10331000D20740F4FE01EE19FF09EC0DFD1D60819E
:103320000E947A322196E4CF462F843038F47630EA
:1033300028F4613118F4672F0C94DE1890E080E0D7
:10334000089580E108958AEA90E00895EF92FF924F
:103350000F931F93CF93DF93EC018A017C01E60E5C
:10336000F71ECE018A5A9C4FCE15DF0539F4DF9146
:10337000CF911F910F91FF90EF900895CA3AD10518
:1033800040F40E945C32F80180830F5F1F4F21964A
:10339000E8CFF8011082F9CFCF92DF92EF92FF923F
:1033A0000F931F93CF93DF937C016A018C01060F6B
:1033B000171FEC01CE018A5A9C4FC017D10749F460
:1033C000DF91CF911F910F91FF90EF90DF90CF9001
:1033D0000895CA3AD10540F4FE01EE19FF09EC0D3B
:1033E000FD1D60810E947A322196E4CFCF93DF9356
:1033F000C6E5D3E060E0CE010E947A322196C11585
:1034000084E0D807B9F7DF91CF910895DF92EF926A
:10341000FF920F931F93CF93DF9300D000D0CDB7CF
:10342000DEB7F82E8FE08F1540F08FEF93E00E940B
:103430005C3206E513E08823C1F00F900F900F90E7
:103440000F90DF91CF911F910F91FF90EF90DF9040
:103450000895011584E0180781F3C8010E945C32C9
:10346000811101C0FA940F5F1F4FF110F2CF198242
:103470001A821B821C82DD24D39478018FEFE81A14
:10348000F80AC8010E945C3289831A828823A9F253
:103490009FEF980F933078F48A83D9820E5F1F4F85
:1034A000C7010E945C328B83882339F2CE010196DA
:1034B0000E94E704E2CF8701F9CF0F931F93CF93C8
:1034C000DF93C42FD22FFC0182818823C9F040935F
:1034D00052030E946429909351038093500380E229
:1034E0008C0F883008F050C0C77081E001C0880F91
:1034F000CA95EAF7DF91CF911F910F910C94D51ED9
:1035000010915203141335C08091500390915103D0
:103510000E947C29883C910560F5C0E2CD0F1D1703
:10352000B9F080E2810F883040F4177081E001C06B
:10353000880F1A95EAF70E94DC1EC83048F481E033
:103540009D2F977001C0880F9A95EAF70E94D51EAB
:10355000802F0E94C21EC830B8F4D77081E001C02D
:10356000880FDA95EAF7DF91CF911F910F910C94B4
:10357000DC1E80E28C0F883038F4C77081E001C017
:10358000880FCA95EAF7EFCFDF91CF911F910F9186
:1035900008950F939C01CB01243F4CE5340759F16A
:1035A000A8F4293DFCE53F0701F12A3D4CE534072D
:1035B000D1F1283D3C4591F406E221EE41EE68ED63
:1035C0007CE50E945D1A80E00F910895263FFCE59E
:1035D0003F07E9F0B0F0273F3C45F9F0FC0182815C
:1035E000882339F110925203EFCF07E225EE45EE22
:1035F00069ED7CE5E6CF06E221EE40EE64EF7CE586
:10360000E0CF07E225EE44EE65EF7CE5DACF06E297
:1036100021EE42EE66EF7CE5D4CF07E225EE46EEE2
:1036200067EF7CE5CECF08E221E045EE6AED7CE570
:10363000C8CF81E0C9CFCF93DF93EC01FB0182813A
:10364000882309F419C1C230FCE5DF07C0F1C63197
:103650009CE5D90730F09E012B5F3C4529303105B0
:1036600070F50E9489279093AD058093AC05C03119
:10367000ECE5DE0709F4CFC008F05BC0C8308CE58C
:10368000D80709F4B6C088F5C430ECE5DE0709F4C4
:10369000A8C0C0F4C2308CE5D80709F49CC0809162
:1036A000AC058260C330DC4509F498C08091AC055C
:1036B0009091AD050E9497270E94422180E0DF9102
:1036C000CF9108958091AC058061C630ECE5DE07AE
:1036D00009F484C08091AC058860C730DC4508F4EB
:1036E0007DC08091AC05806279C0CC308CE5D80774
:1036F00009F489C070F48091AC058C60CA30ECE5A7
:10370000DE0709F46BC008F478C08091AC058E7FA9
:1037100065C0CE308CE5D80709F479C08091AC053E
:103720008B7FCF30DC4508F459C08091AC058F7E8B
:1037300055C0CC3FECE5DE0709F457C030F5C33186
:103740008CE5D80709F46FC078F4C131ECE5DE07E9
:1037500009F465C0C231DC4509F0A8CF0E944221BE
:103760008091AC058F773AC0C5318CE5D80709F454
:1037700062C008F476C08091AD058160CB3FDC4526
:1037800009F094CF8093AD0591CFC115FDE5DF071A
:1037900009F44DC088F48091AD058D7FCE3F9CE546
:1037A000D90781F38091AD058E7FCF3FDC4550F383
:1037B0008091AD058360E6CFC230FDE5DF0709F4F7
:1037C00059C008F444C080E0C330DD4509F06ECF35
:1037D0000E941C286BCF8091AC0581608093AC0562
:1037E00065CF8091AC058460F9CF8091AD05826092
:1037F000C9CF8091AC058064F1CF0E9442218091B5
:10380000AC058068EBCF8091AC058D7FE7CF8091D0
:10381000AC05877FE3CF8091AC058F7DDFCF8091B2
:10382000AC058F7BDBCF8091AC05837FD7CF8091B8
:10383000AD058C7FA7CF8091AC0582FB992790F9CD
:1038400021E0922790FB82F990FB83F9C7CF80910A
:10385000AD05982F909591708E7F892B90FB81F903
:1038600091CF0E9442219091AC05892F97FB87F957
:103870008058B4CF81E0ACCF81E021CFCF93DF93EC
:10388000EB0186319C4511F50E94C1269A8199234E
:1038900099F08A7A91E009F490E0909353038111B2
:1038A00009C089E20E949C260E940D2780E0DF91DA
:1038B000CF91089585E3F6CF80915303811104C021
:1038C00089E20E94A326F0CF85E3FBCF81E0EFCF12
:1038D00090935903809358030895E0915803F09111
:1038E0005903309721F00190F081E02D099480E098
:1038F0000895E0915803F0915903309799F0209181
:103900008402222359F02091AC0527FF07C0DC0177
:103910002C9111962C93119725E02C930280F38122
:10392000E02D0994089520915603309157032817EC
:10393000390771F09093570380935603E091580331
:10394000F0915903309721F00680F781E02D09941A
:10395000089520915403309155032817390771F0C9
:103960009093550380935403E0915803F0915903C9
:10397000309721F00084F185E02D0994089585B7F2
:10398000806885BF85B7806885BF089508950895CC
:103990000C94C61C08950C94CA1C0E94BF1C0E9463
:1039A000C71C0C94C81C81E008950C94D31C089586
:1039B00008950E945B290E94E5070E94B7170E94A4
:1039C000052A0C94CB1C4F925F926F927F929F922C
:1039D000AF92BF92CF92DF92EF92FF920F931F931D
:1039E000CF93DF93CDB7DEB72A970FB6F894DEBF3B
:1039F0000FBECDBF0E94D71C0E94D81C0E941E087B
:103A00000E94D51C882309F48EC04BE5A42E43E008
:103A1000B42E10E000E0902E802F0E94BE072B01F4
:103A20003C01F501C190D190E190F1905F01C41487
:103A3000D504E604F70409F470C080911A0481FDEE
:103A40000E94C907B701A60144255525662577259B
:103A500020E0C12CD12C7601C394DB01CA018C215A
:103A60009D21AE21BF21892B8A2B8B2B09F44DC0C0
:103A70002E839F824C205D206E207F2081E0452890
:103A80004628472809F480E088870E9464298160DD
:103A9000782F9A8789874E815F8168858A850E9401
:103AA000BA1D000F111F000F111FF801E55AFC4F3E
:103AB00080819181A281B3818C259D25AE25BF2572
:103AC00080839183A283B3830E946D1C90915A03DB
:103AD0008917D1F10E946D1C80935A032A960FB664
:103AE000F894DEBF0FBECDBFDF91CF911F910F9134
:103AF000FF90EF90DF90CF90BF90AF909F907F901E
:103B00006F905F904F900C94C2052F5FCC0CDD1C22
:103B1000EE1CFF1C213109F0A0CF0F5F1F4F0630B4
:103B2000110509F078CF8FEF89838A831B820E9469
:103B300064298160782F9D838C8349815A816B81B0
:103B40008D810E94BA1DC0CF2A960FB6F894DEBFB1
:103B50000FBECDBFDF91CF911F910F91FF90EF90DE
:103B6000DF90CF90BF90AF909F907F906F905F90CD
:103B70004F900895CF93DF93CDB7DEB72B970FB655
:103B8000F894DEBF0FBECDBF4F83588769877A8711
:103B90008B871E821D8285E0FE013796DE0111961D
:103BA00001900D928A95E1F749815A816B817C8160
:103BB0008D819E812B960FB6F894DEBF0FBECDBFD0
:103BC000DF91CF910C94B823FC01808191810C94FA
:103BD0006E26CF93C82F882309F483C08238C1F49E
:103BE0000E946D1C81FD7DC089E30E949C260E947D
:103BF0000D272FEF81EE94E0215080409040E1F7B7
:103C000000C0000089E30E94A326CF910C940D27E9
:103C10008338A1F40E946D1C80FD63C083E50E947F
:103C20009C260E940D272FEF81EE94E021508040CA
:103C30009040E1F700C0000083E5E5CF8438A1F4AF
:103C40000E946D1C82FD4DC087E40E949C260E944C
:103C50000D272FEF81EE94E0215080409040E1F756
:103C600000C0000087E4CFCF8CEF8C0F813A90F436
:103C70006C2F80917802909179020E9435288823D8
:103C800029F08C2F0E94A3260E940D278C2F0E94C2
:103C90009C26BBCF80E28C0F883048F4C77081E04F
:103CA00001C0880FCA95EAF70E94C426AECFEBE5A3
:103CB000EC0FE33040F4F0E0E25FFC4F808190E0F5
:103CC000CF910C94931CC85AC73158F4EC2FF0E0F4
:103CD000EE0FFF1FE052FD4F80819181CF910C9438
:103CE000A91CCF910895882309F44BC0823871F440
:103CF0000E946D1C81FF45C089E30E949C260E94A2
:103D00000D2789E30E94A3260C940D27833859F4CC
:103D10000E946D1C80FF35C083E50E949C260E9496
:103D20000D2783E5EFCF843859F40E946D1C82FF84
:103D300028C087E40E949C260E940D2787E4E2CFDA
:103D40009CEF980F913AF0F290E2980F983050F46F
:103D5000877091E001C0990F8A95EAF7892F0E9438
:103D6000CA26D2CF9BE5980F933020F490E080E0F4
:103D70000C94931C885A873120F490E080E00C94D6
:103D8000A91C0895CF93C82F0E94E91DC93349F497
:103D90002FEF87EE93E0215080409040E1F700C084
:103DA00000008C2FCF910C94731E882321F00E9469
:103DB000C4260C940D270895882321F00E94CA265A
:103DC0000C940D270895BF92CF92DF92EF92FF924D
:103DD0000F931F93CF93DF936C01D62FC72FFC0156
:103DE000058102950F70128111110E94E1260E9437
:103DF000BA26E82E882391F01123D1F08C2F807FF2
:103E0000803421F080E28D0F883090F082E00E94B3
:103E100058270E94BA2691E0E82EE926BC2EB294DB
:103E20009FE0B922EB2DF0E0E25FFC4C0C94B8313E
:103E3000E12CF4CF0C2F0F70C07F11F00295007FA2
:103E40001123A9F0002359F080E28D0F883010F083
:103E5000D11109C0802F0E94C4260E940D278D2FEA
:103E60000E94E91D14C0802F0E94D426F6CF8D2F0A
:103E70000E94731E002359F080E28D0F883010F0ED
:103E8000D1112CC0802F0E94CA260E940D272B2DF5
:103E90002850330B2430310520F40E946D1C0E9401
:103EA000C205EE2009F493C10E94B62680FD8FC1A1
:103EB000F60112820E94B0260E943C25C6010E9493
:103EC00008210E94B026DF91CF911F910F91FF90A2
:103ED000EF90DF90CF90BF900C945D25802F0E94D3
:103EE000DA26D3CFFC2FFF70FF2EC07FC03219F02F
:103EF000F29480EFF822DD2369F0D13049F11123EB
:103F000091F1002351F1F601858180FFA8CF8F70D8
:103F1000858323C0112381F0011106C00E94F4267D
:103F20008F290E94D51EB3CF0130C1F70E94F4261D
:103F30008F290E94FA26ABCF011106C00E940327E9
:103F40008F2D0E94DC1EA3CF013009F4A0CFF6CF45
:103F5000112329F0063008F09ACF8F2DE2CF0530DB
:103F600008F095CFEDCF002359F3D93349F4FFEF93
:103F700027EE33E0F15020403040E1F700C0000070
:103F80008D2F0E94731E83CF8C2F8695869583700C
:103F900069F0813009F07BCF8D2F9C2F9370111128
:103FA00002C090E080E00E94A91C71CF8D2F9C2F51
:103FB0009370111102C090E080E00E94931C67CFC3
:103FC0008C2F837009F041C0111161CF4D2F4295A4
:103FD00046954770440F440F0D2F0F7010E030E0EE
:103FE00020E0042E04C0000F111F221F331F0A946B
:103FF000D2F760E070E0CB01D4FF0FC06FE070E05B
:1040000080E090E004C0660F771F881F991F4A95D3
:10401000D2F76095709580959095C695C695C370BA
:10402000602B712B822B932BC23049F058F4C13096
:1040300019F00E94EE242BCF0E94DC2428CF0E948E
:10404000002525CF0E94DA2422CF8695112311F076
:104050008C2F8170882309F41ACF4D2F42954695F5
:104060004770440F440F0D2F0F7010E030E020E038
:10407000042E04C0000F111F221F331F0A94D2F711
:1040800060E070E0CB01D4FF0FC06FE070E080E033
:1040900090E004C0660F771F881F991F4A95D2F7DA
:1040A0006095709580959095C695C695C370602B68
:1040B000712B822B932BC23049F058F4C13019F088
:1040C0000E94B325E4CE0E94A125E1CE0E94C52521
:1040D000DECE0E941625DBCECF70112329F08C2F67
:1040E0000E943C258D2F1DCF8D2F0E94DC1E8C2F12
:1040F0000E945D25CCCED23F89F160F4D03FC9F05B
:10410000D13F29F1112309F442C00111A8CE8C2F0F
:104110008F7121C0D33F39F1D43FA1F7112369F149
:10412000CF718C2F0E943C2563E08C2F0E94432787
:10413000AECE112341F0053008F0A9CE8C2F8F713F
:104140000E948025A4CE063008F0A1CEF7CF8C2F98
:104150008F71112369F20E943C2599CE8C2F8F71AB
:104160001123C9F3C5CF112329F08C2F8F710E9421
:1041700027258DCE0E9422258ACE81E00E945827D5
:10418000023008F484CE82E00E94582780CE0023BB
:1041900059F0D93309F0F4CE8FEF97EEE3E0815078
:1041A0009040E040E1F7EACE8C2F8F71A1CF4C2FE9
:1041B0004F706D2FC6010E94CA050E94522467CE1F
:1041C0004C2F4F706D2FC6010E94CD0560CEDF9140
:1041D000CF911F910F91FF90EF90DF90CF90BF9004
:1041E00008950F931F93CF93DF93EC01688179813A
:1041F0008A810E9478268C010E94D7250E94D924AA
:10420000B801CE01DF91CF911F910F910C94E31E65
:10421000CF93DF93EC018B819C81892B29F08881DE
:10422000998189238F3F59F4DF91CF910895CE0171
:104230000E94F120CE01DF91CF910C942804CE0191
:104240000E9470058111F3CF0E94BA26882361F382
:104250008A81882349F382E0DF91CF910C9458271B
:104260000E94E1260E94F1260E940D2790E080E046
:104270000E94931C90E080E00C94A91C0E94AA2646
:104280000C9430210E94D1260C943E21E92FE29516
:10429000EF70E250EE3070F4F0E0E25EFC4C0C9413
:1042A000B831803F19F020F4883E20F481E0089571
:1042B000843FE1F380E00895883EC0F3813FD1F769
:1042C000F5CF93FB882780F908950E946E260C9401
:1042D0004621CF93DF9300D000D00F92CDB7DEB749
:1042E0000F900F900F900F900F90DF91CF91089546
:1042F000CF93DF9300D000D000D0CDB7DEB72696A5
:104300000FB6F894DEBF0FBECDBFDF91CF910895F9
:104310001F93CF93DF93C091740316E080917503D0
:104320008C1304C0DF91CF911F910895D0E01C9FA2
:10433000F0011D9FF00D1124EA58FC4F408151817E
:1043400062817381848195810E9478212196C77052
:10435000E5CF4091A6035091A7036091A803709107
:10436000A9038091AA039091AB030C9478211F9329
:10437000CF93DF938091AB03807FA9F48091A80352
:10438000882389F080917403C09175036091A6031E
:104390007091A703A091A903B091AA03D62FD723A8
:1043A00016E0C81304C0DF91CF911F91089590E0EB
:1043B000109711F0DF3F19F401968770F2CF189F24
:1043C0009001199F300D1124F901EA58FC4F4181E9
:1043D0004713F2CF40814613EFCF42814111ECCF1A
:1043E000438154814A1B5B0B483C510528F780915F
:1043F000AB038F7080618093AB03F901E558FC4FEC
:1044000080818F708061808386EA93E00E9408211A
:10441000DF91CF911F910C948821AF92BF92CF92E0
:10442000DF92EF92FF920F931F93CF93DF93CDB75D
:10443000DEB761970FB6F894DEBF0FBECDBF8C011B
:1044400085E0F801DE011D9601900D928A95E1F755
:10445000F80140815181E28086EAC82E83E0D82E9F
:104460006091A9037091AA036115710509F461C1F6
:104470009091A6032091A703892F82238F3F09F4EF
:1044800058C1A380B480F090A803F501E61BF70B98
:10449000FF2009F4FCC08091AB03382F307FE83C4B
:1044A000F10508F0B2C0311179C0FE2C251323C0EC
:1044B000941321C0E1101FC08F7080618093AB0303
:1044C0000E94A921C6010E9408218091AB03F80136
:1044D00085838F2D61960FB6F894DEBF0FBECDBFDA
:1044E000DF91CF911F910F91FF90EF90DF90CF90D0
:1044F000BF90AF900895AB2829F0842F85238F3F7C
:1045000009F033C180E0F82FF170DF2E80FF3CC04E
:10451000809174032091750336E0821315C04D8796
:104520005E878D859E850E946E26292F22952F708D
:104530002230F0F0243018F59F70F1F0F8019581E9
:10454000907FD1F4D12C1EC090E0389FF001399FAC
:10455000F00D1124EA58FC4F6181651306C060819B
:10456000641303C062816E110FC001968770D5CFAE
:104570009F7011F0882331F3805E883018F3C801F2
:104580000E940821FD2CA5CFEE2009F4A2CF809136
:10459000AB0381608093AB03F12C9BCF251306C046
:1045A000941304C0F801EE2009F48DC04D875E8796
:1045B0008D859E850E946521882319F1EE2009F1E1
:1045C0008091AB03803270F02091A6033091A70355
:1045D00038872F831986BB86AA868C87CE010796DB
:1045E0000E94082186E0F801A6EAB3E001900D924E
:1045F0008A95E1F70E94B7210E94A921FF24F39434
:1046000068CFC8010E940821F9CF311113C07A2D5B
:10461000B98AA88A6E2D89890E94692186EA93E069
:104620000E94082186E0F60111928A95E9F70E941E
:10463000A921B2CF25130FC094130DC0E1100BC0F8
:10464000F8018583C8010E94082186E0F6011192D5
:104650008A95E9F73ECF4D875E878D859E850E94BE
:104660006521882371F2EE2061F28091AB038032E4
:1046700008F4B8CF2091A6033091A7033A83298389
:104680001B82BD82AC828E83CE010196A9CFE83C0D
:10469000F10508F041C0FE2CEE2009F4B2CF25133D
:1046A0002AC0941328C08091AB0380FD1BC0982FB3
:1046B000907FC1F0F8018583903F31F0982F907F73
:1046C000905F8F70892B8583C8010E94082186E046
:1046D000F801A6EAB3E001900D928A95E1F70E94F5
:1046E000A921F7CE86E0F801A6EAB3E001900D9289
:1046F0008A95E1F7EECE4D875E878D859E850E9477
:10470000652181116FCF8091AB0381608093AB03F2
:10471000C8010E940821DDCE7A2DB98AA88A6E2DA3
:1047200089890E94692186E0F60111928A95E9F74C
:10473000D6CFEE2009F465CF4D875E878D859E85A7
:104740000E946521F82E882309F45BCF86E0F801EA
:10475000A6EAB3E001900D928A95E1F786EA93E02C
:104760000E94E41D0E94B721BACF81E08E25CBCEF6
:104770001F93CF93DF93CDB7DEB72C970FB6F89486
:10478000DEBF0FBECDBF4F83588769877A878B877F
:104790009C87CE0107960E940D22882369F08A85A6
:1047A0009B85892B39F04F815885842F85238F3F36
:1047B00009F071C016E05FC086E0FE013796DE01A9
:1047C000119601900D928A95E1F78A859B85892B38
:1047D00089F38F81988589238F3F61F32091750339
:1047E00030E0C901019687709927409174034817FA
:1047F000190671F40E9442211092750310927403FD
:1048000086E0E6EAF3E0DF011D928A95E9F7D2CF70
:1048100096E0929FD001939FB00D1124AA58BC4FEF
:10482000FE01319601900D929A95E1F78093750300
:104830000E948821BFCF819FC00111248A589C4FBC
:104840000E940D228823E9F0E09174031E9FF0017D
:104850001124EA58FC4F4081518162817381848127
:1048600095810E9478218091740390E00196877071
:104870009927809374038091740390917503891331
:10488000DACF2C960FB6F894DEBF0FBECDBFDF9106
:10489000CF911F91089569857A858B859C850E94AB
:1048A000782188CFEF92FF920F931F93CF93DF93DE
:1048B0008C01892B81F0F12CEE24E394E801219600
:1048C000F8018491843770F4843008F05FC081303F
:1048D000B1F08230A1F1DF91CF911F910F91FF9044
:1048E000EF900895853709F44CC008F43DC09CE76B
:1048F000980F903780F78F770E94731E49C00E5F24
:104900001F4FFE01849190E2980F983060F48770F9
:10491000FE2D01C0FF0F8A95EAF78F2F0E94E42633
:104920000E940D2702C00E94E91D8F2D815030F298
:10493000EFE9FFE03197F1F700C00000F7CF0E5F1D
:104940001F4FFE01849190E2980F983050F48770C9
:10495000FE2D01C0FF0F8A95EAF78F2F0E94EA26ED
:10496000DFCF0E94731EE1CF0E5F1F4FFE01C49187
:10497000C150D8F28FE99FE00197F1F700C0000025
:10498000F7CF0E5F1F4FFE01F490CFCF0E94E91DBD
:104990008E01CBCF08950C94CA240E94CB2460933F
:1049A000F1037093F2038093F3039093F4030C9458
:1049B000302108950C94CD240F931F930091F1039F
:1049C0001091F2032091F3033091F403602B712BCB
:1049D000822B932B1F910F910C94CD240F931F9337
:1049E0000091F1031091F2032091F3033091F4034D
:1049F00060237123822393231F910F910C94CD2464
:104A00000F931F930091F1031091F2032091F30390
:104A10003091F40360277127822793271F910F910C
:104A20000C94CD240C94CA240C9412250E941425B5
:104A30006093ED037093EE038093EF039093F00384
:104A40000C94302160E070E0CB010C9416250F939C
:104A50001F9341E050E060E070E08A019B0104C0D8
:104A6000000F111F221F331F8A95D2F7C901B80109
:104A70001F910F910C9416250F931F9341E050E066
:104A800060E070E004C0440F551F661F771F8A95D1
:104A9000D2F78091ED039091EE03A091EF03B091D6
:104AA000F0038A019B01082B192B2A2B3B2BC901F0
:104AB000B8011F910F910C9416250F931F9341E09D
:104AC00050E060E070E004C0440F551F661F771F80
:104AD0008A95D2F7CB01BA01609570958095909533
:104AE0000091ED031091EE032091EF033091F0035C
:104AF00060237123822393231F910F910C94162519
:104B00000F931F9341E050E060E070E004C0440F59
:104B1000551F661F771F8A95D2F78091ED039091FC
:104B2000EE03A091EF03B091F0038A019B010827E7
:104B300019272A273B27C901B8011F910F910C940F
:104B400016250F931F930091ED031091EE03209112
:104B5000EF033091F003602B712B822B932B1F916D
:104B60000F910C9416250F931F930091ED03109154
:104B7000EE032091EF033091F00360237123822331
:104B800093231F910F910C9416250F931F9300915F
:104B9000ED031091EE032091EF033091F0036027B5
:104BA0007127822793271F910F910C941625089542
:104BB00021E1929F800D1124982F977041E001C050
:104BC000440F9A95EAF786958695869595E0899F94
:104BD000F0011124E455FC4F90E080E070E0519129
:104BE000DF0111979B01082E02C0369527950A9484
:104BF000E2F7217021952527242325272C93019660
:104C00008530910561F7089521E1929F800D11246F
:104C1000982F977086958695869525E0829FF0015E
:104C20001124E455FC4F50E040E080E0219130E059
:104C3000092E02C0369527950A94E2F72170332792
:104C4000042E01C0220F0A94EAF7822B4F5F5F4FB8
:104C50004530510559F70895BF92CF92DF92EF92F8
:104C6000FF920F931F93CF93DF938C01C090ED03BE
:104C7000D090EE03E090EF03F090F0038091F10309
:104C80009091F203A091F303B091F403C82AD92ABA
:104C9000EA2AFB2ACFE1D0E0BC2ED701C6010C2EB8
:104CA00004C0B695A795979587950A94D2F780FD8D
:104CB0000EC0219788F7B12C8B2DDF91CF911F91DA
:104CC0000F91FF90EF90DF90CF90BF900895B801C3
:104CD0008C2F0E94D605019761F3EECFCF93DF931F
:104CE000EC010E942C26BE01DF91CF910C94D605D9
:104CF0001F93CF93DF93EB0190917303992331F0CE
:104D0000CB01DF91CF911F910C946E26882379F00F
:104D1000CB010E942C26182F682FCE010E94D82587
:104D2000BE01812FDF91CF911F910C94D605CB014D
:104D30000E940426182FF4CF682F8091780290915A
:104D400079020C94B528682F8091780290917902AD
:104D50000C94C02880917802909179020C94CB2811
:104D60008091F50385958595859508958091F50346
:104D7000877008959091F503977081E009F480E0C1
:104D8000089580911904089590911904892B8093B6
:104D9000190408958095909119049823909319040B
:104DA000089510921904089590911804892B809306
:104DB00018040895809590911804982390931804EE
:104DC000089510921804089590911704892B8093E8
:104DD00017040895809590911704982390931704D1
:104DE00008951092170408958091F6030895089588
:104DF0000C94F7269091F603981721F08093F60310
:104E00000C94F82608958091F603882329F01092D7
:104E1000F60380E00C94F8260895E0917802F09172
:104E20007902809119048083E0917802F0917902EF
:104E3000808190911804892B8083E0917802F09111
:104E40007902808190911704892B80839091F603D9
:104E5000992381F0E0917802F09179028081892B89
:104E6000808380917802909179020E94212881119B
:104E70000E94032780917802909179020C94791C0A
:104E800008950C94402798E0899F90011124622B8B
:104E90006093F5030E943C258091F50385958595E7
:104EA00085950C9441271092F50380E00C944127DE
:104EB0009091F503809589238093F503282F27701F
:104EC00071F4282F082E000C330B9217130639F0BB
:104ED0008595859585950E945D250C9453270895A9
:104EE0006FEF7FEF90E080E00C94983290E080E0EC
:104EF0000E94643221E08C3E9E4F09F020E0822F18
:104F0000089582E090E00C945C3283E090E00C9491
:104F10005C32CF9384E090E00E945C32C82F81E243
:104F200090E00E945C32982F8C2FCF910895CF9300
:104F3000C92F682F84E090E00E947A326C2F81E2C2
:104F400090E0CF910C947A32AB01BC018FE090E0FD
:104F50000C948C32AB01BC0183E190E00C948C3258
:104F600060E070E0CB010C94AA2760E070E0CB0118
:104F70000E94A4270C94B0276CEE7EEF90E080E0B6
:104F80000E94983260E082E090E00E947A3260E015
:104F900083E090E00E947A321092F1031092F203C3
:104FA0001092F3031092F40360E084E090E00E941A
:104FB0007A3260E081E290E00E947A3260E085E03F
:104FC00090E00E947A3260E086E090E00E947A32BF
:104FD0006FEF87E090E00E947A3240E050E0BA0143
:104FE00088E090E00E948C3260E08DE090E00E94CA
:104FF0007A3240E050E0BA0188E190E00E948C32C1
:1050000060E087E190E00E947A3240E050E0BA012F
:105010008CE190E00E948C3260E080E290E00E949F
:105020007A3240E050E0BA0188E190E00E948C3290
:105030000C94B5270C94BC27682F8EE090E00C945C
:105040007A32FC01329680918402882321F080918B
:10505000AC059EE187FF96E080E0915008F408954A
:1050600021912223D1F38F5FF8CF662301F12091A4
:1050700084022223F1F02091AC0527FF1AC0462FAD
:105080004695469546954E3190F4677021E030E0A4
:1050900002C0220F331F6A95E2F7840F911DFC01B5
:1050A000828190E02823392381E0232B69F480E07A
:1050B0000895FC01329608962191261721F0E817F1
:1050C000F907D1F7F4CF81E008959C01FC013296F5
:1050D0009FEF80E04191461751F09F3F19F4411135
:1050E00001C0982F8F5F8630A9F79F3F09F408957C
:1050F000290F311D97FD3A95F90162830895FC014E
:10510000329608962191261303C0DF0111971C9255
:10511000E817F907B9F70895E62FE695E695E695BD
:10512000EE3168F4E80FF92FF11D677021E030E0EF
:1051300001C0220F6A95EAF78281822B828308954B
:10514000E62FE695E695E695EE3170F4E80FF92F37
:10515000F11D677021E030E001C0220F6A95EAF787
:10516000209582812823228308952091840222237E
:1051700029F02091AC0527FD0C948C280C9465280F
:1051800020918402222329F02091AC0527FD0C9464
:10519000A0280C947F28FC013296809184028823F9
:1051A00051F08091AC0587FF06C08EE1DF011D92B2
:1051B0008A95E9F7089586E0F9CF089508950C944B
:1051C000DE280E94DF288091B205843049F11092D8
:1051D0001B0488E190E020E40FB6F894A895809332
:1051E00060000FBE2093600080E00E94C2050E9414
:1051F000DF2883B7817F846083BF83B7816083BFEB
:105200007894889583B78E7F83BF0FB6F894A8955E
:1052100080916000886180936000109260000FBEF2
:1052200008950895CF930E94DD280E941E080E94D1
:105230001129C0E08C2F0E94BE07672B682B692BB9
:1052400031F4CF5FC630B1F780E0CF91089581E0AF
:10525000FCCF08950C9429290E9442210E946D1CC4
:105260000E94C2050C942A291F921FB61F92112476
:105270008F939F93AF93BF9380911B04811113C0B1
:105280008091A8059091A905A091AA05B091AB05C0
:105290004196A11DB11D8093A8059093A905A093E7
:1052A000AA05B093AB05BF91AF919F918F911F90CD
:1052B0001FBE1F90189582E084BD93E095BD9AEFC4
:1052C00097BD80936E0008952FB7F8948091A8053C
:1052D0009091A905A091AA05B091AB052FBF0895A3
:1052E0002FB7F8946091A8057091A9058091AA053F
:1052F0009091AB052FBF08959C014FB7F894809112
:10530000A8059091A905A091AA05B091AB054FBF42
:10531000821B930B0895CF92DF92EF92FF922FB7EB
:10532000F894C090A805D090A905E090AA05F09047
:10533000AB052FBFA7019601261B370B480B590B56
:10534000CA01B901FF90EF90DF90CF900895789453
:105350001F921FB61F9211248F939F93AF93BF93F9
:105360008091A8059091A905A091AA05B091AB05DF
:105370000196A11DB11D8093A8059093A905A09346
:10538000AA05B093AB05BF91AF919F918F911F90EC
:105390001FBE1F90189581E08093E00080E280930B
:1053A000D8001092C9008FE19EE40197F1F700C088
:1053B000000087E090EBDC018093BB059093BC0577
:1053C000A093BD05B093BE0588E19CE00FB6F894AC
:1053D000A895809360000FBE90936000FFCF0C945F
:1053E000A4170E941E088FE39CE90197F1F700C003
:1053F00000000E941E0880E00E94BE0760FF04C0FB
:105400000E94EF290C94CB2908950E9476278111E0
:1054100002C00E941A280E94812780931A040E94C9
:1054200089279093AD058093AC050E948527682F4E
:1054300070E090E080E00E94DA246091ED037091CA
:10544000EE038091EF039091F0030C94142580916A
:105450003C0408950895CF93DF9300D00F92CDB709
:10546000DEB79091B205943011F589837B836A830E
:105470009093E9008FEF9091E800815095FD06C070
:1054800095ED9A95F1F700008111F5CF8091E80034
:1054900085FF0DC050E040E063E070E0CE01019672
:1054A0000E94912C8091E8008E778093E8000F9005
:1054B0000F900F90DF91CF910895BC0184E00C9480
:1054C0002B2ABC0183E00C942B2ACF93DF93EC01B1
:1054D000809184028823B1F18091AC0587FF32C0AE
:1054E00060E284E08093E9008FEF9091E8008150C2
:1054F00095FD06C095ED9A95F1F700008111F5CF65
:105500008091E80085FF1BC08091840270E050E02C
:1055100040E0811104C050E040E068E070E0CE015E
:105520000E94912C8091E8008E778093E80080E2C1
:10553000FE01ACE1B4E001900D928A95E1F7DF91B4
:10554000CF91089568E081E0CDCFCF93FC01603228
:1055500021F58091B205843001F5C091E900CF704A
:105560002091EC00922F917020FD90E8C92B82E0F1
:105570008093E9008091E80080FF0CC050E040E09B
:1055800060E270E0CF010E94912C8091E8008E775C
:105590008093E800CF70C093E900CF910895809187
:1055A000B105811109C00E94702E0E94CD2E8091FC
:1055B000E20084608093E20008951092B10508959E
:1055C000089508950C942C2942E061EC81E00E943A
:1055D000EC2D42E261EC84E00E94EC2D42E261ECB1
:1055E00082E00E94EC2D42E260EC83E00C94EC2D12
:1055F0008091B405833009F461C030F48130D1F179
:10560000823009F49DC008958A3009F489C08B3036
:1056100009F46FC0893009F050C08091B305813220
:1056200009F04BC08091B7059091B805009719F02B
:10563000029709F042C08091E800877F8093E800DC
:105640008091E80082FF35C09091F3008091F200D4
:10565000029729F48091F1008B7F813021F48091B1
:10566000F10080933C048091E8008B778093E80000
:105670000C94202E8091B305813AF9F48091E800D2
:10568000877F8093E8008091B7059091B805892BBA
:1056900061F460E28CE194E070E00E942F2D809133
:1056A000E8008B778093E800089560E090E080E068
:1056B000F3CF8091B2058111C3CF08958091B305D6
:1056C000813AD9F78091B7059091B805892BA9F750
:1056D0008091E800877F8093E8008091E80080FF58
:1056E000FCCF809184028093F1008091E8008E7756
:1056F000BDCF8091B305813201F78091B7059091BC
:10570000B805892BD1F68091E800877F8093E80067
:105710000E94202E8091B505809384020C94422132
:105720008091B305813249F68091E800877F8093AC
:10573000E8000E94202E8091B60580933D040895D4
:105740008091B305813A09F0B8CF8091E800877F56
:105750008093E8008091E80080FFFCCF80913D04B9
:10576000C2CFCDB7DEB7A0970FB6F894DEBF0FBE9D
:10577000CDBF84B7877F84BF0FB6F894A89580917A
:105780006000886180936000109260000FBE80E826
:1057900090E00FB6F89480936100909361000FBE83
:1057A0000E94CD1C0E94702E0E94CD2E8091E2009E
:1057B00084608093E20078940E9456310E94D91C44
:1057C0008AE792E00E94681C13E08091B205853060
:1057D00059F00E94E31C8091B205843091F00E9440
:1057E000D71C0E94D81CF1CF0E94E1288091B005FF
:1057F000882359F30E941229882339F30E947B2CB5
:10580000E4CF1093E9008091E80082FFE8CF809117
:10581000E80090E085FF09C050E040E060E270E001
:10582000CE0101960E94E02C91E08091E8008B77F8
:105830008093E800992399F260E2CE0101960E94DC
:105840000618CDCF0C94242C292F33272330310573
:1058500021F168F42130310509F443C022303105CB
:1058600009F444C090E080E030E020E026C021321E
:10587000310551F122323105A9F76330710590F7F6
:10588000FB01EE0FFF1FEC5EFC4F208131816F5E4C
:105890007C4FFB01808190E010C0992781309105F9
:1058A00081F0009729F00297E9F6ECE7F5E002C0F5
:1058B000EAEBF5E0849190E09F01FA0131832083C7
:1058C0000895EEE9F5E0F6CF6330710558F6660FFE
:1058D000771FFB01E65EFC4F2081318189E090E07B
:1058E000ECCF82E190E029E136E0E7CF8BE590E074
:1058F0002EEB35E0E2CF80E189BD82E189BD09B4BC
:1059000000FEFDCF8091D8008F7D8093D8008091DC
:10591000E00082608093E0008091E00081FDFCCF98
:105920000895AF92BF92CF92DF92FF920F931F9391
:10593000CF93DF936C01EB018A010E943F2EF82E7A
:10594000811123C00115110539F0F8018081918181
:10595000C81BD90BC80ED91EB12CA12C2097A9F0B9
:105960008091E80085FD22C08091E8008E778093C9
:10597000E80001151105A1F0F80180819181A80EC0
:10598000B91EB182A08285E0F82E8F2DDF91CF91D4
:105990001F910F91FF90DF90CF90BF90AF9008952F
:1059A0000E943F2E8823D1F2F82EEFCFF60181918D
:1059B0006F018093F1002197FFEFAF1ABF0ACECF9E
:1059C000AF92BF92CF92DF92FF920F931F93CF932C
:1059D000DF936C01EB018A010E943F2EF82E8111AA
:1059E00023C00115110539F0F80180819181C81B90
:1059F000D90BC80ED91EB12CA12C2097A9F08091EB
:105A0000E80085FD22C08091E8008B778093E80054
:105A100001151105A1F0F80180819181A80EB91E30
:105A2000B182A08285E0F82E8F2DDF91CF911F915A
:105A30000F91FF90DF90CF90BF90AF9008950E949C
:105A40003F2E8823D1F2F82EEFCF8091F100F6019E
:105A500081936F012197FFEFAF1ABF0ACECFFC01F0
:105A60008091B9059091BA0586179707A0F0611546
:105A7000710529F49091E8009E779093E80090E0FA
:105A80006115710551F4911108C08091E80082FF01
:105A900034C080E00895BC01F2CF8091B205882324
:105AA000C1F18530C1F18091E80083FD30C0809163
:105AB000E80082FDEACF8091E80080FFE1CF80918D
:105AC000F3002091F200382F6115710519F028308C
:105AD000310558F091E02830310509F090E020912F
